:020000022000DC
:1060000000F7002039410400614104006160040090
:10601000654104006741040069410400000000007C
:106020000000000000000000000000006B410400C0
:106030006D410400000000006F4104007141040044
:1060400073410400734104006DEF020073410400CA
:106050007341040073410400734104005DDB0200DE
:10606000734104006FDB02007341040073410400BC
:106070007341040073410400734104007341040040
:106080007341040089400500017A0400C9670400D7
:106090007541050073410400DD650400734104008F
:1060A0007341040073410400EDC4040001EB0200DD
:1060B0007341040073410400000000000000000070
:1060C00073410400734104007341040073410400F0
:1060D0007341040073410400734104000000000098
:1060E00000000000000000000000000000000000B0
:1060F00000000000000000000000000000000000A0
:10610000000000000000000000000000000000008F
:10611000000000000000000000000000000000007F
:10612000000000000000000000000000000000006F
:10613000000000000000000000000000000000005F
:10614000000000000000000000000000000000004F
:10615000000000000000000000000000000000003F
:10616000000000000000000000000000000000002F
:10617000000000000000000000000000000000001F
:10618000000000000000000000000000000000000F
:1061900000000000000000000000000000000000FF
:1061A00000000000000000000000000000000000EF
:1061B00000000000000000000000000000000000DF
:1061C00000000000000000000000000000000000CF
:1061D00000000000000000000000000000000000BF
:1061E00000000000000000000000000000000000AF
:1061F000000000000000000000000000000000009F
:1062000010B5054C237833B9044B13B10448AFF3F0
:1062100000800123237010BD002B0020000000002F
:10622000F0AD050008B5034B1BB103490348AFF3BC
:10623000008008BD00000000042B0020F0AD050028
:10624000154B002B08BF134B9D46A3F5803A002148
:106250008B460F461348144A121A30F029FB0F4B95
:10626000002B00D098470E4B002B00D09847002001
:10627000002104000D000D48002802D00C4830F029
:1062800076FA30F0ABFA200029001DF015FE30F050
:1062900091FA00BF0000080000F700200000000095
:1062A00000000000002B0020A48900206F6705007B
:1062B00000000000FF20704700207047002070475A
:1062C0000E2070477047704710B5182104462EF015
:1062D0004FFC204610BDF8B50B680446DB68084645
:1062E0000E4698470023C4E90033A3600546B0B1C9
:1062F0002EF086FB03465F19C4E90033A7602DB179
:1063000018462A46002130F0D3FA03466760326807
:106310001946976830462A46B8472046F8BD0346D6
:10632000E9E7407970470831034603C983E8030071
:10633000184670471031034603C983E80300184626
:10634000704710B50C46002C0AD001DA6442FAE717
:10635000002806DA21464042FFF7F3FF00B1201A79
:1063600010BD90FBF4F304FB1300F9E72DE9F04FA7
:1063700000F108090E46824699E8030087B00DF146
:10638000080888E80300404617F0CDF80AF1100726
:10639000009097E8030004AC84E80300204617F05F
:1063A000C2F8072101903248B6FBF0F00430B0FB90
:1063B000F1F5C5EBC505401B012585404FF0FF30C9
:1063C000FFF7BFFF05FA00F05FFA85FB10F07F05CD
:1063D00008BFC0F3C61532464FF00001204618BF73
:1063E000EDB217F068F8204617F09DF8DDE90032AD
:1063F0009342064621D397E8030084E80300204631
:1064000017F091F8B04208D99AF807301D4214BF2E
:106410000120002007B0BDE8F08F99E8030084E870
:106420000300204617F07FF8B04201D90020F1E7C1
:106430009AF807301BEA030FE9E79AF807301BEADE
:10644000030FF3D099E8030088E80300404617F0F3
:106450006AF8B042EAD897E8030084E803002046CF
:1064600017F061F8B04294BF00200120D2E700BFCE
:106470008051010010B50C1A134605D00146224682
:10648000184630F0FBF90346181910BD7FB50546D4
:106490000B798DF8083002A80C4619F08FF82A46BF
:1064A0000DF105018DF8040001A8FFF7E3FF064692
:1064B000601D19F083F832460DF109018DF80800CE
:1064C00002A8FFF7D7FF0646A01D19F077F832465D
:1064D0000DF109018DF8080002A8FFF7CBFF064671
:1064E000E01D19F06BF832468DF808000DF1090136
:1064F00002A8FFF7BFFF04F10801064602A816F044
:10650000A3FF32460DF10D0102A8FFF7B3FF04F11E
:106510001001064602A816F097FF32460DF10D0154
:1065200002A8FFF7A7FF284604B070BD0D2A1FB5CB
:106530000C460BD901466846FFF7A8FF22460DF12D
:106540000E016846FFF796FF04B010BD0020FBE780
:1065500084B02DE9F04786B00FAD044685E80E0003
:106560002846012119F020F8012182460DF13D0055
:1065700019F01AF8012181460DF13E0019F014F8C6
:10658000012180460DF13F0019F00EF804AE0746D8
:1065900032460DF14501281DFFF76CFF6D4696E868
:1065A000060002A816F08FFF2A460DF14A010DF1F0
:1065B0004500FFF75FFF95E80600304616F083FFC1
:1065C0009DF808209DF810300A4922722374039A1E
:1065D000059B2160204684F804A084F8059084F887
:1065E0000680E771E260636106B0BDE8F04704B081
:1065F000704700BFC07305007047704710B5102189
:1066000004462EF0B5FA204610BD000010B50B4C24
:106610002378BFF35B8FDB070ED420462EF000FA01
:1066200050B1074813F0A0FA20462EF005FA054AAB
:10663000054903482EF097FA014810BD4C2B002065
:10664000502B0020002A0020F99A030013B50446BD
:10665000FFF7DCFF04230DEB0302962113F0ECFDA2
:106660009DF80430C3F300032372204609F078FF3D
:1066700002B010BD70B50846154611B90024204679
:1066800070BD00230A4A0B492EF0DBF904460028AE
:10669000F4D02946FFF76AFE0028EFD02368294688
:1066A0001E6A2046DDE90423B0470028E7D1E5E76C
:1066B000B4740500A47305002DE9F04F9946037AE0
:1066C00085B082460F46904600256BB98DF80D5077
:1066D0009DF80C30002063F307009DF80D3063F344
:1066E0000F2005B0BDE8F08F0029EFD02C46CDE992
:1066F00000891A4B3A46E9585046FFF7BBFF064659
:106700002CB370B10146204600F099FFB0B130467D
:10671000FFF707FE83462046FFF703FE834538BF99
:1067200034460435C82DE2D19CB12046FFF7F9FD6F
:1067300001238DF80C008DF80D30C9E721463A464B
:10674000304600F0E5FF002818BF3446E9E704466C
:10675000E7E74FF48073ADF80C30B9E7882B0020E1
:1067600030B5037A85B004462BB9C27902B1C37142
:10677000012005B030BD16F03DFC054668460CF022
:1067800033FB9DF80830002BF2D0DDE900232946C9
:106790002046FFF791FFE080EAE700002DE9F04F87
:1067A0004C69BDB082460F4624B910233B823DB0F0
:1067B000BDE8F08F0B8B702B01D81223F6E716F093
:1067C00019FC804606A80CF00FFB8C4BC4F8008027
:1067D0004FF4E142CDE90423FFF718FF0823952188
:1067E00004AA13F029FD049B6360059BA3609AF83B
:1067F0000830237400210B46881D04EBC0000131D2
:10680000082943708370C370037143718371C3712E
:106810000372F1D19DF82090B9F1000F00F0EA80E9
:10682000DDE9062304F1110604F119054FF0000B10
:10683000C4F83530C4F8312084F811B0C82286F885
:1068400001B086F802B086F803B086F804B086F886
:1068500005B086F806B086F807B0694984F819B023
:106860000AA885F801B085F802B085F803B085F86C
:1068700004B085F805B085F806B085F807B084F84F
:1068800021B084F822B084F823B084F824B084F8CE
:1068900025B084F826B084F827B084F828B084F8AE
:1068A00029B084F82AB084F82BB084F82CB084F88E
:1068B0002DB084F82EB084F82FB084F830B02FF0CB
:1068C000CFFF0AAB019318465B4650F8042B72B118
:1068D0000122D4F811E0D4F815109A404FEAE27C76
:1068E0004EEA020E62461143C6F800E071600133C1
:1068F000322BEAD19AF80830002B77D0B8F1000F8C
:1069000074D0B9F1000F71D00026019B53F8049B9D
:106910000193B9F1000F66D000233A4A3A4948463C
:106920002EF08FF8824668B303684146D3F820B052
:10693000DDE90623D84728B34FF0010B0BFA06FB1D
:106940005A46D317D4F81900D4F81D10CDE9022304
:10695000039B40EA0B020B432A606B60504601F038
:106960003EF8002808BF4FF0000BD4F82900D4F8F7
:106970002D105A46D31740EA0B0B0B43C4F829B02D
:10698000C4F82D300023214A1F4948462EF059F8FB
:1069900080B190F860300BB10123B340D4F821C02E
:1069A000D4F82520D9170A434CEA0303C4F8213050
:1069B000C4F825200023164A134948462EF041F812
:1069C00088B14146FFF7D2FC68B10123D4F819C061
:1069D000D4F81D20B340D9170A434CEA0303C4F886
:1069E0001930C4F81D200136322E8ED17123BB839D
:1069F0000023DBE64A464B4614E700BF300B01009C
:106A0000882B0020B4740500A47305006074050091
:106A100000750500C3888380DAB2002062F30700A6
:106A20001B0A82B063F30F2002B0704770B50B4DA4
:106A30000E46322455F8040B18B9013CFAD1204611
:106A40000BE003689B6998470028F6D0314655F85B
:106A5000040CFFF78BFC0028EFD070BD882B0020C2
:106A6000F0B585B0194E039101F00101017234783F
:106A7000BFF35B8F14F00104074618D130462DF0A8
:106A8000CFFFA0B1124D134B2B6030462C71C5E9DE
:106A900002442C82AC74C5E90544AC8385F82840D7
:106AA0002DF0CAFF0C4A0D4928462EF05CF803234E
:106AB000009303AA042349F6AF41054818F055FA9C
:106AC0003846FFF74DFE05B0F0BD00BF1C2B00207F
:106AD000202B0020589A0500002A0020FB650200A8
:106AE0001FB50191437A0246ABB9837BE3B19DF8B0
:106AF00004309DF8041013F0010304BF837A03F0FF
:106B0000010363F300018DF804100198C2F80A0034
:106B100005B05DF804FB0391FFF778FD042303AA99
:106B2000962113F05BFEF3E70123C0F80A1083738C
:106B3000EEE707B5837B63B101234372D0F80A0007
:106B40000190FFF763FD04230DEB0302962113F080
:106B500045FE03B05DF804FB10B5437A04462BB93B
:106B6000FFF7E7FF607A80F0010010BD0020FCE72E
:106B7000437A10B504461BB9FFF7DBFF01236372AC
:106B800010BD000000B5437A8FB04BB3FFF73EFD58
:106B900004236A46962113F04FFB134A0192042204
:106BA000ADF810204FF4C672ADF8182001AA079274
:106BB00014220023ADF8202006A8702203938DF83C
:106BC0000830CDF814D0ADF822308DF82430ADF86F
:106BD00028200B93ADF83030ADF8343009F04EFC7E
:106BE0000FB05DF804FB00BF0B01010037B50B8847
:106BF000B3F5CE7F02460C4649D007D8B3F5CD7F1A
:106C000034D03BD8962B2AD003B030BD40F2AF151C
:106C1000AB421FD0B3F5D87F0ED240F2A5118B4204
:106C2000F2D1636819780B29EED15B681968FFF718
:106C300057FF00232382E7E740F2B1118B4203D0D4
:106C400040F2C1118B42DFD1104603B0BDE83040A5
:106C5000FFF786BD03B0BDE83040FFF79FBD4B682E
:106C6000196803B0BDE83040FFF7FABE4C68FFF783
:106C700073FF637860F382036370C5E74B685B78EA
:106C80005B07C1D503B0BDE83040FFF77BBF03B061
:106C9000BDE83040FFF76CBF10B52C2104462DF045
:106CA00067FF204610BD0000F8B54B681D78312DF8
:106CB0000C4603D8164E56F8250010B9252323821A
:106CC000F8BD03681B69984763690BB91023F6E7A1
:106CD00056F82500278B0368DB6898470130874208
:106CE00001D21223EBE756F825000368DB689847CA
:106CF00063690130A0831D7056F82500228B6169FD
:106D00000368013A9B68013198470023D7E700BF29
:106D1000882B00202DE9FF474B690C4623B910232F
:106D2000238204B0BDE8F0870B8BF92B01D8122326
:106D3000F6E70025DFF850802E4658F8043BE3B113
:106D400063695E5501A858F8041CFFF7C4FA58F8A7
:106D5000040CDDF804A00368DB68984700220146B4
:106D60005046D4F8149018F0ADFB6F1C49F807009A
:106D7000019808B12DF063FE05350136F6B2322ECA
:106D8000DBD1A5830023CBE7882B002000B589B099
:106D900040F2B113ADF80030702200236846019331
:106DA000ADF80830ADF80A308DF80C30ADF8102091
:106DB0000593ADF81830ADF81C3009F05FFB09B051
:106DC0005DF804FB7FB50024194D8DF803409DF854
:106DD0000330312B28D855F82330FBB1224601214E
:106DE0000DF1030018F06EFB9DF80330064655F8D0
:106DF000231001A8FFF76FFA9DF80330019C55F8A6
:106E000023000368DB68984732460146204618F0A5
:106E100059FB0446019808B12DF011FE9DF803308E
:106E200001338DF80330D2E7204604B070BD00BFB7
:106E3000882B002073B50C461E461546FFF7C2FF8F
:106E40000190FFF7E3FB04230DEB0302992113F0FC
:106E5000C5FC3368228901339A4204D0202323825F
:106E6000002002B070BD312D01D92123F7E70120A8
:106E7000F7E707B5FFF7A6FF0190FFF7C7FB04236D
:106E80000DEB0302992113F0A9FC03B05DF804FB9C
:106E90003129F7B507460C4631D81A4D55F821006F
:106EA000B8B103685B699847064655F8240010B1ED
:106EB00003685B6898470023012E45F8243016D0FC
:106EC00016F0FF0F07D0022E15D03846FFF7D1FF7E
:106ED000002003B0F0BDFFF799FB4523ADF8063065
:106EE000224603230DF1060113F0C7FCEDE7FFF77F
:106EF0008DFB4623F2E7FFF789FB4723EEE72120CE
:106F0000E7E700BF882B002038B54B681D780C469A
:106F10002946FFF7BDFF6369208253B1228B042A03
:106F200007D91D706569FFF74DFF0523C5F80100FE
:106F3000A38338BD38B505460024E1B228460134A4
:106F4000FFF7A6FF322CF8D138BD000010B5034B77
:106F500003600446FFF7EEFF204610BD54740500A1
:106F600010B50446FFF7F2FF204604212DF000FE85
:106F7000204610BD10B513460C4629B10A460146FD
:106F800018462FF07BFC0346181910BD2DE9F04779
:106F90000B89012B92B080460C4604D820230B822B
:106FA00012B0BDE8F0874B681D785B78012B5CD090
:106FB00023B1022B00F09980212346E008AF1B2665
:106FC0003B462A460896FFF735FF00283ED0294663
:106FD0004046FFF75DFF4020D4F804A02DF010FDDF
:106FE0002389013B1A2B814605D93A4631460AF1DD
:106FF0000100FFF7BFFF0BAB0FCB6E4607C626F8AD
:10700000023B1B0C337097E80E00484600F09AFDD7
:10701000564B484643F8259000F0D2FC63688DF843
:1070200022505A1C2389CDF823204521013BADF87D
:107030002010ADF82730FFF7E9FA0322394613F0A4
:10704000A5FB4046FFF715FF002323826369002B51
:10705000A6D0228B042AA3D91D706569FFF7B2FE62
:107060000523C5F80100A3839AE708AE4FF00E0987
:1070700033462A46CDF82090FFF7DCFE0028E5D005
:1070800029464046FFF704FF1820D4F804A02DF04D
:10709000B7FC2389013B0D2B074605D932464946EB
:1070A0000AF10100FFF766FFBDF82C30ADF80030A3
:1070B00096E80E00384600F0A5FD2C4B384643F804
:1070C000257000F07BFD63688DF822505A1C2389DF
:1070D000CDF823204621013BADF82010ADF8273034
:1070E000FFF794FA03223146A9E70DF1200928267B
:1070F0004B462A460896FFF79DFE0028A6D0294653
:107100004046FFF7C5FE702067682DF079FC2389A3
:10711000013B272B824604D94A463146781CFFF7AB
:1071200029FF0BAF0FCF6E460FC697E8070086E822
:107130000700504699E80E0000F0F4FB0B4B504658
:1071400043F825A000F052FB63688DF822505A1CCA
:107150002389CDF823204721013BADF82010ADF85D
:107160002730FFF753FA0322494668E7882B0020AF
:107170002DE9F04F91B002AF894600238246BB60F3
:10718000FFF744FA07F10802494613F0C0F9002856
:1071900042D1BB68224ED3E90053EB463B6007F176
:1071A00018083B689D4233D015F8014B312CF8D8B4
:1071B0000E23FB740023A7F80C90BC73C7F80F8054
:1071C0003B75FFF723FA032207F10C0112F0AFFF22
:1071D0000028E6D156F8240010B103685B68984790
:1071E00018202DF00DFC07F128031A4678600E21B7
:1071F0004046FFF7BFFEBA8EADF8002007F1280326
:107200000ECB786800F0FEFC7B6846F82430C8E7B7
:107210005046FFF72EFEDD463C37BD46BDE8F08FF9
:10722000882B00202DE9F04F9BB008AF8B46002340
:1072300078603B61FFF7EAF907F11002594613F055
:1072400066F900284ED13B69C7F80CD0D3E900633A
:107250008AB0DFF89880BB600DF1200A3860BB6807
:107260009E423AD016F8014B312CF8D84FF0280343
:10727000FB763B68A7F814B0BC75C7F817A03B773E
:10728000FFF7C4F9032207F1140112F050FF0028A0
:10729000E5D158F8240010B103685B689847702066
:1072A0002DF0AEFB07F1200581462A4628215046E5
:1072B000FFF760FE07F12C0EBEE80F00EC46ACE8CD
:1072C0000F009EE807008CE80700484695E80E008E
:1072D00000F028FB48F82490C1E77868FFF7C9FD63
:1072E000D7F80CD04C37BD46BDE8F08F882B002076
:1072F0002DE9F04F95B004AF8B46002378607B6199
:10730000FFF784F907F11402594613F000F9002839
:1073100050D17B69C7F80CD0D3E9006388B0DFF89F
:107320009C80BB600DF1100A3860BB689E423CD067
:1073300016F8014B312CF8D84FF01B03FB773B6854
:10734000A7F818B0BC76C7F81BA087F82030FFF765
:107350005DF9032207F1180112F0E9FE0028E4D1DB
:1073600058F8240010B103685B68984740202DF05E
:1073700047FB07F1240581462A461B215046FFF7AB
:10738000F9FD07F1400313E90F00EC46ACE80700F4
:107390002CF8023B1B0C8CF8003095E80E00484698
:1073A00000F0D0FB48F82490BFE77868FFF761FD54
:1073B000D7F80CD04437BD46BDE8F08F882B0020AD
:1073C00010B545210446FFF793FF20464621FFF7FD
:1073D000CFFE47212046FFF725FF10BD2DE9F04FD6
:1073E000814695B00E469A461546002A00F0AE80BA
:1073F0000A785749002351F8044B0993DFB201334F
:10740000002CF8D1012A46D04FFA82FBBBF1000FC5
:1074100005D0022A74D0212015B0BDE8F08F1B2DB5
:1074200040F0948040202DF0EBFA0DF1280804463E
:10743000424629463046FFF79DFD0DAB0FCBEC468B
:10744000ACE807002CF8023B1B0C8CF8003098E8E5
:107450000E00204600F076FB099A3D4B204643F88B
:10746000224000F0ADFA4523ADF828308DF82A709F
:10747000CDF82B608DF82F508DF830B0FFF7C6F89F
:107480000322414613F082F948468AF80070FFF75C
:10749000F0FC5846C0E70E2D58D118202DF0B0FA58
:1074A0000DF128088346424629463046FFF762FD23
:1074B000BDF83430ADF8003098E80E00584600F0C2
:1074C000A1FB234B099A584643F822B000F076FB03
:1074D0004623ADF828308DF82A70CDF82B608DF852
:1074E0002F508DF83040FFF791F80322414613F0FA
:1074F0004DF948468AF80070FFF7BBFC20468BE741
:10750000282D23D170202DF07BFA0DF12808834619
:10751000424629463046FFF72DFD0DF1340EBEE8F8
:107520000F00EC46ACE80F009EE807008CE807006F
:10753000584698E80E0000F0F5F9054B099A5846B0
:1075400043F822B000F052F94723C2E7202063E756
:10755000882B00202DE9FF414FF6FF73DFF88C8068
:107560000B8207460C468DF80330002558F8040BB3
:1075700058B303682689DB689847864225D1666838
:1075800058F8041C01A8FEF7A6FE3046228901998E
:107590002FF058F90646019808B12DF050FAA6B917
:1075A0008DF803502682636963B1228B042A09D9BE
:1075B0009DF803201A706569FFF704FC0523C5F8E0
:1075C0000100A38304B0BDE8F0810135EDB2322D96
:1075D000CCD1238A002BE6D00DF103032289616808
:1075E0003846FFF7FBFE2082DDE700BF882B002036
:1075F0000B88A3F5D57310B50446062B1ED8DFE81B
:1076000003F0040B0E11151D1900FFF7A3FF204610
:10761000BDE81040FFF7BABBFFF7B8FCF7E7FFF78C
:1076200073FCF4E7BDE81040FFF73EBBBDE8104037
:10763000FFF770BBBDE81040FFF77CBC10BD70B514
:107640000D4688B0044610B9002008B070BD00296E
:10765000FAD001466846FEF766FE684615F063FFFD
:107660002946064602A8FEF75EFE02A815F05BFF5B
:107670008642E9D1214604A8FEF75CFE04A815F075
:1076800052FF2946044606A8FEF754FE06A815F048
:107690004AFF231A58425841D7E710B50C4631B17A
:1076A000002805DA4042FFF7F8FF00B1201A10BDAC
:1076B000B0FBF1F301FB1300F9E700002DE9F04105
:1076C000069D0C46401B114916469846FFF7E5FFFC
:1076D0000E490746701BFFF7E0FF0C490646601B8A
:1076E000FFF7DBFF09490446A8EB0500FFF7D5FFCC
:1076F000B74206D807D184428CBF00200120BDE8E4
:10770000F0810120FBE70020F9E700BF8051010074
:107710002DE9F0418CB00C460546014602A8904682
:10772000FEF701FE02A815F0FEFE2946064604A853
:10773000FEF700FE04A815F0F6FE2146054606A851
:10774000FEF7F1FD06A815F0EEFE2146074608A853
:10775000FEF7F0FD08A815F0E6FE424604460021BB
:107760000AA815F0A8FE0AA815F0DDFE2346009031
:107770003A4629463046FFF7A1FF0CB0BDE8F0813C
:107780000220704728207047704710B570210446CA
:107790002DF0EEF9204610BD90F8603013B1203086
:1077A0000BF05DBA4830FBE790F8603013B1203041
:1077B0000BF05CBA4830FBE770B506460C46154640
:1077C00062B92A462146304600F0A8F90022014657
:1077D00006F14000BDE870400BF0F4B921B1036838
:1077E000DB689847A842ECD9204670BD13B5044623
:1077F00000F0E6F894F8683023B1626E0021684624
:1078000015F059FE02B010BDF8B5044616461F46E5
:10781000FEF7ACFD48B132463B46204600F0F8F892
:10782000054684F860002846F8BD94F860300BB92E
:107830000025F8E732463B4604F140000BF074F9AE
:10784000054650B115F0D6FB94F868306066002B01
:10785000E9D1012384F86830E5E794F868607EB1E7
:1078600015F0BAFBA36D626EC31A984205D9934214
:1078700006D8904204D93546D5E79342FBD9F8E7BC
:1078800094F86820002384F86030002AD0D0E1E723
:10789000F0B54B7943711746CB88C38001F10802DC
:1078A00004460D4600F1080392E8030005F11002BA
:1078B00083E8030092E8030004F1100383E8030067
:1078C00005F120030FCBDFF858C0C4F818C004F14D
:1078D000200686E80F00383555F8083C236395E804
:1078E000030004F1380383E803000C4B236007F125
:1078F0000803C4F840C00FCB04F1480585E80F0029
:10790000BB69A3650023C4E9193384F8603084F8A7
:107910006830022323712046F0BD00BF907405003B
:107920007C88050084B0F0B5A1B0064627A880E8A1
:107930000E0008AA03462DAF15461868596814466C
:1079400003C40833BB422246F7D119889B78A37041
:1079500021800BAB0FCB6C4607C424F8023B1B0CF9
:10796000237095E80E0010A800F0ECF804AA0DF1C1
:10797000B7030DF1BF0C174618685968144603C4C5
:10798000083363452246F7D1186820601B792371BC
:107990009DF81C308DF8003097E80E0028460BF05B
:1079A000C7F82A4610A93046FFF772FF304621B0CB
:1079B000BDE8F04004B07047002070471B207047BE
:1079C0007047704720300BF04AB920300BF04EB9A9
:1079D00010B5402104462DF0CBF8204610BD38B537
:1079E00090F83C4005467CB115F0A0F92B6BAA6BD2
:1079F000C31A984206D9934208D8904234BF002453
:107A0000012401E09342F8D8204638BD0024FBE76A
:107A1000F8B51F4603689B6904461646984798B117
:107A2000236820469B69984748B332463B4604F199
:107A300018000BF079F8054678B115F077F90123B5
:107A4000A06384F83C3006E023682046DB69984751
:107A50000028E5D101252846F8BD94F83C300BB943
:107A60000025F8E72046FFF7BAFF05460028F1D1C8
:107A700094F83C30002BF3D084F83C00EBE723680B
:107A80002046DB6998470028E4D032463B4604F1A3
:107A900018000BF049F8054628B915F047F90123FD
:107AA000A06384F83C3094F83C30002BD3D02046BF
:107AB000FFF795FF0028D3D194F83C50002DC9D092
:107AC00084F83C00C7E7D0B5044616461F46FEF7CB
:107AD0004DFC30B132463B462046BDE8D040FFF772
:107AE00097BFD0BD30B585B0044668460D46FEF759
:107AF000CDFC22460DF10E016846FEF7BBFC05F1F8
:107B0000180168460BF042F804F10E020DF10D0168
:107B10006846FEF7AFFC204605B030BD10B51A2A06
:107B200088B00C460BD9014601A8FFF7DBFF2246BF
:107B30000DF11F0101A8FEF79DFC08B010BD00204B
:107B4000FBE7000084B070B586B0054602AC0BA818
:107B500080E80E0022460DF13A01FEF78BFCBDF8DD
:107B60001430ADF8003094E80E002E462846FEF79B
:107B7000EFFC0F4B46F8183B22460DF147010DF183
:107B80003A00FEF777FC9DF814308DF8003094E849
:107B90000E0030460AF0CCFF00232846C5E90E331C
:107BA00085F83C3006B0BDE8704004B0704700BFB7
:107BB000DC740500012070470E2070477047704745
:107BC00010B5182104462CF0D3FF204610BDF0B5A7
:107BD000036885B0DB68174606460C469847B842EE
:107BE00005460CD831466846FEF750FC25B12A46BA
:107BF000694620462EF034FE601905B0F0BD002025
:107C0000FBE7000084B037B507AC84E80E00BDF890
:107C10002830ADF8003094E80E000546FEF798FCD9
:107C2000034B2B60284603B0BDE8304004B07047DA
:107C300028750500704710B5082104462CF098FF00
:107C4000204610BD37B5134C2378BFF35B8FDB079D
:107C500005460ED420462CF0E3FE50B10E4811F03C
:107C600083FF20462CF0E8FE0C4A0D490A482CF010
:107C70007AFF04230DEB03029621074812F0DCFA89
:107C80009DF80430C3F30003AB71284608F068FC8C
:107C900003B030BD4C2B0020502B0020002A0020C8
:107CA000F99A03002DE9F04F837987B0894673B9BB
:107CB00000238DF811309DF81030002063F3070089
:107CC0009DF8113063F30F2007B0BDE8F08F002955
:107CD000EED00A4604A8002115F0EDFB04A815F02B
:107CE00022FC00250390FF24A8462F46234BE8588A
:107CF00078B30023224A23492CF0A3FE064640B362
:107D00004946FEF733FB20B3314604A8FEF70BFBD0
:107D100004A815F008FC3146824604A8FEF70AFBC9
:107D200004A815F000FCFF2C834608D1BA451AD0F0
:107D30003046FEF7F6FAD8460446574609E0039B5C
:107D40000093014643463A465046FFF7B7FC0028E9
:107D5000ECD10435C82DC9D1FF2C08BF64248DF89F
:107D600010400123A5E7C345E2D13046FEF7D9FA1A
:107D7000844228BF0446E4B2EBE700BF882B002012
:107D800000750500A473050013B5044615F032F91B
:107D900001462046FFF786FF6379ADF80400C0F383
:107DA000072098420CD12BB123799DF804001B1AAF
:107DB00018BF0123BDF80420A280184602B010BDF0
:107DC0000123F7E70B8810B440F2B114A342024636
:107DD0000BD040F2C114A34207D0962B0AD14B68B6
:107DE0001B78C3F30003837100E010465DF8044B79
:107DF000FFF7CABF5DF8044B704783880020DAB2F2
:107E000062F307001B0A82B063F30F2002B07047D1
:107E100070B5114E3478BFF35B8F14F0010418D1A4
:107E200030462CF0FDFDA0B10C4D0D4B2B603046C3
:107E30002C71C5E902442C82AC74C5E90544AC83BD
:107E400085F828402CF0F8FD064A074928462CF012
:107E50008AFE024870BD00BF1C2B0020202B002092
:107E6000589A0500002A0020FB650200F8B5264B51
:107E70000360264BC360264E0123002580F82A307C
:107E800000F150030446C0E901550585456483644B
:107E900000F14807304600F035FC4FF0000332187F
:107EA0003146384600F078FBA4F8D8502946102215
:107EB00004F1DC002EF0FCFCC4F8FC50154D2B78CE
:107EC000BFF35B8FDB070ED428462CF0A9FD50B121
:107ED000114803F0E7F928462CF0AEFD0F4A10498F
:107EE0000D482CF040FE0C4B636000232046C4F884
:107EF000EC30A4F8F030C4F8F430A4F8F83000F016
:107F000028F82046F8BD00BF10770500FF00A0004C
:107F100096760500C02C0020502C0020002A00205E
:107F200009B3020010B5037A04468BB90122114649
:107F3000406803F0C7FA58B101232046237204F1C8
:107F4000480100F027F82046BDE8104008F008BBC3
:107F500010BD038A03F47C4343F001034FF48072A5
:107F6000038282840023C2894361826183837047D4
:107F7000A1F120039BB243F6E072934210B508D8FA
:107F8000C181FFF7E6FF037A1BB1BDE8104000F0A6
:107F90006EB910BD2DE9F04100F148078F4288B05D
:107FA00004460E461FD0826C4D6800F150039A4281
:107FB00014BF016D0F218D420BD902A8029500F06C
:107FC0007DFB8046384600F0DEFA029BC4F848800C
:107FD000236525B12A463168A06C00F0FFFAA36C36
:107FE000E56400225A55237AD3B1E56C04AB0293C1
:107FF000CDB91A4C204600F085FB4FF00003221843
:10800000214602A800F0C8FA1123BDF80C200299FD
:108010008DF8043001A800F073FB02A800F0B3FA59
:1080200008B0BDE8F081A46C14B90D482DF01BF91F
:108030000F2D019506D9002101A800F03FFB019BFF
:10804000029004932A462146029800F0C7FA019B49
:10805000029A03930021D154D6E700BF967605001B
:108060009B76050090F90D308B421AD011F10C0F60
:1080700009D010DC11F1140F05D011F1100F02D04E
:1080800011F1280F0DD1037A417353B1037BFF2BFC
:1080900007D000F02EB80B1DF5D003DC11F1080F4E
:1080A000F1D070470029EED00429FAD1EBE713B5DF
:1080B0000446FEF7ABFA01230DF107022A2112F064
:1080C000BBF89DF907102046FFF7CCFF02B010BDAA
:1080D00013B50446FEF79AFA01230DF107020B21AE
:1080E00012F0AAF89DF907102046FFF7BBFF02B077
:1080F00010BD037A3BB1017BFF2904D090F90D201C
:10810000012000F0FBBA704710B5044600F005F8F6
:108110002046BDE8104000F0DAB82DE9F0410446F1
:1081200041641546002A44D100F160063C2200213A
:1081300030462EF0BDFB002D3ED14FF4C06373805E
:108140004FF0030804F138070C22002138462EF0C6
:10815000AFFB4CF201032387606C02F087FB2064C5
:10816000606C02F085FB0122A087B76286F82C20A4
:1081700094F83C303270063358FA83F3DBB21F2B8D
:1081800098BFC3F11F0394F84C2094BFDBB20023C7
:10819000934228BF134603B93370737029462046B3
:1081A00000F0F8F818B101234DB184F8D930BDE8DA
:1081B000F08100F19C06B9E74FF00008C2E784F8AF
:1081C000D830F4E738B501238372037A04463BB311
:1081D000437A2BBB057B00F1100200F1EC010C305F
:1081E00000F086FAE0B9FF2D02D12046FFF781FFAB
:1081F000002384F828300121207B00F07BFA03461D
:1082000070B90122D4F8EC10204600F0F9F80123EF
:108210001A46D4F8F410204600F0F2F801236372F5
:1082200038BD38B500238372037A0446ABB1437A74
:108230009BB1007B00F060FA054670B90346024628
:10824000D4F8EC10204600F0DBF801232A46D4F8DD
:10825000F410204600F0D4F8657238BD10B504461D
:10826000FFF7DFFF2046BDE81040FFF7ABBF38B592
:10827000437A04460BB9837A43B3237A33B36068F5
:1082800003F0ACF994F82A506DB9002394F8282033
:10829000E2B1B3B10123237484F829302046BDE84C
:1082A0003840FFF7DBBF606803F0F6FB0028ECD135
:1082B00094F82930002BE9D1012384F828302B468B
:1082C000E4E70522227484F82930E7E738BDF8B5E1
:1082D000037A0446002B5CD090F8D830D0F8EC70CC
:1082E000D0F8F460002B43D194F8D9308BB11F2320
:1082F0000121A4F8F830204600F06DF804F1F802EE
:108300000146C4F8F40004F19C001CF0ABFA00280C
:108310003FD1237BFF2B22D0002204F1EC0104F19A
:108320000C0000F0E5F9054698BB034602463946C5
:10833000204600F065F801232A463146204600F029
:108340005FF82B460122D4F8EC10204600F058F8D4
:1083500001231A46D4F8F410204600F051F8637A4D
:10836000BBB9A37AABB12046BDE8F840FFF72ABFFE
:108370001F230021A0F8F03000F02DF804F1F002E6
:108380000146C4F8EC0004F160001CF06BFA002810
:10839000AAD0F8BD70B5002914BF0224002400F152
:1083A000DC0526B255F8263033B91F2101202EF006
:1083B000E5F945F8260020B1013455F824300BB119
:1083C000012070BD1F2101202EF0D8F945F82400AE
:1083D0000028F5D1F5E7002914BF022200228118F8
:1083E000134691F8FC1021B1531CC21892F8FC20DE
:1083F00022B900EB8300D0F8DC0070470020704702
:1084000030B591B1002B14BF0223002300EB83048D
:10841000D4F8DC50A94205D0D4F8E040A14203F1E1
:10842000010302D1184480F8FC2030BD70B58A7871
:10843000037B9A4204460E4613D10025052303749C
:10844000457280F829502B462A464968FFF7D8FF25
:108450000123F1682046FFF7D3FFA37A0BB1012374
:10846000E37270BD427A32B105220274002280F8B4
:108470002920FFF7F3BE7047C27A2AB1837A00221F
:10848000C2720BB1FFF79EBE704730B50B88B3F5D3
:10849000847F89B005460C462DD013D83C2B3DD0A7
:1084A00005D80B2B4CD00C2B50D009B030BDB3F5F8
:1084B000827F65D040F207129342F6D14968FFF7F8
:1084C000B5FFF2E740F2F112934218D0B3F5F97F0D
:1084D0000AD240F2091293423DD040F2D7129342A1
:1084E000E3D1FFF7C9FFE0E740F2F31293420ED069
:1084F000B3F5FA7FD9D12846FFF7B9FED5E7FFF7E4
:10850000B1FF238A702BD0D100232382CDE74B68A3
:108510001B88002BC9D0FFF7AAFEC6E7496822894D
:1085200004AB0A44029302A84FF0000300F034F8B1
:10853000284602A9FFF72EFD02A800F024F8B4E7B0
:108540004B6893F90010FFF78DFDAEE74B68198873
:10855000FFF70EFDA9E74B681B788DF8083063B173
:10856000FFF730FEFFF754FC0323009302AA012318
:108570004CF2503116F0F9FC97E7FFF752FEF1E7A5
:10858000FFF7A5FE91E7034653F8080B984201D088
:108590002CF055BA7047000073B505460E4619B960
:1085A00012B10D482CF05FFE941B0F2C019406D9DC
:1085B000002101A800F082F8019B2860AB602246F0
:1085C0003146286800F00AF8019B2A686B60002198
:1085D000D15402B070BD00BF9B760500012A30B4B3
:1085E00003D10B78037030BC7047002AFBD030BC3D
:1085F0002EF036B90B680360014B8360704700BFF3
:108600001C770500024B83600B680360704700BF56
:108610001C7705000B68036070477047004870477F
:10862000B075050010B50446084604492CF08DFDD0
:10863000002814BF2046002010BD00BFB075050003
:108640000B680360014B8360704700BF34770500FF
:10865000024B83600B680360704700BF34770500EE
:108660000B68036070477047004870477C750500D1
:1086700010B50446084604492CF067FD002814BFD5
:108680002046002010BD00BF7C75050010B5044BCE
:10869000044640F8483BFFF776FF204610BD00BF78
:1086A0001077050010B50446FFF7F0FF20464FF4A1
:1086B00080712CF05DFA204610BD000008B50368FB
:1086C000002B02DA09482CF0D1FD8B4208D9490071
:1086D0008B4205D20029B6BF6FF0004301600360F2
:1086E0000068BDE8084001302CF08AB9C576050065
:1086F00072DF704773DF704774DF704777DF704752
:108700007CDF70472EF010BA38B50E4C2378BFF3DB
:108710005B8FDB0705460ED420462CF081F950B163
:10872000094800F017F820462CF086F9074A084956
:1087300005482CF018FA29460348BDE8384000F0F7
:108740006BB900BFC02F0020C42C0020002A0020DD
:108750006D900200074A026007498161012282721E
:108760001721002202618282A0F8E81280F8EA2232
:10877000704700BFD07705000000FFFFF8B5002369
:1087800080F8E33280F8E4324FF6FF730446A0F835
:10879000E6321C481BF07AFE18B11B4A26211DF058
:1087A0009EFD1A4F1A4D3E78BFF35B8F16F00106FF
:1087B0000ED138462CF034F950B138462E60AE80D8
:1087C000AE712CF039F9134A134928462CF0CBF935
:1087D0002B6813B12361AB88A382FDF717FF04F563
:1087E0003B720223272111F027FDFDF70FFF022323
:1087F00004F2EE22282111F01FFD2046BDE8F840CA
:1088000007F0AEBE098702004C770500BC2F0020A0
:10881000B42F0020002A002093900200F0B590F8B9
:10882000EA3291B005460F461646002B47D1264C3A
:108830002378BFF35B8FDB070ED420462CF0F0F8D3
:1088400050B1224802F02EFD20462CF0F5F8204AC7
:1088500020491E482CF087F91C4803F01DF980BB05
:108860006A8B4FF6FF739A422BD140F2F1116846A2
:1088700000F017FC684607F001FEBDF8104064B137
:10888000012C13D04FF4FA7108A800F00AFC08A8D4
:1088900007F0F4FDBDF8104005E0AA89291D28461F
:1088A00000F01AF80446204611B0F0BD0722394600
:1088B000281D2DF0D5FFAE8185F8EA42F3E7272485
:1088C000F1E72824EFE700BFC02C0020502C002047
:1088D000002A002009B3020070B588B004460E4695
:1088E00015460DF1010006222DF0BAFF9DF800306B
:1088F000B27903F0FE0362F347038DF80030BDF850
:1089000010301B4A03F0E00343F48273ADF81030DB
:108910000A23B5FBF3F3ADF81630002306938DF868
:108920001C30B4F8EC32ADF81230092DB4F8EE3248
:10893000ADF814309CBF0123ADF816304FF4C803D6
:10894000CDE9022304A9012302AA684600F099FB9D
:1089500048B120464FF6FF72022100F07BF94FF636
:10896000FF7008B070BD022384F8EA320120F8E7F6
:108970000600100038B590F8EA12054611B12B2216
:1089800000F068F9688B4FF6FF74A0420ED01321F7
:1089900000F075FB082809D043F20203984205D085
:1089A00030B9032385F8EA32012038BD0020FCE706
:1089B0002046FAE773B590F8EA3205462BBB408BA8
:1089C0004FF6FF73984222D00C4601EB8206B44268
:1089D00010D0204603F0A2F9019001A81BF06EFD13
:1089E00030B104284FF6FF7008BF262002B070BDDA
:1089F0000434ECE7698B05F11C001BF081FD40B9E4
:108A0000042385F8EA320120F0E72720EEE728204A
:108A1000ECE74FF6FF70E9E72DE9F0410B78012B09
:108A200092B00F4652D05CB224B1032B54D012B096
:108A3000BDE8F08149686846CDE9004403F03EF99D
:108A40000823ADF8103040F2F516702302A8ADF8F7
:108A50000860CDF80CD0ADF812408DF81440ADF898
:108A600018300794ADF82040ADF8244007F006FD1B
:108A70004FF012083B7AE5B2AB42D8D908FB057536
:108A80000AA8D5F80E1003F019F90A9B0093EB8A97
:108A9000ADF804302B8BADF806300823ADF830303C
:108AA000702200230AA8ADF82860CDF82CD0ADF8CC
:108AB00032308DF83430ADF838200F93ADF84030B7
:108AC000ADF84430013407F0D9FCD3E74FF6FF721C
:108AD000042100F0BFF8AAE70022042100F0BAF850
:108AE000A5E791F8EA321BB1002303608380704749
:108AF0008B8A0A690260B3F5807F28BF4FF48073C8
:108B000083807047F0B51E4690F8EA320F4685B074
:108B100005461146002B36D1428B4FF6FF739A4221
:108B200033D0A7B3A9B3838AB34234D30069884250
:108B300002D032462DF0A2FEB5F8E832023BB34235
:108B400007DC2E8300223946284600F026F805B0BF
:108B5000F0BD00230193ADF8083001242B69688B28
:108B60008DF8044001A9ADF80670ADF80A600393D2
:108B700000F08BFA20B9062385F8EA322046E6E7B2
:108B80004FF6FF70E3E72720E1E72820DFE7212009
:108B9000DDE71020DBE71220D9E730B5038B9342E5
:108BA00085B0044621D9B0F8E802ADF808209B1A38
:108BB00005388342A8BF0346ADF80A302369ADF8F3
:108BC000061004251A44ADF80450039201A9608BE5
:108BD00000F05BFA98B143F202024FF6FF73904245
:108BE00014BF1846212005B030BD40F20513ADF882
:108BF00004300023ADF80610CDE90233E6E7062382
:108C000084F8EA320120EEE738B590F8EA2205460A
:108C10006AB9408B4FF6FF74A0420AD059B100F0F8
:108C200032FA50B9052385F8EA32012038BD2720F1
:108C3000FCE72820FAE72120F8E72046F6E707B509
:108C40000223ADF806200DF10602FFF75BFF03B02B
:108C50005DF804FB7FB5ADF8062006290AD8DFE8E9
:108C600001F004040404040C040002230DF10602C4
:108C700000F012F807B05DF804FBBDF80630ADF85F
:108C80000C3000230493ADF814300C230DEB0302D9
:108C9000052100F001F8EDE7F0B5044695B00D466A
:108CA00004A8002117461E4600F0FBF994F8EA12CA
:108CB000A94247D0481E052844D8DFE800F0030346
:108CC0004311173D2823ADF8043040F2F313ADF8FB
:108CD000303001AB0D930223ADF83830002319E09A
:108CE0002823ADF804304FF4FB73F0E72822ADF8E9
:108CF000042040F2F712ADF8302001AA00230D92B3
:108D00000C22CDF80630ADF80E300293ADF80C30E1
:108D1000ADF8382070220CA92046ADF83A308DF815
:108D20003C30ADF840201193ADF84830ADF84C30F0
:108D300000F035F815B0F0BD2823ADF804304FF43D
:108D4000FC73C4E702390597ADF81860042908D808
:108D5000DFE801F00307161B200040F2F313ADF823
:108D6000103004A9204600F01AF8032DE2D14FF488
:108D7000FA710CA800F095F90CA807F07FFBD9E771
:108D80004FF4FB73ADF81030EBE740F2F713ADF89A
:108D90001030E6E74FF4FC73ADF81030E1E7002344
:108DA00080F8EA320B8813B1084607F067BB7047BA
:108DB00010B590F8EA120129044609D10022FFF704
:108DC00049FFA289211D2046BDE81040FFF784BD60
:108DD00010BD38B5D579022D044608460BD1618304
:108DE000452100F054F930B1294620460022BDE863
:108DF0003840FFF72FBF38BD0978022905D14FF65B
:108E0000FF7242832A22FFF725BF7047418B4FF63E
:108E1000FF72914205D00023428303211A46FFF7D7
:108E20003BBF704719B180220221FFF713BF1288A0
:108E3000A0F8E8220A460221FFF70CBF7FB540F2F6
:108E400007139942054614460DD10023019303935D
:108E5000026963880292ADF80C3001AA0C23052147
:108E6000FFF71AFF04E029B180220521FFF7F2FE87
:108E700004B070BD928863881AB9019203920269A6
:108E8000E8E7868A9918B14204DD12220521FFF72E
:108E9000E1FEEDE70069A11D18442DF0E1FC6288B8
:108EA000A3882188688B1A4492B200F0ECF800285D
:108EB000DED0522205212846FFF7CCFED8E710B5B8
:108EC0001346044629B180220621BDE81040FFF771
:108ED000C1BE9278042A0AD0052A01D0012A16D1EF
:108EE000204600220621BDE81040FFF7B3BED98816
:108EF0009A880A4492B21988FFF74FFE0128024669
:108F000005D020460621BDE81040FFF7A3BE10BDE6
:108F100000B58DB011BB9378012B1FD11388ADF82C
:108F200004309388ADF80C3040F2F913ADF81030EE
:108F300001AB05930C230632ADF8183004A870235A
:108F40000292ADF81A108DF81C10ADF8203009917E
:108F5000ADF82810ADF82C1007F090FA0DB05DF8C0
:108F600004FB112907D01B2908D0102909D132F898
:108F7000041BFFF72EBF111DFFF748BF111DFFF7A0
:108F80003BBF704710B40B461488418B8C421CD1F8
:108F9000363B5188042B18D8DFE803F008170D1270
:108FA000030006325DF8044BFFF73CBF06325DF864
:108FB000044BFFF743BF06325DF8044BFFF77FBF5A
:108FC00006325DF8044BFFF7A3BF5DF8044B704712
:108FD00038B50C46054600F11C0120461BF0A6FAE8
:108FE0002188A1F110031F2B05D8221D2846BDE8BA
:108FF0003840FFF7B6BFA1F130031F2B05D8221D63
:109000002846BDE83840FFF7BDBF38BD10B50B8816
:10901000A3F5F6730C46062B0AD8DFE803F0040A22
:109020000E151B09230049680A89FFF7F7FB208208
:1090300010BDFFF79FFC2082FAE74B681A79196888
:10904000FFF7B8FC2082F3E74B681988FFF7DCFDD7
:109050002082EDE749680B894A680988FFF752FDCD
:109060002082E5E7BDE81040FFF7A2BE704710B5CB
:109070004FF43C7104462BF07BFD204610BD76DF9B
:1090800070478CDF7047A1DF7047A3DF7047A5DF13
:10909000704710B50446006808B12DF0CBFB2046A0
:1090A00010BD002201807021C0E9012202730182FB
:1090B0004261028382837047C187704708B500F020
:1090C000C7FA006808BDC08F7047808F7047A0F84E
:1090D00040107047B0F840007047000010B5094BD1
:1090E000044640F8043B02F0E5FD0023A360C4F809
:1090F0000E30C4F81230A3612377236284F8243041
:10910000204610BD7879050038B5037FDB0704469B
:109110000D4605D5034A182102F1570016F0B2F9A1
:10912000A56038BD447805002DE9F047044698B0A5
:1091300000250CAEA1611C220F460EA829460C95F5
:1091400075602DF0B5FB1C2229460EA80DF15409BF
:10915000ADF854508DF85650ADF85A508DF85C501B
:109160002DF0A6FB07A9204600F0B4F803222946FB
:1091700048462DF09DFB9DF85630CDF84C9023F0DD
:10918000070343F0030341F2111A201D8DF85630F6
:10919000ADF854A002F0C2FD14222946009007A8A1
:1091A0002DF086FB2368CDF81CD01B69ADF8265046
:1091B000204698472368ADF824009B6820469847CE
:1091C000ADF82800204600F071FB0DF15A080B9015
:1091D0000322404629462DF06BFB9DF85C30D4F805
:1091E0000890CDF8208023F0070343F005030DF12C
:1091F0000C08ADF85AA08DF85C300F951295CDF89B
:109200000480B9F1000F5DD048462DF08DFC0F2889
:10921000054604D901302BF0F3FB03950190012D95
:10922000019848D199F800300370019B0295002104
:109230005955029BC3B1019A0F920DF15D059BB286
:1092400003222846ADF84230ADF840302DF030FB17
:1092500011238DF85D30BDF85E30129503F478432C
:1092600043F44073ADF85E302368002511955B6BC5
:1092700031462046984710B1ADF83250119604F1AE
:109280000E0307AA0EA9388D00F0E6FA18B10F4AAE
:1092900087211DF024F80021204600F03BF8237FB1
:1092A000019843F001034045237701D02BF0C7FB21
:1092B00018B0BDE8F087002DB7D02A4649462DF0FA
:1092C000CFFAB2E702482BF0CEFF00BF447805008A
:1092D000C57805000B7F23F0030343F002030B77EF
:1092E000037F0A7FC3F3800363F3C3020A77037F1C
:1092F000D2B2C3F3400363F304120A77037FD2B2FE
:10930000C3F3001363F345120A77437B81F83F30C0
:10931000704700002DE9F043036889B0DB6904461B
:10932000884698470546204600F0C0FA237F064647
:10933000980672D594F82430FD2B6ED84146284605
:1093400006F0D3FE236807469B6820469847B8423C
:1093500041D300F08BFA236881465B692046984729
:10936000CDF8088094F82430ADF81C700193079B69
:109370000490ADF81450009304AA334606CA484638
:10938000069606F071FD054638B33A460021304690
:109390002DF08EFA236820462A4CDB68002198477E
:1093A0002378BFF35B8FD9070ED420462BF038FB10
:1093B00050B1254801F076FF20462BF03DFB234AB3
:1093C000234921482BF0CFFB1F4802F043FB2846DE
:1093D00009B0BDE8F0831225D7E723683946DB687A
:1093E00020469847236820461B6998470023ADF81C
:1093F0001A30A369ADF8180007969B68E189D88BED
:1094000006AA00F02BFA18B1124AF6211CF067FFE9
:10941000237F9A0707D40020DAE723682946DB6810
:1094200020469847DEE7A369986802F03CFB0028D5
:10943000F1D0237F1B07EED5236820465B6A98474F
:10944000C6E700BFC02C0020502C0020002A0020BE
:1094500009B302004478050070B5037F9A0786B00F
:10946000044603D40825284606B070BD8369986871
:1094700002F019FB0028F5D0237F1B07F2D52368E3
:1094800020461B699847E389ADF8083001238DF821
:109490000A3000260DF10603CDE90436A369ADF8C4
:1094A00006009B68ADF80C6002A9D88B00F0D8F9D3
:1094B0000828054615D008D80028D4D00B4A4FF408
:1094C000987128461CF00BFFCDE7132804D043F217
:1094D00001439842C7D0F1E7237F43F0400323774D
:1094E000C1E7237F66F386132377BCE74478050042
:1094F0002DE9F04F037F9A0791B0044605D44FF051
:10950000080B584611B0BDE8F08F8369986802F0E7
:10951000CAFA0028F3D0237F1B07F0D52368204622
:109520001B6998478046204600F0C0F9257FC5F3A7
:10953000801582460DB1B4F842504FF0000B0DF18A
:109540001809A845DDD9A8EB05071422132F4FF001
:1095500000014846BB46A8BF4FF0130B2DF0A8F9F9
:10956000132FCABF1322FF22B5FBF2F20AEB050745
:10957000C8BFD2B21FFA8BF68DF8182039461FFAF1
:109580008BF20DF119002DF06BF9721C92B2394675
:109590000BA8ADF806202DF063F9E389ADF808308B
:1095A00001238DF80A300DF10603CDE90439A369D2
:1095B0009B68002202A9D88BADF80C2000F050F96E
:1095C0008346E0B113284FF0000206D1227FA4F8B1
:1095D000425042F04002227793E7082806D1217FCB
:1095E000A4F8422062F3861121778AE743F2014210
:1095F000904204D0064A4FF4CC711CF070FEBDF8C6
:1096000006200BA9384635442DF02AF9ADB298E76B
:109610004478050010B5037F5B06044607D5036850
:109620005B6A984718B9237F60F38613237710BDD0
:1096300010B5037F5B06044609D503685B6A98474B
:1096400028B9237FA4F8420060F38613237710BD66
:1096500080B483B000AF78607B68283318460C373D
:10966000BD465DF8047B704710B5044B044640F8D6
:109670002C3B636BDB689847204610BDE477050000
:1096800010B50446FFF7F0FF204644212BF070FA96
:10969000204610BD704710B5182104462BF068FA1B
:1096A000204610BDF0B58BB00E46044600F0DEF843
:1096B00006F02FFD0546002846D123683146DB68B9
:1096C00020469847C9238DF81730237F13F0200FC9
:1096D000236866D094F82420FD2A62D81B692046AE
:1096E0009847294606F00DFD236801469B692046F0
:1096F000984700F0BBF80746204600F0D7F82368EB
:1097000006461B692046984723680696ADF81C005C
:109710005B692046984723680646DB6920469847E0
:109720000DF11703ADF824000193099B00930295F6
:1097300006AA334606CA3846089606F029FC28B120
:1097400000F094F806F0ECFC0BB0F0BD194D2B784E
:10975000BFF35B8FDB0709D428462BF061F928B1F2
:10976000154806F031FD28462BF066F99DF81720C4
:1097700094F82410104806F02EFD0028E0D0204672
:109780009DF81760FFF764FF23680746DB692046F2
:109790009847A56B03463A46314604F12C00A8478A
:1097A000D2E7FE228DF817209B6931462046984764
:1097B000E5E700BFF42F0020DC2F0020F8B5036A96
:1097C000044653BB037FDB0920D0144F144E3D7871
:1097D000BFF35B8F15F001050ED138462BF020F951
:1097E00050B138463560B580B5712BF025F90D4A7A
:1097F0000D4930462BF0B7F9336803B12362236A71
:109800005BB90120BDE8F84015F0A2BE03689B6873
:10981000984701212CF0B2FF2062F8BDBC2F002038
:10982000B42F0020002A00209390020038B504468F
:10983000006A20B1237FDD0902D00023236238BDF6
:109840002CF0F8FF2562FAE700230120CB8040F2DC
:109850001B1308710B807047AADF7047ACDF70479D
:10986000AEDF7047704770470020704710B50B4C53
:109870002378BFF35B8FDB070ED420462BF0D0F8A4
:1098800050B1074806F0E6FA20462BF0D5F8054A15
:10989000054903482BF067F9014810BDF82F002057
:1098A000C42F0020002A002095960200037F9B060B
:1098B00003D590F82430FD2B02D903685B69184763
:1098C000006A704738B503680546DB6898472B681F
:1098D00004461B6928469847201A80B238BD704755
:1098E0007047704710B5082104462BF041F9204617
:1098F00010BD10B5082104462BF03AF9204610BDE2
:1099000010B5302104462BF033F9204610BD10B5B8
:10991000044611F0C8F8204610BD10B5044611F0F9
:10992000C2F8204610BDB2F5967F38B504460D4604
:1099300002D2012015F00CFE6560002038BDB2F5A2
:10994000967F38B504460D4602D2012015F000FE80
:109950006560002038BD10B9012015F0F9BD7047D1
:1099600010B504464068FFF7F6FF6368B3F80300DC
:10997000053080B210BD08B54068FFF7ECFF4FF42A
:10998000967008BD38B50C4605464868FFF7E3FFFA
:1099900063682B60236820461B699847A880284687
:1099A00038BD000010B50B4C2378BFF35B8FDB078D
:1099B0000ED420462BF034F850B10748FEF7CAFE0B
:1099C00020462BF039F8054A054903482BF0CBF81F
:1099D000014810BDC02F0020C42C0020002A002008
:1099E0006D90020010B50B4C2378BFF35B8FDB0743
:1099F0000ED420462BF014F850B1074811F04EF861
:109A000020462BF019F8054A054903482BF0ABF81E
:109A1000014810BDFC2F002000300020002A00204B
:109A20000F9902000023FF22C0E9053383830262FD
:109A300080F82A30C38580F82630038570470000FF
:109A400038B512490546043002F0BAF91049044607
:109A500005F1080002F0B4F941F60A01044305F1EA
:109A60000C0002F047F9A4B204434FF6596105F126
:109A7000100002F03FF9A4B20443A4B224B928466E
:109A8000FFF7D0FF06F06CFD204638BD847A050054
:109A9000A97A050070B590F824308AB004460E46C5
:109AA00015467BBB40F20222ADF808200DF10702FB
:109AB00003920122ADF8102002A870228DF8071041
:109AC000ADF812308DF81430ADF818200793ADF8CA
:109AD0002030ADF8243006F0D1FCBDF8181099B153
:109AE00001290CD12046FFF79DFF40F20113A58507
:109AF000A38484F82A606423B5FBF3F5E585084662
:109B00000AB070BD2721FAE74121F8E770B590F857
:109B1000243004460E4615468BB9FFF743FF314605
:109B20002A46FEF77BFE0128014606D12046FFF7B4
:109B300079FF40F20123A585A384084670BD272143
:109B4000FBE700002DE9F0431C4690F824308DB06F
:109B5000054689461646002B6ED1FFF723FF0146C6
:109B600004A8FEF7BEFF049F1FB910200DB0BDE88A
:109B7000F083FFF737FF0822014606A810F0ADFF7B
:109B80002E4B0893BDF81C30DDF81880B3F5967F96
:109B900002D2012015F0DCFC4046CDF82480FFF70E
:109BA000DAFE099B05221A700998FFF7D4FE099B7B
:109BB000A3F801900998FFF7CEFEB4F5947F39D24F
:109BC0000CB1002ED1D0099BA3F803403CB10998F9
:109BD0000530864203D0224631462CF04FFE0AACB7
:109BE00008A92046FFF7CEFE0021BDF82C0006F0A4
:109BF0007CFA2E6A8046C6B9FFF738FE02966423C7
:109C00000193059B009394E80600049B06F02CF951
:109C1000FFF7C8FE43463A46298BFEF773FF01283B
:109C2000A4D14FF48173AB84A0E7FFF71FFE00239C
:109C30000293E5E7122099E7272097E7687A050065
:109C4000002383840B8813B1084606F017BC7047C5
:109C5000F0B590F8245095B0002470268D42074648
:109C6000ADF810400594ADF81840ADF81A408DF8E5
:109C70001C40ADF820600994ADF82840ADF82C40A8
:109C800003D0012D0BD0022D25D0012D0592ADF86A
:109C9000183033D0022D36D004A9384617E02823D7
:109CA000ADF804304FF4FF73ADF8303001AB0D93D5
:109CB0000223ADF83830ADF83A408DF83C40ADF8AD
:109CC00040601194ADF84840ADF84C400CA9FFF746
:109CD000B7FF15B0F0BD2823ADF804300B4BCDF81D
:109CE0000640CDF80A4002934FF40073ADF83030CF
:109CF00001AB0D93ADF80E400C23DAE74FF4FF7380
:109D0000ADF81030C8E74FF40073F9E7447A050066
:109D10007FB50129ADF8062004D9022908D007B083
:109D20005DF804FB02230DF10602FFF791FFF6E751
:109D300000230593034B04930C23ADF80C200DEB8B
:109D40000302F2E7447A050008B590F8241011B137
:109D50002B22FFF7DDFFFFF725FEBDE80840FEF7E9
:109D600009BE10B5036A04469BB1102B1BD1FFF747
:109D700019FEE18AFEF748FF0128024605D00121BD
:109D80002046BDE81040FFF7C3BF062384F8253006
:109D900010BDFFF707FEA18AFEF736FF0128024635
:109DA000EDD10523F2E746220121EAE710B503468B
:109DB0002AB193F82410FFF7ABFF002010BD90F8F4
:109DC00025208A4201D02E22F3E70120F6E708B5CC
:109DD00090F82430012B03D1BDE80840FFF7E6BF1F
:109DE0002E220121FFF794FF002008BD08B590F84E
:109DF0002430022B03D1BDE80840FFF7D7BF2E2245
:109E00000221FFF785FF002008BD2A2290F82410C8
:109E1000FFF77EBF73B500220E4601210446FFF70F
:109E2000D6FFD8B1327894F82A309A4216D100235E
:109E30000125E3850622711968468DF806502CF03D
:109E40000FFDFFF7AFFDA28D6946FEF7E7FCA842C4
:109E5000024605D029462046FFF75AFF02B070BDE2
:109E600040F20123A384F9E710B50A460221044613
:109E7000FFF7ADFFA8B1FFF795FD0422A118FEF78B
:109E800099FD0128024605D020460121BDE8104079
:109E9000FFF73EBF032384F825300023E3822383AA
:109EA000A38310BD10B5FFF7BDFD2B2290F8241041
:109EB000BDE81040FFF72CBF73B505460C4601A85E
:109EC0002E1D01F0F7FE3146204601F08FFF08B14C
:109ED00010232B6231460F2201A801F011FF01A9C6
:109EE000204601F083FF08B1A388EB8231460C22A3
:109EF00001A801F005FF01A9204601F077FF08B194
:109F0000A3882B8331460D2201A801F0F9FE01A997
:109F1000204601F06BFF18B1A3886B83E388AB8305
:109F200005F108063146204601F060FF08B1002324
:109F30002B623146032201A801F0E2FE01A920466E
:109F400001F054FF08B1A388AB8231460F2201A86B
:109F500001F0D6FE01A9204601F048FF08B1A38810
:109F6000EB8231460C2201A801F0CAFE01A920466D
:109F700001F03CFF08B1A3882B8331460D2201A8D4
:109F800001F0BEFE01A9204601F030FF18B1A38800
:109F90006B83E388AB8302B070BD10B50A46032122
:109FA0000446FFF714FF88B1FFF7FCFC0122A18BE8
:109FB000FEF745FE0128024605D020460121BDE8F6
:109FC0001040FFF7A5BE042384F8253010BD000023
:109FD00070B50D460A8890F825100529044617D05B
:109FE00006293DD1FFF7E2FE002838D02B890A2B45
:109FF00007D0202294F824102046BDE87040FFF7D7
:10A0000087BEFFF733FC696806F058F80246F1E7AF
:10A01000FFF7CCFE18B3144E3378BFF35B8FDB072A
:10A0200009D430462AF0FCFC28B1104806F0CCF8E0
:10A0300030462AF001FD043595E806000B4806F08D
:10A0400047F902460028D5D1FFF7ACFCE18AFEF7BC
:10A05000DBFD01280246CDD1062384F8253070BDF2
:10A060002E2290F82410C8E7F42F0020DC2F0020C7
:10A070000A8890F8243012B11946FFF749BE012B27
:10A0800001D1FFF7A5BF2E22F6E738B50A460546EF
:10A0900090F8244021B12146BDE83840FFF738BE92
:10A0A000012C03D0022C0AD02E22F4E70421FFF762
:10A0B0008EFE50B12846BDE83840FFF752BE012160
:10A0C000FFF794FE08B185F8254038BD2DE9F04F23
:10A0D0008C88012C8BB005468A4617467ED90B68C2
:10A0E00093F8008090F82630434502D0B8F1FF0F76
:10A0F00076D1DFF814B13E4E9BF80090BFF35B8F32
:10A1000019F0010911D158462AF08AFC68B1584665
:10A11000C6F80090A6F8049086F806902AF08CFC09
:10A12000344A354930462AF01EFDD6F80090B9F180
:10A13000000F57D0013C288DB288A4B203199A426F
:10A1400052DBDAF800102246013148442CF088FB3B
:10A1500095F82630013385F826302B8D1C44A4B2A7
:10A16000B8F1FF0F2C8541D1ADF81C40234CCDF840
:10A1700018902378BFF35B8FDB070ED420462AF0BC
:10A180004FFC50B11E4810F089FC20462AF054FCC8
:10A19000184A1C491A482AF0E6FC0822184908A85F
:10A1A00010F09BFCFFF762FB002302930DF11703F5
:10A1B0000193099B009306AA089B06CA05F0E8FED6
:10A1C000034638B985F826002885BDF8242008986C
:10A1D0003860BA8018460BB0BDE8F08F2023F9E74D
:10A1E0002123F7E71023F5E71223F3E70123F1E733
:10A1F000B42F0020002A0020939002000830002095
:10A200000C3000201B990200BC2F002038B50D46F1
:10A2100004464868FFF79FFB6868431D2360FFF70B
:10A220009AFB6A68D378127943EA022340F2271234
:10A23000934228BF1346A380204638BD70B591F8DD
:10A24000243086B004461BB100230360A38021E0C4
:10A25000FFF7C8FB08220146684610F03EFCBDF837
:10A260000450134B0293B5F5967F009E02D2012055
:10A2700015F06EF9E02D039602A904A80DD9FFF799
:10A28000C5FFDDE90306C5F501750335FFF763FB7F
:10A290002660A580204606B070BDFFF7B7FFDDE958
:10A2A0000305FFF758FB256040F22713CEE700BFF8
:10A2B000687A0500436813B9012015F049B9704761
:10A2C00008B5FFF7F7FF4FF4967008BD10B50446C8
:10A2D000FFF7F0FF6368B3F80500073080B210BDE8
:10A2E00038B50C4605460846FFF7E4FF63682B6067
:10A2F000236820461B699847A880284638BD00007F
:10A30000F0B50A88438B9A4291B0044649D1828CB9
:10A3100040F202239A4244D1002301AA043101935E
:10A32000ADF80830FFF7D2FE024638B1012838D028
:10A3300094F824102046FFF7EBFC32E0019F0FB9A0
:10A340001022F5E7BDF808201A4E0396B2F5967F65
:10A3500002D2012015F0FCF8002503A80497CDE9EE
:10A3600005560797FFF7A6FF049BB3F80330012BB0
:10A3700005AA18D14FF40073ADF820300C23ADF8C6
:10A38000283008A870230992ADF82A508DF82C5077
:10A39000ADF830300D95ADF83850ADF83C5006F0C2
:10A3A0006DF811B0F0BD0C2394F824102046FFF78F
:10A3B0004FFCF6E7447A050013B50B88B3F5FC7F34
:10A3C0000C4670D017D8B3F5FA7F5AD009D840F2AE
:10A3D000D7118B4274D040F2F31293424AD002B0AC
:10A3E00010BDB3F5FB7F57D050D9496802B0BDE826
:10A3F0001040FFF73DBE40F2FB118B4226D0B3F573
:10A40000FE7F0ED240F2F912934253D0B3F5FD7F96
:10A41000E5D1636819781A89A1B1FFF73BFB208267
:10A42000DDE740F2FD118B421AD0B3F5FE7F10D963
:10A4300040F203229342D2D1616802B0BDE81040DD
:10A44000FFF7E8BC591CFFF761FBE8E7FFF77CFC6E
:10A45000E5E761680B894A680988FFF773FBDEE767
:10A4600001466846FFF7EAFE0098BDF804306061D7
:10A470002383B4E76368198802B0BDE81040FFF792
:10A48000F3BC02B0BDE81040FFF70CBD496802B054
:10A49000BDE81040FFF710BD4B68198802B0BDE859
:10A4A0001040FFF77ABD4B68198802B0BDE8104034
:10A4B000FFF7EBBD616802B0BDE81040FFF720BFB9
:10A4C000C38D002B8BD0013B9BB2C385002B86D163
:10A4D00002B0BDE81040FFF798BC49BA418270470E
:10A4E00049BA8182704701F110030230994204D0C9
:10A4F00013F8012D00F8012BF8E7704784B038B548
:10A5000005AD85E80E0041F202530380044629465A
:10A51000FFF7E9FF2046BDF82410FFF7DEFFBDF886
:10A520002810FFF7DDFF9DF92C30A375BDE83840FA
:10A5300004B070472C30704713B5D0E90C32934209
:10A540000446019106D01960036B0433036320466F
:10A5500002B010BD01AA19462C3000F0DCF8F6E775
:10A5600038B500250A4B05710446036085600C3040
:10A5700001F0A0FB04F11803C4E904354FF6FF73A2
:10A5800025762385C4E90B556563204638BD00BF99
:10A59000B07B050073B50379044613BB81600C30B2
:10A5A00001F0BCFB22464FF6FF73019022F8283FD2
:10A5B00001A9012000F0EEF818B10B4A2B211BF085
:10A5C0008EFE236820465B6A9847D0E90056AE426B
:10A5D00005D0214655F8040BFEF7A6FDF7E7012349
:10A5E000237102B070BD00BF317B050070B50368F8
:10A5F0005B6A0D469847D0E90046A6420DD054F854
:10A60000040B037F65F345130377036815B1DB6A19
:10A610009847F2E71B6B9847EFE770BD0346086861
:10A62000D860184670470A88112A09D0502A0DD0E0
:10A63000102A10D1036801F108025B698988184764
:10A64000036801F108029B6989881847036831F89B
:10A65000062FDB691847704770470000F7B503689D
:10A660005B6A0D46074616469847D0E900318B4293
:10A6700039D053F8044B2888628A90420DD16A89F8
:10A68000022A0AD105F10C001AF0B6FA237F60F312
:10A69000C3032377012003B0F0BDE2899642E6D1DF
:10A6A000AB795A1E022A06D8236869891B6A20469C
:10A6B00098470120EFE7062B17D10023CDE900339F
:10A6C000BB686A463146D88B00F066F818B1084A74
:10A6D000A1211BF004FE2368BDF800101B6A204670
:10A6E00098470120D7E70020D5E70120D3E700BF36
:10A6F000317B050070B503685B6A0D469847D0E969
:10A700000046B44206D054F8040B036829469B6AFD
:10A710009847F6E770BD2DE9F84FD0E9007AAAEB2B
:10A720000704A41014BF23460123E4188046894679
:10A730009346A1EB070526D2B4F1804F23D224BB68
:10A740002646DBF800307351B94504D02A46394615
:10A7500030462CF093F80435D1453544AAEB090B6B
:10A7600004D05A46494628462CF07AF85D4417B181
:10A7700038462AF064F906EB8404C8E90065C8F895
:10A780000840BDE8F88F6FF04044A0002AF038F987
:10A790000646D6E7A8DF7047ADDF70474CDF70474D
:10A7A0007047704710B5742104462AF0E1F920463D
:10A7B00010BD000010B5094C2378BFF35B8FDB0799
:10A7C00009D420462AF02CF928B1054805F072FE7C
:10A7D00020462AF031F9024810BD00BF7C3000202D
:10A7E0008030002010B50B4C2378BFF35B8FDB0764
:10A7F0000ED420462AF014F950B1074814F084F81A
:10A8000020462AF019F9054A054903482AF0ABF910
:10A81000014810BD1430002018300020002A00200C
:10A82000A3A7020070B5104B0360002500F12803B8
:10A830001226044645623246294618462CF038F85E
:10A840004FF4FA71FF22C4E914126587E587C4E961
:10A850001055E564A565256684F86450324629469E
:10A860002CF026F8204670BD687C05002830704723
:10A870001220704770B5274D2B78BFF35B8FDA0736
:10A8800094B0044609D428462AF0CAF828B12248D0
:10A8900005F09AFC28462AF0CFF810AE1023324675
:10A8A00065211D4805F0B1FC002831D01B4D2B78E7
:10A8B000BFF35B8FDB0709D428462AF0B1F828B133
:10A8C000174805F0D1F828462AF0B6F81022ADF85E
:10A8D0002420ADF83420ADF83C202A340DF11E02BE
:10A8E00005920E940EA903C903AA00230896ADF899
:10A8F0002C300C9482E803000CA903C901AA82E859
:10A9000003000B9A009208AA06CA054805F0AEF8A3
:10A9100014B070BDF42F0020DC2F00204030002048
:10A9200044300020062380F8283090F83B3080F82F
:10A930002B3090F83C3080F82C3090F83E3080F886
:10A940002D3090F83F3080F82E307D22036C93FB41
:10A95000F2F3A0F82F30836CC0F831300021836D02
:10A9600080F82A1080F83530042236302BF0A0BF52
:10A97000072380F82830002380F82A3090F83A30F6
:10A9800080F82B3090F83B3080F82C3090F83C3039
:10A9900080F82D30C38FC3857D22036C93FBF2F3C7
:10A9A0000386436CC0F83230836D49B999B290F890
:10A9B0003D3080F83830FA23C18680F8393070474E
:10A9C00089B2F4E7072380F82830012380F82A3081
:10A9D00090F83A3080F82B30836CC362C36C036309
:10A9E00090F83C3080F8343090F83E3080F83530C4
:10A9F000836D39B999B2036CC1867D2293FBF2F362
:10AA00000387704789B2F6E710B504465C300AF058
:10AA1000B4FB30B10146102204F12A002BF020FFD4
:10AA2000012010BD30B585B004460D46FBF7EEFDA4
:10AA300004230DEB030299210FF0FEFB072384F89A
:10AA40002830042384F82A3094F83A3084F82B30E4
:10AA500094F83B3084F82C3094F83C3084F82D3056
:10AA6000BDF80630E3850023ADF80830FBF7CEFDD6
:10AA7000062302AA9F210FF0DFFBBDF808302386D2
:10AA8000DDF80A30C4F83230A36D35B99DB24FF409
:10AA90007A43E586238705B030BDADB2F7E72DE9EF
:10AAA000F04F426D85B004460D460523002A64D15F
:10AAB000062284F82A3094F83A3084F8282084F862
:10AAC0002B30FFF78FFE13F070FF90F800B0FFF708
:10AAD00089FE13F06CFF0026437884F82C6003F0A5
:10AAE000010AC3F34009C3F38008C3F3C007FFF7AB
:10AAF00079FE13F053FF94F82C3060F3000384F8D0
:10AB00002C30FFF76FFE13F04BFF94F82C300BF056
:10AB1000010B60F341036BF382036AF3C30369F330
:10AB2000041368F3451367F3861384F82C30FFF79A
:10AB300059FE13F03CFF02460068516801AB03C3A5
:10AB40001189927A9A7019809DF80430012B04F1D2
:10AB50002D004FF0090212D10DF106012BF080FEFD
:10AB6000A36D85B99DB2002384F83830FA23E586B9
:10AB700084F8393005B0BDE8F08F072299E73146F7
:10AB80002BF096FEECE7ADB2EDE710B5034690F87A
:10AB9000640088B1062283F82A2003F12B0103F117
:10ABA0006502713352F8044B41F8044B9A42F9D1D3
:10ABB00013880B8093788B7010BD73B50E460546D5
:10ABC000FBF724FD01230DF107029D210FF034FB5B
:10ABD0009DF807304BB128463146FFF760FF686D9E
:10ABE000003018BF012002B070BD6C6D2CB9284632
:10ABF0003146FFF797FE2046F5E7AB6DDA0709D53A
:10AC0000A86D00F00F04012C1BD131462846FFF738
:10AC100009FF05E0AA6C2AB131462846FFF7D2FEAB
:10AC20000120E0E79B0705D02846FFF7EDFE00284E
:10AC3000E6D0F5E731462846FFF7A7FF0028F3D016
:10AC4000EEE731462846FFF793FEE9E72DE9F047A6
:10AC500004468AB004F124080F4604F05DFE414624
:10AC600004F0ACFEA36D0133A36512F0B5F90546FF
:10AC7000FBF7CCFC8B21042304F148020FF0DCFA33
:10AC80002A1C94F83C3018BF012262F30413A26C12
:10AC9000002A14BF0121002161F3820384F83C30B3
:10ACA00062D1E264DFF8DC9029462046FFF785FF99
:10ACB00099F80050BFF35B8F15F00105824618D15B
:10ACC000484629F0ADFEA0B12A4E2B4B33604846D2
:10ACD0003571C6E902553582B574C6E90555B583A7
:10ACE00086F8285029F0A8FE244A2549304629F044
:10ACF0003AFF03250095122304F1280242F2127153
:10AD00001C4814F032F9BAF1000F09D0FBF77EFCB1
:10AD10002A4619210FF0A1FA10B12046FFF7AAFD2B
:10AD2000BFB94FF48273ADF8083070230397ADF8C4
:10AD30001070ADF812708DF81470ADF818300797D8
:10AD4000ADF82070ADF82470FFF734FD02A905F0CE
:10AD5000B5FB04F0E1FD23464FF48042414604F088
:10AD600019FE0AB0BDE8F087E36C002B9AD0E564C9
:10AD700098E700BF202B0020589A0500002A0020E9
:10AD8000FB6502001C2B00207FB50D460446FBF737
:10AD90003DFC01230DF1060286210FF04DFA9DF8CE
:10ADA0000630102B04D000F2AF80022B00F2AF80EF
:10ADB0006365002604F15C000AF046F984F83C6003
:10ADC000FBF724FC032236210FF047FA94F83C30BD
:10ADD00060F3410384F83C30FBF718FC0322372171
:10ADE0000FF03BFA94F83C3060F3C30384F83C3036
:10ADF000FBF70CFC032238210FF02FFA94F83C30BB
:10AE000060F3451384F83C30FBF700FC0322432138
:10AE10000FF023FA94F83C3084F83D6060F3861319
:10AE200084F83C30FBF7F2FB9621042302AA0FF0D2
:10AE300003FA9DF8083094F83D20C3F3000363F350
:10AE4000000284F83D20FBF7E1FB0DF107029D2194
:10AE500001230FF0F1F99DF80730B34218BF072521
:10AE600084F82950FBF7D2FB012301AA81210FF0BE
:10AE7000E3F99DF8043084F83B3003A8FFF78EFC1B
:10AE800018B1244A19211BF02AFA039B002BB8BFE2
:10AE900003339B1084F83E30636D102B12D1FBF707
:10AEA000B5FB012303AA22210FF0C6F99DF80C304F
:10AEB00084F83A3084F87030FA2384F87330002331
:10AEC00084F86530231D1846202200212BF0F0FC69
:10AED000254645F8240F04F01FFD0F4A294604F0CB
:10AEE00049FD01212046FFF7B1FE04F015FD234680
:10AEF0004FF48042294604F04DFDFFF75BFC2146EC
:10AF000005F008FB04B070BDFF2B3FF451AFFF23E9
:10AF10004EE700BFDC7B05001DAF02000021FFF7FC
:10AF200095BEF0B591B004460E4612F055F80123D7
:10AF30008DF80D3000230546ADF80E308DF8103039
:10AF40000593002E6DD040F20513ADF80E3094F845
:10AF50003E308DF80430636CCDF80530A36D002DC4
:10AF600063D19BB2ADF8093009238DF80C3007236B
:10AF7000ADF818304FF4C673ADF8203014237022AA
:10AF8000ADF8283001AF002303AEADF82A308DF8BC
:10AF90002C30ADF830200D93ADF83830ADF83C30A2
:10AFA00007970996FFF706FC08A905F087FA94F8B9
:10AFB0003B308DF8043094F83C308DF8053094F82F
:10AFC0003F308DF806307D22236C93FBF2F3ADF811
:10AFD0000730A36D5DBB9DB208238DF80C300723AD
:10AFE000ADF818304FF4C673ADF82030142370223A
:10AFF000ADF828300023ADF82A308DF82C30ADF8AC
:10B0000030200D93ADF83830ADF83C30ADF8095034
:10B0100007970996FFF7CEFB08A905F04FFA11B084
:10B02000F0BD03238DF80E3091E7ABB29AE7ADB2D5
:10B03000D2E7000070B50B88872B044600F0AB8088
:10B0400028D8382B00F0D18008D8362B00F0B980F2
:10B0500000F2C180222B00F0898070BD812B00F0AE
:10B060008A800BD8432BF8D14B6890F83C201B7892
:10B07000003318BF012363F386121EE0822B00F019
:10B080008180832BE9D14B681B6803647F2380F8A0
:10B090003F30E2E7B3F5D97F00F0B18020D8962B9E
:10B0A0007FD00DD88B2BD8D14B6890F83C201B68F3
:10B0B000003318BF012363F3820284F83C20CCE7FD
:10B0C0009D2B00F0D680B3F5947FC6D14B6890F8E5
:10B0D0003C201B78003318BF012363F30002ECE728
:10B0E000B3F5EB7F66D008D8B3F5E17FB5D14968F9
:10B0F0005C30BDE8704009F0CEBF40F2D7129342F9
:10B1000000F0878040F2EB129342A6D14D682B7875
:10B11000002BA2D12B89002B9FD06B88A0F8663022
:10B1200000F168060822002130462BF0C1FB2A8975
:10B130006968082A28BF082230462BF091FB11F0DD
:10B140004BFFA36D002840F09D8098B294F83C30EE
:10B1500094F86520A4F87100C3F3001363F30002B0
:10B16000012384F8652084F8643076E74B681B7807
:10B1700080F83A3071E74B681B7880F83B30032346
:10B1800003656AE74968404AD1E9000100232BF0D2
:10B19000E3F8606461E74B6893F9003080F83E3073
:10B1A0005BE74B681A7890F83D3062F3000380F853
:10B1B0003D3052E790F83C3043F0100380F83C30CB
:10B1C0004BE74B6890F83C201B78003318BF0123F5
:10B1D00063F3410271E74B6890F83C201B78003321
:10B1E00018BF012363F3C30267E74B6890F83C2064
:10B1F0001B78003318BF012363F345125DE74B68EA
:10B2000090F83C201B78003318BF012363F3C7126A
:10B2100053E74B685C30196809F0D7FF236D5A1E5D
:10B220002265002B7FF419AF18480378BFF35B8FBA
:10B23000DB0708D429F0F4FB28B1154803F02CFDF6
:10B24000124829F0F9FB124803F078FD44F6206318
:10B250005843FF23B0FBF3F000F543405030642324
:10B260000021B0FBF3F020652046BDE87040FFF7F9
:10B2700058BE4B681B78002B3FF4EFAE072380F8D5
:10B280002930EAE680B261E70090D00374300020F4
:10B290007830002010B52821044629F069FC2046AA
:10B2A00010BD000038B500230446C0E90033C0E9F2
:10B2B0000233142029F0A4FB0546606808B129F088
:10B2C000BEFB4FF6FF73E38304F14803C4E9015565
:10B2D000A36614351F23E560A4F86C30002504F143
:10B2E000240384F820502022294618462BF0E0FA47
:10B2F000044A60644FF4C803C4E905232577204657
:10B3000038BD00BF0600100010B5002304460370CE
:10B31000406808B129F093FB204610BD13B50378AF
:10B320000446D3B90DF1070000F03CFC18B10C4AFB
:10B3300039211AF0D4FF9DF8073033B100F030FC0A
:10B3400018B1074A3D211AF0CAFF012000F014FC91
:10B350000E2000F013FC0123237002B010BD00BFCB
:10B36000747C050008B51AF07BFF1BF00DF91BF08B
:10B3700011F91BF08BF808280AD018B1054A6A2188
:10B380001AF0ADFF1BF000F910B91AF069FFF9E7E8
:10B3900008BD00BF747C05001FB5037804464BB39D
:10B3A00043783BBB144B01A91B68019301201BF0A0
:10B3B00053F918B1114A9A211AF091FF01A81BF014
:10B3C000B3F918B10D4AB1211AF089FF0023029395
:10B3D000ADF80C3002A80C23ADF80A3000F0DCFB0D
:10B3E00018B1064AB7211AF07AFF0123637020468C
:10B3F00000F0B2FB04B010BD642A0020747C05008C
:10B4000038B5437805464BB3154C2378BFF35B8FB3
:10B41000DB070ED4204629F003FB50B111480FF092
:10B420003DFB204629F008FB0F4A10490D4829F042
:10B430009AFB0F4B0B481C8821460FF03CFBFEF794
:10B44000D1FA21460FF037FBD5E90145AC4205D0D2
:10B4500054F8040B03689B689847F7E738BD00BFB2
:10B46000083000200C300020002A00201B99020028
:10B4700058AA050070B54378044673B1837863B960
:10B48000D0E90156B54206D055F8040B03682146B1
:10B49000DB689847F6E70123A37070BD13B5D0E9C8
:10B4A000023293420446019106D019608368043346
:10B4B0008360204602B010BD01AA1946043000F096
:10B4C0000BFBF6E7012906D019B1022905D00020AF
:10B4D0007047007870474078704780787047000068
:10B4E00010B543788CB00446002B44D0027F002A6C
:10B4F00041D1BDF80030ADF8062003F0E00343F47D
:10B500008273ADF8003002928DF80C20FBF77EF8C4
:10B5100002230DEB030227210EF08EFEFBF776F8D7
:10B520002821022301AA0EF087FE04F16801684673
:10B5300000F02CFB20B1114A40F23F111AF0CFFE6F
:10B540000123237740F20513ADF810307022002359
:10B550000593ADF81830ADF81A308DF81C30ADF801
:10B5600020200993ADF82830ADF82C30FFF722F9F0
:10B5700004A904F0A3FF0CB010BD00BF747C05004B
:10B5800010B5437888B004461BB3037F0BB300F0BB
:10B59000FFFA20B1104A40F251111AF0A0FE002328
:10B5A0004FF48372ADF80020237770220193ADF839
:10B5B0000830ADF80A308DF80C30ADF81020059346
:10B5C000ADF81830ADF81C30FFF7F4F8694604F018
:10B5D00075FF08B010BD00BF747C0500007F704788
:10B5E00070B5D0E901460D46A64205D0294654F86B
:10B5F000040BFEF7FBFFF7E770BD000038B50B88C2
:10B60000112B0C4630D01ED8012B26D0102B28D061
:10B610001F4D2B78BFF35B8FDB070ED4284629F034
:10B62000FFF950B11B48FDF795F8284629F004FAB8
:10B63000194A1A49174829F096FA21461548BDE8D3
:10B640003840FDF7C5BC522B11D0572B1DD0502BC5
:10B65000DED1063100F038F9DAE7898800F016F912
:10B66000D6E700F05FF9D3E700F082F9D0E70022D7
:10B6700003231146C08B00F08DFA0028C8D0084A79
:10B680004FF4C9711AF02BFEC2E700F017FABFE7BA
:10B69000C02F0020C42C0020002A00206D90020042
:10B6A000747C050010B504468CB0C11C06220DF157
:10B6B00001002BF0D5F8A378CDF814D003F00102E7
:10B6C000C3F346038DF80830E37C8DF80030237D0A
:10B6D0008DF80930A38B8DF80A30A369CDF80B30B3
:10B6E00040F20113ADF810300F238DF80720ADF8AC
:10B6F000183070220023ADF81A308DF81C30ADF8E8
:10B7000020200993ADF82830ADF82C30FFF752F81F
:10B7100004A904F0D3FE0CB010BD00F12502826133
:10B72000FFF7C0BF70B50B881D2B92B006460C46C4
:10B730002BD10D7AC5F341153DBB08313AB3242214
:10B7400001A82BF08DF894F82420216A8DF8282088
:10B750000DF129002BF084F80F4A0795442101A828
:10B760001AF07AFD20B10D4A40F2DD111AF0B7FD52
:10B7700006F16801002000F009FA082805D020B180
:10B78000064A4FF4F7711AF0AAFD12B070BD0846D0
:10B79000FFF788FFECE700BF1BB70200747C0500D1
:10B7A00010B50D4C2378BFF35B8FDB070ED420461A
:10B7B00029F036F950B10948FFF774FD204629F009
:10B7C0003BF9074A0749054829F0CDF90348BDE888
:10B7D000104000F03FB900BFC02C0020502C0020CA
:10B7E000002A002009B302002DE9F0410446443448
:10B7F00004F092F821460E4A04F0BCF804F08CF8EC
:10B800000C4B1F6805464FF400464FF4FA700021B8
:10B810004FF47A720023E6FB07012AF0EDFD214682
:10B82000024600232846BDE8F04104F0B3B800BF4B
:10B83000A1B702004CAA050010B5044604F06CF84C
:10B8400004F14401BDE8104004F0B8B82DE9F0411E
:10B85000054604F061F80C4B1F6804464FF400469F
:10B860004FF4FA7000214FF47A720023E6FB0701CF
:10B870002AF0C2FD05F14401024600232046BDE83E
:10B88000F04104F0A9B800BF4CAA05001FB50C4652
:10B89000FEF7A8F80222014602A80FF01EF9029B4B
:10B8A00000936946BDF80C30ADF80430204600F036
:10B8B00075F920B1034A40F215211AF010FD04B0C9
:10B8C00010BD00BF747C0500F7B5C37804460D4673
:10B8D000CBB9FFF7BBFFAB79062B16D1FEF782F889
:10B8E0000222014668460FF0F8F8D4E90147009EAD
:10B8F000A74208D054F8040B328803682946DB6954
:10B9000098470028F4D003B0F0BDD4E90164A64202
:10B91000F9D056F8040B2A8803682946DB69984752
:10B92000F5E7000038B5114B04461B788888E083A2
:10B9300000220D46E27013B1114600F025F9EB7BB1
:10B94000012B0AD0022B0CD094F820306BB9294679
:10B950002046BDE8384000F014B8002384F82030B9
:10B96000F2E7012384F82030EEE738BD51AA050044
:10B9700090F820304FF6FF72C2830BB900F03EB84A
:10B980007047F0B5D0E901678FB005460C46BE425E
:10B9900006D056F8040B036821461B699847F6E762
:10B9A0002846FFF721FFA388ADF80430237E8DF8E9
:10B9B0000630238CADF80C30238DADF8143040F2F6
:10B9C0000713E269ADF8183001AB02920793626A7F
:10B9D00004921423ADF820307022002306A8ADF89D
:10B9E00022308DF82430ADF828200B93ADF830309C
:10B9F000ADF8343004F042FD0FB0F0BDF0B5D0E941
:10BA0000015789B004460E46BD4206D055F8040BD6
:10BA1000036831461B699847F6E72046FFF70CFF9D
:10BA20004FF48473ADF80030702200236846019310
:10BA3000ADF80830ADF80A308DF80C30ADF81020B4
:10BA40000593ADF81830ADF81C3004F017FD09B0BF
:10BA5000F0BD000008B50346C08B4FF6FF72904260
:10BA600014D0DA7892B90122DA70132100F088F844
:10BA700008280BD043F20202904207D030B1044AAA
:10BA800040F2AF21BDE808401AF029BC08BD00BF54
:10BA9000747C0500C0787047C08B4FF6FF73C01AE6
:10BAA00018BF01207047C28B4FF6FF739A421ABF2E
:10BAB00090F8200080F001000020704770B5D0E9B8
:10BAC00001460D1DB44206D054F8040B0368294604
:10BAD0001B6A9847F6E770BD2DE9F84FD0E9007A68
