:020000022000DC
:1060000000000120C14C0300E94C0300E9650300D6
:10601000ED4C0300EF4C0300F14C030000000000C6
:10602000000000000000000000000000F34C03002E
:10603000F54C030000000000F74C0300F94C03008E
:10604000FB4C0300FB4C030021A40200FB4C0300AB
:10605000FB4C0300FB4C0300FB4C03006991020066
:10606000FB4C03007791020079910200FB4C030086
:10607000FB4C0300FB4C0300FB4C0300FB4C0300F8
:10608000FB4C03009D400400857D0300956C0300DC
:1060900089410400FB4C0300A96A0300FB4C030088
:1060A000FB4C0300FB4C03005DC60300F1A00200A3
:1060B000FB4C0300FB4C030000000000000000004C
:1060C000FB4C0300FB4C0300FB4C0300FB4C0300A8
:1060D000FB4C0300FB4C0300FB4C030000000000E2
:1060E00000000000000000000000000000000000B0
:1060F00000000000000000000000000000000000A0
:10610000000000000000000000000000000000008F
:10611000000000000000000000000000000000007F
:10612000000000000000000000000000000000006F
:10613000000000000000000000000000000000005F
:10614000000000000000000000000000000000004F
:10615000000000000000000000000000000000003F
:10616000000000000000000000000000000000002F
:10617000000000000000000000000000000000001F
:10618000000000000000000000000000000000000F
:1061900000000000000000000000000000000000FF
:1061A00000000000000000000000000000000000EF
:1061B00000000000000000000000000000000000DF
:1061C00000000000000000000000000000000000CF
:1061D00000000000000000000000000000000000BF
:1061E00000000000000000000000000000000000AF
:1061F000000000000000000000000000000000009F
:1062000010B5054C237833B9044B13B10448AFF3F0
:1062100000800123237010BD5024002000000000E6
:10622000E4A0040008B5034B1BB103490348AFF3D6
:10623000008008BD0000000054240020E4A00400F9
:10624000154B002B08BF134B9D46A3F5803A002148
:106250008B460F461348144A121A20F054FC0F4B79
:10626000002B00D098470E4B002B00D09847002001
:10627000002104000D000D48002802D00C4820F039
:1062800050FB20F085FB200029000EF0B7FB20F02A
:106290006BFB00BF000008000000012000000000B0
:1062A0000000000050240020F06400202369040056
:1062B00000000000AADF7047AEDF704710B504464B
:1062C000006808B120F090FB204610BD704710B563
:1062D000902104461EF0F4FB204610BD70B50E4E12
:1062E0003378BFF35B8F13F0010513D130461EF0F6
:1062F0009EFB78B1094C0A4B23603046042384F896
:10630000505084F858301EF09EFB064A064920463D
:106310001EF0D1FB014870BD082500207824002024
:10632000DC80040080230020CD620200704790F8DA
:1063300020309B0603D590F82830FD2B02D9036846
:106340005B691847406A7047704700207047A0F8A3
:106350004210704708B500F0E5FA006808BDB0F8D3
:1063600042007047B0F840007047A0F844107047F2
:10637000B0F8440070470000094A02604DF6AD6174
:106380000022426001818272C260C0F81220C0F80F
:106390001620C26180F82020426280F828207047D1
:1063A0000877040038B590F82030DB0704460D4626
:1063B00005D5044A1B2102F150000AF0BFFDE5603B
:1063C00038BD00BFDC7504002DE9F04704469AB0E3
:1063D00000250EAFE1611C22884610A829460E95C3
:1063E0007D6020F090FB1C22294610A80DF15C0A6C
:1063F000ADF85C508DF85E50ADF862508DF8645089
:1064000020F081FB09A9204600F0E0F8032229468C
:10641000504620F078FB9DF85E30CDF854A0012660
:1064200066F34203DBB233438DF85E309DF85C3097
:1064300066F3030366F307138DF85C309DF85D3057
:1064400004F1040A66F3030366F3071350468DF85C
:106450005D3002F06DF8504602F004F80DF1680A64
:10646000142229464AF8640D09A820F04CFB236841
:10647000CDF824A01B69ADF82E502046984723681C
:10648000ADF82C009B6820469847ADF830002046B8
:10649000FFF74DFF0DF162090D9003222946484692
:1064A00020F031FB9DF86430CDF8289003F0F8031C
:1064B00043F005038DF864309DF86230119566F362
:1064C000030366F307138DF862309DF8633014956B
:1064D00066F3030366F30713E6688DF8633005ABD4
:1064E0000393002E6BD0304620F04AFC0F2806EBB9
:1064F0000009029007D92A4602A903A81EF05EFEF1
:10650000029B039005934A46314603981EF0AAFE6B
:10651000029B039A04930025D554049B3BB3039A32
:1065200011920DF165069BB2032229463046ADF863
:106530004A30ADF8483020F0E6FA9DF867301496FE
:10654000012262F34203DBB213438DF867309DF8FA
:10655000653062F3030362F307138DF865309DF82D
:10656000663003F0F00365F307138DF86630236897
:10657000002513955B6B39462046984710B1ADF85E
:106580003A50139704F1120309AA10A9B8F82C0085
:10659000FFF790FE18B10B4A8C2110F008F900218A
:1065A000204600F035F894F8203043F0010384F8D9
:1065B000203003A81EF01CFE1AB0BDE8F087024888
:1065C0001EF0A3FFDC750400567604000B7F43F039
:1065D00002036FF300030B7790F820300A7FC3F3B8
:1065E000800363F3C3020A7790F82030D2B2C3F37A
:1065F000400363F304120A7790F82030D2B2C3F359
:10660000001363F345120A77437C81F83F307047EB
:106610002DE9F043036887B0DB6904468846984754
:1066200006462046FFF783FE94F820309B06054679
:106630005FD594F82830FD2B5BD84146304605F0F5
:106640008BFB0746FFF74AFE236881465B692046BD
:10665000984794F82830CDF80880CDE90073324689
:1066600001462B46484605F0AFFB064688B93A4638
:106670000146284620F047FA23683146DB68204669
:106680009847FFF72BFE05F090FB032007B0BDE80D
:10669000F08323683946DB68204698472368204604
:1066A0001B699847E369618A06AA22F8020D986877
:1066B0002B46B0F8420000F0F9FE18B1114AF12162
:1066C00010F075F894F82030C3F340000028DDD0B6
:1066D000E2699268B2F842104FF6FF7291420ED012
:1066E000C3F3C0000028D1D0236820465B6A9847D6
:1066F000CCE723683146DB6820469847CEE7002088
:10670000C4E700BFDC75040030B590F820309A076C
:1067100087B0054645D5C2699268B2F842104FF677
:10672000FF7291423DD01B073BD503681B69984718
:106730006B8AADF8083001238DF80A300DF106029E
:106740000023CDE90423EA69ADF806009268ADF8AC
:106750000C3002A9B2F84200FFF7AEFD082804464B
:1067600018D007D860B1104A40F22B11204610F023
:106770001EF805E0132806D043F201439842F2D1F7
:10678000204607B030BD95F8203043F0400385F82F
:106790002030F5E795F8202063F3861285F8202055
:1067A000EEE70824ECE700BFDC7504002DE9F04FAC
:1067B00090F820309A0791B0044640F18A80C2696F
:1067C0009268B2F842104FF6FF72914200F0818059
:1067D0001B077ED503681B69984780462046FFF754
:1067E000A6FD94F82050C5F3801582460DB1B4F88B
:1067F00046504FF0000B0DF11809A84548D9A8EBF9
:1068000005071422132F4FF000014846BB46A8BFCE
:106810004FF0130B20F077F9132FCCBF1322FF2278
:106820000AEB0507C8BFB5FBF2F21FFA8BF68DF82D
:10683000182039461FFA8BF20DF1190020F03FF9AC
:10684000721C92B239460BA8ADF8062020F037F939
:10685000638AADF8083001238DF80A300DF1060384
:10686000CDE90439E3699B68002202A9B3F842002C
:10687000ADF80C20FFF720FD834608B313280BD199
:1068800094F82020A4F8465042F0400284F82020DA
:10689000584611B0BDE8F08F082808D194F82010B0
:1068A000A4F8462062F3861184F82010F0E743F242
:1068B0000142904204D0084A40F293110FF077FF52
:1068C000BDF806200BA93846354420F0F8F8ADB2E3
:1068D00093E74FF0080BDBE7DC75040010B590F888
:1068E00020305B06044609D503685B6A984728B9DF
:1068F00094F8203060F3861384F8203010BD10B572
:1069000090F820305B0604460BD503685B6A984715
:1069100038B994F82030A4F8460060F3861384F860
:10692000203010BD80B483B000AF78607B682C331A
:1069300018460C37BD465DF8047B704710B5044B14
:10694000044640F8303BA36BDB689847204610BDF7
:106950007C75040010B50446FFF7F0FF204648217F
:106960001EF0AEF8204610BD2DE9F04387B00D466D
:106970000446FFF7B3FC05F01FFA0646002840D195
:1069800023682946DB6820469847C9238DF81730CD
:1069900094F8203013F0200F236851D094F8282069
:1069A000FD2A4DD81B692046984705F0E4F9236875
:1069B00001469B6920469847FFF790FC0546204614
:1069C000FFF7B5FC236807461B69204698472368F4
:1069D00080465B692046984723688146DB692046EC
:1069E00098470DF11703CDE9000302964B46424646
:1069F0003946284605F0BEFA30B9FFF76FFC05F0BE
:106A0000D4F907B0BDE8F083FFF768FC9DF81720C4
:106A100094F8281005F0D5FC0028EED020469DF80B
:106A20001760FFF77FFF23680746DB69204698471A
:106A3000E56B03463A46314604F13000A847E0E7EB
:106A4000FE228DF817209B69294620469847E5E7E6
:106A5000F8B5436A04465BBB90F82030DB0920D0D0
:106A6000144F154E3D78BFF35B8F15F001050ED125
:106A700038461DF0DCFF50B138463560B580B57141
:106A80001DF0E1FF0D4A0E4930461EF014F8336840
:106A900003B16362636A5BB90120BDE8F8400AF0A4
:106AA00071BA03689B68984701211FF041FF60623B
:106AB000F8BD00BF742400206C2400208023002037
:106AC000BD62020038B50446406A28B194F820300F
:106AD000DD0902D00023636238BD1FF085FF6562C7
:106AE000FAE700230120CB8040F21B1308710B80D2
:106AF0007047A8DF704770473030704713B5D0E952
:106B00000D3293420446019107D003B11960636BC3
:106B100004336363204602B010BD01AA1946303029
:106B200000F0ECF8F6E7000038B50E4B03600446C1
:106B300000254DF6AD630C4A057103828574C0E9EA
:106B400002551C30606111461EF08CFB6369A56123
:106B50001D704FF6FF73A385C4E90C55A56320464D
:106B600038BD00BFD87704006177040073B503799E
:106B7000044643BB00F10C058160284601F0D8FCB7
:106B8000284601F06FFC02A922464FF6FF7341F838
:106B9000040D22F82C3F0120FFF7ABFF18B10B4A80
:106BA0002D210FF004FE236820469B6A9847D0E908
:106BB0000056AE4205D0214655F8040BFFF704FC01
:106BC000F7E70123237102B070BD00BF62770400B4
:106BD00070B503689B6A0D469847D0E90046A64207
:106BE0000FD054F8040B90F8203065F3451380F86B
:106BF0002030036815B1DB6A9847F0E71B6B9847B4
:106C0000EDE770BD10B50C68C46000F10C038A8814
:106C10009A808A799A7110BD0A88112A09D0502A5F
:106C20000DD0102A10D1036801F108029B698988F0
:106C30001847036801F10802DB698988184703686F
:106C400031F8062F1B6A184770477047F7B503687D
:106C50009B6A0D46074616469847D0E9003199428F
:106C600037D053F8044B2888E28A90420FD16A89C2
:106C7000022A0CD105F10C000EF07DFA94F82030B8
:106C800060F3C30384F82030012003B0F0BD628AB2
:106C9000B242E4D1AB795A1E022A06D82368698928
:106CA0001B6A204698470120EFE7062B13D102AA62
:106CB000B868002322F8023D3146B0F8420000F0E7
:106CC000E4FB2368BDF806101B6A204698470120A4
:106CD000DBE70020D9E70120D7E770B503689B6A9E
:106CE0000D469847D0E90046B44206D054F8040B4C
:106CF000036829469B6A9847F6E770BD2DE9F8437B
:106D0000D0E90034E41AA410914614BF22460122AF
:106D1000A41806460F46A1EB030834D2B4F1804F05
:106D200031D294BB254615EB080F18BFD9F80030B7
:106D3000D6F8009018BF45F80830B945A7EB090808
:106D400004D04246494628461FF0C4FE726808F146
:106D50000403BA422B44A2EB070805D0184642466A
:106D600039461FF0ACFE034603EB0807B9F1000FEC
:106D700002D048461DF06AFE05EB8404C6E90057C0
:106D8000B460BDE8F8836FF04044A0001DF03EFE03
:106D90000546C8E77047704710B5642104461DF0EA
:106DA0008FFE204610BD000010B5064B0360044660
:106DB000C06908B11DF04AFE206908B11DF046FE09
:106DC000204610BD2092040010B5094C2378BFF373
:106DD0005B8FDB0709D420461DF029FE28B105484A
:106DE00003F044FF20461DF02EFE024810BD00BFF8
:106DF000582500205C25002010B50B4C2378BFF3EC
:106E00005B8FDB070ED420461DF011FE50B1074802
:106E100008F07EFE20461DF016FE054A054903488F
:106E20001DF049FE014810BD282500202C2500201A
:106E300080230020A96D020070B5114B036000256E
:106E400000F12803122604464562324629461846B8
:106E50001FF059FE4FF41671FF22C4E91312658723
:106E6000A58784F83E50C4E91055A56484F85450B1
:106E7000A5652566324629461FF045FE204670BDB1
:106E80005078040080F82910704780F83A10704755
:106E900080F83B10704710B5012404FA01F190F915
:106EA0003C3049B21AB10B4380F83C3010BD23EAA4
:106EB0000103F9E780F83D10704728307047122031
:106EC000704710B55C30144605F010FB28B1014640
:106ED0001022A01C1FF0F3FD012010BD2DE9F0438E
:106EE00004468BB004F124050E4603F043FE294608
:106EF00003F092FEA36D0133A365FFF77DFF04232A
:106F000005AA882109F042F8FFF776FF042306AAB4
:106F10008B2109F03BF8069A003218BF01220221AA
:106F20002046FFF7B8FF069A8ABBA264216DA06DC8
:106F300004F1280789B3C30740F1C080072384F810
:106F40002830002384F82A3094F83A3084F82B3023
:106F500094F83B3084F82C3094F83C3084F82D3091
:106F600094F83D3084F82E3094F83E3084F82F3079
:106F70007D22236C93FBF2F32386636CC4F83230DA
:106F8000059BA26D002B00F0C3809BB2C1E0A36CF7
:106F9000002BCBD0059BA364C8E7062384F82830D8
:106FA00094F83B3084F82B3094F83C3084F82C3043
:106FB00094F83D3084F82D3094F83E3084F82E302B
:106FC0004FF07D0C236CC4F8312093FBFCF384F864
:106FD000350084F82A10A4F82F30042204F136007A
:106FE0001FF091FDDFF85C8198F80030BFF35B8FF4
:106FF000D8070ED440461DF01AFD50B14B4806F09C
:1070000017FA40461DF01FFD494A4A4947481DF0FE
:1070100052FD3A4602211223444806F065FAFFF772
:10702000EBFE0322192108F0BEFF58B3236D002B9D
:1070300079D0DFF8149199F80030BFF35B8F13F02B
:10704000010813D148461DF0F2FC78B13A4F3B4B92
:107050003B604846042387F8508087F858301DF07D
:10706000F2FC334A364938461DF025FD65220221DF
:10707000CDE9012104F12A031022009219462E487D
:1070800004F0A2FE66B940F21D13ADF81C300023D7
:107090000893ADF82430FFF797FE07A903F0EAFD47
:1070A000236D002B39D103F065FD234640F6CD4218
:1070B000294603F09DFD0BB0BDE8F08394F83A102B
:1070C000F2B1072384F82830012384F82A30A36C16
:1070D000236394F83C3084F8343094F83D3084F8DD
:1070E0003530059B84F82B10E2623BB983B2E3860E
:1070F0007D22236C93FBF2F3238773E79BB2F6E7C1
:107100003A462046FFF7DDFE00287FF46BAF15E717
:1071100093B2E3864FF47A43EEE703F02BFD234668
:107120004FF40042C4E7002EBDD1ACE7102500208B
:1071300080230020976D020078240020DC8004006A
:10714000CD6202000C250020082500200021FFF759
:10715000C5BE0000031D37B5202200210446184695
:107160001FF0D1FC254645F8240F03F003FD284A03
:10717000294603F02DFDFFF73FFE01230DF1070225
:10718000862108F003FF9DF80730102B02D03AD873
:10719000022B3AD8236504F15C0005F04DF903F0A9
:1071A000E9FC234629464FF4004203F021FDFFF796
:1071B00023FE0322362108F0F6FE01210246204676
:1071C000FFF769FEFFF718FE0322372108F0EBFEF8
:1071D000032102462046FFF75EFEFFF70DFE032265
:1071E000382108F0E0FE052102462046FFF753FE55
:1071F000FFF7EAFD214603F05DFD01212046FFF780
:107200006DFE03B030BDFF2BC4D0FF23C2E700BF2B
:107210004D71020070B58AB00D460446FFF7ECFDD3
:1072200004230DEB0302882108F0B0FE03238DF840
:107230001A3000238DF81B302DB105238DF81A303C
:1072400001238DF81B3094F83D308DF80830636CC5
:10725000CDF80930019BA26D002B46D193B2ADF859
:107260000D3009238DF810300723ADF8183040F2A7
:107270001513ADF81C3002AE0C2304ADADF824306C
:1072800005960895FFF7A0FD07A903F0F3FC94F815
:107290003B308DF8083094F83C308DF8093094F884
:1072A0003E308DF80A307D22236C93FBF2F3ADF86B
:1072B0000B30019BA26DD3B993B2ADF80D3008230A
:1072C0008DF810300723ADF8183040F21513ADF8E3
:1072D0001C300C23ADF8243005960895FFF774FD9B
:1072E00007A903F0C7FC0AB070BD9BB2B7E79BB219
:1072F000E3E7000037B50B8840F2231293420446BF
:107300003DD0B3F5927F16D2832B5AD006D8812B6D
:1073100047D04DD8222B3FD003B030BD8B2B32D07D
:10732000B3F58D7F70D0872BF6D14B6893F9003081
:1073300080F83D30F0E7B3F59B7F57D00CD8B3F51C
:107340009A7F45D04BD8B3F5927FE5D1002180F8E4
:107350005410FFF7C3FDDFE740F2411293424CD0D7
:1073600040F24312934273D040F237129342D3D18A
:107370004B681A78003218BF0122032109E001236B
:1073800080F85430C8E74B681A68003218BF0122F1
:107390000221FFF780FDBFE74B681B7880F83A3089
:1073A000BAE74B681B7880F83B300323C364B3E72C
:1073B00049682A4AD1E9000100231FF0DBF8606424
:1073C000AAE74B681B6803647F2380F83E30A3E77D
:1073D00090F83C3043F0100380F83C309CE74B6859
:1073E0001A78003218BF01220021D2E74B681A78C0
:1073F000003218BF01220121CBE74B681A78003216
:1074000018BF01220521C4E74B685C30196805F0FC
:1074100095F8E56C6B1EE364002D7FF47DAF0DF1F4
:107420000700012102F07AFE9DF8072042F2107356
:107430005343FF2293FBF2F303F56A436422603364
:107440002946B3FBF2F32046E364FFF7E3FE63E76C
:1074500049685C3005F017F85EE700BF0090D00384
:1074600010B50446FFF7A0FC20462C211DF028FB98
:10747000204610BD10B5182104461DF021FB204602
:1074800010BDACDF7047ADDF704713B514461288EE
:10749000ADF800200022ADF802206A460193FFF704
:1074A000F2FFBDF80030238002B010BD13B51446C2
:1074B0001288ADF800200022ADF802206A46019340
:1074C000FFF7DFFFBDF80030238002B010BD36DFCC
:1074D000704737DF70476DDF704772DF704773DFCB
:1074E000704774DF704775DF704776DF704777DF6E
:1074F000704778DF70477ADF70477CDF70478ADF3C
:1075000070478BDF7047B1DF704765DF704766DF1C
:10751000704711DF704712DF704710B504460068EE
:1075200008B11FF061FA204610BD000070B50C4E86
:107530003478BFF35B8F14F001040FD130461DF097
:1075400076FA58B1074D30462C60AC80AC711DF016
:107550007AFA054A054928461DF0ADFA014870BD82
:10756000E0270020D8270020802300201B75020080
:1075700038B500F10C020023C0E901234FF400727A
:107580000446037043708370C370037382838377F0
:10759000C0E90833836214201DF038FA0546206ADA
:1075A00008B11DF053FAA02363864FF6FF73A4F8C9
:1075B000423084F8F03004F2D313C4E90855294A64
:1075C000C4F8F43114351F23A562E2640025E26596
:1075D000A4F8F831244AE26604F18403294684F8C9
:1075E000305084F83150A58684F83E5084F83F50DE
:1075F00084F8405065642565656525666566256780
:1076000084F8745084F8805084F89551C4F8A451DB
:10761000C4F8C051202218461FF075FA04F1A803DF
:10762000C4F8A4002946202218461FF06CFA04F181
:10763000CC03C4F8C8002022294618461FF063FA7C
:10764000112384F831300623E386102323870A238D
:1076500063874FF4C873C4F8EC00A38784F8D25151
:10766000204638BD187904000079040010B504469E
:1076700000F052F9E36E04F16400DB68984704F10E
:10768000540000F006FE04F1440000F002FE206AFF
:1076900008B11DF0DBF9201D1DF0AAFD204610BD2C
:1076A00013B5037804461BBB0DF10700FFF733FF4A
:1076B00018B1104A55210FF07AF89DF8073033B110
:1076C000FFF727FF18B10B4A59210FF070F801207E
:1076D000FFF7FDFE0E20FFF7FCFE0023C4F86C311F
:1076E000A4F87031C4F87431A4F878310123237000
:1076F00002B010BDA978040008B50FF019F80FF01A
:10770000A9F90FF0ADF90FF029F908280AD018B13E
:10771000054A8D210FF04BF80FF09CF910B90FF0CE
:1077200007F8F9E708BD00BFA978040030B5037871
:107730008BB00446002B64D04378002B61D10AAD96
:10774000334B45F8243D012084F8940129460FF07D
:10775000E7F918B12F4ABE210FF029F828460FF09B
:1077600049FA18B12B4AD5210FF021F800230293D2
:10777000ADF80C3002A80C23ADF80A30FFF7C5FEB7
:1077800018B1244ADC210FF012F8A368002B3AD17B
:1077900006AB2149049304A800F042FEBDF8142072
:1077A000049904F13100FFF7A8FE18B1194AE2214B
:1077B0000EF0FDFFA08BFFF79CFE18B1154AE521E6
:1077C0000EF0F5FF04F5E270FFF785FE18B1114ADF
:1077D000E9210EF0ECFF04F2CB10FFF77CFE18B1AC
:1077E0000C4AEB210EF0E3FF94F8CC31013384F81E
:1077F000CC3101232046637000F002FE04A81DF086
:10780000F7FC0BB030BD211D04A81DF06DFEC5E7CF
:1078100080230020A9780400FA78040090F83E3014
:1078200080F8D2310BB100F0E9B9704790F8D2215D
:1078300022B1002280F8D22100F0C4B97047A1F132
:1078400020039BB243F6E072934298BF4186704793
:1078500038B54378044615467BB1FFF7F0FF00F0DA
:107860004DF955B194F83E303BB1204600F0C6F9D1
:107870002046BDE8384000F0A5B938BD30B5044613
:1078800087B004300D461DF0F2FC6378BBB1A368ED
:10789000BBB902AB0D490093684600F0C1FDBDF8CD
:1078A0000420009904F13100FFF727FE20B1084AB7
:1078B00040F235110EF07BFF68461DF099FC07B0D1
:1078C00030BD294668461DF00FFEE8E7FA7804004F
:1078D000A978040038B543784BB1D0E90845AC42EB
:1078E00005D054F8040B0368DB689847F7E738BD08
:1078F00070B54378044673B1837863B9D0E908560C
:10790000B54206D055F8040B036821461B69984719
:10791000F6E70123A37070BD70B5044600F06EF960
:10792000D4E90856B54205D055F8040B03689B68A6
:107930009847F7E70023237070BD13B5D0E90932EB
:1079400093420446019107D003B11960636A04337E
:107950006362204602B010BD01AA1946203000F033
:107960009FFCF6E711F10C0F09D010DC11F1140F98
:1079700005D011F1100F02D011F1280F0DD190F99F
:1079800030308B4209D080F8301000F00DB80B1D5C
:10799000F5D003DC11F1080FF1D070470029EED0CB
:1079A0000429FAD1EBE7000008B5437883B190F8D9
:1079B000F010FF290CD090F930200120FFF797FD3F
:1079C00030B1044A40F28711BDE808400EF0EFBE26
:1079D00008BD00BFA978040043780BB100F010BDCA
:1079E0007047704710B53C2204460021F4301FF068
:1079F0008AF8062384F8F73004F13003C4F8F8302D
:107A000010BD0000F8B500F5987604460D463C22FE
:107A1000002130461FF077F8062384F83331D4F87C
:107A2000C0310127002184F8307184F83211002B15
:107A300040D0DDB104F5DA750C2228461FF063F85A
:107A40004CF20103A4F8B431D4F8C001FFF735FAC1
:107A5000C4F8BC01D4F8C001FFF731FAA4F8B801AA
:107A60000430C4F8585184F85C71C5B2207AC5F16D
:107A70001A05EDB2854228BF054684F83151DDB1C3
:107A8000D4F86C311F21A4F8701123B901201EF025
:107A90004FFFC4F86C0104F5B872D4F86C1130468D
:107AA0000DF0A0F940B1054A4FF40A71BDE8F84065
:107AB0000EF07DBE1D46D9E7F8BD00BFA9780400D1
:107AC00010B511460446FFF79DFF204600F016F85A
:107AD0002046BDE8104000F0CBB838B504460D464E
:107AE000FFF780FF29462046FFF78CFF204600F075
:107AF00005F82046BDE8384000F0BAB8012380F808
:107B00007C3190F87D3103F0FE036FF3410380F880
:107B10007D310023C0F880314FF48073A0F890319C
:107B2000438EC0F88431838EA0F8883170470123DA
:107B300080F87C317047052380F87C317047000065
:107B400010B543780446CBB390F83E300BB100F04B
:107B500055F894F87C21092A05D80123934040F276
:107B60001232134209D1D4F8740108B11EF03CFF5F
:107B70000023C4F87431A4F8783104F5B872D4F84D
:107B80006C1104F598700DF02DF920B10C4A4FF4EA
:107B90002F710EF00CFE04F5BE7204F5B67104F1FF
:107BA000F000FFF79AFC20B12046BDE8104000F03D
:107BB0007DB82046BDE8104000F004B810BD00BFFD
:107BC000A978040008B590F83E2003468AB909490F
:107BD00009480A6800688242BCBF01320A6093F813
:107BE000F00093F89411FFF77AFC10B9012283F8A2
:107BF0003E2008BDE42700208423002010B590F823
:107C00003E30044673B190F8F000FFF76AFC30F0A4
:107C1000080304D0044A40F2F1210EF0C8FD00230D
:107C200084F83E3010BD00BFA978040090F83E30C3
:107C3000E3B190F84030CBB9B0F842204FF6FF7373
:107C40009A420DD139B190F895310133DBB280F809
:107C50009531DB0706D5012380F87C31FFF770BF33
:107C60000029F0D1052380F87C31F7E77047000048
:107C700010B543780446ABB190F8F030FF2B11D12A
:107C800000F014F804F5BE7204F5B67104F1F000CA
:107C9000FFF723FC30B1044A4FF45671BDE81040A1
:107CA0000EF085BD10BD00BFA9780400F0B58BB003
:107CB00006462122002101A81EF025FF00241F4FA7
:107CC0002546B6F87031A34214D9D6F86C311A5D46
:107CD00001AB581939461FF029F804F00703072BA8
:107CE000054405D12122002101A81EF00CFF00252A
:107CF0000134E6E72122002101A81EF004FF002440
:107D00000E4F2546B6F87831A34214D9D6F874310F
:107D10001A5D01AB581939461FF008F804F0070343
:107D2000072B054405D12122002101A81EF0EBFEFE
:107D300000250134E6E70BB0F0BD00BFFB7804007E
:107D400030B5437889B00446002B44D090F84020E9
:107D5000002A40D19DF81030ADF8162062F30003E0
:107D600062F34103DBB243F0040362F3C403012571
:107D70008DF81030ADF81820ADF81A208DF81C20C1
:107D80008DF81150FFF738F802230DF11202272168
:107D900008F0FCF8FFF730F82821022305AA08F0C4
:107DA000F5F804F5FA7104A8FFF7A9FB20B10B4A16
:107DB00040F2AA310EF0FBFC4FF48F73ADF80430A3
:107DC00084F8405000230293ADF80C30FEF7FCFF1E
:107DD00001A902F04FFF09B030BD00BFA97804002F
:107DE0001FB543780446CBB190F84030B3B1FFF7EC
:107DF00088FB20B10A4A40F2B9310EF0D8FC0023CA
:107E000040F21F1284F84030ADF804200293ADF820
:107E10000C30FEF7D9FF01A902F02CFF04B010BD11
:107E2000A978040090F84000704770B5D0E9084682
:107E30000D46A64205D0294654F8040BFEF7C8FEAD
:107E4000F7E770BD13B50446FEF7D6FF01230DF129
:107E500007022A2108F09AF89DF907102046FFF73B
:107E600081FD02B010BD13B50446FEF7C5FF012326
:107E70000DF107020B2108F089F89DF90710204643
:107E8000FFF770FD02B010BDF0B50B88502B85B028
:107E900004460D4663D015D8102B30D003D8012BE3
:107EA0003DD005B0F0BD112B54D01C2BF9D1D4E935
:107EB0000864A642F5D056F8040B036829465B69AE
:107EC0009847F6E7532B70D012D8512BEFD0522B96
:107ED000E7D1002203231146B0F84200FFF713FB5D
:107EE0000028DED0394A40F235410EF060FCD8E778
:107EF000562BDCD0572BD4D100F096F9D1E700F007
:107F000025F940F22313ADF8043000230293ADF8B5
:107F10000C30FEF759FF01A902F0ACFEC1E7FFF7F4
:107F200005FB0268A2B18388023B02329BB2214664
:107F3000A4F87C3041F8782FB4F84200FFF7E7FA54
:107F40000028AED0214A40F2F6310EF030FCA8E70E
:107F50001346ECE700F028F94FF49273D3E700F0F2
:107F6000E7F82B7B062B13D1FFF7E0FA066806B182
:107F70000236D4E908470635BC4292D054F8040BC7
:107F80003288036829461B6A98470028F4D088E79E
:107F9000D4E90867AC1DB74283D056F8040BEA88D1
:107FA000036821461B6A9847F5E7D0E908369E42E8
:107FB0003FF477AF53F8040BE988828D9142F6D1F4
:107FC000036829465B6998476BE700BFA9780400FE
:107FD00010B588B004460622C11C0DF111001EF038
:107FE0006EFD00238DF81730E37C8DF81030237D73
:107FF0008DF81830A38B8DF81930A369CDF81A309D
:108000004FF49073ADF8043004AB02930E23ADF837
:108010000C30FEF7D9FE01A902F02CFE08B010BD0D
:1080200000F125028261FFF7D3BF000070B50B8815
:108030001D2B92B006460C462BD10D7AC5F3411587
:108040003DBB08313AB3242201A81EF038FD94F854
:108050002420216A8DF828200DF129001EF02FFD23
:108060000F4A0795442101A80EF0FCFA20B10D4AF1
:1080700040F2AA410EF09BFB06F5FA710020FFF7D3
:108080003EFA082805D020B1064A40F2BB410EF066
:108090008EFB12B070BD0846FFF79AFFECE700BFF9
:1080A00021800200A978040010B50D4C2378BFF39D
:1080B0005B8FDB070ED420461CF0B9FC50B1094899
:1080C000FFF756FA20461CF0BEFC074A0749054850
:1080D0001CF0F1FC0348BDE8104000F083B800BF7D
:1080E000D4270020D8250020802300206D760200B0
:1080F00010B50446EC3402F03DFD2146064A02F07C
:1081000067FD02F037FD214600234FF42022BDE831
:10811000104002F06DBD00BFA980020010B50446FA
:1081200002F028FD04F1EC01BDE8104002F074BD3E
:1081300010B5044602F01EFD04F1EC0100234FF4DB
:108140002022BDE8104002F075BD0000F8B50D46D4
:10815000002380F83E308377044600F13601A8887A
:10816000FFF7C1F920B10F4A40F2E2410EF01FFBC8
:10817000236D1BB1A98804F144009847D4E908672E
:10818000AB88A4F84230BE4206D056F8040B036810
:1081900029465B699847F6E72046BDE8F840FFF7B7
:1081A000A7BF00BFA9780400F8B54FF6FF73A0F889
:1081B0004230036D04460E461BB1036E898854306D
:1081C0009847D4E90857BD4206D055F8040B036818
:1081D00031465B699847F6E72046BDE8F840FFF76F
:1081E0009DBF000008B50346B0F842004FF6FF728D
:1081F000904214D09A7F92B901229A771321FFF707
:1082000074F908280BD043F20202904207D030B133
:10821000034A4FF4A261BDE808400EF0C8BA08BD99
:10822000A9780400807F704770B5D0E908460D1D1D
:10823000B44206D054F8040B036829465B6A984799
:10824000F6E770BD1FB5CA688B6803925B68044689
:1082500068469847694604F1440000F06DF86846A6
:1082600000F017F82046FFF7B7FB04B010BD1FB5AC
:10827000CA688B6803925B680446684698476946FB
:1082800004F1540000F058F8684600F002F804B019
:1082900010BD10B583680446DB689847204610BDC2
:1082A0002DE9F843D0E90034E41AA410914614BF34
:1082B00022460122A41806460F46A1EB030834D239
:1082C000B4F1804F31D294BB254615EB080F18BF8F
:1082D000D9F80030D6F8009018BF45F80830B945F5
:1082E000A7EB090804D04246494628461EF0F2FB97
:1082F000726808F10403BA422B44A2EB070805D0C8
:108300001846424639461EF0DAFB034603EB0807DF
:10831000B9F1000F02D048461CF098FB05EB84042D
:10832000C6E90057B460BDE8F8836FF04044A00090
:108330001CF06CFB0546C8E730B58B6885B0044679
:108340001B6801A80D469847A368214628461B686C
:108350009847039B01A91B6820469847E368EA6891
:10836000E260EB6005B030BD0B680360014B8360D9
:10837000704700BF18790400024B83600B680360EC
:10838000704700BF187904000B680360704770479E
:10839000004870477478040010B504460846044944
:1083A0001CF07DFE002814BF2046002010BD00BF39
:1083B000747804000B680360014B8360704700BF52
:1083C00000790400024B83600B680360704700BFB4
:1083D000007904000B6803607047704700487047DD
:1083E0005C78040010B50446084604491CF057FEAA
:1083F000002814BF2046002010BD00BF5C78040098
:1084000008B53630FFF777F830B1044A40F2A911C9
:10841000BDE808400EF0CBB908BD00BFA978040044
:1084200037B50D4BCB1A0F2B04460D46019306D9D9
:10843000002201A91CF0C2FE019B2060A3602A4615
:10844000054920681CF00EFF019B22686360002133
:10845000D15403B030BD00BFF078040062DF704734
:1084600063DF704782B0838882798DF80620002010
:1084700063F30F00BDF8063063F31F4002B070478E
:108480002DE9F84F0024DFF898A0DFF8A0B080466F
:108490008946264625462746D9F80030DB5DABB332
:1084A0000F2D2FDC2D2B1ED0202B1CD0A3F1300242
:1084B000D2B2092A05D9A3F14102052A15D8373BC2
:1084C000DAB202EB0413F20748BFC5F10F0203F062
:1084D000FF0406F1010341BF08F802401E460135C2
:1084E000002458BF1E460137D6E7A3F16102052AD2
:1084F00001D8573BE4E752464821584608F01EFD94
:108500000022DEE7064A0748582104E00F2D04DC6C
:10851000034A0548562108F011FD4046BDE8F88F92
:108520005E790400C6790400B6790400A4790400D9
:1085300010B50268837986B004465AB3D3B90146B0
:1085400002A8FFF79DFF01AA02A91020FFF788FFEC
:10855000052812D1A11D02A8FFF780FF18B1104A0B
:108560001B210EF024F99DF815209DF8143043EAE4
:108570000223A380A07906B010BD28B99DF806306B
:10858000A371BDF80430F4E7054A0648222108F03B
:10859000D5FCEFE7002BEDD1014A03482521F6E792
:1085A0005E79040030790400447904001B4B436079
:1085B0004FF481734381142383731323C3730A23FA
:1085C000037409234374837CDFF868C003F0F0036D
:1085D00043F0090303F0CF036FF386138374104B4A
:1085E000836103220F4B4273C274436140F2C9722C
:1085F00040F2BC73C0E907234FF45B614FF496630C
:10860000C0E90913C362084B4363084B8363EC233F
:1086100080F83030064BC0E90FC37047080B0607DF
:10862000CDCC4C3EE02D903B5C8F423F85EBD13E64
:10863000F0490200400D0300174B184AC0E901231E
:10864000174BC36040F206730382837C03F0C003C0
:1086500043F0610383740523C374124B8361124B8F
:1086600043614FF4FA716FF07C03C0E907134FF0D8
:10867000000C4FF4E163C0E909C34FF41673C36201
:108680000A4B43630A4B8363EC2380F83030094B79
:10869000C0E90F33704700BF04050601080A0E0D3C
:1086A00000021413378981BE1EA7E83B3333B33E63
:1086B0009A99993E80841E001C4B43604FF481734D
:1086C000438103234373142383731323C3730A2344
:1086D000037409234374837CDFF868C003F0F0035C
:1086E00043F0090303F0CF036FF386138374012370
:1086F000C3740F4B83610F4B436140F2D37240F25E
:10870000CD73C0E9072340F2DC514FF49663C0E912
:108710000913C362084B4363084B8363EC2380F85F
:108720003030074BC0E90FC3704700BF080B060786
:10873000CDCC4C3EBC74933B5C8F423F85EBD13E2D
:10874000F0490200400D03001A4B43604FF481735F
:1087500043814FF44073838141F21433C38140F667
:108760000A130382837C144903F0C00343F06903B6
:1087700083740123C374114B8361114B43616FF008
:108780006203C361AB3B036242F228324FF496634B
:10879000C0E909234FF41673C3620A4B43634FF0D9
:1087A0007A538363EC2380F83030074BC0E90F1312
:1087B000704700BF080B0607400D0300A01A2F3EAC
:1087C00048507C3B3333333FF0490200194B436040
:1087D00040F201234381042383814FF4C163C381A9
:1087E00041F213430382837C03F0FE0343F01E0334
:1087F00003F0DF036FF3861383740123C374002334
:10880000836143614FF47A73C0E9073300224FF468
:108810006163C0E90923C3624FF0804343634FF0B3
:108820007E538363D82380F83030034BC0E90F3385
:10883000704700BF11160B0C80841E0008B5FFF7AF
:10884000C5FF0423C37408BD41F61923C381837C8B
:1088500003F0F8036FF3C30383740223C374EC23A0
:1088600080F83030014BC0E90F33704780841E0020
:1088700038B54FF010230546D3F88440631C30D040
:10888000B4F57B7F13D8B4F57A7F25D2642C2ED033
:1088900008D8A4F12803012B2CD92846FFF70CFF98
:1088A000072038BDC82CF8D1FFF7C8FF16E040F20A
:1088B000DE539C420AD840F2DC539C4213D2A4F20D
:1088C000EF33012BE9D8FFF7B7FE07E0B4F5BC6F33
:1088D000E3D8FFF739FF01E0FFF768FE2C600020C6
:1088E000DFE740F2DE542846FFF7E6FEF6E7FFF743
:1088F000ABFFF3E7FFF76AFFF0E776DF70478FDF44
:10890000704790DF7047B5DF7047000010B50B4C23
:108910002378BFF35B8FDB070ED420461CF087F86B
:1089200050B1074801F0E2FD20461CF08CF8054AE2
:10893000054903481CF0BFF8014810BD1828002065
:10894000E827002080230020218B020070470000D0
:1089500010B50B4C2378BFF35B8FDB070ED420469A
:108960001CF065F850B10748FEF702FE20461CF0E7
:108970006AF8054A054903481CF09DF8014810BDF6
:10898000D4270020D8250020802300206D76020007
:108990001FB50368022B21D0032B24D0012B1BD140
:1089A00040F22513ADF80430114C00230293ADF8CA
:1089B0000C302378BFF35B8FDB0709D420461CF013
:1089C00036F828B10B4802F051F920461CF03BF86C
:1089D00001A9084802F04EF904B010BDFFF796FF58
:1089E00001F0D0FFF8E7FFF791FF01F0CDFFF3E7CB
:1089F000582500205C25002007B501900138022889
:108A000004D804210DEB0100FFF7C2FF03B05DF8AD
:108A100004FB10B50446FFF79BFF2146BDE810405C
:108A2000FFF732BA13B50388212B044641D013D87F
:108A3000112B09D8102B02D2013B012B0AD830216F
:108A40002046FFF7E6FF05E01B2BF8D01D2B29D0B1
:108A5000152BF4D002B010BD522BF0D011D83B2B07
:108A600035D0502BEBD0232BF4D100221146808837
:108A7000FFF747FF0028EDD0204AAC210DF097FE0C
:108A8000E8E7562B2ED0572BD9D0552BE2D14521D4
:108A90008088FFF738FF0028DCD0184AB2210DF09B
:108AA00086FED7E7FFF754FF00222146FFF7BEFA04
:108AB000D0E702A9002321F8043D8088FFF71FFFBB
:108AC0000028C7D00D4A9B210DF071FEC2E713218B
:108AD0008088FFF712FF0028BCD0084AA1210DF0C2
:108AE00066FEB7E713218088FFF707FF0028B1D0A3
:108AF000024AA7210DF05BFEACE700BF017A04003B
:108B0000704710F0BFBE10B50446FFF7FFFE2146C8
:108B1000BDE8104001F0A0BE1421FFF7F4BF000033
:108B200010B5044B03600446C06908B11BF08EFF0A
:108B3000204610BDE079040010B50446FFF7F0FFB1
:108B4000204630211BF0BCFF204610BD00F18040C4
:108B500000F5E040002382B0036003680193019BAD
:108B600002B070470023435082B043580193019BE9
:108B700002B070477047704710B5402104461BF0A3
:108B80009FFF204610BD0000FF21C1760177012123
:108B90000D4A81770D490260002202714277C27747
:108BA00080F8202080F8302080F83620C0E90E229E
:108BB000C0E90A220A6080F8212080F8222080F88B
:108BC000232080F824207047607B04001C280020AC
:108BD00010B50B4C2378BFF35B8FDB070ED4204618
:108BE0001BF025FF50B10748FFF7CEFF20461BF0D2
:108BF0002AFF054A054903481BF05DFF014810BDE7
:108C00002C2800203028002080230020778B0200B1
:108C1000164A022310B5C2F8F0350023C2F8F43525
:108C20006FF00043C2F808334FF48270FFF78EFFF5
:108C30000F4B4021802483F80713C3F8804193F839
:108C400007134809EC210141C90705D5094988687E
:108C500050B10B6823430B600223C2F80433012395
:108C6000C2F80035002010BD1C60F5E70070004020
:108C700000E100E0B86400208162704770B5C37FF6
:108C80000246002B39D01D4D1D490226C5F8086348
:108C90000023C377C37D012404FA03F3C1F8083528
:108CA000837E184804FA03F3C1F80835164B1C609C
:108CB000A3F580534FF4A0711C60FFF753FF134BD3
:108CC0001C6092F8203073B182F820604FF48A70F3
:108CD000FFF73CFF2023C5F804330D4B1C6092F8CE
:108CE0002030002BFBD1002353774FF48270FFF725
:108CF0002DFF024B0222C3F8042370BD0070004018
:108D000000F001400090004004A000400C900040A2
:108D100008700040F8B5431893F8213023B1294A70
:108D200040F2C91111200CE0274A0224C2F808437E
:108D3000437F012B09D9C2F80443224A40F2D511DE
:108D40001320BDE8F8400DF032BD204D55F82160EC
:108D500090F8205005F0FF07FDB1012F1CD1057FD1
:108D6000FF2D05D0C2F804434FF4F071154AD9E73E
:108D70000133174A017743771368002BFCD04FF477
:108D80008070FFF7E3FE104BC822C3F82C66C3F8CF
:108D900030260222C3F80423F8BD01252B44C176F6
:108DA0004377FF21C82380F820500177C2F804439D
:108DB0004FF48070C2F82C66C2F83036FFF7C6FE5A
:108DC0001560E9E7AE7A0400007000401C2800201E
:108DD0000071004038B5C37F013B012B04460DD91B
:108DE00000F121020023253012F8011B002918BFD1
:108DF0000B468242F8D113B10223E37738BDE17EFE
:108E00000123FF29E37722D0257FFF2D204617D0AD
:108E1000FFF780FF29462046FFF77CFFE27D0F49E0
:108E2000012303FA02F2A377C1F804250C4A136068
:108E3000A27E03FA02F2C1F804250A4A1360DDE7B4
:108E4000FFF768FFE17E013101F00301E3E7064A25
:108E500040F2B91108200DF0AAFCDFE700F0014054
:108E60000CA0004000900040AE7A040010B54218FB
:108E7000002482F82140C47F022C05D10322C2774E
:108E8000FFF7A8FF012010BD012CFBD1023101F03A
:108E90000301FFF73FFF014B1C60F3E704A0004014
:108EA000C162704743798B420FD901EB410100EB5E
:108EB000410113788B71D2F80130C1F80730537932
:108EC000CB720123037100207047602070470000BF
:108ED00070B5164D90F83010B0F93C3005EB01112B
:108EE0001B0443F47843C1F81C3590F83060072E1A
:108EF000044604D90E4940F2B9200DF0C3FC7600B7
:108F0000802303FA06F6C5F8086394F83040072C6E
:108F100004D9074940F2B9200DF0B4FC40236400A5
:108F200003FA04F4014BC3F8044370BD0070004021
:108F30006E7A0400072998BF0B4BC26398BF33F8C1
:108F4000113080F8301088BF4FF4AA730729438688
:108F500096BF064B4FF4A87333F811308386012374
:108F600080F83630FFF7B4BF4E7A04005E7A040012
:108F700070B5164D90F83010838F05EB011143F05A
:108F80007F6343F47023C1F81C3590F83060072EDE
:108F9000044604D90E4940F2B9200DF073FC760066
:108FA000802303FA06F6C5F8046394F83040072CD2
:108FB00004D9074940F2B9200DF064FC4023640055
:108FC00003FA04F4014BC3F8084370BD007000407D
:108FD0006E7A04002DE9F0410546194EFFF7C8FFEF
:108FE000D5F82C80D6F80475B8F1000F24D0D6F847
:108FF0000825AC6B013200234FF4182000211DF02E
:1090000009FB4FF47A7200231DF004FB3C1B24F093
:109010007F44844210D9D6F80825002301324FF44A
:10902000282000211DF0F6FA4FF47A7200231DF07B
:10903000F1FA844200D2C047AF63BDE8F08100BFBF
:1090400000B0004010B50446FFF718FE2046BDE80A
:109050001040FFF7BFBE08B5FFF7BAFDBDE80840F6
:10906000FFF7F0BFFFF7F7BF002108B5064A084633
:109070000DF0F8FA30B1054A4FF42D71BDE8084003
:109080000DF095BB08BD00BF65900200AE7A0400EC
:1090900013B52F4B1B68044613B34FF48270FFF7D0
:1090A00055FDE37E8DF807302A4BD3F8343694F81B
:1090B0002010C9B201291DD1637F013B6377237F53
:1090C000FF2B19D10223002184F82030224A0846C0
:1090D0000DF0C8FA20B1214A40F2D5210DF067FB0E
:1090E0001F4B1B68B3B14FF48A70FFF72FFD0023AD
:1090F00084F8203002B010BDE376FF232377194AAD
:109100000DF107000DF0AEFA0028E9D0134A40F245
:10911000E121E3E794F83630002BEBD0608E00F1CC
:10912000804303F5E0431B6823B1FFF70FFD2046A2
:10913000FFF7CEFEA08E00F1804303F5E0431B68ED
:10914000002BD7D0FFF702FD2046FFF743FFD1E702
:10915000047100400070004057900200AE7A040095
:1091600014710040B595020008B5FFF731FDBDE868
:109170000840FFF78DBF704708B5FFF729FDFFF7DF
:1091800073FF4FF4A0710248BDE80840FFF7EABC46
:1091900000A00040042918D008D801290FD01CD302
:1091A00002290ED003290ED000207047062910D0C6
:1091B0000DD307290FD06429F6D10920704702206A
:1091C0007047032070470420704705207047062031
:1091D0007047072070470820704701207047F8B596
:1091E0001378072B07460C46164604D9642B02D089
:1091F000012007F0C7FE7379083BDBB2F62B02D8DB
:10920000012007F0BFFED6F80130962B32D9B3F516
:10921000967F31D9B3F5167F30D9B3F5966F2FD934
:10922000B3F5E16F2ED9B3F5166F2DD940F6B832EC
:1092300093428CBF002301237179FF2926D0384641
:10924000FFF7A8FF0122054631783846FFF7A2FF55
:109250001B0243F4003343EA0253220102F180422D
:1092600002F5E042C2F81835C2F81455C2F81005EC
:109270000020F8BD0723DFE70623DDE70523DBE752
:109280000423D9E70323D7E70223D5E700252A469D
:10929000DAE700002DE9F843421D0F460B4604466D
:1092A000103153F8040B42F8040B8B42F9D11B78B0
:1092B00013707F4B7F4D01221A60D5F8083543F0BB
:1092C0000303C5F80835D5F8103523F00F03C5F8AA
:1092D0001035D4F812304FEA13794FEA0318B9F178
:1092E000010F08BFB8F1000F04D3734940F2B12059
:1092F0000DF0C8FAC5F84085D5F804356D48DFF89B
:10930000E08123F00303C5F80435D5F8003243F0BB
:109310000103C5F800324FF4A071FFF723FC4FF4AE
:10932000A2716448654DFFF71DFC4FF4A4716148BC
:10933000FFF718FC4FF4A6715E48FFF713FC0C23EF
:10934000A3755F4BC5F87035A3F504533C3BC5F8D6
:10935000743503F540530433C5F84039A37D594AA9
:10936000012606FA03F3C5F80435C8F80060D2F800
:10937000083543F00303C2F808356179C82393FB2D
:10938000F1F3053BC2F84035D2F8043523F003036E
:109390003343C2F8043510464FF4A071FFF7E2FBE7
:1093A0004FF4A271FFF7DEFB4FF4A471FFF7DAFB75
:1093B0004FF4A671FFF7D6FBD2F8003243F4807366
:1093C000C2F800320E2363763F4BC5F88035A3F513
:1093D00089531C3BC5F88435637E9E400F23C5F836
:1093E0000465A376394B3A4EC5F888656021C5F807
:1093F0008C85C5F84C2983F80A1393F80A13480999
:10940000EC21014111F0010F154606D0314A916857
:1094100069BB4FF480621A6005E02F4AC02142F216
:1094200002000DF0C4F94FF48033C5F804330D2366
:10943000E375224B294AC3F878653946C3F87C2581
:109440002046FFF7E5FB18B1234AD4210DF0AFF910
:10945000002506266279AA4205F101050CDD691E88
:1094600006FB0542C9B22046FFF7B9FEF2E71368D2
:1094700043F480631360D6E70025DFF8688004F1C9
:1094800021072E464FF4C8701BF049FD48F825000F
:109490000135042D07F8016BF4D101232377E6761B
:1094A000FDF792FC214601F005FC0020BDE8F883A1
:1094B0000C90004000900040F77A040000F001405A
:1094C0004091004000A0004040A1004000E100E0C9
:1094D00004710040B8640020AE7A040000700040BF
:1094E0000CA000401C28002070B50446002506266C
:1094F0006279AA4205F1010507DD691E06FB0542F6
:10950000C9B22046FFF76BFEF2E70F4D2B78BFF391
:109510005B8FDB070ED428461BF089FA50B10B484D
:1095200003F086FF28461BF08EFA094A09490748CE
:109530001BF0C1FA1123621D42F27471034803F05B
:10954000D3FF0023237170BD0C25002010250020BF
:1095500080230020976D020030B5836A85B00446F1
:109560000D4623B34318012283F82120837F63B182
:109570004FF4A173ADF8043000230293ADF80C3022
:10958000FDF722FC01A901F075FB0023A3772379E5
:1095900043B12046FFF772FB2046FFF7A5FF2046A8
:1095A000FFF718FCA36A2846984705B030BDFFF7BF
:1095B0005DFCFAE710B50446FFF70AFB2178BDE829
:1095C0001040FFF7C9BF03680079184770470000D3
:1095D00030B52DED028BB4EEE00AF1EE10FA85B055
:1095E00005460C46F0EE408AB0EE608A04DB504A35
:1095F000222121200DF0DBF84E4BD3F80435AB606F
:1096000018EE900A1CF058FB43A3D3E900231CF08A
:109610003BFE002862D0DFED487A68EEA77A17EEAD
:10962000900A1CF049FB3EA3D3E900231CF0E6F9A5
:109630003DA3D3E900231CF0C1FC00223F4B1CF0EA
:10964000DBF91CF069FEC5B218EE100A1CF034FB01
:1096500031A3D3E900231CF017FEC0B1DFED367A49
:1096600068EE277A17EE900A1CF026FB2CA3D3E9AC
:1096700000231CF0C3F92CA3D3E900231CF09EFCAB
:1096800000222E4B1CF0B8F91CF046FEC0B200239D
:1096900004210622072C8DF804108DF806308DF871
:1096A00007508DF808008DF809308DF80A308DF8D4
:1096B0000B308DF80D2013D91D4A3B2121200DF0D0
:1096C00076F81F4901A80DF0FDFA18B1184A592182
:1096D0000DF06DF805B0BDEC028B30BD0546B3E76B
:1096E000013C062C06D8DFE804F004080A0C0F1130
:1096F000140001238DF80C30E3E70223FAE703237B
:10970000F8E78DF80C10DCE70523F3E78DF80C2063
:10971000D7E70723EEE700BF666666666666AA3F80
:10972000666666666666FA3F6666666666660A40EE
:109730006C7B040000B00040000080420000F03F5D
:10974000FD970200013903290ED8DFE801F0020776
:109750000A0A4FF4847000210DF03CBB4FF4827074
:10976000F9E74FF48670F6E770470DF051BB000043
:1097700038B50B88A3F5807304460C2B36D8DFE888
:1097800003F0093535350735353531353535330095
:1097900002232371236823B3154BD3F80455D3F860
:1097A0000825A3680132ED1A4FF448100023002168
:1097B0001CF030FF4FF47A7200231CF02BFF25F0D1
:1097C0007F45854209D90B4A082120460CF04AFF03
:1097D00018B1094AA0210CF0EAFF054BD3F8043573
:1097E000A36038BD0123D4E70423D2E70023D0E7E8
:1097F00000B00040C79502006C7B040013B50B4C11
:10980000ADF806002378BFF35B8FDB0706D4204654
:109810001BF00DF910B120461BF015F90DF10601F2
:109820000348FFF7A5FF02B010BD00BF702800205D
:10983000742800201F2810B5044604D905494FF4A8
:10984000F3700DF01FF801204FF0A043A040C3F8C3
:109850000C0510BD0E7C04001F2810B5044604D969
:1098600005494FF4F3700DF00DF801204FF0A043BF
:10987000A040C3F8080510BD0E7C040038B50A4DA1
:109880002C78BFF35B8F14F001040AD128461BF03B
:10989000CEF830B1054B28461C765C769C761BF0E2
:1098A000D2F8024838BD00BF802800208828002058
:1098B00000220276427682767047000008B5094A97
:1098C000012313604376837E5BB10021064A08467C
:1098D0000CF0C8FE28B1054ABF21BDE808400CF0D5
:1098E00066BF08BD00B00140079E0200C57B0400B2
:1098F00008B5817609B9FFF7E1FF002008BD000037
:10990000064B00221A6082B01B680193019B044B36
:109910004FF40012C3F8042302B0704754B1014061
:1099200000B001402DE9F84F037E8246002B00F085
:109930008F80437E3BB9837E002B00F08980BDE899
:10994000F84FFFF7BBBF434B01221A60D3F8002545
:10995000D0F81CB056424FF000035C464FF00005B3
:1099600063EB430769104FEA3400404261EB410169
:10997000864277EB010103DABBEB020665EB0307D6
:10998000DAE914014FF47A72801B61EB0701ABFB3B
:1099900002238946824273EB0901804655DBCAE9FE
:1099A0001489DAE91401524263EB4303904299416E
:1099B00001DACAE91423DAF844300A210133CAF87B
:1099C0004430B3FBF1F201FB1233CAE91267002BFA
:1099D0003ED14FF47A720023DAE914011CF0CAFD7B
:1099E0004FF4C872804689460023204629461CF061
:1099F000C1FD02460B46404649461CF0BBFD164AD7
:109A000080464FF0FF33204629461CF0B3FD024646
:109A10000B46304639461CF0ADFD002308EB00062E
:109A20002946204678221CF0A5FD8642A8BF06469E
:109A30004042B042ACBF58440BEB0600CAF82000CD
:109A40005046BDE8F84FFFF75BBFCAE91423A8E70B
:109A5000BDE8F88F4CB0014070FEFFFF08448AB1AA
:109A600090F83B30890001F1804101F5C0411B05B0
:109A7000D1F8142503F4801322F480121343C1F8A3
:109A80001435704790F83D30ECE70000052908B523
:109A90000AD9012007F076FA0C4A40F21321072078
:109AA0000CF085FE002008E001390429FAD8DFE82F
:109AB00001F0030507090B00012008BD0220FCE7A7
:109AC0000320FAE70420F8E70520F6E7C57B040049
:109AD00010B51446FFF7DAFF024B00F5A87043F803
:109AE000204010BD00B00140026A0521FFF7F0BF21
:109AF000072908B50AD9012007F044FA0F4A40F2B5
:109B00002B2107200CF053FE002009E00139062923
:109B1000FAD8DFE801F00406080A0C0E1000042051
:109B200008BD0820FCE70C20FAE71020F8E7142015
:109B3000F6E71820F4E71C20F2E700BFC57B04001D
:109B40002DE9F74F1346027E05460C4622B1427EB0
:109B50002AB900EB8104636203B0BDE8F08F0FFA0D
:109B600081FB00EB8B07642BD7F81090984603F12C
:109B7000FF3228BF4FF06408B9F1000F02D0B9F1ED
:109B8000640F6DD192B2622A0AD9632B94BF00226E
:109B9000012221462846FFF761FFC7F81080DBE766
:109BA000EB69DFF848A2642203FB08F3B3FBF2F38E
:109BB000FB6295F83830012606FA03F3CAF8083537
:109BC00095F8393006FA03F3CAF808352146FA6ADF
:109BD0002846FFF77DFF95F83A3003F50073002221
:109BE0004AF8232095F83A309B0005EB4B0B03F124
:109BF000804303F5F8339BF83420D3F8001806FAB5
:109C000002F20A43C3F8002895F83A309BF8352051
:109C10009B0003F1804303F5F83306FA02F2D3F810
:109C200000180A43C3F80028B9F1000F95F838303E
:109C300018BF05245034A400DB00A4B203F1804314
:109C400003F5F83304F1804404F5D834C3F8104523
:109C5000C3F814A595F838309E40CAF804659CE70F
:109C600090F838C0DFF884A192B20126622A06FA81
:109C70000CFC4CD90193CAF808C590F8392006FAB3
:109C800002F2CAF80825FA6AFFF722FF95F83A208F
:109C900002F5007200214AF8221095F83A20019B43
:109CA000920005EB4B0B02F1804202F5F8329BF873
:109CB0003410D2F8000806FA01F10143C2F8001886
:109CC00095F83A209BF83510920002F1804202F597
:109CD000F83206FA01F1D2F800080143C2F8001880
:109CE000002B95F8382018BF05245034D300A40069
:109CF000A4B203F1804303F5F83304F1804404F582
:109D0000D834394AC3F81045C3F81425A2E7C3690B
:109D1000642203FB08F3B3FBF2F3FB62CAF808C545
:109D200090F8393006FA03F3CAF8083590F83A305B
:109D300003F5007300224AF8232090F83A3090F897
:109D40003820DFF8ACA09B0003F1804303F5F83323
:109D500006FA02F2D3F800180A43C3F8002890F874
:109D6000382004F110039B00D200DBB202F18042E4
:109D700002F5F83203F1804303F5D833C145C2F848
:109D800010A5C2F8143522D9611C90F83990C9B2D7
:109D9000FFF7AEFE4FEAC90303F1804303F5F83342
:109DA00000F1804000F5C040C3F810A5C3F81405C9
:109DB00095F83A3095F839109B0003F1804303F58C
:109DC000F8338E40D3F800281643C3F80068FA6AC7
:109DD00004212846FFF77CFE95F83A20034B012129
:109DE00043F83210D9E600BF04F0014000F0014012
:109DF00050B10140426A0369934203D092B20021FC
:109E0000FFF79EBE704708B5FFF738FDBDE8084074
:109E1000FFF7F0BF0F2910B50C4602D9012007F05B
:109E2000B1F8013CE4B20E2C96BF024B0020185D45
:109E300010BD00BFB67B04002DE9F84F0EB2B40090
:109E400000EB0409074699F80830B9F806000D46FA
:109E50009246002B00F08880FFF7FEFC4FF00008D0
:109E6000C9F81080C9F824809AF8023007EB050978
:109E700083F0010189F83B1004F1804404F5C044EB
:109E80009AF8023089F83D30D4F81425BAF8003039
:109E900022F4981222F4F8521B02C4F8142503F499
:109EA000F853D4F8142543F4403343EA01534FEAFE
:109EB000450A13435FFA8AFAC4F814355146384606
:109EC000FFF7A8FF760007EB060B0AF101018BF8FC
:109ED0003400C9B23846FFF79DFF01363E44AB005F
:109EE00086F8340001359BF834A0DFF888B0EDB275
:109EF000294638469B44FFF7FBFD4FEACA0303F1AE
:109F0000804303F5F83300F1804000F5C040C3F80A
:109F100010B5C3F8140596F8346029463846FFF7A3
:109F2000E7FDF30003F1804303F5F83300F18040CF
:109F300000F5C0400E4AC3F81025C3F8140599F87F
:109F40003D30D4F814251B0522F4801203F480134D
:109F50001343C4F81435D4F8143543F00303C4F89C
:109F600014354046BDE8F88FFFF764FC76E700BF84
:109F700054B1014040B10140F0B504460FC984E836
:109F80000F004F4B4F4D01221A60D5F8083543F0B2
:109F90000303C5F80835D5F8103523F00F0343F057
:109FA0000203C5F81035236819011A0F8E089F0F98
:109FB00046EA8276012F08BF002E87B004D34249BB
:109FC00040F2B1200CF05EFCE661C5F85465D5F8AE
:109FD00004353E4A23F00303C5F80435D5F80032B2
:109FE00043F02003C5F80032002313601268059285
:109FF000059A374A136012680492049A354A13602E
:10A0000012680392039A344A136012680292029A09
:10A01000324A136012680192019A314A1360126841
:10A020000092009A2279D9B28A4203F1010507D938
:10A0300004EB810206322046FFF7FEFE2B46F1E7D5
:10A04000510001F0FE012046FFF7E4FE217984F87B
:10A05000380049000131C9B22046FFF7DBFE00237A
:10A0600084F83A301F4B84F83900402283F81B23D0
:10A0700093F81B235109EC220A41D20706D51A4A4C
:10A080009168B9B94FF000621A6005E0174A58218B
:10A0900042F202000CF08BFBE369236200220023F2
:10A0A0000020C4E91423C4E9122301236064237649
:10A0B00007B0F0BD136843F000631360ECE700BF26
:10A0C0000CB0014000B00140F77A040040B10140FB
:10A0D00044B1014048B101404CB1014050B1014090
:10A0E00054B1014000E100E0B8640020C57B0400E9
:10A0F00008B5054B4FF40012C3F80823FFF7BEFB69
:10A10000BDE80840FFF7F0BC00B0014030DF704709
:10A1100031DF70470023036070470000F7B502ACE1
:10A12000002304F8013D0E4F06460D469DF807300A
:10A13000AB4209D22046FFF7E9FF0028F6D03A46A5
:10A1400014210CF034FBF1E729463046FFF7E0FF1D
:10A1500018B1034A17210CF02AFB03B0F0BD00BF71
:10A160004D7C040073B502AD002305F8013D124E8D
:10A1700004469DF80730012B09D82846FFF7C6FF93
:10A180000028F6D0324634210CF011FBF1E7022111
:10A190002046FFF7BDFF18B1074A39210CF007FB35
:10A1A00023784FF0000063F30700637863F30F2018
:10A1B00080B202B070BD00BF4D7C040010B50B4CE6
:10A1C0002378BFF35B8FDB070ED420461AF02FFCF9
:10A1D00050B1074803F02CF920461AF034FC054A28
:10A1E000054903481AF067FC014810BD0C25002002
:10A1F0001025002080230020976D0200024B18706C
:10A20000024B1970704700BFE4280020E5280020A9
:10A2100008B5134B1A7812BB01221A70FFF7CEFF54
:10A2200003F014F90F4B602283F8022393F8022302
:10A230005109EC220A41D20705D50B4A916851B960
:10A2400004221A600BE0094A512142F20200BDE8E3
:10A2500008400CF0ACBA136843F00403136008BD67
:10A26000E028002000E100E0B8640020967C0400B3
:10A270000A4B1A7882B901221A70094B1A78094BD5
:10A28000C3F81425084A1278C3F80C25074AC3F806
:10A2900024250422C3F80025704700BFE3280020CE
:10A2A000E428002000200040E528002000B0AF0393
:10A2B000044A137823B100231370034AC2F800350F
:10A2C000704700BFE328002000200040064B1A78AA
:10A2D00042B901211970054B0420C3F80403196029
:10A2E000C3F80821704700BFE1280020002000408B
:10A2F000084B1A786AB100221A70074B0749C3F855
:10A3000008130121D960C3F80821C3F82421C3F838
:10A3100044217047E1280020002000400402020090
:10A32000044B1A782AB901211970034B9960C3F8BC
:10A330001C217047E228002000200040054B1A78BD
:10A3400032B100221A70044B0121D960C3F81C21DC
:10A35000704700BFE228002000200040114B10B5DC
:10A3600004461870FFF754FF012C0BD002D3032CC6
:10A3700010D010BDFFF7BCFFFFF7E0FFBDE81040B5
:10A38000FFF796BFFFF774FFFFF7A0FFBDE810408F
:10A39000FFF7D4BFFFF76CFFFFF798FFBDE8104051
:10A3A000FFF7BEBFE6280020FFF7D8BF014B1878A3
:10A3B000704700BFE6280020054B0022C3F81C218F
:10A3C000C3F81C05D3F81C21012AFBD1704700BF3C
:10A3D00000200040F8B50C4B1B7806460F4693B1A1
:10A3E0000546AB1B9F420EDD15F8014B5C2C01D0DE
:10A3F0007E2C04D15C20FFF7DFFF84F04004204670
:10A40000FFF7DAFFEDE7F8BDE228002008B5034BBF
:10A410001B7813B17E20FFF7CFFF08BDE228002094
:10A4200013B5144BD3F824211AB1D3F8043398058B
:10A430000AD4114A0F4B116819B1D3F80413490714
:10A4400004D4D3F8442192B902B010BD00211160A8
:10A4500012680192094C019AD3F818352370FFF75E
:10A46000ADFE217802B0BDE8104003F051B8D3F83A
:10A470000433E9E70020004008210040E7280020DD
:10A4800028DF70472F2816D821282ED20C2806D86E
:10A490000B282AD248B3431F042B25D87047142811
:10A4A00004D8122821D210281ED17047A0F117031A
:10A4B000042B19D8704783280AD8802815D232284F
:10A4C00012D3392811D9A0F13B03062B0CD87047C1
:10A4D0008B280AD004D8A0F18503042B04D8704738
:10A4E000A0F58073432B00D90020704710B50A4BAC
:10A4F0000360002304460371437183600373037692
:10A50000C0E90733C0E90933C362FCF75DFC2146AB
:10A5100000F0D0FB204610BDE079040010B50446E1
:10A520000CF098FA23790BB1002010BD63794BB978
:10A5300008480BF053FC18B10E2808D97020F4E736
:10A54000012363710BF072FC0028EDD0F4E7024B9D
:10A55000185CEAE7198B0200E27C04008160704716
:10A5600038B50446D0E9070290420DD005888D42E7
:10A5700000F1020309D19A4203D0D21A19461CF005
:10A58000A9FA236A023B236238BD1846ECE710B5EE
:10A59000037B63B9037E53B9D0E907249442104684
:10A5A00005D00088884202F10202F7D10123184643
:10A5B00010BD037B33B9037E23B9D0E907301B1AE2
:10A5C00018BF01231846704710B5037904465BB1E4
:10A5D0000CF040FA2046FFF7ECFF38B90BF0CEFD47
:10A5E00008B90123237310BD4320FCE70E20FAE7CE
:10A5F00008B5FFF7E9FF0E2896BF024B7020185CE4
:10A6000008BD00BFE27C0400F8B50A88D41C24F021
:10A610000304A4B2A21A20460E4695B21CF0DCF93F
:10A62000074630882A46FF2138441CF06CFA3480F3
:10A630003846F8BD10B5037904467BB1FFF7B9FF82
:10A6400070B908460BF074FD20B901232376054B41
:10A65000185C10BD0E28FAD97020FAE74320F8E7FD
:10A660002720F6E7E27C04000822002110301CF0CD
:10A670004ABA2DE9F843089C054699460F4690468C
:10A68000FFF7F2FF00232370103501262B464A46C0
:10A69000414638460BF096FD20B92378002BF5D1C2
:10A6A0002670F3E70020BDE8F88300002DE9F043B1
:10A6B000037987B0064689461746002B38D0B2F892
:10A6C00000804146FFF763FF0446002832D1304640
:10A6D000FFF7CAFF0A251036334603AA414648460B
:10A6E0000BF070FDD8B901A903A80BF095FC054645
:10A6F0000028F1D13A890199D31C23F0030349883A
:10A700009BB2B3EB810F08D1029978681CF0D7F99E
:10A7100003A80BF0BBFC0546DEE72024F8E71CB9D4
:10A720000E2D09D8054B5C5D204607B0BDE8F083CF
:10A730004324F9E72724F7E77024F5E7E27C0400D7
:10A7400030B50C4685B0C9890546FFF709FF636837
:10A750009BB9E389ADF8023040F23913ADF804300B
:10A760000DF1020302930223ADF80C30FCF72CFB31
:10A7700001A900F07FFA05B030BDAD68002DFAD018
:10A78000E089FFF77FFEA18902460120A847F2E792
:10A7900030B50C4685B0C9890546FFF7E1FE636810
:10A7A0009BB9E389ADF802304FF49D73ADF80430E6
:10A7B0000DF1020302930223ADF80C30FCF704FB09
:10A7C00001A900F057FA05B030BDAD68002DFAD0F0
:10A7D000E089FFF757FEA18902460220A847F2E769
:10A7E0001FB5002202764B68A3B98B89ADF8023001
:10A7F00040F23B13ADF804300DF102030293022343
:10A80000ADF80C30FCF7E0FA01A900F033FA05B01E
:10A810005DF804FB8368002BF9D0898903209847F1
:10A82000F5E71FB5002202734B6873B94FF49E72AF
:10A83000ADF804200293ADF80C30FCF7C5FA01A97D
:10A8400000F018FA05B05DF804FB8368002BF9D01E
:10A85000114604209847F5E71FB50B78052B14D84F
:10A86000DFE803F0031D1D2023264B6883B9012276
:10A8700002714FF49C72ADF804200293ADF80C30D5
:10A88000FCF7A2FA01A900F0F5F905B05DF804FBA8
:10A89000094A40F2F71118460BF089FFF5E7FFF778
:10A8A0004FFFF2E7FFF774FFEFE7FFF799FFECE7E1
:10A8B000FFF7B7FFE9E700BFF17C0400836A33B11B
:10A8C000C06A28B183428CBF00200120704718461F
:10A8D000704700001FB5826A04468AB1C36A7BB123
:10A8E0009A420DD80ED14FF49F73ADF80430002377
:10A8F0000293ADF80C30FCF767FA01A900F0BAF941
:10A9000004B010BDA06AFFF7BBFD1128FAD020B13A
:10A91000044A40F241210BF04AFFA36A0133A362CB
:10A92000EEE700BFF17C04002DE9F0410379064613
:10A93000E3B9FFF7C3FFC8B94FF080531C690BF0B0
:10A9400063FAA0F58045B5FBF4F8B0FBF4F4A0453C
:10A95000074605D90A4A40F2172110200BF027FFBD
:10A960002B68013305D10435BD42F9D14020BDE843
:10A97000F0813046C6E90A84FFF7ACFF0020F6E715
:10A98000F17C0400FFF7A6BF08B5FFF797FF38B1C9
:10A99000044A40F251210D20BDE808400BF007BFEA
:10A9A00008BD00BFF17C04002DE9F843D0E9003474
:10A9B000E41A6410914614BF22460122A4180646E8
:10A9C0000F46A1EB030804D2002C02DB03D125467D
:10A9D00005E06FF0004460001AF018F8054615EB2A
:10A9E000080F18BFB9F80030D6F8009018BF25F846
:10A9F00008304F45A7EB090804D04246494628468F
:10AA00001CF068F8726808F1020397422B44A2EB2D
:10AA1000070805D01846424639461CF050F8034650
:10AA200003EB0807B9F1000F02D048461AF00EF800
:10AA300005EB4404C6E90057B460BDE8F8830A4654
:10AA4000D0E90113994210B5044606D009B1128825
:10AA50000A8063680233636010BDFFF7A5FFFBE760
:10AA6000F0B503798BB005460F461446002B3CD059
:10AA700016883146FFF78BFD002834D163680593B3
:10AA800023898DF80D000333C3F38D0306930DF175
:10AA90000D030093394607AB32462846ADF81070D7
:10AAA000ADF81260FFF7E5FD9DF80D3004A907A889
:10AAB00043B10BF011FB044638B107280DD02046F6
:10AAC0000BB0F0BD0BF004FBF5E70AA905F11C0083
:10AAD00021F81A6DFFF7B3FFF1E72846FFF788FD6D
:10AAE00004460028EBD10E24E9E74324E7E7000001
:10AAF00008B5FFF7B5FF0E2896BF024B7020185C13
:10AB000008BD00BFE27C04002DE9FF410379054642
:10AB10000F4616462BB31146FFF739FD18BB2846E2
:10AB2000FFF7A2FD0A2405F11008434601AA3146A9
:10AB300038460BF047FB78B901A80BF0D5FA04466C
:10AB400040B90DF1020105F11C00ADF80260FFF7FC
:10AB500076FFEAE70E2808D8054B185D04B0BDE87B
:10AB6000F0814320FAE72720F8E77020F6E700BFDE
:10AB7000E27C040010B5074C2378BFF35B8FDB0742
:10AB800006D4204619F053FF10B1204619F05BFFA0
:10AB9000014810BDE8280020EC28002008B519F075
:10ABA0003DFC18B1084A15210BF001FE074A20218F
:10ABB00094200BF033FD28B1034A1621BDE808406C
:10ABC0000BF0F5BD08BD00BF3E7D0400F02800205D
:10ABD00008B50846002119F07BFC28B1034A1B2167
:10ABE000BDE808400BF0E3BD08BD00BF3E7D04009A
:10ABF000042A084608B511460AD91A46006819F011
:10AC000079FC28B1034A2321BDE808400BF0CFBDF1
:10AC100008BD00BF3E7D040008B5086819F0AEFC11
:10AC200028B1034A2721BDE808400BF0C0BD08BD8C
:10AC30003E7D040070B508680C4615461E4619F0A6
:10AC40009DFC18B1084A2B210BF0B1FD3246294674
:10AC5000206819F04FFC28B1034A2C21BDE8704050
:10AC60000BF0A5BD70BD00BF3E7D04000022A0F822
:10AC70007820704770B50B880A89053B9BB2B3F505
:10AC80009F7F0D469ABF0A49CB5C00239A42064635
:10AC90000CD10024B6F87830A34207DD56F8240022
:10ACA000036829469B6898470134F3E770BD00BFED
:10ACB000897D040010B5B0F878301C2B06D9094AFC
:10ACC000252104200BF073FD002010BD19B9054AA1
:10ACD00029210E20F6E75A1CA0F8782040F823100E
:10ACE0000120F2E7C87E0400F0B500241C609C80BF
:10ACF000561EA64212DD0D5D0F1905EB040C6245D0
:10AD00007F780BDD874206D102342144013D196072
:10AD10009D800020F0BD01352C44EAE72520F9E7AD
:10AD2000704710B51821044619F0CAFE204610BD20
:10AD3000024A026000228275704700BF447F04000F
:10AD400010B50446FCF758F804F11602212101233E
:10AD500005F01CF9FCF738F82146BDE81040FFF774
:10AD6000A9BF03798B4213D0837A8B4212D0037C24
:10AD70008B4211D10223062101FB0300417929B145
:10AD8000D0F80610914208BF6FF0010318467047D3
:10AD90000023F0E70123EEE74FF0FF33F6E710B5AD
:10ADA0005C1C06D1437923B1C37A63B1437C63B998
:10ADB0000223062404FB0303012019710F2159719A
:10ADC000C3F8062010BD0123F3E70020FAE700F1E5
:10ADD000120243790BB1013B437106309042F8D126
:10ADE000704737B515460C46FBF778FA04220092F7
:10ADF0002B46214601F0D3F903B030BD2DE9F04FC9
:10AE000091B09178DDF868A055781C9E9B4601F0C2
:10AE10003F01DAF800308900144641EA95111A68BA
:10AE20008046FFF79EFF10F1020F814601D10025F9
:10AE300085E0C5F3C205042DF9D801A353F825F028
:10AE400055AE02004BAF020047AF02002FAE02002A
:10AE50004FAF02000027FBF741FA9BF80430BAF825
:10AE600004200393DBF80030CDE901731023009335
:10AE7000DAF800100CAB01F045F90028D7D00C9D92
:10AE8000FBF7BAFF042305AA882105F07FF8314BB0
:10AE90009D42CCD132461B999DF834B04046FFF715
:10AEA000A0FF05460028C2D0BBF1010F47D1A17811
:10AEB0006078DAF8002001F03F01890041EA901142
:10AEC0004B4640461268FFF76AFF8046B8B39DF8CC
:10AED000203061788DF81F7003F0FE036FF3450397
:10AEE0008DF8203023238DF818300DF13503CDF87F
:10AEF000193000238DF81E30A37803F03F039B0028
:10AF000043EA9113BDF8201003F5407363F38F11EA
:10AF10003388ADF820101B0A8DF8223040F213134D
:10AF20000B22ADF8243006AB8DF81D200A93ADF846
:10AF30002C20FBF749FF09A9FFF79CFE4546284650
:10AF400011B0BDE8F08F022785E7012783E764276A
:10AF500081E700BFBEBAFECA10B5107810F0070432
:10AF600086B022D15278CDF8023004238DF8063015
:10AF70004B1CCDF8073002F007020B788DF80B3030
:10AF8000520140F21B1342EAD002ADF80C300C2300
:10AF90008DF800408DF80120CDF810D0ADF81430B8
:10AFA000FBF712FF03A9FFF765FE06B010BD2DE900
:10AFB000F04190B006460D464A7AD1F80A1008AB27
:10AFC0000320FFF791FE002866D10AAF3B466A7A5C
:10AFD000D5F80A100720FFF787FE00285CD1BDF8DE
:10AFE0002430072B58D9ADF810008DF812000590C9
:10AFF00004464FF00108089B1B5BADF838309A0BF4
:10B0000010A91144D2B2022A01F82C8C63D0032A71
:10B010006ED0012A43D09DF81020D91261F30202AC
:10B020008DF81020BDF81020D91061F3CA02ADF8D8
:10B030001020C2F3072263F3C5028DF811200EA978
:10B0400002220CA802341BF03AFD082CD3D10023B5
:10B0500005AA995C01B30133042BFAD1BDF8103075
:10B06000B27DC3F3C703934216D10CAB0E930823F2
:10B07000ADF83C3006AC07AB0293CDE900740EABE3
:10B0800004AA29463046FFF7B9FE28B1234604AA90
:10B0900029463046FFF760FF10B0BDE8F0819DF80B
:10B0A0001110C3F3071000F0030201F03F0141EA61
:10B0B00082119DF812208DF8111022F03F0242EA11
:10B0C00090021B038DF81220ADF8183002220EA951
:10B0D0000DF13200B6E7BDF81800C3F38B0101444F
:10B0E0009B03ADF81810ADF81A300EA90DA8A9E70A
:10B0F000BDF81A20C3F30D031344ADF81A30022231
:10B100000EA90DF136009DE70B88B3F58D7F05D0B4
:10B11000B3F5907F04D14968FFF749BFFFF757BEE9
:10B1200070473CDF70473DDF7047000010B50B4CA7
:10B130002378BFF35B8FDB070ED4204619F077FC32
:10B1400050B1074801F086FC204619F07CFC054A06
:10B150000549034819F0AFFC014810BD443D0020EB
:10B160000C3D0020802300205DBA020010B50B4C7E
:10B170002378BFF35B8FDB070ED4204619F057FC12
:10B1800050B1074801F0B4FE204619F05CFC054AB6
:10B190000549034819F08FFC014810BDF83D002017
:10B1A000483D0020802300206DBA020010B50B4CF2
:10B1B0002378BFF35B8FDB070ED4204619F037FCF2
:10B1C00050B1074807F062F8204619F03CFC054AE8
:10B1D0000549034819F06FFC014810BDA83E002046
:10B1E000603E0020802300209DBA020010B5FF21A0
:10B1F00004680020FFF797FFC0B218B10D4A26215E
:10B200000BF0D5FA21460020FFF78BFFC0B218B132
:10B21000084A28210BF0CBFABFF34F8F0649074BA2
:10B22000CA6802F4E0621343CB60BFF34F8F00BFE4
:10B23000FDE700BF507F040000ED00E00400FA05C8
:10B24000064B10B500210360031D044681622022D5
:10B2500018461BF058FC6062204610BD4080040078
:10B2600010B504468162FBF7AFFD2146FFF722FDD2
:10B27000FFF780FC04F12401024ABDE81040FFF70B
:10B28000A7BC00BFEDB102002DE9F041144C2378BA
:10B29000BFF35B8FDB0705460F46164608D42046F2
:10B2A00019F0C5FB20B10F4B20461F7019F0CBFBE6
:10B2B000FFF760FC4FF40047044600214FF4FA709A
:10B2C0004FF47A720023E6FB07011BF0A3F905F1A6
:10B2D00024010246034B2046BDE8F041FFF788BC3D
:10B2E000AC3E0020B03E00201FB50023ADF800208A
:10B2F000120C8DF8022001931A4600F003F805B0F5
:10B300005DF804FBF0B589B00F461C469DF83C3053
:10B31000039315460646FAF7E1FF232F98BF814AAB
:10B32000039B98BFD15D039388BFC9211A4601F0E2
:10B3300048F8002800F0EF80039B232F00F2E980FB
:10B34000DFE807F0A39D47151B406F6923122AE72A
:10B350003AE71252A9E7128B91EB63977FB75985B1
:10B36000BDC3C9CFD5DBE1AF412009B0F0BD224656
:10B370002946304600F0D8F8F7E730464FF4FA6235
:10B380000121FFF781FF0020EFE7012C40F0C7808B
:10B39000284600F08BFBE8E7012C40F0C0802B78BA
:10B3A00008AD05F80C3DFBF727FD23462A461A2178
:10B3B00004F035FF0020D8E722462946304600F049
:10B3C000F1F8D2E7042C40F0AA80284600F092FB66
:10B3D000CBE7042C40F0A3802C68FFF7C7FE214682
:10B3E00001F000FD0020C0E70C2C40F298802846B8
:10B3F00000F0A8FBB9E7002C00F091802C78FFF753
:10B40000B5FE214601F0C1FDAFE7FDF7A1FAFCF75B
:10B410002AFD0020A9E722462946304600F010F90F
:10B42000A3E7042C7BD14FF49473ADF81430069548
:10B43000ADF81C40FBF7C8FC05A9FFF71BFC00207A
:10B4400093E722462946304600F00BF98DE7224665
:10B450002946304600F024F987E7FDF779FAFCF732
:10B46000C1FE002081E722462946304600F056F909
:10B470007BE7042C53D1284600F06EFB75E722468B
:10B480002946304600F080F96FE7224629463046CB
:10B4900000F099F969E722462946304600F0AAF9FA
:10B4A00063E7009322460E9B2946304600F00FFAD0
:10B4B0005BE722462946304600F0B9F955E72246B7
:10B4C0002946304600F03CFA4FE7012C27D12846A8
:10B4D00000F05CFB49E7012C21D1284600F093FBEA
:10B4E00043E722462946304600F082F83DE7012C2A
:10B4F00015D1284600F0AFFB37E784B12146284636
:10B5000000F0C6FB31E7012C09D1284600F0E8FB2A
:10B510002BE7242029E7302027E7002025E72020FB
:10B5200023E700BFE67F040010B5836A1B68B3F50C
:10B530007B7F86B0044623D8B3F57A7F02D2283BBE
:10B54000012B26D800238DF809308DF805308DF8B1
:10B5500006308DF8073001238DF8083040F20313D0
:10B56000ADF80C3001AB6422049306238DF804205F
:10B57000ADF81430FBF728FC03A9FFF77BFB08E0CC
:10B5800040F2EF329342DDD003D3A3F2DC53042B1D
:10B59000D8D920464FF4FA624221FFF775FE002009
:10B5A00006B010BD13B5032A0B788DF807301DD1F6
:10B5B000BBB1B1F801407CB1FFF7B8FD214601F005
:10B5C000DEFAFBF719FC01230DF107021B2104F041
:10B5D00026FE002002B010BDFFF7A8FD01F0C6FA5C
:10B5E000EFE7FFF7A3FD01F0EEFAEAE72020F1E72D
:10B5F00070B50F4C2378BFF35B8FDB070D46164603
:10B600000ED4204619F013FA50B10A4801F0D0FCCC
:10B61000204619F018FA084A0849064819F04BFA6A
:10B62000324629460348BDE8704001F0D1BC00BF56
:10B630005C3E0020543E0020802300208DBA020092
:10B640001FB540F227130024ADF804300294ADF882
:10B650000C40FBF7B9FB01A9FFF70CFB204604B037
:10B6600010BD10B586B003238DF80A3007238DF87E
:10B67000003040F215130024ADF80C300C23ADF867
:10B680001430ADF808408DF80B400194CDF810D07F
:10B69000FBF79AFB03A9FFF7EDFA204606B010BDB1
:10B6A0002DE9F0430E4687B01146304602F0FEF811
:10B6B00070B3002534464FF001082F464FF48B79C4
:10B6C000F378AB4228DDB6F80120ADF807206279A7
:10B6D00023798DF80430FF2A07BF8DF805708DF8A7
:10B6E00006708DF805808DF8062073B1BDF807301F
:10B6F0005BB101AB04930523ADF80C90ADF81430A9
:10B70000FBF762FB03A9FFF7B5FA01350234D7E76F
:10B71000222007B0BDE8F0830020FAE738B5806A40
:10B72000847C250729D4022A29D10A784B78012A5A
:10B730000CBF457C057CE20648BF83F00103012471
:10B740006BB11F2D04D90F494FF4F3700BF09AF829
:10B750004FF0A043AC40C3F80845002038BD1F2D72
:10B7600004D908494FF4F3700BF08CF84FF0A04364
:10B77000AC40C3F80C450020F0E74020EEE7202065
:10B78000ECE700BFA77F040010B5836ADB7C03F001
:10B79000FD00012801D0052B0FD1012A0FD10C7813
:10B7A000FFF704FD06F0ECFE84420AD0FFF7FEFC32
:10B7B000214606F0C7FE002010BD4020FCE72020F7
:10B7C000FAE70020F8E710B5836ADB7C0C4603F04B
:10B7D000FD01012901D0052B08D1012A08D1FFF76D
:10B7E000E5FC217806F0F8FE002010BD4020FCE7C3
:10B7F0002020FAE710B5836ADB7C03F0FD00012806
:10B8000001D0052B0FD1012A0FD10C782CB9FFF7ED
:10B81000CDFC06F0CDFE204610BDFFF7C7FC06F0BC
:10B82000B3FE0020F8E74020F6E72020F4E72DE9FA
:10B83000F043012A87B00D4643D90C78002C40D143
:10B84000497812293DD80523022013FB01039A42AF
:10B8500037D32E4627464FF004084FF482796B7891
:10B86000A34232DD9DF80830B1788DF80A7003F0FC
:10B87000FE036FF345038DF80830F3788DF805303B
:10B8800004EB84032B448DF804101A795B7942EAA7
:10B890000323ADF80630BDF8083068F38F13ADF818
:10B8A000083059B101AB04930723ADF80C90ADF803
:10B8B0001430FBF789FA03A9FFF7DCF901340536E8
:10B8C000CDE7222007B0BDE8F0830020FAE72DE99C
:10B8D000F04389B00E4601930978012303EB41033D
:10B8E0009A4227D3002534462F464FF482780DF133
:10B8F0000C093378AB4221DDA3788DF80D30019B24
:10B900006278ADF810301B0C8DF80C20ADF80E707D
:10B910008DF812305AB10723ADF81480CDF8189085
:10B92000ADF81C30FBF750FA05A9FFF7A3F9013574
:10B930000234DEE7222009B0BDE8F0830020FAE7F8
:10B94000F0B5022A87B00C461F4650D90B787BB958
:10B950004B786BB98B785BB9062A48D9B1F805509A
:10B96000AB1D934243DAC978022906D0152901D0CC
:10B9700041202FE01DB120202CE0042DFBD11D4BD8
:10B980005E5CFAF7ABFC3A46314600F01AFD60B354
:10B9900000218DF80B10E1780322022904F107033E
:10B9A0008DF80A2018D01529E2D104228DF8002044
:10B9B0000193ADF8085040F21513ADF80C300C238C
:10B9C000ADF81430CDF810D0FBF7FEF903A9FFF75E
:10B9D00051F9002007B0F0BD019305238DF8002038
:10B9E000ADF808508DF80A30E5E73020F2E7122074
:10B9F000F0E700BFE67F040037B50B8840F209127C
:10BA0000934205D040F2131293420DD003B030BDE3
:10BA10000B89032BFAD14B68B3F80120197803B0D6
:10BA2000BDE83040FFF730BC4C68E579B4F805302C
:10BA3000D4F801202178019534F8085FA4788DF8B6
:10BA40000240ADF80050FFF75DFCDFE7704710B52E
:10BA50002C21044619F034F8204610BD704710B56B
:10BA60003821044619F02CF8204610BD704710B557
:10BA7000B021044619F024F8204610BD704710B5D7
:10BA80005421044619F01CF8204610BD704710B52B
:10BA90000821044619F014F8204610BD704710B56F
:10BAA0004821044619F00CF8204610BD30B585B089
:10BAB00004AC037804F80E3D0546FBF79DF92246D9
:10BAC0001821012304F0ABFB2B788DF8033040F2F2
:10BAD0000B13ADF804300DF1030302930123ADF80D
