:0200000270008C
:1060000000FF0020F57307001D7407001F740700D0
:1060100021740700237407002574070000000000A6
:1060200000000000000000000000000079B8070038
:1060300029740700000000002B7407002D7407006E
:106040002F7407002F7407002F7407002F740700A8
:106050002F7407002F7407002F7407002F74070098
:106060002F7407002F7407002F7407002F74070088
:106070002F7407002F7407002F7407002F74070078
:10608000519407002F7407002F7407002F74070026
:106090002F7407002F74070079BA07002F740700C8
:1060A0002F7407002F7407002F7407002F74070048
:1060B0002F7407002F74070000000000000000008C
:1060C0002F7407002F7407002F7407002F74070028
:1060D000B19007002F7407002F7407000000000024
:1060E00000000000000000000000000000000000B0
:1060F00000000000000000000000000000000000A0
:10610000000000000000000000000000000000008F
:10611000000000000000000000000000000000007F
:10612000000000000000000000000000000000006F
:10613000000000000000000000000000000000005F
:10614000000000000000000000000000000000004F
:10615000000000000000000000000000000000003F
:10616000000000000000000000000000000000002F
:10617000000000000000000000000000000000001F
:10618000000000000000000000000000000000000F
:1061900000000000000000000000000000000000FF
:1061A00000000000000000000000000000000000EF
:1061B00000000000000000000000000000000000DF
:1061C00000000000000000000000000000000000CF
:1061D00000000000000000000000000000000000BF
:1061E00000000000000000000000000000000000AF
:1061F000000000000000000000000000000000009F
:1062000010B5054C237833B9044B13B10448AFF3F0
:1062100000800123237010BD4032002000000000E8
:1062200048D9070008B5034B1BB103490348AFF336
:10623000008008BD000000004432002048D907005B
:10624000154B002B08BF134B9D46A3F5803A002148
:106250008B460F461348144A121A06F0FBFC0F4BEC
:10626000002B00D098470E4B002B00D09847002001
:10627000002104000D000D48002802D00C48AFF3A7
:10628000008006F0A7FC2000290000F00FF906F0BE
:106290008DFC00BF0000080000FF0020000000008F
:1062A0000000000040320020545800200000000090
:1062B00000000000BFF34F8F0549064BCA6802F487
:1062C000E0621343CB60BFF34F8F00BFFDE700BF19
:1062D00000ED00E00400FA05704700001F2810B52B
:1062E000044604D905494FF4F37001F02BFC01205A
:1062F0004FF0A043A040C3F80C0510BD90CC0700A0
:106300001F2810B5044604D906494FF4F37001F074
:1063100019FC04F5E0744FF0A043032243F8242055
:1063200010BD00BF90CC070008B5FFF7C3FF08B54C
:10633000FFF7C0FF38B590F831309B06044601D511
:1063400000F08EFF2079FF2815D0FFF7D9FF94F8D1
:106350003130257913F0010F27D01F2D04D91549AD
:106360004FF4F37001F0EEFB012303FA05F54FF053
:10637000A043C3F808556079FF2804D0FFF7C0FF99
:106380006079FFF7ABFF207AFF2804D0FFF7B8FF52
:10639000207AFFF7A3FFE079FF280AD0FFF7B0FFCC
:1063A000E079BDE83840FFF799BF2846FFF796FF30
:1063B000E1E738BD90CC07004FF08043D3F81C359F
:1063C000422B17D003F01F021F2A09D14FF0804340
:1063D000B122C3F81C254FF08043D3F81C35704719
:1063E000C3F380124FF080410133C1F81C35002AFD
:1063F000ECD1F0E70122F5E700B589B000238DF874
:10640000113002A918230DF10702022000F0D6FE78
:106410001E4B197878B39DF8113023F0070343F031
:1064200004038DF811301A4B8DF808101B788DF885
:106430000930184B1B88ADF80A30174B1B788DF8C4
:106440000C30164B1B788DF80D30154B1B788DF8E2
:106450000E30144B1B788DF80F30134B0A221B782B
:106460008DF8072002A902208DF8103000F06CFE94
:1064700009B05DF804FB9DF808308B42D3D09DF83D
:10648000113023F0070343F00203CAE788D807005E
:1064900089D8070086D8070090D8070091D8070050
:1064A00092D8070093D8070084D8070010B5A8B089
:1064B000A0220021684606F0CDFB684600F070FC83
:1064C0006846FFF737FFFFF777FF002210464FF4CB
:1064D000805102F0E9FC024608B1FFF7EBFE0A48E2
:1064E000C0F5FC2102F0E0FC0028F6D1FFF784FFA4
:1064F000064802F0FFFB04460028EED102F0C2FC81
:10650000204628B010BD00BF00600700D962070018
:1065100040F6082383800E23C371224B836001233E
:1065200003731423C375204B83610F23037790F803
:10653000313003F0080363F00F0380F83130438EED
:1065400003F0FC0343F4A06343F001034386174BBD
:106550004363174BC364174B03654FF400724365E5
:106560006FF07C0342828265C0E91C3383674FF47D
:1065700048724FF4E163C0E91F234FF49663C0F8FB
:1065800084300D4BC0F88C300C4BC0F89030EC23AD
:1065900080F88830D0F89430C0F89830DD2380F847
:1065A0009C3070470D060504131211100A6882BE54
:1065B0005C77733C8FC2753C3333B33E9A99993EF6
:1065C00010B5FFF7A5FF90F831306FF3451380F851
:1065D000313090F8323023F00303FF2243F00203FE
:1065E000427180F8323069B10B7A012B0AD90F233E
:1065F000437190F83230027723F0030343F0010334
:1066000080F8323010BD00000823037180F8273075
:10661000292380F8283090F8313003F0400343F00C
:1066200011030F2280F83130438EC2710D22028196
:1066300003F0FC030122C27243F41063072243F00B
:106640000203027305228273438640F20322164B33
:10665000428243631622154BC275C364144A826199
:10666000002324228365A3F587730277036783677A
:1066700042F228324FF4E163C0E91F234FF416734E
:10668000C0F884300B4BC0F88C300B4BC0F8903006
:10669000EC2380F88830D0F89430C0F89830DD23AF
:1066A00080F89C30704700BFF931463E48507C3B33
:1066B000141820221A51BA3E1283A03E4FF60F73CF
:1066C00083801123C3714FF48973038107230373FC
:1066D00040F20463C3810523437440F202334382D2
:1066E0000B23437540F62923C38209230376142321
:1066F00003774FF4E163C0E9203390F8313003F0C1
:10670000080363F00E0380F83130438E03F0FC037E
:1067100043F4006343F003034386104B4363C363B6
:10672000036483640E4BC36443650E4BC0F88C3026
:106730000D4BC0F890300022EC23C27282650266D5
:106740000267C0E91E2280F88830D0F89430C0F883
:106750009830DD2380F89C30704700BF000080BE79
:106760000AD7233CCDCC4C3EEC51383E42F62D634B
:1067700083800D23C3710F2303810623C372042377
:10678000037340F20153C3810723437440F2032390
:1067900043820823437541F22963C38203F10853FE
:1067A00003F5001303F2EB1383611D4BC36141F248
:1067B000105303842F2380F822304FF4E163C0E9A3
:1067C000203390F8313003F0480363F04E0380F833
:1067D0003130438E03F0FC0343F4006343F00103C4
:1067E0004386104B4363C363036483640E4BC364EB
:1067F00043650023836503660367C0E91E330B4BC3
:10680000C0F88C300A4BC0F89030EC2380F8883008
:10681000D0F89430C0F89830DD2380F89C30704771
:1068200024262709000080BE0AD7233CCDCC4C3E4D
:10683000EC51383E082303710623C37140F207234D
:106840000381012303730323C3741423C375132328
:1068500003760A2380F82730092380F8283090F83F
:10686000313003F0400380F83130438E03F0FC03F5
:1068700043F4407343F002034386134B4363134BCB
:10688000C36440F2C973836540F2BC73036740F68A
:10689000AC5C4FF49663C0E91FC3C0F884300C4B66
:1068A000C0F88C300B4BC0F89030EC2380F8883067
:1068B000D0F8943003EB43039B08C0F89830DD23F5
:1068C00080F89C30704700BFCDCC4C3EE02D903B13
:1068D0005C8F423F85EBD13E082303710123037394
:1068E0000623C37140F2072303810323C3741423D7
:1068F000C375132303760A2380F82730092380F811
:10690000283090F8313003F0400380F83130438E66
:1069100003F0FC0343F481734386134B4363134B2F
:10692000C36440F2D373836540F2CD73036740F2D2
:10693000DC5C4FF49663C0E91FC3C0F884300C4B95
:10694000C0F88C300B4BC0F89030EC2380F88830C6
:10695000D0F8943003EB43039B08C0F89830DD2354
:1069600080F89C30704700BFCDCC4C3EBC74933B4C
:106970005C8F423F85EBD13E0823037101230373F3
:106980000623C37140F2072303814FF4407343820F
:106990001423C37513230376092380F827300A23B1
:1069A00080F8283090F8313003F0400343F01003B2
:1069B00080F83130438E03F0FC0343F48173438647
:1069C000134B4363134BC3646FF062038365AB3BAC
:1069D000036742F228324FF49663C0E91F234FF455
:1069E0001673C0F884300C4BC0F88C304FF07A53DB
:1069F000C0F89030EC2380F88830D0F8943003EB66
:106A000043039B08C0F89830DD2380F89C30704722
:106A1000A01A2F3E48507C3B3333333F0C22C271C7
:106A20000B2202810122C2720622027340F203226B
:106A30004282052202750922C2751B4A8261FF2328
:106A400029220371027780F82330184A184BC0E9D5
:106A5000092303F1457303F541330633C362154A35
:106A6000036B1A40144B134303634FF47A7383652B
:106A70000367836700214FF46163C0E91F13C0F807
:106A800084304FF08043C0F88C304FF07E53C0F814
:106A90009030D82380F88830D0F89430C0F89830FF
:106AA000DD2380F89C3070470A202F280818190D24
:106AB0000E11FF1300C0FF001826000A1923C3752A
:106AC0001A230376022380F83330EC2380F88830D1
:106AD000D0F89430C0F89830704700001423037148
:106AE00040F61333C3804FF486730381022303738C
:106AF0000823C3751D4B8361182303770D2380F88A
:106B000023301B4B43624FF612730385FF2380F83B
:106B10002A3090F8313023F03F0343F00F0380F820
:106B20003130012380F833304FF47A738365036783
:106B30004FF46163C0E920334FF08043C0F88C30DC
:106B40004FF07E53C0F89030D82380F88830D0F8CA
:106B5000943003EB43039B080022C0F89830DD23F8
:106B6000C274C26780F89C30704700BF061B1A19B8
:106B70000E0F10111023037140F60F33C3804FF432
:106B800086730381022303730823C3751C4B83613F
:106B9000FF23037780F82A3090F8313023F03F0349
:106BA00043F02F0380F83130012380F833304FF465
:106BB0007A73836503674FF46163C0E920334FF054
:106BC0008043C0F88C304FF07E53C0F89030D8230B
:106BD00080F88830D0F894300B2103EB43039B08F6
:106BE00080F823100749416200224FF60E71C0F869
:106BF0009830DD23C2740185C26780F89C307047ED
:106C0000061B1A2F0C18190D0823C37506230376CB
:106C100090F8313043F0020380F83130042380F8DB
:106C20003330D82380F88830D0F89430C0F89830CA
:106C30007047000000234FF0FF3270B54FF6FF742D
:106C4000C0E9003202724282C4821F4A04761F4C9D
:106C5000C367C0E9254290F8312080F8883002F0FF
:106C6000190280F83120428E80F89C3002F0FC023C
:106C700042F00202FF214286417500F1090400F151
:106C8000340200F10C060025E17004F8011B61716B
:106C900042F8045BA642956055611362D362936328
:106CA000F2D100F1190200F12301FF2302F8013BA8
:106CB0008A42FBD14FF0FF3280F82330C0E909222D
:106CC000C26280F8303070BD289A0100E0220200D4
:106CD00070B504460D460846FFF7ACFF23682B60ED
:106CE0002279013A092A19D8DFE802F005142A4866
:106CF0004E30183C2454282B03D3292B01D92B2B9D
:106D000005D02846FFF7EAFE0021084670BDFFF7D0
:106D100031FFF9E7A37A1BB1012B05D02421F4E759
:106D20002846FFF7D9FDEFE7637A002BF8D0FFF78D
:106D300023FEE9E7A17A0029F0D1FFF765FCE4E73B
:106D4000A17A0029EAD1FFF775FDDEE7A17A0029D3
:106D5000E4D1667A1EB92146FFF732FCD4E7FFF78B
:106D6000D7FBD2E7A17A0029D8D1637A012B02D1CF
:106D7000FFF7A4FCC9E7FFF7F9FCC6E7A37A012BEC
:106D8000CCD8FFF79BFEBFE7A17A0029C6D1FFF759
:106D90003BFFBAE7A47A002CC0D1FFF73FFEB3E770
:106DA00030B589B0054600F04FFA4FF0FF33CDE91A
:106DB0000533079340F2EF33984200F0B380B0F50B
:106DC0007C7F3BD2B0F57A7F7BD021D8642800F05D
:106DD000D78018D8A0F12803032B40F2D480049068
:106DE00008AB13E90F006C4684E80F000021204631
:106DF00000F0BAFA204600F09DFA29462046FFF737
:106E000067FF09B030BDC828E9D140F205138BE017
:106E100040F2EA33984271D05DD340F2EB339842AE
:106E200076D0B0F57B7FDAD140F20313ADF81430A1
:106E300001238DF816304FF4A06355E040F2DC5387
:106E400098427ED011D840F2F133984273D0B0F519
:106E50007C7F6DD940F2F23398426FD040F24C43C0
:106E60009842BCD14FF485735EE040F2DF53984204
:106E70006DD0B0F5BC6F14D240F2DD53984263D0B0
:106E800040F2DE539842AAD14FF481730122ADF84B
:106E9000143000238DF81620ADF818308DF81A2024
:106EA00027E063D040F2E153984298D140F2093391
:106EB000ADF8143003238DF816300023ADF81830E8
:106EC00015E040F20313ADF8143001238DF81630AD
:106ED0004FF4807308E040F20313ADF8143001233F
:106EE0008DF816304FF40073ADF8183000238DF88C
:106EF0001A30ADF81C308DF81E3070E740F20313E5
:106F0000ADF8143001238DF816304FF44073EBE7E1
:106F100040F20313ADF8143001238DF816304FF40E
:106F20008063E1E74FF48373ADF814300123C2E7C7
:106F30004FF48373C7E74FF48473C4E74FF484734B
:106F4000CBE74FF48173BEE74FF48173C5E74FF48D
:106F50008173ADF8143001238DF816304FF4807230
:106F60008DF81A30ADF818200023C2E74FF4817372
:106F7000ADF8143001238DF816304FF44072EFE76E
:106F80004FF4827382E701238DF8143027E7000065
:106F900000B591B040220021684605F05BFE00F08C
:106FA00053F9B0F57B7F6DD03FD864286CD022D8E0
:106FB00029286BD017D8404B4049282808BF1946CC
:106FC00006A801F06EFD08A83D4901F06AFD012305
:106FD00068468DF83C3000F083FB08B1FFF7A7F955
:106FE00011B05DF804FB2A2852D0364B33492B28C8
:106FF00008BF1946E4E740F2E93398424AD008D87E
:10700000C82849D0304B2D49B0F57A7F08BF1946C2
:10701000D6E740F2EA33984240D02C4B40F2EB32B4
:107020002649904208BF1946CAE740F24C439842AD
:1070300036D00FD8B0F57C7F34D003D840F2EF3291
:10704000234BEDE740F2F13398422DD040F2F2327B
:10705000204BE5E740F2DE53984227D007D840F2B4
:10706000DC53984224D040F2DD521B4BD8E740F26B
:10707000DF5398421ED0194B1049B0F5BC6F08BFC2
:1070800019469DE716499BE7164999E7164997E780
:10709000164995E7164993E7164991E716498FE790
:1070A00016498DE716498BE7164989E7164987E7A0
:1070B000164985E7164983E7F4CD07002CCD070074
:1070C0008AD807000FCE070064CD070088CD0700DF
:1070D000B8CD0700DCCD070018CE070058CD07005B
:1070E00094CD0700A0CD0700FDCD070006CE070018
:1070F00070CD0700ACCD07007CCD0700E8CD0700C0
:10710000C4CD0700D0CD070040CD070034CD070027
:107110004CCD070010B5421E441D41F2055312F834
:10712000011F01EB43110B4494429BB2F7D100F1D4
:107130000802203012F8011B01EB43110B4490426E
:107140009BB2F7D1184610BD2DE9F3470746164606
:10715000894669B38DF802004FF000080120052F21
:107160008DF80320ADF80000ADF804801DD8182A72
:1071700020D8114D7C0105EB040A08340822694629
:107180002C44504605F058FD32464946204605F04D
:1071900053FDC6F118024146A01905F05BFD5046AB
:1071A000FFF7B8FFAAF80600404602B0BDE8F08736
:1071B0000520FAE70220F8E700FF00202DE9F0475C
:1071C00091468A4631B3052826D81A4F4201BE1887
:1071D000BA5C012A22D1747814BBB578854221D1DA
:1071E00096F80380B8F1180F1ED898451ED86D0187
:1071F0007819FFF78FFFF388834219D1083542468B
:107200007919504605F018FDF37889F800302046CA
:10721000BDE8F0870524FAE70124F8E70724F6E73C
:107220000824F4E70424F2E70224F0E70324EEE75D
:107230000624ECE700FF002008B504F003FC80F012
:107240000100C0B208BD0000034B1B681868431C56
:1072500004BF024B18687047B8310020B0310020DD
:1072600008B5FFF7E9FF68B14FF01023D3F80C021F
:1072700010F0010005D004486FF0010101F08EFA12
:10728000002008BD2820FCE70C1200100A6882428A
:107290000B4603D00146184601F080BA7047000043
:1072A00010B5B8B0FFF7C8FF002838D000230DF1A3
:1072B00007008DF8073000F0D9FB02AA194B1A48D5
:1072C000114653F8044B42F8044B8342F9D1174B53
:1072D0001A681D925A681E929A681F92DB68209362
:1072E000134B0222C3F80425BFF36F8FBFF34F8FF8
:1072F0000122C3F81425D3F80024002AFBD01B2256
:10730000084801F061FA04221DA9084801F05CFA5E
:107310009DF8070000F0DAFB002038B010BD2820EF
:10732000FBE700BF141000108010001000120010C6
:1073300000E00140084B1B681B680360074B1B689B
:107340001B684360064B1B681B688360054B1B680A
:107350001B68C36000207047B8310020B4310020A2
:10736000BC310020C031002038B51E4D02680446F3
:107370002868006832EA000326D11B4A6368126855
:107380001268934320D1194AA36812681268934384
:107390001AD1174AE36812681268934314D1296816
:1073A0002068FFF773FF104B60681968FFF76EFFE6
:1073B0000E4BA0681968FFF769FF0D4BE06819686C
:1073C000FFF764FF002038BD39B1FFF735FF30B15A
:1073D000FFF766FF0028E2D0F5E72920F3E7282031
:1073E000F1E700BFB8310020B4310020BC310020EB
:1073F000C03100200649074A074B9B1A03DD043BB6
:10740000C858D050FBDC00F04DF8FEF719FF000023
:10741000ACD907007831002040320020FEE7FEE7BB
:10742000FEE7FEE7FEE7FEE7FEE7FEE7FEE7FEE734
:107430000C4B1B78062B10D10B4B1B681A070CD179
:107440000A4B186800F0F003302B08D000F0E00081
:10745000A0F1400358425841704700207047012076
:10746000704700BFE00F00F0E40F00F0E80F00F0FD
:10747000094B1B78062B0CD1084B1B681A0708D147
:10748000074B186800F0F000A0F130035842584153
:1074900070470020704700BFE00F00F0E40F00F0DD
:1074A000E80F00F008B5FFF7C3FF28B1604B614A51
:1074B0001B68C3F304231360FFF7DAFF10B15E4BC0
:1074C0005E4A1A60FFF7B4FF28B15D4B5D4A1B6846
:1074D000C3F342331360FFF7CBFF20B15A4AD3689E
:1074E00023F08073D360FFF7A3FF40B14FF08043D8
:1074F0000022C3F80C21C3F81021C3F83825FFF788
:10750000B7FF10B1514B03221A60FFF7B1FF40B132
:107510004F4B05221A6001229A6700229A603F228F
:107520005A604C4B1B78062B50D14B4B1B681907EC
:107530004CD14A4B1B6803F0F003502B46D14FF05F
:107540008052474BD2F80414C3F82015D2F808141F
:10755000C3F82415D2F80C14C3F82815D2F8101467
:10756000C3F82C15D2F81414C3F83015D2F8181437
:10757000C3F83415D2F81C14C3F84015D2F82014FF
:10758000C3F84415D2F82414C3F84815D2F82814C7
:10759000C3F84C15D2F82C14C3F85015D2F8301497
:1075A000C3F85415D2F83414C3F86015D2F838145F
:1075B000C3F86415D2F83C14C3F86815D2F8401427
:1075C000C3F86C15D2F84424C3F87025FFF730FFD8
:1075D00028B1244B244A1B6803F04F031360FFF7C4
:1075E00027FF48B14FF08043D3F80024D20744BFAF
:1075F0006FF00102C3F800241C4B1B68062B08D156
:107600001B4B1B68062B01BF1A4A136843F48063A7
:107610001360194AD2F8883043F47003C2F88830F6
:10762000BFF34F8FBFF36F8F144B154A1A6008BD1D
:10763000240300104035014074C007400DF0ADBA7E
:10764000440200103C050040F0ED00E0A0050040C1
:1076500010560040E00F00F0E40F00F0E80F00F0DB
:1076600000C0004058020010E40E0040300100103D
:10767000340100103C17004000ED00E0783100209C
:107680000090D003A8DF7047F0B5074689B01446D4
:107690001E460D4611B90846FEF749FE14B92046AC
:1076A000FEF745FE20220021684605F0D3FA9DF83A
:1076B0000D300E9AADF8007043F002038DF80D30D6
:1076C000064BADF8044069461888ADF806400295AF
:1076D0008DF8116001F0EEF909B0F0BD9432002090
:1076E00030B587B041F60A0304465C4AADF80C3069
:1076F000012003A98DF80E00FFF7C4FF05460028FE
:1077000049D12288002A49D1228952B1544B009391
:10771000E16894F83C3042F62420FFF7B5FF0028DA
:1077200047D1228A52B14F4B0093616994F83C30A3
:1077300042F62520FFF7A8FF00283AD1228B52B14C
:10774000494B0093E16994F83C3042F62720FFF75B
:107750009BFF00282DD1228C4AB1444B0093616AD3
:1077600094F83C3042F62620FFF78EFF08BB228DAE
:107770004AB13F4B0093E16A94F83C3042F628202E
:10778000FFF782FFA8B9236BABB9616B002938D131
:10779000A36B002B42D1284607B030BD354B009378
:1077A000616894F83C3042F62920FFF76DFF00280D
:1077B000AAD00546EFE71A688DF810201A68120A59
:1077C0008DF811205A888DF81220DA788DF8132060
:1077D0005A688DF814209B688DF815301A0A1B0C16
:1077E0008DF81730244B8DF816200093082294F85A
:1077F0003C3004A942F62320FFF746FF0028C4D0FE
:10780000D7E71E4B0A790093096894F83C3042F69A
:107810002A20FFF739FF0028BAD0CAE71A788DF876
:1078200010205A888DF81120120A8DF812209A889B
:107830008DF81320120A8DF81420DB888DF815308E
:107840001B0A8DF816300E4B0093072294F83C303B
:1078500004A942F65020FFF717FFAAE79432002050
:10786000743200208C320020643200205C32002010
:10787000963200206C3200209E320020843200209C
:107880007C3200204B1C30B5DB00044612F00300B4
:107890009BB20DD1074D2A601A44074B1A60074B63
:1078A0001870074B1870074B1C80074B198030BDB0
:1078B0000720FCE7AC320020A8320020A6320020CE
:1078C000B4320020B0320020B23200202DE9F3475C
:1078D0003E4E994633888B4207460D46904670D3FC
:1078E00000240DF107008DF8074000F0BFF8384B79
:1078F000384A93F800C01078C1B2374800888142F6
:1079000038BF01315FFA8CFC34BFC9B221468C45C7
:107910004CD0147892F800C00CF0FF01BCF1000FBD
:1079200041D1C1B2B9F1000F0ED093F800E092F846
:1079300000C0E64508D01B788B4205D0274B1B685A
:1079400053F83130984534D01378DBB2984286BF73
:107950000133DBB2002313709DF8070000F0B6F886
:107960004FF6FE739C421CD04FF6FF739C422AD008
:10797000DFF868A0DAF800304FEAC40903EB090227
:1079800043F83480C7B1BDB1154B30881B682A4617
:1079900004FB0030394605F04FF9DAF800304B446B
:1079A0009D8000200AE00139C9B2BBE74FF6FF74A1
:1079B000D2E74FF6FE74CFE70020908002B0BDE81A
:1079C000F0870920FAE70420F8E700BFB032002072
:1079D000B4320020A6320020B2320020AC320020A7
:1079E000A83200200023FFF771BF0000F8B5124C49
:1079F000124D264622782B789A4200D1F8BD237882
:107A00000F48104A078812680F48DBB219B202EB20
:107A1000C10C006852F83120BCF8041003FB0700C9
:107A200090470A4A23781288DBB29A4286BF013314
:107A3000DBB200233370DDE7B4320020A632002031
:107A4000B0320020AC320020A8320020B232002038
:107A5000EFF30583C3F308032BB9EFF31480C0439E
:107A600000F00100704701207047000070B5044627
:107A7000FFF7EEFF012803D01049432000F062F821
:107A8000EFF3108672B60E4A9068012398B993609E
:107A90000C4B0D4DD3F8801029401160C3F8805075
:107AA000D3F8841051604FF0FF32C3F88420207067
:107AB00006B962B670BD2370FAE700BF24CE070096
:107AC000C854002000E100E0FC06FFBD10B50446EC
:107AD000FFF7BEFF012803D00949512000F032F81A
:107AE000084B9A685AB154B9EFF3108172B6064A3E
:107AF00018681060586850609C6001B962B610BD8B
:107B000024CE0700C854002000E100E030B53AB1AF
:107B10001368DB430A4D0144814204D1D84330BD90
:107B20004FF0FF33F6E710F8012B5340082213F013
:107B3000010418BF2C46013A84EA5303F7D1EBE75E
:107B40002083B8ED07B5ADF8000001916A46002129
:107B500044F20200FEF7E8FB03B05DF804FB10B549
:107B600061B1B2FBF3F403FB1424A4B244B9C0E93D
:107B7000001484608281C381204610BD0E20FCE782
:107B80000920FAE782B050E8022FC188B2EB324FE9
:107B90004FF0000317BF92B241EA014142EA0141AE
:107BA00004E04268B2EB324F08BF012340E8021202
:107BB000002AE8D18DF807309DF80730002B0CBF64
:107BC0001120002002B0704737B550E8013F9DB248
:107BD000C48925448489A54228BF2D1B0489A54258
:107BE00002BFBFF32F8F002207E0C5EA030540E87C
:107BF0000154002CE9D14FF001028DF803200193CC
:107C0000019B9DF803200B6002F0FF0322B10B885B
:107C10000068184403B030BD1846FBE70A884B885B
:107C20009A4209D150E8012FC2EA024240E80123FA
:107C3000002BF7D1012070470020704737B550E87E
:107C4000023F1FFAA3F5C488A54202BFBFF32F8FDE
:107C500000220DE0C48925448489A54228BF2D1B3C
:107C6000C3EA054540E80254002CE8D14FF0010278
:107C70008DF803200193019B9DF803200B6002F017
:107C8000FF0322B14B880068184403B030BD18468A
:107C9000FBE70A884B889A4209D150E8022FC2EAD2
:107CA000224240E80223002BF7D101207047002038
:107CB000704750E8002F42EA010340E8003C9CF086
:107CC000000FF6D11046704750E8003F03EA01026A
:107CD00040E8002C9CF0000FF6D1104670470121BF
:107CE000FFF7E7BF0021FFF7EFBF000010B5044624
:107CF000002834D003681BB91A49FF20FFF722FF80
:107D0000636823B917494FF48070FFF71BFFA3681E
:107D100023B9144940F20110FFF714FFE36823B9B7
:107D200010494FF48170FFF70DFF238A23B90D49E5
:107D300040F20310FFF706FFD4E9012321689B1AE4
:107D4000DBB20A60013BDBB2FF2B226802D10020CC
:107D5000107110BD1168481C10600B70F2E70E2006
:107D6000F7E700BF9ACE070037B5054620B914499A
:107D70004FF49270FFF7E6FE00240DF107008DF836
:107D80000740FFF773FE2A68696813688B4210D9B1
:107D9000591E116013F8014C2A8AEB6802FB043467
:107DA0002A68AB6811685B1A1179DBB2994238BF57
:107DB00013719DF80700FFF789FE204603B030BD20
:107DC0009ACE070037B50C46054620B9104940F257
:107DD0004710FFF7B7FE24B90D494FF4A470FFF721
:107DE000B1FE00230DF107008DF80730FFF73EFECE
:107DF0002A681368591C1160EA68A41A2A8AB4FB1D
:107E0000F2F41C709DF80700FFF760FE03B030BD70
:107E10009ACE070070B50D461646044618B90849B3
:107E20005520FFF78FFE1DB905495620FFF78AFE42
:107E300025602B6831462046BDE87040184700BFDA
:107E40000BCF07002DE9F041DDF818800E461746EC
:107E50001D46044618B922498820FFF773FE1FB952
:107E60001F498920FFF76EFE23681BB91C498A2031
:107E7000FFF768FE45BB1A498B20FFF763FEB20788
:107E800003D017499120FFF75DFEBB0703D01449CB
:107E90009220FFF757FEE3689E4204D3731E2269C7
:107EA0002B44934203D90E499320FFF74BFE2368DE
:107EB000CDF81880D3F80CE03A462B4631462046E0
:107EC000F446BDE8F041604763685A68B5FBF2F3D9
:107ED00002FB1353002BD2D001498E20CDE700BF07
:107EE0000BCF07002DE9F0410D4616461F4604460C
:107EF00018B919499E20FFF725FE23681BB91649BA
:107F00009F20FFF71FFE1EB91349A020FFF71AFE9E
:107F100063681B68013B2B4203D00F49A320FFF786
:107F200011FEE3689D4207D363681B686A1E03FB6A
:107F300006232269934203D90749A820FFF702FECE
:107F40002368D3F810E032463B4629462046F446E3
:107F5000BDE8F041604700BF0BCF070070B508B126
:107F60000368ABB90C4D0D4C0026641B1423B4FB05
:107F7000F3F4B44201D1002009E02B6813B90136B3
:107F80001435F6E7DB69284698470028F7D070BD1E
:107F9000DB69BDE8704018472C32002040320020D9
:107FA000014B43600020704780CF070008467047B0
:107FB00000207047024B1868003018BF012070473E
:107FC000B832002008B50248FFF78CFE002008BD3B
:107FD000B832002008B510461A4604F02DFE0020E5
:107FE00008BD00002DE9F043814687B014480F46D4
:107FF00016469846FFF773FE0446F0B90546AE42B2
:1080000015D10F48FFF76EFED9F808305BB1022298
:108010008DF800200022CDE90127CDE90326CDF817
:10802000148068469847204607B0BDE8F08307EB08
:10803000053000F09BFB0135E1E71124F3E700BFB9
:10804000B83200202DE9F041804686B011480F4635
:1080500016461D46FFF743FE0446C8B9AA08314636
:10806000384600F0B1FB0B48FFF73CFED8F808306B
:1080700053B101228DF800200C9A0592CDE90147F9
:10808000CDE9036568469847204606B0BDE8F08113
:108090001124F9E7B832002029DF704728DF704744
:1080A00070B50568AB6886B004460E4673B11422FD
:1080B0000021684604F0CEFDA3680593237901965C
:1080C00033B1012B0ED0AB686846984706B070BD3F
:1080D00001238DF8003023690293E36803936369F9
:1080E0000493F0E702238DF80030E3681B0302934A
:1080F000F5E708467047002070470000024B187AE9
:10810000003018BF01207047A8340020034B187AB4
:108110000122B0FA80F05A7440097047A834002058
:1081200008B510461A4604F087FD002008BD00007F
:1081300008B514220021044804F08CFD0348FFF721
:1081400021FD002008BD00BFA83400209834002085
:1081500010B5094C094B43602046FFF7C0FD48B9F4
:1081600003F070FC1C2320744FF4EE7204490548A0
:10817000FFF7F5FC002010BDA8340020ACCF0700AD
:10818000BC3200209834002070B5234C234E237A53
:1081900025463BB922492348FFF750FD306008B916
:1081A000606070BD022334682B72237973B1012B98
:1081B00022D020460321FFF773FF00232B726B6050
:1081C00017491848BDE87040FFF763BDD4E905239F
:1081D000D21A142A28BF1422D4E903109208012AC3
:1081E00038BF012219441844FFF756FF50B1112837
:1081F000DFD101232B72D4E7D4E903031844FFF73E
:108200004DFFF3E72B7C002BCBD10146BDE870403E
:10821000022000F009B800BFA8340020C0340020BC
:10822000BC3400209834002038B5831E012B43D87D
:10823000224C237A002B3FD0022B09D103282ED0C9
:108240001F4B00221B68E2601A793AB1012A20D044
:10825000637C6BBBBDE83840FFF796BFD3E90512DE
:108260008D1A142D94BF521914329A619142EFD194
:1082700002284FF0000308BF19462372104B18BFA5
:108280000D211868FFF70CFF0E490F48FFF701FD9D
:10829000DEE71A6901321A615B699A42E7E7E3682F
:1082A0000133082B01D8E360D2E70023E360DFE766
:1082B000BDE8384003F0B6BB38BD00BFA83400208D
:1082C000C0340020BC3400209834002000F0FD03AE
:1082D000012B08D1044B00225A74421E50425041D7
:1082E0001874FFF751BF7047A834002010B5064C32
:1082F000201DFFF7F4FC28B9637C1BB9BDE81040D2
:10830000FFF742BF10BD00BFA83400202DE9F341A4
:1083100080460D460F4801A916461F46FFF754FC3C
:108320000446A8B11C22002104F094FC2D0B01236B
:10833000237101A9C4F80080A760E5606661054863
:10834000FFF76CFCFFF7D2FF002002B0BDE8F08120
:108350000420FAE7983400202DE9F7438146884647
:10836000104801A917461E46FFF72EFC0446B0B17F
:108370001C22002104F06EFC00250A9BA36001A9C9
:108380002571C4F80090C4E9037866610548FFF7D9
:1083900045FCFFF7ABFF284603B0BDE8F08304209F
:1083A000FAE700BF9834002038B50D46044618B9E6
:1083B00008495020FFF7C6FB1DB906495120FFF7B9
:1083C000C1FB25602B6863606A68934204BF002389
:1083D000636038BDD8CF070010B5044618B90B4903
:1083E0006320FFF7AFFB23681BB908496420FFF740
:1083F000A9FB636843B1226891680B4463605268CB
:10840000934204BF0023636010BD00BFD8CF0700B4
:108410002DE9F04FC9B008AA01F1400514464B7888
:108420000E781B0443EA0663CE7833438E7804311A
:1084300043EA06238D4244F8043BF0D11024916BAB
:1084400016464FEAF14383EA714383EA9123716A46
:10845000366852F8045F31440B444FEAB54181EA73
:10846000F51181EAD50101340B44402CD363E6D1E8
:10847000D0E914E30093836D0193C36D0293036EFF
:108480000393436E0493836E0593C36E0693DDE9F5
:10849000057BDDE9031CDDE901592B4B009E0793A9
:1084A00074464FF00008079B53F8042B07934FEADC
:1084B000F12383EAB11383EA716A08AB53F82830D9
:1084C0001A440AEB020327EA010A01EA0C028AEACB
:1084D00002021A444FEA743A86EA05035A448AEAC9
:1084E000B40A06EA050B234083EA0B038AEAB45A6E
:1084F00008F101089A44B8F1400F02EB0903BB46AA
:108500005244A94619D172440265009A2244426538
:10851000019A32448265029A2A44C265039A1A4437
:10852000049B02660B444366059B63448366069B7B
:108530003B44C36649B0BDE8F08F674635468C467C
:10854000264619461446AEE764D0070030B5E0B1C0
:108550000F4A104900240025C0E91245C0E9141251
:108560000D4C0E4A0E4DC0E916420E4AC0E9185293
:108570000D4A826602F17452A2F523020023A2F68C
:1085800092420364C266184630BD0E20FCE700BF6D
:1085900085AE67BB67E6096A72F36E3C3AF54FA594
:1085A0007F520E518C68059BABD9831FF8B50446EA
:1085B000F0B10AB90020F8BDD1B10D468E180027E0
:1085C000B542F7D0236C15F8012BE2540133402B50
:1085D0002364F5D121462046FFF71AFFD4E9123172
:1085E00013F5007341F10001C4E912312764E7E794
:1085F0000E20E0E770B50D4616460446002877D0F9
:10860000002975D0026C8021372A02F101038154C0
:108610004FF0000242D8382B3BD1D4E91223206C12
:108620000821E1FB0023104612BAE2631A0A194638
:1086300084F83B3084F83A201A0C1B0EC4E912016E
:1086400084F83920214684F838302046FFF7E0FED0
:10865000691E76B30023E26EDA4001F8012FA26EA4
:10866000DA400A71626EDA400A72226EDA400A73E8
:10867000E26DDA400A74A26DDA400A75626DDA4082
:108680000A76226DDA400833202B0A77E3D10020E6
:1086900070BDE2540133BEE7E25401333F2BFBD9F6
:1086A00021462046FFF7B4FE3822002104F0D2FA1A
:1086B000B3E71823226DDA4001F8012F626DDA402A
:1086C0000A71A26DDA400A72E26DDA400A73226E14
:1086D000DA400A74626EDA400A75A26EDA400A76EF
:1086E000E26EDA40083B13F1080F0A77E2D1CEE7D9
:1086F0000E20CDE743689B68184708B543680830EB
:108700005A7900F09BF9002008BD2DE9F0430D4691
:108710009BB0084699469046FFF7ECFF6E68747967
:108720004C4528BF4C4607462246414602A800F069
:1087300069F9727922990AA800F080F900970AABCA
:10874000224602A905F1080004F0C8F8002848F202
:10875000425018BF00201BB0BDE8F083024AD2F897
:108760000034002BFBD0704700E001400A4908B5F7
:108770000223C1F80435BFF36F8FBFF34F8FC1F8E9
:108780000805FFF7EBFF0023C1F80435BFF36F8F37
:10879000BFF34F8F08BD00BF00E0014010B5094C8A
:1087A0000123C4F80435BFF36F8FBFF34F8F01600F
:1087B000FFF7D4FF0023C4F80435BFF36F8FBFF376
:1087C0004F8F10BD00E001400E4B10B50124C3F8DF
:1087D0000445BFF36F8FBFF34F8F01EB8204401A44
:1087E000A14208D1074B0022C3F80425BFF36F8FC5
:1087F000BFF34F8F10BD431851F8042B1A60FFF7D9
:10880000ADFFEDE700E0014028B139B10023C1E937
:1088100000301846704748F21050704748F2135025
:10882000704730B1036848F240508B4208BF0020C7
:10883000704748F21050704728B148F211509142E9
:1088400008BF0020704748F21050704770B50646C8
:108850000C461D46FFF7D8FF50B9B3794AB1AB4279
:108860000AD111462046FFF748FF08B9044B2360A0
:1088700070BD48F21050FBE748F21150F8E700BF16
:108880007052464D2DE9F0470C4607460F492046E9
:1088900015469846DDE90869FFF7C3FF98B9636894
:1088A0005A79494652003046FFF7C6FF58B945B1DC
:1088B000089643462A4621463846BDE8F047FFF76A
:1088C00024BF48F21050BDE8F08700BF7052464DFB
:1088D00010B5044638B149B141600B68984708B9F2
:1088E000044B236010BD48F20150FBE748F21050E2
:1088F000F8E700BF6E524648F0B4134648B1076827
:10890000094EB7420AD161B12AB14368F0BC5B6835
:10891000184748F201531846F0BC704748F202531A
:10892000F9E748F21053F6E76E524648F0B460B1EA
:1089300007680C4EB7420CD171B143681568DC680A
:10894000A5420CD39B68F0BC184748F20150F0BC1C
:10895000704748F20250FAE748F21350F7E748F23E
:108960001450F4E76E5246482DE9F041044617468C
:108970009846DDE90656FFF7ABFF60B94246394637
:108980002046FFF7B9FF30B9324629462046BDE8F8
:10899000F041FFF7CBBFBDE8F0810000F8B50A4F0A
:1089A0000A4C0B4DE41B0121E40829700026A64265
:1089B00003D102232B700020F8BD57F836309847BA
:1089C0000028F9D10136F2E74CD907004CD907004D
:1089D000C434002038B50D46044618B90849332080
:1089E000FFF7B0F8691E21442046814200D238BD0D
:1089F00003780A7800F8012B01F80139F5E700BF88
:108A000070D1070070B50D461446064618B90A49DC
:108A10004520FFF797F81DB907494620FFF792F860
:108A2000621E3244013DB24200D270BD15F8013FD2
:108A300002F80139F7E700BF70D1070070B516469C
:108A400004460D46FFF7DEFF3246A919A019BDE81E
:108A50007040FFF7D7BF38B50D460446FFF7BAFFA1
:108A600029466019BDE83840FFF7B4BFAADF704758
:108A7000002301380B70042806D8DFE800F0030655
:108A8000080A0C0011230B7070472123FBE73123E8
:108A9000F9E71223F7E72223F5E7007800F0010059
:108AA000704738B5044608460D4604F0DBF86560AB
:108AB000208038BDF0B58B7891B0002B0C4608BFF4
:108AC00001238DF80E3005460B88ADF80C300021DF
:108AD00016466846032204F0BDF86946607CFFF73D
:108AE000C7FF0DF10101A07CFFF7C2FF9DF8023026
:108AF000E27B62F3C303227C62F30413227B62F302
:108B00000003227D002A14BF0222012262F34203E5
:108B100000211C2209A88DF8023004F09BF8637B29
:108B200013F0300F15D002AF03220021384604F0B5
:108B300091F80DF10901E07CFFF79AFF11238DF800
:108B400008309DF80A300E97012262F342038DF837
:108B50000A30637B8DF824301422A37B8DF82530F6
:108B6000002104A804F076F803AB0493A388ADF8C1
:108B70001C30A368CDF814D01BB1E288ADF81820E2
:108B80000893A369002B32D001AF0322002138469D
:108B900004F060F8A3691A88ADF82C205A88ADF863
:108BA0002E205A680D97187B0A923946FFF760FF0E
:108BB000A3690DF10501587BFFF75AFFA2699DF8E3
:108BC0000630917A61F3C3038DF80630D17A61F3F0
:108BD00004138DF80630117A927B002A61F30003AA
:108BE00014BF0222012262F342038DF80630E369CA
:108BF00003B10C93334604AA09A92846FFF736FFB0
:108C000011B0F0BD41DF7047014B01221A7070476F
:108C1000E8380020BFF34F8F0549064BCA6802F4BD
:108C2000E0621343CB60BFF34F8F00BFFDE700BF8F
:108C300000ED00E00400FA05024B034800221A7020
:108C400001F0A6BFE8380020158C0700C31E10B540
:108C50000446042B09D8DFE803F00303080F0F00D4
:108C600009494FF4701000F081FA084B1B6853B1AA
:108C70002046BDE810401847054B064800221A70F0
:108C800001F086FFF1E710BD398C0700EC380020B9
:108C9000E8380020158C07000020704700B589B027
:108CA00018230DF1070202A90220FEF787FAC8B9BE
:108CB0000E4B9DF808201B789A4213D10C4B9DF85F
:108CC00009201B789A420DD19DF807200A2A09D164
:108CD0009DF8113002A943F0010302208DF81130F4
:108CE000FEF732FA09B05DF804FB00BF88D8070030
:108CF00089D8070038B5564B1860002001F05EFF98
:108D0000044648B900F024FB012800F0968041B2E7
:108D100021B1022800F09980032038BD4FF0804334
:108D2000D3F8004414F4803435D04FF48032C3F8C3
:108D300000240C46474D2B6A012B3FD04FF4701492
:108D400000F092FB444A20211820FEF79BFD08B159
:108D5000FDF7EDFA414B1A6802F0F802B02A06D18D
:108D60001A68D20742BF1A6802F04E021A60FFF773
:108D700093FF0028D0D12046394900F0F7F939484F
:108D800001F082F80028C7D100F094FBFEF72EFE18
:108D9000FFF738FFF8E7D3F8202502F0F802A82AF9
:108DA0000AD1D3F82025D00706D5D3F8202502F024
:108DB0005602C3F82025BDE70124BBE743F20403B4
:108DC0001A68294B9A4209D002F00EF8AA690146A6
:108DD00094B1264802F024FB90B9AFE76A6B1CB946
:108DE00095F86032012BEFD04FF48051204802F00B
:108DF00017FB0028E8D1A1E795F8A132012BE8D1B3
:108E0000164A136803F0F803B02B02D11368D90790
:108E100094D401F095FF00287FF47EAF154C2070AC
:108E2000154801F0B5FE237823B9144940F2DD104E
:108E3000FEF788FE00F026F86EE7FFF72FFF0D4BD8
:108E40000F481C7001F0A4FE66E74FF4A02477E7FA
:108E5000EC380020D4540020C83400201C05004009
:108E6000398C07004D8C0700DBE5B15175570020A8
:108E700034570020E8380020098C0700E8D10700AB
:108E8000158C070008B5074B4FF0FF32C3F8802060
:108E9000C3F8802101F042FC4FF48050BDE8084047
:108EA00000F02EB800E100E00346C1F30B0070B5FE
:108EB00020BBB3F5FE2F21D81B0B013903EB113179
:108EC00001264FF08044994200D270BD03F01F028A
:108ED0005D0906FA02F2032D05D8DFE805F0020667
:108EE000090CC4F800260133EDE7C4F80426FAE7BC
:108EF000C4F81026F7E7C4F81426F4E70720E4E7DF
:108F000030B50546204889B00022C0F5FE21FFF7A4
:108F1000CBFF01F069FF1D4B996900220144104607
:108F2000FFF7C2FFEFF305820023D5E9004183F389
:108F3000148883F3108883F3118883F31388C2F3B2
:108F400008023AB984F308884FF0FF339E46084779
:108F500009B030BD4FF0FF35203CCDE90033CDE9FD
:108F600002330493CDE905514FF080732022694606
:108F70002046079303F060FE84F30888AE466FF046
:108F800006031847E4E700BF00600700D454002040
:108F9000B1F1807F73B506460C4639D31F498F2047
:108FA000FEF7D0FD6FF07F431D4AA34228BF234642
:108FB000D2F80455E41A1D44631E942B96BF9634D0
:108FC00074607460347B25F07F4598BF963D032C18
:108FD00003D912497720FEF7B5FD114E04F5A873A9
:108FE0004FF4F86046F823500E4B43F001039847C6
:108FF0000D4BA200134400221A601B680193019BD1
:109000004FF4803303FA04F4C6F8044302B070BD91
:109010009529C7D801499020C2E700BF46D2070072
:109020000040024040D207004041024018490A78FF
:1090300084B0002A29D14FF08043A020D3F81834FF
:10904000DB035EBF134B01221A60134A0023136037
:1090500012680392039A114A136012680292029AEC
:109060000F4A136012680192019A0E4A82F8240393
:10907000102050600C4A0D48C2F8083501230360E7
:1090800002201360C2F804030B7004B0704700BFE5
:10909000F4380020080000400041024040410240F6
:1090A0004441024000E100E000400240084002402C
:1090B00013B5284B1A6842B127490A6801320A6081
:1090C00000221A601B680093009B244B1A68A2B10F
:1090D00000221A6022481B68027B0193019B4FF417
:1090E000803393401F4AC2F808334168044601BBED
:1090F0008168D9B9236803B198471B4B1A6832B30A
:1091000000221A6016481B68027F0193019B4FF4EE
:1091100080339340134AC2F808334169044659B179
:10912000103002B0BDE81040FFF732BFFFF730FF4C
:10913000E0E7FFF72DFFE0E7816911B11030FFF79D
:1091400027FF23691BB102B0BDE81040184702B0E9
:1091500010BD00BF04410240F038002040410240F1
:109160007C310020004002404441024070B50B4B6E
:109170001C68227B4FF480339340094A0E46C2F8A4
:109180000833054640B1FFF751FF266029462046C7
:10919000BDE87040FFF7FCBE70BD00BF9C310020F1
:1091A0000040024070B5074B1C680E46A0600546A3
:1091B000FFF73CFF266029462046BDE87040FFF7D8
:1091C000E7BE00BFA0310020014B01221A7070479A
:1091D000F538002070B5154DEA6A6E6AAC6CAC2AA1
:1091E00013D16B6B1C44F61AEB6AAC2B13D03246CE
:1091F00021460F4803F012FDA8B100F05BF931469B
:109200002046BDE8704001F06BBA002CECD101F0B3
:1092100001FE0446E8E73246A4F58041044803F025
:10922000FDFC0028E3D1002070BD00BFD454002015
:109230000060070081422DE9F74F04468946174632
:1092400004D10023184603B0BDE8F08F03D22849AB
:109250004F20FEF777FCC4F30B031BB124495120C8
:10926000FEF770FCA9EB0403B3F5805F4FEA1338F7
:1092700003D21F495420FEF765FC00F0F5F8B8F161
:10928000080F28BF4FF0080807F6FF754FEA0833AC
:10929000DFF860B001932D0B002FD2D0A8452CBF72
:1092A000AA46C2464FF00002514620462CBF3E4619
:1092B000019E01F0FDF903460028C3D1F21C22F003
:1092C00003024946204601F0E5F903460028B9D1DA
:1092D000DBF83030BF1B3444B1441E44CBF830605F
:1092E00001F05CFCA5EB0A0503460028D4D0A9E7F1
:1092F000CAD20700D454002010B501F09BFD134AD8
:1093000042F20403916CCC5803F1A34303F54713D5
:1093100003F2D7539C4214D1D2E90C32934213D0BA
:10932000D21A02F6FF7222F47F621944184422F026
:109330000F02FFF77FFF034620B9BDE8104001F0A0
:109340002DBC0323184610BD0023FBE7D454002096
:10935000F8B52C4CE36AA52B48D003D8012B0CD0D0
:109360000020F8BDAA2B45D0AC2BF9D1FFF7C4FFE4
:1093700000283DD1FFF72EFF3AE0A56C666A01F0A8
:1093800033FD226B03469D4205EB0201104414BFDE
:10939000B21A0022FFF74EFF054608B100250CE087
:1093A00001F022FD2A463146FEF7B0FBA36A98423F
:1093B000F4D10123C4E90703A6611348134E01F059
:1093C00007FD00231248337001F0E8FB33780746AD
:1093D00023B910494FF4D170FEF7B4FB6FB975B1E2
:1093E000236A012B14BF01200220BAE7FFF784FF94
:1093F0000125E2E7FFF7EEFED0E70320B1E7012009
:10940000AFE700BFD4540020F8540020F538002006
:10941000C9910700CAD207000A4AD2F800347BB1CA
:1094200009480023D2F80815D940C90748BF03F5F9
:10943000C07103F1010348BF42F82100072BF1D1AD
:10944000704700BF000001403546526EFFF7E4BF91
:10945000044B002282B01A601B680193019B02B08A
:10946000704700BF0001014038B50E4C2278BAB9F0
:109470000D4BD3F800248AB1D3F80455FFF7CCFF85
:1094800040F61650A842B8BF28460849A0F54860E3
:10949000FFF788FE064B4FF480321A6001232370D9
:1094A00038BD00BFF6380020000001404D94070091
:1094B00000E100E0034BD3F800340BB1FFF7ACBF81
:1094C000704700BF000001400023C0E90232C0E93C
:1094D00000118B881A440261B1F906301A444261C6
:1094E0000888003018BF0120704710B54268118805
:1094F0000346002939D002F110014160148A2CB9C9
:10950000C2680168FFF7E0FF204610BD907811891E
:1095100000F03004302C1BD1947C04F03004302C4B
:109520001DD190881969091A19610021907810F0ED
:10953000300F02BF986801309860908A084419691A
:1095400001441961B2F91620114459610120DCE788
:1095500000F0F004202C02D150894143E6E700F0EE
:10956000C000802808BF0421E0E70846CDE770B5B9
:10957000456804460E4663681A88B24204D19B7857
:1095800003F00F03082B07D12046FFF7AEFF6368F7
:10959000AB42F0D1002070BD0120FCE743681A44C3
:1095A000426011B101399A4201D10120704713F88C
:1095B000010B01F8010FF6E72DE9F341836804463A
:1095C000884623B90027384602B0BDE8F081036819
:1095D00001220DF10701984707460028F2D0A36841
:1095E0009DF80750013B2A06A3601AD505F07F05B8
:1095F0000726A368002BE5D0236801220DF107019F
:10960000204698470028DDD0A3689DF80720013B3D
:10961000A36002F07F03B3401D43130606F1070663
:1096200002D4C8F80050CEE7232EE2D1CAE770B5C5
:109630004268927802F00F01082986B003461FD1D4
:1096400003691C6800260CB906B070BD2368267338
:109650009D68626829466846FFF736FF6368049391
:1096600004F10C030593AB7803F0C003802B08BF13
:10967000231D684608BF0493FFF7D9FFA468E2E7FB
:1096800012F0C00120D102F0300010280ED15A692A
:1096900011705A6818699378D46803F00F03072B88
:1096A00009D10146204600F017F8CDE79006F0D525
:1096B0005B691980C8E71289214614B103F0BCFA2E
:1096C000C2E703F0C7FABFE78029BDD100690021D6
:1096D00092060160B8D5EBE77FB50A4601466846B9
:1096E000FFF7F2FE30B16846FFF7A1FF6846FFF7CB
:1096F000FCFEF7E707B05DF804FB000030B5044658
:1097000085B01546A9B90268114B9A4211D0102DA7
:1097100006D82A4669462046FFF7F0FF05B030BD5F
:10972000102269462046FFF7E9FF0028F6D0103DD9
:10973000EDE7A368AB4201D20020EFE723682A4699
:10974000204698470028F7D0A3685D1BA560E5E791
:109750009D950700F7B50E4601A907461546FFF788
:109760002BFFA8B1019A0123D3184FF0000404D2B3
:10977000B17801F0C001802901D1204608E031898B
:109780009942FAD329463846FFF7B8FF019BEC54BB
:1097900003B0F0BD73B50E4601A905461446FFF7A8
:1097A0000BFFB8B1019BB3F5803F07D202229A1894
:1097B00004D2B17801F0C001802901D1002009E074
:1097C00031899142FAD321461A4621F8023B2846B4
:1097D000FFF794FF02B070BD10B5034C8260002209
:1097E000C0E90041C26010BD9D9507002DE9F34717
:1097F0000025064688462F462C46B36843B3336897
:1098000001220DF107013046984708B3B3689DF86F
:1098100007C0013B0CF07F025FFA82F9C4F120011E
:10982000B360A4F1200309FA03F329FA01F109FA5C
:1098300004F20B431CF0800F45EA020547EA0307D8
:1098400004F1070402D1C8E9005702E0462CD4D144
:10985000002002B0BDE8F08773B50C466946164695
:10986000FFF7C4FF68B12389082B0CD1DDE900455F
:10987000C6E90045DDE90023AB4206BFA242012054
:10988000002002B070BD042B04D1009B33601C4645
:109890000025EFE7022B4FF0000004D1009B33803E
:1098A0009CB20546E6E7012BEBD1009B337003F039
:1098B000FF04F6E737B50D4669461446FFF796FFF5
:1098C00030B12A89082ADDE9003103D1C4E9003129
:1098D00003B030BD042A18464FEAE37108D1236073
:1098E0001A460B468B4206BF824201200020EFE75A
:1098F000022A04D11BB223801AB2D317F2E7012A3D
:1099000003D15BB223705AB2F7E70020E0E7F7B566
:109910000C46002119702170116001A907461546F7
:109920001E46FFF749FE30B9BB6813B901233370F7
:10993000002003B0F0BD01990029F7D0CB0801F059
:1099400007012B602170F4E713B5044605291FD8E1
:10995000DFE801F0030F151E1E1C012201A920469D
:10996000FFF7CCFE18B19DF90430002BF5DB02B0F7
:1099700010BD082200212046FFF7C0FEF7E701A92D
:10998000FFF71AFE0028F2D0019AF3E70422F1E76C
:109990000020ECE773B50D4601A90446FFF70CFE65
:1099A000064618B90026304602B070BD94E80F0094
:1099B00085E80F0001998A42F4D3A960A3685B1A75
:1099C000A360F0E72DE9F0435568AB7813F0C004CD
:1099D00089B006468C46174603D0402C6AD0002436
:1099E0000AE003F00F025E4903F03003102B51F838
:1099F000228020D004D8CBB1204609B0BDE8F08346
:109A0000202B1ED0302BF7D17B6929881980072A9B
:109A10000AD17B6838691A89214603F01BF97B68F3
:109A20003969D868FFF758FE3A6940E03A69294633
:109A3000C0470446E0E77B6901221A703A697968F9
:109A4000F6E7BCF1020FD7F8149024D1042A22D8EB
:109A500004A9FFF79FFF04460028C0D0069B2BB146
:109A60007968B9F800304A899A4205D8059B736035
:109A7000069B002BC0D0B2E708893A6903FB00229D
:109A800004A8C04728B1B9F800300133A9F8003064
:109A9000E4E70446EAE7B9F800306A899A429ED9B9
:109AA0003A692989581CA9F8000003FB012279684A
:109AB0003046BDE7D2F81080454655F8043B13B94F
:109AC000FFF742FFB5E7022914D104A9FFF762FFAF
:109AD000002884D0D8F8003079682A4604A898472E
:109AE000044600283FF47BAF069B002BF2D1059B78
:109AF000736081E701292BD04CB24CB105297FF46A
:109B00006EAF04220DEB0201FFF7F8FD042424E000
:109B10000DF1040901340B2C3FF461AF01224946D9
:109B20003046FFF7EBFD00283FF459AF19F9013B30
:109B3000002BEFDB0B4B049301ABCDE90534002385
:109B40000793D8F8003079682A4604A8984770E748
:109B5000082201A9FFF7D2FD08240028EAD13EE738
:109B600054D307009D9507002DE9F04F91B00446AE
:109B7000002604A8CDE90266FFF7A6FCA3683BBB5C
:109B8000DDE9053404A89D78FFF7AFFC0028F7D184
:109B900015F0300F03D1059B1B8803B10134002C55
:109BA00000F0A9806309002202A9934240F09C8042
:109BB00010AA02EB830304F01F04C4F120044FF049
:109BC000FF3053F8383CE040C31A584258410DE08A
:109BD0000DF1030301AA0DF102012046FFF797FEE4
:109BE00038B99DF80330002BCAD1002011B0BDE870
:109BF000F08F019904A8FFF7BAFC002850D1019B0F
:109C0000B3427DD3059D059A937803F00F03082B8B
:109C10007FD004A8FFF769FC059B9D42F3D14FF06C
:109C2000FF36019FB7426BD3089B9DF80290D4F892
:109C300008801D684FF0010AA368002D5DD098458B
:109C40009CD12B68D3F800B0BBF1000F08D04B4675
:109C50003A4629462046D8470028C6D0AD68EBE7EB
:109C6000D3F808B0BBF800309F42F7D16A68594674
:109C70000AA8FFF729FC6B680E9305F10C030F93FC
:109C80009BF8023003F0C003802B04BF2B1D0E9302
:109C90000AAA85F80CA049462046FFF793FEDBE7A9
:109CA000059B9B7813F0300F0FD1069A3F2A0CD8F2
:109CB000510910AB03EB810102F01F020123934015
:109CC00051F8382C134341F8383CE5682DB104AB0A
:109CD0009DF8022001992046A84704AA9DF8021089
:109CE0002046FFF76FFE10E051F8225001357FF457
:109CF0007DAF013259E7012078E798457FF43EAF08
:109D00009DF802102046FFF71FFE00287FF436AFB3
:109D10006BE7168885E770B50C4606461546114672
:109D20002046FFF7D9FC2A4621463046BDE8704060
:109D3000FFF71ABFF0B585B00C46CD6869460746F7
:109D40001646FFF727FE68B1E06858B1A37803F024
:109D50003003202B32462946684605D1FFF7DBFF4A
:109D6000019B7B6005B0F0BDFFF7FEFEF8E7D3B5C1
:109D70000C466946FFF73AFD80B1DDE90013002784
:109D80004A0801F0010642EAC37256EA07014FEAA7
:109D900053031CBFD243DB43C4E9002302B0D0BD50
:109DA00037B50D4669461446FFF7E1FF68B12B89C8
:109DB000082B0CD1DDE90001C4E90001DDE9002335
:109DC0008B4206BF82420120002003B030BD042B2D
:109DD00003D100982060C117F0E7022B04D1BDF930
:109DE0000000208000B2F6E7012B04D19DF90000AD
:109DF000207040B2EFE70020E7E713B504220C46DD
:109E00000DEB0201FFF77AFC08B1019B236002B061
:109E100010BD1146FFF7F1BF13B508220C46694685
:109E2000FFF76CFC18B1DDE90023C4E9002302B0A0
:109E300010BD1146FFF7F0BF10B513681F2B144675
:109E400007D900220830FEF7D5FB08B9202323608C
:109E500010BD48F21450FBE70830FEF7A7BB0830EE
:109E6000FEF774BB062810B5044602D1002000F0AE
:109E700097FF044B1B681BB12046BDE810401847F4
:109E800010BD00BFF838002008B5074B186000204F
:109E9000FFF7E8FF054800F06BFF20B90348BDE875
:109EA000084000F0DBBD08BDF8380020659E0700C3
:109EB00072DF704773DF704774DF704775DF70477C
:109EC00076DF70477ADF70477CDF70477DDF704751
:109ED0007FDF704786DF70478FDF704790DF704706
:109EE000A8DF7047AADF7047ADDF7047AEDF70476D
:109EF000B0DF7047B1DF7047B5DF704762DF704792
:109F000066DF704713DF70477FB50023CDF80A3056
:109F1000ADF80E300A4BADF806109B89ADF808304D
:109F200001238DF80A300DF10603CDE90430054B0D
:109F300002A91888FFF7DAFF07B05DF804FB00BF3D
:109F400066490020A631002001460148FDF73ABFCE
:109F500060D9070070B518228CB000210DEB02000B
:109F600002F078FE2823089316231F4CADF8063024
:109F70000023CDF80E30CDF81230ADF816300223A4
:109F8000092606222370237159230125A2706371CB
:109F90000322FE230DF10601A0198DF818508DF84B
:109FA0002D500294ADF80C606570E270A371FFF75C
:109FB0008DFFB8B9BDF8063026725A19E271BDF8A6
:109FC0000C200A4C134402A906AA2046ADF80C3016
:109FD000FFF76EFF30B92078FFF76EFF2946207833
:109FE000FFF768FF0CB070BD7A490020A431002053
:109FF0002DE9F04103881F2B8AB0044600F0C3808E
:10A000002AD8112B57D007D8012B00F0CD80102B68
:10A0100043D00AB0BDE8F081142B00F043811A2B25
:10A0200034D0132BF5D10023A24CADF8123002230B
:10A03000ADF8103004AA02AB42F605212088059342
:10A04000FFF752FF08B1FCF772F900231A46852189
:10A050002088FFF73DFF86E0512B00F0AB800ED843
:10A06000232B00F08880502B39D0212BD1D1002315
:10A0700004A98088ADF81030FFF72EFF73E0552B50
:10A0800059D0562B00F08680522BC2D100231A469D
:10A090001946A088FFF72EFF65E0864B82881A805C
:10A0A000854A12681C460AB10120904783492088DE
:10A0B000FFF704FFADE77F4B4FF6FF721A80804B2E
:10A0C0001B685A0704D4FFF745FF08B1FCF72FF9C6
:10A0D000794B1B68002B9CD00220984799E7794E5A
:10A0E000C288B3889A4294D17748FDF73DFE054671
:10A0F00000288ED0228A04F1120102F09DFD182260
:10A10000002104A802F0A6FD08238DF810306F4B43
:10A1100006936F4B0596CDE9073504A8238AADF861
:10A12000243000F091FC00283FF473AF29466648C4
:10A13000FDF748FE6DE7C188F6291AD8CB1E9B07AC
:10A140000DD0CB1F9BB2013B5A4202F0030203F039
:10A15000030301F1FF3158BF5342C91A89B2554B6D
:10A160001888FFF7C9FE00283FF453AFFCF7DFF86B
:10A170004FE7F721F3E7002204A98088CDE9042204
:10A18000FFF7ACFEEFE74B4B00F108011888FFF733
:10A1900095FEE8E78379002B7FF43BAF454B132115
:10A1A0001888FFF78DFEDEE7424B00211888FFF785
:10A1B000A7FED8E78379002B3FF42BAF022B7FF467
:10A1C00028AF404900898A8990420E467FF421AF2A
:10A1D000A27B012A7FF41DAF00220120CDE90422D9
:10A1E0008DF81600208AADF81800324D608AADF85F
:10A1F0001A0004F114000790ADF80A2001AF02AA7A
:10A20000098A28888DF81030ADF808300397FFF7D9
:10A210006BFEA84660B93846FEF73FFC40B940F2F5
:10A22000FD1304A92888ADF81430FFF761FEF0E6AD
:10A23000002304A9B8F80000ADF81430FFF758FE69
:10A24000014600287FF4E5AE182204A802F002FDC2
:10A25000237D1E4A8DF81030022B0596069218D0E9
:10A26000062B10D0012B10D11A4B1A881A4B1A80CA
:10A27000637DD4F816200893012B099205D1174865
:10A2800000F08EFD01E0637D089304A800F0DCFB84
:10A29000BFE6A27D637D43EA02230E4A13800E4A85
:10A2A0001380F2E700231A4619468088FFF712FE52
:10A2B00059E700BFA6310020A0490020B6D507000D
:10A2C0009C4900206649002060D907004DA3070083
:10A2D000499F0700A4490020A64900204CD9070047
:10A2E00038B5154A1368044613F0010022D013490B
:10A2F0008C421ED0124908884FF6FF71884213D055
:10A3000043F0040313211360FFF7DAFD90B90D4DFC
:10A31000C82445F001054FF47A40A847013CFAD122
:10A32000BDE8384001F04EBB074B1878FFF7C4FD7D
:10A33000F6E7002038BD00BF9C4900204CD907003B
:10A34000A6310020B0D50700A431002030B50D465D
:10A3500087B0044620B940494FF4B470FDF7F2FBD2
:10A3600025B93D4940F26910FDF7ECFB11220021AF
:10A3700001A802F06FFC2378082B0BD1374A38492B
:10A3800013880988013B9BB21380D9B1D3B9032349
:10A3900011802370627823788DF805306021012ABE
:10A3A0008DF804108DF806200ED00B2A12D100F083
:10A3B0008DF98DF80700002000F082F9042101A832
:10A3C000FFF7A2FD07B030BD062B05D0082B29D022
:10A3D000032B27D00321F2E7E1688DF80710D4E9B9
:10A3E0000123080A8DF80800080C090E8DF80A10E0
:10A3F000110A8DF80B208DF80C10110C120E8DF82F
:10A400000E201A0A8DF80F308DF810201A0C1B0E32
:10A410008DF80D108DF809008DF811208DF812308F
:10A420000F21CCE7D4E90123110A8DF807208DF81C
:10A430000810110C120E8DF80A201A0A8DF80B3034
:10A440008DF80C201A0C1B0E8DF809108DF80D20BC
:10A450008DF80E300B21B2E754D50700A649002035
:10A46000A44900202DE9F043054695B020B948499C
:10A4700040F2C230FDF766FB464B4FF6FF721A8082
:10A4800001204FF659632A4602A98DF80A00ADF85B
:10A490000830FFF725FD0446002874D13E4B04AA7E
:10A4A00003F11007164618685968144603C40833A8
:10A4B000BB422246F7D1A91C3046FFF71FFD0446D8
:10A4C000002860D101461C220DA802F0C3FB9DF8B4
:10A4D0003430ADF8044043F004038DF834300223E7
:10A4E000ADF80C30AB788DF80E3004F0F80343F083
:10A4F00003038DF80630F423CDE90A44ADF82C307F
:10A500002B4601AE4FF0110903AF33F8040B0C9446
:10A5100008AA0DA98DF80590CDE90876FFF7E2FCB1
:10A52000A046044678BB01461C220DA802F092FB0F
:10A530009DF83430ADF8044023F0180343F01803BD
:10A540008DF834300123ADF80C30AB788DF80E3037
:10A550001723CDE90A44ADF82C302B4608F0E80863
:10A5600048F0130833F80C0B0C9408AA0DA98DF8C9
:10A5700005908DF80680CDE90876FFF7B3FC044618
:10A5800008B9FCF705FD204615B0BDE8F08300BF13
:10A5900054D50700A631002044D5070037B52A4C12
:10A5A000236813F001054DD1284B18602848FDF7AA
:10A5B0009DFB019500F0A5F800283CD12548FFF748
:10A5C000A1FC002837D101F0BFF9002833D101A840
:10A5D00001F088FA78BB01A9012001F08DFA50BB87
:10A5E00001A801F0F1FA30BB00F09AFB30B11A4833
:10A5F00000F08AFB236843F00203236011238DF8E7
:10A60000043023689B0718D513498869043182B246
:10A6100001A8FFF759FC70B91048FFF753FC50B977
:10A620000F48FFF71FFF30B9FFF794FC18B92368F4
:10A6300043F00103236003B030BD0A4802F012FB6F
:10A640000849E4E70020F6E79C490020A0490020E3
:10A6500060D9070000600700FC380020B6D507006D
:10A6600066490020A6D5070043690BB1C0681847AA
:10A67000704700000449054B0022904208BF19466C
:10A680000348FDF7C7BB00BFB8CF07008CCF07005A
:10A690002C32002007B5009313460A4601460348B2
:10A6A000FDF7D0FB03B05DF804FB00BF2C320020A7
:10A6B00013460A4601460148FDF714BC2C3200201F
:10A6C000014B18700B207047A8490020024B002254
:10A6D00018781A70704700BFA849002018DF70472B
:10A6E00030B585B0054610220C466846002102F0C0
:10A6F000B1FAA408684601950294FFF7EFFF05B090
:10A7000030BD1FB50023CDE9013303936846022312
:10A710000093FFF7E3FF05B05DF804FB4FF0005333
:10A720004FF480521A60002070470000014B062051
:10A730001B681847B44900200A2803D90B38C0B257
:10A74000FFF7BEBF7047000010B5044686B000207A
:10A75000FDF704FC014630B1164A18212046FDF7EA
:10A7600041F906B010BD1822684602F073FA0423BE
:10A770008DF80030104A114B116D1B68994211D1B0
:10A780000F4B186800F0A2FF8DF80100FFF7D4FF0F
:10A79000D4E901138DF8010068469847094800F094
:10A7A000FDF9DEE701238DF801306846D4E9011395
:10A7B0009847D6E749A70700D4540020AC490020A9
:10A7C000B04900202DA70700F0B5836887B0044684
:10A7D00023B9974940F2CF20FDF7B4F916220021A2
:10A7E0000DF1020002F036FA23788DF800300122D4
:10A7F0000C2B8DF8012000F218819A4012F4AD7FE5
:10A8000015D1510706D4D30440F10F81894B07209D
:10A810001B689847D4E90113684698479DF80130B2
:10A82000012B00F0F380834B05201B68EDE0062B25
:10A83000814A01D0012B01D12169117011780129C0
:10A8400004D002295AD00023137092E0013B072B59
:10A850004ED8DFE803F0044D47314D444D10754BA1
:10A8600003201B689847606900F012FDFFF764FF42
:10A870008DF80100CEE7236923B96D4940F213102A
:10A88000FDF760F9A38A23B969494FF48A70FDF78F
:10A8900059F9A18A206900F013FDFFF74DFF674BBE
:10A8A0008DF80100DA6B1B6C0293E3680192002BB8
:10A8B000B0D020699847ADE76149624800F052FD89
:10A8C000FFF73AFF01288DF80100A3D1002000F026
:10A8D00065F900289ED00A238DF801309AE74FF4DD
:10A8E00000730393554BDA6B1B6C0192029391E753
:10A8F0004F494FF4BC70FDF725F98BE7013B072B5F
:10A9000000F28F80DFE803F0048D6A6F8D848D374D
:10A9100000F0F6FC08B90823DEE762690AB90323F0
:10A92000DAE7C2F30B0333B1444B45495B6D096869
:10A9300013448B42F3D1B2F5805F01D90423CBE7F6
:10A940003E4B3F49586D096815188D42E3D85A644B
:10A95000DA6C9A64186518633A4B61691B6801F6F2
:10A96000FF710022090B1844FFF7A2FE00283FF4F4
:10A9700051AF0523B0E700F0C3FC0028CBD02F4D2A
:10A98000A18AD5E914329B1A6A6C0B449342C6D84B
:10A990002C4B2E6B1B68206905F148021E44FDF705
:10A9A000B5F8E368074623B921494FF4F870FDF77D
:10A9B000C9F8E368A28A21693046FFF76BFE08B147
:10A9C000E36876E7A28A2B6B029713442B63A38A72
:10A9D0002A6DAF6413442B6501931BE7174B9A6CE8
:10A9E00002921B6DF8E7154BD3E91402596C821AD9
:10A9F0008A4290D19A6C5865002120465964DA64E5
:10AA0000FFF7A2FE0B4B1B680420984707B0F0BD70
:10AA10000A4B9A6C1B6D01934FF48053029203937F
:10AA2000F8E6034940F2972065E7022354E700BFA8
:10AA3000BED50700B4490020A8310020D45400201E
:10AA4000AC490020B049002083681BB1024A18219C
:10AA5000FCF7C8BF07207047C9A7070038B50546EF
:10AA6000C0B10120FFF706FE044648B900F002FC21
:10AA700000F046FC30B9084B00201D60FFF720FEB7
:10AA8000204638BD0549064800F06CFC0128F2D08C
:10AA90000324F5E70724F3E7B4490020AC4900207C
:10AAA000B049002010B50022044658210430FDF7BB
:10AAB0002DF823681B1A5842584110BD2DE9F0416A
:10AAC00015464FF46072064688461F4602F0A6F807
:10AAD00028B915B90020BDE8F081A847FAE700229F
:10AAE00001213046FFF7E4FD70B94FF46072414632
:10AAF000384602F0A1F82B464FF4607239463046D2
:10AB0000FFF7C8FD0028E5D00320E4E770B50D4C41
:10AB10000646002258212046FCF7F8FF002244F8A0
:10AB2000040CC32104F51770FCF7F0FF251FC4F8CF
:10AB3000580232462946044B0448BDE87040FFF7EE
:10AB4000BDBF00BFD8540020B849002000F0070066
:10AB500070B50B68013305460C460DD1094940F22A
:10AB60007910FCF7EFFF0848084B00682A46214699
:10AB7000BDE87040FFF7A2BF0846FFF793FF00282B
:10AB8000F1D1EBE740D60700AC310020384D002072
:10AB90000149FFF7DDBF00BF00F0070038B50546EB
:10ABA0000020FFF7B3FF044618B903492846FFF712
:10ABB000CFFF204638BD00BFD45400202DE9F0411E
:10ABC000FFF758FD074600283DD138480368013398
:10ABD00002D0FFF767FF0746354D364ED5F80080A7
:10ABE000D8F8003001335DD04046FFF75BFF68B313
:10ABF000D8F80440012C0AD00022C32108F51870AF
:10AC0000FCF784FFD8F85C42231A5C425C41FFB138
:10AC10004FF460722549274802F00EF864B12968A4
:10AC200025485422043102F007F8296823484FF4DC
:10AC300032725C3102F000F87368012B16D00020EC
:10AC4000FFF7ACFF00B10320BDE8F0810446DEE76A
:10AC500024B14FF4607229681648EBE74FF4607234
:10AC60000021144801F0F6FF0123736014494022CB
:10AC700001F5E47001F0E0FF12491C2201F5E470D7
:10AC800001F0DAFF104900230124042201F286209A
:10AC900086F8603286F8A14286F8E23201F0CCFFF5
:10ACA0007460CCE7002FD9D00024B1E700F0070092
:10ACB000AC310020D4540020D8540020305500205E
:10ACC0003056002070560020F054002029DF7047D5
:10ACD00038B50C4D0446D5F8643378B101330FD143
:10ACE000002218210430FCF711FF2060214605F5F1
:10ACF00059700722BDE83840FFF7E8BF0E2038BD85
:10AD00000820FCE700F0070008B528B11C22034921
:10AD100001F092FF002008BD0E20FCE764F307005D
:10AD200010B5064C002218212046FCF7EFFE54F81F
:10AD3000043C1B1A5842584110BD00BF68F307007D
:10AD400010B50A4CD4F82433D4F8642313400133EB
:10AD500009D04FF4FE20FDF709FDC92221464FF42A
:10AD6000FE20FDF731FD002010BD00BFD4540020AF
:10AD7000F8B5094E094CA41B0746E4080025A54276
:10AD800001D10020F8BD56F83530384698470028E4
:10AD9000F8D10135F3E700BF4CD9070054D90700BB
:10ADA000F8B5094E094CA41B0746E40800250436F3
:10ADB000A54201D10020F8BD56F8353038469847F5
:10ADC0000028F8D10135F3E74CD9070054D9070022
:10ADD00008B50C22002101F03DFF024B00221A634E
:10ADE00008BD00BFD454002043F204031A68084B86
:10ADF0009A4201BF43F20803186800F6FF7020F47E
:10AE00007F600CBF20F00F004FF48050704700BFF0
:10AE1000DBE5B15108B5FFF7E7FF054B9B69184427
:10AE200000F6FF7020F47F6020F00F0008BD00BF27
:10AE3000D45400204FF48050704700002DE9F74FA4
:10AE4000DFF8B0B0274F00910646904601930025E9
:10AE50005FFA85F9B9F1010F20D0B9F1020F2CD0BA
:10AE6000FFF7D8FF8246B8F1000F15D0DBF820407D
:10AE7000631E5C425C41574503D21B49B120FCF77D
:10AE800061FEA7EB0A02B24201D3009BFBB1C4B141
:10AE9000B2421CD2042021E04446ECE7FFF7A4FFB5
:10AEA000019B82463BB943F20401104B0C68E41A43
:10AEB00018BF0124DFE74C46DDE701244FF4805A38
:10AEC000D9E70135032DC3D1B242E3D302E0B9F192
:10AED000000F02D00648FFF77BFF002003B0BDE85B
:10AEE000F08F00BF00900600BFD60700DBE5B15130
:10AEF000EC540020D454002090F8552012F0FB0FA1
:10AF000007D190F8643023B1836ECBB10B60012080
:10AF1000704712F0010303D090F8563003B1836DEF
:10AF20009207F2D590F85C20002AEED0054A006E18
:10AF3000C2F5FC22904201D80344E6E704207047A2
:10AF40000F2070470060070010B5084C4FF40072E6
:10AF5000FF21204601F07EFE20220021A4F12400E2
:10AF600001F078FE002344F82C3C10BD3055002041
:10AF700030B55B68DA680D4B9A4208D10C490A6813
:10AF800012B90C4A14681CB10B4B00221A7030BD68
:10AF9000D0E901341C4413F9015B002DA4EB03003C
:10AFA000F9DB0B601060044B0122EFE720D40700AF
:10AFB000E0500020DC500020E450002010B543F2A7
:10AFC0000403194A1C68944201462BD042F2040340
:10AFD000C358981A434243419442184621D142F241
:10AFE0000403CB58A3421CD14FF4405301F5005247
:10AFF0001B781278142B81BF43F214030B481B6893
:10B00000B3FBF0F398BF0023142A89BF42F2140265
:10B0100000208858054A88BFB0FBF2F0181A18BF04
:10B02000012010BD0023D7E7DBE5B15140420F00FE
:10B030002DE9FF472F49304D8A6B304C304FDFF8F8
:10B04000D490DFF8D4A06E465C313046FEF7C4FBE6
:10B0500096E80F0085E80F0000212A4B39704FF465
:10B0600047722046C9F80010CAF80010EB6001F0E2
:10B07000F1FD224624492846FEF74DFE20B900275F
:10B08000384604B0BDE8F0873F78002FF7D094F839
:10B090006C3194F800801BB3B8F1000FEFD194F835
:10B0A0007231002BEBD0DAF80020D9F800103046CE
:10B0B000FEF792FB96E80F0085E80F004FF4B2729E
:10B0C000414604F5BA7001F0C5FD04F5BA720F49A6
:10B0D0002846FEF720FE0028D1D004F5BA7406E019
:10B0E000B8F1000FCBD0A379002BC8D00834084B9F
:10B0F0001C60C5E7D454002004540020E850002010
:10B10000E450002071AF0700D4D4070020D407001A
:10B11000C0540020E0500020DC50002000B591B069
:10B12000FDF73CFC18B10D49DB20FCF70BFD20229C
:10B130000B496846FDF782FC40236A4609490A48E4
:10B14000FDF784FB18B10549E520FCF7FBFC074B34
:10B1500001221A7011B05DF804FB00BF3BD7070055
:10B16000ECCC07001454002064D10700B850002034
:10B17000F0B5A3B006460F4615461C46782220239C
:10B18000002104A8029301F065FD00230393194BED
:10B190001B780BB9FFF7C2FF2FB336BB02AB164EBD
:10B1A00001930096289B1549224604A8FDF7DCFB75
:10B1B000E8B9402D1BD1124C2A463946204601F0F1
:10B1C0003BFD20212046FDF746FCCDE90045029BD2
:10B1D0000C49324603A8FDF755FB00280CBF01209F
:10B1E000052023B0F0BD1320FBE71620F9E70A2065
:10B1F000F7E700BFB85000205C54002078D3070068
:10B200007C54002014540020F0B5ABB004460E4628
:10B2100017461D467822202300210CA8039301F035
:10B2200019FD114B1B780BB9FFF778FF2DB12146A3
:10B23000202204A8FDF7E6FB04AC03AB0B4D019301
:10B2400000953B4632460A490CA8FDF78DFB48B9EC
:10B2500020222146284601F0E1FCB0FA80F04009A6
:10B260002BB0F0BD0020FBE7B8500020B950002003
:10B2700078D3070008B5044B986B08B1FFF7D8FEE8
:10B28000024B187008BD00BFD4540020BC540020ED
:10B2900010B5044658B1B0F5007F0AD8064B00221D
:10B2A0001A70FFF751FE054B01209C6310BD03206F
:10B2B000FCE70420FAE700BFBC540020D45400206F
:10B2C00070B50E4C0646E06BA36B42189A420D46D1
:10B2D00011D85C300A462044314601F0ADFCE36BE6
:10B2E00004F140022B4429463046E363FCF70EFC90
:10B2F0002064012070BD0320FCE700BFD45400206F
:10B30000014B1878704700BFBC54002013B5124C95
:10B3100094F86C2182B194F8D802B4F8DA2204F5DA
:10B32000377104F5B87494F859304BB9201D02B048
:10B33000BDE8104000F0CEB9114610460434F2E7E3
:10B34000064B1B680093064B1B68FFF711FF012893
:10B35000ECD002B010BD00BFE8500020DC5000204F
:10B36000E05000202DE9F0411F4BD3E90E329A4204
:10B3700007460D4633D1DFF8788098F800604EB16B
:10B38000FFF748FD194B386029461868BDE8F041C1
:10B39000FFF7B2BDFFF74CFE18B3FFF7B7FF012868
:10B3A0003E6004462E6017D1104B29461868FFF7FF
:10B3B000A3FD012804460FD10346324631462868D2
:10B3C000FFF73CFD38B9FFF725FD88F800403860ED
:10B3D0002046BDE8F0810424FFF7B6FDF8E7082415
:10B3E000F6E70524F4E700BFD4540020C054002041
:10B3F000BC54002070B50D461646044620B90749D6
:10B400004FF42E70FCF79EFB3246294604F1720081
:10B410000123BDE87040FFF7F7BE00BF3BD7070030
:10B4200037B503780D461146032B21D8DFE803F02A
:10B4300027020E17D0F8014000222846FCF766FBD1
:10B44000844214BF0020012003B030BD0A4600230F
:10B450002946013003B0BDE83040FFF7D5BE00916A
:10B460002B46411C40220020FFF782FE0128E8E71E
:10B470004FF477700349FCF765FB0020E4E70120F7
:10B48000E2E700BF3BD707002DE9F041A2B0044638
:10B490000D46174600217822984604A820230393DE
:10B4A0009DF8A06001F0D6FB41220021204601F06A
:10B4B000D1FBB5F894300BB195F896602670032E49
:10B4C0001ED8DFE806F00902111F00224146384667
:10B4D000FCF71CFBC4F80100424639462046FFF742
:10B4E0009FFF22B0BDE8F08103AB0193631C009382
:10B4F0003A464346074904A8FDF736FA0028EBD040
:10B500000020EEE7B5F8982005F19A01601C01F0E3
:10B5100093FBE1E778D307002DE9F047634B1D6803
:10B52000A4B00446884617460A4601462846FFF757
:10B5300061FF002876D095F8556016BB4FF00109E1
:10B54000CDF8009043462246294613A8FFF79CFFFA
:10B55000002800F09E8077B3412213A9544801F0DF
:10B560006BFB544BC3F82C901E626A689A600022F1
:10B5700041462046FCF7CAFA4E4B0125C3E9098033
:10B580004BE04122002102A801F064FB06F0010912
:10B590004122002113A806F0020601F05BFBB9F17D
:10B5A000000F41D1002E2ED143494FF45970FCF7C2
:10B5B000C9FA002F2AD13F4B01255D616EE0002FB3
:10B5C000F9D0B9F1000F21D02046FFF7F7FC10B1F8
:10B5D0003A48FFF7FDFB412202A9394801F02CFB54
:10B5E000002E344B14BFAC22A522DA62AA6D5A6336
:10B5F000002EBCD0412213A9324801F01DFB2D4B77
:10B600006A68DA60B3E7434622463AE0294BAA2249
:10B61000DA62EDE72C48FFF7DBFBFFF795FC254BE3
:10B620009C643BE0172535E042F20403E25803F145
:10B63000A34303F5471303F2D7539A4229D1D5F810
:10B6400058A00AF5FF520AF6FF73C3F30B031F322B
:10B65000D21A42F20803E35893421AD32046FFF766
:10B66000ADFC00B1AEB101230093224653462946FA
:10B6700002A8FFF709FF60B1A6B1AB6DE218A8EB15
:10B6800003030021009113A82946FFF7FDFE0028BF
:10B6900095D10525002FBDD1FFF756FC284624B0D3
:10B6A000BDE8F087002F8FD185E700BFC054002090
:10B6B00075570020D45400203BD70700EC540020DD
:10B6C00034570020B6570020F85400200122FFF71D
:10B6D00023BF0000F8B5044618B92F49C420FCF771
:10B6E00031FA94F85430002B50D094F85530032B95
:10B6F0004CD894F86E20032A46D1227A002A45D0ED
:10B70000E268342A44D143F20401228A08682349BA
:10B71000884229D152B16169E9B1D2B2002104F164
:10B72000140543F20C06C8B2904201D3122011E076
:10B7300055F821703088874201F10101F3D1227858
:10B74000EAB1012B26D9164B6068DB6898428CBFA2
:10B7500001201020F8BD002BF1D013F1FF3218BFEB
:10B760000122002AEBD1E1E712B16269002ADDD1A2
:10B77000012B0CBF2278012202F00102F1E7012B1C
:10B780008CBF0F200120E5E71420E3E70F20E1E75D
:10B790001120DFE70120DDE7BCD70700DBE5B15171
:10B7A000D454002038B1054B0360054B436001239E
:10B7B0000372002070470E20704700BFEBB70700F0
:10B7C000C5B7070069B10B78022B0CD1022804D051
:10B7D00003280CBF11200820704703230B700020A2
:10B7E00070470E2070470820704710B50C4681B195
:10B7F0000B78042B04D8DFE803F00E05030E0E00CF
:10B80000112010BDFFF764FA0028FAD1022323703B
:10B81000F7E70E20F5E70820F3E7000070B5144BBA
:10B82000144A0C21D21AB2FBF1F2816911F8025CC0
:10B83000044635B900690021914205D101232360F6
:10B840000EE04FF0FF30F6E71E68AE420CD1461C0A
:10B8500007D19D68D4E90001D4E90223A8472060FC
:10B8600070BD5E688642F4D001310C33E4E700BF5E
:10B8700054D9070060D907001EF0040F0CBFEFF386
:10B880000880EFF30980FFF7C9BF00BF10DF7047E2
:10B8900011DF704713B5044609496846FCF784FD7B
:10B8A000019808B902B010BDD0E900312046984790
:10B8B00018B16846FCF790FDF2E71120F2E700BFEF
:10B8C00048D8070013B5044607496846FCF76CFDE5
:10B8D000019B0BB902B010BD2046D3E9002190476F
:10B8E0006846FCF779FDF3E760D80700064B9A68D5
:10B8F00022B11A6822F480021A607047034B4FF499
:10B900008002C3F880207047C854002000E100E0A6
:10B910000B4991F816335A09EC231341DB0706D57E
:10B92000084B9A683AB94FF480030B60704742F2B3
:10B930000200FAF7FCBC1A6842F480021A607047F1
:10B9400000E100E0C8540020F7B5194F3C7864BB13
:10B95000184E012520463570FFF79CFF112821D095
:10B960002046FFF7AFFF144B8DF803401868019095
:10B970000DF10300FCF77AF8104901A8FFF786FFE4
:10B980000446B0FA80F0400938709DF80300FCF7D7
:10B990009DF83CB90A4B34701C70FFF7B9FF28467C
:10B9A000FFF790FF204603B0F0BD0824FAE700BF80
:10B9B000C5540020C454002041D807002963070063
:10B9C000C6540020F7B5154F3B781BB3144E012029
:10B9D0003070FFF75FFF11284FF000051CD00220E8
:10B9E000FFF770FF0DF107008DF80750FCF73EF8E8
:10B9F000FFF74EFF04469DF807003D70FCF766F820
:10BA00002CB93470FFF772FF0320FFF75BFF20466D
:10BA100003B0F0BD0824FAE72C46F8E7C55400202F
:10BA2000C4540020054B1B7833B1054B1B780BB178
:10BA3000FFF7C8BFFFF788BF08207047C454002035
:10BA4000C5540020014B1878704700BFC554002032
:10BA500007B508496846FCF7A7FC019B13B903B07A
:10BA60005DF804FBD3E9002090476846FCF7B4FC7E
:10BA7000F3E700BF54D80700FFF7EABF60DF704765
:10BA800069DF704761DF704730B5114DADF5017D5D
:10BA90004FF4FA740DF1020103A8ADF80240FFF76C
:10BAA000F1FF70B9294601A8FCF77EFC029B002B30
:10BAB000F0D003A8D3E90021904701A8FCF78CFC43
:10BAC000F4E7052801D0FAF732FC0DF5017D30BD11
:10BAD0006CD80700024B1B780BB1FFF7D5BF70473E
