:0200000270008C
:109000000000012025CB07004DCB07004FCB070008
:1090100051CB070053CB070055CB070000000000E1
:10902000000000000000000000000000FDCA070072
:1090300059CB0700000000005BCB07005DCB0700A9
:109040005FCB07005FCB07005FCB07005FCB07005C
:109050005FCB07005FCB07005FCB07005FCB07004C
:109060005FCB07005FCB07005FCB07005FCB07003C
:109070005FCB07005FCB07005FCB07005FCB07002C
:109080005FCB070049B007005FCB07005FCB07004D
:1090900029B207005FCB0700A5BF07005FCB070021
:1090A0005FCB07005FCB07005FCB07005FCB0700FC
:1090B0005FCB07005FCB070000000000000000004E
:1090C0005FCB07005FCB07005FCB07005FCB0700DC
:1090D0005FCB07005FCB07005FCB070000000000FD
:1090E0000000000000000000000000000000000080
:1090F0000000000000000000000000000000000070
:10910000000000000000000000000000000000005F
:10911000000000000000000000000000000000004F
:1094000010B5054C237833B9044B13B10448AFF3BE
:1094100000800123237010BD3027002000000000D1
:1094200084CC0700084B10B51BB108490848AFF3BE
:1094300000800848036803B910BD074B002BFBD020
:10944000BDE81040184700BF00000000342700208E
:1094500084CC07002C27002000000000154B002BB7
:1094600008BF134B9D46A3F5803A00218B460F465B
:109470001348144A121A00F065F80F4B002B00D065
:1094800098470E4B002B00D0984700200021040085
:109490000D000D48002802D00C48AFF3008000F00A
:1094A0002BF82000290000F057F800F011F800BF59
:1094B0000000080000000120000000000000000083
:1094C00030270020AC2F002000000000000000002A
:1094D00008B5074B044613B10021AFF30080054BDC
:1094E0001868836A03B19847204600F033F800BF3C
:1094F00000000000A4CB070070B50E4B0E4CE41A20
:10950000A41000251E46A54204D056F825309847E1
:109510000135F8E703F038FB084C094BE41AA410B6
:1095200000251E46A54204D056F82530984701353F
:10953000F8E770BD242700202427002028270020DA
:109540002427002002440346934202D003F8011B63
:10955000FAE77047FEE700BF2DE98048AD4B1B6876
:10956000B3F5F22FA5B001D0002000E24FF08053F8
:109570001B69B3F5805FF7D14FF01023D3F8843027
:10958000591C2AD0C82B1ED00ED8282B25D3292B06
:1095900016D9642B21D10022022396461A201925C0
:1095A00011461446164620E0B3F57A7F15D340F2F3
:1095B000EE32934211D8032300224FF0010E0FE048
:1095C00001231A4601E0042301224FF0000E062079
:1095D00008250C210B24112607E0012300229E46BA
:1095E0001320142507210624082603F00503012B68
:1095F00025D14FF0A04C06F5E0784FF003094CF868
:109600002890B34012B1CCF8083501E0CCF80C3505
:10961000BEF1000F13D04FF0A04301F5E072032616
:1096200043F82260012202FA01F1C3F80C1504F597
:10963000E07102FA04F443F82160C3F80C45764B5C
:1096400000F5E0714FF0A04200240326C3F8004566
:1096500042F8216005F5E07142F821406F4AC3F8F5
:109660001455C3F824254FF0FF32C3F80C05C3F896
:109670000825C3F81025C3F86C45D3F86C25C3F84A
:109680006C250422C3F800250122C3F804439A6024
:109690001A6001F031FD624B624A1A60624B634905
:1096A0001E70634B0B6005229A709A729A7403F5D0
:1096B00084725A615F4A1C7014605F4A5C70147057
:1096C0005E4A1C7203F118005860147003F1900098
:1096D0005B4AD860C0254FF480105C721C745C74C7
:1096E000C2F8800182F81453106000F18040A0F5A8
:1096F0006F20C0F8084582F81153524AD0F804058B
:109700001060514A02911460504A1D461470547002
:10971000947002F1F00014719460166154619461C8
:10972000D460183282424FF00001F4D1484B494ACC
:1097300019604FF4FE2058600124474B51604FF0F0
:1097400080409160C5F8C8411360D0F81C35C0F85E
:109750001C45422B914608D001D88BB109E06A2BF9
:1097600003D0B12B05D188460CE000244FF001084E
:1097700008E05C1C4FF08043C3F81C45002400E067
:109780001C46A04601F0BBFA002800F03A8101F027
:109790008BFA08B1642361E014A801F070FA1899FB
:1097A000002900F00681179A62B943F208031A688B
:1097B000534223F4FF5323F01F0303F5E82302EB86
:1097C000530301E01A9B134403220F9289084FF4BC
:1097D000F2220FA810921193129101F023FA00289F
:1097E00000F0E780179A62B943F208031A685342FF
:1097F00023F4FF5323F01F0303F5F02302EB53037D
:1098000001E01A9B13440FA8119301F00BFA0028F2
:10981000C0D1CEE0141000100020004000B0AF0313
:10982000B42C002071B70700C52C0020842D002027
:109830004C270020AC2C0020B82C0020B92C002094
:1098400000E100E0B02C0020802C00208C2B0020B8
:10985000882D0020842C002065AA0700002B3FD013
:10986000013B40F2E730013800BF00BF00BF00BF3E
:1098700000BF00BF00BF00BF00BF00BF00BF00BFF0
:1098800000BF00BF00BF00BF00BF00BF00BF00BFE0
:1098900000BF00BF00BF00BF00BF00BF00BF00BFD0
:1098A00000BF00BF00BF00BF00BF00BF00BF00BFC0
:1098B00000BF00BF00BF00BF00BF00BF00BF00BFB0
:1098C00000BF00BF00BF00BF00BF00BF00BF00BFA0
:1098D00000BF00BF00BF00BF00BF00BFC3D1BDE7D6
:1098E00014A801F0CCF9179E002E3DD0DDF868A039
:1098F00006F5805353452AD943F20803AAF5805B45
:109900001B689E424FEA5B0B09D84FEA4B00321AA4
:1099100000F580515B46504401F086F923E00123B5
:109920000BF580520FA80F9312930393109211928C
:1099300001F078F9039BB0B94FF480520FA80F9350
:1099400010921192129301F06DF960B9DDE70123D5
:109950000F93B6084FF480530FA8CDF840A0119391
:10996000129601F05FF910B901F09EF908B103F009
:109970001BF814A801F083F91899D1B1179A62B9AC
:1099800043F208031A68534223F4FF5323F01F03E2
:1099900003F5E82302EB530301E01A9B1344002272
:1099A00089080FA80F921093119101F03BF900283C
:1099B000DDD184F00100C0B203F01EF802F0FBFF1D
:1099C0009E4A9F4B1178A52905D100225A809A60A2
:1099D000FF221A7007E019709178D07841EA0021CF
:1099E000598092689A60FF221A710022DA601A6127
:1099F0005A61944B01221A7002F060FA01F0A8F942
:109A000006E084F00100C0B202F0F6FF02F0D3FFDE
:109A1000B8F1000F0CD08C4A8C4C002313708C4A88
:109A20001380D5F8C8218B4D032A0AD100F030BC31
:109A300043F20803186801F071F9002840F0E78349
:109A4000E9E7854B854E1A60511CC4F8C81184495A
:109A500049F8221043F208021168596093E80300A4
:109A600086E803001268534223F4FF5323F01F03D8
:109A700003F5E82302EB53037360029B1B68002B82
:109A800000F00A847748037C002B40F005840374BF
:109A90004374754B43614FF4F00102F0BBF90028A9
:109AA0007FF465AF714A7249106001222A70714AD1
:109AB0001070714A1070714A1160714A71491160D9
:109AC000714A04F5E6741460704C9060082151608E
:109AD000D0601061506190613C21204602F082F913
:109AE000A38F83420BD16A4A234604F13C0153F809
:109AF000045B42F8045B8B42F9D10130A08714A8C3
:109B000001F081F900287FF432AF14A901F06EF85A
:109B100000287FF42CAF9DF83C305E48012262F3B0
:109B2000030324AD62F3071305F8543D03F023F853
:109B3000584982B2284601F051F8044600287FF4C3
:109B400016AF0146082214A8FFF7FCFC0923ADF864
:109B500050300C23ADF8523014A84FF4C873ADF850
:109B60005440ADF8563001F03BF8014600287FF430
:109B7000FEAE402214A8FFF7E5FC4FF01023D3F807
:109B800084305A1C4DD0B3F57A7F38D040F2E93298
:109B9000934236D040F2EA32934234D040F2EB3274
:109BA000934232D0B3F57B7F31D040F2ED32934215
:109BB0002FD040F2EE3293422DD040F2DC5293424D
:109BC0002BD040F2DD52934229D040F2DE52934234
:109BD00027D040F2DF52934225D0B3F5BC6F24D09A
:109BE000642B24D0C82B24D0282B24D0292B71D02F
:109BF00001230F935223ADF82C3000BEFEE7264C14
:109C000069E0264C67E0264C65E0264C63E0264C74
:109C100061E0264C5FE0264C5DE0264C5BE0264C84
:109C200059E0264C57E0264C55E0264C53E0264C94
:109C300051E0264C4FE0264C4DE000BF00F00700FD
:109C4000902D00206D2D0020CA2A00204C270020D6
:109C5000702B0020802A0020802B0020782B0020F1
:109C600005AA07009C2A00206DAB0700842A00206B
:109C700025B80700E02C0020C82A0020742D002001
:109C8000742B0020E9A80700902C0020807F002082
:109C9000FC2C002072CC0700B8CB0700C4CB070017
:109CA000D0CB0700DCCB0700E8CB0700F4CB0700E4
:109CB00000CC07000CCC070018CC070024CC070010
:109CC00030CC07003CCC070048CC070054CC070040
:109CD00060CC07006C4C204602F04DFF1B946B4C8F
:109CE000ADF86800204602F046FF9DF88C30ADF8D4
:109CF0007000012060F3030360F307138DF88C30CC
:109D00009DF88D30624A1D9403F0F0036FF3071342
:109D100024AE8DF88D3041F60A0326F8643D3146B5
:109D20008DF82E0002F03CF9002840F0A680BDF826
:109D300050201AB9BDF85820B2B10AE0554B009333
:109D4000159923AB42F6292002F0D2F80028F1D071
:109D500093E0514B0093179923AB42F6242002F075
:109D6000C7F8002840F08980BDF860204AB14B4B0D
:109D70000093199923AB42F6252002F0B9F8002888
:109D80007BD1BDF868204AB1454B00931B9923ABAA
:109D900042F6272002F0ACF800286ED1BDF8702002
:109DA0004AB1404B00931D9923AB42F6262002F0A6
:109DB0009FF8002861D1BDF878204AB13A4B009352
:109DC0001F9923AB42F6282002F092F8002854D1C4
:109DD000209B13B31A688DF83C201A68120A8DF87C
:109DE0003D205A888DF83E20DA788DF83F205A6859
:109DF0008DF840209B688DF841301A0A1B0C8DF8B5
:109E000043302A4B8DF842200093082223AB294689
:109E100042F6232002F06CF878BB219911B9229BFD
:109E200063B949E0224B0A790093096823AB42F6F3
:109E30002A2002F05DF80028F1D01EE01A788DF893
:109E40003C205A888DF83D20120A8DF83E209A88D1
:109E50008DF83F20120A8DF84020DB888DF84130C4
:109E60001B0A8DF84230134B0093072223AB29467F
:109E700042F6502002F03CF8F0B1E8B124230F90F4
:109E8000ADF82C3000BEFEE769CC07007ACC0700A5
:109E9000AC2D0020382A0020402A0020482A00202B
:109EA000502A0020582A0020602A0020682A00201A
:109EB000702A0020782A00200C22002108A8FFF731
:109EC00041FB0823ADF820309F4BA04C0993A04BD9
:109ED0000A934FF6FF7323809E4BB64603F1100C96
:109EE000A24618685968724603C20833634596460D
:109EF000F7D10DF1900841F230530DF11A013046BF
:109F000028F8783D02F05CF9002840F01981924A67
:109F10004146012002F044F80446002840F0118137
:109F20009DF81A208AF8062001461C2214A8FFF783
:109F300009FB9DF85020159442F004028DF8502042
:109F40009AF806208DF81E200DF1140941F23252C4
:109F50002146ADF81C204846032217941894199402
:109F60001A94FFF7EFFA9DF81420784E64F3030279
:109F700064F307128DF814209DF815204FF00108A6
:109F800068F3030268F307128DF815209DF8162078
:109F900068F3420264F3C30264F30412D2B242EAE9
:109FA000080221468DF8162028461422FFF7CAFA27
:109FB00007AB0F934FF0140B06F108032A4614A9C0
:109FC000BAF80400ADF84440ADF846401394CDF81B
:109FD0004090ADF848B001F089FF0446002840F0F9
:109FE000B18001461C2214A8FFF7ACFA9DF850304E
:109FF000159443F018038DF85030B3798DF81E3066
:10A00000214641F23153032248461794189419947B
:10A010001A94ADF81C30FFF795FA9DF8143064F3EC
:10A02000030364F307138DF814309DF8153068F3BB
:10A03000030368F307138DF815309DF8163068F3A5
:10A04000420364F3C303DBB243F0110321465A46D3
:10A0500028468DF81630FFF775FA07AB0F931723D4
:10A06000ADF848302A4606F1100314A9B088ADF8BF
:10A070004440ADF846401394CDF8409001F036FFCF
:10A08000044600285ED101461C2214A8FFF75AFAA4
:10A090009DF85030159443F002038DF85030B37999
:10A0A0008DF81E30214641F234530322484617945E
:10A0B000189419941A94ADF81C30FFF743FA9DF8E0
:10A0C000143068F3030368F307138DF814309DF818
:10A0D000153064F3030364F307138DF815309DF80E
:10A0E000163068F3420364F3C30364F30413DBB272
:10A0F00043EA080321465A4628468DF81630FFF7F2
:10A1000021FA07AB0F930223ADF84430ADF8483085
:10A1100008AB13932A4606F1200314A9B088ADF8C2
:10A120004640CDF8409001F0E1FE044650B9099B4D
:10A13000B3620A9B03B1F362084B01221A700FE06D
:10A1400004466CB1204612E4EDA20700382D002031
:10A150009DB70700A8CB07003C2D0020B42D0020A0
:10A160001C22002114A8FFF7EDF940F6CD4315930A
:10A1700003264FF4804316931494494B8DF85C608A
:10A18000ADF85E4014AD1A930FCDDFF838E18DF8CD
:10A190006040AEE80F00199495E80700414B8EE847
:10A1A000070041481C7002F07FF800287FF4DFAB05
:10A1B0003E4B4FF6FF721A803D4B1C70029B1B6892
:10A1C000002B69D03B4B1A7C002A65D13A49596172
:10A1D0003A491C745C740B7862F3000362F3410328
:10A1E00062F3820362F3C30366F3061362F3C713D9
:10A1F0000B7007234B7010238B7001F0F5FA00F001
:10A20000A7FDFF2002F076FC402002F075FC43F22F
:10A210000803186800F082FD002837D000F06FFDB9
:10A22000002833D100F0D6FD00287FF4A0AB244AEB
:10A230001168012404FA00F30B4200F1010018BF79
:10A24000C2F880302028F5D143F20804206800F0DD
:10A25000BFFD00287FF48BAB2368186880F3088863
:10A260005868FF2464B2EFF30585002D01D1A6469E
:10A2700000472546064621273FBAF0B400240025B2
:10A2800000260027F0B4F92040B2004701F09EFEFE
:10A290002B700420FFF76BBB0820FFF768BB00BFE3
:10A2A000C9A207000C2E0020C42D00200E2E002075
:10A2B000E82D0020EC2D0020B1C20700682D002001
:10A2C00000E100E0CC2D002008B502F06DFB10B5D8
:10A2D00004460846032100F05BFC032102462046A9
:10A2E00001F074FF08B102F05FFB10BD2DE9F04FE3
:10A2F0000B788BB004460F46092B00F2EA82DFE8A8
:10A3000013F04D005600B0000A002E0044005F021A
:10A310006902B5007002B94D2B78052B17D16F6813
:10A32000AB689F4213D106232B7000F063FC0646F6
:10A3300070B9EB683946586801F054FD6A7C2B7C93
:10A3400043EA0223984200F083820B2600E00826AD
:10A350000421304600F01CFC042102468FE201F08B
:10A3600020FA002840F07282A44C2378072B11D1E8
:10A3700004F11C0000F02EFE002840F06782636CA0
:10A380009847002800F0A58204E001F00AFA0028AE
:10A3900040F05C829A4B04221A709AE2974B012299
:10A3A00083F848204A68127883F8492091E2934D57
:10A3B000022385F848304B681B78012B40F08982D6
:10A3C0006E68002E49D12B78042B46D195F84A307F
:10A3D0000B2B40F24382B5F8531005F14B0202EB10
:10A3E00041010A3113445A1AD2B2012A40F236828C
:10A3F000994200F2338205F1100002F0B1FB814B6B
:10A400001A884FF6FF718A4204D0B5F84B1091427A
:10A4100040F026825B884FF6FF72934204D0B5F875
:10A420004D209A4240F01C82B5F8531000234FF69D
:10A43000FE7043F20C078B4280F012821A1D05EB6E
:10A440004202B2F84D20824200F00582B7F800E0E7
:10A45000724503F10103EED1FDE1082602213046E9
:10A4600015E2664B032283F8482032E2DFF88C8144
:10A4700098F84850022D464677D0032D00F0B6805C
:10A48000012D40F026820DF1180A102200215046BD
:10A49000FFF758F83B7A0C2B02D003222946EEE155
:10A4A0007F6898F84950384600F0A2FB8346381D73
:10A4B00000F09EFB814607F1080000F099FB8DF843
:10A4C0001850CDF81CB0CDF82090099086469AE837
:10A4D0000F0008F1CC0787E80F006B0702D5AF0724
:10A4E00040F0C3814BEA090343EA0E03980740F0AA
:10A4F000BC810BEB09007044B9F5C04F3F4AB06016
:10A5000000F2B58143F2080315F0010F1B680AD071
:10A51000C3F5E823984200F2AA813B4BD3633B4B3F
:10A5200013643B4B12E05B4223F4FF5323F01F0301
:10A5300003F5E823B0EB530F00F29981354BD36359
:10A54000A907354B13644CBF344B354B53643378F8
:10A550002A4D012B40F08D8100F04CFB002840F08B
:10A560008981EB6BA8689847B3E10B7A13F003017C
:10A5700011D00022C1F1040E94469818C0B27D6833
:10A580000132964505F800C0F7D10133C1F103014E
:10A5900051FA83F33B723378D7F804803D7A032B6A
:10A5A00002D0042B03D06EE1144B04221A7073689E
:10A5B000124F002B40F0678100F01CFB002840F098
:10A5C000658197F84A3005F0FC055A19802A00F297
:10A5D0005C8107F14B002A461844414602F0C0FA5C
:10A5E00097F84A301D4487F84A5072E191F8089074
:10A5F00019F0030316D02A46294640E1802A00209C
:10A600006D2D002080100010C1AA0700E5A90700E9
:10A6100099A9070085AA07004DA907004FA90700BF
:10A62000F1AA0700AC4DC8F8DC306B68002B00F0D5
:10A630003581B9F1200F00F22F81013B6B60EB688F
:10A6400028680133EB602B69012202FA03F14FF015
:10A650002408AA6908FB030001330A4303F0070337
:10A66000AA612B614A46C6F8DC00796802F078FAE4
:10A670002B692A68013B03F0070308FB0323C3F897
:10A680002090EB68002B00F009816969013BEB60C9
:10A69000AB6808FB01280131013301F0070118F014
:10A6A000030FAB60C6F8DC80D8F82030696140F059
:10A6B0000E813278052A77D123F003057368D6F826
:10A6C00008A005EB0309D14504D94FF0FF337360AF
:10A6D0000C256AE0039300F08DFA039B002840F0FC
:10A6E000ED8008EB03029207DFF8F0B1F16840F06B
:10A6F000EE80009342462B46012000F0CFFB05463A
:10A70000002840F0DC80D145CBF8049000F0CB80ED
:10A710003A7AD6F8E030714F134496F8E420C6F840
:10A72000E030002A00F0D580B7F8E650013DADB228
:10A73000A7F8E650002D40F0CC80002C00F0C3803C
:10A7400021884FF6FF72914200F0BF80644A127870
:10A75000002A00F0BA80634E112232701A0A737018
:10A76000B2701A0C1B0EF2703371294605231022A9
:10A7700006A8ADF81630FEF7E5FE238AADF81830CE
:10A7800001238DF81A3006A90DF116032088ADF8C3
:10A790001C500893099601F017FD002856D1B7F810
:10A7A000E830A7F8E63094E00825D6F8DC0000F0A1
:10A7B000AAFB014610B12046FFF789FD29466EE04D
:10A7C000464B012283F8E4208A88A3F8E820A3F806
:10A7D000E6207EE0414B002283F8E420A3F8E82045
:10A7E00077E000286FD002884FF6FF739A426CD052
:10A7F0003B4B1B78002B68D0384B3A4DD3F8E030F8
:10A80000EB701022180A0721287123FA02F01B0EA0
:10A81000697001266871AB71ADF8161006A80021A9
:10A820002A70AE70FEF78EFE238AADF81830002332
:10A83000ADF81C3006A90DF1160320888DF81A60BA
:10A840000893099501F0C0FC002842D002F0ACF852
:10A8500007232B707CE505232B70FFE5092600E01C
:10A860000B26002385F84A30F8E5062002E00C208C
:10A8700000E00820012100F08BF90121024620466A
:10A8800001F0A4FCE0E7082000E00920022100F02C
:10A890007FF902210246F2E70C2100E00421204664
:10A8A000FFF715FD15E0DBF8E0303A7A1344CBF8FA
:10A8B000E030DBF8DC30CBF8EC300AE00546092D5F
:10A8C0003FF426AF71E70E20C0E70820BEE7102551
:10A8D0006BE70BB0BDE8F08F902C0020802A0020A1
:10A8E000B42D0020B52D0020032810B50B461446CA
:10A8F00018D0042822D149B1114B18884FF6FF73A4
:10A9000098421BD0132101F0D1FC14E0104600F056
:10A91000FAFA88B90B4BD3F8EC309C420ED10122E5
:10A92000032105E00121184600F032F90121024619
:10A93000054801F04BFC08B102F036F810BD00BF2D
:10A9400018270020802A0020382D0020704770B57D
:10A950000D4B0E4A5D689C68D8680D4B11781970D4
:10A96000D678917841EA0621598092689A60AA22A5
:10A970001A71DD601C615861064B01221A7001F0EA
:10A980009DFA002070BD00BF4C2B002000F0070096
:10A99000902D00206D2D002038B543F208030D4A9C
:10A9A0001D680D4B12885C689868D9680B4B5A80FB
:10A9B00022180A449A60A5221A70FF221A71DC60DC
:10A9C000186159619D61064B01221A7001F076FAF7
:10A9D000002038BD702B00204C2B0020902D002033
:10A9E0006D2D0020054B00225A809A60FF221A70BC
:10A9F000034A12791A7101F061BA00BF902D00204C
:10AA000000F007000129F8B50D4614461F4602D094
:10AA100003290CD01AE0104B1B78052B16D10F4BD5
:10AA20005B689BB13A462146042098470EE00A4EE7
:10AA30003378022B0AD10A4B5B689847074B357075
:10AA40005E681EB13A4621462846B04714B12046FA
:10AA500001F0AAFFF8BD00BF802A0020702B002063
:10AA6000BC2A002008B5064B1878012803D101291B
:10AA700004BF0221197012B1104601F095FF08BD04
:10AA80006D2D002008B50B4B0B4818600B4B0222B4
:10AA90001A7043F208031968494221F4FF5121F06A
:10AAA0001F0101F5E821490800F022FA08B101F080
:10AAB0007BFF08BD8C2A0020782B0020802A0020F4
:10AAC00008B5074B07481860074B02221A70074B5E
:10AAD000196800F00DFA08B101F066FF08BD00BF6B
:10AAE0008C2A0020802B0020802A0020882A002029
:10AAF00070B51A4E1A4DF16888B005F1100000F0DB
:10AB0000F7F908B101F050FFEA6812F0030320D111
:10AB1000009305F11001F368012000F0BFF904462D
:10AB2000C0B90146142203A8FEF70CFD0D4B29887D
:10AB3000F268ADF80E10069259809A60FF2101224A
:10AB40001A701971084B8DF80C401A7001F0B6F9A3
:10AB500000E01024204608B070BD00BF4C2B002040
:10AB6000702B0020902D00206D2D002008B5064B85
:10AB700001221A7600F015FE08B101F015FF034B13
:10AB800003221A7008BD00BF702B00206D2D00201D
:10AB90000C2813D8DFE800F0141212121212091256
:10ABA0000712120D0B00022070470320704704208B
:10ABB000704704290CBF0520062070470620704707
:10ABC0000120704767DF7047AADF7047A9DF704731
:10ABD000A7DF704786DF70477FDF70477CDF7047F5
:10ABE0007ADF704774DF704773DF704770DF70473C
:10ABF0000068704708B5094B1B7E5BB9084800F038
:10AC0000E9F928B94FF4F001054801F003F918B14A
:10AC100001F0CAFE082008BD08BD00BF702B00204F
:10AC20009C2A002018DF70477FB505460C46960821
:10AC3000032168468DE8220002940396FFF7F2FF95
:10AC4000D8B1B4F5805F11D8012368468DE828009B
:10AC500002940396FFF7E6FF78B9032368468DE870
:10AC6000280002940396FFF7DDFF06E01A46E11A7A
:10AC7000E81AFFF7D9FF0028E6D004B070BD094BF1
:10AC80001A7802705A8842809A6882601A79027132
:10AC9000DA68C2601A6902615A6942619B6983611C
:10ACA000704700BF00F0070030B58DB005A8FFF772
:10ACB000E6FF089808B30B9C00F58053A3420FD918
:10ACC00043F208031B68984216D8A4F580535B082A
:10ACD0005D00421B05F580516019FFF7A5FF0CE0F0
:10ACE00003238008019304904FF4805301A802933A
:10ACF0000394FFF797FF00E00E200DB030BD064B28
:10AD00001A78A52A05D01879A0F1AA03584258410B
:10AD100070470120704700BF00F0070010B50368BE
:10AD2000013311D0094B1A78012A0DD15C8834B156
:10AD3000996843F20803186801F054F800E02046CF
:10AD4000231A5842584110BD002010BD00F00700E2
:10AD5000F8B5184C254601F0E3FE08B9164E01E09F
:10AD600001F022FE227833789A421CD013492278CF
:10AD7000237809881248DBB2994286BF0133DBB2DF
:10AD800000232B700F4B07881B680F48D2B211B2FB
:10AD900003EBC10E006853F83130BEF8041002FB1B
:10ADA00007009847DEE7094B1B78023B022BD2D8FD
:10ADB000F8BD00BFD42C0020D52C0020D62C0020BC
:10ADC000102E0020D82C0020DC2C00206D2D00201F
:10ADD00013DF704711DF704728DF704729DF7047A6
:10ADE000082910B502D0002001F0DEFD036840689C
:10ADF000BDE81040184765DF70477DDF704779DF99
:10AE0000704772DF704771DF704738B5174B1A789B
:10AE1000182404FB023422796069012A0DD0032A28
:10AE200021D14FF08052126992B2B0FBF2F0D3F808
:10AE3000F4201044FFF7D0FF11E0D3F8F450A268DB
:10AE4000A169E4682D03521BB2F5805F20442944B8
:10AE5000284434BF92084FF48062FFF7BFFF18B94F
:10AE600001229A7038BD0F2038BD00BF8C2B002006
:10AE700037B50B460C46DD68074A14F80C1B02EB8D
:10AE800085025D680095D2F8F8505B69024620465D
:10AE9000A84703B030BD00BF8C2B002070B5134D08
:10AEA0006E780A2E1FD02C783444E4B2092C84BF6B
:10AEB0000A3CE4B2182606FB0454A261207103C9BF
:10AEC000A360049BE360AB7804F1100282E8030006
:10AED0000BB1002003E0FFF798FF1128F9D06B7841
:10AEE00001336B7070BD042070BD00BF8C2B00203F
:10AEF00007B500220B46009201460320FFF7CEFF64
:10AF000003B05DF804FBF0B51F4BD3F80C11C1B3CF
:10AF1000D3F81851D3F804616C1A04F007042246E0
:10AF2000242707FB026E704513D1D3F81C51012072
:10AF300090406840C3F81C010020D3F80861D3F8A2
:10AF40001CE14FF0010C624400250E4402F00702A0
:10AF50000AE0013202F007029542E2D11020ECE74C
:10AF600049B10139144601250CFA04F414EA0E0F14
:10AF7000A6EB0107F4D02DB1C3F80C11C3F808718A
:10AF8000F0BD0420F0BD00BF8C2B0020EFF3058343
:10AF9000C3F30803BBB1103B5AB2002AABBF02F1A6
:10AFA000604303F00F0303F56143094AACBF93F814
:10AFB0000033D35C5B09DBB2022B06D0062B0CBF3F
:10AFC000012002207047022070470020704700BF18
:10AFD00014ED00E0F8B51A4E3368054663B358B374
:10AFE00043694BB300210174FFF7D0FFD6F800E0AE
:10AFF000C4000EEB04071EF830007B7897F802C0FF
:10B000005A1CD2B2944508BF0022904216D003EBDE
:10B0100043037868DB00C71810D04FF0020E00F829
:10B0200003E033687D601C44064B62704FF480126D
:10B03000C3F800210846F8BD0820F8BD0420F8BD7B
:10B04000842D002000E100E02DE9F0412749284E41
:10B050000022C1F84021C1F84421C1F84821C1F8BB
:10B060004C21C1F80021C1F80421D6F82031002B71
:10B070003AD0D1F80415D6F824410C1B24F07F44B3
:10B08000154690461A68A24215D8A41A15441A7C8F
:10B09000DF696AB1D6F8282183F810802AB199694E
:10B0A0005869904720B101F07FFC5A699869904730
:10B0B0000FB13B46E6E796F82C1196F82D210C4B84
:10B0C0008A4206D10132D2B2022A08BF002283F896
:10B0D0002D2196F82D3106EB83034FF48012C3F82F
:10B0E0003051044BC3F80021BDE8F081001001404D
:10B0F0008C2B002000E100E0494B4FF40032C3F8F4
:10B10000802003F1C04303F53C534FF48032C3F871
:10B1100048232F21C3F8082301225A60084601382A
:10B1200000BF00BF00BF00BF00BF00BF00BF00BF27
:10B1300000BF00BF00BF00BF00BF00BF00BF00BF17
:10B1400000BF00BF00BF00BF00BF00BF00BF00BF07
:10B1500000BF00BF00BF00BF00BF00BF00BF00BFF7
:10B1600000BF00BF00BF00BF00BF00BF00BF00BFE7
:10B1700000BF00BF00BF00BF00BF00BF00BF00BFD7
:10B1800000BF00BF00BF00BF00BF00BF00BF00BFC7
:10B1900000BF00BFC3D19A60224B0022C3F8242114
:10B1A0000846013800BF00BF00BF00BF00BF00BF9E
:10B1B00000BF00BF00BF00BF00BF00BF00BF00BF97
:10B1C00000BF00BF00BF00BF00BF00BF00BF00BF87
:10B1D00000BF00BF00BF00BF00BF00BF00BF00BF77
:10B1E00000BF00BF00BF00BF00BF00BF00BF00BF67
:10B1F00000BF00BF00BF00BF00BF00BF00BF00BF57
:10B2000000BF00BF00BF00BF00BF00BF00BF00BF46
:10B2100000BF00BF00BF00BFC3D183F83821704713
:10B2200000E100E08C2B00202DE9F04F934C94F8C6
:10B230002C3194F82D21D4F824C19A4285B015D030
:10B240000133DBB2022B08BF002384F82C3194F8C1
:10B250002C3104EB8303D3F830010CEB000323F013
:10B260007F43C4F824310123029301E000200290BF
:10B27000D4F8203194F8395194F83A81DFF80492E7
:10B2800001930026013DEDB2FF2D3CD02BB2D9F841
:10B29000001001EBC30711F8333079789942F1D0EF
:10B2A00003EB430E796897F802B001EBCE0A013345
:10B2B00011F83E10DBB29B4508BF0023022906D0DF
:10B2C0000329EAD1D4F820114FF0000E0DE0D4F894
:10B2D00020E1DAF804B07146F2460029DDD08B4552
:10B2E00000F09D818A46C969F7E731B14FF000024D
:10B2F0000A744FF0010EC969F7E7BEF1000FCCD018
:10B30000C4F82011C9E70EB184F83A81029B23B139
:10B3100000221546594F964619E0019BD4F820614A
:10B32000029AF31A18BF012301931AE0DE68C3F8EA
:10B3300000E0401A0D44D969C7F820113EB10CEB6A
:10B34000050121F07F41DA6159609E601A46D4F808
:10B35000203123B119688142E8D9081A1860012305
:10B360000193D4F82031029394F8395194F83A318A
:10B37000DFF810C1DFF804E1039300274FF0010864
:10B38000013DEDB2FF2D7FD0DCF8003003EBC509A5
:10B3900012B11346D26928E099F8003099F80110EB
:10B3A0009942EDD003EB430A99F802B0D9F80400B2
:10B3B0000133DBB29B4589F8003008BF89F80020D3
:10B3C00010F83A30012B00EBCA01E5D14B68187C2C
:10B3D0000028E1D18E685E60CE689E600E69DE60F6
:10B3E00049699961039901B15860D3F804B0D4F860
:10B3F0002411234ED3F808A0C1EB0B0020F07F40AE
:10B40000B04202D85044186009E0CBEB010121F0B2
:10B410007F4151453ABFC1EB0A0119601F60D4F862
:10B4200020115F609F6083F81080DF6141B1186870
:10B43000D1F800A0504506D8C0EB0A000860D961D9
:10B44000CEF82031A4E78B46D1F800A0824509D27E
:10B45000CAEB0000D1F81CA08B46BAF1000F07D050
:10B460005146F1E7C0EB0A0AC1F800A08A465946E6
:10B470001860C3F81CA0CB618AE700BF8C2B0020AA
:10B48000FEFF7F00842D0020D4F82031029A9A42DA
:10B4900003D1019A002A00F0BC80002B00F0B78095
:10B4A0006E491F68D1F80455D4F8243194F8380156
:10B4B000EA1A22F07F42033200284DD14FF4803047
:10B4C000C1F84403C1F8040365484FF40036C0F8DE
:10B4D0008061066001260E602F20013800BF00BF8A
:10B4E00000BF00BF00BF00BF00BF00BF00BF00BF64
:10B4F00000BF00BF00BF00BF00BF00BF00BF00BF54
:10B5000000BF00BF00BF00BF00BF00BF00BF00BF43
:10B5100000BF00BF00BF00BF00BF00BF00BF00BF33
:10B5200000BF00BF00BF00BF00BF00BF00BF00BF23
:10B5300000BF00BF00BF00BF00BF00BF00BF00BF13
:10B5400000BF00BF00BF00BF00BF00BF00BF00BF03
:10B55000C3D1444880F8386197422CBFDA199A1851
:10B5600022F07F43C1F84035D1F804253B48521BF7
:10B5700022F07F425B1B033223F07F439A4248D97B
:10B58000D0F80435C0F840352F20013800BF00BF87
:10B5900000BF00BF00BF00BF00BF00BF00BF00BFB3
:10B5A00000BF00BF00BF00BF00BF00BF00BF00BFA3
:10B5B00000BF00BF00BF00BF00BF00BF00BF00BF93
:10B5C00000BF00BF00BF00BF00BF00BF00BF00BF83
:10B5D00000BF00BF00BF00BF00BF00BF00BF00BF73
:10B5E00000BF00BF00BF00BF00BF00BF00BF00BF63
:10B5F00000BF00BF00BF00BF00BF00BF00BF00BF53
:10B60000C3D1174B4FF40032C3F8002101E0FFF71C
:10B6100073FD002384F83A3105B0BDE8F08F514541
:10B620000ED1DEF81CE0C4F820E1BEF1000F07D116
:10B630000A4E0122B2600B4A0126C2F824E1B0464C
:10B64000D1F800E0C969CAF81C1000293FF425AE02
:10B650000A689644C1F800E01FE600BF00100140F0
:10B6600000E100E08C2B0020F8B50C46EFF31087CA
:10B6700072B63B4BD3F844610121AEB9C3F8441113
:10B680003849394DD1F880E00EEA0505C3F83C5140
:10B69000354DC1F88050D1F88450C3F840514FF077
:10B6A000FF35C1F8845000E00E4607B962B693F842
:10B6B000485193F84911B3F84A71C9B2B94238BF39
:10B6C0000131EDB234BFC9B200218D420CD093F8E4
:10B6D000495193F84911C9B28F4286BF0131C9B2AD
:10B6E000002183F8491101E04FF6FF75D3F84411AA
:10B6F0001B4F89B186B9EFF3108172B6DFF864E0B1
:10B70000D7F83CC1CEF800C0D7F840C1CEF804C08D
:10B71000C7F8446101B962B64FF6FF718D421CD083
:10B72000D3F84C310E4F43F83520EE00991988B10B
:10B7300084B10E4BB3F800E0D7F8503101462246F1
:10B7400005FB0E3001F00CFAD7F84C311E440020F6
:10B75000B480F8BD00208880F8BD0420F8BD00BF8B
:10B760008C2B002000E100E0FC06FFBC102E002026
:10B7700007B5084B1B88072B8DE8030005D9064A3F
:10B7800008216846FFF770FF00E0092003B05DF86C
:10B7900004FB00BF102E0020E1AD070008B501F04A
:10B7A00003F910B50D4C012323700D4B18884FF68B
:10B7B000FF73984204D0132100F078FD30B109E006
:10B7C00063781BB1FFF70EFA20B960700548FFF7E8
:10B7D00001FC08B101F0E8F810BD00BFE02C00202A
:10B7E00018270020EC2D002038B50D4C6578ADB938
:10B7F00018222946201DFDF7A5FE062000F0A8FD11
:10B800002823201D2571A5602573A382E582FFF7FB
:10B81000EBF908B101F0C8F80123637038BD00BF2F
:10B82000E02C0020F0B50388112BAFB0044618D0EF
:10B8300002D8102B05D03DE0122B33D0502B1ED058
:10B8400038E09F4B82881A8000F1180303CB9D4A91
:10B850009D4B1060516000221A709C4BDB894BBBE2
:10B8600026E0974B9A484FF6FF721A80964B0022BB
:10B870001A70FFF7AFFBE8B1944B9B690FE0934D53
:10B88000C288EB899A4215D1038A022B12D1837C9C
:10B89000DA070DD48E48FFF79DFB58B1AB694BB169
:10B8A000984707E000F1080303CB864A1060516017
:10B8B00000F0C4FC874DD5F88020002A00F0C68037
:10B8C0002388112B1ED004D8102B40F0BF80A388F2
:10B8D0001AE0502B02D0512B19D0B7E0E188B5F80F
:10B8E0006030994240F0878108238DF83830238AF0
:10B8F0008DF8403004F112030F930EA905F15800A2
:10B900009047A3E04FF6FF73A5F858309EE0A67964
:10B91000022E40F03C812289B5F868309A4240F00E
:10B920003681A37B043B022B40F231819DF83E30EF
:10B930008DF8386043F001038DF83E30238AADF86E
:10B940004030638AADF84230082204F1140300212C
:10B9500007A81193FDF7F6FD0023ADF81E3007AAE6
:10B9600001ABB5F86C10B5F85800ADF81C60089341
:10B9700000F062FC20B1D5F884302BB1984703E089
:10B980009DF80430DB0709D440F2FD130EA9B5F889
:10B990005800ADF83C3000F015FC52E000260EA92E
:10B9A000B5F85800ADF83C6000F00CFC002848D118
:10B9B000217D4B1E072B40D8DFE803F0040E1D1F2E
:10B9C00021233D25638A8DF81C60012B02D80622B5
:10B9D000012133E0012308E0628A01239A428DF8B5
:10B9E0001C3002D80622022128E08DF8243004F110
:10B9F0001503089319E0022315E0032313E0042341
:10BA000011E005230FE0638A022B02D803220821EC
:10BA100014E0A27D637D43EA0223ADF820300BB928
:10BA2000072300E006238DF81C30D5F880302A4823
:10BA300007A998470AE00923F5E70322264800F002
:10BA4000C5FB18B1D5F8843003B198472388142B6F
:10BA500000F0B2801ED8102B2BD008D8022B40F05B
:10BA6000CA801E4B00211888FFF7ACF8BEE0112BEE
:10BA700038D0132B40F0BF80194B01AC9A7918686D
:10BA800099888DF81A200590DA1DADF81810173333
:10BA900026463DE0512B7AD005D81A2B00F09B802A
:10BAA0001B2B5FD0A7E0522B00F09580552B50D078
:10BAB000A1E00A4BA2881A8000236B709BE000BFB4
:10BAC0000E2E0020BC2D0020E82D0020CC2D0020C3
:10BAD000EC2D0020E02C0020382D0020182700201D
:10BAE000FC2C00202EAA8023444C22F89C3D3223BB
:10BAF00063600EA901232088FFF766F8002878D13B
:10BB00002B780BB9FFF770FE4FF6FF73238072E0BE
:10BB100010685168254603C508329A422C46F7D171
:10BB2000374B07AA03F118071546186859681446D9
:10BB300003C40833BB422246F7D1186820602F485F
:10BB4000304A008813960EAB85211295FFF744F812
:10BB50004CE0A379002B4ED1284B1321188800F01C
:10BB6000A5FB43E0237A002B45D1244A6B70536830
:10BB7000013B536043B9FFF714FE002839D1224B33
:10BB8000032283F88D2036E0FFF72EFE33E0A37901
:10BB90008BB3A27B043A022A2DD8022B18BF0123B3
:10BBA0008DF838304FF4C173ADF83C30134B0EA90B
:10BBB000188800F007FB19E01148268AB5F84610EE
:10BBC0000023A0F111028E420CBF01461946A08845
:10BBD000FFF700F80AE0094B18884FF6FF73984208
:10BBE00006D000231A461946FEF7F0FF18B100E010
:10BBF000082000F0D9FE2FB0F0BD00BF18270020AC
:10BC0000142D0020682D0020E02C002061DF7047FB
:10BC100052DF7047094B1B78062B0CD1084B1B6871
:10BC20001A0708D1074B186800F0F000A0F13003A4
:10BC30005842584170470020704700BFE00F00F0A5
:10BC4000E40F00F0E80F00F00C4B1B78062B10D12E
:10BC50000B4B1B681A070CD10A4B186800F0F00355
:10BC6000302B08D000F0E000A0F1400358425841CA
:10BC70007047002070470120704700BFE00F00F0C0
:10BC8000E40F00F0E80F00F075DF7047F7B51B4ECA
:10BC900035687468B5FA85F5B4FA84F46D096409F9
:10BCA000374635BB01A8FFF7B3FF052804D088B994
:10BCB00033680198984700E00125BCB93389ADF895
:10BCC0000430F36801A91846FFF7A0FF05280446D1
:10BCD00006D008B100F068FE7A681846904700E088
:10BCE0000124002DDED0002CDBD004E0002DD9D0C3
:10BCF00001E0002CE2D003B0F0BD00BF702D0020A9
:10BD000008B511B1002000F04FFE034B1B7C13B1AE
:10BD1000BDE80840BAE708BD702D00200021024AA6
:10BD20000846FFF7A1BC00BF01BD070008B5AFF38F
:10BD3000008008BD2DE9F04F85B000240E9DBDF8B0
:10BD40003CB02F880191804691469A462646B8F825
:10BD50000020964235DAD8F8042052F826000390E5
:10BD600000220DF10B0103A8FFF745F8002836D19A
:10BD70009DF80B204A4522D12A88002C14BF0021AF
:10BD8000022102EB09000144594527DC4CB901327C
:10BD900092B29DF804302A800AF802302A880132D3
:10BDA0002A802A880DF10B01524403A8FFF723F8DB
:10BDB000A8B92A889DF80B100A442A80012401366C
:10BDC000C5E74CB12A88013AD21B92B2FF2A05D8A6
:10BDD0000AF80720002002E0204600E00C2005B011
:10BDE000BDE8F08F01444FF6FF73884210D010F881
:10BDF000012B5BBA9BB25340C3F30312534083EA57
:10BE000003331AB2530103F4FF5353409BB2ECE7E0
:10BE1000184670472DE9F843DFF89C80D8F81440A5
:10BE200006460F46002C3CD000283AD0042935D9CC
:10BE30004369002B35D0437C012B0CBF89464FF062
:10BE40000009FFF7A3F8C500611914F830004B781A
:10BE500091F802E05A1CD2B2964508BF00229042E7
:10BE600022D003EB43034968DB00CC181CD001202F
:10BE7000C8540F4B6660D3F80435A360D8F814306B
:10BE8000E7601D4400200B4BC4F8109060616A709D
:10BE90004FF48012C3F80021BDE8F8830720BDE805
:10BEA000F8830820BDE8F8830420BDE8F88300BFCC
:10BEB0000010014000E100E0702D002007B51C21BA
:10BEC0000848FFF715F840B9074A00901C23A2F173
:10BED00008010120FEF7E2FF08B100F065FD03B0A4
:10BEE0005DF804FB882D0020902D0020A2DF704714
:10BEF0002DE9F04381468FB0154698460E4611B99C
:10BF0000002000F051FD002AFAD01C220DEB0200A7
:10BF10000021FDF717FB9DF81C20ADF804900024CC
:10BF200042F002028DF81C200127214603226846B8
:10BF300008940A940B940C940D948DF80670FDF7F8
:10BF400001FB98F800308DF8003098F801308DF83A
:10BF500001309DF8023067F3420303F0E70364F316
:10BF600000032146142202A88DF80230FDF7EAFAF8
:10BF70000A48CDF80CD001AB029302AA169B808F21
:10BF8000ADF8105007A9ADF81240ADF81450069660
:10BF9000FFF7ACFF0FB0BDE8F08300BF702D0020AD
:10BFA000A0DF704708B5064B1A6C1AB1904730B144
:10BFB00000F0FAFC1B7C13B1BDE8084066E608BD42
:10BFC000702D002060DF704710DF7047BFF34F8F88
:10BFD0000549064BCA6802F4E0621343CB60BFF325
:10BFE0004F8F00BFFDE700BF00ED00E00400FA0541
:10BFF00008B5FFF70FFE10B1624B634A1A60FFF7F6
:10C0000023FE28B1614B624A1B68C3F342331360BD
:10C01000FFF700FE20B15F4AD36823F08073D3603E
:10C02000FFF712FE40B14FF080430022C3F80C210D
:10C03000C3F81021C3F83825FFF7ECFD10B1564BBB
:10C0400003221A60FFF7E6FD40B1544B05221A6047
:10C0500001229A6700229A603F225A60504B1B7857
:10C06000062B09D14F4B1B681B0705D14E4B1B6894
:10C0700003F0F003502B3DD04C4AD2F8883043F403
:10C080007003C2F88830BFF34F8FBFF36F8F4FF04C
:10C090001023D3F80022002A03DBD3F80432002B4C
:10C0A00024DA434B0122C3F80425D3F80024002AE4
:10C0B000FBD04FF010221521C2F80012D3F8002453
:10C0C000002AFBD04FF0102315223949C3F804226F
:10C0D000D1F80024364B002AFAD00022C3F80425F8
:10C0E000D3F80024002AFBD0FFF770FF314B324A0F
:10C0F0001A6008BD4FF08052304BD2F80414C3F8D8
:10C100002015D2F80814C3F82415D2F80C14C3F87B
:10C110002815D2F81014C3F82C15D2F81414C3F84B
:10C120003015D2F81814C3F83415D2F81C14C3F81B
:10C130004015D2F82014C3F84415D2F82414C3F8DB
:10C140004815D2F82814C3F84C15D2F82C14C3F8AB
:10C150005015D2F83014C3F85415D2F83414C3F87B
:10C160006015D2F83814C3F86415D2F83C14C3F83B
:10C170006815D2F84014C3F86C15D2F84424C3F8FB
:10C18000702579E774C007400DF0ADBA4402001085
:10C190003C050040F0ED00E0A005004010560040D6
:10C1A000E00F00F0E40F00F0E80F00F000ED00E019
:10C1B00000E00140202700200090D00300C0004094
:10C1C00063DF7047A8DF7047A6DF704730B50546CC
:10C1D00087B050B300884FF6FF73984227D0154CB4
:10C1E00094F844301BB384F846101023032184F8DC
:10C1F0004720ADF806101A46002102A884F8453001
:10C20000FDF7A0F92B8AADF8083001238DF80A302C
:10C210000023ADF80C3045340DF1060302A928883F
:10C2200004930594FFF7D0FF02E00E2000E0082001
:10C2300007B030BD702D0020A5DF704737B5194C11
:10C24000B4F84E30B4F854209A420FD8B4F85620BF
:10C250009A420BD3236F23B102A8012200F8042DC8
:10C260009847002384F89C3003B030BD94F89C308C
:10C270000C4D2BB12B6F002BF3D002A80022EDE761
:10C280002A6E6B6E95F8781005F17C0000290CBFC2
:10C2900011461946FFF7BEFD0028E2D06B6F002B58
:10C2A000DED1DEE7702D00207BDF704776DF704740
:10C2B00013B5184BB3F89E004FF6FF7290421C4620
:10C2C00025D093F8782093F868100132D2B29142C9
:10C2D00083F8782007D303F15401FFF7D5FCB0B100
:10C2E0005B6F9BB913E0002384F8783094F86C30CE
:10C2F00033B13B21FFF7DAFF10B1636F03B1984709
:10C30000236F23B102A8002200F8042D984702B041
:10C3100010BD00BF702D00202DE9F341089CBDF831
:10C32000245017468DE83000022206469846FFF753
:10C3300001FD48B943461022394630460995089414
:10C3400002B0BDE8F041F5E402B0BDE8F08100BF05
:10C350002DE9F041C34B9CB09B798DF80E3038220B
:10C36000044641F2305300210DEB0200ADF80C30D1
:10C37000FDF7E8F8012102220023ADF8401067071D
:10C3800003A98DF838208DF83A308DF83B40119193
:10C3900059D5ADF80A301B9B53B11B788DF81A3074
:10C3A0008DF81820032311228DF81920ADF80A30DA
:10C3B0001A9A002A56D19DF86620002A78D19DF855
:10C3C0006530002B41D19DF83A30002B40F0CC80F5
:10C3D0009DF83B00002840F0EE800F9A002A40F0C4
:10C3E0000581BDF84030002B40F01D81BDF848307C
:10C3F000002B40F02781BDF85030002B40F03481F5
:10C40000169A002A40F03F81179C002C40F063816F
:10C410009DF864306BB1189B002B00F0398200242A
:10C420000C26162706AD9DF86420E3B29A4200F26E
:10C43000A9819DF83830002B00F01282BDF8382019
:10C44000012A40F0D88107200AE0BDF80A300933FC
:10C450001F2B00F2268204A8FEF7D5FC00285AD034
:10C4600000F0A2FABDF80A3003F112011F2900F210
:10C4700018821CA91944112001F8580C591C1CA839
:10C4800010FA81F10233102001F8580CADF80A308F
:10C490001118BDF80A3011F8014D1CA8184491423A
:10C4A00003F1010300F8584CADF80A30F1D182E7EE
:10C4B000BDF80A30DC1C1F2C00F2F1811CA9C81841
:10C4C000022100F8581C1CAD581C15FA80F00B44D2
:10C4D0001C259BB2013A00F8585CADF80A30032ADB
:10C4E00000F2D681DFE802F002060A0F1CAA13440C
:10C4F00000220BE01CAA1344012207E01CAA1344EB
:10C5000003F8581C04E01CAA1344032203F8582C17
:10C51000ADF80A4053E7BDF80A001CAB03440822FB
:10C5200003F8582C431C1CAA12FA83F302301B2276
:10C5300003F8582C80B206ABADF80A0006220DF1C4
:10C540001101184400F00CFBBDF80A309DF81010E2
:10C550009A1D1CA810FA82F201B10121073302F8DA
:10C56000581CADF80A302EE7BDF80A3004331F2BF3
:10C5700000F2978104A8FEF742FC00287FF470AF18
:10C58000BDF80A301CAA1A44032102F8581C5A1C90
:10C590001CA911FA82F2192102F8581C991CBDF845
:10C5A000102006A889B2441842540433120A62705B
:10C5B000ADF80A300CE7BDF80A30D91C1F2900F28B
:10C5C00070811CAA1A44022402F8584C5A1C1CAC54
:10C5D00014FA82F2012402F8584C02331CAA12FA0F
:10C5E00083F3ADF80A1003F8580CF6E6BDF80A30EC
:10C5F000D91C1F2900F2558192F90000ADF80A10EC
:10C600001CAA1A44022402F8584C5A1C1CAC14FAF6
:10C6100082F20A2402F8584C02331CAA12FA83F35D
:10C6200003F8580CDDE61F2301930DF10A03009374
:10C63000062206AB022110A8FFF76EFE00283FF489
:10C64000D5AE0DE71F2301930DF10A0300930722D6
:10C6500006AB032112A8FFF75FFE00283FF4CBAE24
:10C66000FEE600BF382D00201F2301930DF10A03C1
:10C670000093152206AB142114A8FFF74DFE0028E5
:10C680003FF4BEAEECE6BDF80A309D1D1F2D00F252
:10C6900006811088052840F2FB806FF448668119F6
:10C6A00089B24FF27D36B14240F2F28051880529BD
:10C6B00040F2EE806FF448640C19A4B2B44240F228
:10C6C000E7804FF6FF74A0423CD0A1423AD08842A6
:10C6D00000F2DE8036E0A188BDF80A30881C9A1C82
:10C6E00015181F2D00F2DB80FE2800F2D8801CA850
:10C6F0001844033100F8581C591C1CA810FA81F189
:10C7000092B2FF2001F8580CADF80A20218806A843
:10C7100085188154090A69700433A2889BB2ADF868
:10C720000A30002A3FF474AEA168002900F0B080FE
:10C73000184400F015FABDF80A20A3881344ADF898
:10C740000A3065E61CA91944052001F8580C591C4B
:10C750001CA810FA81F1122001F8580C991C89B21A
:10C76000ADF80A101488ADF80A5006A846184454CB
:10C77000240A7470043352889BB2C118C254120A3E
:10C780004A7041E61899734301EB0308B8F8042096
:10C79000901CFE2800F28380BDF80A000DF1700E97
:10C7A000864403320EF8582C421C0DF1700E1EFA0E
:10C7B00082F202F8587C821C92B2ADF80A20CB5A61
:10C7C000AB54A9181B0A4B700430B8F8042080B28F
:10C7D000ADF80A006AB1D8F80810002958D02844EA
:10C7E00000F0BEF9BDF80A20B8F804301344ADF8E3
:10C7F0000A30013417E6BDF80A40A01C1F2850D8A3
:10C80000012B35D0C4F11D041CA9A4B206AB21F83C
:10C81000604D1844FEF7F1FA00287FF421AE9DF830
:10C820003830022B2BD0012B2DD19DF839309C4272
:10C8300029D3ADF810300821BDF81030FE2B30D8C8
:10C84000BDF80A201CA810440133013200F8583CFE
:10C8500092B21CA81044134400F8581CADF80A30DA
:10C8600000231A469DF80A1006A8FEF7CAFA10E03F
:10C870009DF83930234402331F2B12D8C2E7BDF88C
:10C880001030A34202D9ADF81040D4E70921D3E714
:10C89000072000287FF4E4AD1CB0BDE8F0810C2037
:10C8A000F7E70C20DCE500BF38B5274B9A781D462A
:10C8B000002A47D0002402289C7002D0032831D0DF
:10C8C00038BD1B782149182000FB03500A68806896
:10C8D0000132B0EB023F0A6019D86A780C60013A65
:10C8E0006A705A1CD2B2182404FB0354092A88BF68
:10C8F000A3F10902211D00202A70FEF7B9FA0023D6
:10C9000003222371A36022616361A361E3606B78FA
:10C910000D4CBBB1A378ABB9FEF777FA90B11128F3
:10C9200007D138BD1A78182101FB023104310D20DE
:10C9300004E02378182101FB03410431BDE83840AD
:10C94000FEF796BA38BD00BF8C2B0020802C00204B
:10C9500070B50C4600BB0968E1B11148814205463B
:10C9600010D0431A3B2B0AD801F13C03481E9842D1
:10C9700008D013F801695A1A2A445670F7E73C2286
:10C9800000F0EEF83C210648FFF72CFA054B188022
:10C99000002302E00E2300E00123236070BD00BFEE
:10C9A000807F0020BC7F002082B000230190ADF882
:10C9B000023000BEFEE7094A094B1360094AA8335A
:10C9C0001360094A00231370084A1370084B0822A9
:10C9D0001A80084B14221A80704700BFD82C002000
:10C9E000142E0020DC2C0020D52C0020D42C00207C
:10C9F000102E0020D62C002010B58CB0044610223A
:10CA0000002103A8FCF79EFD022303932C4B18681A
:10CA100000901CB103A8FEF705F9F0B94FF4F2201D
:10CA2000FEF7D6F9C8B9274B274A1A60274B284981
:10CA300048221A80274B284A1A606846FFF7C4FA32
:10CA400058B9264B01221A70254A92F81633C3F3BF
:10CA50004113012B03D842F20200FFF7A5FF214B3F
:10CA6000996821B11A6842F480021A6002E04FF41A
:10CA7000800313601422002107A8FCF763FD012343
:10CA8000ADF81C308DF824308DF825308DF8263027
:10CA90009DF8283043F001038DF82830124B0293A3
:10CAA0000CA9029B41F82C3D002207A80B92FFF72E
:10CAB00089FA0028D1D10D4A0D4B1A600CB010BD77
:10CAC00080CC07007C2D0020642F0020782D0020D2
:10CAD0002DBD0700B02D00201DBD0700802D0020BA
:10CAE00000E100E0C82C0020B8260020A9C80700FB
:10CAF000702D002045DF704744DF7047074A6FF014
:10CB000002039E4502D1EFF3098101E0EFF30881B2
:10CB10008869A0F102000078104700BF51C90700E2
:10CB200048DF70470649074A074B9B1A03DD043B61
:10CB3000C858D050FBDCFFF75BFAFCF78FFC000015
:10CB400090CC0700B826002030270020FEE7FEE743
:10CB5000FEE7FEE7FEE7FEE7FEE7FEE7FEE7FEE7AD
:10CB600010B5431E0A44914204D011F8014B03F85A
:10CB7000014FF8E710BD034613F8012B002AFBD143
:10CB8000181A013870470000F8B500BFF8BC08BC9F
:10CB90009E467047F8B500BFF8BC08BC9E4670477B
:10CBA00043000000B826002023D1BCEA5F7823159B
:10CBB000DEEF1212000000003130313033303030FF
:10CBC00031303000313031303330303032303000BD
:10CBD000313031303330303033303000313031307B
:10CBE0003330303034303000313031303330303069
:10CBF0003530300031303130333031303530300085
:10CC00003130313033303130363030003130313046
:10CC1000323030303130300031303130323030303D
:10CC2000323030003130313032303130303030005D
:10CC3000313031303230313031303000313031301C
:10CC40003230313033303000313031303430313007
:10CC5000303030003130313035303030303030002D
:10CC6000504341313030333600504341313030345D
:10CC700030004466755461726700312E342E3000E6
:08CC800000100200000000009A
:08CC8800D4C7FF7F010000008A
:10CC90000000000000000000000000000000000094
:10CCA0000000000000000000000000000000000084
:10CCB000A0CB070000000000000000000000000002
:10CCC0000000000000000000000000000000000064
:10CCD0000000000000000000000000000000000054
:10CCE0000000000000000000000000000000000044
:10CCF000FFFF0000320000000090D00325940700E1
:08CD000001940700000000008F
:020000020000FC
:020000041000EA
:041014000090070041
:0410180000E00700ED
:040000037000CB2599
:00000001FF
