:0200000270008C
:1090000000000120A1D10700C9D10700CBD1070082
:10901000CDD10700CFD10700D1D10700000000005B
:10902000000000000000000000000000AD950700F7
:10903000D5D1070000000000D7D10700D9D1070023
:10904000DBD10700DBD10700DBD10700DBD1070054
:10905000DBD10700DBD10700DBD10700DBD1070044
:10906000DBD10700DBD10700DBD10700DBD1070034
:10907000DBD10700DBD10700DBD10700DBD1070024
:10908000DBD1070081AF0700DBD10700DBD1070090
:1090900041B00700DBD1070055CC0700DBD107004A
:1090A000DBD10700DBD10700DBD10700DBD10700F4
:1090B000DBD10700DBD1070000000000000000004A
:1090C000DBD10700DBD10700DBD10700DBD10700D4
:1090D000DBD10700DBD10700DBD107000000000077
:1090E0000000000000000000000000000000000080
:1090F0000000000000000000000000000000000070
:10910000000000000000000000000000000000005F
:10911000000000000000000000000000000000004F
:1094000010B5054C237833B9044B13B10448AFF3BE
:1094100000800123237010BD3027002000000000D1
:1094200058D30700084B10B51BB108490848AFF3E3
:1094300000800848036803B910BD074B002BFBD020
:10944000BDE81040184700BF00000000342700208E
:1094500058D307002C27002000000000154B002BDC
:1094600008BF134B9D46A3F5803A00218B460F465B
:109470001348144A121A00F065F80F4B002B00D065
:1094800098470E4B002B00D0984700200021040085
:109490000D000D48002802D00C48AFF3008000F00A
:1094A0002BF82000290000F015F900F011F800BF9A
:1094B0000000080000000120000000000000000083
:1094C00030270020B42F0020000000000000000022
:1094D00008B5074B044613B10021AFF30080054BDC
:1094E0001868836A03B19847204600F033F800BF3C
:1094F0000000000020D2070070B50E4B0E4CE41A9D
:10950000A41000251E46A54204D056F825309847E1
:109510000135F8E703F076FE084C094BE41AA41075
:1095200000251E46A54204D056F82530984701353F
:10953000F8E770BD242700202427002028270020DA
:109540002427002002440346934202D003F8011B63
:10955000FAE77047FEE700BF70B50D4600BB09682B
:10956000E1B1114CA14211D0631A3B2B0AD801F191
:109570003C03481E984209D013F801695A1A224444
:109580005670F7E73C22204603F028FE00223C21DB
:10959000054802F0AFF80023A08702E00E2300E0A8
:1095A00001232B6070BD00BF807F0020074A6FF051
:1095B00002039E4502D1EFF3098101E0EFF3088138
:1095C0008869A0F102000078104700BF5995070094
:1095D00038B50546A8B10D4C00223C21204602F0CA
:1095E00089F8A38F83420ED1234604F13C0253F83D
:1095F000041B45F8041B9342F9D10130A0870020D9
:1096000038BD0E2038BD0B2038BD00BF807F002044
:1096100044DF704745DF704713DF704718DF70473E
:1096200002F0E8B982B089B20190ADF8021000BE34
:10963000FEE782B000230190ADF8023000BEFEE7E5
:1096400010B58AB004461022002101A8FFF77AFF66
:1096500002230193154B186800901CB101A8FFF775
:10966000DDFFF8B94FF4F220FFF7D6FFD0B9104B69
:1096700010494822684603F09FFA98B9012105AACB
:10968000084603F0F9FA68B99DF8203005A843F0C0
:1096900001038DF8203003F007FB18B9064803F0EA
:1096A000CFFA08B1FFF7C5FF0AB010BD24D20700FA
:1096B000D9CC0700642A00202196070008B5044A87
:1096C0001421082001F0CEFA08B1FFF7B2FF08BD5F
:1096D0001429002030B55A4B1B68B3F5F22F8DB01A
:1096E00001D000208BE04FF080531B69B3F5805F01
:1096F000F7D1302200216846FFF724FF684603F0C7
:1097000019FD9DF80F3003F0FD03012B2DD19DF8BD
:1097100004104FF0A04201F5E070032442F820400D
:109720009DF80E008B4010F0020F14BFC2F80835F0
:10973000C2F80C359DF80E30DB0716D59DF80610E3
:109740004FF0A04301F5E072032043F8220001220C
:1097500002FA01F1C3F80C159DF8051001F5E0744B
:109760008A4043F82400C3F80C25364B364A0521BD
:10977000002001F095FE0546002840D100F046F992
:109780004FF080420124D2F81C35C2F81C45422B10
:1097900007D001D87BB107E06A2B02D0B12B0CD0E7
:1097A00002E00024012508E05C1C4FF08043C3F870
:1097B0001C45002400E01C46254600F06FF984F0AB
:1097C000010458B100F07CF9C8B9E0B2FFF738FFE6
:1097D000FFF774FF00F093F928B110E0E0B2FFF753
:1097E0002FFFFFF76BFF1DB100F028F938B908E033
:1097F00043F20803186800F06BF840B9F4E7FFF78C
:1098000018FFFF20FFF706FF4020FFF701FF43F29C
:109810000804206800F05CF828B100F03FF910B9A6
:10982000206800F017F9BFF34F8F0849084BCA684A
:1098300002F4E0621343CB60BFF34F8F00BFFDE73C
:109840001410001061B607004C27002000ED00E066
:109850000400FA0548DF704711DF704713DF7047D7
:10986000064B1878012803D1012904BF0221197081
:1098700012B11046FFF7DDBE704700BFC82A0020B6
:1098800010B5064CFFF7E6FF08B1FFF7D2FE01F076
:1098900073FA2378023B022BF4D810BDC82A0020AB
:1098A00008B51C21084802F043F908B1FFF7C1FED2
:1098B00000231C220549044802F02AF918B1BDE82A
:1098C0000840FFF7B6BE08BDCC2A0020AC2A002015
:1098D00007B50368013301D1002014E001A800F0AE
:1098E0003DF9019B1A78012AF6D1588830B1996860
:1098F00043F208030022186801F0FCFE019B5B881C
:109900001B1A5842584103B05DF804FB84B02DE99E
:10991000F34108AC84E80F009DF82040BDF8228098
:10992000099F0A9E0B9D01A800F018F944B9354B18
:109930000122FF21A3F802809D601A7019713EE098
:10994000012C13D12F4BBA192A449A60A5221A7000
:10995000FF221A710C9AA3F80280DF601E615D611C
:109960009A61294B1C70FFF79BFF45E0032C0DD13A
:10997000019A244B11781970518892689A60AA2232
:1099800059801A71DF601E615D6117E0022C19D1E8
:10999000019A1C4B1178A52905D100225A809A60A2
:1099A000FF221A7004E019705188926859809A60F9
:1099B000FF221A710022DA601A615A610122124BE9
:1099C0001A70D0E7052C06D100F05CFF08B1FFF754
:1099D00030FE03220EE0042C09D10A4B00229A60CB
:1099E0005A80FF221A70019A12791A71BBE7062C6D
:1099F00002D10422044B1A7002B0BDE8F04104B059
:109A0000704700BFAC2A0020C82A00201FB50023E1
:109A100002930393074B019302F040F830B90649D3
:109A20004FF4FE2301A84B6002F05EF805B05DF82C
:109A300004FB00BF61980700CC2A002010B500F09D
:109A400005FA28B900F072FE0446FFF719FF204618
:109A500010BD000010B5FFF7FFFE08B1FFF7E9FDEC
:109A60000D4A10680023012404FA03F1014203F1B6
:109A7000010318BFC2F88010202BF5D143F2080370
:109A80001868FFF7EBFE1C4608B1FFF7D2FD20680F
:109A9000BDE8104000F068B800E100E007B501A89B
:109AA00000F05CF8019B1A78A52A05D01879A0F17E
:109AB000AA035842584100E0012003B05DF804FBBE
:109AC00010B500F004FC40B1642001F0D3FE00F0BA
:109AD00059FB38B1FFF7ADFD04E000F0B9FB0028F9
:109AE000F2D110BD00F0F3FB08B1FFF7A2FD00F0CA
:109AF0008CFB044608B1FFF79CFD204610BD10B555
:109B000088B003AC142200212046FFF71BFD02237E
:109B10008DF80C300023009394E80F00FFF7F6FE59
:109B2000FFF7AEFE002008B010BD13B5044601A833
:109B300000F014F8019B1A7822705A8862809A68A3
:109B4000A2601A792271DA68E2601A6922615A69A0
:109B500062619B69A36102B010BD0000014B03600C
:109B6000704700BF00F00700F0B50346186880F3A7
:109B700008885868FF2464B2EFF30585002D01D1F1
:109B8000A64600472546064621273FBAF0B40024E2
:109B9000002500260027F0B4F92040B2004700BF9E
:109BA000F0BD00BF18DF7047704700000129F8B50D
:109BB0000D4614461F4602D003290CD01AE0114B63
:109BC0001B78052B16D1104B1B689BB13A462146DA
:109BD000042098470EE00B4E3378022B0AD10B4B32
:109BE0005B689847084B35701E681EB13A4621469F
:109BF0002846B04724B12046BDE8F840FFF719BD1C
:109C0000F8BD00BFDC2A0020D42A0020242B00202D
:109C100000B5084B89B001221A7005238DF80C306D
:109C2000079B009303AB0FCBFFF770FE09B05DF805
:109C300004FB00BFE82A002000B589B003238DF89B
:109C40000C300A4B1B88ADF80E30094B5A68049251
:109C50009A68DB680693079B0093059203AB0FCBD2
:109C6000FFF754FE002009B05DF804FBDA2A00205B
:109C7000142B002000B589B001238DF80C300B4B5C
:109C80001B88ADF80E3043F208031A68084B596878
:109C900004919968DB6806930591009203AB0FCBA2
:109CA000FFF734FE002009B05DF804FBDA2A00203B
:109CB000142B002010B588B003AC142200212046DC
:109CC000FFF740FC04238DF80C300023009394E848
:109CD0000F00FFF71BFE08B010BD000008B50C4BCD
:109CE0000C4818600C4B02221A7043F208031968E2
:109CF000494221F4FF5121F01F0101F5E8214908F3
:109D000001F016FF18B1BDE80840FFF792BC08BD8E
:109D1000B02B0020EC2A0020DC2A002008B5084BDC
:109D200008481860084B02221A70084B196801F0A5
:109D3000FFFE18B1BDE80840FFF77BBC08BD00BFBF
:109D4000B02B0020E02A0020DC2A0020B82B0020C5
:109D500030B5154C1548E16889B001F0E9FE08B14D
:109D6000FFF767FC1249E26849681048002301F0D8
:109D7000CFFE0546A0B903AC014614222046FFF7EA
:109D8000E1FB0C4B8DF80C501B88ADF80E30064BE8
:109D9000DB680693079B009394E80F00FFF7B6FD7E
:109DA000284609B030BD00BF142B0020E02A002057
:109DB000EC2A0020DA2A002010B50C4B1B7883B95E
:109DC0000B4801F017FC08B1FFF733FC00224FF4F9
:109DD000F001074801F0CEFB044620B1FFF729FC53
:109DE00001E0082010BD204610BD00BFE82A002079
:109DF000F42A00207FB505460C46960803216846E4
:109E00008DE8220002940396FFF7CCFED8B1B4F59A
:109E1000805F11D8012368468DE8280002940396DC
:109E2000FFF7C0FE78B9032368468DE82800029446
:109E30000396FFF7B7FE06E01A46E11AE81AFFF7A5
:109E4000D9FF0028E6D004B070BD00007FB51F4BDD
:109E500001931F4B1F4E204D00241C701F4B02947A
:109E6000314601A81C80039401F03EFE034608B170
:109E70002C7029E043F20802194C1168716096E8D1
:109E8000030084E80300116816484A4222F4FF5296
:109E900022F01F0202F5E82201EB5202626019462D
:109EA000114A01F055FB08B1FFF7C3FB00224FF444
:109EB000F0010E4801F05EFB08B1FFF7BAFB0C4B56
:109EC0000020186001232B7004B070BDAD9B07000B
:109ED000D82A0020E02A0020DC2A0020DA2A0020EC
:109EE000EC2A002028D20700119C0700F42A002049
:109EF000B42B0020014B1860704700BFD42A00200B
:109F000038B54368294C0FCB84E80F0021784B0704
:109F100001D58D0742D16268244B90073ED19868E5
:109F200085073BD1DB689C0738D10244204D1A4499
:109F3000B0F5C04F2A6033D843F2080311F0010F87
:109F40001B680AD0C3F5E8239A4229D8194B1A4A4C
:109F50001A601A4A5A601A4A12E05B4223F4FF530D
:109F600023F01F0303F5E823B2EB530F18D8114B6E
:109F7000144A1A60144A5A608A074CBF134A144A9A
:109F80009A60144B1B78012B0CD1FFF715FF044688
:109F900050B9084B28681B68984705E0062038BD73
:109FA0000C2038BD082038BD204638BD142B0020B9
:109FB000B82B0020242B00201D9D0700B59C070016
:109FC000759C0700DD9C0700A99B0700399C0700D2
:109FD000519D0700DC2A0020F8B5064640B383688F
:109FE0009B0727D1154B1B78052B25D1144C4268B4
:109FF000144F236895003A682B44934204D94FF0DC
:10A00000FF3323600C20F8BDFFF7D6FEA8B90E4839
:10A010002368B16800682A4601F07AFD68B92068B3
:10A020002A1838682260824214BF09200020F8BD37
:10A030000E20F8BD1020F8BD0820F8BDDC2A002055
:10A04000B42B0020B82B0020B02B002070B50B4B98
:10A050001C687CB90A4E3378042B0BD1094D0A4891
:10A06000297800F05FF910B90523337003E02C70F4
:10A07000044600E00824204670BD00BFB42B002039
:10A08000DC2A0020D82A0020302B0020F8B5144B01
:10A090001A78032A074602D0042A02D018E00422C4
:10A0A0001A70104B1D689DB9FFF786FE90B90E4ED1
:10A0B0007C683378A4001A19802A0DD80B48B96837
:10A0C0002246184403F08AF833781C44347004E0C4
:10A0D000082502E0054600E009252846F8BD00BF36
:10A0E000DC2A0020B42B0020D82A0020302B0020AE
:10A0F00038B50D4C2378052B14D10C4B0C4D1A6838
:10A100002B689A420ED106232370FFF755FE50B9F3
:10A11000084B29681B68586800F046F918B90723EE
:10A12000237038BD082038BDDC2A0020B42B002065
:10A13000B82B0020B02B002010B5084B1B78072B44
:10A140000AD1074801F056FA08B1FFF772FA054B39
:10A15000BDE810409B681847082010BDDC2A00208D
:10A16000F42A0020242B002000B589B006238DF8A6
:10A170000C30079B009303AB0FCBFFF7C7FB09B075
:10A180005DF804FB10B58CB005A8FFF7CEFC089A6B
:10A19000002A37D00B9C02F58053A34226D943F204
:10A1A0000801A4F5805309688A424FEA530307D88F
:10A1B0005800121A00F580512044FFF71BFE20E0E2
:10A1C00003F5805001210290039001A801910491B0
:10A1D000FFF7E8FCA8B94FF480500290039001A863
:10A1E00001910491FFF7DEFC58B9E1E701230193E7
:10A1F00092084FF4805301A8029403930492FFF74E
:10A20000D1FC024610460CB010BD00B58DB005A8BB
:10A21000FFF78BFC0998C0B1089A62B943F20803B2
:10A220001A68534223F4FF5323F01F0303F5E82376
:10A2300002EB530301E00B9B1344800800220390C0
:10A2400001A801920293FFF7ADFC0DB05DF804FB8D
:10A2500000B58DB005A8FFF768FC099909B9002081
:10A2600032E0089A62B943F208031A68534223F4B1
:10A27000FF5323F01F0303F5E82302EB530301E030
:10A280000B9B13440322019289084FF4F22201A888
:10A29000029203930491FFF785FC0028DFD0089A0F
:10A2A00062B943F208031A68534223F4FF5323F0C0
:10A2B0001F0303F5F02302EB530301E00B9B134450
:10A2C00001A80393FFF76EFC0DB05DF804FB30B5F9
:10A2D0008DB005A8FFF729FC089808B30B9C00F582
:10A2E0008053A3420FD943F208031B68984216D843
:10A2F000A4F580535B085D00421B05F58051601991
:10A30000FFF778FD0CE003238008019304904FF4DD
:10A31000805301A802930394FFF744FC00E00E2051
:10A320000DB030BD0B2970B5044633D9038900EB5D
:10A3300043030A33C21A0A44D2B2012A2AD9014479
:10A340008B4227D81946164802F048FF154B1A8849
:10A350004FF6FF718A4202D0218891421CD15B885E
:10A360004FF6FF72934202D062889A4214D134F8B9
:10A37000081F00234FF6FE7043F20C058B420BD2F0
:10A3800034F8022F824209D02E88B24203F1010331
:10A39000F4D103E0092070BD0B2070BD002070BD1A
:10A3A000BC2B00208010001008B5002201F0A2F99B
:10A3B000044A5178137843EA0123984214BF0B20D2
:10A3C000002008BDBC2B00200068704770DF70477C
:10A3D00071DF704773DF704774DF704776DF704757
:10A3E0007ADF70477CDF70477FDF704786DF70471A
:10A3F000A8DF7047A9DF7047AADF704767DF7047A3
:10A400000C2813D8DFE800F01412121212120912ED
:10A410000712120D0B000220704703207047042022
:10A42000704704290CBF052006207047062070479E
:10A4300001207047FFF7FDB810B504460846032118
:10A44000FFF7DEFF03210246204602F01FF918B194
:10A45000BDE81040FFF7EDB810BD000010B5124B7D
:10A4600090B09B798DF80630044641F230530021BC
:10A47000382202A8ADF80430FFF764F802238DF803
:10A48000083001230021ADF8103002A801AB8DF88F
:10A490000A108DF80B40059301F0F0FD08B1FFF7AD
:10A4A000C8F810B010BD00BFD82B0020032810B58D
:10A4B0000B46144619D0042825D149B1124B1888EF
:10A4C0004FF6FF7398421ED01321FFF787FF15E068
:10A4D000104601F067F908B1FFF7ABF80B4B1B68AA
:10A4E0009C4210D10122032105E001211846FFF70B
:10A4F00087FF01210246064802F0C8F818B1BDE8FE
:10A500001040FFF796B810BD18270020C82B002078
:10A51000D82B002070B50E4B1D781E46B5B90D4CDA
:10A52000182229462046FFF70DF80620FFF796FF70
:10A530002823204625706560257223826582FFF7F7
:10A5400049FF08B1FFF775F80123337070BD00BFF4
:10A55000C72B0020542C0020F0B50446B1B001F008
:10A5600075FE2146684802F0C5F82388142B00F0D8
:10A57000AA801ED8102B2BD008D8022B40F0C28006
:10A58000624B00211888FFF739FFB6E0112B26D067
:10A59000132B40F0B7805E4B03AC9A79186899880A
:10A5A0008DF822200790DA1DADF8201017332646CB
:10A5B0002EE0512B72D005D81A2B00F093801B2B64
:10A5C00050D09FE0522B00F08D80552B41D099E068
:10A5D0004E4BA2881A804F4B00221A7092E030AA8C
:10A5E000802322F89C3D494C4B4B20883221196036
:10A5F000012310A9FFF700FF08B1FFF71AF8474B36
:10A600001B780BB9FFF786FF4FF6FF73238079E0C5
:10A6100010685168254603C508329A422C46F7D186
:10A620003F4B09AA03F118071546186859681446E4
:10A6300003C40833BB422246F7D118682060334870
:10A64000384A0088159610AB85211495FFF7CCFE8B
:10A6500053E0A379002B55D12C4B13211888FFF719
:10A66000BDFE4AE0237A002B4CD12A4A13702A4BB4
:10A6700019680139196071B910AC14222046FEF72F
:10A6800061FF05238DF84030149B009394E80F0080
:10A69000FFF73CF936E0FFF73DFF33E0A3798BB3DA
:10A6A000A27B043A022A2DD8022B18BF01238DF871
:10A6B00040304FF4C173ADF84430144B10A91888E2
:10A6C000FFF796FE19E0124A258A518D02F1180013
:10A6D00000238D420CBF014619460732A088FFF7C0
:10A6E00085FE0AE0094B18884FF6FF73984206D0A2
:10A6F00000231A461946FFF77DFE18B100E0082036
:10A70000FEF797FF31B0F0BDD82B002018270020AE
:10A710000E2C0020C72B00201C2700206C2C0020B2
:10A72000262C0020082C0020FEF783BF10B54A4AD3
:10A730004A48002313704A4A88B0137002F076FA30
:10A74000002840F087804748FFF7D4FB00F0EEFF79
:10A7500000287FD14448FEF73BFF01A8FFF738FEF1
:10A7600008B1FEF766FF01A90020FFF72FFE08B130
:10A77000FEF75FFF9DF800303C48012262F30303BF
:10A7800008AC62F3071304F8203D02F032FD3749AC
:10A7900082B22046FFF726FE08B1FEF74AFF0822E4
:10A7A000002101A8FEF7CEFE0923ADF804300C23EA
:10A7B000ADF806300023ADF8083001A84FF4C87397
:10A7C000ADF80A30FFF70CFE08B1FEF732FF00F0DB
:10A7D000AFF900210C2201A8FEF7B4FE0823ADF862
:10A7E0000430234B029301A9224B2348039301F029
:10A7F0008DFD08B1FEF71DFF1C22002101A8FEF708
:10A80000A1FE40F6CD42002302924FF48042019314
:10A810000392ADF8123003228DF81430069301A88C
:10A82000164B8DF81020079301F0D4FC08B1FEF709
:10A8300000FF134A1378032103F0F00361F30613BA
:10A840006FF3C71313700723537010239370FFF730
:10A8500061FE002008B010BD6C2C002059A5070037
:10A86000D42B0020ADA407000E2C00202CD2070012
:10A87000D9A8070035A40700D82B002029A7070076
:10A88000082C002010B5114B01221A70104B1888AB
:10A890004FF6FF73984206D01321FFF79FFD68B172
:10A8A000FEF7C7FE0AE00B4B1A781C4632B1FFF7E1
:10A8B00093FD08B1FEF7BDFE0023237001F0C0FC3C
:10A8C00008B1FEF7B6FE002010BD00BF6C2C0020C2
:10A8D00018270020C72B0020F0B50B7889B005465B
:10A8E0000C46092B00F21181DFE813F026002D0041
:10A8F00040000A0012001F00FA0002014400080193
:10A90000FFF7F6FB0421FFF77BFD0421024629E057
:10A91000FFF7B8FF08B1FEF78CFEFFF70DFC00282B
:10A9200000F0F380FFF720FCEFE0FFF7ABFF00281B
:10A93000F8D0FEF77EFEF5E7754B01221A704B68E2
:10A940001A78744B14E0724B02261E704B681B7809
:10A95000012B40F0DA80FFF779FB3146FFF750FD1D
:10A9600002463146284601F091FECBE0684B0322B7
:10A970001A70CAE0664B1E78022E2BD0032E51D0DF
:10A98000012E40F0C28004AF102200213846FEF7AD
:10A99000D9FD604B02971B788DF81030002303938C
:10A9A000237A03220C2B0192DBD163681846FFF750
:10A9B0000BFD0590181DFFF707FD069003F1080039
:10A9C000FFF702FD079001A8FFF79AFA002800F0B0
:10A9D0009C80C2E70B7A13F0030111D00022C1F171
:10A9E000040696469818C0B267680132964207F886
:10A9F00000E0F7D10133C1F1030151FA83F323726F
:10AA00000123049363680693237A04A89B080593A3
:10AA1000FFF73CFB002878D00221FFF7F1FC022170
:10AA200002469FE7087A830702D03246314699E70B
:10AA3000394E0190314600F08DFE014600284BD181
:10AA40006168019A306802F0C9FB019800F0E4FEE9
:10AA50000146002840D101A9304600F0EBFE014636
:10AA6000002839D104230493019B9B08059304A873
:10AA700033680693FFF7B0FA074640B9274A217AB0
:10AA800013680B441360264B32681A603DE00928B6
:10AA900019D1224A217A13681944224B11601B787C
:10AAA000002B32D0204A1388013B9BB213801446FE
:10AAB0005BBB284601F0B0FD08B1FEF7BAFD1B4BA9
:10AAC0001B88238021E0306800F06CFE014610B145
:10AAD0002846FFF7B1FC39462846FFF7ADFC14E0E5
:10AAE000104B01221A70114A8B8813800E4A03E022
:10AAF0000C4A002313700D4A138006E0074B1968B7
:10AB000001F04EFD08B1FEF794FD09B0F0BD00BFA5
:10AB1000D42B0020C62B0020D02B0020502C00204E
:10AB2000C82B00204C2C0020CC2B00204A2C0020CD
:10AB300000B591B0402200216846FEF703FD4FF0BA
:10AB40001023D3F884305A1C31D040F2DC529342A7
:10AB500029D040F2DD52934227D040F2DE52934298
:10AB600025D0B3F57A7F24D040F2E932934222D047
:10AB700040F2EA32934220D040F2EB3293421ED0B0
:10AB8000B3F57B7F1DD0642B1DD0F3B1012B1ED0FC
:10AB9000282B1ED0292B1ED04B21214A0120FEF745
:10ABA00041FD204918E0204916E0204914E02049E1
:10ABB00012E0204910E020490EE020490CE0204935
:10ABC0000AE0204908E0204906E0204904E0204945
:10ABD00002E0204900E0204906A801F055FE08A83F
:10ABE0001E4901F051FE9DF83C30012262F303033F
:10ABF00062F307138DF83C309DF83D3003F0F0030D
:10AC00006FF3071368468DF83D3002F0CBF818B1AA
:10AC1000134A2521FEF706FD11B05DF804FB00BFC5
:10AC2000DBD20700D3D2070034D2070040D207009E
:10AC30004CD2070058D2070064D2070070D2070038
:10AC40007CD2070088D2070094D20700A0D2070068
:10AC5000ADD20700C1D20700CAD2070022D3070035
:10AC600028D3070010B512F0030411D1094B1A6064
:10AC70004B1CDB009BB21A44074B1A60074B1C703D
:10AC8000074B1C70074B1880074B1980204610BDDE
:10AC9000072010BD702C0020742C00207B2C00207D
:10ACA0007A2C0020782C00207C2C00202DE9F34702
:10ACB0002B4D2B888B4206460C4617464AD302A8DA
:10ACC0004FF0000800F8018D00F0D8FC254B264A13
:10ACD00018781178CBB2254909888B4238BF0133E7
:10ACE000C0B238BF5FFA83F840450AD092F80080BE
:10ACF0001378DBB2994286BF0133DBB200231370B5
:10AD000001E04FF6FF789DF8070000F0DDFC4FF6FC
:10AD1000FF73984520D0DFF85CA0DAF800304FEAE6
:10AD2000C80903EB090243F8387086B17CB1104BB7
:10AD300028881B68224608FB0030314602F04EFA94
:10AD4000DAF8003099440020A9F8044005E000201A
:10AD5000908002E0092000E0042002B0BDE8F08706
:10AD6000782C00207A2C00207B2C00207C2C0020CA
:10AD7000742C0020702C0020F8B5124C124E254681
:10AD8000227833789A421CD0104922782378098897
:10AD90000F48DBB2994286BF0133DBB200232B7030
:10ADA0000C4B07881B680C48D2B211B203EBC10EE2
:10ADB000006853F83130BEF8041002FB07009847D2
:10ADC000DEE7F8BD7A2C00207B2C00207C2C0020B4
:10ADD000782C0020702C0020742C0020494B4FF45C
:10ADE0000032C3F8802003F1C04303F53C534FF415
:10ADF0008032C3F848230121C3F808232F22596069
:10AE00001046013800BF00BF00BF00BF00BF00BF39
:10AE100000BF00BF00BF00BF00BF00BF00BF00BF3A
:10AE200000BF00BF00BF00BF00BF00BF00BF00BF2A
:10AE300000BF00BF00BF00BF00BF00BF00BF00BF1A
:10AE400000BF00BF00BF00BF00BF00BF00BF00BF0A
:10AE500000BF00BF00BF00BF00BF00BF00BF00BFFA
:10AE600000BF00BF00BF00BF00BF00BF00BF00BFEA
:10AE700000BF00BF00BF00BFC3D1996022490023BB
:10AE80000B601046013800BF00BF00BF00BF00BF0D
:10AE900000BF00BF00BF00BF00BF00BF00BF00BFBA
:10AEA00000BF00BF00BF00BF00BF00BF00BF00BFAA
:10AEB00000BF00BF00BF00BF00BF00BF00BF00BF9A
:10AEC00000BF00BF00BF00BF00BF00BF00BF00BF8A
:10AED00000BF00BF00BF00BF00BF00BF00BF00BF7A
:10AEE00000BF00BF00BF00BF00BF00BF00BF00BF6A
:10AEF00000BF00BF00BF00BF00BFC3D1034A137033
:10AF0000704700BF00E100E0802C0020A02C002052
:10AF1000437882780133DBB29A4208BF002302787B
:10AF20009A421FBF0B70437803EB4302436814BF80
:10AF300003EBC20000207047EFF30583C3F308035F
:10AF4000BBB1103B5AB2002AABBF02F1604303F021
:10AF50000F0303F56143094AACBF93F80033D35C98
:10AF60005B09DBB2022B06D0062B0CBF01200220AE
:10AF70007047022070470020704700BF14ED00E0CA
:10AF80002DE9F0412649274B0022C1F84021C1F8A4
:10AF90004421C1F84821C1F84C21C1F80021C1F871
:10AFA00004211B68002B38D01F48D1F80415046811
:10AFB000DFF888800C1B24F07F44154617461A687A
:10AFC000A24215D8A41A15441A7CDE696AB1D8F8D1
:10AFD00000201F7432B199695869904728B1FEF773
:10AFE00028FB02E05A69986990470EB13346E6E7BC
:10AFF0000E4B0F4A197813788B4205D10133DBB21F
:10B00000022B08BF0023137012780A4B43F822501A
:10B01000094B4FF48012C3F80021BDE8F08100BF56
:10B0200000100140842C0020802C0020942C002053
:10B03000952C0020982C002000E100E0882C0020B6
:10B040002DE9F04F8F49904A90480B68007887B0FF
:10B0500003931378984210D00133DBB2022B08BF60
:10B060000023137012788A4B53F82250039B2B4411
:10B0700023F07F430B60012701E000252F46854B1D
:10B080001B680293844B02981C78844B1B680193C5
:10B090000B680593824B002193F8008004912646AB
:10B0A0008946013EF6B2FF2E33D033B2019A02EB4D
:10B0B000C30E12F8332003469EF801C0944518468B
:10B0C000EFD002EB420CDEF804009EF802B000EB79
:10B0D000CC0A013210F83C00D2B2934508BF0022DE
:10B0E000022802D00328E7D10BE0DAF804A01846C2
:10B0F0009C460028E0D0824500F0A2818446C069C9
:10B10000F7E7002BD8D04FF000011974DB6901215B
:10B11000F7E7B9F1000F02D0614B83F80080049B80
:10B1200013B1584B059A1A605A4A01B1106013685E
:10B130003FB90299B3EB010E18BF4FF0010E38462C
:10B1400023E0002108468E468C46D3B11E68AE42ED
:10B1500004D901B11360751B1D6014E0AD1BB6442A
:10B16000DE68C3F800C0D3F81C803EB10399D861F3
:10B17000714421F07F4159609E601846434639462C
:10B18000E3E701B113604FF0010E3E4BD2F800909F
:10B19000D3F800A0424B4FF0000C1B7802934946B5
:10B1A000E046013CE4B2FF2C7ED0019B0A4603EB53
:10B1B000C40610B10346C06924E0337875789D4217
:10B1C0001146EED003EB430796F802B075680133E1
:10B1D000DBB29B45337008BF307015F83730012B58
:10B1E00005EBC70148D14B681D7C002D44D18F6809
:10B1F0005F60CF689F600F69DF604969996102995C
:10B2000001B15D605968274FCAEB010525F07F4504
:10B21000BD429F6802D83D441D6009E0C1EB0A01B0
:10B2200021F07F41B9423ABF791A1960C3F8008012
:10B230004FF00101C3F80480C3F808801974C3F803
:10B240001C80DAB11D6811688D4203D84D1B156052
:10B25000DA6113E0934611460F68AF4205D2ED1B49
:10B26000CF698B462FB13946F6E77F1B0F600F463B
:10B2700059461D60DF61CB61134601E04FF0010CC0
:10B280001A4696E7802C0020942C0020952C002054
:10B29000982C0020842C00208C2C0020902C002046
:10B2A000962C0020FEFF7F00774BBCF1000F00D0F2
:10B2B00019601B68994503D1BEF1000F00F0BA80F8
:10B2C000002B00F0B5801F687049714BD1F8044520
:10B2D0001B68704DE21A287822F07F420332002862
:10B2E0004BD14FF48030C1F84403C1F804036A48DD
:10B2F0004FF40036C0F88061066001260E602F20F2
:10B30000013800BF00BF00BF00BF00BF00BF00BFCB
:10B3100000BF00BF00BF00BF00BF00BF00BF00BF35
:10B3200000BF00BF00BF00BF00BF00BF00BF00BF25
:10B3300000BF00BF00BF00BF00BF00BF00BF00BF15
:10B3400000BF00BF00BF00BF00BF00BF00BF00BF05
:10B3500000BF00BF00BF00BF00BF00BF00BF00BFF5
:10B3600000BF00BF00BF00BF00BF00BF00BF00BFE5
:10B3700000BF00BF00BFC3D12E7097422CBFDA19A7
:10B380009A1822F07F43C1F84035D1F804253F4890
:10B39000121B22F07F421B1B033223F07F439A4291
:10B3A00048D9D0F80435C0F840352F20013800BF07
:10B3B00000BF00BF00BF00BF00BF00BF00BF00BF95
:10B3C00000BF00BF00BF00BF00BF00BF00BF00BF85
:10B3D00000BF00BF00BF00BF00BF00BF00BF00BF75
:10B3E00000BF00BF00BF00BF00BF00BF00BF00BF65
:10B3F00000BF00BF00BF00BF00BF00BF00BF00BF55
:10B4000000BF00BF00BF00BF00BF00BF00BF00BF44
:10B4100000BF00BF00BF00BF00BF00BF00BF00BF34
:10B4200000BFC3D11C4B4FF40032C3F8002101E030
:10B43000FFF7D4FC194B00221A7007B0BDE8F08F5B
:10B44000604511D1D3F81CA0BAF1000F02D05346C9
:10B45000012109E00D4901238B60194604915346EF
:10B46000CDF814A089468846D0F81CB0D0F800A0CA
:10B47000CCF81CB0BBF1000F3FF41EAEDBF80000AF
:10B480005044CBF8000017E6842C00200010014047
:10B49000802C0020A02C002000E100E0962C002051
:10B4A0002DE9F84312F003050746884614469946ED
:10B4B0003BD11F4E0AB9326037E0FFF78FFC1D4ABF
:10B4C0001D4BC2F8009003221A70346004F1180278
:10B4D00008EB4806F600114662602570657084F836
:10B4E000028008348C424FF000033244F4D1134AF6
:10B4F0001360134A1370134A1370134A4FF48011E8
:10B50000C020C2F8801182F81403116001F180415B
:10B51000A1F56F21C1F8087582F811030B4AD1F823
:10B52000041511601846BDE8F8830720BDE8F883CC
:10B53000902C0020882C00208C2C0020842C0020B3
:10B54000942C0020952C002000E100E0802C0020AD
:10B55000074B1B684BB132B128B10368187C20B986
:10B5600059745A617047072070470820704700BF20
:10B57000902C00202DE9F3411B4B1C6805460E461C
:10B5800017466CB360B3042928D9436943B3437C9D
:10B59000012B0CBF88464FF00008FFF7CDFC04EBF1
:10B5A000C0040DF107012046FFF7B2FCA0B1012352
:10B5B00003700E4B4560D3F8043583609DF8073067
:10B5C000C660C0F8108047616370094B4FF4801269
:10B5D000C3F80021002004E0042002E0072000E07E
:10B5E000082002B0BDE8F081902C0020001001403E
:10B5F00000E100E073B5124B1D680646EDB1E0B105
:10B600004369D3B100240474FFF796FC05EBC00531
:10B610000DF107012846FFF77BFC60B102230370A0
:10B620009DF8073046606B70064B4FF48012C3F8EC
:10B630000021204602E0042000E0082002B070BD96
:10B64000902C002000E100E0082910B5044602D04B
:10B650000020FDF7EEFF23686068BDE81040184742
:10B6600007B5054A8DE8030008216846FFF71EFB71
:10B6700003B05DF804FB00BF49B6070070B5EFF3F7
:10B68000108572B60D4A9468012394B993600C4BEF
:10B690000C49D3F88060314011600A49C3F880102A
:10B6A000D3F8841051604FF0FF32C3F88420047047
:10B6B00000E0037005B962B670BD00BFA82F00207E
:10B6C00000E100E0FC06FFBC10B5084B9A685AB1D7
:10B6D00050B9EFF3108272B605491C680C605C68C3
:10B6E0004C60986002B962B610BD00BFA82F002060
:10B6F00000E100E00AB1138801E04FF6FF73014456
:10B70000884210D010F8012B5BBA9BB25340C3F3B0
:10B710000312534083EA03331AB2530103F4FF5375
:10B7200053409BB2ECE7184670470000064B074AAF
:10B7300000201870064B1A6008225A609860D86082
:10B740001861586198617047E02D0020A42C0020FA
:10B75000C42D002030B5E1B1114B5C6800220A60B5
:10B76000CCB1202819D8D8681D680130013CD860B8
:10B7700018695C60242404FB00540C609C6901215E
:10B7800081400130214300F00700186199611046A3
:10B7900030BD0E2030BD042030BD0C2030BD00BFB8
:10B7A000C42D0020F0B51B4B996889B35D691E68F4
:10B7B0006C1A04F007042246242707FB026E70452A
:10B7C00010D19D69012090406840986100205E681A
:10B7D000D3F818E04FF0010C624400250E4402F04B
:10B7E00007020AE0013202F007029542E5D110207B
:10B7F000EDE749B10139144601250CFA04F414EAC5
:10B800000E0FA6EB0107F4D01DB199605F60F0BD8B
:10B810000420F0BDC42D002005490B69013B03F055
:10B8200007020B68242101FB0233186200207047D5
:10B83000C42D002030B5B0B1A9B10D4BDA68A2B16A
:10B84000013ADA609A681D6801329A605A692424C4
:10B8500004FB02540132046002F00702206A5A61BC
:10B860000860002030BD0E2030BD042030BD00BF78
:10B87000C42D002082B00190019B002B41D0019B80
:10B88000013B019340F2E730013800BF00BF00BF29
:10B8900000BF00BF00BF00BF00BF00BF00BF00BFB0
:10B8A00000BF00BF00BF00BF00BF00BF00BF00BFA0
:10B8B00000BF00BF00BF00BF00BF00BF00BF00BF90
:10B8C00000BF00BF00BF00BF00BF00BF00BF00BF80
:10B8D00000BF00BF00BF00BF00BF00BF00BF00BF70
:10B8E00000BF00BF00BF00BF00BF00BF00BF00BF60
:10B8F00000BF00BF00BF00BF00BF00BF00BFC3D17B
:10B90000BAE702B0704729DF704728DF70470000B0
:10B9100037B50B460C465A6814F80C1BDD680092CC
:10B92000044A5B6952F8255002462046A84703B0F6
:10B9300030BD00BFD82E002038B5174C2378182210
:10B9400002FB03431A795869012A0DD0032A21D139
:10B950004FF080531B699BB2B0FBF3F00F4B1B6899
:10B960001844FFF7D2FF11E00C4A996915689A68EC
:10B97000DB682D03521BB2F5805F1844294428442C
:10B9800034BF92084FF48062FFF7BDFF18B901235E
:10B99000A37038BD0F2038BDE42D0020E82E002014
:10B9A00070B5134D6E780A2E1FD02C783444E4B253
:10B9B000092C84BF0A3CE4B2182606FB0454A26199
:10B9C000207103C9A360049BE360AB7804F110020B
:10B9D00082E803000BB1002003E0FFF7ADFF112860
:10B9E000F9D06B7801336B7070BD042070BD00BF5F
:10B9F000E42D002038B5274B9A781D46002A47D001
:10BA0000002402289C7002D0032831D038BD1B7856
:10BA10002149182000FB03500A6880680132B0EB0E
:10BA2000023F0A6019D86A780C60013A6A705A1CA1
:10BA3000D2B2182404FB0354092A88BFA3F10902D7
:10BA4000211D00202A70FFF763FF002303222371CA
:10BA5000A36022616361A361E3606B780D4CBBB1AD
:10BA6000A378ABB9FFF768FF90B1112807D138BDB3
:10BA70001A78182101FB023104310D2004E02378EB
:10BA8000182101FB03410431BDE83840FFF740BFF6
:10BA900038BD00BFE42D0020E82E00200E4B002210
:10BAA00010B51A600D4B03241A705A709A7003F186
:10BAB000F0011A719A601C615A619A61DA60183358
:10BAC0008B424FF00000F4D1054B1860054B186015
:10BAD0005860986010BD00BFE82E0020E42D0020C3
:10BAE000E42E0020D82E0020074A1368032B1FBF26
:10BAF0000B60591C1160054A1DBF016842F82310F4
:10BB000000200420704700BFE42E0020D82E002023
:10BB100013B5CC180C43A40707D1009313460A466B
:10BB200001460120FFF73CFF00E0102002B010BDED
:10BB300007B500220B46009201460320FFF730FFB5
:10BB400003B05DF804FB71DF704772DF704779DF87
:10BB500070477DDF704765DF70472DE9F74F0C9D1B
:10BB6000BDF834B02F88002480468A469146264688
:10BB7000B8F80020964233DAD8F8042052F82600AC
:10BB8000019000220DF1030101A8FFF7E4FF002856
:10BB900033D19DF803204A4520D12A88002C14BFB8
:10BBA0000021022102EB09000144594524DC3CB983
:10BBB000013292B22A8003F802A02A8801322A8038
:10BBC0002A880DF103011A4401A8FFF7C4FFA0B9A8
:10BBD0002A889DF803100A442A8001240136C7E709
:10BBE00044B12A88013AD21B92B2FF2A04D8DA550E
:10BBF000002002E0204600E00C2003B0BDE8F08FFA
:10BC00002DE9F341089CBDF8245017468DE830001B
:10BC100002220646FFF7A1FF48B9102239463046F6
:10BC20000995089402B0BDE8F041FFF796BF02B055
:10BC3000BDE8F0812DE9F04F002316881380436B97
:10BC400085B007460D4614469BB1022E40F2128283
:10BC50001A7802230B70238801339BB211212380B1
:10BC6000E954238801339BB22380EA5423880133AB
:10BC700023803A6B22B997F82E20002A41D01CE08D
:10BC8000238803F11201B14200F2F4811121E95439
:10BC9000238801339BB210212380E9542388013388
:10BCA00023805318218813F8010D6854218893428A
:10BCB00001F101012180F5D1DDE72388D91CB142D2
:10BCC00000F2D8810221E954238801339BB21C2061
:10BCD0002380E854238801339BB2013A2380032A4E
:10BCE00000F2C681DFE802F002040608002204E048
:10BCF000012202E0E95401E00322EA5423880133DF
:10BD0000238097F82D301BB9BB78002B4CD02AE04C
:10BD100023880933B34200F2AD8102A8FFF713FF75
:10BD2000002840F0A88123880822EA5423880133A0
:10BD30009BB21B222380EA542088013080B22080ED
:10BD400006220DF10901284401F048FA23889DF8E4
:10BD5000082006339BB2238002B10122EA542388D3
:10BD600001332380D0E723880433B34200F2828179
:10BD700002A8FFF7ECFE002840F07D812388032213
:10BD8000EA54238801339BB219222380EA54238882
:10BD9000BDF8082001339BB2E9182380EA54120A47
:10BDA0004A70238802332380FA78A2B12388D91CF1
:10BDB000B14200F25F810221E954238801339BB232
:10BDC00001212380E95423880B449BB22380EA5449
:10BDD00023880B4423807A68B2B12388D91CB142EE
:10BDE00000F24881022192F90020E95423880133AE
:10BDF0009BB20A212380E954238801339BB223801C
:10BE0000EA542388013323803B8913B93B8AC3B1A9
:10BE10000BE08DE850002B460622022107F10800B6
:10BE2000FFF7EEFE0028F1D025E18DE850002B460B
:10BE30000722032107F11000FFF7E2FE002840F07F
:10BE40001A813B8B5BB18DE850002B4615221421E3
:10BE500007F11800FFF7D4FE002840F00C813A6A81
:10BE6000002A46D0B4F800E00EF10603B34200F217
:10BE700001811188052940F2FB806FF4486C01EBC9
:10BE80000C039BB24FF27D3C634540F2F180538836
:10BE9000052B40F2ED806FF44860181880B26045C1
:10BEA00040F2E6804FF6FF70814204D0834202D018
:10BEB000994200F2DD80052305F80E302388013316
:10BEC0009BB212212380E954238801339BB2238043
:10BED0001188E954E818090A4170238802339BB29B
:10BEE00023805288EA54E918120A4A7023880233E0
:10BEF0002380D7F82480B8F1000F31D0B8F804308F
:10BF000021881A1D0A44B24200F2B4809A1CFE2A0B
:10BF100000F2B08003336B54238801339BB2FF22BD
:10BF20002380EA54238801339BB22380B8F8002091
:10BF3000EA54E918120A4A702088023080B2208040
:10BF4000B8F8042062B1D8F80810002900F09080F9
:10BF5000284401F043F92288B8F8043013442380C0
:10BF600097F82C3023B93878002800F0848040E01E
:10BF7000BB6A002B7CD04FF000094FF00C0A4FF049
:10BF8000160B97F82C305FFA89F29342EBD9B96A15
:10BF90000AFB02F201EB0208B8F80430981CFE28F4
:10BFA00068D8208803332B54238801339BB2238025
:10BFB00005F803B0238801339BB223808A5AEA54E0
:10BFC000E918120A4A702088023080B22080B8F83E
:10BFD00004205AB1D8F80810002949D0284401F0AB
:10BFE000FDF82288B8F804301344238009F10109D0
:10BFF000C7E73B88012B3BD0228802F1020EB645F1
:10C0000038D8012804D17B78023313449E4231D3BF
:10C01000023EB61A04A9B6B221F8086D05EB0E006F
:10C02000FFF797FD38BB3B78022B04D1BDF80830F1
:10C03000B3420CD907E0012B05D17B789E4202D395
:10C04000ADF8083001E0ADF80860082100E00921F2
:10C05000BDF80820FE2A0DD823880132EA5423882F
:10C0600001339BB22380E95423881A44228002E0E2
:10C07000072000E00C2005B0BDE8F08F30B593B08C
:10C080001F230D46ADF80430ADF8063020B1C3785B
:10C090005B0714D4072022E0ADF8040004461DB16C
:10C0A000EB78002BF6D111E0ADF806502A469DF84A
:10C0B00006309DF804102046FFF747FD0FE001AA67
:10C0C00002A9FFF7B7FD50B902ACE8E70DF106028F
:10C0D0000AA92846FFF7AEFD08B90AAAE7E713B098
:10C0E00030BD75DF704776DF70477ADF70477BDFE2
:10C0F0007047000037B5154B18884FF6FF7398420C
:10C1000022D0134A134D1378297B0133DBB29942B5
:10C1100013702C4606D31049FFF7E3FFA0B1AB69BB
:10C120008BB911E0002313702B7C33B13B21FFF757
:10C13000DAFF10B1AB6903B19847636923B102A874
:10C14000002200F8042D984703B030BD342F0020A2
:10C15000F62E0020F82E0020362F002037B5174B82
:10C16000174A5B881188174C174D99420DD8528891
:10C170009A420AD3636923B102A8012200F8042D70
:10C18000984700232B7003B030BD2A782AB1636929
:10C19000002BF6D002A80022F0E70C486168007876
:10C1A000A368002818BF19460948FFF7E3F90028DB
:10C1B000E7D0A369002BE3D1E3E700BFEE2E002018
:10C1C000362F0020F82E0020EC2E0020F62E002026
:10C1D000142F002070B5054606460FCD114C0FC434
:10C1E00095E80700104B84E8070000221A703268B7
:10C1F0000E489AB11368036053684360FFF775FFF8
:10C2000078B90B4B0B484FF6FF721A800A4B0B4A5A
:10C2100000211970BDE87040FFF79AB9FFF767FF7A
:10C22000EEE770BDF82E0020EC2E0020362F002007
:10C23000342F002044D30700F62E0020F5C007005D
:10C240000148FFF7D7B900BF142F002010B50388AD
:10C25000112B18D002D8102B05D010BD122B34D0C2
:10C26000502B1ED010BD1E4B82881A8000F118037F
:10C2700003CB1C4A1C4B1060516000221A701B4BF0
:10C28000DB8963BB27E0164B19484FF6FF721A8013
:10C29000154B00221A70FFF7ADF900B3134B9B69E1
:10C2A0000FE0124CC288E3899A4218D1038A022B0C
:10C2B00015D1837CDB070ED40D48FFF79BF970B1D5
:10C2C000A36963B1BDE81040184700F1080303CB30
:10C2D000044A10605160BDE81040FFF73FBF10BD39
:10C2E000342F0020EE2E0020F62E0020F82E002005
:10C2F000142F0020A0DF7047A2DF7047A5DF704732
:10C30000A6DF7047A8DF704763DF70472DE9F0476D
:10C310000F4694B00546002800F03681002900F051
:10C3200033814B68002B00F02F814FF6FF730380A1
:10C33000994B04AA03F1100E164618685968144662
:10C3400003C4083373452246F7D114AB41F230528F
:10C350000DF10A01304623F8482DFFF7D5FF0028DC
:10C3600040F014812A1D19460120FFF7C3FF04463F
:10C37000002840F00C819DF80A30AB7101461C2268
:10C380000DA8FDF7DFF89DF834300E9443F0040358
:10C390008DF8343001AEAB798DF80E30214641F284
:10C3A0003253032230461094119412941394ADF832
:10C3B0000C30FDF7C7F89DF8043064F3030364F311
:10C3C00007138DF804309DF805304FF0010A6AF329
:10C3D00003036AF307138DF805309DF806306AF3FE
:10C3E000420364F3C30364F30413DBB243EA0A03B6
:10C3F0002146142208A88DF806300DF10C08FDF72F
:10C40000A1F84FF0140905F1080308AA0DA9A8889E
:10C41000ADF82840ADF82A400C94CDF8208009965C
:10C42000ADF82C90FFF768FF0446002840F0AF807D
:10C4300001461C220DA8FDF785F89DF834300E94B6
:10C4400043F018038DF83430AB798DF80E30214667
:10C4500041F23153032230461094119412941394F4
:10C46000ADF80C30FDF76EF89DF8043064F303036B
:10C4700064F307138DF804309DF805306AF3030365
:10C480006AF307138DF805309DF806306AF342030E
:10C4900064F3C303DBB243F0110321464A4608A804
:10C4A0008DF80630FDF74EF81723ADF82C3008AAAA
:10C4B00005F110030DA9A888ADF82840ADF82A4071
:10C4C0000C94CDF820800996FFF716FF044600284B
:10C4D0005DD101461C220DA8FDF734F89DF83430DB
:10C4E0000E9443F002038DF83430AB798DF80E30A2
:10C4F000214641F234530322304610941194129491
:10C500001394ADF80C30FDF71DF89DF804306AF374
:10C5100003036AF307138DF804309DF8053064F3C4
:10C52000030364F307138DF805309DF806306AF3B2
:10C53000420364F3C30364F30413DBB243EA0A0364
:10C5400021464A4608A88DF80630FCF7FBFF022377
:10C55000ADF82830ADF82C3008AA05F120030DA95C
:10C56000A888ADF82A40CDF8208009960C97FFF7EF
:10C57000C3FE044658B97B68AB62BB6803B1EB628B
:10C58000064B01221A7002E00E2400E00446204609
:10C5900014B0BDE8F08700BF48D307003E2F00204D
:10C5A00070B5054686B068B302884FF6FF739A42AD
:10C5B0002AD0174B1B783BB3164C1022080AE170A7
:10C5C000207121FA02F0090E072301266071A17182
:10C5D00002A800216370ADF806302270A670FCF747
:10C5E000B1FF2B8AADF808300023ADF80C3002A95A
:10C5F0000DF1060328888DF80A6004930594FFF76F
:10C600007FFE02E00E2000E0082006B070BD00BFF3
:10C610003E2F00203F2F002030B5054687B058B38D
:10C6200002884FF6FF739A4228D0164B1B782BB323
:10C63000154C112323700B0A6170A3700B0C090EAB
:10C64000E370217105231022002102A8ADF8063005
:10C65000FCF778FF2B8AADF8083001238DF80A30FB
:10C660000023ADF80C3002A90DF1060328880493CD
:10C670000594FFF745FE02E00E2000E0082007B019
:10C6800030BD00BF3E2F00203F2F002030B50446B4
:10C6900087B030B300884FF6FF73984223D0134B16
:10C6A0001B7803B3124D102369700321ADF80610F7
:10C6B000AA7000211A4602A82B70FCF743FF238AB8
:10C6C000ADF8083001238DF80A300023ADF80C30A6
:10C6D00002A90DF10603208804930595FFF710FECB
:10C6E00002E00E2000E0082007B030BD3E2F002001
:10C6F0003F2F002070B50D4688B00446002800F09A
:10C70000C180002900F0BE80826A002A00F0BA8051
:10C710000B88112B1BD004D8102B40F0B3808B88D2
:10C7200017E0502B02D0512B15D0ABE0C9880389FC
:10C73000994240F0A78008238DF81030123535F863
:10C74000023C8DF81830059504A990479AE04FF601
:10C75000FF73238096E08B79022B40F093800A8947
:10C76000038A9A4240F08E808B7B043B022B40F27E
:10C7700089809DF8163043F001038DF816300B8A3E
:10C78000ADF818304B8AADF81A30022601F11403C7
:10C790000822002101A807938DF81060FCF7D2FE53
:10C7A000002301AAA18A2088ADF80630ADF8046004
:10C7B000CDF808D0FFF7A2FD034618B1E36A2BB10C
:10C7C000984703E09DF80020D20708D440F2FD13FB
:10C7D00004A92088ADF81430FFF794FD4EE0ADF8C1
:10C7E000140004A92088FFF78DFD002846D1297D7B
:10C7F0004A1E072A3ED8DFE802F0040E1C1E202243
:10C800003B248DF804306B8A012B02D806220121CB
:10C8100031E0012308E06A8A01239A428DF804304E
:10C8200002D80622022126E015358DF80C3002953B
:10C8300019E0022315E0032313E0042311E005238C
:10C840000FE06B8A022B02D80322082113E0AA7D95
:10C850006B7D43EA0223ADF808300BB9072300E0F3
:10C8600006238DF80430A36A01A92046984709E001
:10C870000923F6E703222046FFF708FF10B1E36A19
:10C8800003B1984708B070BD38B5044608460D4658
:10C8900000F0AFFC6560208038BD00000C4B1B78B9
:10C8A000062B10D10B4B1B681A070CD10A4B1868CA
:10C8B00000F0F003302B08D000F0E000A0F14003BE
:10C8C000584258417047002070470120704700BF10
:10C8D000E00F00F0E40F00F0E80F00F0094B1B78C8
:10C8E000062B0CD1084B1B681A0708D1074B186898
:10C8F00000F0F000A0F1300358425841704700208A
:10C90000704700BFE00F00F0E40F00F0E80F00F008
:10C9100008B5FFF7E3FF10B1684B694A1A60FFF7EB
:10C92000BDFF28B1674B684A1B68C3F342331360ED
:10C93000FFF7D4FF20B1654AD36823F08073D3603A
:10C94000FFF7ACFF40B14FF080430022C3F80C2149
:10C95000C3F81021C3F83825FFF7C0FF10B15C4BB6
:10C9600003221A60FFF7BAFF40B15A4B05221A6042
:10C9700001229A6700229A603F225A60564B1B7828
:10C98000062B09D1554B1B681B0705D1544B1B685F
:10C9900003F0F003502B48D0524AD2F8883043F4C9
:10C9A0007003C2F88830BFF34F8FBFF36F8F4FF023
:10C9B0001023D3F80022002A03DBD3F80432002B23
:10C9C0002FDA494B0122C3F80425D3F80024002AAA
:10C9D000FBD04FF010221521C2F80012D3F800242A
:10C9E000002AFBD04FF0102315223F49C3F8042240
:10C9F000D1F800243C4B002AFAD00022C3F80425C9
:10CA0000D3F80024002AFBD0BFF34F8F3549374BB2
:10CA1000CA6802F4E0621343CB60BFF34F8F00BFDC
:10CA2000FDE7334B334A1A6008BD4FF08052324B5A
:10CA3000D2F80414C3F82015D2F80814C3F824154A
:10CA4000D2F80C14C3F82815D2F81014C3F82C151A
:10CA5000D2F81414C3F83015D2F81814C3F83415EA
:10CA6000D2F81C14C3F84015D2F82014C3F84415AA
:10CA7000D2F82414C3F84815D2F82814C3F84C157A
:10CA8000D2F82C14C3F85015D2F83014C3F854154A
:10CA9000D2F83414C3F86015D2F83814C3F864150A
:10CAA000D2F83C14C3F86815D2F84014C3F86C15DA
:10CAB000D2F84424C3F870256EE700BF74C0074065
:10CAC0000DF0ADBA440200103C050040F0ED00E06E
:10CAD000A005004010560040E00F00F0E40F00F009
:10CAE000E80F00F000ED00E000E001400400FA056E
:10CAF000202700200090D00300C0004052DF704784
:10CB000010DF704760DF704761DF704708B5AFF333
:10CB1000008008BD2DE9F743224B1B78002B3ED047
:10CB2000214E224F35683C68DFF88480DFF884901E
:10CB3000B5FA85F5B4FA84F46D0964096DBB01A8F2
:10CB4000FFF7DCFF052807D010B1FCF772FD04E009
:10CB500033680198984700E00125DCB9B8F8003047
:10CB6000ADF80430D9F8003001A91846FFF7CCFF22
:10CB70000528044608D018B1FCF75BFD002404E04A
:10CB80003A681846904700E00124002DD7D0002CC9
:10CB9000D4D004E0002DD2D001E0002CDED003B0D0
:10CBA000BDE8F083462F0020502F0020542F002096
:10CBB000482F00204C2F002010B5C1B18C0716D192
:10CBC000134C216013490A80134A14491360FFF77C
:10CBD00097FFA8B9124B134901221A7091F8163326
:10CBE000C3F34113934204D842F202030DE007233A
:10CBF0000BE00D4A93682BB1136843F48003136074
:10CC0000034602E04FF480020A60184610BD00BFE0
:10CC10004C2F0020482F0020582F00200DCB07005C
:10CC2000462F002000E100E0A82F002018B1034BA0
:10CC30001860002070470E20704700BF542F00205E
:10CC400018B1034B1860002070470E20704700BFDA
:10CC5000502F002008B5074B1B682BB1984738B1FF
:10CC6000BDE80840FCF7E5BCBDE80840FFF752BF4F
:10CC700008BD00BF582F002070B5144605460E466B
:10CC8000142200212046FCF75DFC227B2672002145
:10CC9000012361F30002238021612273657205B1D3
:10CCA000A372002070BD000007B5054B019302A9D7
:10CCB000019B41F8083DFFF725FF03B05DF804FB39
:10CCC000B826002008B511B10020FCF7B2FCBDE881
:10CCD0000840FFF71FBF00000021024A0846FDF789
:10CCE000E5BF00BFC5CC0700A0DF7047A2DF7047DB
:10CCF0002DE9F04381468FB0154698460E4611B98E
:10CD00000846FCF796FC15B92846FCF792FC1C2255
:10CD10000DEB02000021FCF715FC9DF81C30ADF86E
:10CD20000490002443F002030127214603226846B1
:10CD30008DF81C3008940A940B940C940D948DF883
:10CD40000670FCF7FFFB98F800308DF8003098F87B
:10CD500001308DF801309DF8023067F3420303F093
:10CD6000E70364F300032146142202A88DF8023081
:10CD7000FCF7E8FB0A48CDF80CD001AB029302AAFD
:10CD8000169B0088ADF8105007A9ADF81240ADF819
:10CD900014500696FFF7AAFF0FB0BDE8F08300BF5E
:10CDA000A42F002010B586B006A941F60A03044658
:10CDB00021F80C3D0120584A8DF80E00FFF794FF32
:10CDC000002840F0A780228812B92289C2B10BE066
:10CDD000524B0093616804F13C0342F62920FFF7AF
:10CDE00087FF0028F1D095E04D4B0093E16804F1F6
:10CDF0003C0342F62420FFF77BFF002840F08A80A6
:10CE0000228A52B1474B0093616904F13C0342F618
:10CE10002520FFF76DFF00287CD1228B52B1424BB9
:10CE20000093E16904F13C0342F62720FFF760FF1D
:10CE300000286FD1228C52B13C4B0093616A04F1FF
:10CE40003C0342F62620FFF753FF002862D1228DD3
:10CE500052B1374B0093E16A04F13C0342F62820BB
:10CE6000FFF746FF002855D1236B1BB31A688DF8D6
:10CE700010201A68120A8DF811205A888DF8122095
:10CE8000DA788DF813205A688DF814209B688DF895
:10CE900015301A0A1B0C8DF81730264B8DF816200A
:10CEA0000093082204F13C0304A942F62320FFF773
:10CEB0001FFF78BB616B09BBA06B58B303788DF87B
:10CEC000103043888DF811301B0A8DF8123083889A
:10CED0008DF813301B0A8DF81430C3888DF8153087
:10CEE0001B0A8DF81630144B0093072204F13C0303
:10CEF00004A942F65020FFF7FBFE0BE00F4B0A7926
:10CF00000093096804F13C0342F62A20FFF7F0FE83
:10CF10000028D1D006B010BDA42F0020742F00200F
:10CF2000642F0020942F00208C2F00209C2F0020A5
:10CF30005C2F00206C2F0020842F00207C2F0020ED
:10CF40000C2303710A2343710B2383710723C371DD
:10CF5000062303720F2383721023C372837B43F073
:10CF600007036FF3C30383730123C373D82380F8CC
:10CF7000243070470823037106234371072383710C
:10CF80000223C37101230372142383721323C37218
:10CF90000A23037309234373837B03F0F00343F0F5
:10CFA00009036FF3041383730B4B03610B4B436152
:10CFB00040F2C973836140F2BC73C36140F6AC5365
:10CFC0000362074B8362074BC3620322EC23427266
:10CFD000C27380F824307047CDCC4C3EE02D903B9E
:10CFE0005C8F423F85EBD13E0823037106234371DA
:10CFF000072383710223C371142383721323C37223
:10D000000A23037309234373837B03F0F00343F084
:10D0100009036FF3041383730B4B03610B4B4361E1
:10D0200040F2D373836140F2CD73C36140F2DC53AD
:10D030000362074B8362074BC3620122D82302724B
:10D04000C27380F824307047CDCC4C3EBC74933B07
:10D050005C8F423F85EBD13E0F2303711023437158
:10D06000112383710323C371022303720623837286
:10D070000723C372837B43F0030303F0FB036FF3C7
:10D08000C30383730123C3730A4B03610A4B4361D8
:10D0900040F2D373836140F2CD73C36140F2DC533D
:10D0A0000362064B8362064BC362D82380F82430A8
:10D0B000704700BFCDCC4C3EBC74933B5C8F423F6D
:10D0C00085EBD13E112303710B2343710C23837134
:10D0D00001230372C373837B03F0FE03022143F039
:10D0E0001E034172837308210023817203610621AC
:10D0F0004361094BC172836213214FF07E530022BA
:10D100000173C3621421D823C27141738261C26169
:10D11000026280F82430704700004040837B03F0B7
:10D12000F8036FF3C30383730223C373D82380F818
:10D130002430704708B54FF010230246D3F88430EE
:10D14000591C19D0642B22D008D8012B1CD018D31D
:10D15000283B012B1ED8FFF7B5FF10E0B3F57A7F0F
:10D1600018D3B3F57B7F04D9A3F2DC53022B11D87B
:10D1700002E0FFF7FFFE02E01046FFF735FF002058
:10D1800008BDFFF7DDFEFAE7FFF766FFF7E7FFF7F9
:10D19000C5FFF4E71046FFF727FF072008BD000092
:10D1A0000649074A074B9B1A03DD043BC858D05079
:10D1B000FBDCFFF7ADFBFCF751F9000064D307007F
:10D1C000B826002030270020FEE7FEE7FEE7FEE756
:10D1D000FEE7FEE7FEE7FEE7FEE7FEE710B5431ECB
:10D1E0000A44914204D011F8014B03F8014FF8E7CB
:10D1F00010BD034613F8012B002AFBD1181A013881
:10D2000070470000F8B500BFF8BC08BC9E467047E8
:10D21000F8B500BFF8BC08BC9E467047430000004C
:10D22000B826002000100200F42A0020446675543D
:10D23000617267003130313032303030313030009F
:10D240003130313032303030323030003130313006
:10D2500032303130303030003130313033303030F6
:10D260003130300031303130333030303230300016
:10D2700031303130333030303330300031303130D4
:10D2800033303030343030003130313033303130C1
:10D2900030303000313031303430313030303000E7
:10D2A000706C7567696E5F7175616E7400706C7516
:10D2B00067696E5F666C65787072696E745F303135
:10D2C000005043413130303336005043413130302B
:10D2D000343000556E6B6E6F776E002F686F6D6522
:10D2E0002F766C696564656C2F6465762F63726F49
:10D2F000776E73746F6E652F626C75656E65742FD3
:10D30000696E636C7564652F6366672F63735F482E
:10D310006172647761726556657273696F6E732EA0
:10D320006800312E322E32002E2E2F7372632F643E
:10D3300065765F696E666F5F736572766963652E89
:10D3400063000000142F002023D1BCEA5F7823156E
:0CD35000DEEF12120000000000000000E0
:10D3640000000000000000000000000000000000B9
:10D3740000000000000000000000000000000000A9
:10D384001CD20700000000000000000000000000A4
:10D394000000000000000000000000000000000089
:10D3A4000000000000000000000000000000000079
:10D3B4000000000000000000000000000000000069
:10D3C400FFFF0000320000000090D0032594070006
:08D3D4000194070000000000B5
:040000037000D1A117
:00000001FF
