:020000022000DC
:1060000000FF002099B40300C1B403008DCD03004C
:10601000C5B40300C7B40300C9B403000000000006
:10602000000000000000000000000000CBB40300EE
:10603000CDB4030000000000CFB40300D1B40300CE
:10604000D3B40300D3B40300F9C50200D3B40300F2
:10605000D3B40300D3B40300D3B4030051B102009E
:10606000D3B403005FB1020061B10200D3B40300F6
:10607000D3B40300D3B40300D3B40300D3B40300F8
:10608000D3B4030039AC040055E6030039D403004F
:1060900025AD0400D3B4030051D20300D3B40300F0
:1060A000D3B40300D3B40300E530040049C10200B7
:1060B000D3B40300D3B403000000000000000000CC
:1060C000D3B40300D3B40300D3B40300D3B40300A8
:1060D000D3B40300D3B40300D3B403000000000022
:1060E00000000000000000000000000000000000B0
:1060F00000000000000000000000000000000000A0
:10610000000000000000000000000000000000008F
:10611000000000000000000000000000000000007F
:10612000000000000000000000000000000000006F
:10613000000000000000000000000000000000005F
:10614000000000000000000000000000000000004F
:10615000000000000000000000000000000000003F
:10616000000000000000000000000000000000002F
:10617000000000000000000000000000000000001F
:10618000000000000000000000000000000000000F
:1061900000000000000000000000000000000000FF
:1061A00000000000000000000000000000000000EF
:1061B00000000000000000000000000000000000DF
:1061C00000000000000000000000000000000000CF
:1061D00000000000000000000000000000000000BF
:1061E00000000000000000000000000000000000AF
:1061F000000000000000000000000000000000009F
:1062000010B5054C237833B9044B13B10448AFF3F0
:1062100000800123237010BD6824002000000000CE
:106220004013050008B5034B1BB103490348AFF306
:10623000008008BD000000006C2400204013050011
:10624000154B002B08BF134B9D46A3F5803A002148
:106250008B460F461348144A121A27F077F80F4B53
:10626000002B00D098470E4B002B00D09847002001
:10627000002104000D000D48002802D00C4826F033
:10628000C4FF26F0F9FF2000290014F06FFF26F06C
:10629000DFFF00BF0000080000FF0020000000003A
:1062A0000000000068240020946700200BD2040046
:1062B00000000000FF20704700207047002070475A
:1062C0000E2070477047704710B51821044625F01E
:1062D00023FA204610BDF8B50B680446DB68084673
:1062E0000E4698470023C4E90033A3600546B0B1C9
:1062F00025F05EF903465F19C4E90033A7602DB1AC
:1063000018462A46002127F021F8034667603268C4
:106310001946976830462A46B8472046F8BD0346D6
:10632000E9E7407970470831034603C983E8030071
:10633000184670471031034603C983E80300184626
:10634000704710B50C46002C0AD001DA6442FAE717
:10635000002806DA21464042FFF7F3FF00B1201A79
:1063600010BD90FBF4F304FB1300F9E72DE9F04FA7
:1063700000F108090E46824699E8030087B00DF146
:10638000080888E80300404610F037FB0AF11007C0
:10639000009097E8030004AC84E80300204610F066
:1063A0002CFB072101903248B6FBF0F00430B0FB23
:1063B000F1F5C5EBC505401B012585404FF0FF30C9
:1063C000FFF7BFFF05FA00F05FFA85FB10F07F05CD
:1063D00008BFC0F3C61532464FF00001204618BF73
:1063E000EDB210F0D2FA204610F007FBDDE90032E2
:1063F0009342064621D397E8030084E80300204631
:1064000010F0FBFAB04208D99AF807301D4214BFC9
:106410000120002007B0BDE8F08F99E8030084E870
:106420000300204610F0E9FAB04201D90020F1E75C
:106430009AF807301BEA030FE9E79AF807301BEADE
:10644000030FF3D099E8030088E80300404610F0FA
:10645000D4FAB042EAD897E8030084E80300204663
:1064600010F0CBFAB04294BF00200120D2E700BF69
:106470008051010010B50C1A134605D00146224682
:10648000184626F049FF0346181910BD7FB505468A
:106490000B798DF8083002A80C4610F0D7FE2A467A
:1064A0000DF105018DF8040001A8FFF7E3FF064692
:1064B000601D10F0CBFE32460DF109018DF8080089
:1064C00002A8FFF7D7FF0646A01D10F0BFFE324618
:1064D0000DF109018DF8080002A8FFF7CBFF064671
:1064E000E01D10F0B3FE32468DF808000DF10901F1
:1064F00002A8FFF7BFFF04F10801064602A810F04A
:106500000DFA32460DF10D0102A8FFF7B3FF04F1B9
:106510001001064602A810F001FA32460DF10D01F5
:1065200002A8FFF7A7FF284604B070BD0D2A1FB5CB
:106530000C460BD901466846FFF7A8FF22460DF12D
:106540000E016846FFF796FF04B010BD0020FBE780
:1065500084B02DE9F04786B00FAD044685E80E0003
:106560002846012110F068FE012182460DF13D0010
:1065700010F062FE012181460DF13E0010F05CFE3C
:10658000012180460DF13F0010F056FE04AE074693
:1065900032460DF14501281DFFF76CFF6D4696E868
:1065A000060002A810F0F9F92A460DF14A010DF192
:1065B0004500FFF75FFF95E80600304610F0EDF963
:1065C0009DF808209DF810300A4922722374039A1E
:1065D000059B2160204684F804A084F8059084F887
:1065E0000680E771E260636106B0BDE8F04704B081
:1065F000704700BF60DE0400704710B50C210446F0
:1066000025F08AF8204610BD70B50846154611B928
:106610000024204670BD00230A4A0B4924F0E9FFFC
:1066200004460028F4D02946FFF7A0FE0028EFD04A
:10663000236829461E6A2046DDE90423B047002866
:10664000E7D1E5E754DF040044DE04002DE9F04F14
:106650009946037A85B082460F46904600256BB96D
:106660008DF80D509DF80C30002063F307009DF865
:106670000D3063F30F2005B0BDE8F08F0029EFD097
:106680002C46CDE900891A4B3A46E9585046FFF7A7
:10669000BBFF06462CB370B10146204600F0DDFE7C
:1066A000B0B13046FFF73DFE83462046FFF739FE86
:1066B000834538BF34460435C82DE2D19CB120460D
:1066C000FFF72FFE01238DF80C008DF80D30C9E780
:1066D00021463A46304600F029FF002818BF3446CC
:1066E000E9E70446E7E74FF48073ADF80C30B9E70B
:1066F000C024002030B5037A85B004462BB9C27996
:1067000002B1C371012005B030BD10F0D3F80546C9
:10671000684606F0D3FE9DF80830002BF2D0DDE984
:10672000002329462046FFF791FFE080EAE70000BA
:106730002DE9F04F0C69BDB082460F4624B91023F5
:10674000BB813DB0BDE8F08F8B8A702B01D812233E
:10675000F6E710F0AFF8804606A806F0AFFE964BBD
:10676000C4F800804FF4E142CDE90423934D2B7827
:10677000BFF35B8FD9070ED4284624F029FF50B110
:106780008F480DF0D7F8284624F02EFF8D4A8E4909
:106790008B4824F0BCFF0823952104AA88480DF0FB
:1067A0002AFC049B6360059BA3609AF8083023745D
:1067B00000210B46881D04EBC000013108294370FD
:1067C0008370C370037143718371C3710372F1D11C
:1067D0009DF82090B9F1000F00F0EA80DDE9062372
:1067E00004F1110604F119054FF0000BC4F835301F
:1067F000C4F8312084F811B0C82286F801B086F8B8
:1068000002B086F803B086F804B086F805B086F8C2
:1068100006B086F807B06D4984F819B00AA885F863
:1068200001B085F802B085F803B085F804B085F8AA
:1068300005B085F806B085F807B084F821B084F873
:1068400022B084F823B084F824B084F825B084F80A
:1068500026B084F827B084F828B084F829B084F8EA
:106860002AB084F82BB084F82CB084F82DB084F8CA
:106870002EB084F82FB084F830B026F03FFD0AAB7C
:10688000019318465B4650F8042B72B10122D4F8EC
:1068900011E0D4F815109A404FEAE27C4EEA020E5D
:1068A00062461143C6F800E071600133322BEAD131
:1068B0009AF80830002B77D0B8F1000F74D0B9F1F6
:1068C000000F71D00026019B53F8049B0193B9F18E
:1068D000000F66D000233E4A3E49484624F089FE18
:1068E000824668B303684146D3F820B0DDE9062349
:1068F000D84728B34FF0010B0BFA06FB5A46D317C3
:10690000D4F81900D4F81D10CDE90223039B40EA06
:106910000B020B432A606B60504600F06AFF0028B0
:1069200008BF4FF0000BD4F82900D4F82D105A46B8
:10693000D31740EA0B0B0B43C4F829B0C4F82D3031
:106940000023254A2349484624F053FE80B190F89D
:1069500060300BB10123B340D4F821C0D4F8252016
:10696000D9170A434CEA0303C4F82130C4F82520A0
:1069700000231A4A1749484624F03BFE88B1414695
:10698000FFF7F4FC68B10123D4F819C0D4F81D2036
:10699000B340D9170A434CEA0303C4F81930C4F8CA
:1069A0001D200136322E8ED171233B830023C7E692
:1069B0004A464B4614E700BF300B010084240020F8
:1069C0008824002080230020C5380300C024002034
:1069D00054DF040044DE040000DF0400A0DF0400F4
:1069E00030B40B8840F2AF15AB42024618D0B3F575
:1069F000D87F03D2962B0DD030BC704740F2B11136
:106A00008B4203D040F2C1118B42F5D1104630BC0D
:106A1000FFF770BE4B681B78C3F300030372F6E701
:106A200030BCFFF785BEC3888380DAB2002062F3F2
:106A300007001B0A82B063F30F2002B0704700000A
:106A400070B50B4D0E46322455F8040B18B9013CB5
:106A5000FAD120460BE003689B6998470028F6D0DE
:106A6000314655F8040CFFF781FC0028EFD070BDCB
:106A7000C024002010B50B4C2378BFF35B8FDB07DD
:106A80000ED4204624F0A4FD50B107480CF052FF6C
:106A9000204624F0A9FD054A0549034824F037FEA5
:106AA000014810BD84240020882400208023002079
:106AB000C5380300F8B54B681D78312D0C4603D856
:106AC000164E56F8250010B92523A381F8BD03689A
:106AD0001B69984723690BB91023F6E756F8250080
:106AE000A78A0368DB6898470130874201D21223E6
:106AF000EBE756F825000368DB6898472369013007
:106B000020831D7056F82500A28A21690368013A86
:106B10009B68013198470023D7E700BFC0240020BD
:106B20002DE9FF470B690C4623B91023A38104B05C
:106B3000BDE8F0878B8AF92B01D81223F6E70025F0
:106B4000DFF850802E4658F8043BE3B123695E55C8
:106B500001A858F8041CFFF7BEFB58F8040CDDF838
:106B600004A00368DB689847002201465046D4F829
:106B7000109010F009FB6F1C49F80700019808B14C
:106B800024F035FD05350136F6B2322EDBD12583F2
:106B90000023CBE7C024002000B589B040F2B11338
:106BA000ADF804307022002301A80293ADF80C3038
:106BB000ADF810200593ADF81830ADF81C3006F094
:106BC000C3FA09B05DF804FB7FB50024194D8DF8B8
:106BD00003409DF80330312B28D855F82330FBB102
:106BE000224601210DF1030010F0CEFA9DF803308A
:106BF000064655F8231001A8FFF76DFB9DF80330FA
:106C0000019C55F823000368DB689847324601462B
:106C1000204610F0B9FA0446019808B124F0E7FCC8
:106C20009DF8033001338DF80330D2E7204604B0DD
:106C300070BD00BFC024002073B50C461E4615462B
:106C4000FFF7C2FF0190FFF715FF04230DEB0302CE
:106C500099210DF092FC3368228901339A4204D0C5
:106C60002023A381002002B070BD312D01D9212342
:106C7000F7E70120F7E707B5FFF7A6FF0190FFF759
:106C8000F9FE04230DEB030299210DF076FC03B00D
:106C90005DF804FB3129F7B507460C4631D81A4D8B
:106CA00055F82100B8B103685B699847064655F866
:106CB000240010B103685B6898470023012E45F853
:106CC000243016D016F0FF0F07D0022E15D038460C
:106CD000FFF7D1FF002003B0F0BDFFF7CBFE452347
:106CE000ADF80630224603230DF106010DF090FCAD
:106CF000EDE7FFF7BFFE4623F2E7FFF7BBFE4723B2
:106D0000EEE72120E7E700BFC024002038B54B683C
:106D10001D780C462946FFF7BDFF2369A08153B1BA
:106D2000A28A042A07D91D702569FFF74DFF0523A4
:106D3000C5F80100238338BD38B505460024E1B20B
:106D400028460134FFF7A6FF322CF8D138BD0000E9
:106D500010B5034B03600446FFF7EEFF204610BD5D
:106D6000F4DE040010B50446FFF7F2FF20460421CC
:106D700024F0D2FC204610BD10B513460C4629B1B4
:106D80000A460146184626F0C7FA0346181910BDF0
:106D90002DE9F0470B89012B92B080460C4604D8B0
:106DA00020238B8112B0BDE8F0874B681D785B789B
:106DB000012B5CD023B1022B00F09980212346E007
:106DC00008AF1B263B462A460896FFF735FF0028EA
:106DD0003ED029464046FFF75DFF4020D4F804A08E
:106DE00024F0E6FB2389013B1A2B814605D93A465C
:106DF00031460AF10100FFF7BFFF0BAB0FCB6E4628
:106E000007C626F8023B1B0C337097E80E00484675
:106E100000F0A2FD564B484643F8259000F0DAFCFE
:106E200063688DF822505A1C2389CDF82320452110
:106E3000013BADF82010ADF82730FFF71BFE032211
:106E400039460DF076FB4046FFF715FF0023A3817E
:106E50002369002BA6D0A28A042AA3D91D70256914
:106E6000FFF7B2FE0523C5F8010023839AE708AEB9
:106E70004FF00E0933462A46CDF82090FFF7DCFE8E
:106E80000028E5D029464046FFF704FF1820D4F833
:106E900004A024F08DFB2389013B0D2B074605D967
:106EA000324649460AF10100FFF766FFBDF82C3073
:106EB000ADF8003096E80E00384600F0ADFD2C4BE2
:106EC000384643F8257000F083FD63688DF8225042
:106ED0005A1C2389CDF823204621013BADF8201010
:106EE000ADF82730FFF7C6FD03223146A9E70DF1C3
:106EF000200928264B462A460896FFF79DFE0028C3
:106F0000A6D029464046FFF7C5FE7020676824F0EA
:106F10004FFB2389013B272B824604D94A46314641
:106F2000781CFFF729FF0BAF0FCF6E460FC697E80F
:106F3000070086E80700504699E80E0000F0FCFBC9
:106F40000B4B504643F825A000F05EFB63688DF8BC
:106F500022505A1C2389CDF823204721013BADF84C
:106F60002010ADF82730FFF785FD0322494668E77A
:106F7000C02400202DE9F04F91B002AF00238946D4
:106F8000BB608246FFF776FD07F1080249460DF027
:106F900097F9BB68002B44D0D3E90063EB467B60D4
:106FA00007F118087B689E4237D016F8014B312C48
:106FB000F8D80E23FB740023A7F80C90BC73C7F815
:106FC0000F803B75FFF756FD032207F10C010CF013
:106FD00092FF0028E6D1154B53F8240010B1036846
:106FE0005B689847182024F0E3FA07F12803054668
:106FF0001A460E214046FFF7BFFEBA8EADF80020BC
:1070000007F128030ECB284600F006FD074B284663
:1070100043F8245000F0DCFCC4E75046FFF72BFE99
:10702000DD463C37BD46BDE8F08F00BFC0240020E0
:107030002DE9F04F9BB008AF8B46002478603C618F
:10704000FFF718FD07F1100259460DF039F93B69B9
:10705000002B50D0D3E90083C7F808D0DFF8A09008
:10706000FB608AB00DF1200A3C60FB6898453DD07A
:1070700018F8014B312CF8D84FF02803FB763B6809
:10708000A7F814B0BC75C7F817A03B77FFF7F2FC60
:10709000032207F114010CF02EFF0028E5D159F866
:1070A000240010B103685B689847702024F080FAD0
:1070B00007F1200506462A4628215046FFF75CFEC8
:1070C00007F12C0EBEE80F00EC46ACE80F009EE87E
:1070D00007008CE80700304695E80E0000F02CFB16
:1070E000304649F8246000F08FFABEE77868FFF771
:1070F000C2FDD7F808D04C37BD46BDE8F08F00BFC1
:10710000C02400202DE9F04F95B004AF8B46002439
:1071100078607C61FFF7AEFC07F1140259460DF070
:10712000CFF87B69002B52D0D3E90083C7F808D091
:10713000DFF8A490FB6088B00DF1100A3C60FB689A
:1071400098453FD018F8014B312CF8D84FF01B036D
:10715000FB773B68A7F818B0BC76C7F81BA087F888
:107160002030FFF787FC032207F118010CF0C3FE63
:107170000028E4D159F8240010B103685B689847EF
:10718000402024F015FA07F1240506462A461B2163
:107190005046FFF7F1FD07F1400313E90F00EC46FD
:1071A000ACE807002CF8023B1B0C8CF8003095E88B
:1071B0000E00304600F0D0FB304649F8246000F065
:1071C00009FBBCE77868FFF756FDD7F808D04437CD
:1071D000BD46BDE8F08F00BFC024002010B545219A
:1071E0000446FFF78FFF20464621FFF7C3FE4721E5
:1071F0002046FFF71DFF10BD2DE9F04F814695B0E9
:107200000E469A461546002A00F0AE800A78574985
:10721000002351F8044B0993DFB20133002CF8D15D
:10722000012A46D04FFA82FBBBF1000F05D0022A9B
:1072300074D0212015B0BDE8F08F1B2D40F0948054
:10724000402024F0B5F90DF12808044642462946AD
:107250003046FFF791FD0DAB0FCBEC46ACE80700D5
:107260002CF8023B1B0C8CF8003098E80E002046EE
:1072700000F072FB099A3D4B204643F8224000F093
:10728000A9FA4523ADF828308DF82A70CDF82B6087
:107290008DF82F508DF830B0FFF7ECFB03224146FC
:1072A0000DF047F948468AF80070FFF7E4FC5846AD
:1072B000C0E70E2D58D1182024F07AF90DF12808D6
:1072C0008346424629463046FFF756FDBDF8343026
:1072D000ADF8003098E80E00584600F09DFB234BB7
:1072E000099A584643F822B000F072FB4623ADF8E5
:1072F00028308DF82A70CDF82B608DF82F508DF83E
:107300003040FFF7B7FB032241460DF012F9484623
:107310008AF80070FFF7AFFC20468BE7282D23D1B9
:10732000702024F045F90DF128088346424629468D
:107330003046FFF721FD0DF1340EBEE80F00EC469C
:10734000ACE80F009EE807008CE80700584698E874
:107350000E0000F0F1F9054B099A584643F822B0A7
:1073600000F052F94723C2E7202063E7C024002041
:107370002DE9FF414FF6FF73DFF88C808B810746C4
:107380000C468DF80330002558F8040B58B30368F9
:107390002689DB689847864225D1666858F8041C20
:1073A00001A8FEF798FF30462289019925F098FF41
:1073B0000646019808B124F01AF9A6B98DF80350D1
:1073C000A681236963B1A28A042A09D99DF8032002
:1073D0001A702569FFF7F8FB0523C5F80100238320
:1073E00004B0BDE8F0810135EDB2322DCCD1A389D6
:1073F000002BE6D00DF10303228961683846FFF7C0
:10740000FBFEA081DDE700BFC02400200B88A3F5B0
:10741000D57310B50446062B1ED8DFE803F0040B25
:107420000E11151D1900FFF7A3FF2046BDE81040FF
:10743000FFF7B2BBFFF7ACFCF7E7FFF767FCF4E739
:10744000BDE81040FFF736BBBDE81040FFF768BB52
:10745000BDE81040FFF770BC10BD70B50D4688B098
:10746000044610B9002008B070BD0029FAD00146CA
:107470006846FEF758FF68460FF0BFFA29460646F1
:1074800002A8FEF750FF02A80FF0B7FA8642E9D132
:10749000214604A8FEF74EFF04A80FF0AEFA2946D5
:1074A000044606A8FEF746FF06A80FF0A6FA231A20
:1074B00058425841D7E710B50C4631B1002805DADB
:1074C0004042FFF7F8FF00B1201A10BDB0FBF1F306
:1074D00001FB1300F9E700002DE9F041069D0C4681
:1074E000401B114916469846FFF7E5FF0E4907462F
:1074F000701BFFF7E0FF0C490646601BFFF7DBFF40
:1075000009490446A8EB0500FFF7D5FFB74206D8A6
:1075100007D184428CBF00200120BDE8F08101200A
:10752000FBE70020F9E700BF805101002DE9F041A1
:107530008CB00C460546014602A89046FEF7F3FEC5
:1075400002A80FF05AFA2946064604A8FEF7F2FEF2
:1075500004A80FF052FA2146054606A8FEF7E3FEFE
:1075600006A80FF04AFA2146074608A8FEF7E2FEF1
:1075700008A80FF042FA4246044600210AA80FF07C
:1075800004FA0AA80FF039FA234600903A46294631
:107590003046FFF7A1FF0CB0BDE8F0810220704734
:1075A00028207047704710B57021044624F0B4F8C5
:1075B000204610BD90F8603013B1203005F0DBBEDE
:1075C0004830FBE790F8603013B1203005F0DABEA8
:1075D0004830FBE770B506460C46154662B92A46A8
:1075E0002146304600F0A4F90022014606F1400091
:1075F000BDE8704005F072BE21B10368DB689847B2
:10760000A842ECD9204670BD13B5044600F0E2F85C
:1076100094F8683023B1626E002168460FF0B5F926
:1076200002B010BDF8B5044616461F46FEF79EFE92
:1076300048B132463B46204600F0F4F8054684F84F
:1076400060002846F8BD94F860300BB90025F8E7D3
:1076500032463B4604F1400005F0F2FD054650B1CC
:107660000FF022F994F868306066002BE9D101230D
:1076700084F86830E5E794F868607EB10FF014F99B
:10768000A36D626EC31A984205D9934206D8904200
:1076900004D93546D5E79342FBD9F8E794F868203A
:1076A000002384F86030002AD0D0E1E7F0B5174617
:1076B0004B68436001F1080204460D4600F10803DF
:1076C00092E8030005F1100283E8030092E803004A
:1076D00004F1100383E8030005F120030FCBDFF86A
:1076E00054C0C4F818C004F1200686E80F003835ED
:1076F00055F8083C236395E8030004F1380383E858
:1077000003000B4B236007F108030FCB04F148057E
:10771000C4F840C085E80F00BB69A3650023C4E935
:10772000193384F8603084F868302046F0BD00BF1B
:1077300030DF0400E4ED040084B0F0B5A1B00646EB
:1077400027A880E80E0008AA03462DAF1546186842
:107750005968144603C40833BB422246F7D119883E
:107760009B78A37021800BAB0FCB6C4607C424F829
:10777000023B1B0C237095E80E0010A800F0ECF8FB
:1077800004AA0DF1B7030DF1BF0C1746186859682C
:10779000144603C4083363452246F7D118682060B5
:1077A0001B7923719DF81C308DF8003097E80E008E
:1077B000284605F049FD2A4610A93046FFF776FF16
:1077C000304621B0BDE8F04004B07047002070475B
:1077D0001B20704770477047203005F0CCBD20302B
:1077E00005F0D0BD10B54021044623F095FF20469A
:1077F00010BD38B590F83C4005467CB10FF060F8FC
:107800002B6BAA6BC31A984206D9934208D89042B0
:1078100034BF0024012401E09342F8D8204638BD4B
:107820000024FBE7F8B51F4603689B69044616462B
:10783000984798B1236820469B69984748B33246D9
:107840003B4604F1180005F0FBFC054678B10FF04B
:1078500037F80123A06384F83C3006E02368204613
:10786000DB6998470028E5D101252846F8BD94F842
:107870003C300BB90025F8E72046FFF7BAFF054674
:107880000028F1D194F83C30002BF3D084F83C0070
:10789000EBE723682046DB6998470028E4D03246AE
:1078A0003B4604F1180005F0CBFC054628B90FF063
:1078B00007F80123A06384F83C3094F83C30002B97
:1078C000D3D02046FFF795FF0028D3D194F83C5041
:1078D000002DC9D084F83C00C7E7D0B50446164651
:1078E0001F46FEF743FD30B132463B462046BDE819
:1078F000D040FFF797BFD0BD30B585B0044668468D
:107900000D46FEF7C3FD22460DF10E016846FEF757
:10791000B1FD05F11801684605F0C4FC04F10E0242
:107920000DF10D016846FEF7A5FD204605B030BDFE
:1079300010B51A2A88B00C460BD9014601A8FFF7EA
:10794000DBFF22460DF11F0101A8FEF793FD08B0F1
:1079500010BD0020FBE7000084B070B586B005467E
:1079600002AC0BA880E80E0022460DF13A01FEF7AA
:1079700081FDBDF81430ADF8003094E80E002E46BD
:107980002846FEF7E5FD0F4B46F8183B22460DF161
:1079900047010DF13A00FEF76DFD9DF814308DF8AA
:1079A000003094E80E00304605F04EFC00232846D7
:1079B000C5E90E3385F83C3006B0BDE8704004B030
:1079C000704700BF7CDF0400012070470E20704725
:1079D0007047704710B51821044623F09DFE2046DD
:1079E00010BDF0B5036885B0DB68174606460C4647
:1079F0009847B84205460CD831466846FEF746FD22
:107A000025B12A466946204625F078FC601905B064
:107A1000F0BD0020FBE7000084B037B507AC84E878
:107A20000E00BDF82830ADF8003094E80E00054691
:107A3000FEF78EFD034B2B60284603B0BDE83040B7
:107A400004B07047C8DF0400704710B50821044631
:107A500023F062FE204610BD2DE9F04F837987B0F8
:107A6000894673B900238DF811309DF8103000203D
:107A700063F307009DF8113063F30F2007B0BDE8F2
:107A8000F08F0029EED00A4604A800210EF07DFFF9
:107A900004A80EF0B2FF00250390FF24A8462F464D
:107AA000234BE85878B30023224A234923F0A1FD51
:107AB000064640B34946FEF759FC20B3314604A8B8
:107AC000FEF731FC04A80EF098FF3146824604A868
:107AD000FEF730FC04A80EF090FFFF2C834608D17F
:107AE000BA451AD03046FEF71CFCD8460446574625
:107AF00009E0039B0093014643463A465046FFF790
:107B0000EBFC0028ECD10435C82DC9D1FF2C08BFEF
:107B100064248DF810400123A5E7C345E2D1304627
:107B2000FEF7FFFB844228BF0446E4B2EBE700BF48
:107B3000C0240020A0DF040044DE040013B5044686
:107B40000EF0B8FE01462046FFF786FF6379ADF8D8
:107B50000400C0F3072098420CD12BB123799DF883
:107B600004001B1A18BF0123BDF80420A280184688
:107B700002B010BD0123F7E70B8810B440F2B11436
:107B8000A34202460BD040F2C114A34207D0962B69
:107B90000AD14B681B78C3F30003837100E01046E1
:107BA0005DF8044BFFF7CABF5DF8044B704783884C
:107BB0000020DAB262F307001B0A82B063F30F20E1
:107BC00002B07047F8B5274B0360274EFF2300250E
:107BD000837300F11803044605718581036100F188
:107BE0001007304600F04EFC4FF0000332183146CB
:107BF000384600F087FB4FF400732385A023E3622F
:107C0000C4E93255C4E934554FF4807384F82A50DE
:107C1000A36484F84C50C4F804510123134D84F834
:107C2000E8302B78BFF35B8FD9070ED4284623F0BA
:107C3000CFFC50B10E4801F093FD284623F0D4FC50
:107C40000C4A0D490A4823F062FD094BA36000234A
:107C5000C4F8D830A4F8DC30C4F8E030A4F8E4303C
:107C60002046F8BD08E2040038E10400B4260020F4
:107C70000C26002080230020E997020038B5037904
:107C800004464BBB01221146806801F097FE18B3F1
:107C90000123124D23712B78BFF35B8FDB0709D4CF
:107CA000284623F095FC28B10D4805F069FA2846CE
:107CB00023F09AFC21460A4805F08AFA04F11001E3
:107CC000204600F027F82046218D00F071F820466C
:107CD000BDE8384000F02EB938BD00BFD4260020E2
:107CE00088250020A1F120039BB243F6E072934265
:107CF00098BF8185704710B50379044643B1FFF7FB
:107D0000F1FF00F017F92046BDE8104000F060B91F
:107D100010BD000070B5044688B010300E4600F06B
:107D2000CBFA2379FBB1626904AB0293EAB91D4C2B
:107D3000204600F0A7FB4FF000032218214602A8BE
:107D400000F0E0FA1123BDF80C2002998DF8043000
:107D500001A800F095FB18B1134A622115F0F9F85B
:107D600002A800F0A1FA08B070BDD6E900541DB910
:107D700014B10E4824F057F80F2C019406D90021B5
:107D800001A800F059FB019B02900493224629466A
:107D9000029800F0D9FA019B029A03930021D15472
:107DA000D0E700BF38E1040067E104003DE10400D2
:107DB00008B5037953B10185084600F05FFB28B18F
:107DC000034A6921BDE8084015F0C3B808BD00BFEB
:107DD00067E1040011F10C0F09D010DC11F1140F50
:107DE00005D011F1100F02D011F1280F0DD190F92B
:107DF0002A308B4209D080F82A1000F02FB80B1DD2
:107E0000F5D003DC11F1080FF1D070470029EED056
:107E10000429FAD1EBE713B50446FEF72BFE012344
:107E20000DF107022A210CF0E6F89DF90710204613
:107E3000FFF7D0FF02B010BD13B50446FEF71AFEDF
:107E400001230DF107020B210CF0D5F89DF9071065
:107E50002046FFF7BFFF02B010BD000008B5037950
:107E600073B1817BFF290BD090F92A20012000F00B
:107E700003FB28B1034AA021BDE8084015F069B80A
:107E800008BD00BF67E10400F8B505460C4617467B
:107E9000002A3DD100F150063C220021304625F059
:107EA00055FA0123337017B94FF4C0637380D5F8C6
:107EB000043183B3F4B105F1F8040C22002120460B
:107EC00025F044FA4CF20103A5F8F830D5F8040186
:107ED00001F0B2F8C5F80001D5F8040101F0AEF8E0
:107EE0000123A5F8FC00B46286F82C3095F8FC401C
:107EF0000434E4B22B7DC4F11A04E4B29C4228BFDE
:107F00001C4674701CB101233FB185F84C30F8BD9C
:107F100000F18C06C0E71C46ECE785F84B30F6E72D
:107F200010B500220446FFF7AFFF2046BDE8104021
:107F300000F080B8038E03F47C4343F00103038612
:107F4000002343634FF48073A0F84430838D836330
:107F5000C38D8387704770B5037901260446467345
:107F6000D3B1037BD3B900F1300200F1D8010E3058
:107F700000F07CFA054620B1204600F0CFF82846F4
:107F800070BD84F848003146A07B00F071FA0546C8
:107F90000028F4D12673F2E70825F0E70025EEE784
:107FA00010B5002343730379044673B1037B63B1B7
:107FB000807B00F05FFA30F0080304D0034A40F2FF
:107FC000411114F0C6FF0023237310BD67E10400C4
:107FD00038B5037B04460BB9437B53B3237943B3D2
:107FE000A06801F06FFD94F8495075B9002394F82A
:107FF0004820F2B1BBB1012384F8303084F84A3014
:108000002046BDE8384000F07DB8A06801F036FF9A
:108010000028EBD194F84A30002BE8D1012384F8F2
:1080200048302B46E3E7052284F8302084F84A30B4
:10803000E6E738BD70B503790446002B5FD090F8B1
:10804000E85090F84B30013505F0010580F8E85014
:10805000E3B11F2100EB8506A0F8DC10D6F8C8308C
:1080600023B9012025F0D8F8C6F8C800D6F8C81002
:10807000C4F8D81004F1DC0204F1500013F0A4FAA3
:1080800020B11F4A4FF4C47114F063FF94F84C30D0
:10809000E3B11F2104EB8505A4F8E410D5F8D03036
:1080A00023B9012025F0B8F8C5F8D000D5F8D010D4
:1080B000C4F8E01004F1E40204F18C0013F084FA37
:1080C00020B10F4A4FF4C97114F043FFA37BFF2B7B
:1080D0000CD0002204F1D80104F10E0000F0C6F922
:1080E00020B1074A4FF4CC7114F033FF237B33B92E
:1080F000637B23B12046BDE87040FFF72CBF70BD05
:1081000067E1040010B5037B04460BB1FFF748FF9D
:108110002046BDE81040FFF71EBF0000F0B58BB051
:1081200006462122002101A825F010F900241F4F46
:108130002546B6F8DC30A34214D9D6F8D8301A5DFB
:1081400001AB5819394625F013FA04F00703072B41
:10815000054405D12122002101A825F0F7F80025CA
:108160000134E6E72122002101A825F0EFF80024E0
:108170000E4F2546B6F8E430A34214D9D6F8E030C5
:108180001A5D01AB5819394625F0F2F904F00703DE
:10819000072B054405D12122002101A825F0D6F89E
:1081A00000250134E6E70BB0F0BD00BFBAE10400E2
:1081B000027B42B100220521027380F8301080F862
:1081C0004A20FFF7C8BE704710B50B88B3F5827F11
:1081D00086B004460A465CD00BD80C2B2DD03C2B25
:1081E00019D00B2B12D14B6893F90010FFF7F2FD59
:1081F0000CE0B3F5847F0BD040F209118B4221D003
:1082000040F20712934201D1FFF7D2FF06B010BD32
:10821000FFF7DEFEFAE74968128902AB0A440093D1
:1082200068464FF0000300F06DF820466946FFF7FE
:1082300071FD684600F038F8E8E74B681988FFF7E9
:108240005AFDE3E753681B788DF80030F3B1FFF770
:1082500082FE114C2378BFF35B8FDB070ED42046E0
:1082600023F0B6F950B10D4809F098FB204623F0F1
:10827000BBF90B4A0B49094823F049FA01236A4626
:1082800042F21071054809F0E3FBBFE7FFF788FEF3
:10829000DFE7FFF7CFFEB9E7D0260020B8260020A1
:1082A0008023002027840200034653F8080B9842DD
:1082B00001D023F09CB970478842F7B504460E46BA
:1082C0001ED003464D6853F8082B9A4214BF8168AC
:1082D0000F21A9420AD201A8019500F0ADF8074686
:1082E0002046FFF7E1FF019B2760A36025B12A46E6
:1082F0003168206800F028F82368656000225A552C
:1083000003B0F0BD73B505460E4619B912B10D485C
:1083100023F089FD941B0F2C019406D9002101A89C
:1083200000F08AF8019B2860AB602246314628683D
:1083300000F00AF8019B2A686B600021D15402B05A
:1083400070BD00BF3DE10400012A30B403D10B78B9
:10835000037030BC7047002AFBD030BC24F0CEBF85
:108360000B680360014B8360704700BF14E2040098
:10837000024B83600B680360704700BF14E2040087
:108380000B680360704770470048704750E0040076
:1083900010B504460846044923F0ABFC002814BF7E
:1083A0002046002010BD00BF50E004000B680360B1
:1083B000014B8360704700BF2CE20400024B8360D6
:1083C0000B680360704700BF2CE204000B68036079
:1083D00070477047004870471CE0040010B5044621
:1083E0000846044923F085FC002814BF20460020DD
:1083F00010BD00BF1CE0040010B5044B044640F85B
:10840000103BFFF751FF204610BD00BF08E20400FB
:1084100010B50446FFF7F0FF20464FF4847123F0B7
:108420007BF9204610BD704710B51821044623F093
:1084300073F9204610BD000008B50368002B02DA6E
:10844000094823F0F3FC8B4208D949008B4205D23E
:108450000029B6BF6FF00043016003600068BDE80B
:108460000840013023F0A4B8BFE1040072DF704778
:1084700073DF704774DF704777DF704778DF7047CE
:108480007CDF704725F09EB8A0F84210704708B511
:1084900000F0C6FA006808BDB0F842007047B0F8B6
:1084A00040007047A0F844107047B0F8440070478F
:1084B000094A02604DF6AD6100224260018182727C
:1084C000C260C0F81220C0F81620C26180F82020D7
:1084D000426280F828207047E0E3040038B590F845
:1084E0002030DB0704460D4605D5044A1B2102F166
:1084F00057000EF02DFEE56038BD00BFACE2040071
:108500002DE9F047044698B000250CAEE1611C222D
:108510000F460EA829460C95756024F017FF1C2203
:1085200029460EA80DF15409ADF854508DF8565057
:10853000ADF85A508DF85C5024F008FF07A920468A
:1085400000F0BAF803222946484624F0FFFE9DF8C1
:108550005630CDF84C9023F0070304F1040943F0A2
:10856000030341F2111A48468DF85630ADF854A075
:1085700001F0FAFD484601F08FFD142229460090D3
:1085800007A824F0E3FE2368CDF81CD01B69ADF8E2
:108590002650204698472368ADF824009B68204663
:1085A0009847ADF82800204600F062FB0DF15A080C
:1085B0000B9003224046294624F0C8FE9DF85C300B
:1085C000D4F80C90CDF8208023F0070343F0050386
:1085D0000DF10C08ADF85AA08DF85C300F9512958E
:1085E000CDF80480B9F1000F5FD0484624F0EAFFCF
:1085F0000F28054604D9013022F0DAFF03950190D7
:10860000012D01984AD199F800300370019B029521
:1086100000215955029BC3B1019A0F920DF15D05DE
:108620009BB203222846ADF84230ADF8403024F02A
:108630008DFE11238DF85D30BDF85E30129503F488
:10864000784343F44073ADF85E30236800251195FC
:108650005B6B31462046984710B1ADF83250119609
:1086600004F1120307AA0EA9B88D00F0C0FA18B1E0
:108670000F4A8C2114F06DFC0021204600F03EF8DA
:1086800094F82030019843F00103404584F82030ED
:1086900001D022F0ACFF18B0BDE8F087002DB5D0B6
:1086A0002A46494624F02AFEB0E7024823F0BBFBE5
:1086B000ACE204002DE304000B7F23F0030343F03E
:1086C00002030B7790F820300A7FC3F3800363F333
:1086D000C3020A7790F82030D2B2C3F3400363F3A9
:1086E00004120A7790F82030D2B2C3F3001363F378
:1086F00045120A77437C81F83F3070472DE9F043FB
:10870000036887B0DB6904468846984705462046DB
:1087100000F0AEFA94F820309B06074667D594F82F
:108720002830FD2B63D84146284606F051FC2368CB
:1087300006469B6820469847B04242D300F070FA44
:10874000236881465B692046984794F82830CDF825
:108750000880CDE9006301463B462A46484606F0BC
:1087600071FC002840D023683146DB6820469847DA
:10877000236820461B699847E369ADF8160098689E
:10878000618AC08B3B460DF1160200F0ACFF20B1B0
:108790001B4A4FF4807114F0DCFB94F82030C3F3D3
:1087A0004000F0B1E2699268D18B4FF6FF729142BE
:1087B00023D0C3F3C000A0B1236820465B6A98476A
:1087C0000FE0122532460021384624F0BFFD236811
:1087D0000021DB682046984700F022FA06F024FCCE
:1087E000284607B0BDE8F0834FF6FF75EAE7236837
:1087F0002946DB6820469847BAE70020F1E700BF2A
:10880000ACE2040070B590F820309A0786B00546B7
:1088100043D5C2699268D18B4FF6FF7291423CD02A
:108820001B073AD503681B6998476B8AADF8083077
:1088300001238DF80A3000260DF10603CDE9043638
:10884000EB69ADF806009B68ADF80C6002A9D88B07
:1088500000F0CFF90828044618D007D860B1104AB4
:108860004FF49D71204614F074FB05E0132806D0E8
:1088700043F201439842F2D1204606B070BD95F80C
:10888000203043F0400385F82030F5E795F820309C
:1088900066F3861385F82030EEE70824ECE700BF86
:1088A000ACE204002DE9F04F90F820309A0791B027
:1088B000044640F18C80C2699268D18B4FF6FF72FA
:1088C000914200F084801B0740F1818003681B699E
:1088D00098478046204600F0CBF994F82050C5F325
:1088E000801582460DB1B4F846504FF0000B0DF1E3
:1088F0001809A8454AD9A8EB05071422132F4FF0F1
:1089000000014846BB46A8BF4FF0130B24F01EFDE4
:10891000132FCABF1322FF22B5FBF2F20AEB0507A1
:10892000C8BFD2B21FFA8BF68DF8182039461FFA4D
:108930008BF20DF1190024F0E1FC721C92B2394661
:108940000BA8ADF8062024F0D9FC638AADF80830F6
:1089500001238DF80A300DF10603CDE90439E369EE
:108960009B68002202A9D88BADF80C2000F041F9D9
:10897000834618B313284FF000020BD194F820203F
:10898000A4F8465042F0400284F82020584611B026
:10899000BDE8F08F082808D194F82010A4F84620EC
:1089A00062F3861184F82010F0E743F2014290420E
:1089B00004D0084A4FF4D17114F0CBFABDF8062068
:1089C0000BA93846354424F099FCADB291E74FF03D
:1089D000080BDBE7ACE2040010B590F820305B0632
:1089E000044609D503685B6A984728B994F8203093
:1089F00060F3861384F8203010BD10B590F8203055
:108A00005B0604460BD503685B6A984738B994F84F
:108A10002030A4F8460060F3861384F8203010BD9F
:108A200080B483B000AF78607B682C3318460C3775
:108A3000BD465DF8047B704710B5044B044640F812
:108A4000303BA36BDB689847204610BD4CE2040026
:108A500010B50446FFF7F0FF2046482122F05CFEE7
:108A6000204610BD2DE9F04387B00D46044600F0C6
:108A7000D7F806F0E0FA0646002840D123682946D8
:108A8000DB6820469847C9238DF8173094F82030CA
:108A900013F0200F236851D094F82820FD2A4DD8D8
:108AA0001B692046984706F0A2FA236801469B6995
:108AB0002046984700F0B4F80546204600F0D8F864
:108AC000236807461B6920469847236880465B69F0
:108AD0002046984723688146DB69204698470DF178
:108AE0001703CDE9000302964B4642463946284615
:108AF00006F07CFB30B900F093F806F095FA07B069
:108B0000BDE8F08300F08CF89DF8172094F8281049
:108B100006F0A9FD0028EED020469DF81760FFF76B
:108B20007FFF23680746DB6920469847E56B0346CD
:108B30003A46314604F13000A847E0E7FE228DF8BE
:108B400017209B69294620469847E5E7F8B5436A10
:108B500004465BBB90F82030DB0920D0144F154E43
:108B60003D78BFF35B8F15F001050ED1384622F03A
:108B70002FFD50B138463560B580B57122F034FD17
:108B80000D4A0E49304622F0C2FD336803B16362DC
:108B9000636A5BB90120BDE8F8400EF03BBB036897
:108BA0009B689847012124F037FB6062F8BD00BF45
:108BB00078270020D826002080230020018C020086
:108BC00038B50446406A28B194F82030DD0902D057
:108BD0000023636238BD24F07BFB6562FAE7002363
:108BE0000120CB8040F21B1308710B807047AADF75
:108BF0007047AEDF7047704770477047002070477E
:108C000010B50446006808B124F062FB204610BD90
:108C100010B59421044622F07FFD204610BD0000CF
:108C200070B50E4E3378BFF35B8F13F0010513D18F
:108C3000304622F0CDFC78B1094C0A4B2360304617
:108C4000042384F8545084F85C3022F0CDFC064AAA
:108C50000649204622F05BFD014870BD74270020C4
:108C6000E026002074EF040080230020F78B020030
:108C700090F820309B0603D590F82830FD2B02D9C0
:108C800003685B691847406A704749BA4182704778
:108C900049BA8182704710B501F10F0302301A46BC
:108CA0008B4212F8014900F8014B00D110BD134668
:108CB000F5E784B038B505AD85E80E0041F2025302
:108CC000038004462946FFF7E6FF2046BDF824103E
:108CD000FFF7DBFFBDF82810FFF7DAFF9DF92C3016
:108CE000A375BDE8384004B070473030704713B505
:108CF000D0E90D3293420446019106D01960436BCE
:108D000004334363204602B010BD01AA1946303037
:108D100000F0E0F8F6E700000A4901604DF6AD61A9
:108D20000022018200F11C01C0E905124FF6FF711B
:108D30000271C0E90222827402778185C0E90C22A7
:108D400082637047B8E4040073B5037904463BBB03
:108D500000F10C058160284601F006FA284601F072
:108D60009BF922464FF6FF73019022F82C3F01A990
:108D7000012000F0EEF818B10A4A2D2114F0E9F8AC
:108D8000236820465B6A9847D0E90056AE4205D07A
:108D9000214655F8040BFFF7B3FBF7E701232371D6
:108DA00002B070BD39E4040070B503685B6A0D461B
:108DB0009847D0E90046A6420FD054F8040B90F82B
:108DC000203065F3451380F82030036815B1DB6A65
:108DD0009847F0E71B6B9847EDE770BD10B50C683E
:108DE000C46000F10C038A889A808A799A7110BD58
:108DF0000A88112A09D0502A0DD0102A10D10368F0
:108E000001F108025B6989881847036801F10802CB
:108E10009B6989881847036831F8062FDB69184772
:108E200070477047F7B503685B6A0D4607461646FC
:108E30009847D0E90031994237D053F8044B28883D
:108E4000E28A90420FD16A89022A0CD105F10C0006
:108E500012F084FD94F8203060F3C30384F82030CE
:108E6000012003B0F0BD628A9642E4D1AB795A1E6C
:108E7000022A06D8236869891B6A20469847012080
:108E8000EFE7062B13D1B86800230DF10602314637
:108E9000C08BADF8063000F015FC2368BDF8061055
:108EA0001B6A204698470120DBE70020D9E7012014
:108EB000D7E770B503685B6A0D469847D0E900466E
:108EC000B44206D054F8040B036829469B6A9847BD
:108ED000F6E770BD2DE9F84FD0E9007AAAEB070458
:108EE000A41014BF23460123E41880468946934604
:108EF000A1EB070526D2B4F1804F23D224BB26462E
:108F0000DBF800307351B94504D02A463946304663
:108F100024F002FA0435D1453544AAEB090B04D0FC
:108F20005A464946284624F0E9F95D4417B13846C7
:108F300022F05DFB06EB8404C8E90065C8F8084030
:108F4000BDE8F88F6FF04044A00022F031FB0646E8
:108F5000D6E7A8DF7047704710B56421044622F0B9
:108F6000DBFB204610BD000010B5094C2378BFF391
:108F70005B8FDB0709D4204622F02AFB28B1054885
:108F800004F0FEF8204622F02FFB024810BD00BF7F
:108F9000D42600208825002070B5104B03600025E2
:108FA00000F1280312260446456232462946184637
:108FB00024F0CCF94FF41671FF22C4E9131265872F
:108FC000C4E90F55C4E9115584F85450A5652566C8
:108FD0003246294624F0BAF9204670BD14E5040053
:108FE00080F82910704780F83A10704780F83B10DD
:108FF0007047012303FA01F110B549B290F93C40E2
:1090000022B12143C9B280F83C1010BD24EA01010D
:10901000F8E7012303FA01F110B549B290F93D4098
:1090200022B12143C9B280F83D1010BD24EA0101EC
:10903000F8E780F83E1070472830704712207047DC
:1090400010B55C30144606F0ACFB28B10146102286
:10905000A01C24F053F9012010BD00002DE9F043BD
:1090600004468FB004F124050E4603F0C9FF2946DB
:1090700004F018F8A36D0133A365FDF7FBFC04238E
:1090800005AA88210AF0B7FFFDF7F4FC042306AA1D
:109090008B210AF0B0FF069A003218BF012202218C
:1090A0002046FFF7A6FF069A002A3AD1A264216D56
:1090B000A06D04F12807002939D0C30740F1D18001
:1090C000A26D12F00F0840F0F880FDF7D3FC0423E6
:1090D00007AA99210AF08FFF072384F82830042378
:1090E00084F82A3094F83A3084F82B3094F83B30E6
:1090F00084F82C3094F83C3084F82D30BDF81E30C4
:10910000E3850622414604F1300024F01FF9059B57
:10911000A26D002B40F0CF8093B2E3864FF47A43E8
:10912000BDE0A36C002BC2D0059BA364BFE7062360
:1091300084F8283094F83B3084F82B3094F83C3095
:1091400084F82C3094F83E3084F82D3094F83F3079
:1091500084F82E304FF07D0C236CC4F8312093FB43
:10916000FCF384F8350084F82A10A4F82F30042288
:1091700004F1360024F0EAF8DFF8BC8198F80030FA
:10918000BFF35B8FD8070ED4404622F021FA50B1CE
:10919000634808F003FC404622F026FA614A62491F
:1091A0005F4822F0B4FA3A46022112235C4808F0E4
:1091B0004FFCFDF75FFC032219210AF02DFF60B37D
:1091C000236D002B00F0A980DFF8709199F8003032
:1091D000BFF35B8F13F0010813D1484622F0F8F972
:1091E00078B1524F524B3B604846042387F8548075
:1091F00087F85C3022F0F8F94A4A4E49384622F0A6
:1092000086FA65220221CDE9012104F12A03102208
:1092100000921946454805F015FFA6B94FF4827330
:10922000ADF81C30702200230893ADF82430ADF85F
:1092300028200B93ADF83030ADF83430FFF794FEB2
:1092400007A903F0A1FF236D002B60D103F0D8FE26
:1092500023464FF48042294603F010FF0FB0BDE8CB
:10926000F08394F83A10F2B1072384F828300123F0
:1092700084F82A30A36C236394F83C3084F83430AB
:1092800094F83E3084F83530059B84F82B10E26268
:109290003BB983B2E3867D22236C93FBF2F32387F1
:1092A0006AE79BB2F6E73A462046FFF7C9FE002878
:1092B0007FF462AF04E79BB22FE7072384F82830DE
:1092C000002384F82A3094F83A3084F82B3094F84C
:1092D0003B3084F82C3094F83C3084F82D30E38F08
:1092E000E3857D21236C93FBF1F32386636CC4F843
:1092F0003230059B4BB993B2E38694F83D3084F845
:109300003830FA2384F8393036E79BB2F4E703F0BB
:1093100077FE23464FF400429DE7002E96D17DE76D
:10932000B82600208023002027840200E0260020A9
:1093300074EF0400F78B0200D02600207427002071
:109340000021FFF78BBE0000031D37B5202200214E
:109350000446184623F0FAFF254645F8240F03F08B
:109360004FFE2D4A294603F079FEFDF783FB0123CA
:109370000DF1070286210AF03EFE9DF80730102B02
:1093800002D045D8022B45D8236504F15C0006F0D5
:10939000ADF903F035FE234629464FF4004203F0B1
:1093A0006DFEFDF767FB032236210AF035FE012131
:1093B00002462046FFF71DFEFDF75CFB0322372126
:1093C0000AF02AFE032102462046FFF712FEFDF7AF
:1093D00051FB032238210AF01FFE052102462046D8
:1093E000FFF707FEFDF746FB032243210AF014FEB8
:1093F000062102462046FFF7FCFDFFF7B5FD21469A
:1094000003F0E6FE01212046FFF728FE03B030BD41
:10941000FF2BB9D0FF23B7E74193020070B58EB0A0
:109420000D460446FDF726FB04230DEB03028821BD
:109430000AF0E1FD4FF4403306931DB140F20513ED
:10944000ADF81A3094F83E308DF80830636CCDF8E2
:109450000930019BA26D002B58D193B2ADF80D30AD
:1094600009238DF810300723ADF818304FF4C67378
:10947000ADF81C300C23ADF824307023ADF8283043
:1094800002AE002304AD0B93ADF83030ADF83430AC
:1094900005960895FFF768FD07A903F075FE94F897
:1094A0003B308DF8083094F83C308DF8093094F852
:1094B0003F308DF80A307D22236C93FBF2F3ADF838
:1094C0000B30019BA26D1BBB93B2ADF80D3008238E
:1094D0008DF810300723ADF818304FF4C673ADF88F
:1094E0001C300C23ADF824307023ADF82830002355
:1094F0000B93ADF83030ADF8343005960895FFF792
:1095000033FD07A903F040FE0EB070BD9BB2A5E786
:109510009BB2DAE737B50B88872B044600F09680BC
:1095200023D8382B00F0BC8008D8362B00F0AA8056
:1095300000F2AF80222B74D003B030BD812B75D0E8
:1095400008D8432BF8D14B681A78003218BF012293
:1095500006211AE0822B70D0832BEDD14B681B685B
:1095600003647F2380F83F30E6E7B3F5947F00F093
:1095700082801AD8962B6FD00AD88B2BDCD14B68FF
:109580001A68003218BF01220221FFF732FDD3E72B
:1095900040F20712934240D0B3F5847FCCD1002132
:1095A00080F85410FFF75AFDC6E7B3F5E17F7ED08F
:1095B00009D8B3F5D97FBFD14B681A78003218BFEC
:1095C00001220721E1E7B3F5EB7F4DD040F2D7123E
:1095D0009342B1D14B685C30196806F00AF9E56C2A
:1095E0006B1EE364002DA7D10DF10700012102F0ED
:1095F00081FE9DF8072042F210735343FF22B3FB14
:10960000F2F303F56A43642260332946B3FBF2F3B5
:109610002046E364FFF702FF8EE7012380F8543011
:109620008AE74B681B7880F83A3085E74B681B78EF
:1096300080F83B300323C3647EE749681E4AD1E9C2
:109640000001002323F008FC606475E74B6893F980
:10965000003080F83E306FE74B681A78002102F046
:109660000102FFF7D6FC67E790F83C3043F01003A7
:1096700080F83C3060E74B681A78003218BF01224E
:10968000002182E74B681A78003218BF01220121BD
:109690007BE74B681A78003218BF0122032174E778
:1096A0004B681A78003218BF012205216DE749681E
:1096B0005C3006F042F83FE70090D003ACDF704723
:1096C000ADDF704713B514461288ADF800200022B4
:1096D000ADF802206A460193FFF7F2FFBDF80030B3
:1096E000238002B010BD13B514461288ADF80020D7
:1096F0000022ADF802206A460193FFF7DFFFBDF8B4
:109700000030238002B010BD10B504460BF06FF896
:10971000204610BD10B504460BF069F8204610BD78
:1097200010B50B4C2378BFF35B8FDB070ED42046BC
:1097300021F04EFF50B107480BF054F8204621F0BD
:1097400053FF054A0549034821F0E1FF014810BDD8
:1097500090270020882700208023002015970200F2
:1097600038B500230446C0E90033C0E902331420B1
:1097700021F01EFF0546606808B121F038FF4FF662
:10978000FF73E383154BA362A363154BA36404F13A
:109790008103C4E90155C4F8A03014351F23E560E6
:1097A000A4F8A430002504F15C03C4E9055525772D
:1097B0002562E5622563E5632564E56484F850501D
:1097C00020222946184623F0C1FD064B636164231D
:1097D000E067638384F88050204638BDD4E50400F8
:1097E000BCE504000600100010B50023044600F894
:1097F000403BA36CDB68984704F1300000F077FB36
:1098000004F1200000F073FB606808B121F0EFFE66
:10981000204610BD13B503780446D3B90DF10700F7
:1098200000F034FC18B10C4A462113F092FB9DF86D
:10983000073033B100F028FC18B1074A4A2113F071
:1098400088FB012000F00EFC0E2000F00DFC01232F
:10985000237002B010BD00BF6DE5040008B513F021
:1098600039FB13F0CBFC13F0CFFC13F049FC0828B4
:109870000AD018B1054A772113F06BFB13F0BEFC38
:1098800010B913F027FBF9E708BD00BF6DE5040030
:109890001FB5037804464BB343783BBB144B01A977
:1098A0001B680193012013F00FFD18B1114AA72185
:1098B00013F04FFB01A813F06FFD18B10D4ABE2144
:1098C00013F047FB00230293ADF80C3002A80C23E1
:1098D000ADF80A3000F0D4FB18B1064AC42113F0E9
:1098E00038FB01236370204600F0ACFB04B010BDD0
:1098F000D02300206DE504007047704738B54378E9
:1099000005464BB3154C2378BFF35B8FDB070ED4B2
:10991000204621F05DFE50B111480AF063FF204659
:1099200021F062FE0F4A10490D4821F0F0FE4FF47D
:1099300096710B480AF063FFFFF7F2FE4FF4967141
:109940000AF05DFFD5E90145AC4205D054F8040B9F
:1099500003689B689847F7E738BD00BF842700205D
:109960007C270020802300200997020070B54378EF
:10997000044673B1837863B9D0E90156B54206D085
:1099800055F8040B03682146DB689847F6E7012386
:10999000A37070BD13B5D0E9023293420446019121
:1099A00006D01960836804338360204602B010BD7E
:1099B00001AA1946043000F0A1FAF6E7012906D001
:1099C00019B1022905D0002070470078704740780F
:1099D000704780787047000010B543788CB004461B
:1099E000002B40D0027F002A3DD1BDF80430ADF8F5
:1099F0000A2003F0E00343F48273ADF804300392CD
:109A00008DF81020FDF736F802230DF1060227210C
:109A10000AF0F1FAFDF72EF82821022302AA0AF033
:109A2000EAFA04F1A00101A800F024FB20B10F4ADA
:109A30004FF4AC7113F08DFA0123237740F2051334
:109A4000ADF81430702200230693ADF81C30ADF849
:109A500020200993ADF82830ADF82C30FFF784FAB8
:109A600005A903F091FB0CB010BD00BF6DE504002B
:109A700010B5437888B00446FBB1037FEBB100F02A
:109A8000FBFA20B10E4A40F2671113F062FA00238C
:109A90004FF48372ADF80420237770220293ADF85F
:109AA0000C30ADF810200593ADF81830ADF81C302F
:109AB000FFF75AFA01A903F067FB08B010BD00BF19
:109AC0006DE50400007F704770B5D0E901460D4692
:109AD000A64205D0294654F8040BFFF765F9F7E7CD
:109AE00070BD0000F0B50B88502B8BB005460C46BE
:109AF00068D015D8102B2FD003D8012B44D00BB031
:109B0000F0BD112B59D01C2BF9D1D5E90165AE421E
:109B1000F5D056F8040B036821461B699847F6E711
:109B2000532B79D011D8512BEFD0522BE7D10022F3
:109B300003231146C08B00F0A1FA0028DFD03E4A73
:109B40004FF4E47113F005FAD9E7562BDDD0572B0B
:109B5000D5D100F09AF9D2E700F035F940F20713B9
:109B6000ADF80C30702200230493ADF81430ADF83A
:109B700018200793ADF82030ADF82430FFF7F4F942
:109B800003A903F001FBBAE7FFF7CAFD0222014671
:109B900003A80AF046FE039B019301A9BDF810300B
:109BA000A088ADF8083000F06DFA0028A7D0224A4E
:109BB00040F2931113F0CDF9A1E700F020F94FF432
:109BC0008473CDE700F0F2F8237B062B16D1FFF764
:109BD000A7FD0222014603A80AF023FED5E901579A
:109BE000039E0634AF428AD055F8040B32880368CE
:109BF0002146DB6998470028F4D080E7D5E9016762
:109C0000A51DB7423FF47BAF56F8040BE28803680A
:109C10002946DB699847F4E7D0E901369E423FF4D4
:109C20006EAF53F8040BE188828D9142F6D1036840
:109C300021461B69984762E76DE5040010B50446AC
:109C40008CB0C11C06220DF1050023F057FBE27C0D
:109C50008DF80420227D8DF80C20A28B8DF80D202C
:109C6000A269CDF80E2040F20112ADF8142001AA2D
:109C700006920E220023ADF81C2070228DF80B30C6
:109C8000ADF820200993ADF82830ADF82C30FFF75F
:109C90006BF905A903F078FA0CB010BD00F12502AC
:109CA0008261FFF7CBBF000070B50B881D2B92B00F
:109CB00006460C462BD10D7AC5F341153DBB083144
:109CC0003AB3242201A823F019FB94F82420216A36
:109CD0008DF828200DF1290023F010FB0F4A07957D
:109CE000442101A813F090F820B10D4A40F23D2123
:109CF00013F02FF906F1A001002000F0BBF90828AD
:109D000005D020B1064A40F24E2113F022F912B0DC
:109D100070BD0846FFF792FFECE700BF9D9C020074
:109D20006DE5040010B50D4C2378BFF35B8FDB07A6
:109D30000ED4204621F04CFC50B10948FFF710FD2D
:109D4000204621F051FC074A0749054821F0DFFC75
:109D50000348BDE8104000F06FB800BFB4260020F3
:109D60000C26002080230020E997020010B504464D
:109D70007C3403F045F92146064A03F06FF903F0FD
:109D80003FF9214600234FF42022BDE8104003F0A4
:109D900075B900BF259D020010B5044603F030F9E7
:109DA00004F17C01BDE8104003F07CB910B5044615
:109DB00003F026F904F17C0100234FF42022BDE8D2
:109DC000104003F07DB9F8B58B88C3830023C370BE
:109DD000C36A04460D4613B1898820309847D4E9F8
:109DE0000167BE4206D056F8040B036829461B697A
:109DF0009847F6E72046BDE8F840FFF7B7BFF8B54B
:109E00004FF6FF73C383C36A04460E461BB1C36B90
:109E1000898830309847D4E90157BD4206D055F8BB
:109E2000040B036831461B699847F6E72046BDE8F6
:109E3000F840FFF7B1BF000008B50346C08B4FF6EE
:109E4000FF72904214D0DA7892B90122DA701321AD
:109E500000F00CF908280BD043F20202904207D020
:109E600030B1044A40F2A321BDE8084013F071B8B4
:109E700008BD00BF6DE50400C0787047C08B4FF689
:109E8000FF73C01A18BF0120704770B5D0E90146B2
:109E90000D1DB44206D054F8040B036829461B6A12
:109EA0009847F6E770BD1FB5CA688B6803925B6878
:109EB000044668469847694604F1200000F05DF8C2
:109EC000684600F014F804B010BD1FB5CA688B686E
:109ED00003925B68044668469847694604F130007F
:109EE00000F04BF8684600F002F804B010BD10B561
:109EF00083680446DB689847204610BD2DE9F84F7B
:109F0000D0E9007AAAEB0704A41014BF234601236A
:109F1000E418804689469346A1EB070526D2B4F1A2
:109F2000804F23D224BB2646DBF800307351B9455D
:109F300004D02A463946304623F0EEF90435D1459F
:109F40003544AAEB090B04D05A464946284623F06B
:109F5000D5F95D4417B1384621F049FB06EB84047E
:109F6000C8E90065C8F80840BDE8F88F6FF04044C4
:109F7000A00021F01DFB0646D6E730B58B6885B002
:109F800004461B6801A80D469847A3682146284649
:109F90001B689847039B01A91B6820469847E36804
:109FA000EA68E260EB6005B030BD00000B6803605A
:109FB000014B8360704700BFD4E50400024B83600F
:109FC0000B680360704700BFD4E504000B680360B2
:109FD000704770470048704738E5040010B50446E4
:109FE0000846044921F085FE002814BF20460020C1
:109FF00010BD00BF38E504000B680360014B8360AF
:10A00000704700BFBCE50400024B83600B6803602F
:10A01000704700BFBCE504000B68036070477047E1
:10A020000048704720E5040010B50446084604497E
:10A0300021F05FFE002814BF2046002010BD00BFA5
:10A0400020E5040008B5143000F012F830B1044ADD
:10A0500040F21F11BDE8084012F07BBF08BD00BFF1
:10A060006DE5040036DF704737DF704776DF7047F5
:10A070007ADF70478ADF70478BDF7047B1DF704748
:10A0800065DF704766DF704711DF704712DF70478A
:10A0900062DF704763DF704782B0837982888DF812
:10A0A0000630002362F30F03BDF8062062F31F435E
:10A0B000184602B0704700002DE9F84F0024DFF881
:10A0C00098A0DFF8A0B08046894626462546274658
:10A0D000D9F80030DB5DABB30F2D2FDC2D2B1ED05C
:10A0E000202B1CD0A3F13002D2B2092A05D9A3F14A
:10A0F0004102052A15D8373BDAB202EB0413F20706
:10A1000048BFC5F10F0203F0FF0406F1010341BF90
:10A1100008F802401E460135002458BF1E4601378C
:10A12000D6E7A3F16102052A01D8573BE4E752467E
:10A13000482158460DF00CF80022DEE7064A074891
:10A14000582104E00F2D04DC034A054856210CF089
:10A15000FFFF4046BDE8F88F1AE6040089E60400D8
:10A1600079E6040067E6040010B50268837986B0DA
:10A1700004465AB3D3B9014602A8FFF79DFF01AACE
:10A1800002A91020FFF786FF052812D1A11D02A801
:10A19000FFF77EFF18B1104A1B2112F0DAFE9DF87E
:10A1A00015209DF8143043EA0223A380A07906B05D
:10A1B00010BD28B99DF80630A371BDF80430F4E74E
:10A1C000054A064822210CF0C3FFEFE7002BEDD132
:10A1D000014A03482521F6E71AE60400ECE50400ED
:10A1E00000E60400427803781344021D1C3012F884
:10A1F000011B0B4490429BB2F9D1D8B200EB132360
:10A20000C3F30F201844C04380B270472DE9F843D0
:10A210001E460F4631B3052826D81C23174D43434D
:10A2200005EB0308EB5C834220D198F80190B9F16B
:10A23000180F1DD891451DD8C3EBC3039C002819E6
:10A24000FFF7D0FFB8F80230834215D104344A46F4
:10A250002919384623F052F898F80130337000205D
:10A26000BDE8F8830520FBE70120F9E70420F7E7C4
:10A270000220F5E70320F3E70620F1E700FF0020C6
:10A280001A4B43604FF4817343810323C37341F23C
:10A290001433038240F60A13C382038BDFF864C0D1
:10A2A00003F0800343F4427343F001030383104B34
:10A2B0000362104BC36140F2C97240F2BC73C0E943
:10A2C000092340F6AC514FF49663C0E90B13436386
:10A2D000094BC363094B0364EC2380F83830084B07
:10A2E000C0E911C3DD2380F84C307047080B060726
:10A2F000CDCC4C3EE02D903B5C8F423F85EBD13E78
:10A30000F0490200400D03001A4B1B4AC0E901232B
:10A310004FF40073C38141F21433038240F2067399
:10A32000C382038B03F0800343F4AC6343F0010367
:10A330000383124B0362124BC3614FF4FA716FF047
:10A340007C03C0E909134FF0000C4FF4E163C0E94E
:10A350000BC34FF4167343630A4BC3630A4B036486
:10A36000EC2380F83830094BC0E91133DD2380F845
:10A370004C30704704050601080A0E0D378981BE6E
:10A380001EA7E83B3333B33E9A99993E80841E0062
:10A390001A4B43604FF4817343810323C37341F22B
:10A3A0001433038240F60A13C382038BDFF864C0C0
:10A3B00003F0800343F4847343F001030383104BE1
:10A3C0000362104BC36140F2D37240F2CD73C0E917
:10A3D000092340F2DC514FF49663C0E90B13436349
:10A3E000094BC363094B0364EC2380F83830084BF6
:10A3F000C0E911C3DD2380F84C307047080B060715
:10A40000CDCC4C3EBC74933B5C8F423F85EBD13E40
:10A41000F0490200400D03001B4B43604FF4817371
:10A4200043814FF44073C38141F21433038240F6F9
:10A430000A13C382038B154903F0800343F4B473FA
:10A4400043F001030383124B0362124BC3616FF0AD
:10A4500062034362AB3B836242F228324FF496635D
:10A46000C0E90B234FF4167343630B4BC3634FF0E8
:10A470007A530364EC2380F83830084BC0E9111399
:10A48000DD2380F84C307047080B0607400D0300B1
:10A49000A01A2F3E48507C3B3333333FF049020033
:10A4A0001D4B4360012303724FF4E06343811B4B58
:10A4B000C36003F1F05303F5A81303F611530361CE
:10A4C000174B4361038B174903F0800343F4CC63BC
:10A4D00043F007030383144B0362144BC36100234F
:10A4E0004362A3F58773836242F2283240F2145329
:10A4F000C0E90B234FF4167343630D4BC3630D4B3D
:10A500000364EC2380F838300B4BC0E91113DD23D2
:10A5100080F84C30704700BF080B0F0D0507030291
:10A5200022240829400D0300F931463E48507C3B67
:10A530001A51BA3E1283A03EF0490200174B436005
:10A5400040F2012343810423C3814FF4C16303829A
:10A5500041F21343C382038B03F0800343F48F73F0
:10A56000038300230362C3614FF47A73C0E90933A4
:10A5700000224FF46163C0E90B2343634FF0804333
:10A58000C3634FF07E530364D82380F83830044B04
:10A59000C0E91133DD2380F84C30704711160B0CE5
:10A5A00080841E0008B5FFF7C9FF0423437608BD69
:10A5B00041F619230382038B03F0F00343F4007385
:10A5C0000383EC2380F83830014BC0E91133704726
:10A5D00080841E0038B54FF010230546D3F8844020
:10A5E000631C04BF224B1C68B4F57C7F1BD840F26F
:10A5F000EF339C422CD2642C30D008D8A4F128032D
:10A60000022B2ED92846FFF7C3FE072038BDC82CE1
:10A610002AD0F7D3A4F57A73042BF3D8FFF730FED2
:10A620002C600020F2E7B4F5BC6F0AD840F2DF538B
:10A630009C4210D240F2DC539C42E3D3FFF7A8FEC9
:10A64000EEE740F2E1539C42DCD1FFF729FFE7E758
:10A65000FFF75AFEE4E7FFF7DFFEE1E7FFF7A8FFA9
:10A66000DEE7FFF76BFFDBE7FFF79CFFD8E700BFF4
:10A67000C823002010B50B4C2378BFF35B8FDB079A
:10A680000ED4204620F0A4FF50B10748FFF768F829
:10A69000204620F0A9FF054A0549034821F037F874
:10A6A000014810BDB42600200C2600208023002085
:10A6B000E997020010B50368022B88B029D0032B5C
:10A6C0002CD0012B23D140F22913ADF80430702295
:10A6D0000023154C0293ADF80C30ADF81020059313
:10A6E000ADF81830ADF81C302378BFF35B8FDB0773
:10A6F00009D4204620F06CFF28B10C4802F040FD40
:10A70000204620F071FF01A9084802F03DFD08B085
:10A7100010BD00F0D1F802F071FBF8E700F0CCF8C2
:10A7200002F06EFBF3E700BFD4260020882500204E
:10A7300007B501900138022804D804210DEB01006F
:10A74000FFF7B8FF03B05DF804FB10B50446FFF750
:10A7500091FF2146BDE81040FFF7C4B913B5038847
:10A76000212B044641D013D8112B09D8102B02D22B
:10A77000013B012B0AD830212046FFF7E6FF05E018
:10A780001B2BF8D01D2B29D0152BF4D002B010BDF7
:10A79000522BF0D011D83B2B35D0502BEBD0232BA4
:10A7A000F4D100221146808800F080F80028EDD016
:10A7B000204AAC2112F0CDFBE8E7562B2ED0572BC8
:10A7C000D9D0552BE2D14521808800F071F80028BE
:10A7D000DCD0184AB22112F0BCFBD7E7FFF74AFFE2
:10A7E00000222146FFF760FAD0E7002301A9808804
:10A7F000ADF8043000F058F80028C7D00D4A9B216E
:10A8000012F0A7FBC2E71321808800F04BF8002864
:10A81000BCD0084AA12112F09CFBB7E71321808825
:10A8200000F040F80028B1D0024AA72112F091FBB5
:10A83000ACE700BFC1E60400704715F00BBD10B5D2
:10A84000044600F039F82146BDE8104002F096BAFF
:10A85000FFF7F5BF08B5064A142112F0D5FA28B162
:10A86000044AFF21BDE8084012F073BB08BD00BFD9
:10A8700051A80200C1E6040010B5044B0360044671
:10A88000C06908B120F0B3FE204610BDA0E6040068
:10A8900010B50446FFF7F0FF2046342120F03CFFBE
:10A8A000204610BD76DF70478FDF704790DF70471E
:10A8B000B5DF70477047000010B50B4C2378BFF32D
:10A8C0005B8FDB070ED4204620F082FE50B1074894
:10A8D00001F0C4FE204620F087FE054A05490348E2
:10A8E00020F015FF014810BDC82700209427002044
:10A8F0008023002079A802009A2837D8952877D29B
:10A90000252819D8212873D20C2808D80B286FD2F3
:10A9100000286DD0431F042B88BF002070471428E7
:10A9200005D8122864D2102818BF00207047A0F163
:10A9300017039BB2052B0BE047280CD83B2857D2B6
:10A94000272854D32F2853D9A0F132039BB2082BC8
:10A9500028BF00207047892806D8862848D2A0F151
:10A9600080039BB2042BF3E78B28DDE7B0F5B47FBF
:10A970001CD2B0F5B27F3BD2B0F5957F0DD2B0F5C9
:10A98000947F35D2B0F5807F31D3B0F5857F2FD35A
:10A99000A0F58A739BB20A2BDAE7B0F59E7F26D327
:10A9A000B0F5A37F24D9A0F5A873F3E7B0F5D97F5C
:10A9B0000DD8B0F5D57F1BD2B0F5BC7F17D3B0F55D
:10A9C000C07F15D3A0F5C6739BB2152BC0E7B0F5B9
:10A9D000ED7F05D8B0F5E97F0AD2A0F5DF73A8E7CF
:10A9E0004FF6FF7398420CBF1846002070470020B6
:10A9F000704700000388053B9BB2B3F5EA7F9ABF1E
:10AA0000014AD05C0020704715E704000088472801
:10AA100007D845280AD2063803288CBF0020012019
:10AA20007047A0F19A03584258417047012070477F
:10AA30000388802B03D1081C18BF01207047012018
:10AA400070470388222B19D8212B2BD2102B29D009
:10AA500009D8052B24D3092B24D90B3B012B8CBF00
:10AA6000FF2000207047182B1CD002D8123B022B6D
:10AA7000F5E71B2B0CBF0020FF2070473C2B08D8AC
:10AA80003B2B0FD2272B0BD32F2B0BD9323B072B72
:10AA9000E5E7962B08D001D8423BE8E79A2BE9E797
:10AAA000FF20704700207047012070470388392B32
:10AAB0001DD8322B3DD2142B0FD8122B39D20C2B90
:10AAC00007D80B2B35D2053B042B8CBFFF20002071
:10AAD0007047102B08BF002024E0222B04D8212B24
:10AAE00027D2183B032BF0E7273B082BEDE7882BF9
:10AAF0000ED8872B21D2442B04D8422B19D23B3BB2
:10AB0000012BE2E7803B032B8CBFFF200120704725
:10AB1000982B0AD8972B0CD2952B0ED00BD88B2BB9
:10AB200008BF012018BFFF207047992B05D09A2B32
:10AB3000D0E700207047022070470120704700F1E5
:10AB4000804000F5E040002382B003600368019379
:10AB5000019B02B070470023435082B043580193D9
:10AB6000019B02B070477047704710B54021044602
:10AB700020F0D2FD204610BDFF21C17601F58031C5
:10AB80000B4AC1610B4902600022027180F820204B
:10AB900080F8302080F83620C0E90E22C0E90A2271
:10ABA0000A6080F82120428480F82420704700BF8A
:10ABB0002CEA0400CC27002010B50B4C2378BFF3FF
:10ABC0005B8FDB070ED4204620F002FD50B1074812
:10ABD000FFF7D2FF204620F007FD054A054903484C
:10ABE00020F095FD014810BDDC270020E027002063
:10ABF0008023002069AB0200164A0023022110B511
:10AC0000C2F80035C2F8F015C2F8F4356FF0004311
:10AC1000C2F808334FF48270FFF791FF0E4B4021CA
:10AC2000802483F80713C3F8804193F80713480979
:10AC3000EC210141C90705D50849886838B10B687E
:10AC400023430B600223C2F80433002010BD1C60B4
:10AC5000F8E700BF0070004000E100E0506700200E
:10AC60008162704770B5C37F0246002B39D01D4DFD
:10AC70001D490226C5F808630023C377C37D01245C
:10AC800004FA03F3C1F80835837E184804FA03F385
:10AC9000C1F80835164B1C60A3F580534FF4A07122
:10ACA0001C60FFF758FF134B1C6092F8203073B103
:10ACB00082F820604FF48A70FFF741FF2023C5F827
:10ACC00004330D4B1C6092F82030002BFBD1002385
:10ACD00053774FF48270FFF732FF024B0222C3F822
:10ACE000042370BD0070004000F00140009000405F
:10ACF00004A000400C90004008700040F8B54318D4
:10AD000093F8213023B1294A40F2CD1111200CE0F3
:10AD1000274A0224C2F80843437F012B09D9C2F80D
:10AD20000443224A40F2D9111320BDE8F84012F042
:10AD300010B9204D55F8216090F8205005F0FF071C
:10AD4000FDB1012F1CD1057FFF2D05D0C2F80443B2
:10AD50004FF4F271154AD9E70133174A0177437767
:10AD60001368002BFCD04FF48070FFF7E8FE104B07
:10AD7000C822C3F82C66C3F830260222C3F8042385
:10AD8000F8BD01252B44C1764377FF21C82380F805
:10AD900020500177C2F804434FF48070C2F82C664B
:10ADA000C2F83036FFF7CBFE1560E9E75FE9040033
:10ADB00000700040CC2700200071004038B5C37FF0
:10ADC000013B012B04460DD900F12102002325305F
:10ADD00012F8011B002918BF0B468242F8D113B1AB
:10ADE0000223E37738BDE17E0123FF29E37722D0F8
:10ADF000257FFF2D204617D0FFF780FF29462046EC
:10AE0000FFF77CFFE27D0F49012303FA02F2A377EB
:10AE1000C1F804250C4A1360A27E03FA02F2C1F8BD
:10AE200004250A4A1360DDE7FFF768FFE17E013180
:10AE300001F00301E3E7064A40F2BD11082012F0D9
:10AE400088F8DFE700F001400CA0004000900040CF
:10AE50005FE9040010B54218002482F82140C47F45
:10AE6000022C05D10322C277FFF7A8FF012010BDF5
:10AE7000012CFBD1023101F00301FFF73FFF014B31
:10AE80001C60F3E704A00040C162704743798B4225
:10AE90000FD901EB410100EB410113788B71D2F81E
:10AEA0000130C1F807305379CB72012303710020C0
:10AEB000704760207047000070B5164D90F8301054
:10AEC000B0F93C3005EB01111B0443F47843C1F8A1
:10AED0001C3590F83060072E044604D90E4940F224
:10AEE000B92012F0A1F87600802303FA06F6C5F81F
:10AEF000086394F83040072C04D9074940F2B92080
:10AF000012F092F84023640003FA04F4014BC3F8F2
:10AF1000044370BD007000400AE90400072998BF8F
:10AF20000B4BC26398BF33F8113080F8301088BFE4
:10AF30004FF4AA730729438696BF064B4FF4A873B4
:10AF400033F811308386012380F83630FFF7B4BF21
:10AF5000EAE80400FAE8040070B5164D90F83010E5
:10AF6000838F05EB011143F07F6343F47023C1F835
:10AF70001C3590F83060072E044604D90E4940F283
:10AF8000B92012F051F87600802303FA06F6C5F8CE
:10AF9000046394F83040072C04D9074940F2B920E3
:10AFA00012F042F84023640003FA04F4014BC3F8A2
:10AFB000084370BD007000400AE904002DE9F0412B
:10AFC0000546194EFFF7C8FFD5F82C80D6F8047552
:10AFD000B8F1000F24D0D6F80825AC6B013200235D
:10AFE0004FF41820002121F087FF4FF47A720023DC
:10AFF00021F082FF3C1B24F07F44844210D9D6F814
:10B000000825002301324FF42820002121F074FF8D
:10B010004FF47A72002321F06FFF844200D2C047C0
:10B02000AF63BDE8F08100BF00B0004010B504463A
:10B03000FFF718FE2046BDE81040FFF7BFBE08B579
:10B04000FFF7BAFDBDE80840FFF7F0BFFFF7F7BF15
:10B05000002108B5064A084611F0D6FE30B1054A6F
:10B0600040F2B921BDE8084011F073BF08BD00BF30
:10B070004DB002005FE9040013B52F4B1B68044676
:10B0800013B34FF48270FFF75AFDE37E8DF807305B
:10B090002A4BD3F8343694F82010C9B201291DD1B7
:10B0A000637F013B6377237FFF2B19D102230021AC
:10B0B00084F82030224A084611F0A6FE20B1214A29
:10B0C00040F2DA2111F045FF1F4B1B68B3B14FF47A
:10B0D0008A70FFF734FD002384F8203002B010BDE1
:10B0E000E376FF232377194A0DF1070011F08CFE58
:10B0F0000028E9D0134A40F2E621E3E794F836301D
:10B10000002BEBD0608E00F1804303F5E0431B6819
:10B1100023B1FFF714FD2046FFF7CEFEA08E00F10D
:10B12000804303F5E0431B68002BD7D0FFF707FDF2
:10B130002046FFF743FFD1E7047100400070004054
:10B140003FB002005FE9040014710040BDB5020089
:10B1500008B5FFF731FDBDE80840FFF78DBF704728
:10B1600008B5FFF729FDFFF773FF4FF4A071024800
:10B17000BDE80840FFF7EFBC00A00040042914D050
:10B180000AD8012913D0A1B1022914D0032908BF7C
:10B19000042018BF0020704706290ED00FD30729BE
:10B1A0000FD0642908BF0920F3E70520704702206B
:10B1B0007047012070470320704707207047062022
:10B1C0007047082070472DE9F0411378072B80461F
:10B1D0000C46174604D9642B02D001200CF01AF853
:10B1E0007B79083BDBB2F62B02D801200CF012F879
:10B1F000D7F80130962B33D9B3F5967F32D9B3F512
:10B20000167F31D9B3F5966F30D9B3F5E16F2FD9E9
:10B21000B3F5166F2ED940F6B83293428CBF002397
:10B2200001237979FF2927D04046FFF7A7FF0125A1
:10B23000064639784046FFF7A1FF22012D0502F1AD
:10B24000804202F5E04245EA032343F40033C2F8AA
:10B250001835C2F81465C2F810050020BDE8F08169
:10B260000723DEE70623DCE70523DAE70423D8E734
:10B270000323D6E70223D4E700263546D9E70000AA
:10B280002DE9F843421D0F460B460446103153F892
:10B29000040B42F8040B8B42F9D11B7813707F4BDF
:10B2A0007F4D01221A60D5F8083543F00303C5F835
:10B2B0000835D5F8103523F00F03C5F81035D4F84C
:10B2C00012304FEA13794FEA0318B9F1010F08BFA2
:10B2D000B8F1000F04D3734940F2B12011F0A4FE7D
:10B2E000C5F84085D5F804356D48DFF8E48123F0D2
:10B2F0000303C5F80435D5F8003243F00103C5F85F
:10B3000000324FF4A071FFF726FC4FF4A27164489D
:10B31000654DFFF720FC4FF4A4716148FFF71BFC5B
:10B320004FF4A6715E48FFF716FC0C23A3755F4B24
:10B33000C5F87035A3F504533C3BC5F8743503F5E7
:10B3400040530433C5F84039A37D594A012606FA13
:10B3500003F3C5F80435C8F80060D2F8083543F0A7
:10B360000303C2F808356179C823B3FBF1F3033B4B
:10B37000C2F84035D2F8043523F003033343C2F852
:10B38000043510464FF4A071FFF7E5FB4FF4A271AE
:10B39000FFF7E1FB4FF4A471FFF7DDFB4FF4A6715B
:10B3A000FFF7D9FBD2F8003243F48073C2F80032C1
:10B3B0000E2363763F4BC5F88035A3F589531C3BBC
:10B3C000C5F88435637E9E400F23C5F80465A376D7
:10B3D000394B3A4EC5F888656021C5F88C85C5F8AB
:10B3E0004C2983F80A1393F80A134809EC21014108
:10B3F00011F0010F154606D0314A916859BB4FF440
:10B4000080621A6005E02F4ABE2142F2020011F06C
:10B41000A0FD4FF48033C5F804330D23E375224BB0
:10B42000294AC3F878653946C3F87C252046FFF7DA
:10B43000E3FB18B1234AD22111F08BFDA61D002594
:10B440006379AB420CDD3246E9B22046FFF7BBFE22
:10B4500001350636F4E7136843F480631360D8E7D8
:10B46000194B1A4F0122C3F8002504F1210504F1FC
:10B47000250800264FF4C87020F07BFB47F8040B2A
:10B4800005F8016BA845F5D101232046E676237720
:10B4900001F0B8FE0020BDE8F88300BF0C9000402A
:10B4A00000900040AFE9040000F0014040910040EE
:10B4B00000A0004040A1004000E100E00471004015
:10B4C000506700205FE9040000700040CC27002096
:10B4D0000CA000401A4B70B500240546C3F8004587
:10B4E000861D6B79A34207DD3246E1B22846FFF79D
:10B4F0006AFE01340636F4E7114B124C0122C3F800
:10B5000000252378BFF35B8FDB070ED4204620F0A5
:10B510005FF850B10C4806F041FA204620F064F87C
:10B520000A4A0B49084820F0F2F811236A1D42F23A
:10B530007471054806F08CFA00232B7170BD00BFB2
:10B5400000700040D0260020B82600208023002074
:10B550002784020030B5836A89B004460D4653B390
:10B560004318012283F82120837F93B140F27F1397
:10B57000ADF804307022002301A80293ADF80C301E
:10B58000ADF810200593ADF81830ADF81C3001F07F
:10B59000DBFD0023A377237943B12046FFF762FB4D
:10B5A0002046FFF797FF2046FFF708FCA36A2846CE
:10B5B000984709B030BDFFF74DFCFAE710B50446D7
:10B5C000FFF7FAFA2178BDE81040FFF7C3BF036820
:10B5D000007918477047000030B52DED028BB4EEAE
:10B5E000E00AF1EE10FA85B005460C46F0EE408A0E
:10B5F000B0EE608A04DB504A2221212011F0A9FC20
:10B600004E4BD3F80435AB6018EE900A20F0C6FF1D
:10B6100043A3D3E9002321F0A9FA002860D0DFED8D
:10B62000487A68EEA77A17EE900A20F0B7FF3EA39B
:10B63000D3E9002320F054FE3DA3D3E9002321F0F9
:10B640002FF900223F4B20F049FE21F0D7FAC5B276
:10B6500018EE100A20F0A2FF31A3D3E9002321F055
:10B6600085FAC0B1DFED367A68EE277A17EE900AD8
:10B6700020F094FF2CA3D3E9002320F031FE2CA36B
:10B68000D3E9002321F00CF900222E4B20F026FEF6
:10B6900021F0B4FAC0B2002304210622072C8DF851
:10B6A00004108DF806308DF807508DF808008DF8DD
:10B6B0000930ADF80A308DF80D2013D91E4A3B2110
:10B6C000212011F046FC204901A811F0CDFE18B14F
:10B6D000194A592111F03DFC05B0BDEC028B30BD7B
:10B6E0000546B5E7013C062C06D8DFE804F004085F
:10B6F0000A0C0F11140001238DF80C30E3E702232C
:10B70000FAE70323F8E78DF80C10DCE70523F3E7ED
:10B710008DF80C20D7E70723EEE700BFAFF30080DA
:10B72000666666666666AA3F666666666666FA3F2F
:10B730006666666666660A4040EA040000B000403D
:10B74000000080420000F03FF9B702000139CBB29F
:10B75000032B05D8034A002132F8130011F00CBF67
:10B76000704700BF38EA040011F024BF38B50B88D9
:10B77000A3F5807304460C2B36D8DFE803F00935B7
:10B7800035350735353531353535330002232371ED
:10B79000236823B3154BD3F80455D3F80825A368C1
:10B7A0000132ED1A4FF448100023002121F0A4FBD0
:10B7B0004FF47A72002321F09FFB25F07F458542EC
:10B7C00009D90B4A0821204611F01EFB18B1094A7D
:10B7D000A02111F0BEFB054BD3F80435A36038BDA2
:10B7E0000123D4E70423D2E70023D0E700B00040D0
:10B7F000CFB5020040EA040013B50B4CADF80600CB
:10B800002378BFF35B8FDB0706D420461FF0E0FEF2
:10B8100010B120461FF0E8FE0DF106010348FFF7C6
:10B82000A5FF02B010BD00BF202800202428002062
:10B8300010B5094C2378BFF35B8FDB0709D4204692
:10B840001FF0C6FE28B1054800F04CF920461FF055
:10B85000CBFE024810BD00BF302800203828002051
:10B8600070B5012343710B6803604C7904711F2C80
:10B8700086B006460D4604D91A494FF4F37011F00C
:10B88000D3FB04F5E0744FF0A043032243F82420D7
:10B8900034791F2C04D913494FF4F37011F0C4FB11
:10B8A00001264FF0A04306FA04F4C3F80C45FBF759
:10B8B000E1F804230DEB0302052108F09CFB019B3A
:10B8C00002932B79ADF80E302B7E8DF80C60C3F30C
:10B8D00040038DF81030FFF7ABFF02A900F086FBA4
:10B8E00006B070BD91EA040038B5437905460C46B0
:10B8F00013B901200BF08EFCE87900B934B9FFF7D9
:10B9000097FF2246002100F029FA012038BD0000EF
:10B9100038B50368B3F57B7F04461CD8B3F57A7F4E
:10B9200005D2642B03D005D8283B022B04D8012371
:10B93000E37138BDC82BFAD025791F2D04D90A49E7
:10B940004FF4F37011F070FB01234FF0A042AB40B5
:10B95000C2F80835EBE740F2EF329342E7D0EBD381
:10B96000A3F2DC53042BE1E791EA040073B54379B9
:10B97000044613B901200BF04DFCA579ADB90126A1
:10B980002046A671FFF7C4FFFBF774F833460DF1AC
:10B990000702422108F02FFB2368283B022B06D820
:10B9A000FFF746FF294600F0BBF802B070BDFFF775
:10B9B0003FFF9DF80710003118BF0121F3E73CDF7E
:10B9C00070473DDF70473EDF704707B501A9FFF7BD
:10B9D000FAFF019803B05DF804FB000008B54FF0D2
:10B9E000FF310020FFF7EDFF28B1034A2221BDE817
:10B9F000084011F0AEBA08BDE5EA040008B51F2101
:10BA00000020FFF7DEFF28B1034A2B21BDE80840E4
:10BA100011F09FBA08BD00BFE5EA040010B5044666
:10BA2000FFF7ECFF1F2C21464FF0000028BF1F211D
:10BA3000FFF7C5FF28B1034A3821BDE8104011F0D7
:10BA400088BA10BDE5EA040008B501460020FFF7FA
:10BA5000B6FF28B1034A4A21BDE8084011F079BA7F
:10BA600008BD00BFE5EA040008B501460020FFF765
:10BA7000A8FF28B1034A5321BDE8084011F069BA74
:10BA800008BD00BFE5EA040010B504460020FFF73A
:10BA90009CFF044214BF0120002010BD1F2810B5D8
:10BAA000044604D905494FF4F37011F0BDFA0120A2
:10BAB0004FF0A043A040C3F80C0510BD91EA04006C
:10BAC0001F2810B5044604D905494FF4F37011F04E
:10BAD000ABFA01204FF0A043A040C3F8080510BD09
