:020000021000EC
:10C0000000000120D5C001005DC4010025C701006A
:10C010005DC401005DC401005DC4010000000000BA
:10C020000000000000000000000000005DC40100EE
:10C030005DC40100000000005DC401005DC401009A
:10C040005DC401005DC401005DC401005DC4010068
:10C050005DC401005DC40100657D020051910200D4
:10C060005DC40100898F0200998F02005DC4010048
:10C070005DC401005DC401005DC401005DC4010038
:10C080005DC40100396C02005DC401000D7A02003C
:10C09000F96C02005DC40100899E02005DC40100CC
:10C0A0005DC401005DC401005DC401005DC4010008
:10C0B0005DC401005DC401005DC401005DC40100F8
:10C0C0005DC401005DC401005DC401005DC40100E8
:10C0D0005DC401004FF0804307B50022C3F804217E
:10C0E00001221A601A46D2F800114FF0804300294D
:10C0F000F9D00222C3F8182501229A60D3F804214E
:10C10000002AFBD04FF0804301229A671749184B51
:10C11000184801930022834205D251F8042F43F8B6
:10C12000042B0122F7E702B10193019A1249134847
:10C13000114B8A4202D242F8040BF9E7002210495F
:10C14000019310468B4203D243F8040B0122F9E716
:10C1500002B1019302AB094953F8042D9A4202D26D
:10C1600042F8041BFAE70AF02FFBFEE780690300A0
:10C17000B82600208C2F0020902F0020EFBEADDECF
:10C18000F84B0020FFFFFFFFFFFFFFFFFFFFFFFF58
:10C19000FFFFFFFFFFFFFFFFFFFFFFFFFFFFFFFFAF
:10C1A000FFFFFFFFFFFFFFFFFFFFFFFFFFFFFFFF9F
:10C1B000FFFFFFFFFFFFFFFFFFFFFFFFFFFFFFFF8F
:10C1C000FFFFFFFFFFFFFFFFFFFFFFFFFFFFFFFF7F
:10C4000010B5054C237833B9044B13B10448AFF38E
:10C4100000800123237010BD902F00200000000039
:10C4200084690300084B10B51BB108490848AFF3F5
:10C4300000800848036803B910BD074B002BFBD0F0
:10C44000BDE81040184700BF00000000942F0020F6
:10C45000846903008C2F00200000000070470C232B
:10C4600003710A2343710B2383710723C3710623CE
:10C4700003720F2383721023C372837B43F007037D
:10C480006FF3C30383730123C373D82380F824306D
:10C490007047FFFF0823037106234371072383714D
:10C4A0000223C37101230372142383721323C37203
:10C4B0000A23037309234373837B03F0F00343F0E0
:10C4C00009036FF3041383730B4B03610B4B43613D
:10C4D00040F2C973836140F2BC73C36140F6AC5350
:10C4E0000362074B8362074BC3620322EC23427251
:10C4F000C27380F824307047CDCC4C3EE02D903B89
:10C500005C8F423F85EBD13E0823037106234371C4
:10C51000072383710223C371142383721323C3720D
:10C520000A23037309234373837B03F0F00343F06F
:10C5300009036FF3041383730B4B03610B4B4361CC
:10C5400040F2D373836140F2CD73C36140F2DC5398
:10C550000362074B8362074BC3620122D823027236
:10C56000C27380F824307047CDCC4C3EBC74933BF2
:10C570005C8F423F85EBD13E0F2303711023437143
:10C58000112383710323C371022303720623837271
:10C590000723C372837B43F0030303F0FB036FF3B2
:10C5A000C30383730123C3730A4B03610A4B4361C3
:10C5B00040F2D373836140F2CD73C36140F2DC5328
:10C5C0000362064B8362064BC362D82380F8243093
:10C5D000704700BFCDCC4C3EBC74933B5C8F423F58
:10C5E00085EBD13E112303710B2343710C2383711F
:10C5F00001230372C373837B03F0FE03022143F024
:10C600001E03417283730821002381720361062196
:10C610004361094BC172836213214FF07E530022A4
:10C620000173C3621421D823C27141738261C26154
:10C63000026280F82430704700004040837B03F0A2
:10C64000F8036FF3C30383730223C373D82380F803
:10C650002430704708B54FF010230246D3F88430D9
:10C66000591C19D0642B22D008D8012B1CD018D308
:10C67000283B012B1ED8FFF7B5FF10E0B3F57A7FFA
:10C6800018D3B3F57B7F04D9A3F2DC53022B11D866
:10C6900002E0FFF7FFFE02E01046FFF735FF002043
:10C6A00008BDFFF7DCFEFAE7FFF766FFF7E7FFF7E5
:10C6B000C5FFF4E71046FFF727FF072008BDFFFF7F
:10C6C0008EB0036800934368019383680293C36844
:10C6D0000393036904934369059383690693C369CC
:10C6E00007930A4B1B680893094B1B680993094B76
:10C6F0001B680A93084B1B680B93084B1B680D9330
:10C70000074B1B680C9300BE0EB0704728ED00E08D
:10C710002CED00E030ED00E03CED00E034ED00E019
:10C7200038ED00E004207146084203D0EFF30980A1
:10C73000FFF7C6BFEFF30880FFF7C2BF30B5002494
:10C740001C6001380B4615685C1AA54207D910F821
:10C75000015F03F8015B0578002DF4D114600846F1
:10C7600030BD82B089B2ADF8061000BEFEE782B0DF
:10C7700089B20190ADF8021000BEFEE782B000233E
:10C780000190ADF8023000BEFEE7FFFF024B16221B
:10C790001A604FF0FF307047F44B0020FEE7012095
:10C7A00070474FF0FF3070470020704701207047FE
:10C7B000002070470020704710467047064A07491E
:10C7C00013681844884203D300BE4FF0FF3070470F
:10C7D00010601846704700BFBC260020189A002041
:10C7E0007047704710B504460DF08CFB204610BD15
:10C7F000002200F5B6710270C0F86411C0F868211B
:10C8000080F86C21C0F87C21C0F880217047312964
:10C810001AD8DFE801F02719191C1E201E1E2C1C37
:10C82000191C1E221C1C1E1E1E1E1C1C1E1C2E2E15
:10C830002E2E2E191E1E1E1E1E2C2C2C191E1E1EC8
:10C840001C20202020201E2040F202307047012BA7
:10C8500004E0022B02E0042B00E0062B0CBF0020BA
:10C8600002207047202B34BF002002207047102B7D
:10C87000F4E740F201307047183908B513460E2925
:10C880002AD8DFE801F0080D12171C2929292929C7
:10C8900029292929240000221946D0F83C0112E058
:10C8A00001221946D0F840010DE001221946D0F8C6
:10C8B000440108E000221946D0F8480103E0D0F80E
:10C8C0004C010022194601F0ABF8012008BD0022FE
:10C8D0001946D0F85401F6E7002008BDA1F118036D
:10C8E000DBB20E2B07B50CD801229A4044F21F038D
:10C8F000134043B10DF10702FFF7BEFF9DF807009B
:10C9000002E0002000E0184603B05DF804FB07B524
:10C910004FF4AC730093021D00F10C0306CAD0F86B
:10C920007C0101F0E7F903B05DF804FB70B5134D2D
:10C930002B68DB0704460E460ED428460EF072F92B
:10C9400050B10F4801F004F928460EF087F90D4A5E
:10C950000D490B480DF0D0FA0948C4F87C018379E1
:10C96000C4F8806143B1221D002101F065F9204621
:10C97000FFF7CDFF0123237070BD00BFEC2F002017
:10C98000F02F0020B8260020E1C7010073B504464F
:10C990000D4616460C3000F0F5FF8DE86000221DB4
:10C9A000034606CAD4F87C0101F00EFA02B070BD4D
:10C9B000F8B5164605460C461F46FFF78FFFB042F6
:10C9C00028D0A4F118010E2926D8DFE801F0080BC1
:10C9D0000E1114252525252525252525170005F5C6
:10C9E0009E740DE005F5A0740AE005F5A27407E059
:10C9F00005F5A47404E005F5A67401E005F5AA7434
:10CA00002146304601F00AF827B104222146284683
:10CA1000FFF7BCFF0120F8BD0020F8BD094B99428B
:10CA200010B504460DD10021D0F87C0101F046F983
:10CA300004F10C004FF4AC72FF21BDE8104012F07D
:10CA40007FBA10BDEFBEADDE38B5044608461146CC
:10CA50001A4623461D1B954208D213F8015BFF2D91
:10CA6000F8D0214612F06EF9002006E011B112F064
:10CA700069F901E012F064FA012080F0010038BD8C
:10CA800070B504468AB016461D46312900F2308141
:10CA9000DFE811F032002E012E013E004200280195
:10CAA00048004E00520063002E0169006E007300C2
:10CAB0007A007F0084008A00900096009C00A1000C
:10CAC000A800AE002E012E012E012E012E012E01F6
:10CAD000C700CD00D300D800B300B800BD00C2002D
:10CAE0002E01DE00E300E800ED00F700FF00090181
:10CAF000100117012E0120017F4902A812F0BEFE8D
:10CB00002B4602AA314604F10C0000F057FFE7E083
:10CB100000223146C06E62E04FF496723146D0F882
:10CB2000900002E0006F0022314600F087FFD7E05E
:10CB300000223146406FF8E7704B009300256946AC
:10CB400002A8ADF804508DF8065001F085FF1023BF
:10CB500002AA314604F1780013E06FF03B0231463F
:10CB6000D0F888008AE004223146D0F8940085E0AD
:10CB7000A0223146D0F89800D7E7614A0623314613
:10CB80009C30FFF761FFABE002223146D0F8A400F1
:10CB900074E00A223146D0F8A8006FE04FF4FA6240
:10CBA0003146D0F8AC00C0E74FF47A723146D0F885
:10CBB000B000BAE741F658323146D0F8B400B4E7D5
:10CBC0004FF4C8723146D0F8B800AEE74B22314678
:10CBD000D0F8BC0052E0D0F8C0000322314600F08B
:10CBE0001FFF7DE04FF4B4723146D0F8C4009CE7DB
:10CBF00000223146D0F88C00F1E700223146D0F80F
:10CC0000D40092E7102300223146D830B9E7102330
:10CC100000223146E830B4E7102300223146F830D4
:10CC2000AFE740F6B8323146D0F808017DE740F66C
:10CC3000B8323146D0F80C0177E732223146D0F8CD
:10CC4000100172E740F6B8323146D0F814016CE7B3
:10CC5000A0223146D0F8180167E79E223146D0F86D
:10CC60001C0162E70F223146D0F820015DE7D0F8C1
:10CC70008031D0F8240193F92420314600F0D7FE0A
:10CC80002EE0D0F8803194ED4A0AD3ED040A104624
:10CC900006E0D0F8803194ED4B0AD3ED050A10463A
:10CCA00000F0FCFE1CE0D0F88031D0F830019A6929
:10CCB00031460CE0D0F88031D0F83401DA693146E1
:10CCC00005E0D0F88031D0F838011A6A314600F01A
:10CCD000C8FE05E00B4AD0F85C01314600F0B7FE13
:10CCE000002007E044F620623146D0F86001F5E705
:10CCF00040F202300AB070BD92350300983503004F
:10CD0000BD3503009EA641A62DE9F041312982B030
:10CD100098BF1B4B98BF5B5C00AF88BF00230446E5
:10CD20000D461646FB8023B3FFF7F1FD07F108031C
:10CD3000E84633F8022D073222F00702ADEB020D70
:10CD400020466A462946FFF79BFE044670B9726882
:10CD5000FB88101D08D031698B4205D85380F268DA
:10CD600069465A4311F0EEFF73681D702046C546B0
:10CD700001E040F202300837BD46BDE8F08100BF57
:10CD80006035030013B502AB002423F8024DFFF712
:10CD900077FE02B010BD10B4034608461946CC1AFF
:10CDA000A24208D911F8014BFF2CF8D019465DF8C2
:10CDB000044B11F0C7BF5DF8044B70472DE9F043F9
:10CDC00089B01F46064688461546BDF840303129D1
:10CDD00000F2C080DFE801F019BEBE2C29B72F3267
:10CDE0003538BE3B3E4145484B4E5154575A5D6025
:10CDF000BEBEBEBEBEBE787B7E81676A6D70BE84DD
:10CE0000878A8D9598A0A3A6ADB404AA00F10C045E
:10CE1000029205EB0309002D40F09F80B9F1000F4D
:10CE200000F09B8063480DF027FF00F1900482E042
:10CE300000F16C0432E000F170047CE000F1740455
:10CE400079E000F1780439E000F1880453E000F162
:10CE5000940450E000F198046DE000F19C04062277
:10CE60002DE000F1A40446E000F1A80443E000F145
:10CE7000AC0460E000F1B0045DE000F1B4045AE0FD
:10CE800000F1B80457E000F1BC0434E000F1C00444
:10CE900004E000F1C4044EE000F18C04214628783F
:10CEA00000F0BCFD75E000F1D40444E000F1D804CA
:10CEB00004E000F1E80401E000F1F804102221464A
:10CEC0002846FFF768FF64E000F5847433E000F55E
:10CED000867430E000F588742DE000F58A742AE04D
:10CEE00000F58C7427E000F58E7424E000F5907452
:10CEF00021E000F59274214695F9000000F095FDBF
:10CF000047E000F5947401E000F59674204695ED35
:10CF1000000A00F0ACFD3CE000F5987404E000F578
:10CF20009A7401E000F59C742146286800F095FD94
:10CF30002FE000F5AC742146288800F07DFD28E044
:10CF400000F5AE7401E000F5B0742146286800F0E9
:10CF50007AFD1EE040F2023029E00F2B019307D941
:10CF6000002201A902A80DF0DFFE019B02900493AC
:10CF70004A46294602980DF005FF019B029A039349
:10CF80000021D15402A8214600F012FD02A80DF0A4
:10CF9000F1FE5FB1084B13F80820032A304698BF12
:10CFA00004222146FFF7F2FC002000E0384609B0D9
:10CFB000BDE8F083C4350300603503002DE9F3417B
:10CFC0001D46DBB206460F469046FFF720FC04469E
:10CFD000C0B930460D4E9DF8203000954246FFF70F
:10CFE000EDFE3368DB07044606D430460DF01AFE2A
:10CFF00010B130460DF032FE2B4642463946044809
:10D0000001F0DEFC204602B0BDE8F081AC2F00202C
:10D01000B02F002010B504460CF074FF204610BD60
:10D020002420704710B5144642680A6003681B69E3
:10D030009847208010BD7920704710B5144642688B
:10D040000A6003681B699847208010BD10B504462C
:10D0500000F5B2700DF08EFE204610BD704770478F
:10D0600010B504460CF04EFF204610BD10B5044626
:10D070000CF048FF204610BD2D2A08B502D801202B
:10D0800011F06EF84160002008BD782A08B502D87A
:10D09000012011F065F84160002008BD08B501F0DD
:10D0A000D0FAC0EBC000013080B208BD08B501F075
:10D0B000D5FA00EB40008000013080B208BDFFFFD0
:10D0C00010B50A4C2368DB070ED420460DF0AAFDEC
:10D0D00050B1074800F03CFD20460DF0BFFD054A69
:10D0E000054903480CF008FF014810BDEC2F002053
:10D0F000F02F0020B8260020E1C7010000220270B6
:10D100004260C0F83821C0F83C21C0F84021C0F886
:10D110004421C0F84821C0F84C21C0F85021C0F883
:10D120005421C0F8582180F85C21C0F86021704774
:10D1300081F080010F2919D801238B404FF6CF30A1
:10D14000184048B913F4866F10D00A4B5B5C9342C9
:10D1500034BF0022012204E0064B5B5C9B1A5A425A
:10D160005A41002A14BF0020022070474FF480600B
:10D17000704700BFA036030007B54FF490730093CB
:10D1800000F1100200F1180306CA406800F0B2FD79
:10D1900003B05DF804FBFFFF2DE9F04FADF6FC7D19
:10D1A0000546FFF78DFF83796860002B00F0E7806C
:10D1B000754C05F10802022100F03EFD2368D807F6
:10D1C0000ED420460DF02EFD50B17048FFF710FB35
:10D1D00020460DF043FD6E4A6E496C480CF08CFE03
:10D1E00026216A48FFF77AFB0DF5D36100280DF57B
:10D1F000C96014BF64270027D5F808B0D5F80CA083
:10D2000000F0C0FB81461C200DF01AFA00264FF6F4
:10D21000FF78078147810660A0F80480C680C0F8C7
:10D220000CB0C0F810A0A0F814900446FFF748FF17
:10D2300002AF4FF44872A38A20600192009704F174
:10D240000C0206CA00F076FD334637F8232042452B
:10D2500002D0E18891427DD90133C82BF5D10DF57B
:10D26000C9610846C5F83C41D5F808B0D5F80CA00E
:10D2700000F088FB81461C200DF0E2F900264FF6F5
:10D28000FF780660A0F80480C680A0F80880A0F8A7
:10D290000A80C0F80CB0C0F810A0A0F814900446A2
:10D2A000FFF70EFF5022A38A20600192009704F13D
:10D2B0000C0206CA00F03EFD334637F823204245F3
:10D2C00002D0E18891424CD90133142BF5D10DF6EF
:10D2D000B811C5F838410DF5C960D5F808A0D5F8E2
:10D2E0000C9000F04FFB804628200DF0A9F9002695
:10D2F0004FF6FF73838006608660C6600661C0F8E3
:10D3000014A0C0F81890A0F81C800446FFF7D8FEBF
:10D310004FF4C862A38B20600192009704F11402BD
:10D3200006CA00F007FD334657F83320511C02D0DF
:10D33000A1688A421CD20133C82BF5D1C5F84041FF
:10D3400005F110020121686800F076FC2846FFF71D
:10D3500013FF14E0E28007EB8302A380528822814E
:10D360007AE7E28007EB8302A38052882281ABE751
:10D37000A26007EBC302A3805268E260DBE70DF610
:10D38000FC7DBDE8F08F00BF6030002064300020DD
:10D39000B82600204DD0010073B504460D46164650
:10D3A000183000F0EFFA8DE8600004F11002034637
:10D3B00006CA606800F008FD02B070BDD0F84431C4
:10D3C000C0F848317047FFFF124B994210B5044630
:10D3D0001ED10221406800F071FC0121606800F05C
:10D3E0006DFC4FF49072FF2104F1180011F0A8FDBC
:10D3F000D4F83C315A891A810022DA80D4F83831C5
:10D4000059891981DA80D4F840311969D9609A6054
:10D4100010BD00BFEFBEADDE38B544680346201D29
:10D4200009D01D69AA4208D8DB6862805A4311F00E
:10D4300089FC002038BD012038BD022038BDF8B578
:10D4400014461A4605460F461E46FFF771FE002891
:10D4500042D1A7F180010B293CD8DFE801F0121777
:10D460003B1C22280C061F092E36D5F850312EE021
:10D4700095F85C310DE000222146A86900F0D0FA51
:10D4800026E0D5F838311B89238021E0D5F83C31DE
:10D490001B8923701CE0D5F8543118E0D5F85831B9
:10D4A00015E033460022214605F11C000AE0334610
:10D4B0000022214605F14C0004E0334600222146BB
:10D4C00005F1C800FFF7C0FA02E0D5F8603123602B
:10D4D0000020F8BD4FF48060F8BDFFFF2DE9F04358
:10D4E00085B0A1F1800300AF0446884615460B2B9A
:10D4F00062D8DFE803F04506616108276147470607
:10D50000614701263FE02F4B7B60381D4FF4967337
:10D510006E468CB0BB81C7F808D001F096F8204663
:10D520002E236A468421FFF78AFF044630BB381D4C
:10D53000FFF7B4FD694602462846FFF76DFF6B68AA
:10D5400084221AE0204B7B60381D6E46A0B0C7F8DD
:10D5500008D001F09AF8204679236A468521FFF722
:10D560006EFF044650B9381DFFF7A0FD694602461C
:10D570002846FFF751FF6B6885221A70B54619E0FF
:10D58000022600E00426F31D23F00703E946ADEB75
:10D59000030D204633466A464146FFF750FF0446D6
:10D5A00038B9324669462846FFF736FF6B6883F87C
:10D5B0000080CD46204601E04FF480601437BD4620
:10D5C000BDE8F0834C3603006C36030070B50C1ACE
:10D5D000A410002C034616DD15780678AE422BD039
:10D5E0004678AE4201D1013070BD8678AE4201D19D
:10D5F000023070BD043010F8016CAE4201D1D81C6D
:10D6000070BD013CE5E70C1A022C09D0032C02D0B6
:10D61000012C10D109E005781478A5420CD0013313
:10D620001C781078844204D0013318781278904224
:10D6300001D1184670BD084670BD13B502AA044654
:10D6400002F8011D4FF00003D0F84811D0F8440152
:10D65000FFF7BCFFD4F84831181A18BF012002B0F8
:10D6600010BDFFFF2DE9FF41144D1E462B68DB075F
:10D6700080460C46174606D428460DF0D3FA10B162
:10D6800028460DF0EBFA21460D4833463A4601F0A4
:10D6900097F921464046FFF7D0FF58B10C2301AA65
:10D6A0004FF48A7106488DF804400297ADF80C607B
:10D6B00001F086F904B0BDE8F08100BFAC2F002076
:10D6C000B02F00202DE9F043154685B01A460446D8
:10D6D00088461F46FFF72CFD002840F0A180A8F1E6
:10D6E00080030F2B00F29A80DFE803F02E10985889
:10D6F000606D1C085C0C7073777D83892B68C4F89F
:10D70000503183E02B7884F85C317FE0D4F83C61C1
:10D7100095F8009033894B4578D0B38801339BB29C
:10D72000C8211CE0002203A9A06995F8009000F030
:10D730008EF9039B994569D004F118063146484695
:10D7400000F081F9042239E0D4F83861B5F800908E
:10D7500033894B455AD0B38801339BB21421B3FBB4
:10D76000F1F201FB1233F288A6F81A90013292B25C
:10D77000F2803283B28A9BB2B38002EB830304222D
:10D78000019206F11802009206F10C029BB206CA41
:10D79000306800F019FBA6F8089037E02B68C4F851
:10D7A000543133E02B68C4F858312FE004F11C06E3
:10D7B0003A4631462846FFF7EEFA3A4631462046C9
:10D7C000FFF7EAFD22E004F14C06F1E704F1C80698
:10D7D000EEE72B68C4F8603118E094F860312A78DD
:10D7E00062F3000310E094F860312A7862F3410399
:10D7F0000AE094F860312A7862F3820304E094F836
:10D8000060312A7862F3C30384F8603120463B46D6
:10D810002A464146FFF726FF002001E04FF48060D2
:10D8200005B0BDE8F083802930B408D1022B04D1C3
:10D83000146824B930BCFFF745BF022001E040F274
:10D84000014030BC7047FFFF2DE9F34105468DF8DC
:10D850000710002A4BD0C9B2FFF7EFFE002861D1B4
:10D86000D5F84831D5F84C21934207D09DF80720D0
:10D8700003B11A70D5F84831013351E0D5F844218D
:10D880009B1A5A1C02D129480DF00EFA002B14BF26
:10D890001C4601241C1901D23CB101E04FF0FF34B9
:10D8A00020460CF0CDFE074600E02746D5F844811F
:10D8B000D5F848619DF80730C8EB0606F74218BF57
:10D8C000BB5526B132464146384611F0D5FA0136ED
:10D8D0003E44B8F1000F02D040460CF013FB3C442C
:10D8E000C5F84471C5F84861C5F84C411AE0D0F854
:10D8F0004811D0F844010DF107024FF00003FFF783
:10D9000065FED5F84821824201460BD001318A429A
:10D9100003D0521A01D011F0AFFAD5F84831013BCB
:10D92000C5F8483102B0BDE8F08100BF843603007D
:10D9300000F1080373B5044603600D4681B1084643
:10D9400012F0FEF90F2805EB000601900BD900221A
:10D9500001A920460DF0E8F9019B2060A36002E0D8
:10D9600007480DF089F93246294620680DF00AFA79
:10D97000019B2268636000212046D15402B070BD33
:10D98000C4350300081A80B270471F2970B50646D7
:10D990000D4614460BD820220021204611F0D0FA63
:10D9A0002A4631462046BDE8704011F0CBB970BD23
:10D9B0000A4681880068FFF7E8BFFFFFF0B58DB029
:10D9C00005460E460146684617461C46FFF7B0FF5F
:10D9D000114968460DF050FB70B1EB7FFF2B0BD067
:10D9E000019D00992A46304611F0ACF92580684621
:10D9F0000DF0C0F90DB0F0BD394606A8FFF798FF4D
:10DA0000079D06992A46304611F09CF9258006A804
:10DA10000DF0B0F9EBE700BFE43903000860704790
:10DA2000431C0CBF0A700870704708607047431CA5
:10DA30000CBF0A700870704708607047431C0CBF29
:10DA40000A8008807047431C18BF08607047B0F117
:10DA5000FF3F08BF104608607047431C18BF0860AE
:10DA60007047B0F1FF3F08BF10460860704782B0B2
:10DA70008DED010A9DF80430FF2B0BD19DF8053088
:10DA8000FF2B07D19DF80630FF2B03D19DF80730FF
:10DA9000FF2B01D0019B036002B0704782B08DED77
:10DAA000010A9DF80430FF2B0ED19DF80530FF2BA5
:10DAB0000AD19DF80630FF2B06D19DF80730FF2BC9
:10DAC00002D1C0ED000A01E0019B036002B0704783
:10DAD00040F20513994210B503D0B1F5837F03D00E
:10DAE00010BD0123C37110BD0023C371C38A13B3DA
:10DAF000114C2368DB070ED420460DF093F850B18B
:10DB00000E48FEF775FE20460DF0A8F80C4A0D49A8
:10DB10000A480CF0F1F918210848FEF7DFFE01462B
:10DB200048B9094A0BF012FC28B1084ABF21BDE8E8
:10DB30001040FEF71CBE10BD603000206430002095
:10DB4000B82600204DD00100C1DE010020370300BF
:10DB500038B51B4B1B4D036000238371C371C36039
:10DB60004382C382037680F86C302B68164981604B
:10DB70004FF6FF720521DB07044682800182828214
:10DB800006D428460DF04EF810B128460DF066F880
:10DB900021460E4804F11C0500F034FF50220021FC
:10DBA000284611F0CDF9238A052B07D8237E2BB9FF
:10DBB0004FF6FF72E5606382A282E382204638BDA1
:10DBC00074370300AC2F002000370300B02F002073
:10DBD00090F86C3013B1013B80F86C307047FFFF58
:10DBE00008B510462AB1074A2921BDE80840FEF7CA
:10DBF000BEBD042905D1FFF763FABDE80840FFF771
:10DC0000E7BF08BD203703000A4803788B4208D0DD
:10DC1000037C8B4207D090F820308B4207D102233F
:10DC200002E0002300E0012300EB03107047002016
:10DC3000704700BFC026002008B5FFF7E5FF20B100
:10DC4000043003C882E80300012008BD07B50122A3
:10DC500002A8ADF80620084AADF8041040F8082DD7
:10DC600019460AF003FF18B1044AE921FEF77FFDC7
:10DC700003B05DF804FB00BFE1DB010020370300C7
:10DC800070B505460AF09CFE18B10A4A4D21FEF710
:10DC90006EFD094E00243119231D33440122898968
:10DCA00028461034FFF7D2FF302CF4D10123AB719A
:10DCB00070BD00BF20370300C026002013B5FFF75A
:10DCC000A3FF044690B16A46002104300AF03CFFED
:10DCD00018B1074AF821FEF74AFDA18968460BF002
:10DCE00019F818B1024AFA21FEF741FD02B010BD41
:10DCF000203703001FB58DE80600684602AA002100
:10DD00001C460AF021FF20B1094A4FF48071FEF74A
:10DD10002EFD0023BDF8182002A920460AF0B0FF0E
:10DD200020B1034A4FF48171FEF721FD04B010BD0C
:10DD3000203703001FB58DE80600684602AA0021BF
:10DD40001C460AF001FF20B1094A4FF48971FEF721
:10DD50000EFD2346BDF81C20069802A90AF090FF8C
:10DD600020B1034A4FF48A71FEF701FD04B010BDE3
:10DD70002037030084B070B58589C68905AC84E876
:10DD80000E0001350289ADB2B5FBF2F302FB13556B
:10DD9000731C9BB2ADB29A428581C38108D243897C
:10DDA000C68101339BB2B3FBF2F102FB1133438115
:10DDB000436803EB051594E80F0085E80F00BDE804
:10DDC000704004B07047FFFF2DE9F0418AB005466E
:10DDD00004AC02A880E80600224600219846109E66
:10DDE000BDF844700AF0B0FE20B1164A40F2251189
:10DDF000FEF7BDFCEB79B3B1EA8A2B8A9A421ED0BA
:10DE000094E803000AAB03E90300099B0093ADF813
:10DE10001E80ADF81C70069606AB0ECB05F108000F
:10DE2000FFF7A8FF0BE043463A46314620460AF08A
:10DE3000EDFE20B1034A4FF4A671FEF798FC0AB03C
:10DE4000BDE8F08120370300F0B5C38A87B00446EF
:10DE5000002B31D0E78A7FB3668AE36803EB0613B1
:10DE60000FCB02AD85E80F000136228AB6B2B6FBB1
:10DE7000F2F302FB1366E3796682013FE7829BB906
:10DE800094F86C30BDF80C20013384F86C300146F6
:10DE9000BDF80E3004A80AF0B9FE0028DAD0074A0F
:10DEA0009621FEF764FCD5E7059B009395E80E00EC
:10DEB00004F10800FFF75EFF07B0F0BD2037030054
:10DEC00008B5FFF7FDF8BDE80840FFF7BDBFFFFF4D
:10DED000034B0022C3F8002501225A60DA60704724
:10DEE000002000400FB4002004B07047014B012215
:10DEF0001A707047E8310020002310B50446836390
:10DF0000C36380F8403080F8413008200CF098FB63
:10DF1000084B0360012303710423A06343710820AD
:10DF20000CF08EFB04F114030360A36B4360E06309
:10DF3000204610BD00A0004090F8403070B5054666
:10DF40000E4653B1642A28BF642294B22246314659
:10DF5000E86B0BF0FFFC1128F8D070BDF8B50D464A
:10DF60000646174604460FCD0FC42B6823600A4AA5
:10DF700086F841703146F06B0BF0F6FC18B1074A99
:10DF80007521FEF7F4FBF06B0BF042FE012386F8DF
:10DF900040300020F8BD00BFEDDE010080370300F7
:10DFA0002DE9F0410D4D0E4C1E462B6813F0010F6C
:10DFB0000F46904609D128460CF034FE28B1284679
:10DFC000C4F8008027610CF049FE0EB1002300E088
:10DFD000012323720248BDE8F08100BFEC3100202C
:10DFE000F02600200368827A01894068184770474C
:10DFF00010B5044608200CF023FB094A02600422F5
:10E00000002342710222037184F82220237560608C
:10E01000E3602361A361E3612384204610BD00BF58
:10E020000090004007B50023072A0193009308469B
:10E0300098BF0C4B4FF004018DF802104FF0020115
:10E0400098BF9B5C8DF8041069468DF806300AF085
:10E05000E3FF18B1044A8E21FEF789FB002003B0CC
:10E060005DF804FB07380300C73703008161704780
:10E0700040680AF009BFFFFF10B504460846C821F2
:10E080000AF0F4FF18B1044ABD21FEF770FB237DAE
:10E090000133237510BD00BFC737030030B50446F8
:10E0A00087B02AB10B780370012A84BF4B78437084
:10E0B000A27009F055FF852804D018B1384A3921DB
:10E0C000FEF755FB374A92E8030004AB83E80300F0
:10E0D000354A606819460AF07DFE18B1304A45217C
:10E0E000FEF745FB60680368D3F8102500214FF464
:10E0F0004865D2B2012325FA02F200910AF018FF16
:10E1000063681D6804F1080005F5A07509F032FF89
:10E1100018B1234A5121FEF72AFB244A207A2946C6
:10E1200009F080FF18B11E4A5421FEF720FB207A27
:10E1300009F09AFF18B11A4A5721FEF718FB1C4B39
:10E140001C491A889B78ADF80C2003A88DF80E3076
:10E150000AF02AFF18B1124A6121FEF708FB0025D8
:10E16000A3789D4206DA625DE9B22046FFF75AFFC6
:10E170000135F5E74FF4C8700CF0AEFA0146E060E7
:10E180002046FFF779FF4FF4C8700CF0A5FA01465E
:10E1900020612046FFF770FF002007B030BD00BFB0
:10E1A000C7370300BC370300EFDF010004700040F5
:10E1B000C437030035E2010008B5C3698B424FF054
:10E1C000000308D1C3610384022380F82230FFF7E3
:10E1D00053FF012008BD184608BDFFFF38B5037D79
:10E1E000013B0375836904460D469BB1C3698BB936
:10E1F000C823E1610384022380F822300A4A0C21FB
:10E2000018300BF0A3F870B1084ADF21BDE83840A0
:10E21000FEF7ADBA0648FFF765FE29462046BDE881
:10E220003840FFF729BF38BDE5DF0100C7370300DD
:10E230000338030038B5037805469BB90A4C2368B8
:10E24000DB0709D420460CF0EDFC28B10748FFF7A6
:10E25000CFFE20460CF002FD69680448BDE8384056
:10E26000FFF7BCBF38BD00BFF0310020F431002003
:10E27000036800791847704730B52DED028BB4EE76
:10E28000E00AF1EE10FA85B00C46F0EE408AB0EEEE
:10E29000608A02D401200FF063FF4D4B4D4AD3F842
:10E2A000043583604C4B1B68C3F30423136010EEEA
:10E2B000100A0EF043F940A3D3E900230EF022FC2C
:10E2C000C8B1DFED467A68EEA77A17EE900A0EF035
:10E2D00035F93BA3D3E900230DF0D2FF3AA3D3E9EC
:10E2E00000230EF0A9FA00223D4B0DF0C7FF0EF0FF
:10E2F0003BFCC5B200E0054618EE100A0EF01EF910
:10E300002DA3D3E900230EF0FDFBC0B1DFED337A7E
:10E3100068EE277A17EE900A0EF010F928A3D3E9D9
:10E3200000230DF0ADFF28A3D3E900230EF084FAFB
:10E3300000222B4B0DF0A2FF0EF016FCC0B2002302
:10E3400004210622072C8DF804108DF806308DF874
:10E3500007508DF808008DF809308DF80A308DF8D7
:10E360000B308DF80D2095D8013C944214D8DFE88D
:10E3700004F00406080A0D0F120001230CE002232A
:10E380000AE0032308E08DF80C1007E0052303E002
:10E390008DF80C2002E007238DF80C30114901A8FC
:10E3A00009F04CFB18B1104A5021FEF7E0F905B016
:10E3B000BDEC028B30BD00BF666666666666AA3F2E
:10E3C000666666666666FA3F6666666666660A4002
:10E3D00000B000404035014024030010000080429E
:10E3E0000000F03F99E401000F38030001390329D0
:10E3F0000DD8DFE801F002040806042004E0022042
:10E4000002E0082000E00620002109F07FBB7047F1
:10E4100009F08EBBA1F5807110B504460C290ED809
:10E42000DFE801F00F0D0D0D070D0D0D090D0D0DA0
:10E430000B00022304E0012302E0042300E0002398
:10E44000237123680BB3114BA168D3F80425D3F8CB
:10E450000835511A21F07F414FF448120133B2FBC5
:10E46000F3F34FF47A72B3FBF2F3994209D9084AF5
:10E47000082120460AF06AFF18B1064A9921FEF7E2
:10E4800076F9024BD3F80435A36010BD00B000400C
:10E4900071E201000F38030038B5094C2368DB072F
:10E4A000054606D420460CF0BDFB10B120460CF00A
:10E4B000D5FB29460348BDE83840FFF7ABBF00BF96
:10E4C000183200201C32002039DF70473ADF7047D5
:10E4D000002303607047FFFF73B502AC002304F80C
:10E4E000013D06460D469DF80730AB4209D2204655
:10E4F000FFF7EAFF0028F6D0074A1421FEF737F9A4
:10E50000F1E729463046FFF7E1FF18B1024A17212B
:10E51000FEF72DF902B070BD4C38030037B502ADDF
:10E52000002305F8013D04469DF80730012B09D86A
:10E530002846FFF7C9FF0028F6D00C4A3421FEF721
:10E5400016F9F1E702212046FFF7C0FF18B1074A8C
:10E550003921FEF70CF923784FF0000063F3070030
:10E56000637863F30F2080B203B030BD4C380300F2
:10E57000406800B1007870475B220021406810F0CD
:10E58000DFBC2DE9F0474568064688461746002D52
:10E5900055D0FFF7EDFF05F10109824600245445EF
:10E5A0001CDA49460622404610F09AFB09F1090997
:10E5B00090B904EBC40425442A8995F9073002FB7D
:10E5C0000373013293FBF2F2EA7173681C442389EE
:10E5D00001332381BDE8F0870134E0E7BAF1090F88
:10E5E00012D900224FF0FF337F2002EBC2012944F1
:10E5F00091F90710814203DA8F42C4BF53B2084633
:10E6000001320A2AF1D103E02B785A1C2A705BB23E
:10E61000002B14DB716803EBC3020A44D8F8001026
:10E62000C2F80110B8F80410A2F80510726803EBE4
:10E63000C303134401221A7200225A72DF71BDE82B
:10E64000F087406800B1007870472E2200214068B2
:10E6500010F076BC407870470020704708B54368DA
:10E6600013B901200FF07CFD187808BD08B5FFF73D
:10E67000F5FFB0FA80F0400908BD08B5FFF7EEFFDE
:10E68000092894BF0020012008BD08B5436813B9CC
:10E6900001200FF065FD00221A7008BDF8B505468F
:10E6A0000C4600260C272846FFF7D8FFB3B283425A
:10E6B00010D26A6807FB03235A1C597823789942C1
:10E6C00006F10106EFD12368136063685360A36805
:10E6D000936013E02846FFF7D0FF88B96A68137883
:10E6E000591C11700C2101FB03222368C2F8013070
:10E6F0006368C2F80530A368C2F809300120F8BD8C
:10E700000020F8BD2DE9F04105460F4600264FF0E8
:10E710000C082846FFF7A2FFB4B2844222D26B68ED
:10E720003A7808FB043301365B789A42F1D10C2623
:10E730006B681A78013A944210DA06FB043001340F
:10E7400006FB0433A4B253F8012FC0F801205A6825
:10E75000C0F805209A68C0F80920E9E71A7001207E
:10E76000BDE8F0810020BDE8F0812DE9F0470025EB
:10E7700006460F462C464FF00C084FF007094FF0A5
:10E780003C0A3046FFF76AFFAAB2824233D273686E
:10E7900008FB02F10B445A68BA422AD29878012841
:10E7A00003F101040DD007D3022822D100221A71EF
:10E7B0005A719A71DA711CE019890AFB01225A60B8
:10E7C00017E002F5A83202F5C0725A601A7A1006F4
:10E7D00005D45B7A1A4112F0010F08BF0024736858
:10E7E0005A18537A013393FBF9F1C1EBC1015B1A5B
:10E7F00053720135C5E72046BDE8F0872DE9F8439F
:10E800001F4F06460D4600244FF00C084FF0070935
:10E810003046FFF723FFA3B283422ED2726808FB73
:10E8200003235868A84226D29A78012A14D007D325
:10E83000022A20D100221A715A719A71DA711AE0F3
:10E840001A893C214A43C0EB050EBEFBF2F101FBE5
:10E85000022202445A600EE0597A2A1AB2FBF7F2F9
:10E86000013207FB02000A44B2FBF9F1C1EBC1011E
:10E87000521A58605A720134CAE7BDE8F88300BFE3
:10E88000805101000368DB6818474FF4EC70704753
:10E8900010B5144642680A6003681B6998472080D7
:10E8A00010BD70477047704710B504460BF02AFB47
:10E8B000204610BD10B504460BF024FB204610BDC9
:10E8C00010B504460BF01EFB204610BD10B50E4AD5
:10E8D0000E4C02604B210022846044610C4C42606B
:10E8E000C2600182827482618183827704624262A3
:10E8F000018580F82A20C4620263818680F8362070
:10E9000080F8382010BD00BFFC380300CC3803006D
:10E91000DC380300C26800231370537082691370DF
:10E920005370426A13705370026B137053707047C8
:10E93000023A0389C2F34F02934201D8837A0BB1A2
:10E940000020704741600B704B7001207047093AFE
:10E95000038992B2934201D8837A0BB100207047A9
:10E9600041600B704B7001207047036870B5DB6825
:10E97000164604460D469847B0421FD829466560A2
:10E98000982204F10800FFF7D3FF61689822114430
:10E9900004F11400FFF7CCFF6168542201F598716F
:10E9A00004F12000FFF7D3FF6168542201F5C27122
:10E9B00004F12C00FFF7CBFF002070BD012070BDDB
:10E9C0002DE9F0470E4617469846051F00F138041A
:10E9D0004FF6FF7955F8040F20B183889E4205D089
:10E9E0004B4503D0A542F5D1BDE8F08703683A4610
:10E9F000D3F808A031464346D047F3E700231A4630
:10EA0000FFF7DEBF08B5002350F823201AB940F8FD
:10EA10002310012008BD01330F2BF5D1034A3C21FF
:10EA20000420FDF7A4FE002008BD00BF203903002C
:10EA300063DF704764DF704782B0838882798DF826
:10EA400006209BB2002063F30F00BDF8063063F38D
:10EA50001F4002B07047FFFF2DE9F84300248046B5
:10EA60008946264625462746D9F80030DB5D002B2F
:10EA700037D00F2D05DD1F4A1F485821FDF771FEC5
:10EA800035E02D2B2BD0202B29D0A3F13002D2B290
:10EA9000092A12D9A3F14102052A01D8373B04E023
:10EAA000A3F16102052A02D8573BDAB205E0114A08
:10EAB00012484821FDF755FE002202EB0413F2072D
:10EAC00048BFC5F10F0203F0FF0406F1010341BF87
:10EAD00008F802401E460135002458BF1E46013783
:10EAE000C2E70F2D03DC034A05485621C6E740461E
:10EAF000BDE8F88367390300C2390300A039030079
:10EB0000B239030010B50268837986B004463AB37F
:10EB100033BB014602A8FFF79FFF01AA02A91020FC
:10EB2000FFF788FF05280FD1A11D02A8FFF780FF7E
:10EB300018B1104A1B21FDF71AFE9DF815209DF80B
:10EB4000143043EA022305E030B99DF80630A37182
:10EB5000BDF80430A38009E0064A0748222103E0FB
:10EB600023B9044A05482521FDF7FBFDA07906B02D
:10EB700010BD00BF67390300D1390300E539030038
:10EB800073DF704774DF704775DF704776DF70475B
:10EB900077DF704778DF70477ADF70477CDF704738
:10EBA0008ADF70478BDF7047A9DF704760DF7047EF
:10EBB00066DF704767DF704768DF70473FDF704789
:10EBC00040DF704711DF704712DF704710B5064C09
:10EBD0002368DB0706D420460CF024F810B1204649
:10EBE0000CF03CF8014810BD2C32002028320020E7
:10EBF00010B5064C2368DB0706D420460CF012F84B
:10EC000010B120460CF02AF8014810BDAC2F0020AE
:10EC1000B02F002010B50A4C2368DB070ED4204625
:10EC20000CF000F850B10748FDF7E2FD20460CF06B
:10EC300015F8054A054903480BF05EF9014810BD77
:10EC40006030002064300020B82600204DD0010044
:10EC500010B50A4C2368DB070ED420460BF0E2FF08
:10EC600050B1074800F03AF820460BF0F7FF054A8C
:10EC7000054903480BF040F9014810BDDC33002082
:10EC800030320020B8260020F1ED010010B5044616
:10EC9000006808B10FF010FD204610BD70B50B4E96
:10ECA000346814F001040FD130460BF0BBFF58B1AB
:10ECB000074D30462C60AC80AC710BF0CFFF054A9D
:10ECC000054928460BF018F9014870BDE8330020CB
:10ECD000E0330020B82600208DEC010000F108038D
:10ECE00070B54FF410720360002304464360037252
:10ECF00002838376C3610362436214200BF0A0FC9D
:10ED00000546E06908B10BF0FDF8354BE561186880
:10ED10002562F82384F82C302823E385B423238646
:10ED20004FF6FF73E38714352E4B656204F18406BA
:10ED30000025A364A3652C4BA366A062294684F832
:10ED40002D50C4F83250C4F8365084F83A5084F844
:10ED50003B5084F83C5084F83D502564E5642565BB
:10ED6000E5652566E56684F8705084F8825084F87D
:10ED7000835084F87C51C4F88C51C4F8A8512022E7
:10ED8000304610F0DDF8C4F8A46004F1A806294666
:10ED90002022304610F0D4F8C4F8C86004F1CC0644
:10EDA00020222946304610F0CBF8104BC4F8EC6016
:10EDB0001A689B88A4F8803094F82D30E26701220D
:10EDC00062F3030362F3071384F82D304FF44872A3
:10EDD0004FF4C8736386A2862387204670BD00BFA8
:10EDE000F43A0300DC3A0300F83A03004D3A03001A
:10EDF00010B5044600F059F9A36E04F16000DB6819
:10EE0000984704F1500000F0AFFD04F1400000F01D
:10EE1000ABFDE06908B10BF075F820460BF0AAFFD6
:10EE2000204610BD10B50446FFF712FF2146BDE88D
:10EE3000104000F013BCFFFF30B590F83A3091B0AD
:10EE40000446002B40F0AE800DF10700FFF7BCFE3A
:10EE500018B1554A8921FDF78AFC9DF8073033B176
:10EE6000FFF7B0FE18B1504A8C21FDF780FC4F4BE4
:10EE70004F49482204F128000AF0B8FF18B14A4A65
:10EE80009321FDF774FC4B480AF0EAFF18B1464A9B
:10EE90009C21FDF76CFC142200210DEB020010F008
:10EEA0004FF805AA012100200BF000F818B13E4AE6
:10EEB000A921FDF75CFC4FF4406309939DF82030D5
:10EEC0003D4A43F001038DF820300623ADF814309D
:10EED00010AB05A843F8382D1946FFF767FE042844
:10EEE00005460AD10022194605A80292FFF75EFEE8
:10EEF0002D4ABE212846FDF73AFC00230393ADF8C6
:10EF000010300C230DEB0300ADF80E30FFF750FE70
:10EF100018B1254AE121FDF72AFC626804F12D05AC
:10EF200052B192B221682846FFF738FEC0B11E4A9E
:10EF3000E921FDF71CFC13E00CAB20490A930AA859
:10EF400000F0D0FDBDF82C200A992846FFF726FED8
:10EF500018B1154AED21FDF70AFC0AA80BF00AFFCB
:10EF6000208BFFF717FE18B10F4AEF21FDF7FFFBCB
:10EF7000204600F0F9F8204600F0A6FA204600F0FE
:10EF8000E3F80F480AF076FF18B1074AF721FDF7BA
:10EF9000EEFB0120FFF712FE0320FFF711FE012315
:10EFA00084F83A3011B030BD543A0300E99E0200B3
:10EFB000EC33002025EE0100B8260020983A03002B
:10EFC000D505020030B5044687B00BF0E9FE626853
:10EFD00004F12D055AB192B221682846FFF7DEFDF3
:10EFE000D0B10E4A40F20711FDF7C1FB14E002ABAD
:10EFF0000B490093684600F075FDBDF804200099A8
:10F000002846FFF7CBFD20B1044A40F20B11FDF773
:10F01000AEFB68460BF0AEFE07B030BD543A0300BD
:10F02000983A030008B501830846FFF7B3FD30B1F5
:10F03000034A40F21111BDE80840FDF798BB08BD36
:10F04000543A030038B5C469056AA54205D054F89E
:10F05000040B03689B689847F7E738BD90F83B308E
:10F0600070B504466BB9C569066AAE4206D055F85C
:10F07000040B036821461B699847F6E7012384F8CF
:10F080003B3070BD70B5066AC469A6420CD054F816
:10F09000045B2B6D002BF8D0FFF798FD2A46212149
:10F0A000286D00F003FDF0E770BD70B5044600F078
:10F0B0004DF9E569266AAE4205D055F8040B0368A0
:10F0C0005B699847F7E7002384F83A3070BD07B5CD
:10F0D000036A426A0191934205D003B11960036A41
:10F0E0000433036203E001A91C3000F044FC03B0C8
:10F0F0005DF804FB11F10C0F19D00EDC11F11E0F9D
:10F1000015D003DC11F1280F1CD110E011F1140F00
:10F110000DD011F1100F15D109E00B1D07D003DC44
:10F1200011F1080F0ED102E009B104290AD190F9BA
:10F130002C308B4206D090F83A3080F82C100BB16E
:10F1400000F002B87047FFFF08B590F92C00FFF7F8
:10F150001FFD30B1034A40F25F11BDE80840FDF7E2
:10F1600006BB08BD543A030008B53230FFF714FD62
:10F1700030B1044A40F26311BDE80840FDF7F7BA28
:10F1800008BD00BF543A030038B54C220023C0F834
:10F190009031A0F890211722C0F894310446C0F8AD
:10F1A0009811A0F8942100F5C87519463822F4305A
:10F1B0000FF0C6FE062384F8F730C4F8185138BDA6
:10F1C00010B5382204460021F4300FF0B9FE04F1E6
:10F1D0002C03C4F8F830062384F8F73010BDF8B5D6
:10F1E00004460E463822002100F596700FF0A8FE66
:10F1F000D4F8A851012384F82C318DB386B304F5DB
:10F20000CE770023022EC4F89C317B60BB600DD00A
:10F21000032E06D0012E0DD14CF20103A4F89C312F
:10F2200008E04CF20203A4F89C3103E04CF2030323
:10F23000A4F89C31FFF7EEFC1921FDF74FFBB8B1A4
:10F2400095F82C30A3B150351123A4F8A031012337
:10F2500084F85831C4F8A451C4F85471082300E06C
:10F260001D232279934228BF134684F82D31F8BD1F
:10F270002E35E9E738B504461546FFF785FF2946E0
:10F280002046FFF7ACFF204600F096F82046BDE888
:10F29000384000F011B838B504460D46FFF790FF2E
:10F2A00029462046FFF79BFF204600F085F82046C0
:10F2B000BDE8384000F000B8002380F86431C0F8A1
:10F2C000683180F86C31C38DA0F87431038EA0F8DA
:10F2D00076317047002380F864317047032380F84B
:10F2E0006431704790F83C3010B504463BB1FFF7ED
:10F2F00049FC20B1094A40F28221FDF738FA04F5B1
:10F30000B270FFF73DFC20B1044A40F28921FDF7BD
:10F310002EFA012384F83C3010BD00BF543A03009C
:10F3200090F83C3010B5044663B900F5B270FFF7B1
:10F3300027FC20B1044A40F29A21FDF718FA012374
:10F3400084F83C3010BD00BF543A030090F83C30C4
:10F3500010B5044653B1FFF715FC20B1044A40F242
:10F36000A521FDF704FA002384F83C3010BD00BF4E
:10F37000543A030090F83C30CBB1C28F4FF6FF7384
:10F380009A4214D190F83D308BB939B190F87C3164
:10F390000133DBB280F87C31DB0703D5002380F832
:10F3A000643102E0032380F86431FFF79BBF7047AC
:10F3B00090F83C007047FFFF38B500F5967400F1F7
:10F3C000F4052146284608F0A7FA68B107280BD0B3
:10F3D0002146284608F0A0FA30B1044A40F2E7215D
:10F3E000BDE83840FDF7C3B938BD00BF543A03004B
:10F3F0001FB590F83D3004464BBB9DF800200193AB
:10F4000042F0010263F34102ADF80C308DF80020A8
:10F41000FFF700FC02AA2721FDF7B4FCFFF7FAFB77
:10F420000DF10A022821FDF7ADFC6846FFF7B8FB95
:10F4300020B1084A40F2FD21FDF799F9012384F833
:10F440003D30FFF7D5FB40F20511FFF7D7FA04B0C6
:10F4500010BD00BF543A030090F83D3010B504468B
:10F4600093B1FFF79FFB20B1084A40F20B31FDF743
:10F470007EF9002384F83D30FFF7BAFB4FF4837127
:10F48000BDE81040FFF7BABA10BD00BF543A030000
:10F4900090F83D00704770B5C469066A0D46A642F3
:10F4A00005D0294654F8040B00F084FBF7E770BD43
:10F4B0000A68C26790F83A308A88A0F880200BB1B9
:10F4C00000F002B87047FFFF07B502A97C3041F891
:10F4D000080D2220FFF770FB20B1044A40F28B3167
:10F4E000FDF745F903B05DF804FB00BF543A030093
:10F4F00070B50D4616460446FFF7AAFB33462A466A
:10F500002146BDE8704000F020B813B50446FFF76F
:10F5100081FB0DF107022A21FDF734FC9DF907104C
:10F520002046FFF7E7FD02B010BD13B50446FFF714
:10F5300071FB0DF107020B21FDF724FC9DF907106B
:10F540002046FFF7D7FD02B010BD10B51278112A82
:10F55000044602D0142A0DD00FE00868C4F8F00069
:10F56000FFF734FB00224FF44041D4F8C80000F00C
:10F570009DFA02E00BB100F0CDF9002010BDFFFFB5
:10F58000C28F4FF6FF739A4213B518D000F1F00402
:10F590000DF10701204606F065F820B1094A40F256
:10F5A0000241FDF7E4F89DF8073043B9204606F024
:10F5B00035F820B1034A4FF48161FDF7D8F802B065
:10F5C00010BD00BF543A030010B50446FFF740FBDE
:10F5D0002146BDE81040FFF7D3BFFFFF1FB504462B
:10F5E00004A800F8101D05F077FF20B1184A40F27A
:10F5F0001B41FDF7BCF80023CDF8093007228DF838
:10F600000D308DF80A209DF8093010228DF80B205E
:10F61000104A019243F00303012201A904F1820080
:10F620008DF808208DF8093005F0C2FF20B1084A96
:10F6300040F22B41FDF79BF8FFF7C8FA064904F1A9
:10F64000C80000F023FA012384F8833004B010BD11
:10F65000543A0300F1F40100C9F5010090F8833039
:10F660002DE9F04104460D4613B1084606F04AF86C
:10F670002B881D2B00F0AA800FD8102B1DD006D888
:10F68000012B00F0AE80022B23D0BDE8F081112BBE
:10F690003DD01C2B47D0BDE8F081522B00F0888074
:10F6A00005D8502B4AD0512B3DD0BDE8F081532BCB
:10F6B0006ED0552B37D0BDE8F0812946204600F0AA
:10F6C000E1F8FFF795FA4FF48971BDE8F041FFF7D3
:10F6D00095B9FFF7E3FA03682BB18288083A03F182
:10F6E000080193B200E019469A1D8B1F2146A4F829
:10F6F0007820E08F41F8743FFFF75CFA002876D05D
:10F700003C4A40F25641BDE8F041FDF730B8294689
:10F71000204600F0E3F8FFF76BFA40F21311BDE862
:10F72000F041FFF76BB9E669246AB4425FD056F83E
:10F73000040B036829469B699847F6E7204600F0CA
:10F7400083F82B7B062B16D1FFF7A8FA03680BB1C1
:10F750009E1C00E01E46276AE4690635A74246D093
:10F7600054F8040B3288036829465B6A98470028DE
:10F77000F4D0BDE8F081E669276AAC1DB74236D007
:10F7800056F8040BEA88036821465B6A9847F5E758
:10F79000266AE3699E422AD053F8040BE988428D19
:10F7A0009142F7D1036829469B69BDE8F0411847AB
:10F7B000002203231146E08FFFF7F6F9B8B10D4A96
:10F7C00040F2AA41BDE8F041FCF7D1BFFFF710FAC3
:10F7D0002A464FF6FF7340F21111BDE8F041FFF7E2
:10F7E000EFB829462046BDE8F04100F0AFB8BDE8CB
:10F7F000F08100BF543A030008B5FFF729FABDE8CD
:10F80000084000F087B8FFFF10B50446FFF7DEF9A7
:10F81000074904F1EC0000F039F9FFF7D7F9D4F803
:10F82000EC0000224FF42021BDE8104000F03EB96A
:10F83000F9F7010010B50446FFF7C8F9D4F8EC0059
:10F84000BDE8104000F040B910B50446FFF7BEF91E
:10F85000D4F8EC0007F02AFD18B1094A4C21FCF756
:10F8600086FF00224FF42021D4F8EC0007F0DEFCE4
:10F8700028B1034A4D21BDE81040FCF778BF10BD08
:10F88000993A0300F8B50D46002380F83C308376A2
:10F89000044600F13201A888FFF776F920B10E4A3C
:10F8A00040F2E641FCF763FFE36C1BB1A98804F169
:10F8B00040009847AB88E669276AE387B74206D0DD
:10F8C00056F8040B036829469B699847F6E72046DB
:10F8D000BDE8F840FFF798BF543A0300F8B5C36C91
:10F8E00004460E461BB1C36D8988503098474FF6C9
:10F8F000FF73E569276AE387AF4206D055F8040B2A
:10F90000036831469B699847F6E72046BDE8F84012
:10F91000FFF790BF08B50346C08F4FF6FF729042C5
:10F920000ED09A7E62B901229A761321FFF72EF942
:10F9300030B1044A40F20C51BDE80840FCF717BF53
:10F9400008BD00BF543A0300807E704770B5C4699B
:10F95000066A0D1DA64206D054F8040B036829461A
:10F960009B6A9847F6E770BD10B583680446DB686C
:10F970009847204610BD2DE9F843436804681C1BD6
:10F98000A41014BF23460123E4180646894602D278
:10F99000B4F1804F25D36FF04044A0000AF050FE30
:10F9A0000746D6F800807568D9F80030C8EB050521
:10F9B000EF4218BF7B51AB0804D02A464146384677
:10F9C0000FF05AFA04353D44B8F1000F02D040461A
:10F9D0000AF098FA07EB840437607560B460BDE8FC
:10F9E000F883002CD9D12746DBE7FFFF0B6800B175
:10F9F0000360014B83607047DC3A0300024B836075
:10FA00000B680360704700BFDC3A03000B6800B16D
:10FA1000036070477047FFFF00487047183A0300C3
:10FA200010B50446084604490AF066FE002814BFD3
:10FA30002046002010BD00BF183A03000B6800B13B
:10FA40000360014B83607047F83A0300024B836008
:10FA50000B680360704700BFF83A03000B6800B101
:10FA6000036070477047FFFF00487047003A03008B
:10FA700010B50446084604490AF03EFE002814BFAB
:10FA80002046002010BD00BF003A030008B50A461A
:10FA9000002107F0B9FB28B1034A3221BDE8084034
:10FAA000FCF765BE08BD00BF993A030008B507F032
:10FAB000BDFB28B1034A3C21BDE80840FCF757BE16
:10FAC00008BD00BF993A030008B507F0EFFB28B165
:10FAD000034A4321BDE80840FCF749BE08BD00BF0A
:10FAE000993A030037B50D4BCB1A0F2B04460D4640
:10FAF000019306D9002201A90BF016F9019B2060A1
:10FB0000A3602A46054920680BF03CF9019B226856
:10FB100063600021D15403B030BD00BF8E3A0300B2
:10FB2000A0DF7047704770475430704713B5836D3E
:10FB3000C26D01919342044605D003B11960A36DD3
:10FB40000433A36503E001A9543000F004F9204612
:10FB500002B010BD73B500F10805416004462846A7
:10FB6000FEF7D0FF2846FEF767FF02A922464FF6B0
:10FB7000FF7341F8040D22F82A3F0120FFF7D0FF60
:10FB800018B10B4A2021FCF7F2FD23682046DB6AFE
:10FB9000984790E86000AE4205D0214655F8040B26
:10FBA00000F09EF9F7E7012384F82C3002B070BD15
:10FBB000183B0300036870B5DB6A0D46984790E870
:10FBC0005000A6420FD054F8040B90F8203065F393
:10FBD000861380F82030036815B1DB6A9847F0E798
:10FBE0001B6B9847EDE770BD0A88112A09D0502A8F
:10FBF0000DD0102A10D1036801F10802DB69898851
:10FC00001847036801F108021B6A898818470368CE
:10FC100031F8062F5B6A1847704770470368F7B5DD
:10FC2000DB6A0D46064617469847416803689942C5
:10FC300013D053F8044B2888E28A904211D16A8984
:10FC4000022A0ED16A7B2B7B43EA022394F8202000
:10FC500063F3C30284F8202001E0002021E00120AA
:10FC60001FE0628ABA42E2D1AB795A1E022A06D854
:10FC7000236869891B6A20469847012011E0062BFA
:10FC8000EDD102AA7068002322F8023D3946C08FE8
:10FC900000F0C4FC2368BDF806101B6A2046984794
:10FCA000012003B0F0BD036870B5DB6A0D469847CC
:10FCB00090E85000A64206D054F8040B0368294689
:10FCC0009B6A9847F6E770BD70B50446406DA26D1B
:10FCD000151A2D11002D034616DD06688E422DD013
:10FCE00046688E4201D1043028E086688E4201D1F8
:10FCF000083023E0103050F8046C8E4202D103F13A
:10FD00000C001BE0013DE5E7151AAD10022D08D0EF
:10FD1000032D02D0012D0ED107E005688D420DD0D4
:10FD200004331868884208D004331868884214BF26
:10FD30001046184602E0104600E01846011D8A42AF
:10FD400004D0521A930801D00FF096F8A36D043B2B
:10FD5000A365204670BD2DE9F843436804681C1B69
:10FD6000A41014BF23460123E4180646894602D294
:10FD7000B4F1804F25D36FF04044A0000AF060FC3E
:10FD80000746D6F800807568D9F80030C8EB05053D
:10FD9000EF4218BF7B51AB0804D02A464146384693
:10FDA0000FF06AF804353D44B8F1000F02D0404628
:10FDB0000AF0A8F807EB840437607560B460BDE80A
:10FDC000F883002CD9D12746DBE7A2DF7047A6DFF6
:10FDD000704710B50446006808B10EF06DFC20466F
:10FDE00010BD704710B504460AF08CF8204610BDCF
:10FDF00070B50F4E336813F0010516D130460AF086
:10FE000011FF90B10B4C4FF6FF73A3800A4B236098
:10FE10003046042384F84C5084F854300AF01EFF16
:10FE2000064A074920460AF067F8024870BD00BF3D
:10FE30009834002040340020403E0300B8260020C3
:10FE4000E3FD0100704790F820305B0603D590F881
:10FE50002830FF2B02D103685B691847406A70475E
:10FE6000704700207047A0F84210704708B500F0B6
:10FE7000D5FA006808BDB0F842007047B0F84000FD
:10FE80007047A0F844107047B0F844007047FFFF77
:10FE9000094A02604DF6AD61002242600181827222
:10FEA000C260C0F81220C0F81620C261028442620B
:10FEB00080F82820704700BF143D030038B590F843
:10FEC0002030DB0704460D4605D5044A1A2102F10D
:10FED0004300FCF746FCE56038BD00BF103C030062
:10FEE0002DE9F04304469BB00DF15C080EAD0DF119
:10FEF00062071C22E1610E4610A8002188F802105A
:10FF00000E916960ADF85C10ADF86210B9700FF039
:10FF100017F809A9204600F0DBF8012303228DF829
:10FF20005E201A4663F307128DF85C2094F82020B7
:10FF3000CDF85480920654BF1A46032204F10408F7
:10FF40004CBF62F3071363F3071240464CBF8DF8B2
:10FF50005D308DF85D20FEF7D5FD4046FEF76CFD67
:10FF60000DF168081422002148F8640D09A80EF06C
:10FF7000E7FF2368CDF824801B6920469847236853
:10FF8000ADF82C009B6820469847ADF8300020461D
:10FF9000FFF759FF05238DF8643094F820300D9059
:10FFA00013F0200F4FF001030AD01946032262F329
:10FFB000071162F307138DF862108DF8633009E0C2
:10FFC0001A4663F307128DF862201A4663F307128C
:10FFD0008DF863200A97E7684FF0000805ABCDF86D
:10FFE0004480CDF850800393002F69D038460FF03D
:10FFF000A7FE0F2807EB0009029007D9424602A985
:020000022000DC
:1000000003A80AF091FE029B039005934A463946E5
:1000100003980AF0B7FE029B039904930022CA5486
:10002000049B33B39BB2ADF84A30ADF8483003239C
:100030008DF8673094F82030ADF8652013F0200F6C
:100040009DF86530039911914FF0010262F30303AB
:1000500018BF032262F307138DF865309DF86630F0
:1000600003F0F0036FF307138DF866300DF16503AD
:1000700014932368002713975B6B29462046984703
:1000800010B1ADF83A70139504F1120309AA10A942
:10009000708DFFF79AFE18B10B4A9B21FCF767FBA6
:1000A0000021204600F036F894F8203043F0010398
:1000B00084F8203003A80AF05DFE1BB0BDE8F08391
:1000C00002480AF0D9FD00BF103C03007D3C03004C
:1000D0000B7F43F002036FF300030B7790F820309F
:1000E0000A7FC3F3800363F3C3020A7790F82030DA
:1000F000D2B2C3F3400363F304120A7790F82030BE
:10010000D2B2C3F3001363F34512437C0A7781F83C
:100110003F3070472DE9F043036887B0DB69044640
:100120008846984706462046FFF78DFE94F8203013
:100130005B06054633D594F82830FF2B2FD0414677
:10014000304600F03FFC0746FFF752FE2368814629
:100150005B692046984794F828300193324601465F
:10016000CDF8088000972B46484600F05FFC064615
:1001700078B93A46014628460EF0E2FE2368314639
:10018000DB6820469847FFF733FE00F041FC032070
:1001900036E023683946DB682046984704E0236848
:1001A0003146DB6820469847236820461B699847FC
:1001B000E369618A06AA22F8020D58682B46C08FAF
:1001C00000F03DFA18B1104AF321FCF7D0FA94F888
:1001D000203003F0020202F0FF008AB1E2695268A7
:1001E000D18F4FF6FF72914209D003F0080303F05C
:1001F000FF002BB1236820465B6A984700E000208F
:1002000007B0BDE8F08300BF103C030030B590F8A4
:1002100020309A0787B0054608D5C2695268D18F49
:100220004FF6FF72914201D01B0701D4082037E03E
:1002300003681B6998476B8AADF808300DF1060218
:10024000012304928DF80A30EA69ADF80600002314
:1002500005935268ADF80C3002A9D08FFFF7B7FDB7
:100260000446E0B143F20402944206D195F82030EE
:1002700043F0800385F8203011E0082C06D195F872
:10028000202063F3C71285F8202008E043F20143E1
:100290009C4204D0034A40F23911FCF768FA204628
:1002A00007B030BD103C03002DE9F04F90F820302E
:1002B0009A0791B0044608D5C2695268D18F4FF6AB
:1002C000FF72914201D01B0701D408207DE0036832
:1002D0001B69984780462046FFF7B5FD94F820300B
:1002E00023F07F03814603F0FF060BB1B4F84660AC
:1002F00000250DF1180AB04566D9C6EB0805132D87
:100300004FF014024FF0000150462F46A8BF1327AC
:100310000EF016FEBFB2132D09EB060BCCBF132354
:10032000FF233A4659460DF11900C8BFB6FBF3F357
:100330008DF818300EF006FD7A1C92B259460BA8C3
:10034000ADF806200EF0FEFC0DF106020492E26903
:10035000CDF814A0638A5268ADF8083001238DF8F7
:100360000A3002A90023D08FADF80C30FFF72FFD23
:10037000054600B343F20402904208D194F82030BD
:10038000A4F8466043F0800384F820301CE008287D
:1003900008D194F82020A4F8463063F3C71284F8FB
:1003A000202011E043F20143984204D0084A4FF460
:1003B000D371FCF7DCF9BDF806200BA958463E4482
:1003C0000EF0C0FCB6B296E7284611B0BDE8F08F3B
:1003D000103C030010B590F820301B06044609D5E8
:1003E00003685B6A984728B994F8203060F3C71314
:1003F00084F8203010BD10B590F820301B0604465C
:100400000BD503685B6A984738B994F82030A4F894
:10041000460060F3C71384F8203010BD80B483B069
:1004200000AF78607B682C3318460C37BD465DF80A
:10043000047B704710B50446034B40F8303BA36B78
:10044000DB689847204610BDB03B030010B504465A
:10045000FFF7F0FF204609F055FD204610BD2DE9BD
:10046000F04387B00D460446FFF7C2FC00F0D7FA10
:10047000064600285DD123682946DB682046984758
:10048000C9238DF8173094F8203013F0400F2368FB
:1004900038D094F82820FF2A34D01B69204698478A
:1004A00000F09FFA236801469B6920469847FFF7B2
:1004B0009FFC05462046FFF7C6FC236807461B69DC
:1004C00020469847236880465B6920469847236802
:1004D0008146DB69204698470DF117038DE8090036
:1004E00002964B4642463946284600F021FBE0B1D1
:1004F000FFF77EFC9DF8172094F8281000F09CFC74
:1005000038B912E0FF228DF817209B692946204652
:10051000984720469DF81750FFF780FFE36B02468F
:10052000294604F13000984703E0FFF761FC00F032
:100530006FFA07B0BDE8F083F8B5436A04463BBBE9
:1005400090F82130DB071CD5124F134E3D6815F093
:1005500001050ED138460AF065FB50B138463560CA
:10056000B580B5710AF07AFB0C4A0D49304609F0A6
:10057000C3FC336803B16362636A4BB901200DF0B9
:10058000EFFD03689B68984701210DF0ABFD6062A9
:10059000F8BD00BF3C34002034340020B8260020D1
:1005A000D3FD010038B50446406A50B194F82130BB
:1005B00013F0010502D00023636238BD0EF07CF811
:1005C000656238BD1B2301200B7000230871CB80AE
:1005D00048707047831E012B10B5044601D808F0FF
:1005E000B7F9012C11D1094C2368DB0706D420464A
:1005F0000AF018FB10B120460AF030FB40F215114A
:100600000348BDE81040FEF7F9B910BDAC2F00203B
:10061000B02F0020A4DF7047A5DF704713B5144644
:100620001288ADF800200022ADF802206A4601933E
:10063000FFF7F2FFBDF80030238002B010BD13B504
:1006400014461288ADF800200022ADF802206A4658
:100650000193FFF7DFFFBDF80030238002B010BD2B
:100660000B7803717047704710B5044609F04AFCD7
:10067000204610BD08B506F0D9FD28B1034A3C213B
:10068000BDE80840FCF773B808BD00BF693D030032
:1006900010B50446D0F8440108B109F033FC2046F7
:1006A00010BDFFFFF0B5044685B0FEF78FFAA06AD3
:1006B00006F0FCFD18B13D4A4321FCF758F894F8C8
:1006C0002D30002B5ED1636E94F82C2001336366CD
:1006D00094F8323012B963F07F0301E003F07F0336
:1006E00084F83230B4F83D30314D0133A4F83D3058
:1006F0002B68DB070ED428460AF094FA50B12D4837
:10070000FCF776F828460AF0A9FA2B4A2B49294823
:1007100009F0F2FB19212748FCF7E0F860B3284FF5
:10072000012104F13C00FDF7D7FE3B6813F0010600
:1007300016D138460AF076FA90B1224D4FF6FF7383
:10074000AB80214B2B603846042385F84C6085F83C
:1007500054300AF083FA184A1C49284609F0CCFBA9
:100760000223102202930193009204F1510304F139
:100770002F01144800F05AF9FEF73AFA4FF482714B
:10078000FEF73CF994F82C302BB9FEF71FFA2246FD
:1007900040F6CD4104E0FEF719FA22464FF400413D
:1007A000906A05B0BDE8F040FFF764BF693D030003
:1007B0006030002064300020B82600204DD00100B9
:1007C0009834002040340020403E0300E3FD010047
:1007D0002DE9F8434FF6FF7300250446838000F1AE
:1007E0002E08364B036080F82D50112229464046D2
:1007F00004F13F070EF0A4FB1122294638460EF003
:100800009FFB04F1080911222946264604F15000F5
:100810000EF096FB2022294648460EF091FB46F842
:10082000289FFEF7D3F9264A2946304606F0ECFC0D
:1008300018B1244A3221FBF79AFF234D2B68DB07BE
:100840000ED428460AF0EEF950B12048FCF756FCC9
:1008500028460AF003FA1E4A1E491C4809F04CFBC0
:10086000012304F12C0286211848FCF7E8FDFEF76D
:10087000BFF92146FEF7C6F80125112200214046A6
:100880000EF05EFB1122002184F82E5038460EF047
:1008900057FB84F83F5084F85050FEF797F92246F2
:1008A0004FF40041A06AFFF7E5FE0023204663668F
:1008B000FFF7F8FE2046BDE8F88300BFB43D030013
:1008C000D9080200693D03009C340020A0340020B8
:1008D000B826002091060200FFF7E4BEA1F5897357
:1008E00070B504460D4616460A2B17D8DFE803F00C
:1008F000060A16161616101010161000012380F89E
:100900002D300BE0002380F82D30FFF7CBFE05E003
:1009100090F8323043F0040380F8323094F82C30F1
:10092000F3B1822D12D004D8222D07D0812D09D009
:1009300070BD832D0DD0872D0ED070BD3388A4F8E7
:100940002F3070BD337884F8313070BD3368A363C5
:1009500070BD3368636370BD96F9003084F833303E
:1009600070BD4DDF7047FFFF114B70B50365044646
:10097000104DFEF73DF92146FEF744F82B68DB07E2
:100980000ED428460AF04EF950B10B48FCF7B6FBDE
:1009900028460AF063F9094A0949074809F0ACFA00
:1009A000A21D012386210448BDE87040FCF747BD25
:1009B000BEBAFECA9C340020A0340020B826002015
:1009C0009106020001290AD8031D13F00F031CBF72
:1009D000C3F110039BB20830184480B27047102056
:1009E0007047082886BF083880B200207047B1F5EC
:1009F000897F10B504460AD1FEF70CF91921FBF7DF
:100A00006DFF20B12046BDE8104000F0E2B910BDF6
:100A100008B5FEF71DF9BDE80840FEF77BBF08B535
:100A2000FEF716F9BDE80840FEF78EBF2DE9F74F37
:100A30009DF83880BDF830609DF834B0B8F1010FF2
:100A40000446894692461F462CD8594600F094F930
:100A500008B9002665E094F85450751BADB20AF150
:100A60000303AB42F5DA03213846FDF735FD04F107
:100A70001C0143463A46204687F803B000F0B9F916
:100A8000019594F85430B8F1010F3B4400930CBF2A
:100A900004F15001E11D53464A46204600F010F98A
:100AA00006463EE0F6B2102ED3D1B8F1030FD5B210
:100AB00002D10C2D05D9CCE7B8F1020F01D1102DD0
:100AC000C7D85946204600F057F906460028C0D03E
:100AD00004F11C0A1022002150460EF031FAB8F140
:100AE000030F01BF236DE3612A4649460FBF04F19E
:100AF00020002A46494650460EF024F904F10C0025
:100B0000FFF72FFF18B1094A7621FBF730FE04F1F9
:100B10002C023B463C3452F8041B43F8041BA2420F
:100B2000F9D1304603B0BDE8F08F00BFE83D0300C7
:100B30002DE9F7439DF83070DDF82C90012F044625
:100B40000E461546984601D9002034E090F85430FE
:100B50000F339342F8DAC97800F00EF90028F3D089
:100B6000F378012B09D004D3022B06D0642B04D0D8
:100B700005E0002389F8003001E089F8003094F89E
:100B8000542004F11C01AD1A3B463246204600F0C9
:100B900030F994F85420BDF828300193012FADB2FC
:100BA0000CBF04F15001E11DCDF800802B4632440A
:100BB000204600F003F803B0BDE8F0832DE9F04FC4
:100BC00085B006460291194693469946BDF83C40C9
:100BD00000F02AF908B900205CE0231DC3F30F12CE
:100BE00013F00F0318BF012313449BB20193002796
:100BF00006F10C03B84603935FFA87FA019B1FFACC
:100C00008AF5AB4243D986F82BA00398FFF7A9FEDB
:100C100020B1224A40F24911FBF7A9FD2D0106F14E
:100C20002B0206F13B00A945D5D91BF805E012F8C7
:100C3000011F01358EEA010182421170ADB2F2D17D
:100C400006F12C01BAF1000F10D1029A304600F0E3
:100C500027F80028BFD00B2C94BF25460C252A4628
:100C600006F130010E980EF06DF809E00F2C0E9B86
:100C700094BF254610252A4603EB08000EF062F8C3
:100C8000641BA844A4B21FFA88F80137B4E7B4FA89
:100C900084F0400905B0BDE8F08F00BFE83D0300D7
:100CA00010B54B1E013A033113F8014F12F8010F32
:100CB000844203D18B42F7D1012010BD002010BD2A
:100CC0002DE9F74FBDF83450019388462946044674
:100CD000914600F0A9F80746002846D02E0904F1F5
:100CE0000C0A0025EBB21FFA83FB5E453DD984F860
:100CF0002B305046FFF735FE20B11E4A40F2B911A5
:100D0000FBF735FD4FEA0B1304F12C01A3F1040CA2
:100D10004FF0000E084653B9BEF1030F07D891F803
:100D200000B018F80E208BEA02020A7008E0019A5F
:100D3000624581BF19F80CB00A788BEA02020A708A
:100D40000EF1010EBEF1100F01F101010CF1010CC9
:100D5000E1D10C9A134404F13C0250F8041B43F80F
:100D6000041B9042F9D10135BCE7384603B0BDE819
:100D7000F08F00BFE83D0300C92938B5044626D0EE
:100D8000012905D017D3022917D0642902D01EE00B
:100D9000242513E08379D3B990F84C00C0B104F155
:100DA0003C0304F10C024C3453F8041B42F8041BBE
:100DB000A342F9D138BD232500E02525FDF72AFF00
:100DC00004F10C022946FBF7DDFF012038BD0020AD
:100DD00038BD10B5C41D05212046FDF77DFBFDF78C
:100DE00007FF224605234FF48B71BDE81040FDF745
:100DF000E7BDF8B50D4616460446102200212846E8
:100E00001F460EF09DF833882B80B378AB702046D8
:100E1000012F0CBF50F8502F50F8072FC5F80320B2
:100E2000EB1C02791A71F8BD0B0703D1081C18BF1F
:100E3000012070470020704770B50D4606461446E5
:100E4000FDF7E8FE1921FBF749FD68B1FF2D0CD035
:100E5000B37923B9642C02D196F84C0028B9A54285
:100E600034BF0020012070BD012070BD38B58379EA
:100E7000044600F13C053BB910212846FDF72CFB48
:100E8000012384F84C3002E0002380F84C302846DF
:100E900038BD002380F84C30704744DF704745DF91
:100EA00070470B2A08B502D801200DF059F94160AE
:100EB000002008BD0C2070470C20704710B5144668
:100EC00042680A6003681B699847208010BDFFFFD5
:100ED00010B50A4C2368DB070ED4204609F0A2FEA9
:100EE00050B10748FCF70AF9204609F0B7FE054A59
:100EF0000549034809F000F8014810BD9C34002062
:100F0000A0340020B82600209106020010B50A4C3B
:100F10002368DB070ED4204609F084FE50B1074851
:100F200000F00AFC204609F099FE054A05490348ED
:100F300008F0E2FF014810BDF436002054360020CE
:100F4000B82600208716020010B5084C2368DB077E
:100F500009D4204609F066FE28B1054800F000FFDC
:100F6000204609F07BFE024810BD00BFA4370020D8
:100F7000F836002010B50A4C2368DB070ED4204653
:100F800009F050FE50B1074803F066FD204609F015
:100F900065FE054A0549034808F0AEFF014810BD4B
:100FA00030380020FC370020B826002095160200BB
:100FB00010B50468FF20FFF772FFC0B218B10D4AE8
:100FC0003321FBF7D4FB2046FFF767FFC0B218B10F
:100FD000084A3521FBF7CBFBBFF34F8F0649074B80
:100FE000CA6802F4E0621343CB60BFF34F8F00BFC7
:100FF000FDE700BFB43E030000ED00E00400FA0589
:1010000037B5104D2B68DB07044609D4284609F094
:1010100009FE28B10C4800F019F8284609F01EFE18
:1010200000226388217800920748626800F06AF81D
:1010300060680DF041FB204603B0BDE830400DF084
:101040003BBB00BF5036002004360020F8B50446F4
:10105000002520273A46294604F1240685640DF030
:101060006FFF24623A46294630460DF069FF6664F8
:101070002046F8BD10B504468164FDF7A7FD074979
:1010800004F1200000F00EFBFDF7A0FD04F1440088
:101090000349BDE8104000F005BB00BF011002008D
:1010A000B10F020070B50F4C2368DB0705460E46F2
:1010B00008D4204609F0B6FD20B10B4B20461E7027
:1010C00009F0CCFDFDF782FD074A686C4FF48031D2
:1010D00006F0ACF828B1054A3C21BDE87040FBF7AA
:1010E00046BB70BD3838002034380020FE3E030077
:1010F00007B5002300931A4600F004F803B05DF82A
:1011000004FBFFFFF0B58FB0074616461D469DF85D
:101110005040172900F2A882DFE811F0610238027E
:10112000EC0018002700C700D001C00136009C0267
:101130004C00960262009100E401000178024B012C
:10114000BD00EF01F501600039011A02FEF750FE03
:1011500022460021FFF770FE002800F02482384666
:101160004221FFF79FFF002083E2FEF741FE224667
:101170000021FFF761FE002800F0158238460021AB
:10118000FFF790FF002074E2FEF732FE22460021B6
:10119000FFF752FE002800F00682012D40F0078282
:1011A0003478FDF737FD2B4622461821FBF700FC6B
:1011B00000205EE2FEF71CFE22460021FFF73CFE07
:1011C000002800F0F081012D40F0F1813478FDF726
:1011D00021FD2B4622461A21FBF7EAFB002048E2BC
:1011E000FEF706FE22460021FFF726FE002800F04B
:1011F000DA81032D347806D0012D40F0D881002CFF
:1012000040F0D5810EE06CB1B6F801502DB1FFF77A
:101210007DFE294600F04CFB08E0FFF777FE00F06A
:101220003EFB03E0FFF772FE00F061FBFDF7F2FC0E
:10123000012322461B21FBF7BBFB002019E2FEF72E
:10124000D7FD22460021FFF7F7FD002800F0AB8113
:10125000012D40F0AC8134782CB1FFF757FE00F03F
:10126000EDFA002005E2FFF751FE00F0FBFAFFF770
:101270004DFE00F00FFB036806AA5B690AA99847B8
:10128000FDF7B6FCBDF818300A9A40F20711FDF7D9
:1012900097FB2046EDE1FEF7ABFD22460121FFF76B
:1012A000CBFD002800F07F8198E7FEF7A1FD2246E4
:1012B0000021FFF7C1FD002800F07581042D40F0EA
:1012C0007681BC4C35682368D90709D4204609F0DB
:1012D000A9FC28B1B84800F083FD204609F0BEFC07
:1012E0002946B54800F060FE00287FF477AF4FF440
:1012F0008170BEE1FEF77CFD22460121FFF79CFDD7
:10130000002800F05081042D40F051813468FFF72F
:101310001BFE214600F02EFC0020AAE1FEF768FD2E
:1013200022460121FFF788FD002800F03C81FFF7ED
:101330000BFEA24B0A93074600232A4631460AA811
:101340000B93FFF7AEFDF8B90B9CD4F8033023B92B
:101350002146384600F0D0FC40E7D7F8A42093425D
:1013600012D32046FDF776F910B1012804D006E02B
:10137000B4F8073043B102E0237A062B04D82146A3
:10138000384600F0A9FC29E74FF6FF7071E1FFF73E
:101390009FFD01230AAA8621FCF751F89DF82840F9
:1013A000002C40F06481FDF753FCFEF7BEF82046A8
:1013B0005FE1FFF78DFD012304AA8621FCF73FF8CA
:1013C0009DF81050002D40F05281FDF723FC294676
:1013D000044610220AA80DF0B3FD19212046FBF7A0
:1013E0007DFA50B90DF1120222212046FBF7CAFC0A
:1013F000BDF81230002B4ED022E006AA2321204651
:10140000FBF7C0FC10220AA906A80DF069FC002811
:1014100041D006AA24212046FBF7B4FC10220AA9D9
:1014200006A80DF05DFCB0B306AA25212046FBF707
:10143000A9FC10220AA906A80DF052FC58B3D1E766
:1014400005AA06212046FBF79DFCBDF8143013B316
:101450000DF1160207212046FBF794FCBDF816306B
:10146000CBB1FFF735FD0EAA102302F8273D8621E8
:101470000123FCF727F90EAA0024012302F82C3DD2
:10148000214600943846FFF73DFE38462146FFF7D7
:1014900009FE2046EDE040F20310EAE0FEF7A8FC6A
:1014A00022460221FFF7C8FC00287CD0FDF7A0FBF4
:1014B00040F21711FDF7A2FA0020DAE0FEF798FCDF
:1014C00022460121FFF7B8FC00286CD0042D6ED114
:1014D000FDF78EFB2B46324640F21711FDF770FAEE
:1014E0000020C6E0FEF784FC22460121FFF7A4FCA1
:1014F000002858D04FF48270BBE0FDF7A9FBFEF73F
:1015000009FA0020B5E0FEF773FC22460021FFF740
:1015100093FC002847D0BB6C997B0A077FF55EAE31
:10152000022D44D132787078012A0CBF5A7B1A7B85
:10153000CB0648BF80F0010001234FF0A04193404B
:1015400018B1C1F80835002093E0C1F80C3590E0DF
:10155000FEF74EFC22460021FFF76EFC18B3042D67
:1015600025D1FFF7B5FC8B212B460AAAFBF767FFB5
:1015700032680A9B23EA02030A93FFF7A9FC2B4671
:101580000AAA8B21FCF79EF8002072E0836CDB7BBB
:1015900003F0FD03012B6AD1FEF72AFC224602214B
:1015A000FFF74AFC08B9052063E0012D08D00220AE
:1015B0005FE000BFF8370020A8370020803E03001E
:1015C0003478FFF7D7FC03F015FB84423FF406AEF6
:1015D000FFF7D0FC214603F003FB002049E0836CB9
:1015E000DB7B03F0FD03012B41D1FEF701FC22461A
:1015F0000221FFF721FC0028D5D0012DD7D1FFF71C
:10160000B9FC317803F00EFB002032E0836CDB7B09
:1016100003F0FD03012B2AD1FEF7EAFB224602214B
:10162000FFF70AFC0028BED0012DC0D134782CB9B8
:10163000FFF7A0FC03F0ECFA20461AE0FFF79AFC53
:1016400003F0DCFA002014E0836CDB7B03F0FD0385
:10165000012B0CD1FEF7CCFB22460021FFF7ECFB5F
:1016600000287FF447AF9EE74FF4807001E040F21E
:1016700001100FB0F0BD00BF704710B5044608F070
:1016800041FC204610BD704710B5044608F03AFCF6
:10169000204610BD704710B5044608F033FC2046C4
:1016A00010BDFFFF08B50A46002105F0ADFD28B1C9
:1016B000034A3221BDE80840FBF759B808BD00BF16
:1016C000FE3E030070B50C688D880023AB420ED23D
:1016D000E618E15C7678864206D10233234401396C
:1016E00013609180002070BD01310B44EEE70520AE
:1016F00070BD704710B5044608F004FC204610BDCC
:101700005A2A08B502D801200CF02AFD41600020B9
:1017100008BD08B5FCF72CFF00EBC000013080B21B
:1017200008BD5B20704710B5144642680A60036824
:101730001B699847208010BD38B54FF6FF73838032
:10174000144B03604FF4FA6343814FF47A7383813F
:1017500041F65833C381032300210446037400F18A
:1017600018054FF4B4738171C17101724382818293
:10177000C163202228460DF0E3FBA563082008F092
:101780005FFF054B036004F14003C4F89C00436015
:10179000204638BDEC3F0300483F030038B5204DDC
:1017A0002B68DB0704460ED4284609F03BFA50B1FB
:1017B0001C48FBF71DF8284609F050FA1A4A1B4945
:1017C000184808F099FB04F10A0210211548FBF7AC
:1017D000D9FA04F10C0211211248FBF7D3FA04F1F3
:1017E0000E0212210F48FBF7CDFA04F11002152169
:1017F0000C48FBF7C7FAFDF7FBF92146FDF702F9A4
:10180000FDF7E4F90A4A002104F1380005F0FCFC78
:1018100028B1084A3221BDE83840FAF7A8BF38BDE0
:101820006030002064300020B82600204DD0010038
:101830009B180200A43F0300C1637047C36B10B53F
:10184000044673B1D0F89C00FCF796FE0123E371C7
:10185000E06BFDF71DFE20B9E06BBDE81040FDF721
:10186000C7BD10BD10B50446C06B48B10023E3717D
:10187000FDF70EFE20B1E06BBDE81040FDF7ECBDBA
:1018800010BDC36B23B1C27912B11846FDF700BE7B
:1018900000207047D0F89C00704700F035B8027AFD
:1018A0002AB9012101728282827100F0F7B8704773
:1018B000037A70B504460D46C3B9012202728382D1
:1018C0008371FDF783F94FF400464FF4FA7000215D
:1018D0004FF47A72E5FB060100230BF0C3FA2246AF
:1018E0000146A06BBDE8704000F036B970BD027AC9
:1018F0002AB10022027201228271FFF7B3BFC379BD
:101900000BB1FFF7AFBF7047037A0BB100F0C6B859
:10191000704707B5D0F89C0003680DF1020201A9D9
:101920005B699847FDF764F9BDF80230019A40F20F
:101930000711FDF745F803B05DF804FB0B881D2B7C
:1019400002D1083100F058B87047FFFF7FB5438AD5
:1019500005460E4613B1838A002B47D06A463146AE
:10196000FF20FFF7AFFE0446F0B9BDF80420022ABD
:101970001AD9009948780B7843EA002340F28E3058
:10198000834211D1023A1B4B029392B2023102A858
:101990008DF80C40FEF764FE9DF80C30012B21D031
:1019A000022B1BD0204622E06A4631461620FFF764
:1019B00089FED8B9BDF80430132B17D1009A51789D
:1019C000137843EA0123B3F5404F0FD94CF20202DA
:1019D000934207D94CF20302934207D1287CC0F30B
:1019E000400004E0287C00F0010000E0002004B08A
:1019F00070BD00BF683F030037B505460C46FFF7D2
:101A000040FFE0B1FDF7F4F8282322464FF484713B
:101A1000FCF7D6FF237ADA0711D504F10902DB08B7
:101A2000694628460092ADF80430FFF78FFF30B9C1
:101A300094F90720D5F89C00611CFCF7A2FD03B0C7
:101A400030BD122910B41AD006D8102914D011298B
:101A50001AD11268828117E0162913D040F21114AE
:101A6000A14204D015290FD1127802740CE011465E
:101A70005DF8044BFFF762BF1268428104E0126810
:101A8000C28101E0126842825DF8044B70477047E2
:101A900010B5044608F036FA204610BD8379012BB4
:101AA00070B5044625D002D3022B3BD070BDFFF7A2
:101AB000C5FE618A31B1A38A013393FBF1F201FBC8
:101AC0001233A382FDF782F865894FF4FA70002182
:101AD0004FF4004600234FF47A72E5FB06010BF049
:101AE000C1F922460146A06B00F036F80123A3712C
:101AF00070BDFFF7B7FEFDF769F8A5894FF4FA70DE
:101B000000214FF4004600234FF47A72E5FB0601F2
:101B10000BF0A8F922460146A06B00F01DF8022345
:101B2000A37170BDFFF7F5FEFDF750F8E5894FF49E
:101B3000FA7000214FF4004600234FF47A72E5FB5F
:101B400006010BF08FF922460146A06B00F004F865
:101B50000023A37170BDFFFF08B505F067FB28B136
:101B6000034A3C21BDE80840FAF701BE08BD00BFAA
:101B7000A43F0300054BC0F8A410D3F80435C0F807
:101B8000A030D0F8A800FCF739BE00BF00B000407C
:101B9000F8B52F4ED0F8A450D6F8041504468DB1F0
:101BA000D0F8A000D6F80835091A21F07F4101339A
:101BB0004FF0FA724FF47A77B2FBF3F3B3FBF7F31B
:101BC000994236D8D4F8A410D4F8A800FCF7CDFD7B
:101BD0000546F0B1FCF740FDD8B96B7A1D4D002BDE
:101BE0002B680CBF00266426DB070ED4284609F0BC
:101BF00019F850B1184802F02FFF284609F02EF8C6
:101C0000164A1749144808F077F93146124803F08C
:101C100009F8FCF7DBFF22464FF48041D4F89C0022
:101C200005F004FB98B10F4A3C21BDE8F840FAF7F3
:101C30009EBD0135C4F8A450D6F808350133B2FB77
:101C4000F3F2B2FBF7F20244C4F8A020BAE7F8BD01
:101C500000B0004030380020FC370020B8260020BB
:101C600095160200693D0300FFF792BF07B5D0F853
:101C7000A80003680DF1020201A95B699847FFF70C
:101C800027F9BDF80230019A8521FBF71BFD03B04F
:101C90005DF804FB13B5D0F8A8000D4C03680DF1F6
:101CA00002025B6901A998472368DB0706D4204636
:101CB00008F0B8FF10B1204608F0D0FFBDF80230A0
:101CC000019A04484FF48871FCF77AFE02B010BD07
:101CD000AC2F0020B02F002010B50446D0F8A8008B
:101CE000FCF7DCFC38B12046FFF7C0FF2046BDE81A
:101CF0001040FFF7CFBF10BD10B50446D0F8A800C4
