:020000021000EC
:10C0000000000120D5C001005DC40100C5C70100CA
:10C010005DC401005DC401005DC4010000000000BA
:10C020000000000000000000000000005DC40100EE
:10C030005DC40100000000005DC401005DC401009A
:10C040005DC401005DC4010025E201005DC4010082
:10C050005DC401005DC401005DC4010081EE020009
:10C060005DC4010061EB01005DC401005DC401001D
:10C070005DC401005DC401005DC401005DC4010038
:10C080005DC40100C5B70200418A020095DF0200CD
:10C0900085B802005DC4010029F402005DC40100FE
:10C0A0005DC401005DC401005DC40100EDE9010053
:10C0B0005DC401005DC401005DC401005DC40100F8
:10C0C0005DC401005DC401005DC401005DC40100E8
:10C0D0005DC401004FF0804307B50022C3F804217E
:10C0E00001221A601A46D2F800114FF0804300294D
:10C0F000F9D00222C3F8182501229A60D3F804214E
:10C10000002AFBD04FF0804301229A671749184B51
:10C11000184801930022834205D251F8042F43F8B6
:10C12000042B0122F7E702B10193019A1249134847
:10C13000114B8A4202D242F8040BF9E7002210495F
:10C14000019310468B4203D243F8040B0122F9E716
:10C1500002B1019302AB094953F8042D9A4202D26D
:10C1600042F8041BFAE711F023FAFEE7C8C6030001
:10C17000B8260020AC2F0020B02F0020EFBEADDE8F
:10C1800008710020FFFFFFFFFFFFFFFFFFFFFFFF22
:10C19000FFFFFFFFFFFFFFFFFFFFFFFFFFFFFFFFAF
:10C1A000FFFFFFFFFFFFFFFFFFFFFFFFFFFFFFFF9F
:10C1B000FFFFFFFFFFFFFFFFFFFFFFFFFFFFFFFF8F
:10C1C000FFFFFFFFFFFFFFFFFFFFFFFFFFFFFFFF7F
:10C4000010B5054C237833B9044B13B10448AFF38E
:10C4100000800123237010BDB02F00200000000019
:10C42000CCC60300084B10B51BB108490848AFF350
:10C4300000800848036803B910BD074B002BFBD0F0
:10C44000BDE81040184700BF00000000B42F0020D6
:10C45000CCC60300AC2F0020000000007047FFFF97
:10C460000823037106234371072383710223C371D9
:10C47000012303721423C372132303730A23437328
:10C4800009238373C37B03F0F00343F0090303F034
:10C49000CF036FF38613C3730D4B83610D4B436161
:10C4A00040F2C973C36140F2BC7303624FF45B6333
:10C4B00043624FF496638362C362074B4363074B47
:10C4C00083630322EC238272027480F83030704759
:10C4D000CDCC4C3EE02D903B5C8F423F85EBD13E76
:10C4E0000823037106234371072383710223C37159
:10C4F00001230372002343721423C37213230373B3
:10C500000A23437309238373C37B03F0C00343F0FF
:10C510006903C3730E4B83610E4B43616FF062037B
:10C52000C361AB3B03624FF4FA5343624FF496632B
:10C5300083624FF41673C362074B43634FF07A5321
:10C5400003228363EC238272027480F830307047D8
:10C55000A01A2F3E27A0893B3333333F08230371B2
:10C5600006234371072383710223C371032383725C
:10C570001423C372132303730A234373092383739E
:10C58000C37B03F0F00343F0090303F0CF036FF321
:10C590008613C3730D4B83610D4B436140F2D3731C
:10C5A000C36140F2CD73036240F2DC5343624FF447
:10C5B00096638362C362074B4363074B8363012225
:10C5C000EC230272027480F830307047CDCC4C3EC0
:10C5D000BC74933B5C8F423F85EBD13E08230371D3
:10C5E00006234371072383710223C371002343721F
:10C5F000032383721423C372132303730A23437325
:10C6000009238373C37B03F0C00343F06903C3733F
:10C610000E4B83610E4B43616FF06203C361AB3B12
:10C6200003624FF4FA5343624FF4966383624FF40C
:10C630001673C362074B43634FF07A53012283633F
:10C64000EC230272027480F830307047A01A2F3E3B
:10C6500027A0893B3333333F112303710B234371ED
:10C660000C23837102230372042343720823C372D1
:10C67000062303731323437314238373C37B03F0D1
:10C68000FE0343F01E03002203F0DF0362F3861370
:10C69000C3730023836143614FF47A73C361036200
:10C6A0004FF461638362C3624FF0804343634FF092
:10C6B0007E5301218363D823C17182720174426267
:10C6C00080F830307047C37B03F0F8036FF3C30387
:10C6D000C37302230374EC2380F83030704738B5FD
:10C6E0004FF010230546D3F88440631C26D0B4F5E0
:10C6F0007B7F0BD8B4F57A7F1DD2282C27D3292C29
:10C7000022D9642C23D1FFF7DEFF25E040F2DE536F
:10C710009C420AD840F2DC539C4211D240F2ED33E5
:10C720009C4214D1FFF7DCFE16E0B4F5BC6F0ED8C6
:10C73000FFF754FF10E0FFF793FE0DE040F2DE54E8
:10C740002846FFF70BFF07E0FFF786FF04E02846C7
:10C75000FFF704FF072038BD2C60002038BDFFFF25
:10C760008EB0036800934368019383680293C368A3
:10C770000393036904934369059383690693C3692B
:10C7800007930A4B1B680893094B1B680993094BD5
:10C790001B680A93084B1B680B93084B1B680D938F
:10C7A000074B1B680C9300BE0EB0704728ED00E0ED
:10C7B0002CED00E030ED00E03CED00E034ED00E079
:10C7C00038ED00E004207146084203D0EFF3098001
:10C7D000FFF7C6BFEFF30880FFF7C2BF30B50024F4
:10C7E0001C6001380B4615685C1AA54207D910F881
:10C7F000015F03F8015B0578002DF4D11460084651
:10C8000030BD82B089B2ADF8061000BEFEE782B03E
:10C8100089B20190ADF8021000BEFEE782B000239D
:10C820000190ADF8023000BEFEE7FFFF024B16227A
:10C830001A604FF0FF30704704710020FEE70120BE
:10C8400070474FF0FF30704700207047012070475D
:10C85000002070470020704710467047064A07497D
:10C8600013681844884203D300BE4FF0FF3070476E
:10C8700010601846704700BFBC26002028BF00206B
:10C880007047704710B5044612F00CFE204610BDEC
:10C89000002200F5BC710270C0F87011C0F874215C
:10C8A00080F87821C0F88821C0F88C21704735299C
:10C8B0001CD8DFE801F0291B1B1E202220202E1E81
:10C8C0001B1E20241E1E202020201E1E201B303058
:10C8D0003030301B1B1B1B1B202E2E2E1B2020201C
:10C8E0001E222222222220222020222240F2023056
:10C8F0007047012B04E0022B02E0042B00E0062B22
:10C900000CBF002002207047202B34BF00200220E3
:10C910007047102BF4E740F20130704735299ABF79
:10C92000014B585C00207047748F0300183908B51C
:10C9300013460E292AD8DFE801F0080D12171C292A
:10C940002929292929292929240001221946D0F831
:10C950003C0112E001221946D0F840010DE001220D
:10C960001946D0F8440108E000221946D0F84801E1
:10C9700003E0D0F84C010022194601F01BF9012018
:10C9800008BD00221946D0F85401F6E7002008BD82
:10C99000A1F11803DBB20E2B07B50CD801229A4087
:10C9A00044F21F03134043B10DF10702FFF7BEFF2E
:10C9B0009DF8070002E0002000E0184603B05DF893
:10C9C00004FB07B54FF4B2730093021D00F10C0392
:10C9D00006CAD0F8880101F0A7FA03B05DF804FB9D
:10C9E00070B5134D2B68DB0704460E460ED428465F
:10C9F00013F0E8FB50B10F4801F094F9284613F00A
:10CA0000FDFB0D4A0D490B4812F046FD0948C4F8DC
:10CA100088010379C4F88C6143B1221D002101F023
:10CA200025FA2046FFF7CDFF0123237070BD00BF1C
:10CA30002430002028300020B826002081C80100C2
:10CA400073B504460D4616460C3001F065F88DE8C6
:10CA50006000221D034606CAD4F8880101F0CEFA10
:10CA600002B070BDF8B5164605460C461F46FFF7E6
:10CA70008FFFB04228D0A4F118010E2926D8DFE894
:10CA800001F0080B0E111425252525252525252522
:10CA9000170005F59E740DE005F5A0740AE005F594
:10CAA000A27407E005F5A47404E005F5A67401E09E
:10CAB00005F5AA742146304601F07AF827B1042220
:10CAC00021462846FFF7BCFF0120F8BD0020F8BD35
:10CAD0001C2200F17001FFF7B3BFFFFF094B994221
:10CAE00010B504460DD10021D0F8880101F000FAFC
:10CAF00004F10C004FF4B272FF21BDE8104017F0B2
:10CB000047BF10BDEFBEADDE38B50446084611463E
:10CB10001A4623461D1B954208D213F8015BFF2DD0
:10CB2000F8D0214617F036FE002006E011B117F0CC
:10CB300031FE01E017F02CFF012080F0010038BD2C
:10CB400070B504468AB016461D46352900F2348178
:10CB5000DFE811F0360032013201420046000B01DD
:10CB60004C0052005600670032016D0072007700E1
:10CB70007E00830088008E0094009A00A000A5002B
:10CB8000AC00320132013201320132013201320194
:10CB90003201320132013201B200B700BC00C100E3
:10CBA0003201C600CB00D000D500DF00E700EF0067
:10CBB000F600FD0032010601130119011F012A01CF
:10CBC0007F4902A818F08AFB2B4602AA314604F1DD
:10CBD0000C0000F0BDFFE5E000223146C06E62E0CF
:10CBE0004FF496723146D0F8900002E0006F0022B8
:10CBF000314600F0EDFFD5E000223146406FF8E706
:10CC0000704B00930025694602A8ADF804508DF8DA
:10CC1000065002F071FD102302AA314604F178009B
:10CC200013E06FF03B023146D0F888006EE004223A
:10CC30003146D0F8940069E0A0223146D0F898003F
:10CC4000D7E7614A062331469C30FFF75DFFA9E034
:10CC500002223146D0F8A40058E00A223146D0F82A
:10CC6000A80053E04FF4FA623146D0F8AC00C0E7B8
:10CC70004FF47A723146D0F8B000BAE741F6583234
:10CC80003146D0F8B400B4E74FF4C8723146D0F85A
:10CC9000B800AEE74B223146D0F8BC0036E0D0F801
:10CCA000C0000322314600F085FF7BE04FF4B472F0
:10CCB0003146D0F8C4009CE700223146D0F8D400B9
:10CCC00097E7102300223146D830BEE71023002218
:10CCD0003146E830B9E7102300223146F830B4E796
:10CCE000A0223146D0F8180183E79E223146D0F8C1
:10CCF0001C017EE70F223146D0F8200179E7D0F8F9
:10CD00008C31D0F8240193F93020314600F059FFDE
:10CD100048E0D0F88C3194ED4A0AD3ED060A10466B
:10CD20003EE0D0F88C3194ED4B0AD3ED050A104665
:10CD300036E0D0F88C31D0F83001DA6931460CE0B9
:10CD4000D0F88C31D0F834011A6A314605E0D0F8B9
:10CD50008C31D0F838015A6A314600F04CFF21E09E
:10CD60001A4AD0F85C01314604E0D0F8600142F282
:10CD70001072314600F035FF14E04FF47A5231461C
:10CD8000D0F88C0035E74FF47A723146D0F8640160
:10CD90002FE7D0F88C3194ED5A0AD3ED0D0A1046E6
:10CDA00000F046FF002009E0D0F88C3194ED5B0ADA
:10CDB000D3ED0E0A1046F3E740F202300AB070BD20
:10CDC000AA8F0300B08F0300D58F03009EA641A653
:10CDD0002DE9F041352982B098BF1B4B98BF5B5CB1
:10CDE00000AF88BF002304460D461646FB8023B3E0
:10CDF000FFF7E7FD07F10803E84633F8022D073295
:10CE000022F00702ADEB020D20466A462946FFF7E5
:10CE100097FE044670B97268FB88101D08D031690E
:10CE20008B4205D85380F26869465A4317F0B2FC2A
:10CE300073681D702046C54601E040F20230083795
:10CE4000BD46BDE8F08100BF748F030013B502AB8F
:10CE5000002423F8024DFFF773FE02B010BD10B49A
:10CE6000034608461946CC1AA24208D911F8014BCC
:10CE7000FF2CF8D019465DF8044B17F08BBC5DF819
:10CE8000044B70472DE9F04389B01F46064688469B
:10CE90001546BDF84030352900F2BF80DFE801F0CB
:10CEA0001BBDBD2E2BA13134373ABD3D4043474A0F
:10CEB0004D505356595C63BDBDBDBDBDBDBDBDBD6F
:10CEC000BDBD66696C6FBD777A7D80888B8E9194CD
:10CED0009B9EA8ABB2B504AA00F10C04029205EB2C
:10CEE0000309002D40F09C80B9F1000F00F09880FC
:10CEF000624813F0A1F900F190047EE000F16C04A7
:10CF00002CE000F1700478E000F1740475E000F1A9
:10CF1000780436E000F1880444E000F1940441E034
:10CF200000F1980469E000F19C0406222AE000F177
:10CF3000A40437E000F1A80434E000F1AC045CE0A4
:10CF400000F1B00459E000F1B40456E000F1B80477
:10CF500053E000F1BC0425E000F1C004214628782C
:10CF600000F026FE78E000F1C40446E000F1D404AD
:10CF700043E000F1D80404E000F1E80401E000F12E
:10CF8000F804102221462846FFF769FF64E000F507
:10CF90008C7432E000F58E742FE000F590742CE074
:10CFA00000F59274214695F9000000F008FE53E068
:10CFB00000F594742BE000F5967428E000F5987461
:10CFC00004E000F59A7401E000F59C74214628689D
:10CFD00000F00DFE40E000F5AC740EE000F5AE741C
:10CFE00001E000F5B0742146286800F0F6FD33E05A
:10CFF00000F18C0401E000F5B2742146288800F0AD
:10D00000E5FD29E000F5B47401E000F5B6742046B2
:10D0100095ED000A00F0F5FD1EE040F2023029E037
:10D020000F2B019307D9002201A902A813F094F94C
:10D03000019B029004934A462946029813F0BAF9DC
:10D04000019B029A03930021D15402A8214600F0CB
:10D0500079FD02A813F0A6F95FB1094B13F8082077
:10D06000032A304698BF04222146FFF7E9FC00203E
:10D0700000E0384609B0BDE8F08300BFDC8F030054
:10D08000748F03002DE9F3411D46DBB206460F46BF
:10D090009046FFF70CFC0446D8B930460F4E9DF879
:10D0A000203000954246FFF7EDFE3368DB0704466B
:10D0B00009D4304613F086F828B1094802F0D2FAB4
:10D0C000304613F09BF82B4642463946044802F09E
:10D0D000CDFA204602B0BDE8F08100BFCC2F002081
:10D0E000D02F002010B5044612F0DCF9204610BD08
:10D0F0002420704710B5144642680A6003681B6913
:10D100009847208010BD7920704710B514464268BA
:10D110000A6003681B699847208010BD10B504465B
:10D1200000F5B87013F03EF9204610BD7047704707
:10D1300010B5044612F0B6F9204610BD10B50446ED
:10D1400012F0B0F9204610BD2D2A08B502D80120F2
:10D1500016F030FD4160002008BD782A08B502D8DD
:10D16000012016F027FD4160002008BD08B502F03F
:10D1700074F8C0EBC000013080B208BD08B502F001
:10D1800031F900EB40008000013080B208BDFFFFA4
:10D1900010B50A4C2368DB070ED4204613F012F8B2
:10D1A00050B1074800F0BEFD204613F027F8054AAD
:10D1B0000549034812F070F9014810BD24300020E1
:10D1C00028300020B826002081C80100002202700B
:10D1D0004260C0F83821C0F83C21C0F84421C0F8B2
:10D1E0004821C0F84C21C0F85021C0F85421C0F8A3
:10D1F0005821C0F85C2180F86021C0F8642180F8D3
:10D200006821704781F0800112299ABF014B585C58
:10D2100000207047B890030081F08001122918D8CF
:10D2200001230D488B40184048B913F4866F10D085
:10D230000A4B5B5C934234BF0022012204E0074B9F
:10D240005B5C9B1A5A425A41002A14BF00200220FC
:10D2500070474FF480607047CFFB0700B890030021
:10D2600007B54FF49073009300F1100200F118031A
:10D2700006CA406800F058FE03B05DF804FBFFFFEB
:10D280002DE9F04FADF6FC7D0546FFF781FF0379F0
:10D290006860002B00F0EB80774C05F1080202215A
:10D2A00000F0E4FD2368D8070ED4204612F08AFF70
:10D2B00050B17248FFF7ECFA204612F09FFF704A17
:10D2C00070496E4812F0E8F826216C48FFF760FBC1
:10D2D0000DF5D36100280DF5C96014BF6427002740
:10D2E000D5F808B0D5F80CA000F016FC81461C203B
:10D2F00012F076FC00264FF6FF7807814781066022
:10D30000A0F80480C680C0F80CB0C0F810A0A0F847
:10D3100014900446FFF73CFF02AF4FF44872A38A13
:10D3200020600192009704F10C0206CA00F01CFE76
:10D33000334637F82320424503D0E188914240F23A
:10D3400081800133C82BF4D1238985F840310DF554
:10D35000C9610846C5F83C41D5F808B0D5F80CA01D
:10D3600000F0DAFB81461C2012F03AFC00264FF652
:10D37000FF780660A0F80480C680A0F80880A0F8B6
:10D380000A80C0F80CB0C0F810A0A0F814900446B1
:10D39000FFF7FEFE5022A38A20600192009704F15D
:10D3A0000C0206CA00F0E0FD334637F82320424560
:10D3B00002D0E18891424CD90133142BF5D10DF6FE
:10D3C000B811C5F838410DF5C960D5F808A0D5F8F1
:10D3D0000C9000F0A1FB8046282012F001FC0026F2
:10D3E0004FF6FF73838006608660C6600661C0F8F2
:10D3F00014A0C0F81890A0F81C800446FFF7C8FEDF
:10D400004FF4C862A38B20600192009704F11402CC
:10D4100006CA00F0A9FD334657F83320511C02D04C
:10D42000A1688A421CD20133C82BF5D1C5F844410A
:10D4300005F110020121686800F018FD2846FFF789
:10D440000FFF14E0E28007EB8302A3805288228161
:10D4500077E7E28007EB8302A38052882281ABE763
:10D46000A26007EBC302A3805268E260DBE70DF61F
:10D47000FC7DBDE8F08F00BF983000209C3000207C
:10D48000B82600201DD1010073B5144605460334AB
:10D4900018300E4624F0030400F03EFBA4B20194C1
:10D4A000009605F11002034606CA686800F0A6FD62
:10D4B00002B070BD852904D1792200F14C01FFF73B
:10D4C000E3BF7047D0F84831C0F84C317047FFFFD8
:10D4D000124B994210B504461ED10221406800F05B
:10D4E00007FD0121606800F003FD4FF49072FF21F9
:10D4F00004F1180017F04CFAD4F83C315A891A811B
:10D500000022DA80D4F8383159891981DA80D4F8C8
:10D5100044311969D9609A6010BD00BFEFBEADDE1D
:10D5200038B544680346201D09D01D69AA4208D8B1
:10D53000DB6862805A4317F02DF9002038BD0120C6
:10D5400038BD022038BDF8B514461A4605460F46C8
:10D550001E46FFF761FE002847D1A7F18001102980
:10D5600041D8DFE801F0151A401D23290F09200CCE
:10D570002F37404040403B00D5F854312CE095F81F
:10D5800060312DE000222146A86900F013FB28E05D
:10D59000D5F838311B89238023E095F840311FE00E
:10D5A000D5F8583118E0D5F85C3115E03346002243
:10D5B000214605F11C000AE033460022214605F110
:10D5C0004C0004E033460022214605F1C800FFF775
:10D5D0009BFA06E0D5F86431236002E095F86831E3
:10D5E00023700020F8BD4FF48060F8BD2DE9F043B2
:10D5F00085B0A1F1800300AF0446884615460B2B89
:10D600005ED8DFE803F041065D5D08275D43430611
:10D610005D4301263BE02D4B7B60381D4FF4967334
:10D620006E468CB0BB81C7F808D001F01AFE2046C8
:10D630002E236A468421FFF786FF044610BB381D5F
:10D64000FFF794FD694602462846FFF769FF6B68BD
:10D65000842216E01E4B7B606E46A0B079236A469A
:10D660008521C7F808D0FFF76EFF044650B9381D72
:10D67000FFF784FD694602462846FFF751FF6B68B5
:10D6800085221A70B54619E0022600E00426F31D33
:10D6900023F00703E946ADEB030D204633466A4607
:10D6A0004146FFF750FF044638B9324669462846DE
:10D6B000FFF736FF6B6883F80080CD46204601E017
:10D6C0004FF480601437BD46BDE8F08364900300DA
:10D6D0008490030070B50C1AA410002C034616DDCC
:10D6E00015780678AE422BD04678AE4201D1013093
:10D6F00070BD8678AE4201D1023070BD043010F8A2
:10D70000016CAE4201D1D81C70BD013CE5E70C1A9A
:10D71000022C09D0032C02D0012C10D109E005788D
:10D720001478A5420CD001331C781078844204D0C0
:10D73000013318781278904201D1184670BD08461E
:10D7400070BD13B502AA044602F8011D4FF0000394
:10D75000D0F84C11D0F84801FFF7BCFFD4F84C3199
:10D76000181A18BF012002B010BDFFFF2DE9FF41BC
:10D77000154D1E462B68DB0780460C46174609D41C
:10D78000284612F01FFD28B1104801F06BFF284613
:10D7900012F034FD21460D4833463A4601F066FF4B
:10D7A00021464046FFF7CDFF58B10C2301AA40F2B5
:10D7B000131106488DF804400297ADF80C6001F093
:10D7C00055FF04B0BDE8F081CC2F0020D02F002001
:10D7D0002DE9FF4715461A46044688461F469DF820
:10D7E0003060FFF719FD002840F0E380A8F18003C6
:10D7F000122B00F29580DFE803F03412933E464985
:10D800001F0A420E505E626870767C7E84002B6830
:10D81000C4F854317CE02B7884F8603178E095F8D6
:10D8200000A036B1D4F83C6133891FFA8AF94B4520
:10D8300079D184F840A16BE0002203A9A06995F892
:10D84000009000F0CEF9002E62D0039B99455FD086
:10D8500004F118063146484600F0BFF9042231466B
:10D8600025E0002E54D0D4F83861B5F80090338903
:10D870004B457BD14CE02B68C4F8583148E02B680D
:10D88000C4F85C3144E004F11C0908E03A4604F1B4
:10D890004C012846FFF7E3FA3AE004F1C8093A469A
:10D8A00049462846FFF7DBFA96B33A4649462046F2
:10D8B000FFF7EAFD2CE02B68C4F8643128E094F807
:10D8C00064312A7862F3000304E094F864312A7822
:10D8D00062F3410384F864311AE094F864312A78E1
:10D8E00062F38203F6E794F864312A7862F3C303A3
:10D8F000F0E72B780AE094F868312A7862F30003A5
:10D9000004E094F868312A7862F3410384F86831BE
:10D9100020463B462A464146FFF728FF002048E0C4
:10D920004FF4806045E0B388A6F81A900133C8210F
:10D930009BB2B3FBF1F201FB1233F288013292B2D7
:10D94000F2803283B28A9BB2B38002EB830304225B
:10D95000019206F11802009206F10C029BB206CA6F
:10D96000306800F04BFBA6F8089062E7B388A6F891
:10D970001A90013314219BB2B3FBF1F201FB123375
:10D98000F288013292B2F2803283B28A9BB2B380C3
:10D9900002EB83030422019206F11802009206F1C1
:10D9A0000C029BB206CA306800F028FBA6F808906B
:10D9B000AEE704B0BDE8F087802930B40AD1022B6D
:10D9C00006D1146834B90124029430BCFFF700BFBB
:10D9D000022001E040F2014030BC70472DE9F341E4
:10D9E00005468DF80710002A4BD0C9B2FFF7A9FEF3
:10D9F000002861D1D5F84C31D5F85021934207D099
:10DA00009DF8072003B11A70D5F84C31013351E06D
:10DA1000D5F848219B1A5A1C02D1294812F024FC3F
:10DA2000002B14BF1C4601241C1901D23CB101E09B
:10DA30004FF0FF34204612F0D3F8074600E02746A7
:10DA4000D5F84881D5F84C619DF80730C8EB06063B
:10DA5000F74218BFBB5526B132464146384616F04C
:10DA600033FF01363E44B8F1000F02D0404611F0BA
:10DA700019FD3C44C5F84871C5F84C61C5F85041E2
:10DA80001AE0D0F84C11D0F848010DF107024FF020
:10DA90000003FFF71FFED5F84C21824201460BD050
:10DAA00001318A4203D0521A01D016F00DFFD5F889
:10DAB0004C31013BC5F84C3102B0BDE8F08100BFEC
:10DAC0009C90030000F1080373B5044603600D4603
:10DAD00081B1084617F054FE0F2805EB00060190AF
:10DAE0000BD9002201A9204612F036FC019B2060D0
:10DAF000A36002E0074812F09FFB324629462068E7
:10DB000012F058FC019B2268636000212046D1542A
:10DB100002B070BDDC8F0300081A80B270471F2965
:10DB200070B506460D4614460BD82022002120462B
:10DB300016F02EFF2A4631462046BDE8704016F00A
:10DB400029BE70BD0A4681880068FFF7E8BFFFFF65
:10DB5000F0B58DB005460E460146684617461C4690
:10DB6000FFF7B0FF1149684612F09EFD70B1EB7FE0
:10DB7000FF2B0BD0019D00992A46304616F00AFE75
:10DB80002580684612F00EFC0DB0F0BD394606A89F
:10DB9000FFF798FF079D06992A46304616F0FAFDD2
:10DBA000258006A812F0FEFBEBE700BF79A9030071
:10DBB00008607047431C0CBF0A700870704708600B
:10DBC0007047431C0CBF0A700870704708607047AC
:10DBD000431C0CBF0A8008807047431C18BF0860B4
:10DBE0007047B0F1FF3F08BF104608607047431C04
:10DBF00018BF08607047B0F1FF3F08BF10460860CB
:10DC0000704782B08DED010A9DF80430FF2B0BD1D7
:10DC10009DF80530FF2B07D19DF80630FF2B03D16F
:10DC20009DF80730FF2B01D0019B036002B07047C5
:10DC300082B08DED010A9DF80430FF2B0ED19DF8C6
:10DC40000530FF2B0AD19DF80630FF2B06D19DF839
:10DC50000730FF2B02D1C0ED000A01E0019B0360F9
:10DC600002B0704710B50A4C2368DB070ED420467B
:10DC700012F0A8FA50B10748FEF70AFE204612F04B
:10DC8000BDFA054A0549034811F006FC014810BDDC
:10DC9000983000209C300020B82600201DD10100C3
:10DCA00010B5084C2368DB0709D4204612F08AFA25
:10DCB00028B105480AF0DEF9204612F09FFA024822
:10DCC00010BD00BF2C3200203032002008B540F2D9
:10DCD0000313994203D0B1F5827F03D008BD01231D
:10DCE000437108BD00234371C38AB3B1FFF7BAFF84
:10DCF0001821FEF74DFE014628B1FFF7D1FFBDE820
:10DD000008400AF099BA054A11F0FCF928B1044A12
:10DD1000C321BDE80840FEF77ABD08BD15E101004A
:10DD20003C91030038B51C4B1C4D036000231C4A7A
:10DD300003714371C3604382C382037680F86C3001
:10DD40002B68826005220282DB074FF6FF720446D1
:10DD5000828209D4284612F035FA28B1114801F020
:10DD600081FC284612F04AFA21460E4804F11C05AF
:10DD700001F098FC50220021284616F009FE238A63
:10DD8000052B07D8237E2BB94FF6FF72E56063821F
:10DD9000A282E382204638BD90910300CC2F002060
:10DDA0001C910300D02F002008B590F86C3083B18F
:10DDB000013BDBB280F86C305BB9FFF753FF1821F1
:10DDC000FEF7E6FD28B1FFF76BFFBDE808400AF05B
:10DDD00033BA08BD08B510462AB1074A2921BDE863
:10DDE0000840FEF714BD042905D1FFF7D1F9BDE8BD
:10DDF0000840FFF7D9BF08BD3C910300072808B5CC
:10DE000002D0082809D008BD00210A4A084611F0AE
:10DE100079F970B1084A792107E00021054A0846DE
:10DE200011F070F928B1044A8021BDE80840FEF7DE
:10DE3000EEBC08BD15E101003C9103000A480378DF
:10DE40008B4208D0037C8B4207D090F820308B4265
:10DE500007D1022302E0002300E0012300EB0310BE
:10DE600070470020704700BFC026002008B5FFF7AC
:10DE7000E5FF20B1043003C882E80300012008BD9B
:10DE800007B5012202A8ADF80620084AADF8041033
:10DE900040F8082D194610F08DFD18B1044AED2107
:10DEA000FEF7B5FC03B05DF804FB00BFD5DD010053
:10DEB0003C91030070B5054610F026FD18B10A4AE2
:10DEC0004F21FEF7A4FC094E00243119231D3344D1
:10DED0000122898928461034FFF7D2FF302CF4D173
:10DEE00001232B7170BD00BF3C910300C0260020B0
:10DEF00013B5FFF7A3FF044690B16A460021043032
:10DF000010F0C6FD18B1074AFC21FEF780FCA1897C
:10DF1000684610F0A3FE18B1024AFE21FEF777FC16
:10DF200002B010BD3C9103001FB58DE806006846A5
:10DF300002AA00211C4610F0ABFD20B1094A40F2B4
:10DF40000711FEF764FC0023BDF8182002A9204643
:10DF500010F03AFE20B1034A40F20911FEF757FCD7
:10DF600004B010BD3C9103001FB58DE80600684663
:10DF700002AA00211C4610F08BFD20B1094A40F294
:10DF80001911FEF744FC2346BDF81C20069802A98F
:10DF900010F01AFE20B1034A40F21B11FEF737FCC5
:10DFA00004B010BD3C91030084B070B58589C6896A
:10DFB00005AC84E80E0001350289ADB2B5FBF2F381
:10DFC00002FB1355731C9BB2ADB29A428581C3818B
:10DFD00008D24389C68101339BB2B3FBF2F102FB45
:10DFE00011334381436803EB051594E80F0085E87E
:10DFF0000F00BDE8704004B07047FFFF2DE9F0430B
:10E000008BB0044604AD02A880E806002A46002131
:10E010009846129EBDF84C7010F03AFD20B11E4A91
:10E020004FF49671FEF7F3FBFFF73AFE0AF0BEF8E5
:10E030006379814603B9F8B1E28A238A9A4211D002
:10E0400095E803000AAB03E90300099B0093ADF8D0
:10E050001E80ADF81C70069606AB0ECB04F10800CE
:10E06000FFF7A2FFB9F1000F12D0637983B9FFF770
:10E0700017FE0AF02FF90BE043463A463146284690
:10E0800010F068FD20B1044A40F25311FEF7BFFBC7
:10E090000BB0BDE8F08300BF3C910300F0B5C38A2C
:10E0A00087B00446002B31D0E78A7FB3668AE368E5
:10E0B00003EB06130FCB02AD85E80F000136228A71
:10E0C000B6B2B6FBF2F302FB136663796682013FD8
:10E0D000E7829BB994F86C30BDF80C20013384F8CA
:10E0E0006C300146BDF80E3004A810F033FD002856
:10E0F000DAD0074A9A21FEF78AFBD5E7059B009301
:10E1000095E80E0004F10800FFF74EFF07B0F0BDE0
:10E110003C91030008B5FFF73BF8BDE80840FFF766
:10E12000BDBFFFFF38B5334B1B78612B2ED012D803
:10E130002F2B25D006D82B2B59D02D2B23D02A2B93
:10E1400051D13CE0522B2DD0562B32D0442B4AD10A
:10E150004FF4C57435E06D2B21D008D8642B18D04E
:10E16000662B19D0632B3ED14FF4C17429E0722B7A
:10E170001CD0762B20D0702B35D140F2811420E0BA
:10E180004FF4C6741DE04FF4C7741AE04FF4C37423
:10E1900017E040F2891414E04FF4C27411E040F229
:10E1A00087140EE0144BD3F8FC3F1CE040F28514BA
:10E1B00007E04FF4C47404E040F2831401E040F23D
:10E1C0008B140E4D2B68DB0709D4284611F0FAFF9B
:10E1D00028B10B4801F046FA284612F00FF8214604
:10E1E000074801F05AFA074B00221A7038BD40F276
:10E1F0008D14E6E78432002000100040CC2F002070
:10E20000D02F002085320020034B0022C3F80025C8
:10E2100001225A60DA607047002000400FB40020ED
:10E2200004B0704708B50B4B0B48D3F81835037092
:10E230000A4B1A784AB90121094A197010F062FF95
:10E2400018B1084AD421FEF7E2FA024B0022C3F8C3
:10E25000082108BD002000408432002085320020C3
:10E2600025E101009C910300800000F1804000F551
:10E27000C040D0F8103543F0030243F4F85343F0A4
:10E280000303C0F8103500BF00BF00BFC0F8102561
:10E290007047FFFF08B5064811F094FF38B1054BF1
:10E2A000034800221A765A769A7611F0A7FF08BD25
:10E2B0008832002090320020002202764276827658
:10E2C0007047FFFF094A08B5012313604376837E38
:10E2D0005BB10021064A084610F014FF28B1054A38
:10E2E000BF21BDE80840FEF792BA08BD00B001406A
:10E2F00079E70100DB91030008B5817609B9FFF7E2
:10E30000E1FF002008BDFFFF037E2DE9F74F044623
:10E31000002B00F08E80437E43B9837E002B00F0FB
:10E32000888003B0BDE8F04FFFF7CCBF424B01221D
:10E330001A60D3F80025C569D2F100084FF0000338
:10E340002E464FF0000763EB430979104FEA360081
:10E35000404261EB4101804579EB010103DAB5EB05
:10E36000020867EB0309D4E914014FF47A72B0EBA9
:10E370000800A5FB022361EB0901824273EB010E49
:10E3800002DBC4E9140101E0C4E91423D4E9140157
:10E39000524263EB43039042994101DAC4E91423EA
:10E3A000636C0A220133B3FBF2FA02FB1A3AC4E9A6
:10E3B00012896364BAF1000F3BD1D4E914014FF420
:10E3C0007A72002314F05AFA4FF4C872CDE90001B2
:10E3D00000233046394614F051FA02460B46DDE977
:10E3E000000114F04BFA154A83464FF0FF333046D4
:10E3F000394614F043FA02460B464046494614F0AB
:10E400003DFA78220BEB000800233046394614F021
:10E4100035FA8045A8BF8046094B40428045ACBFD5
:10E4200045442D184FF400122562C3F800A0C3F82C
:10E43000B02103B0BDE8F08F4CB0014070FEFFFF8B
:10E4400054B10140084412B190F83B3001E090F81B
:10E450003D30890001F1804101F5C0411B05D1F833
:10E46000102503F4801322F480121343C1F81035F1
:10E470007047052908B502D9012015F09BFB013929
:10E4800004290ED8DFE801F0030507090B0001207D
:10E4900008BD022008BD032008BD042008BD0520DA
:10E4A00008BD002008BDFFFF10B51446FFF7E1FFCF
:10E4B000024B00F5A87043F8204010BD00B00140A9
:10E4C000026A0521FFF7F0BF072908B502D901202C
:10E4D00015F070FB0139062913D8DFE801F00406B6
:10E4E000080A0C0E1000042008BD082008BD0C20EE
:10E4F00008BD102008BD142008BD182008BD1C2030
:10E5000008BD002008BDFFFF037E2DE9F74F05463B
:10E510000C46002B00F01B81437E1BB900EB8104ED
:10E52000626214E10FB200EB870A642ADAF810B0D5
:10E5300028BF64221646BBF1000F02D0BBF1640F66
:10E5400058D10EB1642E08D1A6F164035A425A4143
:10E5500021462846FFF776FFF7E0EA69DFF8FC91ED
:10E5600064237243B2FBF3F2CAF82C2095F83830DA
:10E570004FF0010808FA03F3C9F8083595F8393067
:10E5800008FA03F32146C9F808352846FFF78CFF3F
:10E5900095F83A309B0003F1804303F5F83305EB1F
:10E5A00047070022C3F8002897F83420D3F8001852
:10E5B00008FA02F20A43C3F8002897F83520D3F886
:10E5C000001808FA02F20A43C3F8002895F8383018
:10E5D0006049BBF1000F4FEAC30218BF052402F1E6
:10E5E000804202F5F832A4002144C2F81015C2F8A6
:10E5F000149549E00AB1642A4BD195F83830DFF818
:10E600005C914FF0010808FA03F3C9F8083595F852
:10E61000393008FA03F3C9F808352146DAF82C2016
:10E620002846FFF741FF95F83A309B0003F18043FD
:10E6300003F5F83305EB47070022C3F8002897F8E5
:10E640003420D3F8001808FA02F20A43C3F800286D
:10E6500097F83520D3F8001808FA02F20A43C3F8F5
:10E66000002895F838303B49002E4FEAC30218BF06
:10E67000052402F1804202F5F832A4002144C2F8D8
:10E6800010153549C2F8141508FA03F3C9F8043512
:10E690005BE0C269314B324C72434FF06409B2FB0C
:10E6A000F9F9CAF82C9090F83A7090F838E090F8A0
:10E6B0003980BF00012207F1804702FA0EFC07F5FE
:10E6C000F83702FA08F2C3F808C5C3F80825002392
:10E6D000C7F80038D7F800384CEA0303C7F8003809
:10E6E0008B0040334FEACE0EDBB20EF1804E0EF5BA
:10E6F000F83E03F1804303F5D833B345CEF8104517
:10E70000CEF8143516D90192FFF7DEFE4FEAC8089D
:10E7100008F1804808F5F83800F1804000F5C04065
:10E72000C8F81045C8F81405D7F80038019A1A43FC
:10E73000C7F800284A4604212846FFF7B5FE95F899
:10E740003A20064B012143F83210CAF8106003B09A
:10E75000BDE8F08F40B1014004F0014000F00140FD
:10E7600050B10140426A0369934203D092B2002142
:10E77000FFF7CABE7047FFFF08B5054B1B68DB07F4
:10E7800001D4FFF787FD0348BDE80840FFF7EABF63
:10E7900088320020903200200F2908B502D90120CC
:10E7A00015F008FA0139C9B20E299ABF014B585C1D
:10E7B000002008BD179203002DE9F84F0BB28246E6
:10E7C00000EB83000E46C588077A01214FF0A04474
:10E7D000A94017B9C4F80C1501E0C4F808154FF0AA
:10E7E0000009C0F81090C0F824909C0092F80280B4
:10E7F000DFF8E8B004F1804404F5C0440AEB0600F9
:10E8000088F0010180F83B1080F83D801088D4F832
:10E81000102522F4981222F4F8520002C4F81025B0
:10E82000090500F4F850D4F8105501F4801240F4B2
:10E83000403040EA02012943C4F81015710001314B
:10E84000C9B250465F00FFF7A7FF5744711C49004B
:10E8500087F8340001F0FE015046FFF79DFFB3003A
:10E86000054687F83500314697F8347050469B448A
:10E87000FFF72AFEFB0003F1804303F5F83300F1B4
:10E88000804000F5C040C3F810B53146C3F8140508
:10E890005046FFF719FEEB0003F1804303F5F83310
:10E8A00000F180400C4AC3F8102500F5C040C3F8C1
:10E8B0001405D4F810354FEA085808F4801823F4EA
:10E8C000801348EA03033046C4F81035FFF7CCFC48
:10E8D0004846BDE8F88F00BF54B1014040B1014047
:10E8E00070B504460FC984E80F003B4B01221A6043
:10E8F000D3F8FC2442F00302C3F8FC24D3F8042527
:10E9000022F00F0242F00202C3F80425226812012D
:10E910009208E261C3F84825D3F8F82422F00302F4
:10E92000C3F8F824D3F8F42142F02002C3F8F4210C
:10E930002A4A0023136053609360D36013615361CC
:10E940002679D9B2B14203F1010507D204EB810265
:10E9500006322046FFF730FF2B46F1E77100013108
:10E96000C9B22046FFF718FF711C490084F838002F
:10E9700001F0FE012046FFF70FFF002384F83A3034
:10E98000174B84F83900402283F81B2393F81B238C
:10E99000C2F34112012A06D8124A582142F202005B
:10E9A000FDF735FF0AE0104A916821B1136843F082
:10E9B0000063136002E04FF000621A60E3692362B3
:10E9C000002200230020C4E91423C4E912230123F8
:10E9D0006064237670BD00BF0CB0014040B10140BF
:10E9E00000E100E0DB910300F870002008B5084B5F
:10E9F0004FF40012C3F80823064B1B68DB0701D451
:10EA0000FFF748FC0448BDE80840FFF759BD00BFC8
:10EA100000B0014088320020903200200368827AE2
:10EA2000018940681847002202218262C262426363
:10EA30008263828780F83E10026480F8302082640E
:10EA40007047FFFF08B5054811F0BCFB28B104482A
:10EA5000FFF7E9FF014811F0D1FB08BDE8320020C3
:10EA6000EC32002041637047014B01221A6070476D
:10EA70000090004010B504460846C82110F08EF9F9
:10EA800018B1054ACA21FDF7C2FE94F830300133AF
:10EA900084F8303010BD00BF299203000164704734
:10EAA00010B503798B4210D901EB410300EB8303CE
:10EAB00014781C725468DC60137A0C2202FB01018A
:10EAC0000B7401230370002010BD072010BDFFFF51
:10EAD000B0F94C20024990F8440010F0ABBA00BFE6
:10EAE00000F8FFFFC26480F84410FFF7F1BFB0F9EF
:10EAF0004C1090F8440040F6FF7210F09BBAFFFFF4
:10EB0000F8B5044619B9BDE8F840FFF7E1BFFFF7D3
:10EB1000EEFF124E206CD6F80455D8B1A36CD6F88F
:10EB20000815EB1A23F07F4301314FF418224FF4FC
:10EB30007A77B2FBF1F1B1FBF7F18B420AD9D6F843
:10EB400008254FF428210132B1FBF2F2B2FBF7F2B3
:10EB5000934201D3A564F8BD8047FBE700B00040B5
:10EB60007047042916D008D801290FD01CD30229D8
:10EB70000ED0032916D10420704706290ED00BD3DE
:10EB800007290DD064290DD1092070470220704754
:10EB90000320704705207047062070470720704704
:10EBA00008207047002070470120704773B5147823
:10EBB000072C05460E4604D9642C02D0012014F01F
:10EBC000F9FF117AA1F10803DBB2F62BF6D95368ED
:10EBD0000020962B8DF800008DF8010001D8072346
:10EBE00003E0B3F5967F03D806238DF802301BE0CF
:10EBF000B3F5167F01D80523F7E7B3F5966F01D873
:10EC00000423F2E7B3F5E16F01D80323EDE7B3F591
:10EC1000166F01D80223E8E740F6B832934201D8D4
:10EC20000123E2E78DF8020000230222FF298DF87C
:10EC300003308DF8042004D18DF805308DF80730AD
:10EC400007E0012328468DF80530FFF78AFF8DF88D
:10EC5000070021462846FFF784FF69468DF8060025
:10EC6000304610F071F818B1034AB421FDF7CFFD1A
:10EC7000002002B070BD00BF2992030073B50E469C
:10EC80000446051D0FCE0FC596E80F0085E80F005E
:10EC9000324B334801211960D3F8FC2442F00302BF
:10ECA000C3F8FC24D3F8042522F00F02C3F804258E
:10ECB000226A1201C3F83425D3F8F82422F00302A3
:10ECC000C3F8F824D3F8F4210A43C3F8F421254A01
:10ECD00000231360036043608360C360036184F8B2
:10ECE0002430214BC3F81025A2F504523C3AC3F856
:10ECF0001425C3F804151D4B1D491A889B78ADF8DF
:10ED0000042001A88DF806300FF0E6FF18B1194A6B
:10ED10005E21FDF77CFD04F10806002523799D4264
:10ED200007DA3246E9B22046FFF740FF01350C36DC
:10ED3000F4E74FF4C87010F09FFF0146A062204630
:10ED4000FFF798FE4FF4C87010F096FF0146E0629E
:10ED50002046FFF78FFE002002B070BD0C900040EF
:10ED6000449100404091004000F001402692030091
:10ED70003DEE01002992030070B5044600F108063B
:10ED8000002523799D4207DA3246E9B22046FFF793
:10ED90000DFF01350C36F4E70023A16A23702046ED
:10EDA000FFF768FEE16A2046BDE87040FFF762BEEB
:10EDB000826B8A4210B54FF000040FD184638487C0
:10EDC0000478022280F83E202CB190F830302BB924
:10EDD000FFF7D2FF02E0FFF74DFE0124204610BDF1
:10EDE00008B590F83030426B013BDBB280F8303030
:10EDF000A2B1826B92B9C82383870223816380F812
:10EE00003E300C4A0C21343010F07CF988B10A4AAB
:10EE100040F22F11BDE80840FDF7F9BC027822B19D
:10EE20003BB9BDE80840FFF7A7BFBDE80840FFF7C2
:10EE300021BE08BD1DEA010029920300037810B528
:10EE4000044613B1012B0CD010BD0C4B1B68DA0724
:10EE500001D4FFF7F7FD61680948BDE81040FFF7EE
:10EE6000BFBF064B1B68DB0701D4FFF7EBFD6179E1
:10EE70000348BDE81040FFF743BE00BFE832002062
:10EE8000EC3200200368007918477047FFFFFFFF4E
:10EE900030B52DED028BB4EEE00AF1EE10FA85B03C
:10EEA0000C46F0EE408AB0EE608A02D4012014F0E5
:10EEB00081FE4D4B4D4AD3F8043583604C4B1B68A3
:10EEC000C3F30423136010EE100A13F07DF840A37F
:10EED000D3E9002313F05CFBC8B1DFED467A68EE9E
:10EEE000A77A17EE900A13F06FF83BA3D3E900233B
:10EEF00012F00CFF3AA3D3E9002313F0E3F9002248
:10EF00003D4B12F001FF13F08BFBC5B200E005464C
:10EF100018EE100A13F058F82DA3D3E9002313F0CC
:10EF200037FBC0B1DFED337A68EE277A17EE900A2F
:10EF300013F04AF828A3D3E9002312F0E7FE28A330
:10EF4000D3E9002313F0BEF900222B4B12F0DCFEB4
:10EF500013F066FBC0B2002304210622072C8DF8B3
:10EF600004108DF806308DF807508DF808008DF8E4
:10EF700009308DF80A308DF80B308DF80D2095D8BA
:10EF8000013C944214D8DFE804F00406080A0D0F8F
:10EF9000120001230CE002230AE0032308E08DF8AD
:10EFA0000C1007E0052303E08DF80C2002E0072396
:10EFB0008DF80C30114901A80FF004F818B1104A6F
:10EFC0005221FDF724FC05B0BDEC028B30BD00BF23
:10EFD000666666666666AA3F666666666666FA3F47
:10EFE0006666666666660A4000B0004040350140CD
:10EFF00024030010000080420000F03FB1F0010047
:10F0000065920300013903290DD8DFE801F00204FD
:10F010000806042004E0022002E0082000E00620A8
:10F0200000210FF037B870470FF046B8A1F5807196
:10F0300010B504460C290ED8DFE801F00F0D0D0DB8
:10F04000070D0D0D090D0D0D0B00022304E001232A
:10F0500002E0042300E00023237123680BB3114B6B
:10F06000A168D3F80425D3F80835511A21F07F415F
:10F070004FF448120133B2FBF3F34FF47A72B3FB4F
:10F08000F2F3994209D9084A0821204610F03AF8CB
:10F0900018B1064A9B21FDF7BAFB024BD3F80435A1
:10F0A000A36010BD00B0004085EE01006592030032
:10F0B00038B5094C2368DB07054606D4204611F015
:10F0C00081F810B1204611F099F829460348BDE8AF
:10F0D0003840FFF7ABBF00BF3C3300204033002077
:10F0E00039DF70473ADF7047002303607047FFFF46
:10F0F00073B502AC002304F8013D06460D469DF8A9
:10F100000730AB4209D22046FFF7EAFF0028F6D0CD
:10F11000074A1421FDF77BFBF1E729463046FFF74C
:10F12000E1FF18B1024A1721FDF771FB02B070BD73
:10F13000A292030037B502AD002305F8013D044655
:10F140009DF80730012B09D82846FFF7C9FF002892
:10F15000F6D00C4A3421FDF75AFBF1E70221204694
:10F16000FFF7C0FF18B1074A3921FDF750FB23789C
:10F170004FF0000063F30700637863F30F2080B261
:10F1800003B030BDA2920300406800B10078704720
:10F190005B220021406815F0FBBB2DE9F047456874
:10F1A000064688461746002D55D0FFF7EDFF05F1BE
:10F1B00001098246002454451CDA4946062240468D
:10F1C00015F0B6FA09F1090990B904EBC404254415
:10F1D0002A8995F9073002FB0373013293FBF2F29F
:10F1E000EA7173681C44238901332381BDE8F087E9
:10F1F0000134E0E7BAF1090F12D900224FF0FF33D2
:10F200007F2002EBC201294491F90710814203DA01
:10F210008F42C4BF53B2084601320A2AF1D103E03B
:10F220002B785A1C2A705BB2002B14DB716803EB3D
:10F23000C3020A44D8F80010C2F80110B8F804104C
:10F24000A2F80510726803EBC303134401221A727B
:10F2500000225A72DF71BDE8F087406800B1007883
:10F2600070472E220021406815F092BBD0F8033081
:10F27000D3B18B4218D2427802F00F02012A0CD08F
:10F2800005D30023C3700371437183710CE0B0F8A0
:10F2900007203C2101FB023303E003F5A83303F50B
:10F2A000C073C0F8033070477047FFFF2DE9D043AB
:10F2B0000C46D0F8031016461F4600294AD0A1423A
:10F2C00045D2437803F00F03012B1ED004D3022B49
:10F2D0004FF0000130D035E0B0F8073041F294181B
:10F2E0003C224FF00009B04502FB03F379EB070223
:10F2F00007DB4FEA53084FF00009464577EB090258
:10F3000025DBCA431C4414440BE041F29412002351
:10F31000B242BB411BDAC1F5A83303F27F131C4490
:10F320000E4BB4FBF3F403FB0411C0F80310201CD4
:10F3300018BF0120BDE8D08341F294120023B242ED
:10F34000BB4107DAC17001714171817102E0002097
:10F35000BDE8D0830846BDE8D08300BF80510100DE
:10F36000407800097047437803F00F02012A07D064
:10F3700002D3022A06D00AE0B0F8070010B970479D
:10F38000C07928B12F2B8CBF0020012070470020AE
:10F39000704703065ABF084100F001000120704782
:10F3A000D0F80330C3B18B4216D2427802F00F027C
:10F3B000012A03D012D3022A0ED10FE00849B3FB71
:10F3C000F1F307210433B3FBF1F1C1EBC101591A89
:10F3D000C9B2C079FFF7DDBF002070470120704738
:10F3E00080510100436818787047092938B50546EF
:10F3F000144601D9002038BD43680A221A702046FD
:10F40000FFF7B1FF0028F5D06B680C2202FB013139
:10F410002368C1F801306368C1F80530A368C1F8FA
:10F42000093038BD09290AD843680C2202FB013192
:10F4300000230B714B718B71CB7101207047002041
:10F440007047F8B543681C780A3C064618BF01248B
:10F4500000250C2770680378E9B2994202D30C2585
:10F4600000210BE007FB01000130FFF77CFF18B91A
:10F470003046FFF7D7FF01240135EBE7092B08D809
:10F4800005FB03020133117151719171D171DBB22E
:10F49000F4E70A2303702046F8BD2DE9F84F002455
:10F4A00081460F46A04626464FF00C0AD9F8045074
:10F4B0002A78A3B29A4213D90AFB035505F1010B2E
:10F4C00039465846FFF76CFF20B16B6898453CBF42
:10F4D00098465E4639465846FFF7C8FE0134E5E7D0
:10F4E0003046BDE8F88F2DE9F04700248246884673
:10F4F00016461F4625464FF00C09DAF8040002783C
:10F50000A3B29A420CD909FB030032463B4641465E
:10F510000130FFF7CBFE002818BF01250134ECE7CE
:10F520002846BDE8F08770470368DB6818474FF44A
:10F53000EC70704710B5144642680A6003681B6996
:10F540009847208010BD70477047704710B504463B
:10F550000FF0A8FF204610BD10B504460FF0A2FF23
:10F56000204610BD10B504460FF09CFF204610BD8C
:10F5700010B50E4A0E4C02604B210022846044619B
:10F580000C4C4260C2600182827482618183827706
:10F5900004624262018580F82A20C4620263818687
:10F5A00080F8362080F8382010BD00BF509303004B
:10F5B0002093030030930300C2680023137053703C
:10F5C000826913705370426A13705370026B137028
:10F5D00053707047023A0389C2F34F02934201D835
:10F5E000837A0BB10020704741600B704B70012093
:10F5F0007047093A038992B2934201D8837A0BB1DA
:10F600000020704741600B704B7001207047036809
:10F6100070B5DB68164604460D469847B0421FD8C1
:10F6200029466560982204F10800FFF7D3FF61685E
:10F630009822114404F11400FFF7CCFF61685422B2
:10F6400001F5987104F12000FFF7D3FF616854229F
:10F6500001F5C27104F12C00FFF7CBFF002070BD53
:10F66000012070BD0022A0F8502070472DE9F8431A
:10F6700005460F46904699460024B5F850309C4206
:10F6800009DA55F82400036842469E6839464B461D
:10F69000B0470134F1E7BDE8F88300231A46FFF7CD
:10F6A000E5BFFFFF08B5B0F85030122B06D9074A66
:10F6B00025210420FDF7ABF8002008BD5A1CA0F856
:10F6C000502040F82310012008BD00BF74930300B0
:10F6D00063DF704764DF704782B0838882798DF87A
:10F6E00006209BB2002063F30F00BDF8063063F3E1
:10F6F0001F4002B07047FFFF2DE9F8430024804609
:10F700008946264625462746D9F80030DB5D002B82
:10F7100037D00F2D05DD1F4A1F485821FDF771F81E
:10F7200035E02D2B2BD0202B29D0A3F13002D2B2E3
:10F73000092A12D9A3F14102052A01D8373B04E076
:10F74000A3F16102052A02D8573BDAB205E0114A5B
:10F7500012484821FDF755F8002202EB0413F20786
:10F7600048BFC5F10F0203F0FF0406F1010341BFDA
:10F7700008F802401E460135002458BF1E460137D6
:10F78000C2E70F2D03DC034A05485621C6E7404671
:10F79000BDE8F883BB93030016940300F4930300C1
:10F7A0000694030010B50268837986B004463AB324
:10F7B00033BB014602A8FFF79FFF01AA02A9102050
:10F7C000FFF788FF05280FD1A11D02A8FFF780FFD2
:10F7D00018B1104A1B21FDF71AF89DF815209DF865
:10F7E000143043EA022305E030B99DF80630A371D6
:10F7F000BDF80430A38009E0064A0748222103E04F
:10F8000023B9044A05482521FCF7FBFFA07906B07F
:10F8100010BD00BFBB93030025940300399403007F
:10F8200073DF704774DF704775DF704776DF7047AE
:10F8300077DF704778DF70477ADF70477CDF70478B
:10F840008ADF70478BDF7047A9DF704760DF704742
:10F8500066DF704767DF704768DF70473FDF7047DC
:10F8600040DF704711DF704712DF704710B5064C5C
:10F870002368DB0706D4204610F0A4FC10B1204614
:10F8800010F0BCFC014810BD503300204C33002068
:10F8900010B5084C2368DB0709D4204610F092FC11
:10F8A00028B10548FFF7DEFE204610F0A7FC02480D
:10F8B00010BD00BFCC2F0020D02F002010B50A4C67
:10F8C0002368DB070ED4204610F07CFC50B10748BB
:10F8D00000F03AF8204610F091FC054A054903482B
:10F8E0000FF0DAFD014810BD04350020543300202C
:10F8F000B826002065FA010010B50446006808B17A
:10F9000014F004FC204610BD70B50B4E346814F0A2
:10F9100001040FD1304610F055FC58B1074D304668
:10F920002C60AC80AC7110F069FC054A0549284692
:10F930000FF0B2FD014870BD1035002008350020E1
:10F94000B8260020F9F8010000F1080370B54FF463
:10F9500000720360002304464360037202838376CF
:10F96000C36103624362142010F03AF90546E0696E
:10F9700008B10FF097FD374BE56118682562042345
:10F9800084F82C30A023E3854FF6FF73A4F84030B1
:10F990001435314B656204F188060025E364E365A4
:10F9A0002E4BE366A062294684F82D502586C4F8C4
:10F9B0003250C4F8365084F83A5084F83B5084F8FA
:10F9C0003C5084F83D5084F83E506564256565657B
:10F9D00025666566256784F8745084F8865084F837
:10F9E000875084F88051C4F89051C4F8AC5120225B
:10F9F000304614F0CDFFC4F8A86004F1AC062946E7
:10FA00002022304614F0C4FFC4F8CC6004F1D006C4
:10FA100020222946304614F0BBFF114BC4F8F06099
:10FA20001A689B88A4F8843094F82D30C4F880209C
:10FA3000012262F3030362F3071384F82D300623D7
:10FA400063861023A3860A23E3864FF4C8732387B3
:10FA5000204670BD78950300609503007C950300F7
:10FA6000A194030010B5044600F096F9E36E04F18A
:10FA70006400DB68984704F1540000F019FE04F1BB
:10FA8000440000F015FEE06908B10FF00BFD2046C0
:10FA900010F088FC204610BD10B50446FEF7E2F8D1
:10FAA0001821FCF775FF10B120460AF065FCFFF73E
:10FAB00005FF2146BDE8104000F066BC90F83A30E2
:10FAC00013B50446002B37D10DF10700FFF7CCFE2C
:10FAD00018B11A4A9921FCF79AFE9DF8073033B104
:10FAE000FFF7C0FE18B1154A9C21FCF790FE144B9D
:10FAF0001449482204F128000FF048FC18B10F4ABD
:10FB0000A221FCF784FE10480FF07AFC18B10B4AD2
:10FB1000A821FCF77CFE0D480FF07CFC18B1074AC9
:10FB2000AC21FCF774FE0120FFF798FE0320FFF7DD
:10FB300097FE012384F83A3002B010BDA894030068
:10FB400089F402001435002099FA010031130200F3
:10FB500030B590F83A308FB00446002B00F0838027
:10FB600090F83C50002D7ED11422294603A814F0B1
:10FB70000FFF03AA012128460FF068FC18B13B4A89
:10FB8000CA21FCF744FE4FF4406307939DF81830F8
:10FB9000374A43F001038DF818300623ADF80C30D6
:10FBA0000EAB03A843F8382D1946FFF74FFE042883
:10FBB00005460BD10022194603A80092FFF746FE26
:10FBC0002A4AD8212846FCF722FE00E020B1274A25
:10FBD000DA212846FCF71BFE00230193ADF808301C
:10FBE00001A80C23ADF80630FFF732FE18B11F4A0A
:10FBF000DF21FCF70CFE626804F12D0552B192B2D0
:10FC000021682846FFF71AFEC8B1184AE321FCF71D
:10FC1000FEFD14E0174A0AAB911F08A8089300F0F4
:10FC200005FEBDF8242008992846FFF707FE18B105
:10FC30000E4AE821FCF7EBFD08A810F0B3FB208B7F
:10FC4000FFF7F8FD18B1094AEA21FCF7E0FD0123AE
:10FC500084F83C30204600F0F9F8204600F0C8FA5D
:10FC6000204600F0E3F80FB030BD00BFA8940300B9
:10FC7000B8260020E8940300A1F120039BB243F6CC
:10FC8000E072934298BFC185704738B590F83C3018
:10FC9000044615467BB1FFF7EFFF00F07FF955B141
:10FCA00094F83D303BB1204600F0D4F92046BDE841
:10FCB000384000F0B9B938BD30B5044687B010F00F
:10FCC00087FB94F83C3033B3626804F12D055AB1D8
:10FCD00092B221682846FFF7B1FDE0B10F4A40F229
:10FCE0002511FCF794FD16E00D4A02ABA2F10A01C2
:10FCF0006846009300F09AFDBDF80420009928465C
:10FD0000FFF79CFD20B1054A40F22911FCF77FFD69
:10FD1000684610F047FB07B030BD00BFA894030051
:10FD2000F394030038B590F83C304BB1C469056AD0
:10FD3000A54205D054F8040B03689B689847F7E781
:10FD400038BD90F83C3070B5044683B190F83B3034
:10FD50006BB9C569066AAE4206D055F8040B036854
:10FD600021461B699847F6E7012384F83B3070BDB4
:10FD700070B5066AC469A6420DD054F8045B2B6DB9
:10FD8000002BF8D0FFF772FD2A46212105F1500023
:10FD900000F030FDEFE770BD70B5044600F05AF991
:10FDA000E569266AAE4205D055F8040B03685B6925
:10FDB0009847F7E7002384F83A3070BD07B5036A27
:10FDC000426A0191934205D003B11960036A04337A
:10FDD000036203E001A91C3000F071FC03B05DF880
:10FDE00004FB11F10C0F14D009DC11F1140F10D029
:10FDF00011F1100F0DD011F1280F15D109E00B1DD5
:10FE000007D003DC11F1080F0ED102E009B104297B
:10FE10000AD190F92C308B4206D090F83C3080F813
:10FE20002C100BB100F002B87047FFFF08B590F935
:10FE30002C00FFF7FDFC30B1034A4FF4C471BDE85C
:10FE40000840FCF7E4BC08BDA894030008B53230B4
:10FE5000FFF7F2FC30B1044A4FF4D871BDE8084016
:10FE6000FCF7D5BC08BD00BFA894030038B54C22F0
:10FE70000023C0F89431A0F894211722C0F89831DB
:10FE80000446C0F89C11A0F8982100F5CA751946DF
:10FE90003822F83014F07CFD062384F8FB30C4F8D7
:10FEA0001C5138BD10B5382204460021F83014F03A
:10FEB0006FFD04F12C03C4F8FC30062384F8FB30FA
:10FEC00010BDF8B504460E463822002100F59870A2
:10FED00014F05EFDD4F8AC51012384F830318DB3B9
:10FEE00086B304F5D0770023022EC4F8A0317B60DE
:10FEF000BB600DD0032E06D0012E0DD14CF20103B4
:10FF0000A4F8A03108E04CF20203A4F8A03103E009
:10FF10004CF20303A4F8A031FDF7A4FE1921FCF76D
:10FF200037FDB8B195F82830A3B14C351123A4F8AA
:10FF3000A431012384F85C31C4F8A851C4F8587185
:10FF4000082300E01D232279934228BF134684F83A
:10FF50003131F8BD2A35E9E738B504461546FFF7D3
:10FF600085FF29462046FFF7ACFF204600F0AAF89F
:10FF70002046BDE8384000F011B838B504460D46BB
:10FF8000FFF790FF29462046FFF79BFF204600F031
:10FF900099F82046BDE8384000F000B8002380F80A
:10FFA0006831C0F86C3180F87031C38DA0F87831B9
:10FFB000038EA0F87A317047002380F868317047CB
:10FFC000032380F86831704790F83C3010B5044640
:10FFD0003BB390F83D304BB1FFF724FC30F0080301
:10FFE00004D0104A40F2D121FCF711FC04F5B470A2
:10FFF000FFF716FC072802D0112812D008E0094AA2
:020000022000DC
:1000000040F2E121FCF703FC012384F83D3010BDF0
:1000100020B1044A40F2E521FCF7F9FB012384F802
:100020003D3010BDA894030090F83D3010B5044653
:1000300063B900F5B470FFF7F3FB20B1044A40F256
:10004000F721FCF7E4FB012384F83D3010BD00BF2D
:10005000A894030090F83D3010B5044663B1FFF753
:10006000E1FB30F0080304D0044A40F20731FCF70A
:10007000CEFB002384F83D3010BD00BFA8940300E0
:1000800090F83D30D3B1B0F840204FF6FF739A425C
:1000900014D190F83E308BB939B190F880310133EA
:1000A000DBB280F88031DB0703D5002380F86831AC
:1000B00002E0032380F86831FFF786BF704790F8AD
:1000C0003D00704738B590F83C303BB90F4A40F2DC
:1000D0003E310120BDE83840FCF799BB00F598742B
:1000E00000F1F805214628460DF00AFF68B10728FF
:1000F0000BD0214628460DF003FF30B1034A40F2F1
:100100005331BDE83840FCF782BB38BDA8940300EA
:100110001FB590F83C30044663B390F83E304BBBBB
:100120009DF80020019342F0010263F34102ADF813
:100130000C308DF80020FDF795FD02AA2721FCF771
:1001400085FEFDF78FFD0DF10A022821FCF77EFEEA
:100150006846FFF775FB20B1074A4FF45B71FCF767
:1001600056FB012384F83E30FFF792FB40F2031167
:10017000FFF793FA04B010BDA894030090F83C3048
:1001800010B50446ABB190F83E3093B1FFF75AFB7F
:1001900020B1084A4FF45F71FCF739FB002384F863
:1001A0003E30FFF775FB4FF48271BDE81040FFF75A
:1001B00074BA10BDA894030090F83E00704770B563
:1001C000C469066A0D46A64205D0294654F8040BB8
:1001D00000F09AFBF7E770BD0A68C0F8802090F83D
:1001E0003C308A88A0F884200BB100F001B8704739
:1001F00090F83C3007B563B102A9803041F8080D92
:100200002220FFF729FB20B1034A40F2FB31FCF723
:10021000FEFA03B05DF804FBA894030070B50D4628
:1002200016460446FFF74AFB33462A462146BDE8F8
:10023000704000F020B813B50446FDF713FD0DF132
:1002400007022A21FCF702FE9DF907102046FFF75E
:10025000C8FD02B010BD13B50446FDF703FD0DF156
:1002600007020B21FCF7F2FD9DF907102046FFF76E
:10027000B8FD02B010BD10B51278112A044602D0A4
:10028000142A0DD00FE00868C4F8F400FFF7EEFA66
:1002900000224FF4404104F1CC0000F0ABFA02E040
:1002A0000BB100F0D9F9002010BDFFFFB0F84020DD
:1002B0004FF6FF739A4213B518D000F1F4040DF114
:1002C000070120460CF0E0F820B1094A40F26D41E8
:1002D000FCF79DFA9DF8073043B920460CF0B0F8C2
:1002E00020B1034A40F27341FCF791FA02B010BD0D
:1002F000A894030010B50446FFF7E0FA2146BDE8D4
:100300001040FFF7D3BFFFFF1FB5044604A800F855
:10031000101D0BF0F3FF20B1184A40F28641FCF7A4
:1003200076FA0023CDF8093007228DF80D308DF8CC
:100330000A209DF8093010228DF80B20104A0192F6
:1003400043F00303012201A904F186008DF808207F
:100350008DF809300CF03EF820B1084A40F2964181
:10036000FCF755FAFFF782FA064904F1CC0000F0D9
:1003700031FA012384F8873004B010BDA89403003B
:100380001D020200F502020090F887302DE9F041CD
:1003900004460D4613B108460CF0C6F82B881C2BFA
:1003A00059D010D8102B1FD006D8012B00F0B880E0
:1003B000022B25D0BDE8F081112B40D01B2B00F083
:1003C000A980BDE8F081512B45D006D81D2B00F047
:1003D0009680502B4AD0BDE8F081532B70D07FD34C
:1003E000552B38D0BDE8F0812946204600F0E8F8CA
:1003F000FFF74EFA40F21111BDE8F041FFF74DB999
:10040000FFF782FA03682BB18288083A03F10801EA
:1004100093B200E019469A1D8B1F2146A4F87C2058
:10042000B4F8400041F8783FFFF714FA00287DD077
:100430003F4A40F2C141BDE8F041FCF7E8B9294626
:10044000204600F0EBF8FFF723FA4FF48971BDE87E
:10045000F041FFF722B9E669246AB44266D056F843
:10046000040B036829469B699847F6E7204600F08D
:1004700089F82B7B062B16D1FFF746FA03680BB1E0
:100480009E1C00E01E46276AE4690635A7424DD04F
:1004900054F8040B3288036829465B6A98470028A1
:1004A000F4D0BDE8F081E669276AAC1DB7423DD0C3
:1004B00056F8040BEA88036821465B6A9847F5E71B
:1004C000266AE3699E4231D053F8040BE988428DD5
:1004D0009142F7D1036829469B69BDE8F04118476E
:1004E000002203231146B4F84000FFF7ADF9E8B14C
:1004F0000F4A40F20951BDE8F041FCF788B9FFF717
:10050000C7F92A464FF6FF734FF48871BDE8F041F2
:10051000FFF7ACB82B7A4BB984F83D30BDE8F081D9
:1005200029462046BDE8F04100F0B4B8BDE8F081AE
:10053000A894030008B5FFF7C1F9BDE8084000F032
:100540008BB8FFFF10B50446F034FFF78FF9074969
:10055000204600F03FF9FFF789F9204600224FF4CA
:100560002021BDE8104000F045B900BF350502006C
:1005700010B50446FFF77AF9D4F8F000BDE8104052
:1005800000F046B910B50446FFF770F9D4F8F00052
:100590000BF052FC18B1094A5021FCF738F900223F
:1005A0004FF42021D4F8F0000BF006FC28B1034AE8
:1005B0005121BDE81040FCF72AB910BDF4940300A6
:1005C000F8B50D46002380F83D308376044600F1EF
:1005D0003201A888FFF728F920B10F4A40F24551AF
:1005E000FCF715F9236D1BB1A98804F14400984765
:1005F000AB88E669276AA4F84030B74206D056F8BF
:10060000040B036829469B699847F6E72046BDE836
:10061000F840FFF797BF00BFA8940300F8B54FF666
:10062000FF73A0F84030036D04460E461BB1036E05
:10063000898854309847E569276AAF4206D055F853
:10064000040B036831469B699847F6E72046BDE8EE
:10065000F840FFF78DBFFFFF08B50346B0F8400034
:100660004FF6FF72904210D09A7E72B901229A76AC
:100670001321FFF7DBF830F0080306D0034A40F2FD
:100680006E51BDE80840FCF7C2B808BDA89403004D
:10069000807E704770B5C469066A0D1DA64206D0FB
:1006A00054F8040B036829469B6A9847F6E770BD27
:1006B00010B583680446DB689847204610BD2DE9D5
:1006C000F843436804681C1BA41014BF234601238D
:1006D000E4180646894602D2B4F1804F25D36FF064
:1006E0004044A0000FF07CFA0746D6F800807568F9
:1006F000D9F80030C8EB0505EF4218BF7B51AB08B5
:1007000004D02A464146384614F0DEF804353D440C
:10071000B8F1000F02D040460EF0C4FE07EB84048F
:1007200037607560B460BDE8F883002CD9D12746E6
:10073000DBE7FFFF0B6800B10360014B836070478C
:1007400060950300024B83600B680360704700BF35
:10075000609503000B6800B1036070477047FFFFAE
:10076000004870476C94030010B5044608460449DD
:100770000FF092FA002814BF2046002010BD00BFE1
:100780006C9403000B6800B10360014B83607047F9
:100790007C950300024B83600B680360704700BFC9
:1007A0007C9503000B6800B1036070477047FFFF42
:1007B000004870475494030010B5044608460449A5
:1007C0000FF06AFA002814BF2046002010BD00BFB9
:1007D0005494030008B50A4600210BF0DBFA28B157
:1007E000034A3221BDE80840FCF711B808BD00BF3C
:1007F000F494030008B500680BF0DEFA28B1034A50
:100800004021BDE80840FCF702B808BDF49403009D
:1008100008B50BF011FB28B1034A4721BDE8084099
:10082000FBF7F5BF08BD00BFF494030073B50446A1
:1008300016460D4601B9BAB9731B0F2B019307D9A0
:10084000002201A920460FF087FD019B2060A360D4
:100850003246294620680FF0ADFD019B2268636097
:100860000021D15402B070BD01480FF0E5FC00BF7B
:1008700034950300A0DF70477047704754307047CD
:1008800013B5836DC26D01919342044605D003B147
:100890001960A36D0433A36503E001A9543000F08F
:1008A00005F9204602B010BD73B500F1080541609E
:1008B00004462846FEF776FF2846FEF70DFF02A9FC
:1008C00022464FF6FF7341F8040D22F82A3F01201B
:1008D000FFF7D0FF18B10B4A2021FBF798FF2368E0
:1008E0002046DB6A984790E86000AE4205D021467A
:1008F00055F8040B00F09CF9F7E7012384F82C303D
:1009000002B070BD9C950300036870B5DB6A0D46AC
:10091000984790E85000A6420FD054F8040B90F886
:10092000203065F3861380F82030036815B1DB6A48
:100930009847F0E71B6B9847EDE770BD0A88112ACE
:1009400009D0502A0DD0102A10D1036801F10802F5
:10095000DB6989881847036801F108021B6A8988E6
:100960001847036831F8062F5B6A184770477047CD
:100970000368F7B5DB6A0D46064617469847416897
:100980000368994213D053F8044B2888E28A9042B6
:1009900011D16A89022A0ED16A7B2B7B43EA02239A
:1009A00094F8202063F3C30284F8202001E00020A3
:1009B00022E0012020E0628ABA42E2D1AB795A1EDD
:1009C000022A06D8236869891B6A204698470120B5
:1009D00012E0062BEDD102AA7068002322F8023D36
:1009E0003946B0F8400000F0F3FC2368BDF806106B
:1009F0001B6A20469847012003B0F0BD036870B51C
:100A0000DB6A0D46984790E85000A64206D054F89D
:100A1000040B036829469B6A9847F6E770BD70B5DA
:100A20000446406DA26D151A2D11002D034616DDEA
:100A300006688E422DD046688E4201D1043028E0EF
:100A400086688E4201D1083023E0103050F8046CE3
:100A50008E4202D103F10C001BE0013DE5E7151ABF
:100A6000AD10022D08D0032D02D0012D0ED107E0CC
:100A700005688D420DD004331868884208D00433CD
:100A80001868884214BF1046184602E0104600E07D
:100A90001846011D8A4204D0521A930801D013F05F
:100AA00013FFA36D043BA365204670BD2DE9F843F9
:100AB000436804681C1BA41014BF23460123E418D8
:100AC0000646894602D2B4F1804F25D36FF04044E8
:100AD000A0000FF085F80746D6F800807568D9F8B1
:100AE0000030C8EB0505EF4218BF7B51AB0804D0BE
:100AF0002A464146384613F0E7FE04353D44B8F136
:100B0000000F02D040460EF0CDFC07EB84043760A6
:100B10007560B460BDE8F883002CD9D12746DBE7C7
:100B2000A2DF7047A6DF704710B50446006808B121
:100B300013F0ECFA204610BD704710B504460EF0D5
:100B4000B1FC204610BDFFFF70B50D4E336813F0A9
:100B5000010513D130460FF035FB78B1094C0A4B33
:100B600023603046042384F84C5084F854300FF04E
:100B700045FB064A064920460EF08EFC014870BD32
:100B8000C035002068350020C4980300B826002036
:100B9000390B0200704790F820305B0603D590F8BF
:100BA0002830FF2B02D103685B691847406A704701
:100BB000704700207047A0F84210704708B500F059
:100BC000DBFA006808BDB0F842007047B0F840009A
:100BD0007047A0F844107047B0F844007047FFFF1A
:100BE000094A02604DF6AD610022426001818272C5
:100BF000C260C0F81220C0F81620C26102844262AE
:100C000080F82820704700BF9897030038B590F807
:100C10002030DB0704460D4605D5044A1A2102F1AF
:100C20004300FBF7EEFDE56038BD00BF949603007E
:100C30002DE9F04304469BB00DF15C080EAD0DF1BB
:100C400062071C22E1610E4610A8002188F80210FC
:100C50000E916960ADF85C10ADF86210B97013F0D8
:100C600097FE09A9204600F0DBF8012303228DF846
:100C70005E201A4663F307128DF85C2094F820205A
:100C8000CDF85480920654BF1A46032204F104089A
:100C90004CBF62F3071363F3071240464CBF8DF855
:100CA0005D308DF85D20FEF77DFD4046FEF714FDBA
:100CB0000DF168081422002148F8640D09A813F00A
:100CC00067FE2368CDF824801B6920469847236877
:100CD000ADF82C009B6820469847ADF830002046C0
:100CE000FFF759FF05238DF8643094F820300D90FC
:100CF00013F0200F4FF001030AD01946032262F3CC
:100D0000071162F307138DF862108DF8633009E064
:100D10001A4663F307128DF862201A4663F307122E
:100D20008DF863200A97E7684FF0000805ABCDF80F
:100D30004480CDF850800393002F69D0384614F0DA
:100D40001FFD0F2807EB0009029007D9424602A9B0
:100D500003A80FF001FB029B039005934A46394616
:100D600003980FF027FB029B039904930022CA54B7
:100D7000049B33B39BB2ADF84A30ADF8483003233F
:100D80008DF8673094F82030ADF8652013F0200F0F
:100D90009DF86530039911914FF0010262F303034E
:100DA00018BF032262F307138DF865309DF8663093
:100DB00003F0F0036FF307138DF866300DF1650350
:100DC00014932368002713975B6B294620469847A6
:100DD00010B1ADF83A70139504F1120309AA10A9E5
:100DE000708DFFF79DFE18B10B4A9B21FBF70FFD9D
:100DF0000021204600F036F894F8203043F001033B
:100E000084F8203003A80FF0CDFA1BB0BDE8F083C2
:100E100002480FF011FA00BF9496030001970300F7
:100E20000B7F43F002036FF300030B7790F8203041
:100E30000A7FC3F3800363F3C3020A7790F820307C
:100E4000D2B2C3F3400363F304120A7790F8203060
:100E5000D2B2C3F3001363F34512437C0A7781F8DF
:100E60003F3070472DE9F043036887B0DB690446E3
:100E70008846984706462046FFF78DFE94F82030B6
:100E80005B06054633D594F82830FF2B2FD041461A
:100E9000304600F057FD0746FFF756FE23688146AF
:100EA0005B692046984794F8283001933246014602
:100EB000CDF8088000972B46484600F0E1FD064635
:100EC00078B93A460146284613F062FD2368314658
:100ED000DB6820469847FFF737FE00F05AFD0320F5
:100EE00038E023683946DB682046984704E02368E9
:100EF0003146DB6820469847236820461B6998479F
:100F0000E369618A06AA22F8020D58682B46B0F8F8
:100F1000400000F06EFA18B1104AF321FBF777FC9D
:100F200094F8203003F0020202F0FF0092B1E2696F
:100F30005268B2F840104FF6FF72914209D003F0A8
:100F4000080303F0FF002BB1236820465B6A984733
:100F500000E0002007B0BDE8F08300BF94960300D6
:100F600030B590F820309A0787B0054609D5C26998
:100F70005268B2F840104FF6FF72914201D01B0741
:100F800001D4082038E003681B6998476B8AADF8E4
:100F900008300DF10602012304928DF80A30EA6947
:100FA000ADF80600002305935268ADF80C3002A995
:100FB000B2F84000FFF7B6FD0446E0B143F2040288
:100FC000944206D195F8203043F0800385F8203014
:100FD00011E0082C06D195F8202063F3C71285F89C
:100FE000202008E043F201439C4204D0034A40F22F
:100FF0003911FBF70CFC204607B030BD9496030076
:101000002DE9F04F90F820309A0791B0044609D5A9
:10101000C2695268B2F840104FF6FF72914201D097
:101020001B0701D408207EE003681B6998478046AF
:101030002046FFF7B0FD94F8203023F07F0381466F
:1010400003F0FF060BB1B4F8466000250DF1180A55
:10105000B04567D9C6EB0805132D4FF014024FF0C9
:10106000000150462F46A8BF132713F091FCBFB2D2
:10107000132D09EB060BCCBF1323FF233A46594629
:101080000DF11900C8BFB6FBF3F38DF8183013F05B
:1010900081FB7A1C92B259460BA8ADF8062013F0DA
:1010A00079FB0DF106020492E269CDF814A0638A7F
:1010B0005268ADF8083001238DF80A3002A90023E8
:1010C000B2F84000ADF80C30FFF72CFD054600B338
:1010D00043F20402904208D194F82030A4F846600C
:1010E00043F0800384F820301CE0082808D194F8ED
:1010F0002020A4F8463063F3C71284F8202011E0C2
:1011000043F20143984204D0084A4FF4D371FBF7ED
:101110007EFBBDF806200BA958463E4413F03AFB6F
:10112000B6B295E7284611B0BDE8F08F949603005B
:1011300010B590F820301B06044609D503685B6A99
:10114000984728B994F8203060F3C71384F820300A
:1011500010BD10B590F820301B0604460BD503686F
:101160005B6A984738B994F82030A4F8460060F3D9
:10117000C71384F8203010BD80B483B000AF78600E
:101180007B682C3318460C37BD465DF8047B7047EE
:1011900010B50446034B40F8303BA36BDB6898471F
:1011A000204610BD3496030010B50446FFF7F0FF4B
:1011B00020460EF077F9204610BD2DE9F04387B0A8
:1011C0000D460446FFF7C0FC00F0EAFB0646002887
:1011D0005DD123682946DB6820469847C9238DF8EE
:1011E000173094F8203013F0400F236838D094F86B
:1011F0002820FF2A34D01B692046984700F0B1FB15
:10120000236801469B6920469847FFF79DFC0546E9
:101210002046FFF7C0FC236807461B692046984715
:10122000236880465B692046984723688146DB69CE
:10123000204698470DF117038DE8090002964B46AA
:1012400042463946284600F09DFCE0B1FFF77CFCA1
:101250009DF8172094F8281000F023FE38B912E00A
:10126000FF228DF817209B69294620469847204683
:101270009DF81750FFF780FFE36B0246294604F103
:101280003000984703E0FFF75FFC00F082FB07B0F7
:10129000BDE8F083F8B5436A04463BBB90F82130C3
:1012A000DB071CD5124F134E3D6815F001050ED11A
:1012B00038460EF087FF50B138463560B580B571BD
:1012C0000EF09CFF0C4A0D4930460EF0E5F83368ED
:1012D00003B16362636A4BB9012012F06BFC0368CF
:1012E0009B689847012112F021FC6062F8BD00BFA5
:1012F000643500205C350020B8260020290B020050
:1013000038B50446406A50B194F8213013F0010515
:1013100002D00023636238BD12F0F8FE656238BD6A
:101320001B2301200B7000230871CB80487070478D
:1013300038B5831E012B044601D80DF0ADFA1C4DC3
:101340002B68DA070ED428460EF03CFF50B119483E
:10135000FBF79EFA28460EF051FF174A1749154829
:101360000EF09AF8134803781BB11821FBF710FB15
:10137000B0B9012C1BD1124C2368DB0709D42046DD
:101380000EF020FF28B10F48FEF76CF920460EF052
:1013900035FF4FF48A710B48BDE83840FEF77DB940
:1013A000204608F0F1FF2046FCF728FDE1E738BDB4
:1013B000983000209C300020B82600201DD101006C
:1013C000CC2F0020D02F0020A4DF7047A5DF70476E
:1013D00013B514461288ADF800200022ADF80220A3
:1013E0006A460193FFF7F2FFBDF80030238002B098
:1013F00010BD13B514461288ADF800200022ADF8D8
:1014000002206A460193FFF7DFFFBDF8003023801A
:1014100002B010BD0B78037170477047704710B56C
:1014200004460EF03FF8204610BDFFFF08B5054802
:101430000EF0C8FE28B10448FEF714F901480EF07A
:10144000DDFE08BDCC2F0020D02F002008B50A46B5
:1014500000210AF09FFC28B1034A3221BDE8084070
:10146000FBF7D5B908BD00BFED97030008B50068CC
:101470000AF0A2FC28B1034A4021BDE80840FBF76E
:10148000C6B908BDED97030010B50446D0F8480171
:1014900008B10EF007F8204610BDFFFF2DE9FF410F
:1014A00004460F46FEF7E2F9606A0AF0C5FC18B17F
:1014B000374A4721FBF7ABF994F82930002B51D17B
:1014C000236E94F828200133236694F82E3012B945
:1014D00063F07F0301E003F07F0384F82E30B4F85B
:1014E00039300133A4F83930FCF7BCFB1921FBF784
:1014F0004FFA58B3DFF8B480012104F13800FDF74A
:10150000F7FDD8F8003013F0010613D140460EF075
:1015100059FE78B11F4D204B2B604046042385F8BF
:101520004C6085F854300EF069FE1C4A1C49284670
:101530000DF0B2FF0223102202930193009204F1F6
:101540004D0304F12B01134800F09AFA57B9154BDB
:101550001B68DB0701D4FFF769FF4FF48171124864
:10156000FEF79BF894F8283004F124052BB9FEF718
:101570007DF9224640F6CD4104E0FEF777F9224698
:101580004FF40041284604B0BDE8F041FFF76EBFBC
:10159000ED97030068350020C4980300B8260020AA
:1015A000390B0200CC2F0020D02F0020C0350020A6
:1015B0002DE9F341584B03600025044600F12A0849
:1015C00080F8295029461122404604F13B0713F0C8
:1015D000DFF929461122384613F0DAF9294611229B
:1015E00004F14C0013F0D4F9261D2946254620228B
:1015F000304613F0CDF945F8246F484EFEF736F922
:1016000047492846FFF722FF3368DA070ED43046F1
:101610000EF0D8FD50B14348FBF7D8FD30460EF030
:10162000EDFD414A41493F480DF036FF012304F1E9
:10163000280286213B48FBF786FF3D4B1B68DB07F2
:1016400001D4FFF7F3FE21463A48FEF72BF80126B6
:1016500011220021404613F09BF91122002184F849
:101660002A60384613F094F984F83B6084F84C60A3
:10167000FEF7FCF8284622464FF40041FFF7F6FE3D
:1016800004F18806002125462022C4F8AC10C4F8D5
:10169000B010C4F8B410304613F07AF945F8A86FCA
:1016A000FEF7E4F824492846FFF7D0FEFCF7DAFA03
:1016B0001821FBF76DF9F0B194F82830102B1AD1EE
:1016C00002210DF10600FDF713FDBDF80660FEF7DF
:1016D000CDF801364FF400434FF4FA700021C3FBFC
:1016E00006014FF47A72002311F018F922460146E0
:1016F0002846FFF7BBFE0023204684F8643084F8B8
:10170000653084F8843023660121FFF7C7FE204648
:1017100002B0BDE8F08100BF38980300D03500204A
:101720003D170200D4350020B8260020891402009D
:10173000CC2F0020D02F0020091802000021FFF735
:10174000ADBEFFFF7FB50E460446FCF78BFA1821AD
:10175000FBF71EF900284DD094F82B3094F82C207C
:10176000254D43EA0223ADF8043094F82D308DF86E
:10177000063094F82E3023F002038DF80730236BE7
:101780000293636B03932B68DB070ED428460EF09D
:1017900019FD50B1194806F063F828460EF02EFDE9
:1017A000174A184915480DF077FE324601A913482B
:1017B00006F089FAF6B901210DF10300FDF798FC56
:1017C0009DF803504E2315FB03F54FF40046FEF73A
:1017D0004DF84FF4FA7000214FF47A720023E6FBC3
:1017E000050111F09BF8224600F5C81104F1A8008C
:1017F000FFF73CFE04B070BDC4350020C8350020A2
:10180000B82600201D1402000021FFF79BBFB1F590
:10181000897F70B504460D46164612D009D88B292B
:1018200015D040F2111399421ED1012380F82930BE
:101830001AE06FF48B73CB18022B15D890F82E306A
:101840000BE0002180F82910FFF728FE0CE0042BA4
:101850000AD1126890F82E3012B143F0040301E06F
:1018600023F0040384F82E3094F828304BB3822DF3
:101870001CD004D8222D0CD0812D0ED070BD872D08
:1018800017D0B5F58F7F19D0832D1AD13368236314
:1018900070BD3388A4F82B3070BD337884F82D30B8
:1018A00020460121BDE87040FFF74CBF33686363F9
:1018B00070BD96F9003084F82F3070BD072384F88E
:1018C000843070BD10B504460DF0ECFD204610BD0F
:1018D0004DDF7047144B70B50365144B1B68DA0776
:1018E000044601D400F00EFB114D12482146FDF7CD
:1018F000D9FE2B68DB070ED428460EF063FC50B1EE
:101900000D48FBF763FC28460EF078FC0B4A0C49A7
:1019100009480DF0C1FD221D012386210648BDE8BE
:101920007040FBF710BE00BFBEBAFECACC2F00202D
:10193000D0350020D02F0020D4350020B82600203C
:101940008914020001290AD8031D13F00F031CBFDC
:10195000C3F110039BB20830184480B270471020C6
:101960007047082886BF083880B20020704740F2D0
:101970001113994210B504460AD1FCF773F91921E5
:10198000FBF706F820B12046BDE8104000F04CBA45
:1019900010BD08B5FDF792FFBDE80840FEF75CBE3C
:1019A00008B5FDF78BFFBDE80840FEF771BE2DE9D5
:1019B000FF4706469846039191460C9CFCF752F966
:1019C00006F10C022321FBF741FABDF83450083D23
:1019D000ADB208F10303AB421EDA04AF234657F859
:1019E000040D43F8040B0421184606F11C0AFDF708
:1019F0007FFB10220021504612F0CAFF2368F361DA
:101A00006368336208340195009443464A46394678
:101A1000304600F07FF900E0002004B0BDE8F08718
:101A2000172A2DE9F34104460D4616461F4622D9D2
:101A3000FCF718F904F10C022321FBF707FA04F173
:101A40001C082B683B6010220021404612F0A0FFCA
:101A50002B68E3616B68BDF8242023620192A6F134
:101A60000803089A00929BB205F108023946204605
:101A700000F0CEF800E0002002B0BDE8F081FFFFEA
:101A80002DE9F74F9DF83880BDF830609DF834B0EF
:101A9000B8F1010F0446894692461F462CD8594694
:101AA00000F094F908B9002665E094F85450751BCD
:101AB000ADB20AF10303AB42F5DA03213846FDF774
:101AC00017FB04F11C0143463A46204687F803B051
:101AD00000F0C4F9019594F85430B8F1010F3B447B
:101AE00000930CBF04F15001611D53464A46204645
:101AF00000F010F906463EE0F6B2102ED3D1B8F150
:101B0000030FD5B202D10C2D05D9CCE7B8F1020FE5
:101B100001D1102DC7D85946204600F057F9064686
:101B20000028C0D004F11C0A10220021504612F0F7
:101B30002FFFB8F1030F01BF236DE3612A46494629
:101B40000FBF04F120002A464946504612F022FEFB
:101B500004F10C00FFF7BCFE18B1094A7621FAF730
:101B600056FE04F12C023B463C3452F8041B43F869
:101B7000041BA242F9D1304603B0BDE8F08F00BF8C
:101B80006C9803002DE9F7439DF83070DDF82C9038
:101B9000012F04460E461546984601D9002034E030
:101BA00090F854300F339342F8DAC97800F00EF908
:101BB0000028F3D0F378012B09D004D3022B06D0F0
:101BC000642B04D005E0002389F8003001E089F897
:101BD000003094F8542004F11C01AD1A3B46324603
:101BE000204600F03BF994F85420BDF828300193CA
:101BF000012FADB20CBF04F15001611DCDF8008082
:101C00002B463244204600F003F803B0BDE8F083D1
:101C10002DE9F04F85B00646029119469346994644
:101C2000BDF83C4000F035F908B900205CE0231D08
:101C3000C3F30F1213F00F0318BF012313449BB219
:101C40000193002706F10C03B84603935FFA87FA65
:101C5000019B1FFA8AF5AB4243D986F82BA0039863
:101C6000FFF736FE20B1224A40F24911FAF7CFFDC4
:101C70002D0106F12B0206F13B00A945D5D91BF831
:101C800005E012F8011F01358EEA01018242117050
:101C9000ADB2F2D106F12C01BAF1000F10D1029AC7
:101CA000304600F027F80028BFD00B2C94BF254603
:101CB0000C252A4606F130010E9812F06BFD09E062
:101CC0000F2C0E9B94BF254610252A4603EB0800D7
:101CD00012F060FD641BA844A4B21FFA88F8013713
:101CE000B4E7B4FA84F0400905B0BDE8F08F00BF56
:101CF0006C98030010B54B1E013A033113F8014FE5
