:0200000270008C
:10100000807F0020155407003D5407003F5407001F
:1010100041540700435407004554070000000000F6
:1010200000000000000000000000000099210700FF
:1010300049540700000000004B5407004D540700BE
:101040004F5407004F5407004F5407004F540700F8
:101050004F5407004F5407004F5407004F540700E8
:101060004F5407004F5407004F5407004F540700D8
:101070004F5407004F5407004F5407004F540700C8
:101080004F540700813007004F5407004F540700AA
:10109000413107004F5407005D5007004F540700CF
:1010A0004F5407004F5407004F5407004F54070098
:1010B0004F5407004F5407000000000000000000DC
:1010C0004F5407004F5407004F5407004F54070078
:1010D0004F5407004F5407004F5407000000000012
:1010E0000000000000000000000000000000000000
:1010F00000000000000000000000000000000000F0
:1011000000000000000000000000000000000000DF
:1011100000000000000000000000000000000000CF
:1014000010B5054C237833B9044B13B10448AFF33E
:1014100000800123237010BD782C00200000000004
:1014200030560700084B10B51BB108490848AFF308
:1014300000800848036803B910BD074B002BFBD0A0
:10144000BDE81040184700BF000000007C2C0020C1
:1014500030560700742C002000000000154B002BB4
:1014600008BF134B9D46A3F5803A00218B460F46DB
:101470001348144A121A00F065F80F4B002B00D0E5
:1014800098470E4B002B00D0984700200021040005
:101490000D000D48002802D00C48AFF3008000F08A
:1014A0002BF82000290000F005FF00F011F800BF24
:1014B00000000800807F0020000000000000000005
:1014C000782C0020E435002000000000000000001F
:1014D00008B5074B044613B10021AFF30080054B5C
:1014E0001868836A03B19847204600F033F800BFBC
:1014F00000000000B054070070B50E4B0E4CE41A0B
:10150000A41000251E46A54204D056F82530984761
:101510000135F8E703F0BEFF084C094BE41AA410AC
:1015200000251E46A54204D056F8253098470135BF
:10153000F8E770BD6C2C00206C2C0020702C002073
:101540006C2C002002440346934202D003F8011B96
:10155000FAE77047FEE700BF48DF7047064B187890
:10156000012803D1012904BF0221197012B11046CC
:1015700001F0D8BB704700BFB02C002010B5064C5E
:10158000FFF7EAFF08B101F0CDFB01F075FC23780D
:10159000023B022BF4D810BDB02C002008B51C2152
:1015A000084802F09DFB08B101F0BCFB00231C229F
:1015B0000549044802F084FB18B1BDE8084001F079
:1015C000B1BB08BDB42C0020942C002084B02DE9C0
:1015D000F34108AC84E80F009DF82040BDF822805C
:1015E000099F0A9E0B9D01A802F004F944B9354BEE
:1015F0000122FF21A3F802809D601A7019713EE05C
:10160000012C13D12F4BBA192A449A60A5221A70C3
:10161000FF221A710C9AA3F80280DF601E615D61DF
:101620009A61294B1C70FFF7B9FF45E0032C0DD1DF
:10163000019A244B11781970518892689A60AA22F5
:1016400059801A71DF601E615D6117E0022C19D1AB
:10165000019A1C4B1178A52905D100225A809A6065
:10166000FF221A7004E019705188926859809A60BC
:10167000FF221A710022DA601A615A610122124BAC
:101680001A70D0E7052C06D101F0E8F908B101F095
:1016900049FB03220EE0042C09D10A4B00229A6078
:1016A0005A80FF221A70019A12791A71BBE7062C30
:1016B00002D10422044B1A7002B0BDE8F04104B01C
:1016C000704700BF942C0020B02C00201FB50023D1
:1016D00002930393074B019302F0B8FA30B906491D
:1016E0004FF4FE2301A84B6002F0D6FA05B05DF876
:1016F00004FB00BF5D150700B42C002010B500F0FE
:10170000CDF928B901F0FEF80446FFF737FF20466F
:1017100010BD07B501A802F06DF8019B1A78A52A43
:1017200005D01879A0F1AA035842584100E00120E1
:1017300003B05DF804FB000013B500F0D3FC40B12A
:10174000642002F06FF900F04BFB38B101F0EAFAC7
:1017500004E000F087FC0028F2D119E000F0C2FCA0
:10176000044608B101F0DEFA0A4B1B680193019BA5
:10177000B3F5E22F02D14FF4EC2005E0019BB3F565
:10178000F22F04D14FF4E22000F04AFC00E02046A2
:1017900002B010BD1410001010B588B003AC1422B4
:1017A00000212046FFF7CEFE02238DF80C300023E7
:1017B000009394E80F00FFF709FFFFF7DFFE00201A
:1017C00008B010BD13B5044601A802F013F8019B40
:1017D0001A7822705A8862809A68A2601A792271F7
:1017E000DA68E2601A6922615A6962619B69A361E1
:1017F00002B010BD18DF7047704700000129F8B52E
:101800000D4614461F4602D003290CD01AE0114B96
:101810001B78052B16D1104B1B689BB13A4621460D
:10182000042098470EE00B4E3378022B0AD10B4B65
:101830005B689847084B35701E681EB13A462146D2
:101840002846B04724B12046BDE8F84001F06ABA06
:10185000F8BD00BFC42C0020BC2C00200C2D0020A3
:1018600000B5084B89B001221A7005238DF80C30A1
:10187000079B009303AB0FCBFFF7A8FE09B05DF801
:1018800004FB00BFD02C002000B589B003238DF8E5
:101890000C300A4B1B88ADF80E30094B5A68049285
:1018A0009A68DB680693079B0093059203AB0FCB06
:1018B000FFF78CFE002009B05DF804FBC22C00206D
:1018C000FC2C002000B589B001238DF80C300B4BA7
:1018D0001B88ADF80E3043F208031A68084B5968AC
:1018E00004919968DB6806930591009203AB0FCBD6
:1018F000FFF76CFE002009B05DF804FBC22C00204D
:10190000FC2C002010B588B003AC14220021204626
:10191000FFF718FE04238DF80C300023009394E8A1
:101920000F00FFF753FE08B010BD000008B50C4BC8
:101930000C4818600C4B02221A7043F20803196815
:10194000494221F4FF5121F01F0101F5D821490836
:1019500002F0C6F918B1BDE8084001F0E3B908BDCE
:10196000982D0020D42C0020C42C002008B5084B52
:1019700008481860084B02221A70084B196802F0D8
:10198000AFF918B1BDE8084001F0CCB908BD00BFFF
:10199000982D0020C82C0020C42C00208C2E002064
:1019A00030B5154C1548E16889B002F099F908B1D5
:1019B00001F0B8F91249E26849681048002302F0C2
:1019C0007FF90546A0B903AC014614222046FFF773
:1019D000B9FD0C4B8DF80C501B88ADF80E30064B42
:1019E000DB680693079B009394E80F00FFF7EEFD7A
:1019F000284609B030BD00BFFC2C0020C82C0020B8
:101A0000D42C0020C22C002010B50C4B1B7883B9BD
:101A10000B4801F06FFE08B101F084F900224FF489
:101A2000F001074801F026FE044620B101F07AF9E2
:101A300001E0082010BD204610BD00BFD02C0020C2
:101A4000DC2C00207FB505460C469608032168462D
:101A50008DE8220002940396FFF7CCFED8B1B4F5CE
:101A6000805F11D8012368468DE828000294039610
:101A7000FFF7C0FE78B9032368468DE8280002947A
:101A80000396FFF7B7FE06E01A46E11AE81AFFF7D9
:101A9000D9FF0028E6D004B070BD00007FB51F4B11
:101AA00001931F4B1F4E204D00241C701F4B0294AE
:101AB000314601A81C80039402F0EEF8034608B1F9
:101AC0002C7029E043F20802194C1168716096E805
:101AD000030084E80300116816484A4222F4FF52CA
:101AE00022F01F0202F5D82201EB52026260194671
:101AF000114A01F0ADFD08B101F014F900224FF4D4
:101B0000F0010E4801F0B6FD08B101F00BF90C4BE5
:101B10000020186001232B7004B070BDFD17070072
:101B2000C02C0020C82C0020C42C0020C22C002077
:101B3000D42C0020C054070061180700DC2C0020C2
:101B40009C2D0020014B1860704700BFBC2C00206A
:101B500038B543682B4C0FCB84E80F0021784B0736
:101B600001D58D0745D16368264A980741D1906811
:101B700085073ED1D26894073BD103441A44224BD7
:101B8000224D1B682A60C3F5FE23984233D843F2E6
:101B9000080311F0010F1B680AD0C3F5D8239A423D
:101BA00029D81B4B1B4A1A601B4A5A601B4A12E079
:101BB0005B4223F4FF5323F01F0303F5D823B2EB5A
:101BC000530F18D8124B164A1A60164A5A608A07E1
:101BD0004CBF154A154A9A60154B1B78012B0CD146
:101BE000FFF712FF044650B9094B28681B68984755
:101BF00005E0062038BD0C2038BD082038BD204641
:101C000038BD00BFFC2C0020B45407008C2E0020EF
:101C10000C2D00206D19070005190700C5180700D5
:101C20002D190700F917070089180700A1190700E7
:101C3000C42C0020F8B5064640B383689B0727D123
:101C4000154B1B78052B25D1144C4268144F236883
:101C500095003A682B44934204D94FF0FF33236038
:101C60000C20F8BDFFF7D0FEA8B90E482368B16874
:101C700000682A4602F024F868B920682A183868F3
:101C80002260824214BF09200020F8BD0E20F8BD5A
:101C90001020F8BD0820F8BDC42C00209C2D002089
:101CA0008C2E0020982D002070B50B4B1C687CB941
:101CB0000A4E3378042B0BD1094D0A48297801F0DC
:101CC000BBFD10B90523337003E02C70044600E01F
:101CD0000824204670BD00BF9C2D0020C42C00208D
:101CE000C02C0020182D0020F8B5144B1A78032AB8
:101CF000074602D0042A02D018E004221A70104BC2
:101D00001D689DB9FFF780FE90B90E4E7C68337850
:101D1000A4001A19802A0DD80B48B9682246184425
:101D200003F0A5FB33781C44347004E0082502E07E
:101D3000054600E009252846F8BD00BFC42C002058
:101D40009C2D0020C02C0020182D002038B50D4CF3
:101D50002378052B14D10C4B0C4D1A682B689A4232
:101D60000ED106232370FFF74FFE50B9084B2968A8
:101D70001B68586801F0A2FD18B90723237038BD0D
:101D8000082038BDC42C00209C2D00208C2E002063
:101D9000982D002010B5084B1B78072B0AD1074857
:101DA00001F0A8FC08B100F0BDFF054BBDE81040F4
:101DB0009B681847082010BDC42C0020DC2C002094
:101DC0000C2D002000B589B006238DF80C30079B40
:101DD000009303AB0FCBFFF7F9FB09B05DF804FBF1
:101DE00010B58CB005A8FFF7EDFC089A002A3AD090
:101DF0000B9C02F58053A34229D943F20801A4F5B4
:101E0000805309685B0823F47F638A4223F00F0341
:101E100007D85800121A00F580512044FFF712FE2F
:101E200020E003F5805001210290039001A8019168
:101E30000491FFF7DFFCA8B94FF4805002900390A3
:101E400001A801910491FFF7D5FC58B9E1E70123FE
:101E5000019392084FF4805301A8029403930492D3
:101E6000FFF7C8FC024610460CB010BD0B4B022217
:101E7000C3F80425D3F80024002AFBD0074AC2F88F
:101E80000805D3F80014054A0029FAD00023C2F847
:101E90000435D2F80034002BFBD0704700E001403D
:101EA00037B501F2FF31890A054601910024019AF4
:101EB000E3B29A4204F1010405D92846FFF7D6FFA0
:101EC00005F58055F3E703B030BD0000F8B597087D
:101ED0000D46394616460446FFF7E2FF134B012232
:101EE000C3F80425D3F80024002AFBD00F490023AF
:101EF000BB420E4A09D055F8232044F82320D1F8DC
:101F00000024002AFBD00133F2E70023C2F8043595
:101F1000D2F80034002BFBD032462946204603F08D
:101F200097FA002814BF0B200020F8BD00E0014004
:101F3000F7B5044602A8002300F8013D01F01EFC9D
:101F4000314E324B324F33485A682F491D1DA3F191
:101F50001023103BF250D7F800342D4A002BFAD052
:101F600085422B46F0D14FF01023D3F80062D3F80E
:101F70000452D3F80802D3F80C720C600223C2F8A2
:101F80000435D2F80034DFF888E0002BF9D00123C3
:101F9000CEF81435DEF800241D4B002AFAD00122B9
:101FA000C3F80425D3F80024002AFBD01A4BDFF82D
:101FB00060E0DFF868C0A3F11022143A8A58B2F149
:101FC000FF3F1BD104336345F5D14FF01023C3F815
:101FD0000062C3F80452C3F80802C3F80C729DF8FB
:101FE000070001F0F1FB642001F01CFD0A4B1868AA
:101FF000844214BF0B20002003B0F0BD1A60DEF84D
:102000000024002AFBD0DDE7A02D002010100010D6
:1020100000E00140FC10001014100010001100102E
:1020200010B588B0044601A8FFF7CCFB049961B94C
:1020300043F208031B68594221F4FF5121F01F01AC
:1020400001F5D82103EB510101E0079B1944059AE2
:102050002046FFF73BFF10B92046FFF769FF08B0A5
:1020600010BD000000B58DB00E2305A80093FFF74A
:10207000A9FB099868B3184A126843F20803B2F53D
:10208000E22F1B680ED0154A1268B2F5E22F09D074
:102090005A4222F4FF5222F01F0202F5D82203EB2B
:1020A000520305E0C3F5D8210D4A49080A401344FC
:1020B000089A0AB10B9B13440322800801920490F2
:1020C0004FF4E22201A802920393FFF793FB0090E2
:1020D00000980DB05DF804FBBC540700B85407002D
:1020E00000F0FF7F30B58DB005A80E250095FFF7F5
:1020F00069FB089818B30B9C00F58053A3420FD9D5
:1021000043F208031B68984218D8A4F580535B0873
:102110005D00421B05F580516019FFF793FC0AE052
:1021200003238008019304904FF4805301A8029385
:102130000394FFF75FFB0090009800E028460DB085
:1021400030BD000070B50D4600BB0968E1B1114C0F
:10215000A14211D0631A3B2B0AD801F13C03481E5F
:10216000984209D013F801695A1A22445670F7E7C9
:102170003C22204603F07BF900223C21054801F077
:102180003FFB0023A08702E00E2300E001232B6029
:1021900070BD00BF807F0020074A6FF002039E459C
:1021A00002D1EFF3098101E0EFF308818869A0F122
:1021B00002000078104700BF4521070038B50546EA
:1021C000A8B10D4C00223C21204601F019FBA38F41
:1021D00083420ED1234604F13C0253F8041B45F818
:1021E000041B9342F9D10130A087002038BD0E2096
:1021F00038BD0B2038BD00BF807F002013DF704743
:1022000018DF704710B58AB004461022002101A8DB
:10221000FFF798F9022301931A4B186800902CB12C
:1022200001A8FFF7EDFF08B100F07CFD4FF4E220BC
:10223000FFF7E4FF08B100F075FD134B1349482286
:10224000684602F0BDFE08B100F06CFD012105AA50
:10225000084602F015FF08B100F064FD9DF820303B
:1022600005A843F001038DF8203002F021FF08B1EA
:1022700000F058FD064802F0E7FE08B100F052FDFC
:102280000AB010BDC4540700E1500700E02F002041
:102290009522070001F086BC08B5054A14210820E4
:1022A00000F060FD18B1BDE8084000F03BBD08BD7E
:1022B000902E002010B55D4B1B68B3F5E22F90B057
:1022C00002D0002000F02EFD4FF080531B69B3F5C3
:1022D000805F02D0002000F025FD3C22002101A8F3
:1022E000FFF730F901A803F050F89DF8163003F01D
:1022F000FD03012B2DD19DF808104FF0A04201F5F0
:10230000E070032442F820409DF815008B4010F047
:10231000020F14BFC2F80835C2F80C359DF815300D
:10232000DB0716D59DF80A104FF0A04301F5E072C7
:10233000032043F82200012202FA01F1C3F80C1530
:102340009DF8091001F5E0748A4043F82400C3F8B1
:102350000C254FF01023D3F88430013309D0344BCF
:10236000344A0521002001F01BF9D0B100F0DAFC5D
:1023700017E0314B0122C3F80425D3F80024002ACA
:10238000FBD02E4A64211160D3F800142A4A002998
:10239000FAD00023C2F80435D2F80034002BFBD069
:1023A000DDE7FFF793F94FF080420124D2F81C35A6
:1023B000C2F81C45422B0BD001D823B908E06A2B88
:1023C00006D0B12B05D04FF080420133C2F81C3546
:1023D0000024FFF79EF984F0010478B1FFF7ACF90F
:1023E00008B100F09FFC2046FFF70CFFFFF754FFF9
:1023F000FFF7D2F938B100F095FC04E02046FFF772
:1024000001FFFFF749FFFFF779F908B100F08AFCF7
:10241000BFF34F8F0A490B4BCA6802F4E0621343C3
:10242000CB60BFF34F8F00BFFDE700BF141000105B
:10243000613707002830002000E0014084100010C0
:1024400000ED00E00400FA0500B591B04022002143
:102450006846FFF777F84FF01023D3F884305A1C02
:1024600047D0B3F57A7F34D040F2E932934232D08C
:1024700040F2EA32934230D040F2EB3293422ED017
:10248000B3F57B7F2DD040F2EF3293422BD040F258
:10249000DC52934229D040F2DD52934227D040F2E1
:1024A000DE52934225D040F2DF52934223D0B3F55F
:1024B000BC6F22D0642B22D0C82B22D0282B22D054
:1024C000292B22D05321234A012000F01DFC224950
:1024D0001CE022491AE0224918E0224916E022496C
:1024E00014E0224912E0224910E022490EE022497C
:1024F0000CE022490AE0224908E0224906E022498C
:1025000004E0224902E0224900E0224906A802F044
:10251000BFFB08A8204902F0BBFB9DF83C3001221C
:1025200062F3030362F307138DF83C309DF83D30EE
:1025300003F0F0036FF3071368468DF83D3002F0A7
:10254000D9FA18B1154A242100F0DEFB11B05DF86C
:1025500004FB00BF7E55070076550700C8540700EE
:10256000D4540700E0540700EC540700F854070067
:1025700004550700105507001C5507002855070093
:1025800034550700405507004C55070058550700C3
:10259000645507006D550700C3550700C95507006E
:1025A0000068704770DF704771DF704773DF7047F6
:1025B00074DF704776DF70477ADF70477CDF7047E3
:1025C0007FDF704786DF7047A8DF7047A9DF70475D
:1025D000AADF704767DF70470C2813D8DFE800F0E8
:1025E00014121212121209120712120D0B000220FD
:1025F0007047032070470420704704290CBF052052
:1026000006207047062070470120704700F08ABB03
:1026100010B5044608460321FFF7DEFF03210246FA
:10262000204602F00BF918B1BDE8104000F07ABB6B
:1026300010BD000010B5124B90B09B798DF806309C
:10264000044641F230530021382202A8ADF804308C
:10265000FEF778FF02238DF8083001230021ADF842
:10266000103002A801AB8DF80A108DF80B400593CD
:1026700001F0DCFD08B100F055FB10B010BD00BF4B
:1026800004320020032810B50B46144619D0042844
:1026900025D149B1124B18884FF6FF7398421ED0CE
:1026A0001321FFF787FF15E0104601F053F908B139
:1026B00000F038FB0B4B1B689C4210D10122032118
:1026C00005E001211846FFF787FF01210246064871
:1026D00002F0B4F818B1BDE8104000F023BB10BD03
:1026E000602C0020F43100200432002070B50E4B25
:1026F0001D781E46B5B90D4C182229462046FEF716
:1027000021FF0620FFF796FF2823204625706560ED
:10271000257223826582FFF749FF08B100F002FBB2
:102720000123337070BD00BFF131002080320020E2
:10273000F0B50446B1B001F061FE2146684802F0F0
:10274000B1F82388142B00F0AA801ED8102B2BD0B0
:1027500008D8022B40F0C280624B00211888FFF796
:1027600039FFB6E0112B26D0132B40F0B7805E4B1B
:1027700003AC9A79186899888DF822200790DA1DA1
:10278000ADF82010173326462EE0512B72D005D815
:102790001A2B00F093801B2B50D09FE0522B00F09F
:1027A0008D80552B41D099E04E4BA2881A804F4B1B
:1027B00000221A7092E030AA802322F89C3D494CF6
:1027C0004B4B208832211960012310A9FFF700FF2D
:1027D00008B100F0A7FA474B1B780BB9FFF786FF4B
:1027E0004FF6FF73238079E010685168254603C5D2
:1027F00008329A422C46F7D13F4B09AA03F1180739
:10280000154618685968144603C40833BB4222466B
:10281000F7D1186820603348384A0088159610AB05
:1028200085211495FFF7CCFE53E0A379002B55D1F9
:102830002C4B13211888FFF7BDFE4AE0237A002BAA
:102840004CD12A4A13702A4B19680139196071B9A1
:1028500010AC14222046FEF775FE05238DF840309B
:10286000149B009394E80F00FEF7B0FE36E0FFF7EC
:102870003DFF33E0A3798BB3A27B043A022A2DD823
:10288000022B18BF01238DF840304FF4C173ADF80F
:102890004430144B10A91888FFF796FE19E0124A2D
:1028A000258A518D02F1180000238D420CBF01468C
:1028B00019460732A088FFF785FE0AE0094B188801
:1028C0004FF6FF73984206D000231A461946FFF7C9
:1028D0007DFE18B100E0082000F024FA31B0F0BD10
:1028E00004320020602C00203A320020F131002018
:1028F000642C002098320020523200203432002014
:1029000000F010BA10B54A4A4A48002313704A4AE8
:1029100088B0137002F08EFB002840F08780474893
:10292000FFF710F900F0DAFF00287FD14448FFF7E5
:1029300045FC01A8FFF738FE08B100F0F3F901A942
:102940000020FFF72FFE08B100F0ECF99DF80030F1
:102950003C48012262F3030308AC62F3071304F856
:10296000203D02F08FFD374982B22046FFF726FE58
:1029700008B100F0D7F90822002101A8FEF7E2FD16
:102980000923ADF804300C23ADF806300023ADF870
:10299000083001A84FF4C873ADF80A30FFF70CFEF9
:1029A00008B100F0BFF9FFF74FFD00210C2201A88C
:1029B000FEF7C8FD0823ADF80430234B029301A9AC
:1029C000224B2348039301F079FD08B100F0AAF9E6
:1029D0001C22002101A8FEF7B5FD40F6CD420023E0
:1029E00002924FF4804201930392ADF81230032219
:1029F0008DF81430069301A8164B8DF8102007931C
:102A000001F0C0FC08B100F08DF9134A13780321DE
:102A100003F0F00361F306136FF3C713137007237A
:102A2000537010239370FFF761FE002008B010BDB3
:102A30009832002031270700003200208526070049
:102A40003A32002013560700B12A07000D2607006E
:102A500004320020012907003432002010B5114B48
:102A600001221A70104B18884FF6FF73984206D057
:102A70001321FFF79FFD68B100F054F90AE00B4BFA
:102A80001A781C4632B1FFF793FD08B100F04AF9FD
:102A90000023237001F0ACFC08B100F043F90020E2
:102AA00010BD00BF98320020602C0020F1310020C2
:102AB000F0B50B7889B005460C46092B00F2118160
:102AC000DFE813F026002D0040000A0012001F006E
:102AD000FA00020144000801FFF738F90421FFF76A
:102AE0007BFD0421024629E0FFF7B8FF08B100F0A2
:102AF00019F9FFF74FF9002800F0F380FFF762F9AA
:102B0000EFE0FFF7ABFF0028F8D000F00BF9F5E796
:102B1000754B01221A704B681A78744B14E0724B93
:102B200002261E704B681B78012B40F0DA80FFF7FD
:102B3000BBF83146FFF750FD02463146284601F00A
:102B40007DFECBE0684B03221A70CAE0664B1E780C
:102B5000022E2BD0032E51D0012E40F0C28004AFA4
:102B6000102200213846FEF7EDFC604B02971B78DF
:102B70008DF8103000230393237A03220C2B01924B
:102B8000DBD163681846FFF70BFD0590181DFFF7B2
:102B900007FD069003F10800FFF702FD079001A86A
:102BA000FEF7D6FF002800F09C80C2E70B7A13F0F6
:102BB000030111D00022C1F1040696469818C0B254
:102BC00067680132964207F800E0F7D10133C1F19E
:102BD000030151FA83F3237201230493636806937C
:102BE000237A04A89B080593FFF77EF8002878D085
:102BF0000221FFF7F1FC022102469FE7087A8307D2
:102C000002D03246314699E7394E0190314600F004
:102C100079FE014600284BD16168019A306802F0C4
:102C200026FC019800F0D0FE0146002840D101A901
:102C3000304600F0D7FE0146002839D10423049322
:102C4000019B9B08059304A833680693FEF7F2FFE7
:102C5000074640B9274A217A13680B441360264B74
:102C600032681A603DE0092819D1224A217A136896
:102C70001944224B11601B78002B32D0204A138854
:102C8000013B9BB2138014465BBB284601F09CFDC0
:102C900008B100F047F81B4B1B88238021E0306807
:102CA00000F058FE014610B12846FFF7B1FC394646
:102CB0002846FFF7ADFC14E0104B01221A70114AB0
:102CC0008B8813800E4A03E00C4A002313700D4AD0
:102CD000138006E0074B196801F03AFD08B100F0D7
:102CE00021F809B0F0BD00BF00320020F031002013
:102CF000FC3100207C320020F431002078320020AA
:102D0000F8310020763200201FB5ADF80410029291
:102D1000039001AA002144F2010000F011F805B06F
:102D20005DF804FB1FB50021039001AA44F20100E5
:102D3000ADF80410029100F003F805B05DF804FB53
:102D4000BFF34F8F0549064BCA6802F4E062134394
:102D5000CB60BFF34F8F00BFFDE700BF00ED00E089
:102D60000400FA0510B512F0030411D1094B1A60E2
:102D70004B1CDB009BB21A44074B1A60074B1C70BC
:102D8000074B1C70074B1880074B1980204610BD5D
:102D9000072010BD9C320020A0320020A732002066
:102DA000A6320020A4320020A83200202DE9F347EB
:102DB0002B4D2B888B4206460C4617464AD302A859
:102DC0004FF0000800F8018D00F0D8FC254B264A92
:102DD00018781178CBB2254909888B4238BF013366
:102DE000C0B238BF5FFA83F840450AD092F800803D
:102DF0001378DBB2994286BF0133DBB20023137034
:102E000001E04FF6FF789DF8070000F0DDFC4FF67B
:102E1000FF73984520D0DFF85CA0DAF800304FEA65
:102E2000C80903EB090243F8387086B17CB1104B36
:102E300028881B68224608FB0030314602F017FB49
:102E4000DAF8003099440020A9F8044005E0002099
:102E5000908002E0092000E0042002B0BDE8F08785
:102E6000A4320020A6320020A7320020A832002081
:102E7000A03200209C320020F8B5124C124E25469C
:102E8000227833789A421CD0104922782378098816
:102E90000F48DBB2994286BF0133DBB200232B70AF
:102EA0000C4B07881B680C48D2B211B203EBC10E61
:102EB000006853F83130BEF8041002FB0700984751
:102EC000DEE7F8BDA6320020A7320020A83200209D
:102ED000A43200209C320020A0320020494B4FF445
:102EE0000032C3F8802003F1C04303F53C534FF494
:102EF0008032C3F848230121C3F808232F225960E8
:102F00001046013800BF00BF00BF00BF00BF00BFB8
:102F100000BF00BF00BF00BF00BF00BF00BF00BFB9
:102F200000BF00BF00BF00BF00BF00BF00BF00BFA9
:102F300000BF00BF00BF00BF00BF00BF00BF00BF99
:102F400000BF00BF00BF00BF00BF00BF00BF00BF89
:102F500000BF00BF00BF00BF00BF00BF00BF00BF79
:102F600000BF00BF00BF00BF00BF00BF00BF00BF69
:102F700000BF00BF00BF00BFC3D19960224900233A
:102F80000B601046013800BF00BF00BF00BF00BF8C
:102F900000BF00BF00BF00BF00BF00BF00BF00BF39
:102FA00000BF00BF00BF00BF00BF00BF00BF00BF29
:102FB00000BF00BF00BF00BF00BF00BF00BF00BF19
:102FC00000BF00BF00BF00BF00BF00BF00BF00BF09
:102FD00000BF00BF00BF00BF00BF00BF00BF00BFF9
:102FE00000BF00BF00BF00BF00BF00BF00BF00BFE9
:102FF00000BF00BF00BF00BF00BFC3D1034A1370B2
:10300000704700BF00E100E0AC320020CC3200206D
:10301000437882780133DBB29A4208BF00230278FA
:103020009A421FBF0B70437803EB4302436814BFFF
:1030300003EBC20000207047EFF30583C3F30803DE
:10304000BBB1103B5AB2002AABBF02F1604303F0A0
:103050000F0303F56143094AACBF93F80033D35C17
:103060005B09DBB2022B06D0062B0CBF012002202D
:103070007047022070470020704700BF14ED00E049
:103080002DE9F0412649274B0022C1F84021C1F823
:103090004421C1F84821C1F84C21C1F80021C1F8F0
:1030A00004211B68002B38D01F48D1F80415046890
:1030B000DFF888800C1B24F07F44154617461A68F9
:1030C000A24215D8A41A15441A7CDE696AB1D8F850
:1030D00000201F7432B199695869904728B1FFF7F1
:1030E00021FE02E05A69986990470EB13346E6E73F
:1030F0000E4B0F4A197813788B4205D10133DBB29E
:10310000022B08BF0023137012780A4B43F8225099
:10311000094B4FF48012C3F80021BDE8F08100BFD5
:1031200000100140B0320020AC320020C03200203C
:10313000C1320020C432002000E100E0B43200209F
:103140002DE9F04F8F49904A90480B68007887B07E
:1031500003931378984210D00133DBB2022B08BFDF
:103160000023137012788A4B53F82250039B2B4490
:1031700023F07F430B60012701E000252F46854B9C
:103180001B680293844B02981C78844B1B68019344
:103190000B680593824B002193F80080049126462A
:1031A0008946013EF6B2FF2E33D033B2019A02EBCC
:1031B000C30E12F8332003469EF801C0944518460A
:1031C000EFD002EB420CDEF804009EF802B000EBF8
:1031D000CC0A013210F83C00D2B2934508BF00225D
:1031E000022802D00328E7D10BE0DAF804A0184641
:1031F0009C460028E0D0824500F0A2818446C06948
:10320000F7E7002BD8D04FF000011974DB690121DA
:10321000F7E7B9F1000F02D0614B83F80080049BFF
:1032200013B1584B059A1A605A4A01B110601368DD
:103230003FB90299B3EB010E18BF4FF0010E3846AB
:1032400023E0002108468E468C46D3B11E68AE426C
:1032500004D901B11360751B1D6014E0AD1BB644A9
:10326000DE68C3F800C0D3F81C803EB10399D86172
:10327000714421F07F4159609E60184643463946AB
:10328000E3E701B113604FF0010E3E4BD2F800901E
:10329000D3F800A0424B4FF0000C1B780293494634
:1032A000E046013CE4B2FF2C7ED0019B0A4603EBD2
:1032B000C40610B10346C06924E0337875789D4296
:1032C0001146EED003EB430796F802B07568013360
:1032D000DBB29B45337008BF307015F83730012BD7
:1032E00005EBC70148D14B681D7C002D44D18F6888
:1032F0005F60CF689F600F69DF60496999610299DB
:1033000001B15D605968274FCAEB010525F07F4583
:10331000BD429F6802D83D441D6009E0C1EB0A012F
:1033200021F07F41B9423ABF791A1960C3F8008091
:103330004FF00101C3F80480C3F808801974C3F882
:103340001C80DAB11D6811688D4203D84D1B1560D1
:10335000DA6113E0934611460F68AF4205D2ED1BC8
:10336000CF698B462FB13946F6E77F1B0F600F46BA
:1033700059461D60DF61CB61134601E04FF0010C3F
:103380001A4696E7AC320020C0320020C13200203D
:10339000C4320020B0320020B8320020BC320020FD
:1033A000C2320020FEFF7F00774BBCF1000F00D03F
:1033B00019601B68994503D1BEF1000F00F0BA8077
:1033C000002B00F0B5801F687049714BD1F804459F
:1033D0001B68704DE21A287822F07F4203320028E1
:1033E0004BD14FF48030C1F84403C1F804036A485C
:1033F0004FF40036C0F88061066001260E602F2071
:10340000013800BF00BF00BF00BF00BF00BF00BF4A
:1034100000BF00BF00BF00BF00BF00BF00BF00BFB4
:1034200000BF00BF00BF00BF00BF00BF00BF00BFA4
:1034300000BF00BF00BF00BF00BF00BF00BF00BF94
:1034400000BF00BF00BF00BF00BF00BF00BF00BF84
:1034500000BF00BF00BF00BF00BF00BF00BF00BF74
:1034600000BF00BF00BF00BF00BF00BF00BF00BF64
:1034700000BF00BF00BFC3D12E7097422CBFDA1926
:103480009A1822F07F43C1F84035D1F804253F480F
:10349000121B22F07F421B1B033223F07F439A4210
:1034A00048D9D0F80435C0F840352F20013800BF86
:1034B00000BF00BF00BF00BF00BF00BF00BF00BF14
:1034C00000BF00BF00BF00BF00BF00BF00BF00BF04
:1034D00000BF00BF00BF00BF00BF00BF00BF00BFF4
:1034E00000BF00BF00BF00BF00BF00BF00BF00BFE4
:1034F00000BF00BF00BF00BF00BF00BF00BF00BFD4
:1035000000BF00BF00BF00BF00BF00BF00BF00BFC3
:1035100000BF00BF00BF00BF00BF00BF00BF00BFB3
:1035200000BFC3D11C4B4FF40032C3F8002101E0AF
:10353000FFF7D4FC194B00221A7007B0BDE8F08FDA
:10354000604511D1D3F81CA0BAF1000F02D0534648
:10355000012109E00D4901238B601946049153466E
:10356000CDF814A089468846D0F81CB0D0F800A049
:10357000CCF81CB0BBF1000F3FF41EAEDBF800002E
:103580005044CBF8000017E6B03200200010014094
:10359000AC320020CC32002000E100E0C23200203A
:1035A0002DE9F84312F0030507468846144699466C
:1035B0003BD11F4E0AB9326037E0FFF78FFC1D4A3E
:1035C0001D4BC2F8009003221A70346004F11802F7
:1035D00008EB4806F600114662602570657084F8B5
:1035E000028008348C424FF000033244F4D1134A75
:1035F0001360134A1370134A1370134A4FF4801167
:10360000C020C2F8801182F81403116001F18041DA
:10361000A1F56F21C1F8087582F811030B4AD1F8A2
:10362000041511601846BDE8F8830720BDE8F8834B
:10363000BC320020B4320020B8320020B03200206A
:10364000C0320020C132002000E100E0AC32002096
:10365000074B1B684BB132B128B10368187C20B905
:1036600059745A617047072070470820704700BF9F
:10367000BC3200202DE9F3411B4B1C6805460E4669
:1036800017466CB360B3042928D9436943B3437C1C
:10369000012B0CBF88464FF00008FFF7CDFC04EB70
:1036A000C0040DF107012046FFF7B2FCA0B10123D1
:1036B00003700E4B4560D3F8043583609DF80730E6
:1036C000C660C0F8108047616370094B4FF48012E8
:1036D000C3F80021002004E0042002E0072000E0FD
:1036E000082002B0BDE8F081BC320020001001408B
:1036F00000E100E073B5124B1D680646EDB1E0B184
:103700004369D3B100240474FFF796FC05EBC005B0
:103710000DF107012846FFF77BFC60B1022303701F
:103720009DF8073046606B70064B4FF48012C3F86B
:103730000021204602E0042000E0082002B070BD15
:10374000BC32002000E100E0082910B5044602D098
:103750000020FFF7E7FA23686068BDE810401847CB
:1037600007B5054A8DE8030008216846FFF71EFBF0
:1037700003B05DF804FB00BF4937070070B5EFF3F5
:10378000108572B60D4A9468012394B993600C4B6E
:103790000C49D3F88060314011600A49C3F88010A9
:1037A000D3F8841051604FF0FF32C3F884200470C6
:1037B00000E0037005B962B670BD00BFD8350020C7
:1037C00000E100E0FC06FFBC10B5084B9A685AB156
:1037D00050B9EFF3108272B605491C680C605C6842
:1037E0004C60986002B962B610BD00BFD8350020A9
:1037F00000E100E0014B0360704700BF00F00700EC
:103800000AB1138801E04FF6FF730144884210D0DB
:1038100010F8012B5BBA9BB25340C3F30312534021
:1038200083EA03331AB2530103F4FF5353409BB2AC
:10383000ECE71846704700000B2970B5044633D9F1
:10384000038900EB43030A33C21A0A44D2B2012AA5
:103850002AD901448B4227D81946164801F007FEA1
:10386000154B1A884FF6FF718A4202D02188914287
:103870001CD15B884FF6FF72934202D062889A4255
:1038800014D134F8081F00234FF6FE7043F20C05E4
:103890008B420BD234F8022F824209D02E88B242DA
:1038A00003F10103F4D103E0092070BD0B2070BDCA
:1038B000002070BDCD3200208010001008B500221D
:1038C000FFF79EFF044A5178137843EA0123984298
:1038D00014BF0B20002008BDCD320020064B074A44
:1038E00000201870064B1A6008225A609860D86051
:1038F000186158619861704714340020D832002054
:10390000F833002030B5E1B1114B5C6800220A6049
:10391000CCB1202819D8D8681D680130013CD86086
:1039200018695C60242404FB00540C609C6901212C
:1039300081400130214300F0070018619961104671
:1039400030BD0E2030BD042030BD0C2030BD00BF86
:10395000F8330020F0B51B4B996889B35D691E6888
:103960006C1A04F007042246242707FB026E7045F8
:1039700010D19D69012090406840986100205E68E8
:10398000D3F818E04FF0010C624400250E4402F019
:1039900007020AE0013202F007029542E5D1102049
:1039A000EDE749B10139144601250CFA04F414EA93
:1039B0000E0FA6EB0107F4D01DB199605F60F0BD5A
:1039C0000420F0BDF833002005490B69013B03F0EA
:1039D00007020B68242101FB0233186200207047A4
:1039E000F833002030B5B0B1A9B10D4BDA68A2B1FF
:1039F000013ADA609A681D6801329A605A69242493
:103A000004FB02540132046002F00702206A5A618A
:103A10000860002030BD0E2030BD042030BD00BF46
:103A2000F833002082B00190019B002B41D0019B14
:103A3000013B019340F2E730013800BF00BF00BFF7
:103A400000BF00BF00BF00BF00BF00BF00BF00BF7E
:103A500000BF00BF00BF00BF00BF00BF00BF00BF6E
:103A600000BF00BF00BF00BF00BF00BF00BF00BF5E
:103A700000BF00BF00BF00BF00BF00BF00BF00BF4E
:103A800000BF00BF00BF00BF00BF00BF00BF00BF3E
:103A900000BF00BF00BF00BF00BF00BF00BF00BF2E
:103AA00000BF00BF00BF00BF00BF00BF00BFC3D149
:103AB000BAE702B0704729DF704728DF704700007F
:103AC00037B50B460C465A6814F80C1BDD6800929B
:103AD000044A5B6952F8255002462046A84703B0C5
:103AE00030BD00BF0C35002038B5174C23781822A4
:103AF00002FB03431A795869012A0DD0032A21D108
:103B00004FF080531B699BB2B0FBF3F00F4B1B6867
:103B10001844FFF7D2FF11E00C4A996915689A68BA
:103B2000DB682D03521BB2F5805F184429442844FA
:103B300034BF92084FF48062FFF7BDFF18B901232C
:103B4000A37038BD0F2038BD183400201C3500206C
:103B500070B5134D6E780A2E1FD02C783444E4B221
:103B6000092C84BF0A3CE4B2182606FB0454A26167
:103B7000207103C9A360049BE360AB7804F11002D9
:103B800082E803000BB1002003E0FFF7ADFF11282E
:103B9000F9D06B7801336B7070BD042070BD00BF2D
:103BA0001834002038B5274B9A781D46002A47D094
:103BB000002402289C7002D0032831D038BD1B7825
:103BC0002149182000FB03500A6880680132B0EBDD
:103BD000023F0A6019D86A780C60013A6A705A1C70
:103BE000D2B2182404FB0354092A88BFA3F10902A6
:103BF000211D00202A70FFF763FF00230322237199
:103C0000A36022616361A361E3606B780D4CBBB17B
:103C1000A378ABB9FFF768FF90B1112807D138BD81
:103C20001A78182101FB023104310D2004E02378B9
:103C3000182101FB03410431BDE83840FFF740BFC4
:103C400038BD00BF183400201C3500200E4B002268
:103C500010B51A600D4B03241A705A709A7003F154
:103C6000F0011A719A601C615A619A61DA60183326
:103C70008B424FF00000F4D1054B1860054B1860E3
:103C80005860986010BD00BF1C350020183400201B
:103C9000183500200C350020074A1368032B1FBF7E
:103CA0000B60591C1160054A1DBF016842F82310C2
:103CB00000200420704700BF183500200C3500207C
:103CC00013B5CC180C43A40707D1009313460A463A
:103CD00001460120FFF73CFF00E0102002B010BDBC
:103CE00007B500220B46009201460320FFF730FF84
:103CF00003B05DF804FB71DF704772DF704779DF56
:103D000070477DDF704765DF70472DE9F74F0C9DE9
:103D1000BDF834B02F88002480468A469146264656
:103D2000B8F80020964233DAD8F8042052F826007A
:103D3000019000220DF1030101A8FFF7E4FF002824
:103D400033D19DF803204A4520D12A88002C14BF86
:103D50000021022102EB09000144594524DC3CB951
:103D6000013292B22A8003F802A02A8801322A8006
:103D70002A880DF103011A4401A8FFF7C4FFA0B976
:103D80002A889DF803100A442A8001240136C7E7D7
:103D900044B12A88013AD21B92B2FF2A04D8DA55DC
:103DA000002002E0204600E00C2003B0BDE8F08FC8
:103DB0002DE9F341089CBDF8245017468DE83000EA
:103DC00002220646FFF7A1FF48B9102239463046C5
:103DD0000995089402B0BDE8F041FFF796BF02B024
:103DE000BDE8F0812DE9F04F002316881380436B66
:103DF00085B007460D4614469BB1022E40F2128252
:103E00001A7802230B70238801339BB2112123807F
:103E1000E954238801339BB22380EA542388013379
:103E200023803A6B22B997F82E20002A41D01CE05B
:103E3000238803F11201B14200F2F4811121E95407
:103E4000238801339BB210212380E9542388013356
:103E500023805318218813F8010D68542188934258
:103E600001F101012180F5D1DDE72388D91CB142A0
:103E700000F2D8810221E954238801339BB21C202F
:103E80002380E854238801339BB2013A2380032A1C
:103E900000F2C681DFE802F002040608002204E016
:103EA000012202E0E95401E00322EA5423880133AD
:103EB000238097F82D301BB9BB78002B4CD02AE01B
:103EC00023880933B34200F2AD8102A8FFF713FF44
:103ED000002840F0A88123880822EA54238801336F
:103EE0009BB21B222380EA542088013080B22080BC
:103EF00006220DF10901284401F0B9FA23889DF842
:103F0000082006339BB2238002B10122EA542388A1
:103F100001332380D0E723880433B34200F2828147
:103F200002A8FFF7ECFE002840F07D8123880322E1
:103F3000EA54238801339BB219222380EA54238850
:103F4000BDF8082001339BB2E9182380EA54120A15
:103F50004A70238802332380FA78A2B12388D91CBF
:103F6000B14200F25F810221E954238801339BB200
:103F700001212380E95423880B449BB22380EA5417
:103F800023880B4423807A68B2B12388D91CB142BC
:103F900000F24881022192F90020E954238801337C
:103FA0009BB20A212380E954238801339BB22380EA
:103FB000EA542388013323803B8913B93B8AC3B178
:103FC0000BE08DE850002B460622022107F1080085
:103FD000FFF7EEFE0028F1D025E18DE850002B46DA
:103FE0000722032107F11000FFF7E2FE002840F04E
:103FF0001A813B8B5BB18DE850002B4615221421B2
:1040000007F11800FFF7D4FE002840F00C813A6A4F
:10401000002A46D0B4F800E00EF10603B34200F2E5
:1040200001811188052940F2FB806FF4486C01EB97
:104030000C039BB24FF27D3C634540F2F180538804
:10404000052B40F2ED806FF44860181880B260458F
:1040500040F2E6804FF6FF70814204D0834202D0E6
:10406000994200F2DD80052305F80E3023880133E4
:104070009BB212212380E954238801339BB2238011
:104080001188E954E818090A4170238802339BB269
:1040900023805288EA54E918120A4A7023880233AE
:1040A0002380D7F82480B8F1000F31D0B8F804305D
:1040B00021881A1D0A44B24200F2B4809A1CFE2ADA
:1040C00000F2B08003336B54238801339BB2FF228C
:1040D0002380EA54238801339BB22380B8F8002060
:1040E000EA54E918120A4A702088023080B220800F
:1040F000B8F8042062B1D8F80810002900F09080C8
:10410000284401F0B4F92288B8F80430134423801D
:1041100097F82C3023B93878002800F0848040E0EC
:10412000BB6A002B7CD04FF000094FF00C0A4FF017
:10413000160B97F82C305FFA89F29342EBD9B96AE3
:104140000AFB02F201EB0208B8F80430981CFE28C2
:1041500068D8208803332B54238801339BB22380F3
:1041600005F803B0238801339BB223808A5AEA54AE
:10417000E918120A4A702088023080B22080B8F80C
:1041800004205AB1D8F80810002949D0284401F079
:104190006EF92288B8F804301344238009F101092C
:1041A000C7E73B88012B3BD0228802F1020EB645BF
:1041B00038D8012804D17B78023313449E4231D38E
:1041C000023EB61A04A9B6B221F8086D05EB0E003E
:1041D000FFF797FD38BB3B78022B04D1BDF80830C0
:1041E000B3420CD907E0012B05D17B789E4202D364
:1041F000ADF8083001E0ADF80860082100E00921C1
:10420000BDF80820FE2A0DD823880132EA542388FD
:1042100001339BB22380E95423881A44228002E0B0
:10422000072000E00C2005B0BDE8F08F30B593B05A
:104230001F230D46ADF80430ADF8063020B1C37829
:104240005B0714D4072022E0ADF8040004461DB13A
:10425000EB78002BF6D111E0ADF806502A469DF818
:1042600006309DF804102046FFF747FD0FE001AA35
:1042700002A9FFF7B7FD50B902ACE8E70DF106025D
:104280000AA92846FFF7AEFD08B90AAAE7E713B066
:1042900030BD75DF704776DF70477ADF70477BDFB0
:1042A0007047000037B5154B18884FF6FF739842DA
:1042B00022D0134A134D1378297B0133DBB2994284
:1042C00013702C4606D31049FFF7E3FFA0B1AB698A
:1042D0008BB911E0002313702B7C33B13B21FFF726
:1042E000DAFF10B1AB6903B19847636923B102A843
:1042F000002200F8042D984703B030BD6835002037
:104300002A3500202C3500206A35002037B5174BA0
:10431000174A5B881188174C174D99420DD852885F
:104320009A420AD3636923B102A8012200F8042D3E
:10433000984700232B7003B030BD2A782AB16369F7
:10434000002BF6D002A80022F0E70C486168007844
:10435000A368002818BF19460948FFF78BF9002801
:10436000E7D0A369002BE3D1E3E700BF22350020AB
:104370006A3500202C350020203500202A35002009
:104380004835002070B5054606460FCD114C0FC4C8
:1043900095E80700104B84E8070000221A70326885
:1043A0000E489AB11368036053684360FFF775FFC6
:1043B00078B90B4B0B484FF6FF721A800A4B0B4A29
:1043C00000211970BDE87040FFF742B9FFF767FFA1
:1043D000EEE770BD2C350020203500206A35002026
:1043E000683500201C5607002A350020A54207002A
:1043F0000148FFF77FB900BF4835002010B503889A
:10440000112B18D002D8102B05D010BD122B34D090
:10441000502B1ED010BD1E4B82881A8000F118034D
:1044200003CB1C4A1C4B1060516000221A701B4BBE
:10443000DB8963BB27E0164B19484FF6FF721A80E1
:10444000154B00221A70FFF755F900B3134B9B6907
:104450000FE0124CC288E3899A4218D1038A022BDA
:1044600015D1837CDB070ED40D48FFF743F970B1FB
:10447000A36963B1BDE81040184700F1080303CBFE
:10448000044A10605160BDE81040FFF73FBF10BD07
:1044900068350020223500202A3500202C350020E8
:1044A00048350020A0DF7047A2DF7047A5DF7047C6
:1044B000A6DF7047A8DF704763DF70472DE9F0473C
:1044C0000F4694B00546002800F03681002900F020
:1044D00033814B68002B00F02F814FF6FF73038070
:1044E000994B04AA03F1100E164618685968144631
:1044F00003C4083373452246F7D114AB41F230525E
:104500000DF10A01304623F8482DFFF7D5FF0028AA
:1045100040F014812A1D19460120FFF7C3FF04460D
:10452000002840F00C819DF80A30AB7101461C2236
:104530000DA8FDF707F89DF834300E9443F00403FE
:104540008DF8343001AEAB798DF80E30214641F252
:104550003253032230461094119412941394ADF800
:104560000C30FCF7EFFF9DF8043064F3030364F3B1
:1045700007138DF804309DF805304FF0010A6AF3F7
:1045800003036AF307138DF805309DF806306AF3CC
:10459000420364F3C30364F30413DBB243EA0A0384
:1045A0002146142208A88DF806300DF10C08FCF7FE
:1045B000C9FF4FF0140905F1080308AA0DA9A8883E
:1045C000ADF82840ADF82A400C94CDF8208009962B
:1045D000ADF82C90FFF768FF0446002840F0AF804C
:1045E00001461C220DA8FCF7ADFF9DF834300E9457
:1045F00043F018038DF83430AB798DF80E30214636
:1046000041F23153032230461094119412941394C2
:10461000ADF80C30FCF796FF9DF8043064F303030B
:1046200064F307138DF804309DF805306AF3030333
:104630006AF307138DF805309DF806306AF34203DC
:1046400064F3C303DBB243F0110321464A4608A8D2
:104650008DF80630FCF776FF1723ADF82C3008AA4A
:1046600005F110030DA9A888ADF82840ADF82A403F
:104670000C94CDF820800996FFF716FF0446002819
:104680005DD101461C220DA8FCF75CFF9DF834307B
:104690000E9443F002038DF83430AB798DF80E3070
:1046A000214641F23453032230461094119412945F
:1046B0001394ADF80C30FCF745FF9DF804306AF315
:1046C00003036AF307138DF804309DF8053064F393
:1046D000030364F307138DF805309DF806306AF381
:1046E000420364F3C30364F30413DBB243EA0A0333
:1046F00021464A4608A88DF80630FCF723FF02231E
:10470000ADF82830ADF82C3008AA05F120030DA92A
:10471000A888ADF82A40CDF8208009960C97FFF7BD
:10472000C3FE044658B97B68AB62BB6803B1EB6259
:10473000064B01221A7002E00E2400E004462046D7
:1047400014B0BDE8F08700BF205607007235002086
:1047500070B5054686B068B302884FF6FF739A427B
:104760002AD0174B1B783BB3164C1022080AE17075
:10477000207121FA02F0090E072301266071A17150
:1047800002A800216370ADF806302270A670FCF715
:10479000D9FE2B8AADF808300023ADF80C3002A901
:1047A0000DF1060328888DF80A6004930594FFF73D
:1047B0007FFE02E00E2000E0082006B070BD00BFC2
:1047C000723500207335002030B5054687B058B3E8
:1047D00002884FF6FF739A4228D0164B1B782BB3F2
:1047E000154C112323700B0A6170A3700B0C090E7A
:1047F000E370217105231022002102A8ADF80630D4
:10480000FCF7A0FE2B8AADF8083001238DF80A30A2
:104810000023ADF80C3002A90DF10603288804939B
:104820000594FFF745FE02E00E2000E0082007B0E7
:1048300030BD00BF723500207335002030B504460E
:1048400087B030B300884FF6FF73984223D0134BE4
:104850001B7803B3124D102369700321ADF80610C5
:10486000AA7000211A4602A82B70FCF76BFE238A5F
:10487000ADF8083001238DF80A300023ADF80C3074
:1048800002A90DF10603208804930595FFF710FE99
:1048900002E00E2000E0082007B030BD7235002095
:1048A0007335002070B50D4688B00446002800F02E
:1048B000C180002900F0BE80826A002A00F0BA8020
:1048C0000B88112B1BD004D8102B40F0B3808B88A1
:1048D00017E0502B02D0512B15D0ABE0C9880389CB
:1048E000994240F0A78008238DF81030123535F832
:1048F000023C8DF81830059504A990479AE04FF6D0
:10490000FF73238096E08B79022B40F093800A8915
:10491000038A9A4240F08E808B7B043B022B40F24C
:1049200089809DF8163043F001038DF816300B8A0C
:10493000ADF818304B8AADF81A30022601F1140395
:104940000822002101A807938DF81060FCF7FAFDFA
:10495000002301AAA18A2088ADF80630ADF80460D2
:10496000CDF808D0FFF7A2FD034618B1E36A2BB1DA
:10497000984703E09DF80020D20708D440F2FD13C9
:1049800004A92088ADF81430FFF794FD4EE0ADF88F
:10499000140004A92088FFF78DFD002846D1297D49
:1049A0004A1E072A3ED8DFE802F0040E1C1E202211
:1049B0003B248DF804306B8A012B02D8062201219A
:1049C00031E0012308E06A8A01239A428DF804301D
:1049D00002D80622022126E015358DF80C3002950A
:1049E00019E0022315E0032313E0042311E005235B
:1049F0000FE06B8A022B02D80322082113E0AA7D64
:104A00006B7D43EA0223ADF808300BB9072300E0C1
:104A100006238DF80430A36A01A92046984709E0CF
:104A20000923F6E703222046FFF708FF10B1E36AE7
:104A300003B1984708B070BDA0DF7047A2DF704790
:104A40002DE9F04381468FB0154698460E4611B9C0
:104A50000846FEF767F915B92846FEF763F91C22E8
:104A60000DEB02000021FCF76DFD9DF81C30ADF848
:104A70000490002443F002030127214603226846E4
:104A80008DF81C3008940A940B940C940D948DF8B6
:104A90000670FCF757FD98F800308DF8003098F854
:104AA00001308DF801309DF8023067F3420303F0C6
:104AB000E70364F300032146142202A88DF80230B4
:104AC000FCF740FD0A48CDF80CD001AB029302AAD6
:104AD000169B0088ADF8105007A9ADF81240ADF84C
:104AE00014500696FFF7AAFF0FB0BDE8F08300BF91
:104AF000C235002010B586B006A941F60A03044667
:104B000021F80C3D0120584A8DF80E00FFF794FF64
:104B1000002840F0A780228812B92289C2B10BE098
:104B2000524B0093616804F13C0342F62920FFF7E1
:104B300087FF0028F1D095E04D4B0093E16804F128
:104B40003C0342F62420FFF77BFF002840F08A80D8
:104B5000228A52B1474B0093616904F13C0342F64B
:104B60002520FFF76DFF00287CD1228B52B1424BEC
:104B70000093E16904F13C0342F62720FFF760FF50
:104B800000286FD1228C52B13C4B0093616A04F132
:104B90003C0342F62620FFF753FF002862D1228D06
:104BA00052B1374B0093E16A04F13C0342F62820EE
:104BB000FFF746FF002855D1236B1BB31A688DF809
:104BC00010201A68120A8DF811205A888DF81220C8
:104BD000DA788DF813205A688DF814209B688DF8C8
:104BE00015301A0A1B0C8DF81730264B8DF816203D
:104BF0000093082204F13C0304A942F62320FFF7A6
:104C00001FFF78BB616B09BBA06B58B303788DF8AD
:104C1000103043888DF811301B0A8DF812308388CC
:104C20008DF813301B0A8DF81430C3888DF81530B9
:104C30001B0A8DF81630144B0093072204F13C0335
:104C400004A942F65020FFF7FBFE0BE00F4B0A7958
:104C50000093096804F13C0342F62A20FFF7F0FEB6
:104C60000028D1D006B010BDC235002092350020FA
:104C700082350020B2350020AA350020BA35002048
:104C80007A3500208A350020A23500209A35002090
:104C900038B5044608460D4600F0F4FB65602080F8
:104CA00038BD00000C4B1B78062B10D10B4B1B683A
:104CB0001A070CD10A4B186800F0F003302B08D00B
:104CC00000F0E000A0F14003584258417047002036
:104CD00070470120704700BFE00F00F0E40F00F0C4
:104CE000E80F00F0094B1B78062B0CD1084B1B6812
:104CF0001A0708D1074B186800F0F000A0F1300344
:104D00005842584170470020704700BFE00F00F044
:104D1000E40F00F0E80F00F008B5FFF7E3FF10B173
:104D2000684B694A1A60FFF7BDFF28B1674B684AB4
:104D30001B68C3F342331360FFF7D4FF20B1654A09
:104D4000D36823F08073D360FFF7ACFF40B14FF01E
:104D500080430022C3F80C21C3F81021C3F8382582
:104D6000FFF7C0FF10B15C4B03221A60FFF7BAFFD8
:104D700040B15A4B05221A6001229A6700229A60BC
:104D80003F225A60564B1B78062B09D1554B1B68A6
:104D90001B0705D1544B1B6803F0F003502B48D080
:104DA000524AD2F8883043F47003C2F88830BFF317
:104DB0004F8FBFF36F8F4FF01023D3F80022002ADC
:104DC00003DBD3F80432002B2FDA494B0122C3F85E
:104DD0000425D3F80024002AFBD04FF0102215211F
:104DE000C2F80012D3F80024002AFBD04FF01023A1
:104DF00015223F49C3F80422D1F800243C4B002A75
:104E0000FAD00022C3F80425D3F80024002AFBD0EE
:104E1000BFF34F8F3549374BCA6802F4E062134342
:104E2000CB60BFF34F8F00BFFDE7334B334A1A60AF
:104E300008BD4FF08052324BD2F80414C3F820154D
:104E4000D2F80814C3F82415D2F80C14C3F82815A6
:104E5000D2F81014C3F82C15D2F81414C3F8301576
:104E6000D2F81814C3F83415D2F81C14C3F840153E
:104E7000D2F82014C3F84415D2F82414C3F8481506
:104E8000D2F82814C3F84C15D2F82C14C3F85015D6
:104E9000D2F83014C3F85415D2F83414C3F860159E
:104EA000D2F83814C3F86415D2F83C14C3F8681566
:104EB000D2F84014C3F86C15D2F84424C3F8702516
:104EC0006EE700BF74C007400DF0ADBA4402001099
:104ED0003C050040F0ED00E0A00500401056004009
:104EE000E00F00F0E40F00F0E80F00F000ED00E04C
:104EF00000E001400400FA05682C00200090D00377
:104F000000C0004052DF704710DF704760DF70471D
:104F100061DF704708B5FDF713FF08BD2DE9F743C2
:104F2000224B1B78002B3ED0214E224F35683C6827
:104F3000DFF88480DFF88490B5FA85F5B4FA84F45C
:104F40006D0964096DBB01A8FFF7DCFF052807D0D8
:104F500010B1FDF7E7FE04E033680198984700E0E0
:104F60000125DCB9B8F80030ADF80430D9F80030CC
:104F700001A91846FFF7CCFF0528044608D018B150
:104F8000FDF7D0FE002404E03A681846904700E0A0
:104F90000124002DD7D0002CD4D004E0002DD2D095
:104FA00001E0002CDED003B0BDE8F083C435002062
:104FB000CC350020D0350020C6350020C835002073
:104FC00010B5C1B18C0716D1134C216013490A806A
:104FD000134A14491360FFF797FFA8B9124B1349FE
:104FE00001221A7091F81633C3F34113934204D887
:104FF00042F202030DE007230BE00D4A93682BB148
:10500000136843F480031360034602E04FF4800208
:105010000A60184610BD00BFC8350020C635002004
:10502000D4350020154F0700C435002000E100E012
:10503000D835002018B1034B1860002070470E20AF
:10504000704700BFD035002018B1034B1860002016
:1050500070470E20704700BFCC35002008B5074BC5
:105060001B682BB1984738B1BDE80840FDF75ABE20
:10507000BDE80840FFF752BF08BD00BFD43500208F
:1050800070B5144605460E46142200212046FCF752
:1050900059FA227B26720021012361F3000223804A
:1050A00021612273657205B1A372002070BD0000FA
:1050B00007B5054B019302A9019B41F8083DFFF795
:1050C00025FF03B05DF804FB002C002008B511B1EA
:1050D0000020FDF727FEBDE80840FFF71FBF0000D6
:1050E0000021024A0846FDF761BE00BFCD5007000F
:1050F000082303710623437107238371022303727C
:105100000123837214234373132383730A23C3730A
:1051100009230374437C03F0F00343F0090303F015
:10512000CF036FF3861343740D4B83610D4B4361C3
:1051300040F2C973C36140F2BC7303624FF45B6316
:1051400043624FF496638362C362074B4363074B2A
:1051500083630322EC230273827480F8303070473B
:10516000CDCC4C3EE02D903B5C8F423F85EBD13E59
:10517000082303710E2343710D2383710423C3712C
:105180000523037206234372C37307230374437C0E
:1051900003F0C00343F06103437403238374114B92
:1051A0008361114B43614FF4FA73C3616FF07C0369
:1051B00003624FF4E16383624FF416730221C3620A
:1051C0000A4B0173012214214363094B827241731C
:1051D000002213218363EC23C2728173426280F840
:1051E000303070473789813E1EA7E83B3333333F69
:1051F0009A99993E0823037106234371072383710B
:10520000022303720323037314234373132383734F
:105210000A23C37309230374437C03F0F00343F0B0
:10522000090303F0CF036FF3861343740D4B8361BF
:105230000D4B436140F2D373C36140F2CD730362FF
:1052400040F2DC5343624FF496638362C362074BC0
:105250004363074B83630122EC238272827480F8DC
:1052600030307047CDCC4C3EBC74933B5C8F423F9A
:1052700085EBD13E08230371062343710723837115
:10528000022303720023C3720323037314234373A3
:10529000132383730A23C37309230374437C03F02A
:1052A000C00343F0690343740E4B83610E4B4361AB
:1052B0006FF06203C361AB3B036242F22833436287
:1052C0004FF4966383624FF41673C362074B4363D4
:1052D0004FF07A5301228363EC238272827480F848
:1052E00030307047A01A2F3E48507C3B3333333F59
:1052F000112303710B2343710C23837102238372E7
:105300000423C37208234373062383731323C373D5
:1053100014230374437C03F0FE0343F01E030022B6
:1053200003F0DF0362F38613437400238361436158
:105330004FF47A73C36103624FF461638362C362A3
:105340004FF0804343634FF07E5301218363D823A2
:10535000017202738174426280F83030704710B578
:10536000FFF7C6FF0423837410BD192343731A2368
:105370008373437C03F0F8036FF3C3034374022386
:105380008374EC2380F83030704738B54FF0102329
:105390000546D3F88440631C2FD0B4F57B7F11D829
:1053A000B4F57A7F23D2642C27D006D8A4F1280341
:1053B000012B27D8FFF79CFF29E0C82C22D1FFF74B
:1053C000CEFF24E040F2DE539C420AD840F2DC5388
:1053D0009C420FD240F2EF339C4213D1FFF7C8FE3C
:1053E00015E0B4F5BC6F0DD8FFF744FF0FE0FFF7F1
:1053F0007FFE0CE0FFF7FEFE09E02846FFF7B5FF51
:10540000642404E02846FFF7F5FE072038BD2C6031
:10541000002038BD0649074A074B9B1A03DD043BB1
:10542000C858D050FBDCFFF777FCFCF717F80000FA
:105430003C560700002C0020782C0020FEE7FEE7F9
:10544000FEE7FEE7FEE7FEE7FEE7FEE7FEE7FEE734
:1054500010B501390244904207D010F8013B11F811
:10546000014FA342F7D0181B10BD002010BD10B58E
:10547000431E0A44914204D011F8014B03F8014F36
:10548000F8E710BD034613F8012B002AFBD1181AC8
:1054900001387047F8B500BFF8BC08BC9E4670479D
:1054A000F8B500BFF8BC08BC9E467047430000003A
:1054B000002C00200060070000100700009007008B
:1054C000DC2C00200010020031303130333030301D
:1054D0003130300031303130333030303230300024
:1054E00031303130333030303330300031303130E2
:1054F00033303030343030003130313033303030D0
:1055000035303000313031303330323030303000EF
:1055100031303130323030303130300031303130B4
:1055200032303030323030003130313032303130A2
:1055300030303000313031303230313031303000C5
:105540003130313032303130333030003130313081
:10555000343031303030300031303130353030306F
:105560003030300050434131303033360050434109
:10557000313030343000556E6B6E6F776E002F73A4
:1055800073642F6465762F626C75656E65742D7714
:105590006F726B73706163652F626C75656E657495
:1055A0002F696E636C7564652F6366672F63735F25
:1055B000486172647761726556657273696F6E7364
:1055C0002E6800312E392E31002F7373642F6465DD
:1055D000762F626C75656E65742D776F726B737064
:1055E0006163652F626F6F746C6F616465722F69A0
:1055F0006E7465726D6564696174652F7372632F73
:105600006465765F696E666F5F7365727669636500
:105610002E630044667554617267000048350020AF
:1056200023D1BCEA5F782315DEEF121200000000E0
:045630000000000076
:0856340028BEFF7F0100000009
:10563C00000000000000000000000000000000005E
:10564C00000000000000000000000000000000004E
:10565C00AC54070000000000000000000000000037
:10566C00000000000000000000000000000000002E
:10567C00000000000000000000000000000000001E
:10568C00000000000000000000000000000000000E
:10569C00FFFF0000320000000090D003251407002B
:0856AC000114070000000000DA
:020000020000FC
:020000041000EA
:0410140000100700C1
:0410180000E00700ED
:040000037000541520
:00000001FF
