:0200000270008C
:106000000000012071680700996807009B6807007D
:106010009D6807009F680700A16807000000000056
:106020000000000000000000000000000DAD0700AF
:10603000A568070000000000A7680700A96807001E
:10604000AB680700AB680700AB680700AB680700E8
:10605000AB680700AB680700AB680700AB680700D8
:10606000AB680700AB680700AB680700AB680700C8
:10607000AB680700AB680700AB680700AB680700B8
:106080000D880700AB680700AB680700AB68070026
:10609000AB680700AB68070011AF0700AB680700EB
:1060A000AB680700AB680700AB680700AB68070088
:1060B000AB680700AB6807000000000000000000AC
:1060C000AB680700AB680700AB680700AB68070068
:1060D00079840700AB680700AB6807000000000088
:1060E00000000000000000000000000000000000B0
:1060F00000000000000000000000000000000000A0
:10610000000000000000000000000000000000008F
:10611000000000000000000000000000000000007F
:10612000000000000000000000000000000000006F
:10613000000000000000000000000000000000005F
:10614000000000000000000000000000000000004F
:10615000000000000000000000000000000000003F
:10616000000000000000000000000000000000002F
:10617000000000000000000000000000000000001F
:10618000000000000000000000000000000000000F
:1061900000000000000000000000000000000000FF
:1061A00000000000000000000000000000000000EF
:1061B00000000000000000000000000000000000DF
:1061C00000000000000000000000000000000000CF
:1061D00000000000000000000000000000000000BF
:1061E00000000000000000000000000000000000AF
:1061F000000000000000000000000000000000009F
:1062000010B5054C237833B9044B13B10448AFF3F0
:1062100000800123237010BD6C5800200000000096
:1062200054CD070008B5034B1BB103490348AFF336
:10623000008008BD000000007058002054CD070009
:10624000154B002B08BF134B9D46A3F5803A002148
:106250008B460F461348144A121A05F04FFF0F4B96
:10626000002B00D098470E4B002B00D09847002001
:10627000002104000D000D48002802D00C48AFF3A7
:10628000008005F0FDFE2000290000F0A7F805F0D1
:10629000E3FE00BF00000800000001200000000035
:1062A000000000006C580020807E002000000000EC
:1062B00000000000BFF34F8F0549064BCA6802F487
:1062C000E0621343CB60BFF34F8F00BFFDE700BF19
:1062D00000ED00E00400FA057047000002494FF4A9
:1062E000F37000F049BE00BF38C107001F2810B589
:1062F000044601D9FFF7F2FF012303FA04F44FF03B
:10630000A043C3F80C4510BD08B5FFF7D3FF08B58F
:10631000FFF7D0FFF8B5C37C03F0FD02012A044665
:1063200001D0052B3FD125791F2D01D9FFF7D6FFCD
:1063300005F5E0754FF0A043032243F82520A37C28
:10634000257913F0020F2AD01F2D01D9FFF7C6FFC0
:1063500001204FF0A04300FA05F5C3F80855A37CCF
:10636000DB0720D5E6791F2E01D9FFF7B7FF06F529
:10637000E0764FF0A045032745F82670E079FFF757
:10638000B5FFA6791F2E01D9FFF7A8FF06F5E07625
:1063900045F82670A079BDE8F840FFF7A7BF28466A
:1063A000FFF7A4FFDBE7F8BD4FF08042D2F81C35C1
:1063B00063B1422B04D003F10103C2F81C3508D9A4
:1063C0004FF08043B122C3F81C2502E00123C2F83C
:1063D0001C354FF08043D3F81C35704710B590B092
:1063E0003C22002101A805F089FE01A800F05DF91A
:1063F00001A8FFF78FFFFFF7D7FF002210464FF4E9
:10640000805101F037FF024608B1FFF753FF0948FA
:10641000C0F5FC2101F02EFF0028F6D1064801F05E
:106420004FFE04460028F0D101F012FF204610B0C4
:1064300010BD00BF00600700D9620700194B436020
:106440004FF481734381142383731323C3730A238B
:10645000037409234374837C03F0F00343F00903BE
:1064600003F0CF036FF3861383740F4B8361032212
:106470000E4B4273C274436140F2C97240F2BC7366
:10648000C0E907234FF45B614FF49663C0E9091339
:10649000C362074B4363074B8363EC2380F83030C0
:1064A000704700BF080B0607CDCC4C3EE02D903B5B
:1064B0005C8F423F85EBD13E154B164AC0E9012364
:1064C000154BC36040F206730382837C03F0C00364
:1064D00043F0610383740523C374104B8361104B35
:1064E00043614FF4FA716FF07C03C0E907134FF07A
:1064F000000C4FF4E163C0E909C34FF41673C362A3
:10650000084B4363084B8363EC2380F830307047BB
:1065100004050601080A0E0D00021413378981BE16
:106520001EA7E83B3333B33E9A99993E194B43601B
:106530004FF4817343810323437314238373132321
:10654000C3730A23037409234374837C03F0F003A9
:1065500043F0090303F0CF036FF386138374012321
:10656000C3740D4B83610D4B436140F2D37240F213
:10657000CD73C0E9072340F2DC514FF49663C0E9C4
:106580000913C362064B4363064B8363EC2380F815
:1065900030307047080B0607CDCC4C3EBC74933BA3
:1065A0005C8F423F85EBD13E184B43604FF48173C3
:1065B00043814FF44073838141F21433C38140F629
:1065C0000A130382837C03F0C00343F069038374DE
:1065D0000123C3740E4B83610E4B43616FF0620362
:1065E000C361AB3B036242F228324FF49663C0E9C9
:1065F00009234FF41673C362074B43634FF07A537A
:106600008363EC2380F83030704700BF080B060727
:10661000A01A2F3E48507C3B3333333F174B436027
:1066200040F201234381042383814FF4C163C3817A
:1066300041F213430382837C03F0FE0343F01E0305
:1066400003F0DF036FF3861383740123C374002305
:10665000836143614FF47A73C0E9073300224FF43A
:106660006163C0E90923C3624FF0804343634FF085
:106670007E538363D82380F83030704711160B0C9B
:1066800008B5FFF7CBFF0423C37408BD41F61923F7
:10669000C381837C03F0F8036FF3C3038374022385
:1066A000C374EC2380F83030704738B54FF01023B6
:1066B0000546D3F88440631C30D0B4F57B7F13D8F3
:1066C000B4F57A7F25D2642C2ED008D8A4F1280303
:1066D000012B2CD92846FFF729FF072038BDC82CED
:1066E000F8D1FFF7CDFF16E040F2DE539C420AD806
:1066F00040F2DC539C4213D2A4F2EF33012BE9D8D1
:10670000FFF7DAFE07E0B4F5BC6FE3D8FFF74CFF04
:1067100001E0FFF793FE2C600020DFE740F2DE543B
:106720002846FFF703FFF6E7FFF7B0FFF3E7FFF7B1
:1067300075FFF0E700B591B040220021684605F0F2
:10674000DDFC4FF01023D3F884305A1C5DD0B3F534
:106750007A7F48D040F2E932934246D040F2EA32A2
:10676000934244D040F2EB32934242D0B3F57B7F68
:1067700041D040F2EF3293423FD0B3F57C7F3ED020
:1067800040F2DC5293423CD040F2DD5293423AD088
:1067900040F2DE52934238D040F2DF52934236D07C
:1067A000B3F5BC6F35D0642B35D0C82B35D0282B32
:1067B00035D01C491C4A292B18BF114606A801F0E8
:1067C00082FB08A8194901F07EFB012368468DF879
:1067D0003C3000F0C9F918B1154A1A21FFF794FDB1
:1067E00011B05DF804FB1349E8E71349E6E71349E4
:1067F000E4E71349E2E71349E0E71349DEE7134909
:10680000DCE71349DAE71349D8E71349D6E7134918
:10681000D4E71349D2E71349D0E71349CEE7134928
:10682000CCE700BF69C2070072C207007AC2070046
:1068300080C20700B8C10700C4C10700D0C107006B
:10684000DCC10700E8C10700F4C1070000C207006F
:106850000CC2070018C2070024C2070030C207009C
:106860003CC2070048C2070054C2070060C20700CC
:106870000649074A074B9B1A03DD043BC858D05012
:10688000FBDC00F04DF8FFF7DBFC0000B8CD0700A3
:10689000B85700206C580020FEE7FEE7FEE7FEE751
:1068A000FEE7FEE7FEE7FEE7FEE7FEE70C4B1B78A0
:1068B000062B10D10B4B1B681A070CD10A4B18681A
:1068C00000F0F003302B08D000F0E000A0F140030E
:1068D000584258417047002070470120704700BF60
:1068E000E00F00F0E40F00F0E80F00F0094B1B7818
:1068F000062B0CD1084B1B681A0708D1074B1868E8
:1069000000F0F000A0F130035842584170470020D9
:10691000704700BFE00F00F0E40F00F0E80F00F058
:1069200008B5FFF7C3FF28B1604B614A1B68C3F38A
:1069300004231360FFF7DAFF10B15E4B5E4A1A6062
:10694000FFF7B4FF28B15D4B5D4A1B68C3F34233C8
:106950001360FFF7CBFF20B15A4AD36823F080734E
:10696000D360FFF7A3FF40B14FF080430022C3F88C
:106970000C21C3F81021C3F83825FFF7B7FF10B179
:10698000514B03221A60FFF7B1FF40B14F4B052274
:106990001A6001229A6700229A603F225A604C4B8B
:1069A0001B78062B50D14B4B1B6819074CD14A4B17
:1069B0001B6803F0F003502B46D14FF08052474B39
:1069C000D2F80414C3F82015D2F80814C3F824151B
:1069D000D2F80C14C3F82815D2F81014C3F82C15EB
:1069E000D2F81414C3F83015D2F81814C3F83415BB
:1069F000D2F81C14C3F84015D2F82014C3F844157B
:106A0000D2F82414C3F84815D2F82814C3F84C154A
:106A1000D2F82C14C3F85015D2F83014C3F854151A
:106A2000D2F83414C3F86015D2F83814C3F86415DA
:106A3000D2F83C14C3F86815D2F84014C3F86C15AA
:106A4000D2F84424C3F87025FFF730FF28B1244B57
:106A5000244A1B6803F04F031360FFF727FF48B178
:106A60004FF08043D3F80024D20744BF6FF00102F7
:106A7000C3F800241C4B1B68062B08D11B4B1B685A
:106A8000062B01BF1A4A136843F480631360194A46
:106A9000D2F8883043F47003C2F88830BFF34F8FC8
:106AA000BFF36F8F144B154A1A6008BD2403001002
:106AB0004035014074C007400DF0ADBA44020010EB
:106AC0003C050040F0ED00E0A005004010560040FD
:106AD000E00F00F0E40F00F0E80F00F000C000400D
:106AE00058020010E40E0040300100103401001084
:106AF0003C17004000ED00E0B85700200090D003A4
:106B0000A8DF7047F0B5074689B014461E460D460B
:106B100021B9134A84212846FFF7F6FB24B9104A0D
:106B200085212046FFF7F0FB20220021684605F072
:106B3000E5FA9DF80D300E9AADF8007043F00203AF
:106B40008DF80D30074BADF8044069461888ADF854
:106B5000064002958DF8116001F0BEF909B0F0BD54
:106B6000D0C20700C058002030B587B006A941F652
:106B70000A03044621F80C3D01205A4A8DF80E0004
:106B8000FFF7BEFF0546002849D12288002A49D1D7
:106B9000228952B15449009194F83C30E16842F6A0
:106BA0002420FFF7AFFF002847D1228A52B14F4976
:106BB000009194F83C30616942F62520FFF7A2FF6E
:106BC00000283AD1228B52B14949009194F83C30C7
:106BD000E16942F62720FFF795FF00282DD1228C8E
:106BE0004AB14449009194F83C30616A42F626204B
:106BF000FFF788FF08BB228D4AB13F49009194F806
:106C00003C30E16A42F62820FFF77CFFA8B9236BED
:106C1000ABB9616B002938D1A36B002B42D1284658
:106C200007B030BD3549009194F83C30616842F6B8
:106C30002920FFF767FF0028AAD00546EFE71A686A
:106C40008DF810201A68120A8DF811205A888DF8D4
:106C50001220DA788DF813205A688DF814209B687A
:106C60008DF815301A0A8DF816201B0C244A8DF861
:106C70001730009294F83C30082204A942F62320F1
:106C8000FFF740FF0028C4D0D7E71E480A790090DC
:106C900094F83C30096842F62A20FFF733FF0028B9
:106CA000BAD0CAE71A788DF810205A888DF81120CA
:106CB000120A8DF812209A888DF81320120A8DF886
:106CC0001420DB888DF815300F4A00921B0A8DF8CE
:106CD0001630072294F83C3004A942F65020FFF702
:106CE00011FFAAE7C0580020A0580020B858002083
:106CF0009058002088580020C25800209858002042
:106D0000CA580020B0580020A858002012F00303F1
:106D100010B511D1094C22604C1CE400A4B22244ED
:106D2000074C2260074A1370074A1370074A108005
:106D3000074A1846118010BD0720FCE7D8580020EC
:106D4000D4580020D2580020E0580020DC58002001
:106D5000DE5800202DE9F3472B4D2B888B42064649
:106D60000C4617464BD302A84FF0000800F8018DDF
:106D700000F096F8254B264A18781178CBB22549B1
:106D800009888B4238BF0133C0B238BF5FFA83F83D
:106D900040452ED092F800801378DBB2994286BF2E
:106DA0000133DBB2002313709DF8070000F0A8F850
:106DB0004FF6FF73984524D0DFF860A0DAF8003072
:106DC0004FEAC80903EB090243F83870A6B19CB139
:106DD000114B28881B68224608FB0030314605F01D
:106DE00082F9DAF800304B4400209C8002B0BDE804
:106DF000F0874FF6FF78D7E700209080F6E709206C
:106E0000F4E70420F2E700BFDC580020E05800203F
:106E1000D2580020DE580020D4580020D858002036
:106E2000F8B5124C124D264622782B789A4200D1A2
:106E3000F8BD23780F48104A078812680F48DBB264
:106E400019B202EBC10C006852F83120BCF80410F2
:106E500003FB070090470A4A23781288DBB29A4264
:106E600086BF0133DBB200233370DDE7E05800203A
:106E7000D2580020DC580020D8580020D4580020D8
:106E8000DE580020EFF30583C3F308032BB9EFF3BB
:106E90001480C04300F001007047012070470000DB
:106EA00070B50446FFF7EEFF012803D010494320D8
:106EB00000F062F8EFF3108672B60E4A9068012374
:106EC00098B993600C4B0D4DD3F880102940116098
:106ED000C3F88050D3F8841051604FF0FF32C3F8EC
:106EE0008420207006B962B670BD2370FAE700BF37
:106EF00021C30700F47A002000E100E0FC06FFBD9A
:106F000010B50446FFF7BEFF012803D00949512000
:106F100000F032F8084B9A685AB154B9EFF3108177
:106F200072B6064A18681060586850609C6001B9D3
:106F300062B610BD21C30700F47A002000E100E032
:106F400030B53AB11368DB430A4D0144884204D19D
:106F5000D84330BD4FF0FF33F6E710F8012B534014
:106F6000082213F0010418BF2C46013A84EA5303A7
:106F7000F7D1EBE72083B8ED07B5ADF8000001913C
:106F80006A46002144F20200FFF7C1F903B05DF840
:106F900004FB10B561B1B2FBF3F403FB1424A4B2FB
:106FA00044B9C0E9001484608281C381204610BDC9
:106FB0000E20FCE70920FAE782B050E8022FC188D2
:106FC000B2EB324F4FF0000317BF92B241EA0141DA
:106FD00042EA014104E04268B2EB324F08BF0123AC
:106FE00040E80212002AE8D18DF807309DF80730FA
:106FF000002B0CBF1120002002B0704737B550E8BD
:10700000013F9DB2C48925448489A54228BF2D1B18
:107010000489A54202BFBFF32F8F002207E0C5EA13
:10702000030540E80154002CE9D14FF001028DF82E
:1070300003200193019B9DF803200B6002F0FF03E6
:1070400022B10B880068184403B030BD1846FBE736
:107050000A884B889A4209D150E8012FC2EA0242BD
:1070600040E80123002BF7D1012070470020704732
:1070700037B550E8023F1FFAA3F5C488A54202BF06
:10708000BFF32F8F00220DE0C48925448489A542D7
:1070900028BF2D1BC3EA054540E80254002CE8D167
:1070A0004FF001028DF803200193019B9DF803200E
:1070B0000B6002F0FF0322B14B880068184403B054
:1070C00030BD1846FBE70A884B889A4209D150E840
:1070D000022FC2EA224240E80223002BF7D101200E
:1070E00070470020704750E8002F42EA010340E853
:1070F000003C9CF0000FF6D11046704750E8003F6E
:1071000003EA010240E8002C9CF0000FF6D1104683
:1071100070470121FFF7E7BF0021FFF7EFBF000035
:1071200010B50446002834D003681BB91A49FF2063
:10713000FFF722FF636823B917494FF48070FFF708
:107140001BFFA36823B9144940F20110FFF714FF95
:10715000E36823B910494FF48170FFF70DFF238ACC
:1071600023B90D4940F20310FFF706FFD4E90123CC
:1071700021689B1ADBB20A60013BDBB2FF2B22685D
:1071800002D10020107110BD1168481C10600B70F6
:10719000F2E70E20F7E700BF72C3070037B50546D8
:1071A00020B914494FF49270FFF7E6FE02A80024BC
:1071B00000F8014DFFF774FE2A68696813688B4276
:1071C00010D9591E116013F8014C2A8AEB6802FB92
:1071D00004342A68AB6811685B1A1179DBB29942F2
:1071E00038BF13719DF80700FFF78AFE204603B0F1
:1071F00030BD00BF72C3070037B50C46054620B945
:10720000104940F24710FFF7B7FE24B90D494FF47B
:10721000A470FFF7B1FE02A8002300F8013DFFF7BC
:107220003FFE2A681368591C1160EA68A41A2A8A6A
:10723000B4FBF2F41C709DF80700FFF761FE03B089
:1072400030BD00BF72C3070070B50D461646044638
:1072500018B908495520FFF78FFE1DB9054956207A
:10726000FFF78AFE25602B6831462046BDE8704056
:10727000184700BFBEC307002DE9F041DDF81880B4
:107280000E4617461D46044618B922498820FFF7C6
:1072900073FE1FB91F498920FFF76EFE23681BB9D3
:1072A0001C498A20FFF768FE1DB91A498B20FFF799
:1072B00063FE63685A68B5FBF2F302FB13531BB11C
:1072C00014498E20FFF758FEB20703D011499120D0
:1072D000FFF752FEBB0703D00E499220FFF74CFE8A
:1072E000E3689E4204D3731E22692B44934203D960
:1072F00008499320FFF740FE2368CDF81880D3F8A3
:107300000CE03A462B4631462046F446BDE8F041B3
:10731000604700BFBEC307002DE9F0410D46164689
:107320001F46044618B919499E20FFF725FE236819
:107330001BB916499F20FFF71FFE1EB91349A02055
:10734000FFF71AFE63681B68013B2B4203D00F490D
:10735000A320FFF711FEE3689D4207D363681B6813
:107360006A1E03FB06232269934203D90749A8201A
:10737000FFF702FE2368D3F810E032463B46294669
:107380002046F446BDE8F041604700BFBEC3070099
:107390002DE9F04108B10368C3B90E4E0E4B14221B
:1073A0009B1B0024B3FBF2F3374602FB03F5A54217
:1073B00001D1002008E03B5930190BB91434F6E72D
:1073C000DB6998470028F9D0BDE8F081DB69BDE8AA
:1073D000F0411847585800206C580020014B43607A
:1073E0000020704710C4070008467047002070470F
:1073F000024B1868003018BF01207047E458002085
:1074000008B50248FFF788FE002008BDE4580020B8
:1074100008B510461A4604F066FE002008BD0000BC
:107420002DE9F041804686B013480E4615461F46AA
:10743000FFF76FFE044630B1112018E006EB043070
:1074400000F0BCFB0134A542F8D10B48FFF764FE05
:10745000D8F8083000246BB1022268468DF800206D
:10746000CDE90146CDE9034505979847204606B08A
:10747000BDE8F0811846FAE7E45800202DE9F04114
:10748000804686B012480F4616461D46FFF741FE5D
:107490000446D8B9AA083146384600F0A7FB0C4884
:1074A000FFF73AFED8F8083073B101228DF80020BA
:1074B0000C9A05926846CDE90147CDE903659847E6
:1074C000204606B0BDE8F0811846FAE71120F8E73B
:1074D000E458002029DF704728DF704770B5056841
:1074E000AB6886B004460E4673B11422002168468C
:1074F00004F004FEA36805932379019633B1012BB0
:107500000ED0AB686846984706B070BD01238DF871
:10751000003023690293E368039363690493F0E7FF
:1075200002238DF80030E3681B030293F5E7084659
:107530007047002070470000024B187A003018BFD7
:1075400001207047D45A0020034B187A0122B0FA68
:1075500080F05A7440097047D45A002008B510468C
:107560001A4604F0C0FD002008BD000008B5142232
:107570000021044804F0C2FD0348FFF71DFD002070
:1075800008BD00BFD45A0020C45A002010B5094CD1
:10759000094B43602046FFF7BCFD48B903F09EFC51
:1075A0001C2320744FF4EE7204490548FFF7F1FCE8
:1075B000002010BDD45A00203CC40700E858002029
:1075C000C45A002070B5234D234E2B7A2C463BB96C
:1075D00022492348FFF74CFD306008B9686070BD50
:1075E0000223237233681A7972B1012A22D0184615
:1075F0000321FFF773FF00232372636017491848C4
:10760000BDE87040FFF75FBDD3E90520121A142AC8
:1076100028BF1422D3E903159208012A014438BF78
:1076200001222844FFF756FF50B11128DFD1012372
:107630002372D4E7D3E903021044FFF74DFFF3E7C9
:10764000237C002BCBD10146BDE87040022000F026
:1076500009B800BFD45A0020EC5A0020E85A002094
:10766000C45A002038B5831E012B43D8224C237AFC
:10767000002B3FD0022B09D103282ED01F4B002214
:107680001B68E2601A793AB1012A20D0637C6BBB97
:10769000BDE83840FFF796BFD3E905128D1A142DC7
:1076A00094BF521914329A619142EFD102284FF0DF
:1076B000000308BF19462372104B18BF0D2118682C
:1076C000FFF70CFF0E490F48FFF7FDFCDEE71A69D4
:1076D00001321A615B699A42E7E7E3680133082BDC
:1076E00001D8E360D2E70023E360DFE7BDE838407C
:1076F00003F0E4BB38BD00BFD45A0020EC5A002090
:10770000E85A0020C45A002000F0FD03012B08D1E4
:10771000044B00225A74421E504250411874FFF725
:1077200051BF7047D45A002010B5064C201DFFF7FA
:10773000F0FC28B9637C1BB9BDE81040FFF742BFDD
:1077400010BD00BFD45A00202DE9F34180460D46FC
:107750000F4801A916461F46FFF750FC0446A8B182
:107760001C22002104F0CAFC2D0B0123237101A966
:10777000C4F80080A760E56066610548FFF768FC13
:10778000FFF7D2FF002002B0BDE8F0810420FAE745
:10779000C45A00202DE9F74381468846104801A9C4
:1077A00017461E46FFF72AFC0446B0B11C220021F2
:1077B00004F0A4FC00250A9BA36001A92571C4F86C
:1077C0000090C4E9037866610548FFF741FCFFF7C4
:1077D000ABFF284603B0BDE8F0830420FAE700BF02
:1077E000C45A002038B50D46044618B9084950203F
:1077F000FFF7C2FB1DB906495120FFF7BDFB25600D
:107800002B6863606A68934204BF0023636038BDDD
:1078100068C4070010B5044618B90B496320FFF788
:10782000ABFB23681BB908496420FFF7A5FB63681D
:1078300043B1226891680B4463605268934204BF6D
:107840000023636010BD00BF68C407002DE9F04F3E
:107850000022C9B04B780C781B0443EA0463CC784F
:1078600023438C7843EA042308AC0431A350043248
:10787000402AEFD1234638AD996B1E464FEAF142BC
:1078800082EA714282EA9122716A366853F8044FA3
:1078900031440A444FEAB44181EAF41181EAD40147
:1078A0000A449D42DA63E7D1036D0093436D01936F
:1078B000836D0293C36D0393036E0493436E05932C
:1078C000836E0693DDE905ECC36E009CDFF8AC9097
:1078D0000793DDE90381DDE901659B4600274FEA57
:1078E000F12383EAB11383EA716A59F827301A4603
:1078F00008AB53F827301A44134653442CEA0102CC
:1079000001EA0E0A82EA0A021A444FEA743A86EA47
:1079100005035A448AEAB40A06EA050B234083EABF
:107920000B038AEAB45A01379A44402F02EB08034A
:10793000E3465244A8461AD1009F1744019A0765AE
:1079400022444265029A32448265039A2A44C265FF
:10795000049A1A44059B02660B444366069B7344D3
:107960008366079B6344C36649B0BDE8F08FF44665
:1079700035468E46264619461446B0E7D0C4070061
:1079800030B5E0B10F4A104900240025C0E9124586
:10799000C0E914120D4C0E4A0E4DC0E916420E4AB3
:1079A000C0E918520D4A826602F17452A2F5230210
:1079B0000023A2F692420364C266184630BD0E2030
:1079C000FCE700BF85AE67BB67E6096A72F36E3CF1
:1079D0003AF54FA57F520E518C68059BABD9831F9A
:1079E000F8B50446F0B10AB90020F8BDD1B10D4692
:1079F0008E180027B542F7D0236C15F8012BE254FE
:107A00000133402B2364F5D121462046FFF71EFFAA
:107A1000D4E9120110F5007241F10003C4E9122308
:107A20002764E7E70E20E0E72DE978480D46164683
:107A30000446002800F08480002900F08180026C58
:107A40008021372A02F1010381544FF000024DD802
:107A5000382B46D1D4E91223206C0821E1FB002306
:107A600022FA01F1934684F83F2084F83E10110C6D
:107A7000120E84F83C201A0A9C4684F83B3084F8A5
:107A80003A201A0C1B0E84F83D10C4E912BC2146A2
:107A900084F8392084F838302046FFF7D7FE691E75
:107AA0007EB30023E26EDA4001F8012FA26EDA40C5
:107AB0000A71626EDA400A72226EDA400A73E26D6F
:107AC000DA400A74A26DDA400A75626DDA400A760D
:107AD000226DDA400833202B0A77E3D10020BDE87D
:107AE0007888E2540133B3E7E25401333F2BFBD9EA
:107AF00021462046FFF7AAFE3822002104F0FEFAB4
:107B0000A8E71823226DDA4001F8012F626DDA40F0
:107B10000A71A26DDA400A72E26DDA400A73226ECF
:107B2000DA400A74626EDA400A75A26EDA400A76AA
:107B3000E26EDA40083B13F1080F0A77E2D1CDE795
:107B40000E20CCE743689B68184708B543680830A7
:107B50005A7900F085F9002008BD2DE9F0430D4663
:107B60009BB0084699469046FFF7ECFF6E68747923
:107B70004C4528BF4C4607462246414602A800F025
:107B800053F9727922990AA800F06AF900970AABB2
:107B9000224602A905F1080004F0F6F8002848F290
:107BA000425018BF00201BB0BDE8F083024AD2F853
:107BB0000034002BFBD0704700E001400A4908B5B3
:107BC0000223C1F80435BFF36F8FBFF34F8FC1F8A5
:107BD0000805FFF7EBFF0023C1F80435BFF36F8FF3
:107BE000BFF34F8F08BD00BF00E001400E4B10B542
:107BF0000124C3F80445BFF36F8FBFF34F8F01EB30
:107C00008204401AA14208D1074B0022C3F8042580
:107C1000BFF36F8FBFF34F8F10BD431851F8042B84
:107C20001A60FFF7C3FFEDE700E0014028B139B16A
:107C30000023C1E900301846704748F210507047E1
:107C400048F21350704730B1036848F240508B42FD
:107C500008BF0020704748F21050704728B148F222
:107C60001150914208BF0020704748F210507047F1
:107C700070B506460C461D46FFF7D8FF50B9B379DC
:107C80004AB1AB420AD111462046FFF75EFF08B960
:107C9000044B236070BD48F21050FBE748F21150CE
:107CA000F8E700BF7052464D2DE9F0470C460746F5
:107CB0000F49204615469846DDE90869FFF7C3FFDE
:107CC00098B963685A79494652003046FFF7C6FFB3
:107CD00058B945B1089643462A4621463846BDE87C
:107CE000F047FFF73ABF48F21050BDE8F08700BFF9
:107CF0007052464D10B5044638B149B141600B6829
:107D0000984708B9044B236010BD48F20150FBE7C7
:107D100048F21050F8E700BF6E524648F0B448B140
:107D200007680A4EB74209D159B16AB14368F0BC3D
:107D30005B68184748F20150F0BC704748F20250A7
:107D4000FAE748F21050F7E71046F5E76E5246485A
:107D5000F0B460B107680C4EB7420CD171B1436802
:107D60001568DC68A5420CD39B68F0BC184748F244
:107D70000150F0BC704748F20250FAE748F2135045
:107D8000F7E748F21450F4E76E5246482DE9F04107
:107D9000044617469846DDE90656FFF7ABFF60B983
:107DA000424639462046FFF7B9FF30B932462946E8
:107DB0002046BDE8F041FFF7CBBFBDE8F0810000F1
:107DC000F8B50A4F0A4C0B4DE41B0121E408297059
:107DD0000026A64203D102232B700020F8BD57F8DD
:107DE000363098470028F9D10136F2E758CD070020
:107DF00058CD0700F05A002038B50C46054618B992
:107E000008493320FFF7B8F8611E29442846884204
:107E100000D938BD03780A7800F8012B01F8013940
:107E2000F5E700BFDCC5070070B50D4614460646F1
:107E300018B90A494520FFF79FF81DB907494620A0
:107E4000FFF79AF8621E3244013DB24200D270BD83
:107E500015F8013F02F80139F7E700BFDCC507005C
:107E600070B5164604460D46FFF7DEFF3246A919E7
:107E7000A019BDE87040FFF7D7BF38B50D460446DE
:107E8000FFF7BAFF29466019BDE83840FFF7B4BFD5
:107E9000AADF7047002301380B70042806D8DFE8FA
:107EA00000F00306080A0C0011230B707047212311
:107EB000FBE73123F9E71223F7E72223F5E7007800
:107EC00000F00100704738B5044608460D4604F03E
:107ED0001DF96560208038BDF0B58B7891B00546FE
:107EE0000C46164603B9012303228DF80E300021FB
:107EF0002388ADF80C30684604F000F96946607CD0
:107F0000FFF7C8FF0DF10101A07CFFF7C3FF9DF84B
:107F10000230E27B62F3C303227C62F30413227B10
:107F200062F30003227D002A14BF0222012262F3C1
:107F3000420300211C2209A88DF8023004F0DEF86B
:107F4000637B13F0300F15D002AF032200213846B7
:107F500004F0D4F80DF10901E07CFFF79BFF112339
:107F60008DF808309DF80A300E97012262F3420323
:107F70008DF80A30637B8DF824301422A37B8DF8B2
:107F80002530002104A804F0B9F803AB0493A388BA
:107F9000ADF81C30A368CDF814D01BB1E288ADF861
:107FA00018200893A369002B32D001AF03220021CF
:107FB000384604F0A3F8A3691A88ADF82C205A8833
:107FC000ADF82E205A680D97187B0A923946FFF7B4
:107FD00061FFA3690DF10501587BFFF75BFFA26903
:107FE0009DF80630917A61F3C3038DF80630D17A9B
:107FF00061F304138DF80630117A927B002A61F345
:10800000000314BF0222012262F342038DF80630FE
:10801000E36903B10C93334604AA09A92846FFF784
:1080200037FF11B0F0BD41DF70470000014B012266
:108030001A707047145F0020BFF34F8F0549064B3D
:10804000CA6802F4E0621343CB60BFF34F8F00BFF6
:10805000FDE700BF00ED00E00400FA05024B034815
:1080600000221A7001F0C8BF145F00203980070099
:10807000C31E10B50446042B09D8DFE803F0030340
:10808000080F0F0009494FF4701000F053FA084B25
:108090001B6853B12046BDE810401847054B064801
:1080A00000221A7001F0A8FFF1E710BD5D80070003
:1080B000185F0020145F00203980070000207047FF
:1080C00038B5564B1860002001F0ACFF054640B9AA
:1080D00000F020FB012800F0988004D3022800F073
:1080E0009A80032038BD4FF08042D2F8004414F447
:1080F000803437D04FF48033C2F800342C46484DDA
:108100002B6A012B41D04FF4701400F08BFB454AD1
:1081100020211820FEF7FAFD18B1434AB921FEF7D5
:10812000F3F8424B1A6802F0F802B02A06D11A6836
:10813000D20742BF1A6802F04E021A60FFF7BEFF74
:108140000028CED120463A4900F0F4F9394801F030
:1081500081F80028C5D100F08BFBFEF761FEFFF728
:1081600062FFF8E7D2F8203503F0F803A82B0AD114
:10817000D2F82035D80706D5D2F8203503F05603BB
:10818000C2F82035BBE70124B9E743F204031A68BB
:10819000294B9A420AD002F067F80146A4B1AA69B5
:1081A000264802F07FFB0028ADD011E01CB995F8FD
:1081B0006032012BEFD06A6B21484FF4805102F0FE
:1081C00071FB00289FD0E6E795F8A132012BE6D19C
:1081D000164A136803F0F803B02B02D11368D907CD
:1081E00091D401F0EDFF00287FF47BAF154C207097
:1081F000154801F001FF237823B90B4940F2FD1027
:10820000FEF7BAFE00F024F86BE70E4B0F481D7026
:1082100001F0F2FE65E74FF4A02476E7185F002036
:10822000007B0020F45A00202FC607001C050040E8
:108230005D80070071800700DBE5B151A17D002062
:10824000607D0020145F00202D800700398007002A
:1082500008B5074B4FF0FF32C3F88020C3F88021E8
:1082600001F091FC4FF48050BDE8084000F02EB8BA
:1082700000E100E0C1F30B0330B52BBBB0F5FE2FDE
:1082800022D8000B013900EB113101254FF080425B
:10829000814201D2002030BD00F01F03440905FADD
:1082A00003F3032C05D8DFE804F00206090CC2F83A
:1082B00000360130ECE7C2F80436FAE7C2F81036AF
:1082C000F7E7C2F81436F4E70720E4E730B50546CF
:1082D000204889B00022C0F5FE21FFF7CBFF01F056
:1082E000C3FF1D4B9969002201441046FFF7C2FFEE
:1082F000EFF305820023D5E9004183F3148883F36B
:10830000108883F3118883F31388C2F308023AB903
:1083100084F308884FF0FF339E46084709B030BD0C
:108320004FF0FF35203CCDE90033CDE90233049313
:10833000CDE905514FF0807320226946204607930E
:1083400003F0D1FE84F30888AE466FF006031847A9
:10835000E4E700BF00600700007B0020B1F1807FF0
:10836000F7B507460C4637D31E498F20FEF704FEAB
:108370006FF07F431C4EA34228BF2346D6F8045516
:10838000E41A1D44631E942B96BF96347C607C6077
:108390003C7B25F07F4598BF963D032C03D91149BE
:1083A0007720FEF7E9FD04F5A873104A46F823503C
:1083B0004FF4F86042F0010290470D4BA2001344C5
:1083C00000221A601B680193019B4FF48033A34085
:1083D000C6F8043303B0F0BD9529C9D801499020EF
:1083E000C4E700BF86C607000040024080C6070001
:1083F0004041024018490A7884B0002A29D14FF040
:108400008043A020D3F81834DB035EBF134B012256
:108410001A60134A0023136012680392039A114AE8
:10842000136012680292029A0F4A13601268019256
:10843000019A0E4A82F82403102050600C4A0D481D
:10844000C2F808350123036002201360C2F8040358
:108450000B7004B0704700BF205F00200800004090
:1084600000410240404102404441024000E100E03E
:10847000004002400840024013B5284B1A6842B140
:1084800027490A6801320A6000221A601B680093BB
:10849000009B244B1A68A2B100221A6022481B6874
:1084A000027B0193019B4FF4803393401F4AC2F833
:1084B00008334168044601BB8168D9B9236803B118
:1084C00098471B4B1A6832B300221A6016481B6883
:1084D000027F0193019B4FF480339340134AC2F80B
:1084E00008334169044659B1103002B0BDE810406C
:1084F000FFF734BFFFF732FFE0E7FFF72FFFE0E7BA
:10850000816911B11030FFF729FF23691BB102B057
:10851000BDE81040184702B010BD00BF0441024042
:108520001C5F002040410240BC5700200040024038
:108530004441024070B50B4B1C68227B4FF48033E2
:108540009340094A0E46C2F80833054640B1FFF78A
:1085500051FF266029462046BDE87040FFF7FEBE69
:1085600070BD00BFDC5700200040024070B5074BD3
:108570001C680E46A0600546FFF73CFF26602946B2
:108580002046BDE87040FFF7E9BE00BFE05700207D
:10859000014B01221A707047215F002070B5154D04
:1085A000EA6A6E6AAC6CAC2A0DD16B6B1C44F61A8D
:1085B000EB6AAC2B0DD0324621460F4803F084FD08
:1085C00080B9002070BD002CF2D101F063FE04469A
:1085D000EEE73246A4F58041074803F075FD002818
:1085E000E9D1EEE700F044F931462046BDE870409D
:1085F00001F0AABA007B00200060070081422DE94B
:10860000F74F05468946164603D228494F20FEF704
:10861000B3FCC5F30B031BB124495120FEF7ACFC9E
:10862000A9EB0504240B03D120495420FEF7A4FC38
:1086300000F0F8F8082C28BF082406F6FF7723037B
:10864000DFF86CB001933F0B0EB9334629E0BC4212
:108650002CBFBA46A2464FF00002514628462CBF16
:10866000B046DDF8048001F057FA0346C8B908F1B6
:10867000030222F003024946284601F03FFA03466E
:1086800078B9DBF830304344CBF8303001F0BAFC35
:10869000A7EB0A07A6EB08064544C1440346002899
:1086A000D2D0184603B0BDE8F08F00BFE5C6070082
:1086B000007B002010B501F0FDFD154A42F20403D5
:1086C000916CCC5803F1A34303F5471303F2D7533E
:1086D0009C4218D1D2E90C32934216D01844194466
:1086E000884204D10020BDE8104001F08BBCD21AB2
:1086F00002F6FF7222F47F6222F00F02FFF77EFF84
:108700000028EFD010BD0320FCE70020FAE700BFEF
:10871000007B0020F8B52A4CE36AA52B3FD003D894
:10872000012B0CD0002039E0AA2B3CD0AC2BF9D186
:10873000FFF7C0FF002834D1FFF730FF31E0A56C10
:10874000666A01F091FD226B1044A918884231D16C
:1087500001F08AFD00223146FEF7F2FBA36A98423F
:1087600002BF0123C4E90703A66100251548164E80
:1087700001F06EFD00231548337001F043FC33789F
:10878000074623B912494FF4D170FEF7F5FB6FB9D4
:1087900075B1236A012B14BF01200220F8BDFFF739
:1087A00089FF0125E2E7FFF7F9FEDEE70320F5E7A1
:1087B0000120F3E7B21AFFF721FF0028D5D1C7E760
:1087C000007B0020247B0020215F00209185070092
:1087D000E5C607000A4AD2F800347BB109480023F5
:1087E000D2F80815D940C90748BF03F5C07103F195
:1087F000010348BF42F82100072BF1D1704700BFA9
:10880000000001403546526EFFF7E4BF044B0022E2
:1088100082B01A601B680193019B02B0704700BFD1
:108820000001014038B50E4C2278BAB90D4BD3F88F
:1088300000248AB1D3F80455FFF7CCFF40F6165058
:10884000A842B8BF28460849A0F54860FFF78EFE49
:10885000064B4FF480321A600123237038BD00BFED
:10886000225F0020000001400988070000E100E0CD
:10887000034BD3F800340BB1FFF7ACBF704700BF18
:10888000000001400023C0E90232C0E900118B88DA
:108890001A440261B1F906301A4442610888003076
:1088A00018BF0120704710B542681188034600299F
:1088B00039D002F110014160148A2CB9C2680168F4
:1088C000FFF7E0FF204610BD9078118900F03004DA
:1088D000302C1BD1947C04F03004302C16D19088BD
:1088E0001969091A19610021907810F0300F02BF40
:1088F000986801309860908A0844196901441961A8
:10890000B2F91620114459610120DCE700F0F004AF
:10891000202C02D150894143E6E700F0C0008028B6
:1089200008BF0421E0E70846CDE770B54568044676
:108930000E4663681A88B24204D19B7803F00F0395
:10894000082B07D12046FFF7AEFF6368AB42F0D19A
:10895000002070BD0120FCE743681A44426011B159
:1089600001399A4201D10120704713F8010B01F837
:10897000010FF6E710B5836804460BB9002010BD5F
:108980000368012298470028F8D0A368013BA36040
:10899000F5E72DE9F3410F460DF107018046FFF79A
:1089A000E9FF064620B90026304602B0BDE8F08156
:1089B0009DF80740220613D504F07F0407250DF12A
:1089C00007014046FFF7D6FF0028ECD09DF80720AE
:1089D00002F07F03AB401C43130605F1070501D4E9
:1089E0003C60E1E7232DEAD1DDE770B5426892787B
:1089F00002F00F01082986B003461FD103691C68E5
:108A000000260CB906B070BD236826739D686268A5
:108A100029466846FFF736FF6368049304F10C03A8
:108A20000593AB7803F0C003802B08BF231D684675
:108A300008BF0493FFF7D9FFA468E2E712F0C00172
:108A400020D102F0300010280ED15A6911705A68F6
:108A500018699378D46803F00F03072B09D10146F6
:108A6000204600F017F8CDE79006F0D55B69198035
:108A7000C8E71289214614B103F035FBC2E703F0C1
:108A80003DFBBFE78029BDD100690021920601604E
:108A9000B8D5EBE77FB50A4601466846FFF7F2FE18
:108AA00030B16846FFF7A1FF6846FFF7FCFEF7E725
:108AB00007B05DF804FB000030B5044685B01546EC
:108AC000A9B90268114B9A4211D0102D06D82A4636
:108AD00069462046FFF7F0FF05B030BD1022694619
:108AE0002046FFF7E9FF0028F6D0103DEDE7A36828
:108AF000AB4201D20020EFE723682A462046984780
:108B00000028F7D0A3685D1BA560E5E75989070039
:108B1000F7B50E4601A907461546FFF73AFFA8B17B
:108B2000019A0123D3184FF0000404D2B17801F068
:108B3000C001802901D1204608E031899942FAD349
:108B400029463846FFF7B8FF019BEC5403B0F0BD4F
:108B500073B50E4601A905461446FFF71AFFB8B1D2
:108B6000019BB3F5803F07D202229A1804D2B17854
:108B700001F0C001802901D1002009E03189914232
:108B8000FAD321461A4621F8023B2846FFF794FF04
:108B900002B070BD10B5034C82600022C0E90041F4
:108BA000C26010BD598907002DE9F04F824685B09B
:108BB0000D464FF000084FF0000900240DF10F01A1
:108BC0005046FFF7D7FEF8B19DF80F1001F07F0275
:108BD0005FFA82FB4FF0000CCDE900BC009AA4F1D3
:108BE000200CC4F1200322FA03F302FA0CF71F430E
:108BF0001346A34048EA03080B0649EA070904F1B3
:108C0000070404D4C5E9008905B0BDE8F08F462CFF
:108C1000D4D10020F8E773B50D4669461446FFF736
:108C2000C3FF68B12B89082B0CD1DDE90056C4E9DC
:108C30000056DDE90023B34206BFAA42012000200E
:108C400002B070BD042B05D1DDE9000120600546AE
:108C50000026EEE7022B03D10098208085B2F7E7CB
:108C6000012B05D1DDE90001207000F0FF05EFE7E1
:108C70000020E5E737B50D4669461446FFF794FF37
:108C800030B12A89082ADDE9003103D1C4E9003175
:108C900003B030BD042A18464FEAE37108D12360BF
:108CA0001A460B468B4206BF824201200020EFE7A6
:108CB000022A04D11BB223801AB2D317F2E7012A89
:108CC00003D15BB223705AB2F7E70020E0E7F7B5B3
:108CD0000C46002119702170116001A90746154644
:108CE0001E46FFF756FE30B9BB6813B90123337037
:108CF000002003B0F0BD01990029F7D0CB0801F0A6
:108D000007012B602170F4E713B5044605291FD82D
:108D1000DFE801F0030F151E1E1C012201A92046E9
:108D2000FFF7CAFE18B19DF90430002BF5DB02B045
:108D300010BD082200212046FFF7BEFEF7E701A97B
:108D4000FFF727FE0028F2D0019AF3E70422F1E7AB
:108D50000020ECE773B50D4601A90446FFF719FEA4
:108D6000064618B90026304602B070BD94E80F00E0
:108D700085E80F0001998A42F4D3A960A3685B1AC1
:108D8000A360F0E72DE9F0415568AB7813F0C00E11
:108D900088B006468C46144604D0BEF1400F6AD017
:108DA000002546E003F00F025D4903F03003102B6D
:108DB00051F822701DD006D8002BF1D12269294626
:108DC000B847054635E0202B19D0302BE8D1636930
:108DD00029881980072A0AD1636820691A8971468F
:108DE00003F08CF963682169D868FFF753FE2269A4
:108DF0003EE0636901221A7022696168E0E7BCF114
:108E0000020FD4F8148027D1042A25D804A9FFF72B
:108E1000A1FF05460028C3D0069B2BB16168B8F8B6
:108E200000304A899A4208D8059B7360069B002B44
:108E3000B6D1284608B0BDE8F0810889226903FB55
:108E4000002204A8B84728B1B8F800300133A8F8C8
:108E50000030E1E70546E7E7B8F8003021692A89E4
:108E600003FB0212698999429AD90133A8F80030AC
:108E700061683046A4E717693B6807F1040813B935
:108E8000FFF742FF9DE7022913D104A9FFF762FF14
:108E9000002885D03B686168424604A8984705468B
:108EA00000283FF47DAF069B002BF3D1059B736038
:108EB000BFE701292BD009D305297FF471AF042224
:108EC0000DEB0201FFF7F8FD042525E0002501ABBD
:108ED000591901350B2D3FF463AF01223046FFF7DE
:108EE000EBFD00283FF45CAF01AB2B4413F9013CD0
:108EF000002BECDB0B4B049301ABCDE905350023D4
:108F000007933B686168424604A8984759E70822DE
:108F100001A9FFF7D1FD08250028EBD140E700BFEC
:108F200048C70700598907002DE9F04F91B0044662
:108F3000002604A8CDE90266FFF7A4FCA3683BBBAA
:108F4000DDE9053404A89D78FFF7ADFC0028F7D1D2
:108F500015F0300F03D1059B1B8803B10134002CA1
:108F600000F0A9806309002202A9934240F09C808E
:108F700010AA02EB830304F01F04C4F120044FF095
:108F8000FF3053F8383CE040C31A584258410DE0D6
:108F90000DF1030301AA0DF102012046FFF797FE30
:108FA00038B99DF80330002BCAD1002011B0BDE8BC
:108FB000F08F019904A8FFF7B8FC002850D1019B5D
:108FC000B3427FD3059D059A937803F00F03082BD6
:108FD00073D004A8FFF767FC059B9D42F3D14FF0C7
:108FE000FF36019FB7426DD3089B9DF80290D4F8DD
:108FF00008801D684FF0010AA368002D5FD09845D6
:109000009CD12B68D3F800B0BBF1000F08D04B46C1
:109010003A4629462046D8470028C6D0AD68EBE737
:10902000D3F808B0BBF800309F42F7D16A685946C0
:109030000AA8FFF727FC6B680E9305F10C030F934A
:109040009BF8023003F0C003802B04BF2B1D0E934E
:109050000AAA85F80CA049462046FFF793FEDBE7F5
:10906000059B9B7813F0300F0FD1069A3F2A0CD83E
:10907000510910AB03EB810102F01F020123934061
:1090800051F8382C134341F8383CE5689DF802202C
:109090001DB104AB01992046A84704AA9DF802100F
:1090A0002046FFF76FFE12E051F8225001357FF4A1
:1090B0007DAF013259E7012078E7168891E798459E
:1090C0007FF43CAF9DF802102046FFF71DFE0028FC
:1090D0007FF434AF69E770B50C4606461546114675
:1090E0002046FFF7D7FC2A4621463046BDE87040AF
:1090F000FFF71ABFF0B585B00C46CD686946074644
:109100001646FFF727FE68B1E06858B1A37803F070
:109110003003202B32462946684605D1FFF7DBFF96
:10912000019B7B6005B0F0BDFFF7FEFEF8E72DE97F
:1091300077480E466946FFF737FD88B1DDE9002321
:10914000002502F001045FEA530C4FEA320B54EAA7
:10915000050308D06FEA0B026FEA0C03C6E900238F
:1091600003B0BDE87088C6E900BCF9E737B50D4625
:1091700069461446FFF7DBFF68B12B89082B0CD139
:10918000DDE90001C4E90001DDE900238B4206BFEF
:1091900082420120002003B030BD042B03D100988F
:1091A0002060C117F0E7022B04D1BDF90000208038
:1091B00000B2F6E7012B04D19DF90000207040B207
:1091C000EFE70020E7E713B504220C460DEB0201A0
:1091D000FFF772FC08B1019B236002B010BD11467D
:1091E000FFF7F1BF13B508220C466946FFF764FC90
:1091F00018B1DDE90023C4E9002302B010BD114617
:10920000FFF7F0BF10B513681F2B144607D90022D3
:109210000830FEF709FC08B92023236010BD48F28E
:109220001450FBE70830FEF7DBBB0830FEF7A8BBA5
:10923000062810B5044602D1002000F0F1FF044BCF
:109240001B681BB12046BDE81040184710BD00BF89
:10925000245F002008B5074B18600020FFF7E8FFE7
:10926000054800F0C5FF20B90348BDE8084000F0FC
:1092700029BE08BD245F00203192070072DF7047CD
:1092800073DF704774DF704775DF704776DF7047B4
:109290007ADF70477CDF70477DDF70477FDF704784
:1092A00086DF70478FDF704790DF7047A8DF704719
:1092B000AADF7047ADDF7047AEDF7047B0DF7047A1
:1092C000B1DF7047B5DF704762DF704766DF704718
:1092D00013DF70477FB50023CDF80A30ADF80E30AC
:1092E0000A4BADF806109B89ADF8083001238DF8C4
:1092F0000A300DF10603CDE90430054B02A91888A8
:10930000FFF7DAFF07B05DF804FB00BF926F0020A3
:10931000E657002001460148FDF76EBF6CCD0700FF
:1093200030B518228DB000210DEB020002F0E6FEF0
:10933000282308931623ADF806300023CDF80E300D
:10934000CDF81230ADF816301A4B029302220621E6
:1093500009251A7099701A71032159220124D970B4
:109360005A710DF10601FE2258198DF818408DF83A
:109370002D40ADF80C505C709A71FFF78DFFB8B9B5
:10938000BDF806201D721119D971BDF80C301A44B0
:10939000094BADF80C2002A906AA1846FFF76EFF8C
:1093A00030B91878FFF76EFF21461878FFF768FF8D
:1093B0000DB030BDA66F0020E4570020F0B5038843
:1093C0001F2B8BB0044600F0E18031D8112B68D000
:1093D00006D8012B00F0F780102B54D00BB0F0BD55
:1093E000142B00F08C811A2B41D0132BF6D10023C3
:1093F000AF4CADF812300223ADF8103004AA02AB26
:1094000042F6052120880593FFF754FF20B1A94AB1
:1094100040F2F921FCF778FF00231A4685212088C5
:10942000FFF73CFF0028D9D0A24A40F201319AE070
:10943000512B00F0D48013D8232B00F09980502BAF
:1094400046D0212BCAD10AA9002321F8183D8088D3
:10945000FFF728FF0028C1D0964A40F2363182E05B
:10946000552B62D0562B00F09E80522BB6D1002394
:109470001A461946A088FFF723FF0028AED08D4A70
:109480004FF45E716FE08A4B82881A808A4A1268B4
:109490001C460AB10120904788492088FFF7F4FE56
:1094A0009CE7834B4FF6FF721A80854B1B685A0767
:1094B00007D4FFF735FF20B17E4A40F29F21FCF729
:1094C00023FF7D4B1B68002B88D00220984785E73F
:1094D0007C4EC288B3889A4280D17B48FDF75EFEFD
:1094E000054600283FF47AAF228A04F1120102F007
:1094F000FAFD1822002104A802F000FE08238DF8CE
:109500001030724B0693724B0596CDE9073504A8CF
:10951000238AADF8243000F0CBFC00283FF45EAF86
:1095200029466948FDF768FE58E7C188F6291DD825
:10953000CB1E9B070DD0CB1F9BB2013B5A4202F0C2
:10954000030203F0030301F1FF3158BF5342C91A6C
:1095500089B2574B1888FFF7B5FE00283FF43EAF9D
:10956000544A40F2D121FCF7CFFE37E7F721F0E76C
:10957000002204A98088CDE90422FFF795FE002887
:109580003FF42CAF4B4A4FF43871ECE7484B00F1F5
:1095900008011888FFF778FE00283FF41FAF454AFE
:1095A00040F21E31DFE78379002B7FF417AF404B89
:1095B00013211888FFF76AFE00283FF40FAF3D4AD9
:1095C00040F23F31CFE73A4B00211888FFF77EFE8B
:1095D00000283FF403AF374A40F24631C3E78379AE
:1095E000002B3FF4FBAE022B7FF4F8AE3549008927
:1095F0008A8990420E467FF4F1AEA27B012A7FF465
:10960000EDAE00220120CDE904228DF81600208A5B
:10961000ADF81800264D608AADF81A0004F1140068
:109620008DF810300790ADF80A20ADF80830098A9F
:10963000288801AB02AA0393FFF73CFE2F4660B9CE
:109640001846FEF73CFC40B940F2FD1304A92888F7
:10965000ADF81430FFF732FEC0E6002304A93888C5
:10966000ADF81430FFF72AFE014600287FF4B6AEAD
:10967000182204A802F042FD237D144A8DF8103010
:10968000022B0596069231D0062B29D0012B29D129
:10969000104B1A88104B1A80637DD4F8162008935B
:1096A000012B09921ED10D4800F0BAFD1AE000BF4F
:1096B000E657002050C90700CC6F0020A6C907005C
:1096C000C86F0020926F00206CCD07008D970700B7
:1096D00015930700D06F0020D26F002058CD0700EF
:1096E000637D089304A800F0E3FB77E6A27D637D29
:1096F00043EA0223084A1380084A1380F2E7002352
:109700001A4619468088FFF7CBFD00283FF466AE65
:10971000034A40F26D3126E7D06F0020D26F00205F
:1097200050C9070038B514490A6812F0010321D066
:10973000124B98421ED0124B18884FF6FF73984276
:1097400013D042F004020A601321FFF79FFD90B985
:109750000C4DC82445F001054FF47A40A847013C60
:10976000FAD1BDE8384001F079BB074B1878FFF714
:1097700089FDF6E7002038BDC86F002058CD0700EE
:10978000E6570020A0C90700E457002030B50D4679
:1097900087B0044620B9404940F28910FDF7ECFB40
:1097A00025B93D494FF4C570FDF7E6FB11220021B4
:1097B00001A802F0A3FC2378082B0BD1374A3849C3
:1097C00013880988013B9BB21380D9B1D3B9032315
:1097D00011802370627823788DF805306021012A8A
:1097E0008DF804108DF806200ED00B2A52D100F00F
:1097F000A1F98DF80700002000F096F9042101A8D6
:10980000FFF768FD07B030BD062B1DD0082B01D037
:10981000032B3FD1D4E90123110A8DF807208DF8DD
:109820000810110C120E8DF80A201A0A8DF80B3050
:109830008DF80C201A0C1B0E8DF809108DF80D20D8
:109840008DF80E300B21DAE7E1688DF80710D4E9C6
:109850000123080A8DF80800080C090E8DF80A107B
:10986000110A8DF80B208DF80C10110C120E8DF8CA
:109870000E201A0A8DF80F308DF810201A0C1B0ECE
:109880008DF80D108DF809008DF811208DF812302B
:109890000F21B4E70321B2E750C90700D26F0020BF
:1098A000D06F00202DE9F043804695B020B9524991
:1098B00040F25540FDF760FB504B4FF6FF7214A984
:1098C0001A804FF65963012021F8483D42468DF831
:1098D0000A00FFF7EBFC0446002840F08880484B64
:1098E00004AA03F11006154618685968144603C403
:1098F0000833B3422246F7D108F102012846FFF7A8
:10990000E3FC0446002872D101461C220DA802F097
:10991000F5FB9DF83430ADF8044043F004038DF8B6
:1099200034300223ADF80C3098F802308DF80E3048
:109930004FF00109C4F3072369F3030369F3071325
:109940008DF80530E3B243EA090369F342038DF869
:109950000630F423CDE90A4401ADADF82C3003AE56
:1099600008F1040308AA0DA9B8F800000C94CDE989
:109970000865FFF79DFC27460446C0BB01461C2234
:109980000DA802F0BBFB9DF83430ADF8044043F065
:1099900018038DF8343098F802308DF80E30C4F387
:1099A000072369F3030369F307138DF80530FBB24E
:1099B00043EA090369F34203DBB243F010038DF875
:1099C00006301723CDE90A4408AAADF82C300DA9BA
:1099D00008F10C03B8F800000C94ADF80C90CDE938
:1099E0000865FFF765FC044608B9FCF7A3FE2046AE
:1099F00015B0BDE8F08300BF50C90700E65700204E
:109A000038C9070037B52A4C236813F001054DD13A
:109A1000284B18602848FDF783FB019500F0A5F856
:109A200000283CD12548FFF753FC002837D101F02E
:109A3000D9F9002833D101A801F0A6FA78BB01A911
:109A4000012001F0ABFA50BB01A801F011FB30BBC3
:109A500000F0A6FB30B11A4800F096FB236843F0F3
:109A60000203236011238DF8043023689B0718D567
:109A700013498869043182B201A8FFF70BFC70B961
:109A80001048FFF705FC50B90F48FFF70BFF30B93E
:109A9000FFF746FC18B9236843F00103236003B0C5
:109AA00030BD0A4802F032FB0849E4E70020F6E73F
:109AB000C86F0020CC6F00206CCD0700006007004D
:109AC000285F0020A6C90700926F002048C9070040
:109AD00043690BB1C0681847704700000449054B43
:109AE0000022904208BF19460348FDF7ADBB00BFF6
:109AF00048C407001CC407005858002007B500934D
:109B000013460A4601460348FDF7B6FB03B05DF86D
:109B100004FB00BF5858002013460A46014601487E
:109B2000FDF7FABB58580020014B18700B20704706
:109B3000D46F0020024B002218781A70704700BFC3
:109B4000D46F002018DF704730B585B0054610226D
:109B50000C466846002102F0D1FAA4086846019537
:109B60000294FFF7EFFF05B030BD1FB5002304A836
:109B7000CDE901330393022340F8103DFFF7E2FFE4
:109B800005B05DF804FB4FF000534FF480521A60AB
:109B900000207047014B06201B681847E06F00202B
:109BA0000A2803D90B38C0B2FFF7BEBF70470000C8
:109BB00010B5044686B00020FDF7EAFB014630B13F
:109BC000164A18212046FDF7C5F806B010BD182228
:109BD000684602F093FA04238DF80030104B196D9B
:109BE000104B1B68994211D10F4B186800F0B4FF5D
:109BF0008DF80100FFF7D4FFD4E901138DF80100BF
:109C000068469847094800F0FDF9DEE701238DF822
:109C100001306846D4E901139847D6E7B19B0700A5
:109C2000007B0020D86F0020DC6F0020959B070090
:109C3000F0B5836887B0044623B9974940F2CF2036
:109C4000FDF79AF9162200210DF1020002F056FAF2
:109C500023788DF8003001220C2B8DF8012000F2C2
:109C600018819A4012F4AD7F15D1510706D4D30460
:109C700040F10F81894B07201B689847D4E90113F5
:109C8000684698479DF80130012B00F0F380834B24
:109C900005201B68EDE0062B814A01D0012B01D184
:109CA000216911701178012904D002295AD00023AA
:109CB000137092E0013B072B4ED8DFE803F0044D10
:109CC00047314D444D10754B03201B689847606920
:109CD00000F020FDFFF764FF8DF80100CEE7236957
:109CE00023B96D4940F21310FDF746F9A38A23B951
:109CF00069494FF48A70FDF73FF9A18A206900F0A5
:109D000021FDFFF74DFF674B8DF80100DA6B1B6CEF
:109D10000293E3680192002BB0D020699847ADE729
:109D20006149624800F060FDFFF73AFF01288DF8B5
:109D30000100A3D1002000F065F900289ED00A237D
:109D40008DF801309AE74FF400730393554BDA6BAB
:109D50001B6C0192029391E74F494FF4BC70FDF7E1
:109D60000BF98BE7013B072B00F28F80DFE803F054
:109D7000048D6A6F8D848D3700F004FD08B90823C7
:109D8000DEE762690AB90323DAE7C2F30B0333B1F2
:109D9000444B45495B6D096813448B42F3D1B2F5DE
:109DA000805F01D90423CBE73E4B3F49586D0968DA
:109DB00015188D42E3D85A64DA6C9A6418651863F2
:109DC0003A4B61691B6801F6FF710022090B1844C8
:109DD000FFF7A2FE00283FF451AF0523B0E700F0E3
:109DE000D1FC0028CBD02F4DA18AD5E914329B1A83
:109DF0006A6C0B449342C6D82C4B2E6B1B682069AF
:109E000005F148021E44FDF79BF8E368074623B9B5
:109E100021494FF4F870FDF7AFF8E368A28A216991
:109E20003046FFF76BFE08B1E36876E7A28A2B6B3A
:109E3000029713442B63A38A2A6DAF6413442B65E6
:109E400001931BE7174B9A6C02921B6DF8E7154BB9
:109E5000D3E91402596C821A8A4290D19A6C5865DF
:109E6000002120465964DA64FFF7A2FE0B4B1B6801
:109E70000420984707B0F0BD0A4B9A6C1B6D019304
:109E80004FF4805302920393F8E6034940F297207F
:109E900065E7022354E700BFAEC90700E06F00206A
:109EA000E8570020007B0020D86F0020DC6F0020E6
:109EB00083681BB1024A1821FCF74CBF072070478A
:109EC000319C070038B50546C0B10120FFF706FEFA
:109ED000044648B900F00CFC00F054FC30B9084BC3
:109EE00000201D60FFF720FE204638BD05490648CA
:109EF00000F07AFC0128F2D00324F5E70724F3E709
:109F0000E06F0020D86F0020DC6F002010B5002229
:109F1000044658210430FDF713F823681B1A5842F1
:109F2000584110BD2DE9F04115464FF460720646C8
:109F300088461F4602F0C8F818B905B1A8470020A6
:109F400006E0002201213046FFF7E6FD10B10320B4
:109F5000BDE8F0814FF460724146384602F0C3F824
:109F60002B464FF4607239463046FFF7C7FD002894
:109F7000E5D0ECE770B50D4C06460022582120468E
:109F8000FCF7DEFF002244F8040CC32104F517702F
:109F9000FCF7D6FF251FC4F8580232462946044B69
:109FA0000448BDE87040FFF7BDBF00BF047B002040
:109FB000E46F002000F0070070B50B680133054620
:109FC0000C460DD1094940F27910FCF7D5FF08483D
:109FD000084B00682A462146BDE87040FFF7A2BF43
:109FE0000846FFF793FF0028F1D1EBE70BCA070003
:109FF000EC570020647300200149FFF7DDBF00BF6C
:10A0000000F0070038B505460020FFF7B3FF04460F
:10A0100018B903492846FFF7CFFF204638BD00BFD7
:10A02000007B0020F8B5FFF759FD054608B1032075
:10A03000F8BD3E480368013302D0FFF767FF0546CD
:10A040003B4F3C4C3E68326801325AD03046FFF7F5
:10A050005DFF002859D07368012B5DD0002206F502
:10A060001870C321FCF76CFFD6F85C321A1A5642FE
:10A070005641A5B14FF460722C492E4802F033F8D6
:10A08000E6B139682C485422043102F02CF83968C2
:10A090002A484FF432725C3102F025F80EE0834218
:10A0A00004D14FF4607239682248F5E74FF46072CA
:10A0B0000021204802F022F8012363606568012D29
:10A0C00019D11F49402201F5E47002F00CF81D4936
:10A0D0001C2201F5E47002F006F81B4984F8A15235
:10A0E0000023042201F2862084F8603284F8E232F0
:10A0F00001F0F9FF65600020FFF784FF002897D08A
:10A1000095E7002DD2D00026B4E7002DCED04FF435
:10A11000607206492046BFE7002DC2D04FF460723E
:10A120000249204601F0DFFFABE700BF00F0070067
:10A13000EC570020007B0020047B00205C7B00208B
:10A140005C7C00209C7C00201C7B002029DF704769
:10A1500038B50C4D0446D5F8643378B101330FD1CE
:10A16000002218210430FCF7EBFE2060214605F5A3
:10A1700059700722BDE83840FFF7E8BF0E2038BD10
:10A180000820FCE700F0070008B528B11C220349AD
:10A1900001F0A9FF002008BD0E20FCE764F30700D2
:10A1A00010B5064C002218212046FCF7C9FE54F8D1
:10A1B000043C1B1A5842584110BD00BF68F3070009
:10A1C00008B50A4BD3F82423013203D1D3F8643302
:10A1D000013309D04FF4FE20FDF7F0FCC9220349FA
:10A1E0004FF4FE20FDF702FD002008BD007B00209B
:10A1F000F8B5094E094CA41B0746E4080025A54202
:10A2000001D10020F8BD56F835303846984700286F
:10A21000F8D10135F3E700BF58CD070060CD070046
:10A22000F8B5094E094CA41B0746E4080025A542D1
:10A2300001D10020F8BD06EBC50338465B6898479E
:10A240000028F7D10135F2E758CD070060CD0700AF
:10A2500008B50C22002101F051FF024B00221A63C5
:10A2600008BD00BF007B002043F204031A68084BBE
:10A270009A4201BF43F20803186800F6FF7020F409
:10A280007F600CBF20F00F004FF48050704700BF7C
:10A29000DBE5B15108B5FFF7E7FF054B9B691844B3
:10A2A00000F6FF7020F47F6020F00F0008BD00BFB3
:10A2B000007B00204FF48050704700002DE9F74FDD
:10A2C000DFF8A8A0DFF8A8B0254E00910546174694
:10A2D00099460024012C20D0022C2ED0FFF7DAFF63
:10A2E0008046C7B1DBF820305A1E534253414645E1
:10A2F00005D21C490193B120FCF73EFE019BA6EB61
:10A300000802AA4201D30099E9B1D3B9022C22D0A4
:10A310000134E4B2DEE73B46E9E7FFF7A5FF8046FC
:10A32000B9F1000F07D143F204031B68B3EB0A0332
:10A3300018BF0123DBE72346D9E701234FF48058F8
:10A34000D5E7AA4209D314B10748FFF781FF0020DF
:10A3500003B0BDE8F08FAA42F6D20420F8E700BFB0
:10A3600000E0060065CA0700187B0020DBE5B1515C
:10A37000007B002090F8552012F0FB0F07D190F8D9
:10A38000643023B1836ECBB10B600120704712F0B3
:10A39000010303D090F8563003B1836D9207F2D5D4
:10A3A00090F85C20002AEED0054A006EC2F5FC222F
:10A3B000904201D80344E6E7042070470F2070471D
:10A3C0000060070010B5084C4FF40072FF212046D2
:10A3D00001F094FE20220021A4F1240001F08EFE61
:10A3E000002344F82C3C10BD5C7B002030B55B683A
:10A3F000DA680D4B9A4208D10C490A6812B90C4A26
:10A4000014681CB10B4B00221A7030BDD0E9013426
:10A41000181913F9015B002DA0EB0304F9DB0B60A5
:10A420001460044B0122EFE714C807000C770020EA
:10A43000087700201077002010B543F20403194A72
:10A440001C68944201462BD042F20403C358981A68
:10A45000434243419442184621D142F20403CB586F
:10A46000A3421CD14FF4405301F500521B781278DF
:10A47000142B81BF43F214030B481B68B3FBF0F3AA
:10A4800098BF0023142A89BF42F214020020885882
:10A49000054A88BFB0FBF2F0181A18BF012010BDA2
:10A4A0000023D7E7DBE5B15140420F002DE9FF471C
:10A4B0002F49304D8A6B304C304FDFF8D490DFF8A5
:10A4C000D4A06E465C313046FEF764FB96E80F0080
:10A4D00085E80F0000212A4B39704FF4477220465F
:10A4E000C9F80010CAF80010EB6001F007FE224620
:10A4F00024492846FEF7EFFD20B90027384604B06E
:10A50000BDE8F0873F78002FF7D094F86C3194F8CD
:10A5100000801BB3B8F1000FEFD194F87231002B1B
:10A52000EBD0DAF80020D9F800103046FEF732FB05
:10A5300096E80F0085E80F004FF4B272414604F52B
:10A54000BA7001F0DBFD04F5BA720F492846FEF738
:10A55000C2FD0028D1D004F5BA7406E0B8F1000FAE
:10A56000CBD0A379002BC8D00834084B1C60C5E7BA
:10A57000007B0020307A0020147700201077002024
:10A58000EDA30700C8C8070014C80700EC7A002034
:10A590000C7700200877002000B591B0FDF710FC83
:10A5A00018B10D49DB20FCF7E7FC20220B49684677
:10A5B000FDF756FC40236A4609490A48FDF758FB57
:10A5C00018B10549E520FCF7D7FC074B01221A70AA
:10A5D00011B05DF804FB00BFBCCA070078C10700DA
:10A5E000407A0020D0C50700E4760020F0B5A3B083
:10A5F00006460F4615461C4678222023002104A853
:10A60000029301F07BFD00230393194B1B780BB9D8
:10A61000FFF7C2FF2FB336BB02AB164E0193009675
:10A62000289B1549224604A8FDF7B0FBE8B9402D48
:10A630001BD1124C2A463946204601F054FD2021F8
:10A640002046FDF71AFCCDE90045029B0C49324635
:10A6500003A8FDF729FB002814BF0520012023B023
:10A66000F0BD1320FBE71620F9E70A20F7E700BF4B
:10A67000E4760020887A00206CC70700A87A0020C2
:10A68000407A0020F0B5ABB004460E4617461D4692
:10A690007822202300210CA8039301F02FFD114BF9
:10A6A0001B780BB9FFF778FF2DB12146202204A8B3
:10A6B000FDF7BAFB04AC03AB0B4D019300953B4691
:10A6C00032460A490CA8FDF761FB48B92022214611
:10A6D000284601F0F9FCB0FA80F040092BB0F0BD3B
:10A6E0000020FBE7E4760020E57600206CC7070039
:10A6F00010B5064B064C9B6B2BB1FFF7D7FE10B184
:10A700000123237010BD0023FBE700BF007B002066
:10A71000E87A002010B5044658B1B0F5007F0AD899
:10A72000064B00221A70FFF74DFE054B01209C637B
:10A7300010BD0320FCE70420FAE700BFE87A002000
:10A74000007B002070B50E4C0646E06BA36B4218F0
:10A750009A420D4611D85C300A462044314601F039
:10A76000C2FCE36B04F140022B4429463046E3630C
:10A77000FCF7E6FB2064012070BD0320FCE700BF6E
:10A78000007B0020014B1878704700BFE87A00205A
:10A7900013B5124C94F86C2182B194F8D802B4F835
:10A7A000DA2204F5377104F5B87494F859304BB9CE
:10A7B000201D02B0BDE8104000F0D2B9114610468D
:10A7C0000434F2E7064B1B680093064B1B68FFF747
:10A7D0000DFF0128ECD002B010BD00BF147700209F
:10A7E000087700200C7700202DE9F0411F4BD3E9BA
:10A7F0000E329A4207460D4633D1DFF8788098F83A
:10A8000000604EB1FFF746FD194B386029461868C5
:10A81000BDE8F041FFF7AEBDFFF748FE18B3FFF704
:10A82000B7FF01283E6004462E6017D1104B294621
:10A830001868FFF79FFD012804460FD103463246F2
:10A8400031462868FFF73AFD38B9FFF723FD88F84D
:10A85000004038602046BDE8F0810424FFF7B2FDD7
:10A86000F8E70824F6E70524F4E700BF007B0020A2
:10A87000EC7A0020E87A002070B50D4616460446B2
:10A8800020B907494FF42E70FCF776FB3246294673
:10A8900004F172000123BDE87040FFF7F3BE00BF72
:10A8A000BCCA070037B503780D461146032B21D8E3
:10A8B000DFE803F027020E17D0F8014000222846F7
:10A8C000FCF73EFB844214BF0020012003B030BDE2
:10A8D0000A4600232946013003B0BDE83040FFF7A7
:10A8E000D1BE00912B46411C40220020FFF77EFE86
:10A8F0000128E8E74FF477700349FCF73DFB00209F
:10A90000E4E70120E2E700BFBCCA07002DE9F041FF
:10A91000A2B004460D46174600217822984604A8A6
:10A92000202303939DF8A06001F0E8FB4122002161
:10A93000204601F0E3FBB5F894300BB195F8966032
:10A940002670032E1ED8DFE806F00902111F002230
:10A9500041463846FCF7F4FAC4F80100424639464D
:10A960002046FFF79FFF22B0BDE8F08103AB0193C3
:10A97000631C00933A464346074904A8FDF706FACC
:10A980000028EBD00020EEE7B5F8982005F19A01F9
:10A99000601C01F0A8FBE1E76CC707002DE9F04758
:10A9A000654B1D68A4B004460F4690460A46014612
:10A9B0002846FFF761FF002800F0BC8095F855603D
:10A9C0004EBB4FF00109CDF800903B462246294688
:10A9D00013A8FFF79BFF30B90525B8F1000F4ED142
:10A9E000FFF7F0FC34E0B8F1000F2ED0412213A99C
:10A9F000524801F078FB524BC3F82C901E626A68F3
:10AA00009A60002239462046FCF79AFA4C4B012501
:10AA1000C3E9097036E04122002102A801F06EFB73
:10AA200006F001094122002113A806F0020601F0F8
:10AA300065FBB9F1000F2AD1D6B942494FF45970DC
:10AA4000FCF79AFAB8F1000F15D13D4B01255D6175
:10AA5000284624B0BDE8F087AB6DE218FB1A002150
:10AA6000009113A82946FFF751FF00283CD1B3E716
:10AA70003B462246F3E7324BAA22DA624EE03248E6
:10AA8000FFF7E6FBFFF79EFC2D4B9C64E0E742F2EC
:10AA90000403E25803F1A34303F5471303F2D7532A
:10AAA0009A4299D1D5F858A00AF5FF520AF6FF73D9
:10AAB000C3F30B031F32D21A42F20803E358934246
:10AAC0008AD32046FFF7B8FC08B1002E84D00123BA
:10AAD000009322465346294602A8FFF717FF002895
:10AAE0003FF47AAF002EB7D1B8F1000FADD0B9F175
:10AAF000000FC0D02046FFF79FFC10B11348FFF7AE
:10AB0000A7FB412202A9124801F0EDFA002E0C4BDE
:10AB100014BFAC22A522DA62AA6D5A63002E3FF45C
:10AB200070AF412213A90B4801F0DDFA044B6A68AB
:10AB3000DA6066E7172550E7EC7A0020A17D002057
:10AB4000007B0020BCCA0700247B0020187B00206B
:10AB5000607D0020E27D00200122FFF71FBF000082
:10AB6000F8B5044618B92E49C420FCF705FA94F844
:10AB70005430002B4ED094F85530032B4AD894F81B
:10AB80006E20032A44D1227A002A43D0E268342A74
:10AB900042D143F20401228A08682249884227D11F
:10ABA00052B1616989B104F11405D2B2002143F2B6
:10ABB0000C06C8B2904201D3122018E0308855F834
:10ABC0002170874208D00131F3E72BB113F1FF3236
:10ABD00018BF0122002AEFD02278A2B1012B1DD983
:10ABE000114B6068DB6898428CBF01201020F8BDD3
:10ABF00012B16269002ADFD1012B0CBF2278012239
:10AC000002F00102E6E7012B8CBF0F200120EEE7E6
:10AC10001420ECE70F20EAE71120E8E70120E6E73F
:10AC200018CB0700DBE5B151007B002038B1054BA4
:10AC30000360054B436001230372002070470E2020
:10AC4000704700BF73AC07004DAC070069B10B78CB
:10AC5000022B0CD1022804D003280CBF112008209D
:10AC6000704703230B70002070470E2070470820A8
:10AC7000704710B50C4681B10B78042B04D8DFE87F
:10AC800003F00E05030E0E00112010BDFFF760FA51
:10AC90000028FAD102232370F7E70E20F5E70820F9
:10ACA000F3E70000F8B5044680691649164A10F823
:10ACB000025C521A0C230E46B2FBF3F23DB9206936
:10ACC000534300229A4205D10123236013E04FF041
:10ACD000FF30F5E7B758AF4201EB020E06EB020C6E
:10ACE0000ED1471C08D1DEF80850D4E90223D4E97C
:10ACF0000001A8472060F8BDDCF804708742F2D05C
:10AD00000C32DFE760CD07006CCD07001EF0040FAA
:10AD10000CBFEFF30880EFF30980FFF7C3BF00BF5C
:10AD200010DF704711DF704713B5044609496846C4
:10AD3000FCF758FD019808B902B010BDD0E9003108
:10AD40002046984718B16846FCF764FDF2E71120E9
:10AD5000F2E700BF7CCB070013B5044607496846FD
:10AD6000FCF740FD019B0BB902B010BD2046D3E9B2
:10AD7000002190476846FCF74DFDF3E794CB0700B0
:10AD8000064B9A6822B11A6822F480021A60704752
:10AD9000034B4FF48002C3F880207047F47A002000
:10ADA00000E100E00C4991F816335A09EC231341F5
:10ADB000DB0706D5094B9A684AB94FF480030B604C
:10ADC0007047074AA12142F20200FBF79DBA1A68B8
:10ADD00042F480021A60704700E100E0F47A00203B
:10ADE000A0CB0700F7B5184F3C785CBB174E012588
:10ADF00020463570FFF798FF112820D02046FFF736
:10AE0000ABFF134B1868019002A800F8054DFCF742
:10AE100047F8104901A8FFF783FF0446B0FA80F015
:10AE2000400938709DF80300FCF76AF83CB90A4BFA
:10AE300034701C70FFF7B6FF2846FFF78DFF2046E1
:10AE400003B0F0BD0824FAE7F17A0020F07A002080
:10AE500078CB07000F630700F27A0020F7B5154F93
:10AE60003B7813B3144E01203070FFF75DFF1128BB
:10AE70004FF000051BD00220FFF76EFF02A800F87C
:10AE8000015DFCF70DF8FFF74DFF04469DF8070044
:10AE90003D70FCF735F82CB93470FFF771FF0320D3
:10AEA000FFF75AFF204603B0F0BD0824FAE72C460E
:10AEB000F8E700BFF17A0020F07A0020054B1B78FC
:10AEC00033B1054B1B780BB1FFF7C8BFFFF78ABF43
:10AED00008207047F07A0020F17A0020014B1878A2
:10AEE000704700BFF17A002007B508496846FCF7B3
:10AEF00079FC019B13B903B05DF804FBD3E9002092
:10AF000090476846FCF786FCF3E700BF88CB070054
:10AF1000FFF7EABF60DF704769DF704761DF7047A6
:10AF200030B5134DADF5017D4FF4FA740DF102010A
:10AF300003A8ADF80240FFF7F1FF70B9294601A858
:10AF4000FCF750FC029B002BF0D003A8D3E90021B2
:10AF5000904701A8FCF75EFCF4E7052804D0054AF9
:10AF600040F23911FBF7D0F90DF5017D30BD00BF7E
:10AF700038CC0700EACB0700024B1B780BB1FFF778
:10AF8000CFBF7047F37A002018B1034B0360002055
:10AF900070470E20704700BFB8570020F0B5074635
:10AFA00085B00D4600295ED0304B0B600C2200218D
:10AFB00001A801F0A3F8012606232A68ADF808309D
:10AFC00001A920208DF804708DF80660FFF7A4FF1A
:10AFD0000C22002101A801F091F800242A688DF8C4
:10AFE000056001A940208DF806408DF80740FFF765
:10AFF00093FF0C22214601A801F080F8F7232A686C
:10B00000ADF8063001A923208DF80470FFF784FF06
:10B010000C22214601A801F071F82A688DF804601D
:10B0200001A93046FFF778FF0C22214601A801F064
:10B0300065F84FF4B0632A68019301A9A120FFF7D6
:10B040006BFF0C22214601A801F058F89DF804304E
:10B050002A68334301A9A0208DF80430FFF75CFF74
:10B06000204605B0F0BD0E20FBE700BFB85700201A
:10B0700008B5FFF74FFF10B9014B01221A7008BD48
:10B08000F37A00204BDF70471FB50E4C01A8FFF785
:10B09000F9FF70B9214602A8FCF7A4FB039B002B23
:10B0A000F4D00198D3E90021904702A8FCF7B2FB45
:10B0B000F4E7052803D0044A6B21FBF725F904B017
:10B0C00010BD00BF94CC070044CC07008B1802448D
:10B0D0008B4200D1704713F8010D02F8010DF7E71C
:10B0E000C3F10803DB0070B50133002403A500BFE2
:10B0F0005B1920C940CAAD1920C0184720C940CAF1
:10B10000754120C020C940CA754120C020C940CA2D
:10B11000754120C020C940CA754120C020C940CA1D
:10B12000754120C020C940CA754120C020C940CA0D
:10B13000754120C06441204670BD00BF0000000082
:10B14000C3F10803DB0070B50133002403A500BF81
:10B150005B1920C940CAAD1B20C0184720C940CA8E
:10B16000B54120C020C940CAB54120C020C940CA4D
:10B17000B54120C020C940CAB54120C020C940CA3D
:10B18000B54120C020C940CAB54120C020C940CA2D
:10B19000B54120C06441B4FA84F0400970BD00BFDD
:10B1A0002DE9F04F08B4F8CA04B451F8042BA3FBFE
:10B1B000028940F8048B4FF0000AE4FB629A4FF0DA
:10B1C000000BE5FB62AB4FF0000CE6FB62BC4FF0FE
:10B1D000000EE7FB62CE51F8042B4FF00008E3FBB2
:10B1E000628940F8048BE4FB629AE5FB62ABE6FB04
:10B1F00062BCE7FB62CE51F8042B4FF00008E3FB82
:10B20000628940F8048BE4FB629AE5FB62ABE6FBE3
:10B2100062BCE7FB62CE51F8042B4FF00008E3FB61
:10B22000628940F8048BE4FB629AE5FB62ABE6FBC3
:10B2300062BCE7FB62CE51F8042B4FF00008E3FB41
:10B24000628940F8048BE4FB629AE5FB62ABE6FBA3
:10B2500062BCE7FB62CE40F8049B40F804AB40F8C8
:10B2600004BB40F804CB40F804EB0CBC052B00F009
:10B270001E810C68A0F11400A1F11401A2F11402C6
:10B2800052F804EB4FF0000550F8046BE4FB6E56E7
:10B2900052F804EB50F8047BE4FB6E6752F804EBC1
:10B2A00050F8048BE4FB6E7852F804EB50F8049BE2
:10B2B000E4FB6E8952F804EB50F804ABE4FB6E9AA1
:10B2C000A0F1140052F8044B51F804EB4FF0000CBD
:10B2D000E4FB6EC540F804CB51F804EBE4FB6E567A
:10B2E00040F8045B51F804EBE4FB6E6740F8046B34
:10B2F00051F804EBE4FB6E7840F8047B51F804EB62
:10B30000E4FB6E8940F8048B51F804EBE4FB6E9A81
:10B31000A0E80006062B00F0CA800C68A0F1180017
:10B32000A1F11801A2F1180252F804EB4FF0000548
:10B3300050F8046BE4FB6E5652F804EB50F8047BB3
:10B34000E4FB6E6752F804EB50F8048BE4FB6E7874
:10B3500052F804EB50F8049BE4FB6E8952F804EBBE
:10B3600050F804ABE4FB6E9A52F804EB50F804BBBF
:10B37000E4FB6EABA0F1180052F8044B51F804EB5B
:10B380004FF0000CE4FB6EC540F804CB51F804EB21
:10B39000E4FB6E5640F8045B51F804EBE4FB6E6787
:10B3A00040F8046B51F804EBE4FB6E7840F8047B42
:10B3B00051F804EBE4FB6E8940F8048B51F804EB80
:10B3C000E4FB6E9A40F8049B51F804EBE4FB6EAB8F
:10B3D000A0E8000C072B6AD008B40C68A0F11C0090
:10B3E000A1F11C01A2F11C0252F804EB4FF0000580
:10B3F00050F8046BE4FB6E5652F804EB50F8047BF3
:10B40000E4FB6E6752F804EB50F8048BE4FB6E78B3
:10B4100052F804EB50F8049BE4FB6E8952F804EBFD
:10B4200050F804ABE4FB6E9A52F804EB50F804BBFE
:10B43000E4FB6EAB52F804EB50F804CBE4FB6EBCBB
:10B44000A0F11C0052F8044B51F804EB4FF000033C
:10B45000E4FB6E3540F8043B51F804EBE4FB6E5618
:10B4600040F8045B51F804EBE4FB6E6740F8046BB2
:10B4700051F804EBE4FB6E7840F8047B51F804EBE0
:10B48000E4FB6E8940F8048B51F804EBE4FB6E9A00
:10B4900040F8049B51F804EBE4FB6EAB40F804ABBE
:10B4A00051F804EBE4FB6EBCA0E8001808BCBDE852
:10B4B000F08F002310B51C465AB2914200DC10BD3B
:10B4C00040F823400133F7E710B500231A465CB279
:10B4D000A14203DCB2FA82F0400910BD50F82340CB
:10B4E00001332243F3E74A11012350F8220001F00F
:10B4F0001F0103FA01F108407047013949B20A06F9
:10B50000CBB205D4013900EB81025268002AF6D093
:10B5100001335BB273B103F18042013A50F822204B
:10B52000002022B9013B00EB431318B270475208C8
:10B530000130F6E71846704710B500235CB2A2420E
:10B5400000DC10BD51F8234040F823400133F5E7FB
:10B5500010B5013A52B2130601D5002010BD50F8C3
:10B56000224051F822309C4205D802F1FF32F2D23B
:10B570004FF0FF30F2E70120F0E700EB81010023FC
:10B58000884200D3704751F8042D43EA52030B6000
:10B59000D307F5E770B59DF910401E4623460546D2
:10B5A000FFF79EFD30B9224629463046FFF7D0FF0F
:10B5B000012807D02346324629462846BDE8704078
:10B5C000FFF7BEBD70BD70B59DF910401E46234605
:10B5D0000546FFF7B5FD38B12346324629462846D1
:10B5E000BDE87040FFF77CBD70BD2DE9F04FB5B0F0
:10B5F00004AD9DF9F8401F46814623462846FFF7D3
:10B60000CFFD24AB21463846CDE90235FFF775FF63
:10B61000C0EB841005B26B4203F01F034FF020060D
:10B6200095FBF6F676B205F01F0814A858BFC3F1D3
:10B6300000083146FFF73DFFB8F1000F30B22DDDB5
:10B6400014AB002203EB8000C8F1200C1346A34288
:10B6500019D327B27B00019314AB03EB870704F1E6
:10B66000FF3834AB012603EB8808002D53DA34ABE6
:10B6700003EB8606224656F8C81C4846FFF75CFFD7
:10B6800035B0BDE8F08F57F8236006FA08F10A4399
:10B6900040F8232026FA0CF20133D8E714AB2246F7
:10B6A000394603EB8000FFF747FFD2E70FFA82FE2F
:10B6B0005AF8C83C53F82EB034AB03EB820252F870
:10B6C000803CABEB03031B1A9B4502D034BF012027
:10B6D00000205CF8C82C42F82E300131019B4AB2A0
:10B6E0009A42E3DB331A5E42214614A85E41FFF71B
:10B6F00044FF34AB03EB8403214653F8802C58F805
:10B70000803C384643EAC273013D48F8803C2DB284
:10B71000FFF733FFA9E734AB0021C6F1010C08465F
:10B7200003EB860A03EB8C0CD8E730B51C4691B0CE
:10B73000054693F900306846FFF732FDD4F8AC3087
:10B7400069462846984711B030BD13460A46FFF7B0
:10B75000ECBF2DE9F04793F9006092B004468946AA
:10B760001046314615469846FFF7AEFE002840F0D9
:10B7700091804246494602A8FFF7E7FF434602AAE6
:10B7800021460AA8FFF7D1FF02A908464246FFF763
:10B79000DCFF43462A4649464846FFF7C6FF08F104
:10B7A0000407424629462846FFF7CFFF3B462A4674
:10B7B000214620460096FFF7EDFE3B462A462946E5
:10B7C00028460096FFF7E6FE3B462A4621462846D5
:10B7D0000096FFF7F8FE43462A4621462046FFF72B
:10B7E000A4FF3B462246214628460096FFF7D2FE9C
:10B7F0003B4600962A4621462046FFF7CBFE2368AB
:10B80000DB074AD533463A4621462046FFF768FC17
:10B81000314682462046FFF7B0FE06F18043013BE9
:10B8200054F8230040EACA7044F8230042462146F7
:10B830002846FFF78AFF3B460AAA29462846009673
:10B84000FFF7C1FE3B460AAA294628460096FFF7A5
:10B85000BAFE0AA908463B462A460096FFF7B3FE01
:10B8600043460AAA21462046FFF75FFF02AA3B464D
:10B87000104621460096FFF7A6FE3246294620468E
:10B88000FFF75AFE49462846FFF756FE02A94846EA
:10B89000FFF752FE12B0BDE8F08731462046FFF7B1
:10B8A0006CFEC3E72DE9F0438BB00446154689468C
:10B8B0000AAE1C22002103A800F020FC032346F856
:10B8C000203D95F900802A46494620462F1DFFF766
:10B8D0003CFF3B46324621462046CDF80080FFF72C
:10B8E00072FE2B464A4621462046FFF71EFFCDF842
:10B8F00000803B4605F1840221462046FFF74AFEC0
:10B900000BB0BDE8F0830000F0B5082289B00C460A
:10B910000646FFF711FECB6A03930B6B04934B6B48
:10B9200005938B6B0693CB6B0793002708236A461E
:10B9300069466846CDE901770097FFF7D1FB0823F8
:10B9400005466A4631463046FFF7CAFB236B039330
:10B95000636B0493A36B0593E36B0544CDE9063752
:10B960006A46082369466846FFF7BAFB0823054480
:10B970006A4631463046FFF7B3FB236A0093636A99
:10B980000193A36A0293A36B0693E36B07930544A9
:10B9900008236A4631463046CDE904770397FFF71E
:10B9A0009FFB636A0093A36AA26B0193E36A02930D
:10B9B0000492636BE26B0393CDE90523236A07933B
:10B9C000054408236A4631463046FFF789FBE36A9F
:10B9D0000093236B0193636B0293236A0693A36A1C
:10B9E0000793054408236A4631463046CDE904777B
:10B9F0000397FFF7A5FB236B0093636B0193A36B86
:10BA00000293E36B0393636A0693E36A07932D1A29
:10BA100008236A4631463046CDE90477FFF790FBAC
:10BA2000636B0093A36B0193E36B0293236A03930D
:10BA3000636A0493A36ACDE90537236B07932D1A34
:10BA400008236A4631463046FFF77AFBA36B009322
:10BA5000E36BCDE90137636A0393A36A0493E36A56
:10BA6000CDE90537636B07932D1A08236A463146E3
:10BA70003046FFF765FB2D1A0D4C0FD435B908225F
:10BA800031462046FFF764FD01280FD008232246E7
:10BA900031463046FFF754FB2D1AEFE708232246C4
:10BAA00031463046FFF71CFB2D18F7D409B0F0BD26
:10BAB000A4CC0700F0B5154689B01C4607460E46D3
:10BAC0001A4629466846FFF740FE23466A4639462D
:10BAD0003846FFF72AFE23462A4669466846FFF79E
