:0200000270008C
:1060000000FF0020956A0700BD6A0700BF6A07000D
:10601000C16A0700C36A0700C56A070000000000E4
:1060200000000000000000000000000069AE070052
:10603000C96A070000000000CB6A0700CD6A0700AC
:10604000CF6A0700CF6A0700CF6A0700CF6A070050
:10605000CF6A0700CF6A0700CF6A0700CF6A070040
:10606000CF6A0700CF6A0700CF6A0700CF6A070030
:10607000CF6A0700CF6A0700CF6A0700CF6A070020
:10608000418A0700CF6A0700CF6A0700CF6A07007E
:10609000CF6A0700CF6A070069B00700CF6A070020
:1060A000CF6A0700CF6A0700CF6A0700CF6A0700F0
:1060B000CF6A0700CF6A0700000000000000000060
:1060C000CF6A0700CF6A0700CF6A0700CF6A0700D0
:1060D000A1860700CF6A0700CF6A07000000000012
:1060E00000000000000000000000000000000000B0
:1060F00000000000000000000000000000000000A0
:10610000000000000000000000000000000000008F
:10611000000000000000000000000000000000007F
:10612000000000000000000000000000000000006F
:10613000000000000000000000000000000000005F
:10614000000000000000000000000000000000004F
:10615000000000000000000000000000000000003F
:10616000000000000000000000000000000000002F
:10617000000000000000000000000000000000001F
:10618000000000000000000000000000000000000F
:1061900000000000000000000000000000000000FF
:1061A00000000000000000000000000000000000EF
:1061B00000000000000000000000000000000000DF
:1061C00000000000000000000000000000000000CF
:1061D00000000000000000000000000000000000BF
:1061E00000000000000000000000000000000000AF
:1061F000000000000000000000000000000000009F
:1062000010B5054C237833B9044B13B10448AFF3F0
:1062100000800123237010BD4C2B002000000000E3
:10622000B8CE070008B5034B1BB103490348AFF3D1
:10623000008008BD00000000502B0020B8CE0700F1
:10624000154B002B08BF134B9D46A3F5803A002148
:106250008B460F461348144A121A05F0F3FF0F4BF2
:10626000002B00D098470E4B002B00D09847002001
:10627000002104000D000D48002802D00C48AFF3A7
:10628000008005F09FFF2000290000F0F5F805F0E0
:1062900085FF00BF0000080000FF00200000000094
:1062A000000000004C2B0020605100200000000086
:1062B00000000000BFF34F8F0549064BCA6802F487
:1062C000E0621343CB60BFF34F8F00BFFDE700BF19
:1062D00000ED00E00400FA05704700001F2810B52B
:1062E000044604D905494FF4F37000F051FF012032
:1062F0004FF0A043A040C3F80C0510BD80C20700BA
:106300001F2810B5044604D906494FF4F37000F075
:106310003FFF04F5E0744FF0A043032243F824202C
:1063200010BD00BF80C2070008B5FFF7C3FF08B566
:10633000FFF7C0FF38B50368B3F57C7F044608D18A
:106340004FF01023D3F80C321BB100211E4801F08E
:106350004BFD637E03F0FD02012A02D0053B012BB9
:1063600030D82079FFF7CCFF237E257913F0020F78
:1063700024D01F2D04D915494FF4F37000F008FF05
:10638000012303FA05F54FF0A043C3F808556079DF
:10639000FFF7B6FF6079FFF7A1FF237EDB0711D57A
:1063A000E079FFF7ADFFE079FFF798FFA079FFF7FD
:1063B000A7FFA079BDE83840FFF790BF2846FFF758
:1063C0008DFFE4E738BD00BF0C12001080C207004B
:1063D0004FF08043D3F81C35422B17D003F01F0237
:1063E0001F2A09D14FF08043B122C3F81C254FF07A
:1063F0008043D3F81C357047C3F380124FF08041BF
:106400000133C1F81C35002AECD1F0E70122F5E791
:1064100007B5124B1B788DF80030114B1B88ADF877
:106420000130104B1B788DF803300F4B1B788DF823
:1064300004300E4B1B788DF805300D4B1B788DF812
:1064400006300C4B08221B788DF807306946022075
:1064500000F0F2FA03B05DF804FB00BFF4CD0700D2
:10646000F2CD0700FBCD0700FCCD0700FDCD0700F6
:10647000FECD0700F0CD070010B594B050220021EA
:10648000684605F0DFFE684600F0D2F96846FFF77F
:1064900051FFFFF79DFF002210464FF4805101F09D
:1064A000FBFF024608B1FFF705FF0A48C0F5FC21D3
:1064B00001F0F2FF0028F6D1FFF7AAFF064801F02D
:1064C00013FF04460028EED101F0D4FF204614B09B
:1064D00010BD00BF00600700D96207001A4B43607F
:1064E0004FF4817343810323C37341F21433038256
:1064F00040F60A13C382038BDFF864C003F0800305
:1065000043F4427343F001030383104B0362104BC7
:10651000C36140F2C97240F2BC73C0E9092340F67E
:10652000AC514FF49663C0E90B134363094BC3634B
:10653000094B0364EC2380F83830084BC0E911C3E1
:10654000DD2380F84C307047080B0607CDCC4C3E5D
:10655000E02D903B5C8F423F85EBD13EF04902003D
:10656000400D03001A4B1B4AC0E901234FF400738E
:10657000C38141F21433038240F20673C382038B5A
:1065800003F0800343F4AC6343F001030383124B35
:106590000362124BC3614FF4FA716FF07C03C0E9E0
:1065A00009134FF0000C4FF4E163C0E90BC34FF443
:1065B000167343630A4BC3630A4B0364EC2380F8EE
:1065C0003830094BC0E91133DD2380F84C30704777
:1065D00004050601080A0E0D378981BE1EA7E83B97
:1065E0003333B33E9A99993E80841E001A4B436020
:1065F0004FF4817343810323C37341F21433038245
:1066000040F60A13C382038BDFF864C003F08003F3
:1066100043F4847343F001030383104B0362104B74
:10662000C36140F2D37240F2CD73C0E9092340F256
:10663000DC514FF49663C0E90B134363094BC3630A
:10664000094B0364EC2380F83830084BC0E911C3D0
:10665000DD2380F84C307047080B0607CDCC4C3E4C
:10666000BC74933B5C8F423F85EBD13EF049020006
:10667000400D03001B4B43604FF4817343814FF483
:106680004073C38141F21433038240F60A13C3827C
:10669000038B154903F0800343F4B47343F0010303
:1066A0000383124B0362124BC3616FF062034362B8
:1066B000AB3B836242F228324FF49663C0E90B236E
:1066C0004FF4167343630B4BC3634FF07A53036469
:1066D000EC2380F83830084BC0E91113DD2380F833
:1066E0004C307047080B0607400D0300A01A2F3EE0
:1066F00048507C3B3333333FF04902001D4B43602D
:10670000012303724FF4E06343811B4BC36003F129
:10671000F05303F5A81303F611530361174B4361BC
:10672000038B174903F0800343F4CC6343F0070362
:106730000383144B0362144BC36100234362A3F52C
:106740008773836242F2283240F21453C0E90B236C
:106750004FF4167343630D4BC3630D4B0364EC237B
:1067600080F838300B4BC0E91113DD2380F84C3032
:10677000704700BF080B0F0D0507030222240829EC
:10678000400D0300F931463E48507C3B1A51BA3E59
:106790001283A03EF0490200174B436040F20123F0
:1067A00043810423C3814FF4C163038241F2134345
:1067B000C382038B03F0800343F48F7303830023AE
:1067C0000362C3614FF47A73C0E9093300224FF4C6
:1067D0006163C0E90B2343634FF08043C3634FF011
:1067E0007E530364D82380F83830044BC0E911335A
:1067F000DD2380F84C30704711160B0C80841E008E
:1068000008B5FFF7C9FF0423437608BD41F61923F5
:106810000382038B03F0F00343F400730383EC2340
:1068200080F83830014BC0E91133704780841E0076
:1068300038B54FF010230546D3F88440631C04BFDD
:10684000224B1C68B4F57C7F1BD840F2EF339C428E
:106850002CD2642C30D008D8A4F12803022B2ED9D6
:106860002846FFF7C3FE072038BDC82C2AD0F7D32F
:10687000A4F57A73042BF3D8FFF730FE2C600020C8
:10688000F2E7B4F5BC6F0AD840F2DF539C4210D255
:1068900040F2DC539C42E3D3FFF7A8FEEEE740F260
:1068A000E1539C42DCD1FFF729FFE7E7FFF75AFEEF
:1068B000E4E7FFF7DFFEE1E7FFF7A8FFDEE7FFF71A
:1068C0006BFFDBE7FFF79CFFD8E700BF00CE0700B8
:1068D00000B591B040220021684605F0B3FC4FF0AE
:1068E0001023D3F884305A1C5DD0B3F57A7F48D09A
:1068F00040F2E932934246D040F2EA32934244D029
:1069000040F2EB32934242D0B3F57B7F41D040F26C
:10691000EF3293423FD0B3F57C7F3ED040F2DC5261
:1069200093423CD040F2DD5293423AD040F2DE52E4
:10693000934238D040F2DF52934236D0B3F5BC6F69
:1069400035D0642B35D0C82B35D0282B35D0292B0A
:1069500035D01C491C4A2A2B08BF114606A801F055
:10696000C6FB08A8194901F0C2FB012368468DF84F
:106970003C3000F005FA08B1FFF7D9FC11B05DF822
:1069800004FB1349EAE71349E8E71349E6E713492B
:10699000E4E71349E2E71349E0E71349DEE7134967
:1069A000DCE71349DAE71349D8E71349D6E7134977
:1069B000D4E71349D2E71349D0E71349CEE7134987
:1069C000CCE700BF8CC30700D6C30700F5CD070096
:1069D0002CC3070038C3070044C3070050C3070097
:1069E0005CC3070068C3070074C3070080C30700C7
:1069F00014C3070020C3070094C30700A0C3070007
:106A0000ACC30700B8C30700C4C30700CDC3070069
:106A1000427803781344021D1C3012F8011B0B440A
:106A200090429BB2F9D1D8B200EB1323C3F30F20ED
:106A30001844C04380B270472DE9F041164609B3AF
:106A4000052821D8182A21D81C234343104DE85487
:106A5000C0EBC000840005EB0308271D2F4488F815
:106A60000120384605F0E0FBC6F118020021B819F4
:106A700005F0E8FB2819FFF7CBFFA8F8020000207B
:106A8000BDE8F0810520FBE70120F9E70220F7E7E8
:106A900000FF00200649074A074B9B1A03DD043B11
:106AA000C858D050FBDC00F04DF8FFF7C9FB0000E0
:106AB0001CCF0700982A00204C2B0020FEE7FEE7A1
:106AC000FEE7FEE7FEE7FEE7FEE7FEE7FEE7FEE79E
:106AD0000C4B1B78062B10D10B4B1B681A070CD1E3
:106AE0000A4B186800F0F003302B08D000F0E000EB
:106AF000A0F14003584258417047002070470120E0
:106B0000704700BFE00F00F0E40F00F0E80F00F066
:106B1000094B1B78062B0CD1084B1B681A0708D1B0
:106B2000074B186800F0F000A0F1300358425841BC
:106B300070470020704700BFE00F00F0E40F00F046
:106B4000E80F00F008B5FFF7C3FF28B1604B614ABA
:106B50001B68C3F304231360FFF7DAFF10B15E4B29
:106B60005E4A1A60FFF7B4FF28B15D4B5D4A1B68AF
:106B7000C3F342331360FFF7CBFF20B15A4AD36807
:106B800023F08073D360FFF7A3FF40B14FF0804341
:106B90000022C3F80C21C3F81021C3F83825FFF7F1
:106BA000B7FF10B1514B03221A60FFF7B1FF40B19C
:106BB0004F4B05221A6001229A6700229A603F22F9
:106BC0005A604C4B1B78062B50D14B4B1B68190756
:106BD0004CD14A4B1B6803F0F003502B46D14FF0C9
:106BE0008052474BD2F80414C3F82015D2F8081489
:106BF000C3F82415D2F80C14C3F82815D2F81014D1
:106C0000C3F82C15D2F81414C3F83015D2F81814A0
:106C1000C3F83415D2F81C14C3F84015D2F8201468
:106C2000C3F84415D2F82414C3F84815D2F8281430
:106C3000C3F84C15D2F82C14C3F85015D2F8301400
:106C4000C3F85415D2F83414C3F86015D2F83814C8
:106C5000C3F86415D2F83C14C3F86815D2F8401490
:106C6000C3F86C15D2F84424C3F87025FFF730FF41
:106C700028B1244B244A1B6803F04F031360FFF72D
:106C800027FF48B14FF08043D3F80024D20744BF18
:106C90006FF00102C3F800241C4B1B68062B08D1BF
:106CA0001B4B1B68062B01BF1A4A136843F4806311
:106CB0001360194AD2F8883043F47003C2F8883060
:106CC000BFF34F8FBFF36F8F144B154A1A6008BD87
:106CD000240300104035014074C007400DF0ADBAE8
:106CE000440200103C050040F0ED00E0A00500402B
:106CF00010560040E00F00F0E40F00F0E80F00F045
:106D000000C0004058020010E40E004030010010A6
:106D1000340100103C17004000ED00E0982A0020EC
:106D20000090D003A8DF7047F0B5074689B014463D
:106D30001E460D4611B90846FFF7F9FA14B9204668
:106D4000FFF7F5FA20220021684605F07BFA9DF84E
:106D50000D300E9AADF8007043F002038DF80D303F
:106D6000064BADF8044069461888ADF80640029518
:106D70008DF8116001F0C4F909B0F0BDA02B00201E
:106D800030B587B041F60A0304465C4AADF80C30D2
:106D9000012003A98DF80E00FFF7C4FF0546002867
:106DA00049D12288002A49D1228952B1544B0093FB
:106DB000E16894F83C3042F62420FFF7B5FF002844
:106DC00047D1228A52B14F4B0093616994F83C300D
:106DD00042F62520FFF7A8FF00283AD1228B52B1B6
:106DE000494B0093E16994F83C3042F62720FFF7C5
:106DF0009BFF00282DD1228C4AB1444B0093616A3D
:106E000094F83C3042F62620FFF78EFF08BB228D17
:106E10004AB13F4B0093E16A94F83C3042F6282097
:106E2000FFF782FFA8B9236BABB9616B002938D19A
:106E3000A36B002B42D1284607B030BD354B0093E1
:106E4000616894F83C3042F62920FFF76DFF002876
:106E5000AAD00546EFE71A688DF810201A68120AC2
:106E60008DF811205A888DF81220DA788DF81320C9
:106E70005A688DF814209B688DF815301A0A1B0C7F
:106E80008DF81730244B8DF816200093082294F8C3
:106E90003C3004A942F62320FFF746FF0028C4D067
:106EA000D7E71E4B0A790093096894F83C3042F604
:106EB0002A20FFF739FF0028BAD0CAE71A788DF8E0
:106EC00010205A888DF81120120A8DF812209A8805
:106ED0008DF81320120A8DF81420DB888DF81530F8
:106EE0001B0A8DF816300E4B0093072294F83C30A5
:106EF00004A942F65020FFF717FFAAE7A02B0020B5
:106F0000802B0020982B0020702B0020682B002065
:106F1000A22B0020782B0020AA2B0020902B0020F1
:106F2000882B00204B1C30B5DB00044612F0030018
:106F30009BB20DD1074D2A601A44074B1A60074BCC
:106F40001870074B1870074B1C80074B198030BD19
:106F50000720FCE7B82B0020B42B0020B22B002028
:106F6000C02B0020BC2B0020BE2B00202DE9F347B6
:106F70002B4D2B888B4206460C4617464CD34FF0C0
:106F800000080DF107008DF8078000F095F8254BFB
:106F9000254A18781178CBB2244909888B4238BF2A
:106FA0000133C0B238BF5FFA83F840452ED092F863
:106FB00000801378DBB2994286BF0133DBB2002335
:106FC00013709DF8070000F0A7F84FF6FF7398457F
:106FD00024D0DFF860A0DAF800304FEAC80903EBEC
:106FE000090243F83870A6B19CB1114B28881B6880
:106FF000224608FB0030314605F016F9DAF8003079
:107000004B4400209C8002B0BDE8F0874FF6FF782B
:10701000D7E700209080F6E70920F4E70420F2E7A4
:10702000BC2B0020C02B0020B22B0020BE2B002048
:10703000B42B0020B82B0020F8B5124C124D264678
:1070400022782B789A4200D1F8BD23780F48104A55
:10705000078812680F48DBB219B202EBC10C006856
:1070600052F83120BCF8041003FB070090470A4A8D
:1070700023781288DBB29A4286BF0133DBB2002349
:107080003370DDE7C02B0020B22B0020BC2B00208A
:10709000B82B0020B42B0020BE2B0020EFF305837B
:1070A000C3F308032BB9EFF31480C04300F00100D1
:1070B000704701207047000070B50446FFF7EEFFEF
:1070C000012803D01049432000F062F8EFF3108646
:1070D00072B60E4A9068012398B993600C4B0D4D1F
:1070E000D3F8801029401160C3F88050D3F8841081
:1070F00051604FF0FF32C3F88420207006B962B6A9
:1071000070BD2370FAE700BFDFC30700D44D002035
:1071100000E100E0FC06FFBD10B50446FFF7BEFF2E
:10712000012803D00949512000F032F8084B9A6831
:107130005AB154B9EFF3108172B6064A186810605C
:10714000586850609C6001B962B610BDDFC307008B
:10715000D44D002000E100E030B53AB11368DB43C4
:107160000A4D0144814204D1D84330BD4FF0FF3372
:10717000F6E710F8012B5340082213F0010418BF62
:107180002C46013A84EA5303F7D1EBE72083B8EDAC
:1071900007B5ADF8000001916A46002144F20200F3
:1071A000FFF7C2F803B05DF804FB10B561B1B2FBA4
:1071B000F3F403FB1424A4B244B9C0E900148460BE
:1071C0008281C381204610BD0E20FCE70920FAE72A
:1071D00082B050E8022FC188B2EB324F4FF000036B
:1071E00017BF92B241EA014142EA014104E042681C
:1071F000B2EB324F08BF012340E80212002AE8D167
:107200008DF807309DF80730002B0CBF11200020AF
:1072100002B0704737B550E8013F9DB2C48925449C
:107220008489A54228BF2D1B0489A54202BFBFF354
:107230002F8F002207E0C5EA030540E80154002C27
:10724000E9D14FF001028DF803200193019B9DF8D5
:1072500003200B6002F0FF0322B10B880068184482
:1072600003B030BD1846FBE70A884B889A4209D123
:1072700050E8012FC2EA024240E80123002BF7D177
:10728000012070470020704737B550E8023F1FFAD1
:10729000A3F5C488A54202BFBFF32F8F00220DE0E3
:1072A000C48925448489A54228BF2D1BC3EA05450E
:1072B00040E80254002CE8D14FF001028DF8032081
:1072C0000193019B9DF803200B6002F0FF0322B1A4
:1072D0004B880068184403B030BD1846FBE70A88A5
:1072E0004B889A4209D150E8022FC2EA224240E874
:1072F0000223002BF7D1012070470020704750E88F
:10730000002F42EA010340E8003C9CF0000FF6D158
:107310001046704750E8003F03EA010240E8002CA5
:107320009CF0000FF6D1104670470121FFF7E7BF30
:107330000021FFF7EFBF000010B50446002834D04D
:1073400003681BB91A49FF20FFF722FF636823B9BE
:1073500017494FF48070FFF71BFFA36823B9144946
:1073600040F20110FFF714FFE36823B910494FF40E
:107370008170FFF70DFF238A23B90D4940F20310F6
:10738000FFF706FFD4E9012321689B1ADBB20A60EC
:10739000013BDBB2FF2B226802D10020107110BD2F
:1073A0001168481C10600B70F2E70E20F7E700BF71
:1073B0004EC4070037B5054620B914494FF4927002
:1073C000FFF7E6FE00240DF107008DF80740FFF7F8
:1073D00073FE2A68696813688B4210D9591E1160C0
:1073E00013F8014C2A8AEB6802FB04342A68AB6864
:1073F00011685B1A1179DBB2994238BF13719DF89D
:107400000700FFF789FE204603B030BD4EC40700D9
:1074100037B50C46054620B9104940F24710FFF732
:10742000B7FE24B90D494FF4A470FFF7B1FE002355
:107430000DF107008DF80730FFF73EFE2A6813684C
:10744000591C1160EA68A41A2A8AB4FBF2F41C7071
:107450009DF80700FFF760FE03B030BD4EC4070083
:1074600070B50D461646044618B908495520FFF771
:107470008FFE1DB905495620FFF78AFE25602B684F
:1074800031462046BDE87040184700BFB8C4070029
:107490002DE9F041DDF818800E4617461D460446DA
:1074A00018B922498820FFF773FE1FB91F498920A8
:1074B000FFF76EFE23681BB91C498A20FFF768FEA0
:1074C00045BB1A498B20FFF763FEB20703D017496B
:1074D0009120FFF75DFEBB0703D014499220FFF710
:1074E00057FEE3689E4204D3731E22692B449342E5
:1074F00003D90E499320FFF74BFE2368CDF818807F
:10750000D3F80CE03A462B4631462046F446BDE817
:10751000F041604763685A68B5FBF2F302FB13530E
:10752000002BD2D001498E20CDE700BFB8C40700A0
:107530002DE9F0410D4616461F46044618B9194973
:107540009E20FFF725FE23681BB916499F20FFF7F1
:107550001FFE1EB91349A020FFF71AFE63681B68BF
:10756000013B2B4203D00F49A320FFF711FEE36834
:107570009D4207D363681B686A1E03FB06232269CA
:10758000934203D90749A820FFF702FE2368D3F8E6
:1075900010E032463B4629462046F446BDE8F0411D
:1075A000604700BFB8C4070070B508B10368ABB945
:1075B0000C4D0D4C0026641B1423B4FBF3F4B442B1
:1075C00001D1002009E02B6813B901361435F6E724
:1075D000DB69284698470028F7D070BDDB69BDE815
:1075E00070401847382B00204C2B0020014B436083
:1075F0000020704728C507000846704700207047E4
:10760000024B1868003018BF01207047C42B0020BF
:1076100008B50248FFF78CFE002008BDC42B0020EF
:1076200008B510461A4604F0FFFD002008BD000012
:107630002DE9F043814687B014480F461646984618
:10764000FFF773FE0446F0B90546AE4215D10F4868
:10765000FFF76EFED9F808305BB102228DF80020EA
:107660000022CDE90127CDE90326CDF81480684634
:107670009847204607B0BDE8F08307EB053000F0DF
:107680009BFB0135E1E71124F3E700BFC42B002089
:107690002DE9F041804686B011480F4616461D463A
:1076A000FFF743FE0446C8B9AA083146384600F041
:1076B000B1FB0B48FFF73CFED8F8083053B101226C
:1076C0008DF800200C9A0592CDE90147CDE90365BC
:1076D00068469847204606B0BDE8F0811124F9E7D6
:1076E000C42B002029DF704728DF704770B505687C
:1076F000AB6886B004460E4673B11422002168467A
:1077000004F0A0FDA36805932379019633B1012B02
:107710000ED0AB686846984706B070BD01238DF85F
:10772000003023690293E368039363690493F0E7ED
:1077300002238DF80030E3681B030293F5E7084647
:107740007047002070470000024B187A003018BFC5
:1077500001207047B42D0020034B187A0122B0FAA3
:1077600080F05A7440097047B42D002008B51046C7
:107770001A4604F059FD002008BD000008B5142287
:107780000021044804F05EFD0348FFF721FD0020BE
:1077900008BD00BFB42D0020A42D002010B5094C59
:1077A000094B43602046FFF7C0FD48B903F042FC97
:1077B0001C2320744FF4EE7204490548FFF7F5FCD2
:1077C000002010BDB42D002054C50700C82B002098
:1077D000A42D002070B5234C234E237A25463BB9B7
:1077E00022492348FFF750FD306008B9606070BD42
:1077F000022334682B72237973B1012B22D02046E7
:107800000321FFF773FF00232B726B6017491848A1
:10781000BDE87040FFF763BDD4E90523D21A142AEE
:1078200028BF1422D4E903109208012A38BF01228C
:1078300019441844FFF756FF50B11128DFD1012336
:107840002B72D4E7D4E903031844FFF74DFFF3E7A5
:107850002B7C002BCBD10146BDE87040022000F00C
:1078600009B800BFB42D0020CC2D0020C82D002069
:10787000A42D002038B5831E012B43D8224C237A37
:10788000002B3FD0022B09D103282ED01F4B002202
:107890001B68E2601A793AB1012A20D0637C6BBB85
:1078A000BDE83840FFF796BFD3E905128D1A142DB5
:1078B00094BF521914329A619142EFD102284FF0CD
:1078C000000308BF19462372104B18BF0D2118681A
:1078D000FFF70CFF0E490F48FFF701FDDEE71A69BD
:1078E00001321A615B699A42E7E7E3680133082BCA
:1078F00001D8E360D2E70023E360DFE7BDE838406A
:1079000003F088BB38BD00BFB42D0020CC2D002073
:10791000C82D0020A42D002000F0FD03012B08D16C
:10792000044B00225A74421E504250411874FFF713
:1079300051BF7047B42D002010B5064C201DFFF735
:10794000F4FC28B9637C1BB9BDE81040FFF742BFC7
:1079500010BD00BFB42D00202DE9F34180460D4637
:107960000F4801A916461F46FFF754FC0446A8B16C
:107970001C22002104F066FC2D0B0123237101A9B8
:10798000C4F80080A760E56066610548FFF76CFCFD
:10799000FFF7D2FF002002B0BDE8F0810420FAE733
:1079A000A42D00202DE9F74381468846104801A9FF
:1079B00017461E46FFF72EFC0446B0B11C220021DC
:1079C00004F040FC00250A9BA36001A92571C4F8BE
:1079D0000090C4E9037866610548FFF745FCFFF7AE
:1079E000ABFF284603B0BDE8F0830420FAE700BFF0
:1079F000A42D002038B50D46044618B9084950207A
:107A0000FFF7C6FB1DB906495120FFF7C1FB2560F2
:107A10002B6863606A68934204BF0023636038BDCB
:107A200080C5070010B5044618B90B496320FFF75D
:107A3000AFFB23681BB908496420FFF7A9FB636803
:107A400043B1226891680B4463605268934204BF5B
:107A50000023636010BD00BF80C507002DE9F04F13
:107A6000C9B008AA01F1400514464B780E781B04F2
:107A700043EA0663CE7833438E78043143EA062323
:107A80008D4244F8043BF0D11024916B16464FEA26
:107A9000F14383EA714383EA9123716A366852F8AD
:107AA000045F31440B444FEAB54181EAF51181EAA4
:107AB000D50101340B44402CD363E6D1D0E914E363
:107AC0000093836D0193C36D0293036E0393436E22
:107AD0000493836E0593C36E0693DDE9057BDDE9B0
:107AE000031CDDE901592B4B009E079374464FF0B0
:107AF0000008079B53F8042B07934FEAF12383EA0E
:107B0000B11383EA716A08AB53F828301A440AEBC0
:107B1000020327EA010A01EA0C028AEA02021A4475
:107B20004FEA743A86EA05035A448AEAB40A06EA36
:107B3000050B234083EA0B038AEAB45A08F10108D3
:107B40009A44B8F1400F02EB0903BB465244A946E0
:107B500019D172440265009A22444265019A324466
:107B60008265029A2A44C265039A1A44049B0266FB
:107B70000B444366059B63448366069B3B44C36694
:107B800049B0BDE8F08F674635468C462646194613
:107B90001446AEE704C6070030B5E0B10F4A1049FD
:107BA00000240025C0E91245C0E914120D4C0E4A0C
:107BB0000E4DC0E916420E4AC0E918520D4A8266BF
:107BC00002F17452A2F523020023A2F6924203644A
:107BD000C266184630BD0E20FCE700BF85AE67BB0D
:107BE00067E6096A72F36E3C3AF54FA57F520E5173
:107BF0008C68059BABD9831FF8B50446F0B10AB970
:107C00000020F8BDD1B10D468E180027B542F7D03F
:107C1000236C15F8012BE2540133402B2364F5D17A
:107C200021462046FFF71AFFD4E9123113F50073FD
:107C300041F10001C4E912312764E7E70E20E0E7D3
:107C400070B50D4616460446002877D0002975D039
:107C5000026C8021372A02F1010381544FF00002A7
:107C600042D8382B3BD1D4E91223206C0821E1FB08
:107C70000023104612BAE2631A0A194684F83B3010
:107C800084F83A201A0C1B0EC4E9120184F839203A
:107C9000214684F838302046FFF7E0FE691E76B3AF
:107CA0000023E26EDA4001F8012FA26EDA400A7179
:107CB000626EDA400A72226EDA400A73E26DDA40CE
:107CC0000A74A26DDA400A75626DDA400A76226D96
:107CD000DA400833202B0A77E3D1002070BDE2544C
:107CE0000133BEE7E25401333F2BFBD92146204646
:107CF000FFF7B4FE3822002104F0A4FAB3E71823FA
:107D0000226DDA4001F8012F626DDA400A71A26D2E
:107D1000DA400A72E26DDA400A73226EDA400A74BF
:107D2000626EDA400A75A26EDA400A76E26EDA40D6
:107D3000083B13F1080F0A77E2D1CEE70E20CDE71A
:107D400043689B68184708B5436808305A7900F0C3
:107D50009BF9002008BD2DE9F0430D469BB0084675
:107D600099469046FFF7ECFF6E6874794C4528BF42
:107D70004C4607462246414602A800F069F972794E
:107D800022990AA800F080F900970AAB224602A9BE
:107D900005F1080004F09AF8002848F2425018BF94
:107DA00000201BB0BDE8F083024AD2F80034002B5B
:107DB000FBD0704700E001400A4908B50223C1F832
:107DC0000435BFF36F8FBFF34F8FC1F80805FFF77E
:107DD000EBFF0023C1F80435BFF36F8FBFF34F8F64
:107DE00008BD00BF00E0014010B5094C0123C4F8F4
:107DF0000435BFF36F8FBFF34F8F0160FFF7D4FFE0
:107E00000023C4F80435BFF36F8FBFF34F8F10BD4D
:107E100000E001400E4B10B50124C3F80445BFF348
:107E20006F8FBFF34F8F01EB8204401AA14208D13C
:107E3000074B0022C3F80425BFF36F8FBFF34F8FAA
:107E400010BD431851F8042B1A60FFF7ADFFEDE7A2
:107E500000E0014028B139B10023C1E900301846E3
:107E6000704748F21050704748F21350704730B1D5
:107E7000036848F240508B4208BF0020704748F228
:107E80001050704728B148F21150914208BF0020AD
:107E9000704748F21050704770B506460C461D46B4
:107EA000FFF7D8FF50B9B3794AB1AB420AD11146B6
:107EB0002046FFF748FF08B9044B236070BD48F225
:107EC0001050FBE748F21150F8E700BF7052464DE2
:107ED0002DE9F0470C4607460F49204615469846BF
:107EE000DDE90869FFF7C3FF98B963685A79494625
:107EF00052003046FFF7C6FF58B945B108964346D1
:107F00002A4621463846BDE8F047FFF724BF48F22D
:107F10001050BDE8F08700BF7052464D10B50446C2
:107F200038B149B141600B68984708B9044B2360E8
:107F300010BD48F20150FBE748F21050F8E700BFCF
:107F40006E524648F0B4134648B10768094EB7422E
:107F50000AD161B12AB14368F0BC5B68184748F2A6
:107F600001531846F0BC704748F20253F9E748F253
:107F70001053F6E76E524648F0B460B107680C4EF5
:107F8000B7420CD171B143681568DC68A5420CD3C7
:107F90009B68F0BC184748F20150F0BC704748F2AB
:107FA0000250FAE748F21350F7E748F21450F4E7AA
:107FB0006E5246482DE9F041044617469846DDE9E1
:107FC0000656FFF7ABFF60B9424639462046FFF739
:107FD000B9FF30B9324629462046BDE8F041FFF7E7
:107FE000CBBFBDE8F0810000F8B50A4F0A4C0B4D3D
:107FF000E41B0121E40829700026A64203D10223D4
:108000002B700020F8BD57F8363098470028F9D17A
:108010000136F2E7BCCE0700BCCE0700D02D002011
:1080200038B50D46044618B908493320FFF7B0F8B3
:10803000691E21442046814200D238BD03780A7867
:1080400000F8012B01F80139F5E700BF10C7070060
:1080500070B50D461446064618B90A494520FFF783
:1080600097F81DB907494620FFF792F8621E32447F
:10807000013DB24200D270BD15F8013F02F801394E
:10808000F7E700BF10C7070070B5164604460D4657
:10809000FFF7DEFF3246A919A019BDE87040FFF7CF
:1080A000D7BF38B50D460446FFF7BAFF2946601919
:1080B000BDE83840FFF7B4BFAADF7047002301389E
:1080C0000B70042806D8DFE800F00306080A0C004D
:1080D00011230B7070472123FBE73123F9E71223AB
:1080E000F7E72223F5E7007800F00100704738B584
:1080F000044608460D4604F0ADF86560208038BDA2
:10810000F0B58B7891B0002B0C4608BF01238DF899
:108110000E3005460B88ADF80C3000211646684637
:10812000032204F08FF86946607CFFF7C7FF0DF16A
:108130000101A07CFFF7C2FF9DF80230E27B62F3F1
:10814000C303227C62F30413227B62F30003227DCB
:10815000002A14BF0222012262F3420300211C22E2
:1081600009A88DF8023004F06DF8637B13F0300F2E
:1081700015D002AF03220021384604F063F80DF158
:108180000901E07CFFF79AFF11238DF808309DF874
:108190000A300E97012262F342038DF80A30637BA6
:1081A0008DF824301422A37B8DF82530002104A8FB
:1081B00004F048F803AB0493A388ADF81C30A3681F
:1081C000CDF814D01BB1E288ADF818200893A3694C
:1081D000002B32D001AF03220021384604F032F8E0
:1081E000A3691A88ADF82C205A88ADF82E205A6859
:1081F0000D97187B0A923946FFF760FFA3690DF1CE
:108200000501587BFFF75AFFA2699DF80630917A65
:1082100061F3C3038DF80630D17A61F304138DF84E
:108220000630117A927B002A61F3000314BF022208
:10823000012262F342038DF80630E36903B10C9327
:10824000334604AA09A92846FFF736FF11B0F0BD4E
:1082500041DF7047014B01221A707047F431002052
:10826000BFF34F8F0549064BCA6802F4E06213431F
:10827000CB60BFF34F8F00BFFDE700BF00ED00E014
:108280000400FA05024B034800221A7001F078BF7F
:10829000F431002061820700C31E10B50446042B90
:1082A00009D8DFE803F00303080F0F0009494FF472
:1082B000701000F053FA084B1B6853B12046BDE81C
:1082C00010401847054B064800221A7001F058FF6D
:1082D000F1E710BD85820700F8310020F43100205D
:1082E000618207000020704738B5554B18600020A8
:1082F00001F05CFF044648B900F022FB012800F0C1
:10830000968041B221B1022800F09780032038BD49
:108310004FF08043D3F8004414F4803435D04FF448
:108320008032C3F800240C46464D2B6A012B3FD007
:108330004FF4701400F090FB434A20211820FEF700
:10834000F1FD08B1FDF7F3FF404B1A6802F0F802A7
:10835000B02A06D11A68D20742BF1A6802F04E024C
:108360001A60FFF7BFFF0028D0D12046384900F03F
:10837000F5F9384801F080F80028C7D100F092FBE9
:10838000FEF75AFEFFF764FFF8E7D3F8202502F066
:10839000F802A82A0AD1D3F82025D00706D5D3F8A9
:1083A000202502F05602C3F82025BDE70124BBE7D3
:1083B00043F204031A68284B9A4209D002F00CF8E1
:1083C000AA69014694B1254802F022FB90B9AFE7B3
:1083D0006A6B1CB995F86032012BEFD04FF48051D5
:1083E0001F4802F015FB0028E8D1A1E795F8A1325B
:1083F000012BE8D1154A136803F0F803B02B02D122
:108400001368D90794D401F093FF00287FF47EAF5E
:10841000144C2070144801F0B3FE237823B913499B
:108420004FF4FF70FEF7B4FE00F024F86EE70D4B3A
:108430000F481C7001F0A4FE68E74FF4A02479E710
:10844000F8310020E04D0020D42D00201C05004014
:108450008582070099820700DBE5B1518150002039
:1084600040500020F43100205582070081C70700EA
:108470006182070008B5074B4FF0FF32C3F8802038
:10848000C3F8802101F042FC4FF48050BDE8084061
:1084900000F02EB800E100E00346C1F30B0070B518
:1084A00020BBB3F5FE2F21D81B0B013903EB113193
:1084B00001264FF08044994200D270BD03F01F02A4
:1084C0005D0906FA02F2032D05D8DFE805F0020681
:1084D000090CC4F800260133EDE7C4F80426FAE7D6
:1084E000C4F81026F7E7C4F81426F4E70720E4E7F9
:1084F00030B50546204889B00022C0F5FE21FFF7BF
:10850000CBFF01F069FF1D4B996900220144104621
:10851000FFF7C2FFEFF305820023D5E9004183F3A3
:10852000148883F3108883F3118883F31388C2F3CC
:1085300008023AB984F308884FF0FF339E46084793
:1085400009B030BD4FF0FF35203CCDE90033CDE917
:1085500002330493CDE905514FF080732022694620
:108560002046079303F060FE84F30888AE466FF060
:1085700006031847E4E700BF00600700E04D002055
:10858000B1F1807F73B506460C4639D31F498F2061
:10859000FEF7FEFD6FF07F431D4AA34228BF23462E
:1085A000D2F80455E41A1D44631E942B96BF9634EA
:1085B00074607460347B25F07F4598BF963D032C32
:1085C00003D912497720FEF7E3FD114E04F5A87395
:1085D0004FF4F86046F823500E4B43F001039847E0
:1085E0000D4BA200134400221A601B680193019BEB
:1085F0004FF4803303FA04F4C6F8044302B070BDAC
:108600009529C7D801499020C2E700BFE6C70700F7
:1086100000400240E0C707004041024018490A7884
:1086200084B0002A29D14FF08043A020D3F8183419
:10863000DB035EBF134B01221A60134A0023136051
:1086400012680392039A114A136012680292029A06
:108650000F4A136012680192019A0E4A82F82403AD
:10866000102050600C4A0D48C2F808350123036001
:1086700002201360C2F804030B7004B0704700BFFF
:10868000003200200800004000410240404102400A
:108690004441024000E100E0004002400840024046
:1086A00013B5284B1A6842B127490A6801320A609B
:1086B00000221A601B680093009B244B1A68A2B129
:1086C00000221A6022481B68027B0193019B4FF431
:1086D000803393401F4AC2F808334168044601BB07
:1086E0008168D9B9236803B198471B4B1A6832B324
:1086F00000221A6016481B68027F0193019B4FF409
:1087000080339340134AC2F808334169044659B193
:10871000103002B0BDE81040FFF732BFFFF730FF66
:10872000E0E7FFF72DFFE0E7816911B11030FFF7B7
:1087300027FF23691BB102B0BDE81040184702B003
:1087400010BD00BF04410240FC3100204041024006
:108750009C2A0020004002404441024070B50B4B6F
:108760001C68227B4FF480339340094A0E46C2F8BE
:108770000833054640B1FFF751FF266029462046E1
:10878000BDE87040FFF7FCBE70BD00BFBC2A0020F2
:108790000040024070B5074B1C680E46A0600546BD
:1087A000FFF73CFF266029462046BDE87040FFF7F2
:1087B000E7BE00BFC02A0020014B01221A7070479B
:1087C0000132002070B5154DEA6A6E6AAC6CAC2AB5
:1087D00013D16B6B1C44F61AEB6AAC2B13D03246E8
:1087E00021460F4803F012FDA8B100F05BF93146B5
:1087F0002046BDE8704001F06BBA002CECD101F0CE
:1088000001FE0446E8E73246A4F58041044803F03F
:10881000FDFC0028E3D1002070BD00BFE04D00202A
:108820000060070081422DE9F74F0446894617464C
:1088300004D10023184603B0BDE8F08F03D22849C5
:108840004F20FEF7A5FCC4F30B031BB124495120B4
:10885000FEF79EFCA9EB0403B3F5805F4FEA1338E3
:1088600003D21F495420FEF793FC00F0F5F8B8F14D
:10887000080F28BF4FF0080807F6FF754FEA0833C6
:10888000DFF860B001932D0B002FD2D0A8452CBF8C
:10889000AA46C2464FF00002514620462CBF3E4633
:1088A000019E01F0FDF903460028C3D1F21C22F01D
:1088B00003024946204601F0E5F903460028B9D1F4
:1088C000DBF83030BF1B3444B1441E44CBF8306079
:1088D00001F05CFCA5EB0A0503460028D4D0A9E70B
:1088E00063C80700E04D002010B501F09BFD134A5E
:1088F00042F20403916CCC5803F1A34303F54713F0
:1089000003F2D7539C4214D1D2E90C32934213D0D4
:10891000D21A02F6FF7222F47F621944184422F040
:108920000F02FFF77FFF034620B9BDE8104001F0BA
:108930002DBC0323184610BD0023FBE7E04D0020AB
:10894000F8B52C4CE36AA52B48D003D8012B0CD0EA
:108950000020F8BDAA2B45D0AC2BF9D1FFF7C4FFFE
:1089600000283DD1FFF72EFF3AE0A56C666A01F0C2
:1089700033FD226B03469D4205EB0201104414BFF8
:10898000B21A0022FFF74EFF054608B100250CE0A1
:1089900001F022FD2A463146FEF7DEFBA36A98422B
:1089A000F4D10123C4E90703A6611348134E01F073
:1089B00007FD00231248337001F0E8FB33780746C7
:1089C00023B910494FF4D170FEF7E2FB6FB975B1CE
:1089D000236A012B14BF01200220BAE7FFF784FFAE
:1089E0000125E2E7FFF7EEFED0E70320B1E7012023
:1089F000AFE700BFE04D0020044E00200132002010
:108A0000B987070063C807000A4AD2F800347BB16F
:108A100009480023D2F80815D940C90748BF03F513
:108A2000C07103F1010348BF42F82100072BF1D1C7
:108A3000704700BF000001403546526EFFF7E4BFAB
:108A4000044B002282B01A601B680193019B02B0A4
:108A5000704700BF0001014038B50E4C2278BAB90A
:108A60000D4BD3F800248AB1D3F80455FFF7CCFF9F
:108A700040F61650A842B8BF28460849A0F54860FD
:108A8000FFF788FE064B4FF480321A6001232370F3
:108A900038BD00BF02320020000001403D8A0700BF
:108AA00000E100E0034BD3F800340BB1FFF7ACBF9B
:108AB000704700BF000001400023C0E90232C0E956
:108AC00000118B881A440261B1F906301A444261E0
:108AD0000888003018BF0120704710B5426811881F
:108AE0000346002939D002F110014160148A2CB9E3
:108AF000C2680168FFF7E0FF204610BD9078118939
:108B000000F03004302C1BD1947C04F03004302C65
:108B10001DD190881969091A19610021907810F007
:108B2000300F02BF986801309860908A0844196934
:108B300001441961B2F91620114459610120DCE7A2
:108B400000F0F004202C02D150894143E6E700F008
:108B5000C000802808BF0421E0E70846CDE770B5D3
:108B6000456804460E4663681A88B24204D19B7871
:108B700003F00F03082B07D12046FFF7AEFF636811
:108B8000AB42F0D1002070BD0120FCE743681A44DD
:108B9000426011B101399A4201D10120704713F8A6
:108BA000010B01F8010FF6E72DE9F3418368044654
:108BB000884623B90027384602B0BDE8F081036833
:108BC00001220DF10701984707460028F2D0A3685B
:108BD0009DF80750013B2A06A3601AD505F07F05D2
:108BE0000726A368002BE5D0236801220DF10701B9
:108BF000204698470028DDD0A3689DF80720013B58
:108C0000A36002F07F03B3401D43130606F107067D
:108C100002D4C8F80050CEE7232EE2D1CAE770B5DF
:108C20004268927802F00F01082986B003461FD1EE
:108C300003691C6800260CB906B070BD2368267352
:108C40009D68626829466846FFF736FF63680493AB
:108C500004F10C030593AB7803F0C003802B08BF2D
:108C6000231D684608BF0493FFF7D9FFA468E2E715
:108C700012F0C00120D102F0300010280ED15A6944
:108C800011705A6818699378D46803F00F03072BA2
:108C900009D10146204600F017F8CDE79006F0D53F
:108CA0005B691980C8E71289214614B103F0BCFA48
:108CB000C2E703F0C7FABFE78029BDD100690021F0
:108CC00092060160B8D5EBE77FB50A4601466846D3
:108CD000FFF7F2FE30B16846FFF7A1FF6846FFF7E5
:108CE000FCFEF7E707B05DF804FB000030B5044672
:108CF00085B01546A9B90268114B9A4211D0102DC2
:108D000006D82A4669462046FFF7F0FF05B030BD79
:108D1000102269462046FFF7E9FF0028F6D0103DF3
:108D2000EDE7A368AB4201D20020EFE723682A46B3
:108D3000204698470028F7D0A3685D1BA560E5E7AB
:108D40008D8B0700F7B50E4601A907461546FFF7BC
:108D50002BFFA8B1019A0123D3184FF0000404D2CD
:108D6000B17801F0C001802901D1204608E03189A5
:108D70009942FAD329463846FFF7B8FF019BEC54D5
:108D800003B0F0BD73B50E4601A905461446FFF7C2
:108D90000BFFB8B1019BB3F5803F07D202229A18AE
:108DA00004D2B17801F0C001802901D1002009E08E
:108DB00031899142FAD321461A4621F8023B2846CE
:108DC000FFF794FF02B070BD10B5034C8260002223
:108DD000C0E90041C26010BD8D8B07002DE9F3474B
:108DE0000025064688462F462C46B36843B33368B1
:108DF00001220DF107013046984708B3B3689DF88A
:108E000007C0013B0CF07F025FFA82F9C4F1200138
:108E1000B360A4F1200309FA03F329FA01F109FA76
:108E200004F20B431CF0800F45EA020547EA0307F2
:108E300004F1070402D1C8E9005702E0462CD4D15E
:108E4000002002B0BDE8F08773B50C4669461646AF
:108E5000FFF7C4FF68B12389082B0CD1DDE9004579
:108E6000C6E90045DDE90023AB4206BFA24201206E
:108E7000002002B070BD042B04D1009B33601C465F
:108E80000025EFE7022B4FF0000004D1009B338058
:108E90009CB20546E6E7012BEBD1009B337003F053
:108EA000FF04F6E737B50D4669461446FFF796FF0F
:108EB00030B12A89082ADDE9003103D1C4E9003143
:108EC00003B030BD042A18464FEAE37108D123608D
:108ED0001A460B468B4206BF824201200020EFE774
:108EE000022A04D11BB223801AB2D317F2E7012A57
:108EF00003D15BB223705AB2F7E70020E0E7F7B581
:108F00000C46002119702170116001A90746154611
:108F10001E46FFF749FE30B9BB6813B90123337011
:108F2000002003B0F0BD01990029F7D0CB0801F073
:108F300007012B602170F4E713B5044605291FD8FB
:108F4000DFE801F0030F151E1E1C012201A92046B7
:108F5000FFF7CCFE18B19DF90430002BF5DB02B011
:108F600010BD082200212046FFF7C0FEF7E701A947
:108F7000FFF71AFE0028F2D0019AF3E70422F1E786
:108F80000020ECE773B50D4601A90446FFF70CFE7F
:108F9000064618B90026304602B070BD94E80F00AE
:108FA00085E80F0001998A42F4D3A960A3685B1A8F
:108FB000A360F0E72DE9F0435568AB7813F0C004E7
:108FC00089B006468C46174603D0402C6AD0002450
:108FD0000AE003F00F025E4903F03003102B51F852
:108FE000228020D004D8CBB1204609B0BDE8F08360
:108FF000202B1ED0302BF7D17B6929881980072AB6
:109000000AD17B6838691A89214603F01BF97B680D
:109010003969D868FFF758FE3A6940E03A6929464D
:10902000C0470446E0E77B6901221A703A69796813
:10903000F6E7BCF1020FD7F8149024D1042A22D805
:1090400004A9FFF79FFF04460028C0D0069B2BB160
:109050007968B9F800304A899A4205D8059B73604F
:10906000069B002BC0D0B2E708893A6903FB0022B7
:1090700004A8C04728B1B9F800300133A9F800307E
:10908000E4E70446EAE7B9F800306A899A429ED9D3
:109090003A692989581CA9F8000003FB0122796864
:1090A0003046BDE7D2F81080454655F8043B13B969
:1090B000FFF742FFB5E7022914D104A9FFF762FFC9
:1090C000002884D0D8F8003079682A4604A8984748
:1090D000044600283FF47BAF069B002BF2D1059B92
:1090E000736081E701292BD04CB24CB105297FF484
:1090F0006EAF04220DEB0201FFF7F8FD042424E01B
:109100000DF1040901340B2C3FF461AF01224946F3
:109110003046FFF7EBFD00283FF459AF19F9013B4A
:10912000002BEFDB0B4B049301ABCDE9053400239F
:109130000793D8F8003079682A4604A8984770E762
:10914000082201A9FFF7D2FD08240028EAD13EE752
:10915000E4C807008D8B07002DE9F04F91B004465D
:10916000002604A8CDE90266FFF7A6FCA3683BBB76
:10917000DDE9053404A89D78FFF7AFFC0028F7D19E
:1091800015F0300F03D1059B1B8803B10134002C6F
:1091900000F0A9806309002202A9934240F09C805C
:1091A00010AA02EB830304F01F04C4F120044FF063
:1091B000FF3053F8383CE040C31A584258410DE0A4
:1091C0000DF1030301AA0DF102012046FFF797FEFE
:1091D00038B99DF80330002BCAD1002011B0BDE88A
:1091E000F08F019904A8FFF7BAFC002850D1019B29
:1091F000B3427DD3059D059A937803F00F03082BA6
:109200007FD004A8FFF769FC059B9D42F3D14FF086
:10921000FF36019FB7426BD3089B9DF80290D4F8AC
:1092200008801D684FF0010AA368002D5DD09845A5
:109230009CD12B68D3F800B0BBF1000F08D04B468F
:109240003A4629462046D8470028C6D0AD68EBE705
:10925000D3F808B0BBF800309F42F7D16A6859468E
:109260000AA8FFF729FC6B680E9305F10C030F9316
:109270009BF8023003F0C003802B04BF2B1D0E931C
:109280000AAA85F80CA049462046FFF793FEDBE7C3
:10929000059B9B7813F0300F0FD1069A3F2A0CD80C
:1092A000510910AB03EB810102F01F02012393402F
:1092B00051F8382C134341F8383CE5682DB104AB24
:1092C0009DF8022001992046A84704AA9DF80210A3
:1092D0002046FFF76FFE10E051F8225001357FF471
:1092E0007DAF013259E7012078E798457FF43EAF22
:1092F0009DF802102046FFF71FFE00287FF436AFCE
:109300006BE7168885E770B50C460646154611468C
:109310002046FFF7D9FC2A4621463046BDE870407A
:10932000FFF71ABFF0B585B00C46CD686946074611
:109330001646FFF727FE68B1E06858B1A37803F03E
:109340003003202B32462946684605D1FFF7DBFF64
:10935000019B7B6005B0F0BDFFF7FEFEF8E7D3B5DB
:109360000C466946FFF73AFD80B1DDE9001300279E
:109370004A0801F0010642EAC37256EA07014FEAC1
:1093800053031CBFD243DB43C4E9002302B0D0BD6A
:1093900037B50D4669461446FFF7E1FF68B12B89E2
:1093A000082B0CD1DDE90001C4E90001DDE900234F
:1093B0008B4206BF82420120002003B030BD042B47
:1093C00003D100982060C117F0E7022B04D1BDF94A
:1093D0000000208000B2F6E7012B04D19DF90000C7
:1093E000207040B2EFE70020E7E713B504220C46F7
:1093F0000DEB0201FFF77AFC08B1019B236002B07C
:1094000010BD1146FFF7F1BF13B508220C4669469F
:10941000FFF76CFC18B1DDE90023C4E9002302B0BA
:1094200010BD1146FFF7F0BF10B513681F2B14468F
:1094300007D900220830FEF703FC08B92023236077
:1094400010BD48F21450FBE70830FEF7D5BB0830DA
:10945000FEF7A2BB062810B5044602D1002000F09A
:1094600097FF044B1B681BB12046BDE8104018470E
:1094700010BD00BF0432002008B5074B1860002063
:10948000FFF7E8FF054800F06BFF20B90348BDE88F
:10949000084000F0DBBD08BD0432002055940700F1
:1094A00072DF704773DF704774DF704775DF704796
:1094B00076DF70477ADF70477CDF70477DDF70476B
:1094C0007FDF704786DF70478FDF704790DF704720
:1094D000A8DF7047AADF7047ADDF7047AEDF704787
:1094E000B0DF7047B1DF7047B5DF704762DF7047AC
:1094F00066DF704713DF70477FB50023CDF80A3071
:10950000ADF80E300A4BADF806109B89ADF8083067
:1095100001238DF80A300DF10603CDE90430054B27
:1095200002A91888FFF7DAFF07B05DF804FB00BF57
:1095300072420020C62A002001460148FDF768BF9C
:10954000D0CE070070B518228CB000210DEB0200C0
:1095500002F078FE2823089316231F4CADF806303E
:109560000023CDF80E30CDF81230ADF816300223BE
:10957000092606222370237159230125A2706371E5
:109580000322FE230DF10601A0198DF818508DF865
:109590002D500294ADF80C606570E270A371FFF776
:1095A0008DFFB8B9BDF8063026725A19E271BDF8C0
:1095B0000C200A4C134402A906AA2046ADF80C3030
:1095C000FFF76EFF30B92078FFF76EFF294620784D
:1095D000FFF768FF0CB070BD86420020C42A00204F
:1095E0002DE9F04103881F2B8AB0044600F0C380A8
:1095F0002AD8112B57D007D8012B00F0CD80102B83
:1096000043D00AB0BDE8F081142B00F043811A2B3F
:1096100034D0132BF5D10023A24CADF81230022325
:10962000ADF8103004AA02AB42F60521208805935C
:10963000FFF752FF08B1FCF77AFE00231A46852196
:109640002088FFF73DFF86E0512B00F0AB800ED85D
:10965000232B00F08880502B39D0212BD1D100232F
:1096600004A98088ADF81030FFF72EFF73E0552B6A
:1096700059D0562B00F08680522BC2D100231A46B7
:109680001946A088FFF72EFF65E0864B82881A8076
:10969000854A12681C460AB10120904783492088F8
:1096A000FFF704FFADE77F4B4FF6FF721A80804B48
:1096B0001B685A0704D4FFF745FF08B1FCF737FED3
:1096C000794B1B68002B9CD00220984799E7794E74
:1096D000C288B3889A4294D17748FDF76BFE05465D
:1096E00000288ED0228A04F1120102F09DFD18227A
:1096F000002104A802F0A6FD08238DF810306F4B5E
:1097000006936F4B0596CDE9073504A8238AADF87B
:10971000243000F091FC00283FF473AF29466648DE
:10972000FDF776FE6DE7C188F6291AD8CB1E9B0798
:109730000DD0CB1F9BB2013B5A4202F0030203F053
:10974000030301F1FF3158BF5342C91A89B2554B87
:109750001888FFF7C9FE00283FF453AFFCF7E7FD78
:109760004FE7F721F3E7002204A98088CDE904221E
:10977000FFF7ACFEEFE74B4B00F108011888FFF74D
:1097800095FEE8E78379002B7FF43BAF454B13212F
:109790001888FFF78DFEDEE7424B00211888FFF79F
:1097A000A7FED8E78379002B3FF42BAF022B7FF481
:1097B00028AF404900898A8990420E467FF421AF44
:1097C000A27B012A7FF41DAF00220120CDE90422F3
:1097D0008DF81600208AADF81800324D608AADF879
:1097E0001A0004F114000790ADF80A2001AF02AA94
:1097F000098A28888DF81030ADF808300397FFF7F4
:109800006BFEA84660B93846FEF76DFC40B940F2E1
:10981000FD1304A92888ADF81430FFF761FEF0E6C7
:10982000002304A9B8F80000ADF81430FFF758FE83
:10983000014600287FF4E5AE182204A802F002FDDC
:10984000237D1E4A8DF81030022B0596069218D003
:10985000062B10D0012B10D11A4B1A881A4B1A80E4
:10986000637DD4F816200893012B099205D117487F
:1098700000F08EFD01E0637D089304A800F0DCFB9E
:10988000BFE6A27D637D43EA02230E4A13800E4A9F
:109890001380F2E700231A4619468088FFF712FE6C
:1098A00059E700BFC62A0020AC42002046CB070083
:1098B000A842002072420020D0CE07003D99070048
:1098C00039950700B0420020B2420020BCCE07000C
:1098D00038B5154A1368044613F0010022D0134925
:1098E0008C421ED0124908884FF6FF71884213D06F
:1098F00043F0040313211360FFF7DAFD90B90D4D17
:10990000C82445F001054FF47A40A847013CFAD13C
:10991000BDE8384001F04EBB074B1878FFF7C4FD97
:10992000F6E7002038BD00BFA8420020BCCE0700EB
:10993000C62A002040CB0700C42A002030B50D46BF
:1099400087B0044620B9404940F28910FDF720FC59
:1099500025B93D494FF4C570FDF71AFC11220021CD
:1099600001A802F06FFC2378082B0BD1374A384945
:1099700013880988013B9BB21380D9B1D3B9032363
:1099800011802370627823788DF805306021012AD8
:109990008DF804108DF806200ED00B2A12D100F09D
:1099A0008DF98DF80700002000F082F9042101A84C
:1099B000FFF7A2FD07B030BD062B05D0082B29D03C
:1099C000032B27D00321F2E7E1688DF80710D4E9D3
:1099D0000123080A8DF80800080C090E8DF80A10FA
:1099E000110A8DF80B208DF80C10110C120E8DF849
:1099F0000E201A0A8DF80F308DF810201A0C1B0E4D
:109A00008DF80D108DF809008DF811208DF81230A9
:109A10000F21CCE7D4E90123110A8DF807208DF836
:109A20000810110C120E8DF80A201A0A8DF80B304E
:109A30008DF80C201A0C1B0E8DF809108DF80D20D6
:109A40008DF80E300B21B2E7E4CA0700B2420020C5
:109A5000B04200202DE9F043054695B020B94849B1
:109A600040F25540FDF794FB464B4FF6FF721A80CB
:109A700001204FF659632A4602A98DF80A00ADF875
:109A80000830FFF725FD0446002874D13E4B04AA98
:109A900003F11007164618685968144603C40833C2
:109AA000BB422246F7D1A91C3046FFF71FFD0446F2
:109AB000002860D101461C220DA802F0C3FB9DF8CE
:109AC0003430ADF8044043F004038DF83430022301
:109AD000ADF80C30AB788DF80E3004F0F80343F09D
:109AE00003038DF80630F423CDE90A44ADF82C3099
:109AF0002B4601AE4FF0110903AF33F8040B0C9461
:109B000008AA0DA98DF80590CDE90876FFF7E2FCCB
:109B1000A046044678BB01461C220DA802F092FB29
:109B20009DF83430ADF8044023F0180343F01803D7
:109B30008DF834300123ADF80C30AB788DF80E3051
:109B40001723CDE90A44ADF82C302B4608F0E8087D
:109B500048F0130833F80C0B0C9408AA0DA98DF8E3
:109B600005908DF80680CDE90876FFF7B3FC044632
:109B700008B9FCF7ADFE204615B0BDE8F08300BF84
:109B8000E4CA0700C62A0020D4CA070037B52A4C09
:109B9000236813F001054DD1284B18602848FDF7C4
:109BA000CBFB019500F0A5F800283CD12548FFF734
:109BB000A1FC002837D101F0BFF9002833D101A85A
:109BC00001F088FA78BB01A9012001F08DFA50BBA1
:109BD00001A801F0F1FA30BB00F09AFB30B11A484D
:109BE00000F08AFB236843F00203236011238DF801
:109BF000043023689B0718D513498869043182B261
:109C000001A8FFF759FC70B91048FFF753FC50B991
:109C10000F48FFF71FFF30B9FFF794FC18B923680E
:109C200043F00103236003B030BD0A4802F012FB89
:109C30000849E4E70020F6E7A8420020AC420020F3
:109C4000D0CE0700006007000832002046CB070096
:109C50007242002036CB070043690BB1C068184739
:109C6000704700000449054B0022904208BF194686
:109C70000348FDF7F5BB00BF60C5070034C507000A
:109C8000382B002007B5009313460A4601460348C7
:109C9000FDF7FEFB03B05DF804FB00BF382B00208E
:109CA00013460A4601460148FDF742BC382B002006
:109CB000014B18700B207047B4420020024B002269
:109CC00018781A70704700BFB442002018DF704740
:109CD00030B585B0054610220C466846002102F0DA
:109CE000B1FAA408684601950294FFF7EFFF05B0AA
:109CF00030BD1FB50023CDE901330393684602232D
:109D00000093FFF7E3FF05B05DF804FB4FF000534D
:109D10004FF480521A60002070470000014B06206B
:109D20001B681847C04200200A2803D90B38C0B26C
:109D3000FFF7BEBF7047000010B5044686B0002094
:109D4000FDF732FC014630B1164A18212046FDF7D6
:109D50000DF906B010BD1822684602F073FA04230C
:109D60008DF80030104A114B116D1B68994211D1CA
:109D70000F4B186800F0A2FF8DF80100FFF7D4FF29
:109D8000D4E901138DF8010068469847094800F0AE
:109D9000FDF9DEE701238DF801306846D4E90113AF
:109DA0009847D6E7399D0700E04D0020B8420020D3
:109DB000BC4200201D9D0700F0B5836887B00446B3
:109DC00023B9974940F2CF20FDF7E2F9162200218E
:109DD0000DF1020002F036FA23788DF800300122EE
:109DE0000C2B8DF8012000F218819A4012F4AD7FFF
:109DF00015D1510706D4D30440F10F81894B0720B8
:109E00001B689847D4E90113684698479DF80130CC
:109E1000012B00F0F380834B05201B68EDE0062B3F
:109E2000814A01D0012B01D12169117011780129DA
:109E300004D002295AD00023137092E0013B072B73
:109E40004ED8DFE803F0044D47314D444D10754BBB
:109E500003201B689847606900F012FDFFF764FF5C
:109E60008DF80100CEE7236923B96D4940F2131044
:109E7000FDF78EF9A38A23B969494FF48A70FDF77B
:109E800087F9A18A206900F013FDFFF74DFF674BAA
:109E90008DF80100DA6B1B6C0293E3680192002BD2
:109EA000B0D020699847ADE76149624800F052FDA3
:109EB000FFF73AFF01288DF80100A3D1002000F040
:109EC00065F900289ED00A238DF801309AE74FF4F7
:109ED00000730393554BDA6B1B6C0192029391E76D
:109EE0004F494FF4BC70FDF753F98BE7013B072B4B
:109EF00000F28F80DFE803F0048D6A6F8D848D3768
:109F000000F0F6FC08B90823DEE762690AB903230A
:109F1000DAE7C2F30B0333B1444B45495B6D096883
:109F200013448B42F3D1B2F5805F01D90423CBE710
:109F30003E4B3F49586D096815188D42E3D85A6465
:109F4000DA6C9A64186518633A4B61691B6801F60C
:109F5000FF710022090B1844FFF7A2FE00283FF40E
:109F600051AF0523B0E700F0C3FC0028CBD02F4D44
:109F7000A18AD5E914329B1A6A6C0B449342C6D865
:109F80002C4B2E6B1B68206905F148021E44FDF71F
:109F9000E3F8E368074623B921494FF4F870FDF769
:109FA000F7F8E368A28A21693046FFF76BFE08B133
:109FB000E36876E7A28A2B6B029713442B63A38A8C
:109FC0002A6DAF6413442B6501931BE7174B9A6C02
:109FD00002921B6DF8E7154BD3E91402596C821AF3
:109FE0008A4290D19A6C5865002120465964DA64FF
:109FF000FFF7A2FE0B4B1B680420984707B0F0BD8B
:10A000000A4B9A6C1B6D01934FF480530292039399
:10A01000F8E6034940F2972065E7022354E700BFC2
:10A020004ECB0700C0420020C82A0020E04D00208F
:10A03000B8420020BC42002083681BB1024A1821AC
:10A04000FCF794BF07207047B99D070038B5054657
:10A05000C0B10120FFF706FE044648B900F002FC3B
:10A0600000F046FC30B9084B00201D60FFF720FED1
:10A07000204638BD0549064800F06CFC0128F2D0A6
:10A080000324F5E70724F3E7C0420020B84200208C
:10A09000BC42002010B50022044658210430FDF7D0
:10A0A0005BF823681B1A5842584110BD2DE9F04156
:10A0B00015464FF46072064688461F4602F0A6F821
:10A0C00028B915B90020BDE8F081A847FAE70022B9
:10A0D00001213046FFF7E4FD70B94FF4607241464C
:10A0E000384602F0A1F82B464FF4607239463046EC
:10A0F000FFF7C8FD0028E5D00320E4E770B50D4C5C
:10A100000646002258212046FDF726F8002244F892
:10A11000040CC32104F51770FDF71EF8251FC4F8C1
:10A12000580232462946044B0448BDE87040FFF708
:10A13000BDBF00BFE44D0020C442002000F0070076
:10A1400070B50B68013305460C460DD109494FF433
:10A15000BD70FDF71DF80848084B00682A462146E7
:10A16000BDE87040FFF7A2BF0846FFF793FF002845
:10A17000F1D1EBE7C9CB0700CC2A002044460020F0
:10A180000149FFF7DDBF00BF00F0070038B5054605
:10A190000020FFF7B3FF044618B903492846FFF72C
:10A1A000CFFF204638BD00BFE04D00202DE9F04133
:10A1B000FFF758FD074600283DD1384803680133B2
:10A1C00002D0FFF767FF0746354D364ED5F80080C1
:10A1D000D8F8003001335DD04046FFF75BFF68B32D
:10A1E000D8F80440012C0AD00022C32108F51870C9
:10A1F000FCF7B2FFD8F85C42231A5C425C41FFB125
:10A200004FF460722549274802F00EF864B12968BE
:10A2100025485422043102F007F8296823484FF4F6
:10A2200032725C3102F000F87368012B16D0002006
:10A23000FFF7ACFF00B10320BDE8F0810446DEE784
:10A2400024B14FF4607229681648EBE74FF460724E
:10A250000021144801F0F6FF0123736014494022E5
:10A2600001F5E47001F0E0FF12491C2201F5E470F1
:10A2700001F0DAFF104900230124042201F28620B4
:10A2800086F8603286F8A14286F8E23201F0CCFF0F
:10A290007460CCE7002FD9D00024B1E700F00700AC
:10A2A000CC2A0020E04D0020E44D00203C4E002050
:10A2B0003C4F00207C4F0020FC4D002029DF7047E0
:10A2C00038B50C4D0446D5F8643378B101330FD15D
:10A2D000002218210430FCF73FFF2060214605F5DD
:10A2E00059700722BDE83840FFF7E8BF0E2038BD9F
:10A2F0000820FCE700F0070008B528B11C2203493C
:10A3000001F092FF002008BD0E20FCE764F3070077
:10A3100010B5064C002218212046FCF71DFF54F80A
:10A32000043C1B1A5842584110BD00BF68F3070097
:10A3300010B50A4CD4F82433D4F864231340013305
:10A3400009D04FF4FE20FDF737FDC92221464FF416
:10A35000FE20FDF75FFD002010BD00BFE04D002096
:10A36000F8B5094E094CA41B0746E4080025A54290
:10A3700001D10020F8BD56F83530384698470028FE
:10A38000F8D10135F3E700BFBCCE0700C4CE07000B
:10A39000F8B5094E094CA41B0746E408002504360D
:10A3A000A54201D10020F8BD56F83530384698470F
:10A3B0000028F8D10135F3E7BCCE0700C4CE070072
:10A3C00008B50C22002101F03DFF024B00221A6368
:10A3D00008BD00BFE04D002043F204031A68084B9B
:10A3E0009A4201BF43F20803186800F6FF7020F498
:10A3F0007F600CBF20F00F004FF48050704700BF0B
:10A40000DBE5B15108B5FFF7E7FF054B9B69184441
:10A4100000F6FF7020F47F6020F00F0008BD00BF41
:10A42000E04D00204FF48050704700002DE9F74FB9
:10A43000DFF8B0B0274F0091064690460193002503
:10A440005FFA85F9B9F1010F20D0B9F1020F2CD0D4
:10A45000FFF7D8FF8246B8F1000F15D0DBF8204097
:10A46000631E5C425C41574503D21B49B120FCF797
:10A470008FFEA7EB0A02B24201D3009BFBB1C4B12D
:10A48000B2421CD2042021E04446ECE7FFF7A4FFCF
:10A49000019B82463BB943F20401104B0C68E41A5D
:10A4A00018BF0124DFE74C46DDE701244FF4805A52
:10A4B000D9E70135032DC3D1B242E3D302E0B9F1AC
:10A4C000000F02D00648FFF77BFF002003B0BDE875
:10A4D000F08F00BF0090060041CC0700DBE5B151D2
:10A4E000F84D0020E04D002090F8552012F0FB0FB1
:10A4F00007D190F8643023B1836ECBB10B6001209B
:10A50000704712F0010303D090F8563003B1836D09
:10A510009207F2D590F85C20002AEED0054A006E32
:10A52000C2F5FC22904201D80344E6E704207047BC
:10A530000F2070470060070010B5084C4FF4007200
:10A54000FF21204601F07EFE20220021A4F12400FC
:10A5500001F078FE002344F82C3C10BD3C4E002056
:10A5600030B55B68DA680D4B9A4208D10C490A682D
:10A5700012B90C4A14681CB10B4B00221A7030BD82
:10A58000D0E901341C4413F9015B002DA4EB030056
:10A59000F9DB0B601060044B0122EFE7B0C9070044
:10A5A000EC490020E8490020F049002010B543F2B2
:10A5B0000403194A1C68944201462BD042F204035A
:10A5C000C358981A434243419442184621D142F25B
:10A5D0000403CB58A3421CD14FF4405301F5005261
:10A5E0001B781278142B81BF43F214030B481B68AD
:10A5F000B3FBF0F398BF0023142A89BF42F2140280
:10A6000000208858054A88BFB0FBF2F0181A18BF1E
:10A61000012010BD0023D7E7DBE5B15140420F0018
:10A620002DE9FF472F49304D8A6B304C304FDFF812
:10A63000D490DFF8D4A06E465C313046FEF7C4FB00
:10A6400096E80F0085E80F0000212A4B39704FF47F
:10A6500047722046C9F80010CAF80010EB6001F0FC
:10A66000F1FD224624492846FEF74DFE20B9002779
:10A67000384604B0BDE8F0873F78002FF7D094F853
:10A680006C3194F800801BB3B8F1000FEFD194F84F
:10A690007231002BEBD0DAF80020D9F800103046E8
:10A6A000FEF792FB96E80F0085E80F004FF4B272B8
:10A6B000414604F5BA7001F0C5FD04F5BA720F49C0
:10A6C0002846FEF720FE0028D1D004F5BA7406E033
:10A6D000B8F1000FCBD0A379002BC8D00834084BB9
:10A6E0001C60C5E7E04D0020104D0020F44900201B
:10A6F000F049002061A5070064CA0700B0C907003F
:10A70000CC4D0020EC490020E849002000B591B074
:10A71000FDF76AFC18B10D49DB20FCF739FD20225A
:10A720000B496846FDF7B0FC40236A4609490A48D0
:10A73000FDF7B2FB18B10549E520FCF729FD074BF1
:10A7400001221A7011B05DF804FB00BFB6CC0700FF
:10A75000D4C20700204D002004C70700C4490020D0
:10A76000F0B5A3B006460F4615461C4678222023B6
:10A77000002104A8029301F065FD00230393194B07
:10A780001B780BB9FFF7C2FF2FB336BB02AB164ED7
:10A7900001930096289B1549224604A8FDF70AFC60
:10A7A000E8B9402D1BD1124C2A463946204601F00B
:10A7B0003BFD20212046FDF774FCCDE90045029BBE
:10A7C0000C49324603A8FDF783FB00280CBF01208B
:10A7D000052023B0F0BD1320FBE71620F9E70A207F
:10A7E000F7E700BFC4490020684D002008C90700F2
:10A7F000884D0020204D0020F0B5ABB004460E4639
:10A8000017461D467822202300210CA8039301F04F
:10A8100019FD114B1B780BB9FFF778FF2DB12146BD
:10A82000202204A8FDF714FC04AC03AB0B4D0193EC
:10A8300000953B4632460A490CA8FDF7BBFB48B9D8
:10A8400020222146284601F0E1FCB0FA80F04009C0
:10A850002BB0F0BD0020FBE7C4490020C549002013
:10A8600008C9070008B5044B986B08B1FFF7D8FE7C
:10A87000024B187008BD00BFE04D0020C84D0020FD
:10A8800010B5044658B1B0F5007F0AD8064B002237
:10A890001A70FFF751FE054B01209C6310BD032089
:10A8A000FCE70420FAE700BFC84D0020E04D00207F
:10A8B00070B50E4C0646E06BA36B42189A420D46EB
:10A8C00011D85C300A462044314601F0ADFCE36B00
:10A8D00004F140022B4429463046E363FCF73CFC7C
:10A8E0002064012070BD0320FCE700BFE04D002084
:10A8F000014B1878704700BFC84D002013B5124CAB
:10A9000094F86C2182B194F8D802B4F8DA2204F5F4
:10A91000377104F5B87494F859304BB9201D02B062
:10A92000BDE8104000F0CEB9114610460434F2E7FD
:10A93000064B1B680093064B1B68FFF711FF0128AD
:10A94000ECD002B010BD00BFF4490020E84900205F
:10A95000EC4900202DE9F0411F4BD3E90E329A4219
:10A9600007460D4633D1DFF8788098F800604EB185
:10A97000FFF748FD194B386029461868BDE8F041DB
:10A98000FFF7B2BDFFF74CFE18B3FFF7B7FF012882
:10A990003E6004462E6017D1104B29461868FFF719
:10A9A000A3FD012804460FD10346324631462868EC
:10A9B000FFF73CFD38B9FFF725FD88F80040386007
:10A9C0002046BDE8F0810424FFF7B6FDF8E708242F
:10A9D000F6E70524F4E700BFE04D0020CC4D002051
:10A9E000C84D002070B50D461646044620B90749EB
:10A9F0004FF42E70FCF7CCFB3246294604F172006E
:10AA00000123BDE87040FFF7F7BE00BFB6CC0700DA
:10AA100037B503780D461146032B21D8DFE803F044
:10AA200027020E17D0F8014000222846FCF794FBBD
:10AA3000844214BF0020012003B030BD0A46002329
:10AA40002946013003B0BDE83040FFF7D5BE009184
:10AA50002B46411C40220020FFF782FE0128E8E738
:10AA600040F2DD300349FCF793FB0020E4E70120CE
:10AA7000E2E700BFB6CC07002DE9F041A2B00446E2
:10AA80000D46174600217822984604A820230393F8
:10AA90009DF8A06001F0D6FB41220021204601F084
:10AAA000D1FBB5F894300BB195F896602670032E63
:10AAB0001ED8DFE806F00902111F00224146384681
:10AAC000FCF74AFBC4F80100424639462046FFF72E
:10AAD0009FFF22B0BDE8F08103AB0193631C00939C
:10AAE0003A464346074904A8FDF764FA0028EBD02C
:10AAF0000020EEE7B5F8982005F19A01601C01F0FE
:10AB000093FBE1E708C907002DE9F047634B1D6897
:10AB1000A4B00446884617460A4601462846FFF771
:10AB200061FF002876D095F8556016BB4FF00109FB
:10AB3000CDF8009043462246294613A8FFF79CFF14
:10AB4000002800F09E8077B3412213A9544801F0F9
:10AB50006BFB544BC3F82C901E626A689A6000220B
:10AB600041462046FCF7F8FA4E4B0125C3E909801F
:10AB70004BE04122002102A801F064FB06F001092C
:10AB80004122002113A806F0020601F05BFBB9F197
:10AB9000000F41D1002E2ED143494FF45970FCF7DC
:10ABA000F7FA002F2AD13F4B01255D616EE0002F9F
:10ABB000F9D0B9F1000F21D02046FFF7F7FC10B112
:10ABC0003A48FFF7FDFB412202A9394801F02CFB6E
:10ABD000002E344B14BFAC22A522DA62AA6D5A6350
:10ABE000002EBCD0412213A9324801F01DFB2D4B91
:10ABF0006A68DA60B3E7434622463AE0294BAA2264
:10AC0000DA62EDE72C48FFF7DBFBFFF795FC254BFD
:10AC10009C643BE0172535E042F20403E25803F15F
:10AC2000A34303F5471303F2D7539A4229D1D5F82A
:10AC300058A00AF5FF520AF6FF73C3F30B031F3245
:10AC4000D21A42F20803E35893421AD32046FFF780
:10AC5000ADFC00B1AEB10123009322465346294614
:10AC600002A8FFF709FF60B1A6B1AB6DE218A8EB2F
:10AC700003030021009113A82946FFF7FDFE0028D9
:10AC800095D10525002FBDD1FFF756FC284624B0ED
:10AC9000BDE8F087002F8FD185E700BFCC4D0020A5
:10ACA00081500020E04D0020B6CC0700F84D002078
:10ACB00040500020C2500020044E00200122FFF727
:10ACC00023BF0000F8B5044618B92F49C420FCF78B
:10ACD0005FFA94F85430002B50D094F85530032B81
:10ACE0004CD894F86E20032A46D1227A002A45D007
:10ACF000E268342A44D143F20401228A08682349D5
:10AD0000884229D152B16169E9B1D2B2002104F17E
:10AD1000140543F20C06C8B2904201D3122011E090
:10AD200055F821703088874201F10101F3D1227872
:10AD3000EAB1012B26D9164B6068DB6898428CBFBC
:10AD400001201020F8BD002BF1D013F1FF3218BF05
:10AD50000122002AEBD1E1E712B16269002ADDD1BC
:10AD6000012B0CBF2278012202F00102F1E7012B36
:10AD70008CBF0F200120E5E71420E3E70F20E1E777
:10AD80001120DFE70120DDE730CD0700DBE5B15121
:10AD9000E04D002038B1054B0360054B43600123B3
:10ADA0000372002070470E20704700BFDBAD070024
:10ADB000B5AD070069B10B78022B0CD1022804D085
:10ADC00003280CBF11200820704703230B700020BC
:10ADD00070470E2070470820704710B50C4681B1AF
:10ADE0000B78042B04D8DFE803F00E05030E0E00E9
:10ADF000112010BDFFF764FA0028FAD10223237056
:10AE0000F7E70E20F5E70820F3E7000070B5144BD4
:10AE1000144A0C21D21AB2FBF1F2816911F8025CDA
:10AE2000044635B900690021914205D10123236010
:10AE30000EE04FF0FF30F6E71E68AE420CD1461C24
:10AE400007D19D68D4E90001D4E90223A847206016
:10AE500070BD5E688642F4D001310C33E4E700BF78
:10AE6000C4CE0700D0CE07001EF0040F0CBFEFF3D6
:10AE70000880EFF30980FFF7C9BF00BF10DF7047FC
:10AE800011DF704713B5044609496846FCF7B2FD67
:10AE9000019808B902B010BDD0E9003120469847AA
:10AEA00018B16846FCF7BEFDF2E71120F2E700BFDB
:10AEB000B4CD070013B5044607496846FCF79AFD70
:10AEC000019B0BB902B010BD2046D3E90021904789
:10AED0006846FCF7A7FDF3E7CCCD0700064B9A6860
:10AEE00022B11A6822F480021A607047034B4FF4B3
:10AEF0008002C3F880207047D44D002000E100E0BC
:10AF00000B4991F816335A09EC231341DB0706D598
:10AF1000084B9A683AB94FF480030B60704742F2CD
:10AF20000200FBF704BA1A6842F480021A60704704
:10AF300000E100E0D44D0020F7B5194F3C7864BB28
:10AF4000184E012520463570FFF79CFF112821D0AF
:10AF50002046FFF7AFFF144B8DF8034018680190AF
:10AF60000DF10300FCF7A8F8104901A8FFF786FFD0
:10AF70000446B0FA80F0400938709DF80300FCF7F1
:10AF8000CBF83CB90A4B34701C70FFF7B9FF284668
:10AF9000FFF790FF204603B0F0BD0824FAE700BF9A
:10AFA000D14D0020D04D0020AECD07002963070011
:10AFB000D24D0020F7B5154F3B781BB3144E01203E
:10AFC0003070FFF75FFF11284FF000051CD0022002
:10AFD000FFF770FF0DF107008DF80750FCF76CF8D4
:10AFE000FFF74EFF04469DF807003D70FCF794F80C
:10AFF0002CB93470FFF772FF0320FFF75BFF204688
:10B0000003B0F0BD0824FAE72C46F8E7D14D002044
:10B01000D04D0020054B1B7833B1054B1B780BB18D
:10B02000FFF7C8BFFFF788BF08207047D04D00204A
:10B03000D14D0020014B1878704700BFD14D002042
:10B0400007B508496846FCF7D5FC019B13B903B066
:10B050005DF804FBD3E9002090476846FCF7E2FC6A
:10B06000F3E700BFC0CD0700FFF7EABF60DF70471E
:10B0700069DF704761DF704730B5114DADF5017D77
:10B080004FF4FA740DF1020103A8ADF80240FFF786
:10B09000F1FF70B9294601A8FCF7ACFC029B002B1C
:10B0A000F0D003A8D3E90021904701A8FCF7BAFC2F
:10B0B000F4E7052801D0FBF73AF90DF5017D30BD25
:10B0C000D8CD0700024B1B780BB1FFF7D5BF7047F7
:10B0D000D34D002018B1034B0360002070470E20B1
:10B0E000704700BF982A0020F0B5074685B00D468E
:10B0F00000295CD02F4B0B600C22002101A801F02D
:10B10000A1F8012606232A68ADF8083001A92020FD
:10B110008DF804708DF80660FFF7AAFF0C2200215D
:10B1200001A801F08FF800242A688DF8056001A9B4
:10B130004020ADF80640FFF79BFF0C22214601A8F6
:10B1400001F080F8F7232A68ADF8063001A9232022
:10B150008DF80470FFF78CFF0C22214601A801F046
:10B1600071F82A688DF8046001A93046FFF780FF66
:10B170000C22214601A801F065F84FF4B0632A685B
:10B18000019301A9A120FFF773FF0C22214601A81A
:10B1900001F058F89DF804302A68334301A9A02033
:10B1A0008DF80430FFF764FF204605B0F0BD0E2097
:10B1B000FBE700BF982A002008B5FFF757FF10B93A
:10B1C000014B01221A7008BDD34D00204BDF7047A0
:10B1D0001FB50D4C01A8FFF7F9FF70B9214602A871
:10B1E000FCF708FC039B002BF4D00198D3E9002165
:10B1F000904702A8FCF716FCF4E7052801D0FBF7FE
:10B2000096F804B010BD00BFE4CD07008B180244CF
:10B210008B4200D1704713F8010D02F8010DF7E7DA
:10B22000C3F10803DB0070B50133002403A500BFA0
:10B230005B1920C940CAAD1920C0184720C940CAAF
:10B24000754120C020C940CA754120C020C940CAEC
:10B25000754120C020C940CA754120C020C940CADC
:10B26000754120C020C940CA754120C020C940CACC
:10B27000754120C06441204670BD00BF0000000041
:10B28000C3F10803DB0070B50133002403A500BF40
:10B290005B1920C940CAAD1B20C0184720C940CA4D
:10B2A000B54120C020C940CAB54120C020C940CA0C
:10B2B000B54120C020C940CAB54120C020C940CAFC
:10B2C000B54120C020C940CAB54120C020C940CAEC
:10B2D000B54120C06441B4FA84F0400970BD00BF9C
:10B2E0002DE9F04F08B4F8CA04B451F8042BA3FBBD
:10B2F000028940F8048B4FF0000AE4FB629A4FF099
:10B30000000BE5FB62AB4FF0000CE6FB62BC4FF0BC
:10B31000000EE7FB62CE51F8042B4FF00008E3FB70
:10B32000628940F8048BE4FB629AE5FB62ABE6FBC2
:10B3300062BCE7FB62CE51F8042B4FF00008E3FB40
:10B34000628940F8048BE4FB629AE5FB62ABE6FBA2
:10B3500062BCE7FB62CE51F8042B4FF00008E3FB20
:10B36000628940F8048BE4FB629AE5FB62ABE6FB82
:10B3700062BCE7FB62CE51F8042B4FF00008E3FB00
:10B38000628940F8048BE4FB629AE5FB62ABE6FB62
:10B3900062BCE7FB62CE40F8049B40F804AB40F887
:10B3A00004BB40F804CB40F804EB0CBC052B00F0C8
:10B3B0001E810C68A0F11400A1F11401A2F1140285
:10B3C00052F804EB4FF0000550F8046BE4FB6E56A6
:10B3D00052F804EB50F8047BE4FB6E6752F804EB80
:10B3E00050F8048BE4FB6E7852F804EB50F8049BA1
:10B3F000E4FB6E8952F804EB50F804ABE4FB6E9A60
:10B40000A0F1140052F8044B51F804EB4FF0000C7B
:10B41000E4FB6EC540F804CB51F804EBE4FB6E5638
:10B4200040F8045B51F804EBE4FB6E6740F8046BF2
:10B4300051F804EBE4FB6E7840F8047B51F804EB20
:10B44000E4FB6E8940F8048B51F804EBE4FB6E9A40
:10B45000A0E80006062B00F0CA800C68A0F11800D6
:10B46000A1F11801A2F1180252F804EB4FF0000507
:10B4700050F8046BE4FB6E5652F804EB50F8047B72
:10B48000E4FB6E6752F804EB50F8048BE4FB6E7833
:10B4900052F804EB50F8049BE4FB6E8952F804EB7D
:10B4A00050F804ABE4FB6E9A52F804EB50F804BB7E
:10B4B000E4FB6EABA0F1180052F8044B51F804EB1A
:10B4C0004FF0000CE4FB6EC540F804CB51F804EBE0
:10B4D000E4FB6E5640F8045B51F804EBE4FB6E6746
:10B4E00040F8046B51F804EBE4FB6E7840F8047B01
:10B4F00051F804EBE4FB6E8940F8048B51F804EB3F
:10B50000E4FB6E9A40F8049B51F804EBE4FB6EAB4D
:10B51000A0E8000C072B6AD008B40C68A0F11C004E
:10B52000A1F11C01A2F11C0252F804EB4FF000053E
:10B5300050F8046BE4FB6E5652F804EB50F8047BB1
:10B54000E4FB6E6752F804EB50F8048BE4FB6E7872
:10B5500052F804EB50F8049BE4FB6E8952F804EBBC
:10B5600050F804ABE4FB6E9A52F804EB50F804BBBD
:10B57000E4FB6EAB52F804EB50F804CBE4FB6EBC7A
:10B58000A0F11C0052F8044B51F804EB4FF00003FB
:10B59000E4FB6E3540F8043B51F804EBE4FB6E56D7
:10B5A00040F8045B51F804EBE4FB6E6740F8046B71
:10B5B00051F804EBE4FB6E7840F8047B51F804EB9F
:10B5C000E4FB6E8940F8048B51F804EBE4FB6E9ABF
:10B5D00040F8049B51F804EBE4FB6EAB40F804AB7D
:10B5E00051F804EBE4FB6EBCA0E8001808BCBDE811
:10B5F000F08F002310B51C465AB2914200DC10BDFA
:10B6000040F823400133F7E710B500231A465CB237
:10B61000A14203DCB2FA82F0400910BD50F8234089
:10B6200001332243F3E74A11012350F8220001F0CD
:10B630001F0103FA01F108407047013910B549B202
:10B64000041D0A06CBB204D4013954F82120002A83
:10B65000F7D001335BB273B103F18042013A50F885
:10B660002220002022B9013B00EB431318B210BD89
:10B6700052080130F6E71846F9E710B500235CB22E
:10B68000A24200DC10BD51F8234040F823400133B2
:10B69000F5E710B5013A52B2130601D5002010BDEE
:10B6A00050F8224051F822309C4205D802F1FF3276
:10B6B000F2D24FF0FF30F2E70120F0E700EB81011A
:10B6C0000023884200D3704751F8042D43EA520307
:10B6D0000B60D307F5E770B59DF910401E46234671
:10B6E0000546FFF79DFD30B9224629463046FFF753
:10B6F000D0FF012807D02346324629462846BDE818
:10B700007040FFF7BDBD70BD70B59DF910401E467D
:10B7100023460546FFF7B4FD38B123463246294695
:10B720002846BDE87040FFF77BBD70BD2DE9F04FA6
:10B73000B5B004AC9DF9F8501F4681462B46204613
:10B74000FFF7CEFD24AB29463846CDE90234FFF79A
:10B7500074FFC0EB851004B2002C2646B8BF04F17C
:10B760001F06634246F3471603F01F0304F01F0849
:10B7700014A858BFC3F100083146FFF73AFFB8F1EB
:10B78000000F30B22DDD14AB002203EB8000C8F1B6
:10B79000200C1346AB4219D32FB27B00019314AB9C
:10B7A00003EB870705F1FF3834AB012603EB88086C
:10B7B000002C54DA34AB03EB86062A4656F8C81C34
:10B7C0004846FFF75AFF35B0BDE8F08F57F82360C1
:10B7D00006FA08F10A4340F8042B013326FA0CF26A
:10B7E000D8E714AB2A46394603EB8000FFF745FF44
:10B7F000D2E70FFA82FE5AF8C83C53F82EB034ABA9
:10B8000003EB8202013052F8803C0B44BBEB030394
:10B8100034BF012200229B4518BF11465CF8C82C9A
:10B8200042F82E30019B42B29A42E2DB731A5E422A
:10B83000294614A85E41FFF741FF34AB03EB8503B3
:10B84000294653F8802C58F8803C384643EAC273A6
:10B85000013C48F8803C24B2FFF730FFA8E734AB46
:10B860000020C6F1010C014603EB860A03EB8C0CA9
:10B87000D8E730B51C4691B0054693F900306846CC
:10B88000FFF72EFDD4F8AC3069462846984711B032
:10B8900030BD13460A46FFF7ECBF2DE9F04793F998
:10B8A000006092B0044689461046314615469846D7
:10B8B000FFF7AAFE002840F091804246494602A8C0
:10B8C000FFF7E7FF434602AA21460AA8FFF7D1FF88
:10B8D00002A908464246FFF7DCFF43462A4649468E
:10B8E0004846FFF7C6FF08F10407424629462846A6
:10B8F000FFF7CFFF3B462A46214620460096FFF73A
:10B90000EAFE3B462A46294628460096FFF7E3FE14
:10B910003B462A46214628460096FFF7F5FE434659
:10B920002A4621462046FFF7A4FF3B4622462146F1
:10B9300028460096FFF7CFFE3B4600962A46214652
:10B940002046FFF7C8FE2368DB074AD533463A4650
:10B9500021462046FFF764FC314682462046FFF729
:10B96000ADFE06F18043013B54F8230040EACA7063
:10B9700044F82300424621462846FFF78AFF3B460B
:10B980000AAA294628460096FFF7BEFE3B460AAAA9
:10B99000294628460096FFF7B7FE0AA908463B4607
:10B9A0002A460096FFF7B0FE43460AAA21462046E3
:10B9B000FFF75FFF02AA3B46104621460096FFF7BD
:10B9C000A3FE324629462046FFF757FE4946284641
:10B9D000FFF753FE02A94846FFF74FFE12B0BDE83D
:10B9E000F08731462046FFF769FEC3E72DE9F041B5
:10B9F00015468AB0044688461C22002103A800F0A0
:10BA000021FC2E1D95F9007003232A46414620464D
:10BA10000293FFF73EFF334602AA214620460097D5
:10BA2000FFF772FE2B46424621462046FFF721FFD4
:10BA30000097334605F1840221462046FFF74BFE6E
:10BA40000AB0BDE8F0810000F0B5082289B00C46CC
:10BA50000646FFF712FECB6A03930B6B04934B6B06
:10BA600005938B6B0693CB6B0793002708236A46DD
:10BA700069466846CDE901770097FFF7D1FB0823B7
:10BA800005466A4631463046FFF7CAFB236B0393EF
:10BA9000636B0493A36B0593E36B0544CDE9063711
:10BAA0006A46082369466846FFF7BAFB082305443F
:10BAB0006A4631463046FFF7B3FB236A0093636A58
:10BAC0000193A36A0293A36B0693E36B0793054468
:10BAD00008236A4631463046CDE904770397FFF7DD
