:020000021000EC
:10C0000000000120D5C001005DC4010075C8010019
:10C010005DC401005DC401005DC4010000000000BA
:10C020000000000000000000000000005DC40100EE
:10C030005DC40100000000005DC401005DC401009A
:10C040005DC401005DC401005DE601005DC4010046
:10C050005DC401005DC401005DC4010009F401007C
:10C060005DC4010017F4010019F401005DC4010072
:10C070005DC401005DC401005DC401005DC4010038
:10C080005DC40100C9DC0200F1AC020071050300CF
:10C0900089DD02005DC40100AD1603005DC401002E
:10C0A0005DC401005DC401005DC4010059EE0100E2
:10C0B0005DC401005DC401005DC401005DC40100F8
:10C0C0005DC401005DC401005DC401005DC40100E8
:10C0D0005DC401004FF0804307B50022C3F804217E
:10C0E00001221A601A46D2F800114FF0804300294D
:10C0F000F9D00222C3F8182501229A60D3F804214E
:10C10000002AFBD04FF0804301229A671749184B51
:10C11000184801930022834205D251F8042F43F8B6
:10C12000042B0122F7E702B10193019A1249134847
:10C13000114B8A4202D242F8040BF9E7002210495F
:10C14000019310468B4203D243F8040B0122F9E716
:10C1500002B1019302AB094953F8042D9A4202D26D
:10C1600042F8041BFAE713F001FDFEE770EA030052
:10C17000B8260020AC2F0020B02F0020EFBEADDE8F
:10C18000106E0020FFFFFFFFFFFFFFFFFFFFFFFF1D
:10C19000FFFFFFFFFFFFFFFFFFFFFFFFFFFFFFFFAF
:10C1A000FFFFFFFFFFFFFFFFFFFFFFFFFFFFFFFF9F
:10C1B000FFFFFFFFFFFFFFFFFFFFFFFFFFFFFFFF8F
:10C1C000FFFFFFFFFFFFFFFFFFFFFFFFFFFFFFFF7F
:10C4000010B5054C237833B9044B13B10448AFF38E
:10C4100000800123237010BDB02F00200000000019
:10C4200074EA0300084B10B51BB108490848AFF384
:10C4300000800848036803B910BD074B002BFBD0F0
:10C44000BDE81040184700BF00000000B42F0020D6
:10C4500074EA0300AC2F0020000000007047FFFFCB
:10C460000823037106234371072383710223C371D9
:10C470000123837214234373132383730A23C37327
:10C4800009230374437C03F0F00343F0090303F032
:10C49000CF036FF3861343740D4B83610D4B4361E0
:10C4A00040F2C973C36140F2BC7303624FF45B6333
:10C4B00043624FF496638362C362074B4363074B47
:10C4C00083630322EC230273827480F83030704758
:10C4D000CDCC4C3EE02D903B5C8F423F85EBD13E76
:10C4E0000823037106234371072383710223C37159
:10C4F000012383720023C3721423437313238373B2
:10C500000A23C37309230374437C03F0C00343F07D
:10C51000690343740E4B83610E4B43616FF06203FA
:10C52000C361AB3B03624FF4FA5343624FF496632B
:10C5300083624FF41673C362074B43634FF07A5321
:10C5400003228363EC230273827480F830307047D7
:10C55000A01A2F3E27A0893B3333333F08230371B2
:10C56000062343714372022383720023C372142390
:10C570004373132383730A23C37309230374437C14
:10C5800003F0C00343F069034374124B8361124B01
:10C5900043616FF06203C361AB3B03624FF4FA5334
:10C5A00043624FF49663072283624FF416738271DD
:10C5B000C3620422094BC271436305224FF07A53D0
:10C5C000027283630322EC230273827480F830309A
:10C5D000704700BFA01A2F3E27A0893B3333333F5B
:10C5E0000823037106234371072383710223C37158
:10C5F0000323037314234373132383730A23C37323
:10C6000009230374437C03F0F00343F0090303F0B0
:10C61000CF036FF3861343740D4B83610D4B43615E
:10C6200040F2D373C36140F2CD73036240F2DC5336
:10C6300043624FF496638362C362074B4363074BC5
:10C6400083630122EC238272827480F83030704759
:10C65000CDCC4C3EBC74933B5C8F423F85EBD13ECE
:10C660000823037106234371072383710223C371D7
:10C670000023C372032303731423437313238373AD
:10C680000A23C37309230374437C03F0C00343F0FC
:10C69000690343740E4B83610E4B43616FF0620379
:10C6A000C361AB3B03624FF4FA5343624FF49663AA
:10C6B00083624FF41673C362074B43634FF07A53A0
:10C6C00001228363EC238272827480F830307047D9
:10C6D000A01A2F3E27A0893B3333333F1123037128
:10C6E0000B2343710C238371022383720423C372CF
:10C6F00008234373062383731323C3731423037420
:10C70000437C03F0FE0343F01E03002203F0DF032B
:10C7100062F3861343740023836143614FF47A7399
:10C72000C36103624FF461638362C3624FF080436D
:10C7300043634FF07E5301218363D823C171027399
:10C740008174426280F83030704710B5FFF7C6FF41
:10C750000423837410BD192343731A238373437C0A
:10C7600003F0F8036FF3C303437402238374EC23D1
:10C7700080F83030704738B54FF010230546D3F8B5
:10C780008440631C36D0B4F57B7F11D8B4F57A7F32
:10C7900027D2642C2ED006D8A4F12803012B2ED842
:10C7A000FFF79CFF30E0C82C29D1FFF7CEFF2BE02C
:10C7B00040F2DE539C420ED840F2DC539C4216D22B
:10C7C00040F2ED339C420FD040F2EE339C4216D142
:10C7D000FFF7C4FE18E0B4F5BC6F10D8FFF740FFB8
:10C7E00012E0FFF73DFE0FE0FFF77AFE0CE0FFF7E7
:10C7F000F7FE09E02846FFF7AEFF642404E0284670
:10C80000FFF7EEFE072038BD2C60002038BDFFFF8B
:10C810008EB0036800934368019383680293C368F2
:10C820000393036904934369059383690693C3697A
:10C8300007930A4B1B680893094B1B680993094B24
:10C840001B680A93084B1B680B93084B1B680D93DE
:10C85000074B1B680C9300BE0EB0704728ED00E03C
:10C860002CED00E030ED00E03CED00E034ED00E0C8
:10C8700038ED00E004207146084203D0EFF3098050
:10C88000FFF7C6BFEFF30880FFF7C2BF30B5002443
:10C890001C6001380B4615685C1AA54207D910F8D0
:10C8A000015F03F8015B0578002DF4D114600846A0
:10C8B00030BD82B089B2ADF8061000BEFEE782B08E
:10C8C00089B20190ADF8021000BEFEE782B00023ED
:10C8D0000190ADF8023000BEFEE7FFFF024B1622CA
:10C8E0001A604FF0FF3070470C6E0020FEE7012009
:10C8F00070474FF0FF3070470020704701207047AD
:10C90000002070470020704710467047064A0749CC
:10C9100013681844884203D300BE4FF0FF307047BD
:10C9200010601846704700BFBC26002030BC0020B5
:10C930007047704710B5044614F0F6FE204610BD4F
:10C94000002200F5C4710270C0F88011C0F8842183
:10C9500080F88821C0F89821C0F89C2170473929B7
:10C960001ED8DFE801F02A1D1D1F212321212F1FC2
:10C970001D1F21251F1F212121211F1F211D313195
:10C980003131311D1D1D1D1D212F2F2F1D21212155
:10C990001F23232323232123212123233131312347
:10C9A00024207047012B04E0022B02E0042B00E05E
:10C9B000062B0CBF002020207047202B34BF002006
:10C9C00020207047102BF4E75120704739299ABF77
:10C9D000014B585C00207047F4B1030008B50B46CA
:10C9E0001C2B114630D012D8192B23D006D8182B67
:10C9F0003CD100230122D0F83C0133E01A2B1ED099
:10CA00001B2B33D100231A46D0F848012AE0362BDD
:10CA10001FD006D8262B29D100231A46D0F854015E
:10CA200020E0372B1AD0382B20D100231A46D0F81B
:10CA3000780117E000230122D0F8400112E0002322
:10CA40000122D0F844010DE000231A46D0F84C0131
:10CA500008E000231A46D0F8700103E00023D0F864
:10CA600074011A4601F024FA012008BD002008BD17
:10CA7000262907B508D003D8A1F11803042B02E03A
:10CA8000A1F13603022B06D80DF10702FFF7A6FF2E
:10CA90009DF8070000E0002003B05DF804FB07B537
:10CAA0004FF4BA730093021D00F10C0306CAD0F8CC
:10CAB000980101F0AFFB03B05DF804FB70B5134DB6
:10CAC0002B68DB0704460E460ED4284615F0BCFC46
:10CAD00050B10F4801F0C8FA284615F0D1FC0D4AB4
:10CAE0000D490B4814F01AFE0948C4F8980103795F
:10CAF000C4F89C6143B1221D002101F025FB2046B2
:10CB0000FFF7CDFF0123237070BD00BF4C30002024
:10CB100050300020B826002031C901007FB50446FE
:10CB20000D4616460C3001F06FF98DE860000123C8
:10CB30000293221D034606CAD4F8980101F0DCFBDB
:10CB400004B070BDF8B5164605460C461F46FFF703
:10CB50008FFFB04238D01C2C24D00ED8192C1BD0FB
:10CB600004D8182C32D105F59E7423E01A2C16D067
:10CB70001B2C2BD105F5A4741CE0362C15D004D841
:10CB8000262C23D105F5AA7414E0372C10D0382CAC
:10CB90001CD105F5BC740DE005F5A0740AE005F59F
:10CBA000A27407E005F5A67404E005F5B87401E089
:10CBB00005F5BA742146304601F078F927B1042210
:10CBC00021462846FFF7AAFF0120F8BD0020F8BD46
:10CBD00007B54FF4BA730093021D00F10C0306CAA7
:10CBE000D0F8980101F0F4FB03B05DF804FB1C22BF
:10CBF00000F17001FFF792BF094B994210B504464E
:10CC00000DD10021D0F8980101F0E0FA04F10C00F8
:10CC10004FF4BA72FF21BDE8104019F0F9BF10BD02
:10CC2000EFBEADDE38B50446084611461A469DF8FB
:10CC3000103063B923461D1B954208D213F8015BDF
:10CC4000FF2DF8D0214619F0E5FE002006E011B1D5
:10CC500019F0E0FE01E019F0DBFF012080F0010097
:10CC600038BDFFFF70B58EB01D46044616469DF8D0
:10CC70004830392900F24D81DFE811F03A004B01CC
:10CC80004B0149004D001B01530059005D0071002C
:10CC90004B0177007C00810089008E009300990091
:10CCA0009F00A500AB00B000B7004B014B014B014A
:10CCB0004B014B014B014B014B014B014B014B0114
:10CCC000BD00C200C800CE004B01D400D900DE0078
:10CCD000E300ED00F600FF0006010D014B01160117
:10CCE000230129012F0138014B014B014B01440164
:10CCF0008949039306A81AF031FC039B009306AA06
:10CD00002B46314604F10C0001F09AF8F8E00022BD
:10CD10003146C06E66E04FF496723146D0F890000E
:10CD200002E0006F0022314601F0D4F8E8E0002272
:10CD30003146406FF8E7794A0393002504A906A815
:10CD40000492ADF814508DF8165003F083F9039B4C
:10CD5000009306AA1023314604F1780014E06FF026
:10CD60003B023146D0F8880072E004223146D0F808
:10CD700094006DE0A0223146D0F89800D4E7684ACC
:10CD80000093314606239C30FFF74CFFB8E00222A7
:10CD90003146D0F8A4005BE00A223146D0F8A80062
:10CDA00056E04FF4FA623146D0F8AC00BCE74FF4DD
:10CDB0007A723146D0F8B000B6E741F658323146C3
:10CDC000D0F8B400B0E74FF4C8723146D0F8B800DC
:10CDD000AAE74B223146D0F8BC0039E0D0F8C000B9
:10CDE0000322314601F064F88AE04FF4B472314610
:10CDF000D0F8C40098E700223146D0F8D40093E779
:10CE00000093002210233146D830BDE70093002262
:10CE100010233146E830B7E7009300221023314653
:10CE2000F830B1E7A0223146D0F818017CE79E2205
:10CE30003146D0F81C0177E70F223146D0F82001A7
:10CE400072E7D0F89C21D0F8240192F930203146C5
:10CE500001F037F854E0D0F89C2194ED4A0AD2ED65
:10CE6000060A1946304649E0D0F89C2194ED4B0A59
:10CE7000D2ED050A1946304640E0D0F89C21D0F8A2
:10CE80003001D26931460CE0D0F89C21D0F8340151
:10CE9000126A314605E0D0F89C21D0F83801526A78
:10CEA000314601F02DF82BE01E4AD0F85C013146E6
:10CEB00004E0D0F8600142F21072314601F015F83A
:10CEC0001EE04FF47A523146D0F88C002CE74FF434
:10CED0007A723146D0F8640126E7D0F89C2194EDAF
:10CEE0005A0AD2ED0D0A1946304607E0D0F89C21C7
:10CEF00094ED5B0AD2ED0E0A1946304601F01EF899
:10CF0000002007E01946DFED080A94ED5F0A30467D
:10CF1000F4E724200EB070BD2EB2030034B203003B
:10CF200059B203009EA641A60024F4482DE9F0431F
:10CF3000392985B098BF1C4B98BF5B5C02AF88BF96
:10CF4000002304460D461646FB8043B3FFF7A7FDBA
:10CF500007F10803E84633F8022D073222F00702F2
:10CF6000ADEB020D0DF108090022009220464A4661
:10CF70002946FFF777FE044670B97268FB88101DDA
:10CF800008D031698B4205D85380F26849465A432C
:10CF900019F040FD73681D702046C54600E024204E
:10CFA0000C37BD46BDE8F083F4B1030030B585B061
:10CFB00004AC002524F8025D00932346FFF752FEDF
:10CFC00005B030BD10B4034608461946CC1AA2423B
:10CFD00008D911F8014BFF2CF8D019465DF8044B25
:10CFE00019F018BD5DF8044B7047FFFF2DE9F043C1
:10CFF00089B01F46064688461546BDF84030392997
:10D0000000F2C480DFE801F01DC2C2302DA3333628
:10D01000393CC23F4245494C4F5255585B5E65C250
:10D02000C2C2C2C2C2C2C2C2C2C2686B6E71C2797F
:10D030007C7F828A8D9093969DA0AAADB4B7C2C220
:10D04000C2BA04AA00F10C04029205EB0309002DF8
:10D0500040F09E80B9F1000F00F09A80634815F00F
:10D060002DFA00F190047EE000F16C042CE000F158
:10D07000700478E000F1740475E000F1780436E0A3
:10D0800000F1880444E000F1940441E000F19804C8
:10D0900069E000F19C0406222AE000F1A40437E0D4
:10D0A00000F1A80434E000F1AC045CE000F1B0044D
:10D0B00059E000F1B40456E000F1B80453E000F187
:10D0C000BC0425E000F1C0042146287800F0EEFE03
:10D0D0007AE000F1C40446E000F1D40443E000F13A
:10D0E000D80404E000F1E80401E000F1F8041022A3
:10D0F00021462846FFF766FF66E000F58C7432E0B3
:10D1000000F58E742FE000F590742CE000F5927419
:10D11000214695F9000000F0D2FE55E000F5947428
:10D120002EE000F596742BE000F5987404E000F50D
:10D130009A7401E000F59C742146286800F0DCFE3A
:10D1400042E000F5AC740EE000F5AE7401E000F5CD
:10D15000B0742146286800F0C4FE35E000F18C046C
:10D1600001E000F5B2742146288800F0B1FE2BE002
:10D1700000F5B47404E000F5B67401E000F5BE7487
:10D18000204695ED000A00F0C2FE1DE0242029E0B3
:10D190000F2B019307D9002201A902A815F01EFA4E
:10D1A000019B029004934A462946029815F044FADE
:10D1B000019B029A03930021D15402A8214600F05A
:10D1C00039FE02A815F030FA5FB1094B13F80820B8
:10D1D000032A304698BF04222146FFF79FFC002017
:10D1E00000E0384609B0BDE8F08300BF60B203003C
:10D1F000F4B103002DE9F3411D46DBB206460F46AC
:10D200009046FFF7ACFB0446D8B930460F4E9DF868
:10D21000203000954246FFF7E9FE3368DB070446FD
:10D2200009D4304615F010F928B1094802F0C8FEBB
:10D23000304615F025F92B4642463946044802F09F
:10D24000C3FE204602B0BDE8F08100BFCC2F002015
:10D25000D02F002010B5044614F066FA204610BD09
:10D260002420704710B5144642680A6003681B69A1
:10D270009847208010BD7920704710B51446426849
:10D280000A6003681B699847208010BD10B50446EA
:10D2900000F5C07015F0C8F9204610BD7047704702
:10D2A00010B5044614F040FA204610BD10B50446EF
:10D2B00014F03AFA204610BD2D2A08B502D80120F4
:10D2C00018F0BAFD4160002008BD782A08B502D8E0
:10D2D000012018F0B1FD4160002008BD08B502F042
:10D2E000A4FCC0EBC000013080B208BD08B502F05C
:10D2F00061FD00EB40008000013080B208BDFFFFFF
:10D3000010B50A4C2368DB070ED4204615F09CF8B4
:10D3100050B1074800F0A8FE204615F0B1F8054AC4
:10D320000549034814F0FAF9014810BD4C300020BB
:10D3300050300020B826002031C9010000220270C0
:10D340004260C0F83821C0F83C21C0F84421C0F840
:10D350004821C0F84C21C0F85021C0F85421C0F831
:10D360005821C0F85C2180F86021C0F8642180F861
:10D370006821704781F0800114299ABF014B585CE5
:10D38000002070473CB3030081F08001142918D8B5
:10D3900001230D488B40184048B913F4866F10D014
:10D3A0000A4B5B5C934234BF0022012204E0074B2E
:10D3B0005B5C9B1A5A425A41002A14BF002020206D
:10D3C00070472420704700BFCFFB1F003CB3030011
:10D3D00007B54FF49073009300F1100200F11803A9
:10D3E00006CA406800F016FF03B05DF804FBFFFFBB
:10D3F0002DE9F04FADF6BC1D0546FFF781FF03791F
:10D400006860002B00F0EB80774C05F108020221E8
:10D4100000F09AFE2368D8070ED4204615F014F8C1
:10D4200050B17248FFF78CFA204615F029F8704A7F
:10D4300070496E4814F072F926216C48FFF718FB0A
:10D4400016A9002802A814BF4FF064084FF0000886
:10D45000D5F808B0D5F80CA000F0D6FC81464FF402
:10D460004F7014F0FFFC00264FF6FF7706608780B0
:10D47000C680A0F80880A0F80A80C0F80CB0C0F8F8
:10D4800010A0A0F814900446FFF73AFF4FF448723A
:10D49000A38A2060019204F11C02009204F10C02A4
:10D4A00006CA00F0D7FE22463346918BB94203D01C
:10D4B000E088884240F284800133C82B02F10402E4
:10D4C000F3D1238985F8403102A90846C5F83C41CB
:10D4D000D5F808A0D5F80C9000F096FC80466C209A
:10D4E00014F0C0FC00264FF6FF7706608780C680E8
:10D4F00007814781C0F80CA0C0F81090A0F81480F4
:10D500000446FFF7FDFE5022A38A2060019204F139
:10D510001C02009204F10C0206CA00F09BFE224697
:10D520003346918BB94202D0E08888424DD901330D
:10D53000142B02F10402F4D1DEA9C5F8384102A887
:10D54000D5F80890D5F80C8000F05EFC07464FF443
:10D55000CD6014F087FC00264FF6FF7383800660D1
:10D560008660C6600661C0F81490C0F81880878392
:10D570000446FFF7C5FE4FF4C862A38B20600192FA
:10D5800004F12802009204F1140206CA00F062FEBF
:10D5900023469A6A511C02D0A1688A421AD20136E7
:10D5A000C82E03F10803F4D1C5F8444105F1100277
:10D5B0000121686800F0C8FD2846FFF709FF0EE06A
:10D5C000E180D18B2181A38076E7E180D18B21811D
:10D5D000A380ACE7A260DA6AE260A680DFE70DF61E
:10D5E000BC1DBDE8F08F00BFC4300020C830002053
:10D5F000B82600208DD201007FB5144605460334BD
:10D6000018300E4624F0030400F0FEFBA4B2012300
:10D6100002930194009605F11002034606CA686859
:10D6200000F06AFE04B070BD852904D1792200F1B2
:10D630004C01FFF7E1BF7047D0F84831C0F84C31DA
:10D640007047FFFF124B994210B504461ED10221CC
:10D65000406800F0BBFD0121606800F0B7FD4FF4A9
:10D660009072FF2104F1180019F0D2FAD4F83C317D
:10D670005A891A810022DA80D4F8383159891981FF
:10D68000DA80D4F844311969D9609A6010BD00BFBE
:10D69000EFBEADDE38B544680346201D09D01D69D4
:10D6A000AA4208D8DB6862805A4319F0B3F9002017
:10D6B00038BD012038BD022038BDF7B515461A46E1
:10D6C00006460C461F46FFF75FFE00284DD1A4F129
:10D6D0008001102948D8DFE801F0161B471E242CD2
:10D6E0000F09210C343E474747474200D6F85431D2
:10D6F00033E096F8603134E000231A462946B069D9
:10D7000000F0D6FB2EE0D6F838311B892B8029E0BB
:10D7100096F8403125E0D6F858311EE0D6F85C3155
:10D720001BE0002400943B462246294606F11C00DB
:10D730000EE0002400943B462246294606F14C00A8
:10D7400006E0002400943B462246294606F1C80024
:10D75000FFF768FA06E0D6F864312B6002E096F82D
:10D7600068312B70002000E0242003B0F0BDFFFFE3
:10D770002DE9F04385B0A1F1800300AF044688464F
:10D7800015460B2B5ED8DFE803F041065D5D0827E8
:10D790005D4343065D4301263BE02D4B7B60381D16
:10D7A0004FF496736E468CB0BB81C7F808D002F078
:10D7B00040FA20462E236A468421FFF77EFF044666
:10D7C00010BB381DFFF78AFD694602462846FFF761
:10D7D00061FF6B68842216E01E4B7B606E46A0B032
:10D7E00079236A468521C7F808D0FFF766FF04460B
:10D7F00050B9381DFFF77AFD694602462846FFF703
:10D8000049FF6B6885221A70B54619E0022600E0D0
:10D810000426F31D23F00703E946ADEB030D204674
:10D8200033466A464146FFF748FF044638B9324658
:10D8300069462846FFF72EFF6B6883F80080CD46C7
:10D84000204600E024201437BD46BDE8F08300BF29
:10D85000E8B2030008B3030070B50C1AA410002C42
:10D86000034616DD15780678AE422BD04678AE42D8
:10D8700001D1013070BD8678AE4201D1023070BD59
:10D88000043010F8016CAE4201D1D81C70BD013CCF
:10D89000E5E70C1A022C09D0032C02D0012C10D180
:10D8A00009E005781478A5420CD001331C78107873
:10D8B000844204D0013318781278904201D118467E
:10D8C00070BD084670BD13B502AA044602F8011DDA
:10D8D0004FF00003D0F84C11D0F84801FFF7BCFF1F
:10D8E000D4F84C31181A18BF012002B010BDFFFF48
:10D8F0002DE9FF41154D1E462B68DB0780460C467F
:10D90000174609D4284614F09FFD28B1104802F0AC
:10D9100057FB284614F0B4FD21460D4833463A46DD
:10D9200002F052FB21464046FFF7CDFF58B10C23D1
:10D9300001AA4FF48B7106488DF804400297ADF8A8
:10D940000C6002F041FB04B0BDE8F081CC2F002058
:10D95000D02F00202DE9F04186B015461A46044626
:10D960000F461E469DF83080FFF70EFD002840F060
:10D970009981A7F18001142900F2FE80DFE811F0FF
:10D9800056002300FC006800760081003800150076
:10D990006F001C008B00A100A700AD00B300B90010
:10D9A000C500CC00D700E200ED002B68C4F854316C
:10D9B0002A4633468721DAE02B7884F860312A46FC
:10D9C00033468921D3E02F7884F8407133462A46C4
:10D9D00081212046FFF78CFFB8F1000F00F0CA80CC
:10D9E000D4F83C412389BDB2AB4240F0C780C1E0CE
:10D9F00033462A46862120462F78FFF779FF0023F9
:10DA00001A4605A9A06900F070FAB8F1000F00F0FD
:10DA1000B180059B9F4200F0AD8004F118052946B6
:10DA2000384600F05EFA0422294646E033462A468C
:10DA3000802120462F88FFF75BFFB8F1000F00F030
:10DA40009980D4F838412389BB4240F0E28091E0CC
:10DA50002B68C4F858312A463346832187E02B6867
:10DA6000C4F85C312A463346882180E004F11C0763
:10DA7000324639462846FFF7A5FA33462A4684211E
:10DA800013E0324604F14C012846FFF79BFA334677
:10DA90002A4685216BE004F1C807324639462846FC
:10DAA000FFF790FA33462A468A212046FFF720FFE7
:10DAB000B8F1000F5ED0324639462046FFF79CFD94
:10DAC00058E02B68C4F864312A4633461BE094F8CA
:10DAD00064312A7862F3000310E094F864312A7804
:10DAE00062F341030AE094F864312A7862F3820316
:10DAF00004E094F864312A7862F3C30384F8643153
:10DB000004F5B27204238B2131E02B7884F868315C
:10DB10002A46334690212AE02A7894F8683162F345
:10DB2000000384F868312A46334691211FE02A78A1
:10DB300094F8683162F3410384F868312A46334629
:10DB4000922114E02A7894F8643162F3041384F883
:10DB500064312A463346932109E02A7894F86431E7
:10DB600062F3451384F864312A46334694212046F3
:10DB7000FFF7BEFE002095E0242093E0A388658394
:10DB80000133C8269BB2B3FBF6F206FB1233E288E0
:10DB9000A68A9BB20132A38092B206EB83060423CD
:10DBA000E2802283019305AB0093B6B204F10C0727
:10DBB000334697E80600206800F04CFBBDF81630AD
:10DBC0004FF6FF72934213D0A18889B904F11C0665
:10DBD0004FF44872FF21304619F01AF8A369E36147
:10DBE0000122A38A02924FF448720192009609E042
:10DBF0009B1A18BF012302930423019304F1180315
:10DC00000093334697E80600206800F075FB2581F5
:10DC1000B0E7A3886783013314259BB2B3FBF5F209
:10DC200005FB1233E288A58A9BB20132A38092B22F
:10DC300005EB83050423E2802283019305AB009367
:10DC4000ADB204F10C062B4696E80600206800F001
:10DC500001FBBDF816304FF6FF72934211D0A18838
:10DC600079B904F11C055022FF21284618F0D0FF95
:10DC7000A369E3610122A38A0292502201920095D6
:10DC800009E09B1A18BF012302930423019304F1B6
:10DC9000180300932B4696E80600206800F02CFB42
:10DCA000278167E706B0BDE8F081802930B40AD14A
:10DCB000022B06D1146834B90124029430BCFFF75A
:10DCC00049BE202000E0502030BC70472DE9F341D0
:10DCD00005468DF80710002A4BD0C9B2FFF7F3FDB7
:10DCE000002861D1D5F84C31D5F85021934207D0A6
:10DCF0009DF8072003B11A70D5F84C31013351E07B
:10DD0000D5F848219B1A5A1C02D1294814F0EEFB81
:10DD1000002B14BF1C4601241C1901D23CB101E0A8
:10DD20004FF0FF34204614F09DF8074600E02746E8
:10DD3000D5F84881D5F84C619DF80730C8EB060648
:10DD4000F74218BFBB5526B132464146384618F057
:10DD5000FBFE01363E44B8F1000F02D0404613F0FE
:10DD6000E3FC3C44C5F84871C5F84C61C5F8504126
:10DD70001AE0D0F84C11D0F848010DF107024FF02D
:10DD80000003FFF769FDD5F84C21824201460BD014
:10DD900001318A4203D0521A01D018F0D5FED5F8CD
:10DDA0004C31013BC5F84C3102B0BDE8F08100BFF9
:10DDB00020B3030000F1080373B5044603600D4669
:10DDC00081B1084619F01CFE0F2805EB00060190F2
:10DDD0000BD9002201A9204614F000FC019B206011
:10DDE000A36002E0074814F069FB32462946206828
:10DDF00014F022FC019B2268636000212046D1546C
:10DE000002B070BD60B20300081A80B270471F29CB
:10DE100070B506460D4614460BD820220021204638
:10DE200018F0F6FE2A4631462046BDE8704018F04C
:10DE3000F1BD70BD0A4681880068FFF7E8BFFFFFAB
:10DE40002DE9F0418CB005469DF848800E4601460C
:10DE5000684617461C46FFF7ADFFB8F1000F07D123
:10DE6000EB7FFF2B04D01049684614F05FFD98B992
:10DE7000394606A8FFF79EFF079D06992A463046B9
:10DE800018F0C8FD258006A814F0CEFB684614F0F3
:10DE9000CBFB0CB0BDE8F081019D00992A463046CD
:10DEA00018F0B8FD2580F1E709CD03000860704740
:10DEB0000BB9431C01D10A707047087070470860A5
:10DEC00070470BB9431C01D10A7070470870704746
:10DED000086070470BB9431C01D10A807047088065
:10DEE0007047431C18BF086070470BB9431C01D131
:10DEF0000A60704708607047431C18BF086070478D
:10DF00000BB9431C01D10A6070470860704782B0AA
:10DF10008DED010A9DF80430FF2B0BD19DF80530E3
:10DF2000FF2B07D19DF80630FF2B03D19DF807305A
:10DF3000FF2B01D0019B036002B0704782B08DEDD2
:10DF4000010A79B99DF80430FF2B0ED19DF80530F8
:10DF5000FF2B0AD19DF80630FF2B06D19DF8073024
:10DF6000FF2B02D1C0ED000A01E0019B036002B06B
:10DF70007047704710B5084C2368DB0709D420466A
:10DF800014F062FA28B1054802F01AF8204614F09D
:10DF900077FA024810BD00BFCC2F0020D02F002000
:10DFA00010B50A4C2368DB070ED4204614F04CFA57
:10DFB00050B107480CF02CF9204614F061FA054ADC
:10DFC0000549034813F0AAFB014810BD6832002040
:10DFD0006C320020B826002073DF0100B1F5827F8B
:10DFE00010B504D040F20513994203D010BD0123AF
:10DFF000437110BD00234371C38A43B3144C23689B
:10E00000DB070ED4204614F01FFA50B11148FEF77A
:10E0100097FC204614F034FA0F4A10490D4813F0CB
:10E020007DFB18210B48FEF723FD014628B1FFF7C1
:10E03000B7FFBDE810400CF023BA094A13F0A4F969
:10E0400028B1084AE321BDE81040FEF738BC10BDF6
:10E05000C4300020C8300020B82600208DD2010036
:10E06000FDE40100C4B30300F8B5154B0360154B84
:10E070008360002505234FF6FF7604460382057171
:10E080004571C56045828682C582057680F87150EB
:10E09000FFF770FF04F11C07214601F0B1FF552284
:10E0A0002946384618F0B4FD238A052B05D8237E6F
:10E0B0001BB9E7606382A682E3822046F8BD00BFF9
:10E0C00018B40300A4B3030008B590F8713063B12D
:10E0D000013BDBB280F871303BB9FFF74BFF40F2F8
:10E0E0002711BDE8084001F086BF08BD08B51046FD
:10E0F0002AB1084A2921BDE80840FEF7E0BB0429FF
:10E1000001D0012905D1FFF7FBF8BDE80840FFF772
:10E11000DBBF08BDC4B303000A4803788B4208D0B4
:10E12000037C8B4207D090F820308B4207D102232A
:10E1300002E0002300E0012300EB03107047002001
:10E14000704700BFC026002008B5FFF7E5FF20B1EB
:10E15000043003C882E80300012008BD07B501228E
:10E1600002A8ADF80620084AADF8041040F8082DC2
:10E17000194612F025FF20B1044A40F20D11FEF7B6
:10E180009EFB03B05DF804FBEDE00100C4B30300A7
:10E1900070B5054612F0BEFE18B10A4A5121FEF7CD
:10E1A0008EFB094E00243119231D33440122898935
:10E1B00028461034FFF7D2FF302CF4D101232B7105
:10E1C00070BD00BFC4B30300C026002013B5FFF725
:10E1D000A3FF0446D0B16A460021043012F05EFF6E
:10E1E00020B10B4A4FF48E71FEF769FBFFF7C2FEB8
:10E1F0004FF4967101F0FFFEA189684613F034F8E0
:10E2000020B1034A40F21F11FEF759FB02B010BDC6
:10E21000C4B303001FB58DE80600684602AA0021BA
:10E220001C4612F03BFF20B1094A4FF49471FEF7EF
:10E2300046FB0023BDF8182002A9204612F0CAFFB1
:10E2400020B1034A4FF49571FEF739FB04B010BDBD
:10E25000C4B303001FB58DE80600684602AA00217A
:10E260001C4612F01BFF20B1094A4FF49D71FEF7C6
:10E2700026FB2346BDF81C20069802A912F0AAFF2F
:10E2800020B1034A4FF49E71FEF719FB04B010BD94
:10E29000C4B3030084B070B505AC84E80E00828975
:10E2A0000189C689013292B2B2FBF1F301FB13225C
:10E2B000731C9BB292B299428281C38108D2438976
:10E2C000C68101339BB2B3FBF1F501FB15334381EA
:10E2D000436802EB0212134409AD224603CAAA4264
:10E2E00018605960144603F10803F6D1BDE8704088
:10E2F00012781A7004B070472DE9F0478CB00446CC
:10E3000005AD02A880E806002A4600219846149E22
:10E31000BDF854709DF8589012F0C0FE20B12B4A01
:10E3200040F24D11FEF7CBFAFFF73AFE0BF0BAFFC1
:10E330006379824603B928B3E28A238A9A4217D0C6
:10E3400095E8030009AB83E803008DF82C900CAB33
:10E3500013E90300ADF822800090ADF82070079615
:10E360008DF8041007AB0ECB04F10800FFF792FF05
:10E37000BAF1000F27D063792BBBFFF711FE0CF029
:10E38000F9F820E094F87130013384F87130FFF728
:10E39000F1FD40F22B1101F02EFE43463A46314684
:10E3A0002846B9F1000F06D012F0DAFE58B1074A3C
:10E3B00040F27B1105E012F099FE20B1034A40F2D1
:10E3C0008111FEF77CFA0CB0BDE8F087C4B30300FE
:10E3D00010B586B004AC84E8060001220292BDF8B4
:10E3E000202000930192002394E80600FFF784FFA9
:10E3F00006B010BD2DE9F041C38A88B00446002B59
:10E4000075D0B4F816E0BEF1000F70D0628AE168F2
:10E4100002EB02130B4403AF04F1080603F11008EA
:10E420003D4618685968BC46ACE8030008334345CC
:10E430006746F6D11B788CF80030218A013292B2FF
:10E44000B2FBF1F301FB1322637962820EF1FF3E0E
:10E45000A4F816E0002B3FD194F87130013384F812
:10E46000713002A812F03EFF029B092B05D8FFF77E
:10E4700081FD40F22B1101F0BEFD9DF81C10BDF88E
:10E480001230BDF8102021B1039905A812F068FEE2
:10E4900003E0039905A812F029FE042815D108AB62
:10E4A00013E9030000908DF8041095E80E00304643
:10E4B000FFF7F0FE00210F4A084612F065FFB0B1E9
:10E4C0000D4AB721FEF7FBF911E0002899D00A4A5E
:10E4D000BA21FEF7F4F994E708AB13E903000090C2
:10E4E0008DF8041095E80E003046FFF7D3FE08B013
:10E4F000BDE8F081FDE40100C4B3030008B5FEF7F8
:10E50000FFFEBDE80840FFF775BF072808B502D039
:10E51000082800D008BDFEF7F3FEBDE80840FFF76D
:10E5200069BF10B5044613F0FFF8204610BD7047D0
:10E5300010B50A4C2368DB070ED4204613F084FF85
:10E5400050B1074806F0B8FD204613F099FF054A80
:10E550000549034813F0E2F8014810BDC432002019
:10E56000C8320020B82600202FE5010070B51C4BF2
:10E570001C4C60220E460421C4F8001583F80223C7
:10E5800093F80223C2F34112012A05461ED8164A07
:10E590003F2142F20200FEF792F90423C4F804334B
:10E5A000C4F81455C4F80C65FFF7C2FF06F090FDDF
:10E5B0000E4BC4F8243500220123A3602360C4F865
:10E5C0000821C4F81C210A4A137070BD094A9068DA
:10E5D00020B1136843F004031360DEE71960DCE741
:10E5E00000E100E00020004024B4030000B0AF03CD
:10E5F000DD320020006E0020064B1B784BB1064B2D
:10E600000022C3F81C21C3F81C05D3F81C21012AE1
:10E61000FBD17047DD320020002000400FB4002005
:10E6200004B07047F8B506460F460546AB1B9F423F
:10E630000EDD15F8014B5C2C01D07E2C04D15C2042
:10E64000FFF7DAFF84F040042046FFF7D5FFEDE73F
:10E65000F8BD08B57E20FFF7CFFF08BD124BD3F8F9
:10E66000242110B51AB1D3F8043398051BD40F4AEE
:10E670000D4B116881B1D3F8041349070CD5002163
:10E6800011600B4CD3F818352370FFF751FF217838
:10E69000BDE8104006F07ABDD3F844311BB1024BFF
:10E6A000D3F8043310BD10BD002000400821004005
:10E6B000DC32002010B5044613F036F8204610BDB9
:10E6C000800000F1804000F5C040D0F8103543F0E4
:10E6D000030243F4F85343F00303C0F8103500BFBE
:10E6E00000BF00BFC0F810257047FFFF08B50648FF
:10E6F00013F0AAFE38B1054B034800221A765A7669
:10E700009A7613F0BDFE08BDE0320020E83200200A
:10E7100000220276427682767047FFFF094A08B5EA
:10E72000012313604376837E5BB10021064A0846CD
:10E7300012F02AFE28B1054ABF21BDE80840FEF7C5
:10E74000BEB808BD00B00140DDEB010063B40300BA
:10E7500008B5817609B9FFF7E1FF002008BDFFFF8A
:10E76000037E2DE9F74F0446002B00F08E80437E98
:10E7700043B9837E002B00F0888003B0BDE8F04FE2
:10E78000FFF7CCBF424B01221A60D3F80025C569C0
:10E79000D2F100084FF000032E464FF0000763EB64
:10E7A000430979104FEA3600404261EB4101804550
:10E7B00079EB010103DAB5EB020867EB0309D4E951
:10E7C00014014FF47A72B0EB0800A5FB022361EB51
:10E7D0000901824273EB010E02DBC4E9140101E07E
:10E7E000C4E91423D4E91401524263EB4303904279
:10E7F000994101DAC4E91423636C0A220133B3FBA3
:10E80000F2FA02FB1A3AC4E912896364BAF1000F02
:10E810003BD1D4E914014FF47A72002316F070F959
:10E820004FF4C872CDE9000100233046394616F096
:10E8300067F902460B46DDE9000116F061F9154A59
:10E8400083464FF0FF333046394616F059F90246F9
:10E850000B464046494616F053F978220BEB000868
:10E8600000233046394616F04BF98045A8BF804654
:10E87000094B40428045ACBF45442D184FF400126F
:10E880002562C3F800A0C3F8B02103B0BDE8F08F43
:10E890004CB0014070FEFFFF54B10140084412B17A
:10E8A00090F83B3001E090F83D30890001F1804163
:10E8B00001F5C0411B05D1F8142503F4801322F49F
:10E8C00080121343C1F814357047052908B502D9E1
:10E8D000012017F0B1FA013904290ED8DFE801F060
:10E8E000030507090B00012008BD022008BD032015
:10E8F00008BD042008BD052008BD002008BDFFFF9D
:10E9000010B51446FFF7E1FF024B00F5A87043F87D
:10E91000204010BD00B00140026A0521FFF7F0BFA2
:10E92000072908B502D9012017F086FA013906290E
:10E9300013D8DFE801F00406080A0C0E10000420CA
:10E9400008BD082008BD0C2008BD102008BD1420FB
:10E9500008BD182008BD1C2008BD002008BDFFFF11
:10E96000037E2DE9F74F04460D46002B00F0208171
:10E97000437E1BB900EB8104626219E10FB200EB28
:10E98000870A642ADAF8103028BF642216460BB1D1
:10E99000642B5BD10EB1642E08D1A6F164035A42F8
:10E9A0005A4129462046FFF779FFFFE0E269DFF888
:10E9B0001092019364217243B2FBF1F2CAF82C2049
:10E9C00094F838104FF0010808FA01F1C9F8081559
:10E9D00094F8391008FA01F1C9F8081520462946BB
:10E9E000FFF78EFF94F83A20019B920002F18042DB
:10E9F00002F5F83204EB47070021C2F8001897F837
:10EA00003410D2F8000808FA01F10143C2F80018E6
:10EA100097F83510D2F8000808FA01F10143C2F85E
:10EA2000001894F838106448002B4FEAC10218BF50
:10EA3000052502F1804202F5F832AD002844C2F803
:10EA4000100508FA01F3C2F814954AE00AB1642AE5
:10EA50004AD194F83830DFF868914FF0010808FA8D
:10EA600003F3C9F8083594F8393008FA03F3C9F804
:10EA700008352946DAF82C202046FFF741FF94F8A4
:10EA80003A304D489B0003F1804303F5F83304EB23
:10EA900047070022C3F8002897F83420D3F800185D
:10EAA00008FA02F20A43C3F8002897F83520D3F891
:10EAB000001808FA02F20A43C3F8002894F8383024
:10EAC0003E49DA00002E18BF052502F1804202F50A
:10EAD000F832AD002844C2F8100508FA03F3C2F872
:10EAE0001415C9F8043561E0C2694FF06409724336
:10EAF000B2FBF9F9CAF82C9090F83A7090F83810F7
:10EB000090F839802E4ABF004FF0010B07F1804783
:10EB10000BFA01FE07F5F8370BFA08FBC2F808E517
:10EB2000C2F808B50022C7F80028D7F800284EEA36
:10EB300002024FEA850E0EF1400EC9005FFA8EFE0A
:10EB400001F1804101F5F8310EF1804EC7F800283F
:10EB50000EF5D83E1B4AC1F81025B342C1F814E5A2
:10EB600019D9691CC9B20192FFF7DAFE4FEAC80849
:10EB700008F1804808F5F83800F1804000F5C04001
:10EB8000019AC8F81025C8F81405D7F800384BEAE0
:10EB90000303C7F800384A4604212046FFF7B0FEB9
:10EBA00094F83A20064B012143F83210CAF810605D
:10EBB00003B0BDE8F08F00BF40B1014004F0014058
:10EBC00000F0014050B10140426A0369934203D012
:10EBD00092B20021FFF7C4BE7047FFFF08B5054B96
:10EBE0001B68DB0701D4FFF781FD0348BDE808403F
:10EBF000FFF7EABFE0320020E83200200F2908B515
:10EC000002D9012017F018F90139C9B20E299ABFAB
:10EC1000014B585C002008BD9FB403002DE9F74F5D
:10EC20000BB29C00824620440E46C78890F808E04C
:10EC300001214FF0A045B940BEF1000F02D1C5F847
:10EC40000C1501E0C5F808154FF00009C0F8109048
:10EC5000C0F8249092F80280DFF8F0B004F180440C
:10EC600004F5C0440AEB060088F0010180F83B106F
:10EC700080F83D801088D4F8142522F4981222F4EC
:10EC8000F8520002C4F81425090500F4F850D4F82D
:10EC9000145501F4801240F4403040EA0201294347
:10ECA000B51C6D00EDB2C4F81415504629465F003E
:10ECB000FFF7A4FF5744691C87F83400C9B25046D7
:10ECC000FFF79CFFB3000136F2B2054687F8350026
:10ECD000114697F83470019250469B44FFF720FE8E
:10ECE000FB0003F18043019A03F5F83300F1804003
:10ECF00000F5C040C3F810B51146C3F814055046DE
:10ED0000FFF70EFEEB0003F1804303F5F83300F14B
:10ED100080400D4AC3F8102500F5C040C3F8140523
:10ED2000D4F814354FEA085808F4801823F48013F7
:10ED300048EA03033046C4F81435FFF7C1FC4846DF
:10ED400003B0BDE8F08F00BF54B1014040B10140B5
:10ED500038B504460FC984E80F003A4B01221A6007
:10ED6000D3F8FC2442F00302C3F8FC24D3F80425B2
:10ED700022F00F0242F00202C3F8042522681201B9
:10ED80009208E261C3F84825D3F8F82422F0030280
:10ED9000C3F8F824D3F8F42142F02002C3F8F42198
:10EDA000294A0023136053609360D3601361536159
:10EDB0002279D9B2914203F1010507D204EB810215
:10EDC00006322046FFF72AFF2B46F1E7951C6D001F
:10EDD000EDB229462046FFF711FF691C84F8380080
:10EDE000C9B22046FFF70AFF002384F83A30174BD8
:10EDF00084F83900402283F81B2393F81B23C2F3C5
:10EE00004112012A06D8124A582142F20200FDF7A7
:10EE100056FD0AE00F4A916821B1136843F0006380
:10EE2000136002E04FF000621A60E369236200227F
:10EE300000230020C4E91423C4E9122301236064E1
:10EE4000237638BD0CB0014040B1014000E100E044
:10EE500063B40300006E002008B5084B4FF40012A5
:10EE6000C3F80823064B1B68DB0701D4FFF73EFC01
:10EE70000448BDE80840FFF74FBD00BF00B00140A7
:10EE8000E0320020E83200207047704710B5044699
:10EE900012F04AFC204610BD08B5054813F0D4FA1C
:10EEA00028B1044801F08CF8014813F0E9FA08BDD4
:10EEB000CC2F0020D02F0020FF210F4A0F4B0260E3
:10EEC000C176002201770121027142778177C277F2
:10EED00080F8202080F8302080F836208263C263DA
:10EEE0008262C26280F8212080F8222080F82320EC
:10EEF00080F824201A607047D0B40300403300200B
:10EF000010B50A4C2368DB070ED4204613F09CFA98
:10EF100050B10748FFF7D0FF204613F0B1FA054A79
:10EF20000549034812F0FAFB014810BD5033002098
:10EF300054330020B82600208BEE0100154B02222E
:10EF400010B56FF00041C3F8F0250022C3F8F42596
:10EF5000C3F8081310490A60104A4021802082F843
:10EF60000713C2F8800192F80713C1F34111012978
:10EF700008D90B498C6824B10A6842F080020A6003
:10EF800000E010600222C3F804230122C3F8002528
:10EF9000002010BD007000400471004000E100E05E
:10EFA000006E002081627047C37F30B5002B2FD0E8
:10EFB000184CC17D184D00220223C277C4F80833D3
:10EFC000012303FA01F1C5F80815817E03FA01F166
:10EFD000C5F8081511490B60C1F83C2108310B60D8
:10EFE00090F8201041B90E4A002343771360094B73
:10EFF0000222C3F8042330BD0A490A602022C4F863
:10F000000423094A136090F82030002BFBD1EAE773
:10F0100030BD00BF0070004000F00140049000408F
:10F020000471004014710040087000404318F0B4AF
:10F0300093F821301BB1274A4FF4E5711FE0264BAE
:10F040000224C3F80843427F012A06D9C3F80443C7
:10F05000204A4FF4EB71132012E0204D55F8217037
:10F0600090F8205005F0FF0605B3012E30D1057F42
:10F07000FF2D08D0174AC3F8044340F2E1111120D4
:10F08000F0BCFDF71CBC01324277154A01771368CA
:10F09000002BFCD0124B00221A60C822C3F82C753A
:10F0A000C3F830250222C3F8042211E001252A44C6
:10F0B000C1764277FF21C82280F820500177C3F83B
:10F0C0000443C3F82C76C3F83026054A16601D6049
:10F0D000F0BC7047DCB403000070004040330020F7
:10F0E0000071004038B5C37F013B012B04463DD978
:10F0F00000F1200200F12401002312F8010F002882
:10F1000018BF01239142F8D113B10223E37738BD30
:10F11000E17E0123FF29E37711D0257FFF2D2046D3
:10F1200003D0FFF783FF294605E0FFF77FFFE17E6D
:10F13000013101F003012046FFF778FF05E00C4A9A
:10F140004FF4DD710820FDF7BAFBE27D0949012388
:10F1500003FA02F2A377C1F80425074A1360A27EDE
:10F1600003FA02F2C1F80425044A136038BD00BF57
:10F17000DCB4030000F001400CA00040009000400F
:10F1800008B5FFF7BDFEFFF70FFFFFF7B9FEBDE8BB
:10F190000840FFF7A7BFC162704743798B420FD980
:10F1A00001EB410100EB410113788B71D2F8013082
:10F1B000C1F807305379CB720123037100207047E7
:10F1C0006020704790F83010B0F93C300B4A1B04B7
:10F1D00002EB011143F47843C1F81C3590F830304C
:10F1E000590080238B40C2F8083390F83030590022
:10F1F00040238B40C2F80433704700BF00700040CA
:10F20000072998BF0B4BC26398BF33F8113080F8C1
:10F21000301088BF4FF4AA730729438696BF064B68
:10F220004FF4A87333F811308386012380F8363009
:10F23000FFF7C8BF18B5030028B5030090F83010D9
:10F24000838F0C4A43F07F6302EB011143F4702378
:10F25000C1F81C3590F83030590080238B40C2F83B
:10F26000043390F83030590040238B40C2F8083303
:10F27000704700BF007000402DE9F0410546FFF7E0
:10F28000DDFF184EC76AD6F8048527B3D6F80825DF
:10F29000846B013200234FF41820002115F080FC0C
:10F2A0004FF47A72002315F07BFCC4EB080424F0C1
:10F2B0007F4484420FD9D6F80825002301324FF449
:10F2C0002820002115F06CFC4FF47A72002315F011
:10F2D00067FC844203D3C5F83880BDE8F081B847A5
:10F2E000F9E700BF00B0004010B5064A0223C2F89B
:10F2F000083380F82030FFF757FEBDE81040FFF7D5
:10F30000F1BE00BF0070004008B5FFF7F9FDBDE891
:10F310000840FFF7E9BFFFFF002108B5064A08468D
:10F3200012F032F830B1054A4FF43071BDE80840B0
:10F33000FDF7C5BA08BD00BF09F30100DCB4030046
:10F340002B4B1A6813B504466AB300211960C37EBB
:10F350008DF80730274BD3F8343690F82030DBB2E5
:10F36000012B42D1427F013A4277027FFF2A0BD123
:10F37000022380F82030204A084612F005F890B1A8
:10F380001E4A40F2E1210CE0C276FF2202771946C4
:10F390001B4A0DF1070011F0F7FF20B1174A40F2A8
:10F3A000ED21FDF78CFA17490A6822B100230B60A2
:10F3B00084F8203019E094F83630B3B1638E03F14D
:10F3C000804303F5E043196819B11A602046FFF73E
:10F3D000F9FEA38E03F1804303F5E0431A6822B1DE
:10F3E00000221A602046FFF747FF02B010BD00BFA1
:10F3F000047100400070004081F10100DCB40300A2
:10F4000039F801001471004008B5FFF779FDBDE837
:10F410000840FFF795BF704708B5FFF771FDFFF78C
:10F420007BFF024B00221A6008BD00BF40A10040D4
:10F43000042916D008D801290FD01CD302290ED0D8
:10F44000032916D10420704706290ED00BD30729B3
:10F450000DD064290DD10920704702207047032088
:10F460007047052070470620704707207047082026
:10F470007047002070470120704773B51478072C3F
:10F4800005460E4604D9642C02D0012016F0D4FCA7
:10F490005179A1F10803DBB2F62BF6D9D2F801308D
:10F4A0000020962B8DF800008DF8010001D807236D
:10F4B00003E0B3F5967F03D806238DF802301BE0F6
:10F4C000B3F5167F01D80523F7E7B3F5966F01D89A
:10F4D0000423F2E7B3F5E16F01D80323EDE7B3F5B9
:10F4E000166F01D80223E8E740F6B832934201D8FC
:10F4F0000123E2E78DF8020000230222FF298DF8A4
:10F5000003308DF8042004D18DF805308DF80730D4
:10F5100007E0012328468DF80530FFF789FF8DF8B5
:10F52000070021462846FFF783FF69468DF806004D
:10F53000304611F019F9002002B070BD2DE9F041FC
:10F540000B460D460446421D103153F8040B42F899
:10F55000040B8B42F9D11B7813706A4B6A4E012061
:10F560001860D3F8FC2442F00302C3F8FC24D3F85B
:10F57000042522F00F02C3F80425D4F8122012014A
:10F58000C3F83425D3F8F82422F00302C3F8F82492
:10F59000D3F8F4210243C3F8F4215C4A0021C3F8F4
:10F5A0003411116051609160594AA17503F59A7345
:10F5B000C2F81035A3F504533C3BC2F8143503F5EB
:10F5C00040530433C2F81039C2F804053060D3F850
:10F5D000000540F00300C3F800056779C82090FBE0
:10F5E000F7F00238C3F83805D3F8FC04494F20F08F
:10F5F000030040F00100C3F8FC0447480160396093
:10F600007960B960D3F8F81141F48071C3F8F8114A
:10F61000022161764149C2F82005C2F82415A0F5FF
:10F6200040500421C2F80415083B03213C38A17660
:10F63000C2F82805C2F82C65C2F81C39384A602186
:10F6400082F80A1392F80A13C1F3411101291F46E7
:10F65000064643D8334AC42142F20200FDF72FF98F
:10F660004FF48033C7F804330123E375284B2E4A47
:10F67000C3F818652946C3F81C252046FFF75EFC31
:10F6800018B1284AD821FDF71AF9A61D002563797B
:10F690009D4207DA3246E9B22046FFF7EEFE013519
:10F6A0000636F4E70025DFF8908004F120062F46A7
:10F6B0004FF4C87012F022FC48F825000135042DE3
:10F6C00006F8017FF4D10023E37601232377174B5B
:10F6D0001B68DB070ED4FFF7DFFB0BE014498B68D8
:10F6E00023B10A6842F480620A60B9E74FF480638C
:10F6F0001360B5E721460F4800F082FC0020BDE80A
:10F70000F08100BF0C9000400CA0004044910040EC
:10F7100000F0014044A1004040A10040049000409E
:10F7200000E100E0DCB4030000700040CC2F0020BA
:10F73000006E0020D02F00204033002070B504461A
:10F74000861D002563799D4207DA3246E9B22046DC
:10F75000FFF793FE01350636F4E7104D2B68DB0703
:10F760000ED4284612F070FE50B10D4805F0A4FCEE
:10F77000284612F085FE0B4A0B49094811F0CEFFCE
:10F780001123621D42F27471054805F0EAFC002362
:10F790000122E3762277237170BD00BFC4320020BE
:10F7A000C8320020B82600202FE50100421810B50D
:10F7B000002482F82140C47F022C02D1FFF792FC82
:10F7C0000FE0027922B1437F5BB9FFF7B7FF08E092
:10F7D000012C06D1023101F00301FFF727FC024B97
:10F7E0001C60012010BD00BF04A00040836A70B5FA
:10F7F00004460D46BBB14318012283F82120837FC4
:10F8000053B10B4B1B68DB0701D4FFF745FB40F2FC
:10F810002D11084800F0EFFB0023A3772846A36AC8
:10F82000BDE870401847BDE87040FFF7BFBF00BF9C
:10F83000CC2F0020D02F002010B50446FFF760FB2E
:10F840002178BDE81040FFF7D1BF03680079184761
:10F850007047FFFFFFFFFFFF30B52DED028BB4EEC9
:10F86000E00AF1EE10FA85B00C46F0EE408AB0EEF8
:10F87000608A02D4012016F0DFFA4D4B4D4AD3F8CE
:10F88000043583604C4B1B68C3F30423136010EEF4
:10F89000100A14F0DBFC40A3D3E9002314F0BAFFF4
:10F8A000C8B1DFED467A68EEA77A17EE900A14F039
:10F8B000CDFC3BA3D3E9002314F06AFB3AA3D3E9C0
:10F8C000002314F041FE00223D4B14F05FFB14F0C6
:10F8D000E9FFC5B200E0054618EE100A14F0B6FCC8
:10F8E0002DA3D3E9002314F095FFC0B1DFED337AE7
:10F8F00068EE277A17EE900A14F0A8FC28A3D3E943
:10F90000002314F045FB28A3D3E9002314F01CFEC8
:10F9100000222B4B14F03AFB14F0C4FFC0B20023BA
:10F9200004210622072C8DF804108DF806308DF87E
:10F9300007508DF808008DF809308DF80A308DF8E1
:10F940000B308DF80D2095D8013C944214D8DFE897
:10F9500004F00406080A0D0F120001230CE0022334
:10F960000AE0032308E08DF80C1007E0052303E00C
:10F970008DF80C2002E007238DF80C30114901A806
:10F9800010F00EFE18B1104A5221FCF798FF05B096
:10F99000BDEC028B30BD00BF666666666666AA3F38
:10F9A000666666666666FA3F6666666666660A400C
:10F9B00000B00040403501402403001000008042A8
:10F9C0000000F03F81FA01003DB503000139032931
:10F9D0000DD8DFE801F002040806042004E002204C
:10F9E00002E0082000E00620002110F041BE704730
:10F9F00010F050BEA1F5807138B504460C290ED820
:10FA0000DFE801F00F0D0D0D070D0D0D090D0D0DAA
:10FA10000B00022304E0012302E0042300E00023A2
:10FA20002371236823B3134AA568D2F80435D2F8AA
:10FA300008255D1B013200234FF44810002115F00A
:10FA4000AFF84FF47A72002315F0AAF825F07F453D
:10FA5000854209D9084A0821204611F095FC18B1C1
:10FA6000064A9B21FCF72BFF024BD3F80435A36019
:10FA700038BD00BF00B000404BF801003DB50300A9
:10FA800038B5094C2368DB07054606D4204612F03A
:10FA9000DBFC10B1204612F0F3FC29460348BDE818
:10FAA0003840FFF7A7BF00BF9433002098330020F1
:10FAB00039DF70473ADF7047002303607047FFFF6C
:10FAC00073B502AC002304F8013D06460D469DF8CF
:10FAD0000730AB4209D22046FFF7EAFF0028F6D0F4
:10FAE000074A1421FCF7EBFEF1E729463046FFF701
:10FAF000E1FF18B1024A1721FCF7E1FE02B070BD28
:10FB00007AB5030037B502AD002305F8013D044680
:10FB10009DF80730012B09D82846FFF7C9FF0028B8
:10FB2000F6D00C4A3421FCF7CAFEF1E70221204648
:10FB3000FFF7C0FF18B1074A3921FCF7C0FE237850
:10FB40004FF0000063F30700637863F30F2080B287
:10FB500003B030BD7AB50300406800B1007870474B
:10FB60005B220021406817F053B82DE9F047456843
:10FB7000064688461746002D55D0FFF7EDFF05F1E4
:10FB800001098246002454451CDA494606224046B3
:10FB900016F00EFF09F1090990B904EBC4042544DD
:10FBA0002A8995F9073002FB0373013293FBF2F2C5
:10FBB000EA7173681C44238901332381BDE8F0870F
:10FBC0000134E0E7BAF1090F12D900224FF0FF33F8
:10FBD0007F2002EBC201294491F90710814203DA28
:10FBE0008F42C4BF53B2084601320A2AF1D103E062
:10FBF0002B785A1C2A705BB2002B14DB716803EB64
:10FC0000C3020A44D8F80010C2F80110B8F8041072
:10FC1000A2F80510726803EBC303134401221A72A1
:10FC200000225A72DF71BDE8F087406800B10078A9
:10FC300070472E220021406816F0EABFD0F803304A
:10FC4000D3B18B4218D2427802F00F02012A0CD0B5
:10FC500005D30023C3700371437183710CE0B0F8C6
:10FC600007203C2101FB023303E003F5A83303F531
:10FC7000C073C0F8033070477047FFFF2DE9D043D1
:10FC80000C46D0F8031016461F4600294AD0A14260
:10FC900045D2437803F00F03012B1ED004D3022B6F
:10FCA0004FF0000130D035E0B0F8073041F2941841
:10FCB0003C224FF00009B04502FB03F379EB070249
:10FCC00007DB4FEA53084FF00009464577EB09027E
:10FCD00025DBCA431C4414440BE041F29412002378
:10FCE000B242BB411BDAC1F5A83303F27F131C44B7
:10FCF0000E4BB4FBF3F403FB0411C0F80310201CFB
:10FD000018BF0120BDE8D08341F294120023B24213
:10FD1000BB4107DAC17001714171817102E00020BD
:10FD2000BDE8D0830846BDE8D08300BF8051010004
:10FD3000407800097047437803F00F02012A07D08A
:10FD400002D3022A06D00AE0B0F8070010B97047C3
:10FD5000C07928B12F2B8CBF0020012070470020D4
:10FD6000704703065ABF084100F0010001207047A8
:10FD7000D0F80330C3B18B4216D2427802F00F02A2
:10FD8000012A03D012D3022A0ED10FE00849B3FB97
:10FD9000F1F307210433B3FBF1F1C1EBC101591AAF
:10FDA000C9B2C079FFF7DDBF00207047012070475E
:10FDB00080510100436818787047092938B5054615
:10FDC000144601D9002038BD43680A221A70204623
:10FDD000FFF7B1FF0028F5D06B680C2202FB013160
:10FDE0002368C1F801306368C1F80530A368C1F821
:10FDF000093038BD09290AD843680C2202FB0131B9
:10FE000000230B714B718B71CB7101207047002067
:10FE10007047F8B543681C780A3C064618BF0124B1
:10FE200000250C2770680378E9B2994202D30C25AB
:10FE300000210BE007FB01000130FFF77CFF18B940
:10FE40003046FFF7D7FF01240135EBE7092B08D82F
:10FE500005FB03020133117151719171D171DBB254
:10FE6000F4E70A2303702046F8BD2DE9F84F00247B
:10FE700081460F46A04626464FF00C0AD9F804509A
:10FE80002A78A3B29A4213D90AFB035505F1010B54
:10FE900039465846FFF76CFF20B16B6898453CBF68
:10FEA00098465E4639465846FFF7C8FE0134E5E7F6
:10FEB0003046BDE8F88F2DE9F04700248246884699
:10FEC00016461F4625464FF00C09DAF80400027862
:10FED000A3B29A420CD909FB030032463B46414685
:10FEE0000130FFF7CBFE002818BF01250134ECE7F5
:10FEF0002846BDE8F0870368DB6818474FF4CC70EC
:10FF0000704710B5144642680A6003681B69984739
:10FF1000208010BD7047704710B5044611F004FCF6
:10FF2000204610BD10B5044611F0FEFB204610BD62
:10FF300010B5084A084C02606421002242608460C7
:10FF4000C26001828274446182618183827780F819
:10FF5000202010BDF8B50300D8B50300C268002307
:10FF6000137053708269137053707047023A03899B
:10FF7000C2F34F02934201D8837A0BB1002070473D
:10FF800041600B704B7001207047036870B5DB68EF
:10FF9000164604460D469847B0420FD8294665607C
:10FFA000CA2204F10800FFF7E1FF6168CA22114488
:10FFB00004F11400FFF7DAFF002070BD012070BDCE
:10FFC0000022A0F8782070472DE9F84305460F4637
:10FFD000904699460024B5F878309C4209DA55F8E5
:10FFE0002400036842469E6839464B46B0470134B8
:10FFF000F1E7BDE8F88300231A46FFF7E5BFFFFFEE
:020000022000DC
:1000000008B5B0F878301C2B06D9074A2521042002
:10001000FCF755FC002008BD5A1CA0F8782040F8D9
:100020002310012008BD00BF1CB6030063DF70472A
:1000300064DF704782B0838882798DF806209BB296
:10004000002063F30F00BDF8063063F31F4002B0D9
:100050007047FFFF2DE9F843002480468946264675
:1000600025462746D9F80030DB5D002B37D00F2D11
:1000700005DD1F4A1F485821FCF71BFC35E02D2BDE
:100080002BD0202B29D0A3F13002D2B2092A12D9C9
:10009000A3F14102052A01D8373B04E0A3F1610234
:1000A000052A02D8573BDAB205E0114A1248482126
:1000B000FCF7FFFB002202EB0413F20748BFC5F177
:1000C0000F0203F0FF0406F1010341BF08F80240EC
:1000D0001E460135002458BF1E460137C2E70F2DCA
:1000E00003DC034A05485621C6E74046BDE8F883CD
:1000F00063B60300BEB603009CB60300AEB60300B1
:1001000010B50268837986B004463AB333BB014622
:1001100002A8FFF79FFF01AA02A91020FFF788FF9E
:1001200005280FD1A11D02A8FFF780FF18B1104AC2
:100130001B21FCF7C4FB9DF815209DF8143043EA01
:10014000022305E030B99DF80630A371BDF80430F4
:10015000A38009E0064A0748222103E023B9044AA4
:1001600005482521FCF7A5FBA07906B010BD00BF0E
:1001700063B60300CDB60300E1B6030073DF70473A
:1001800074DF704775DF704776DF704777DF704741
:1001900078DF70477ADF70477CDF70478ADF70470F
:1001A0008BDF7047A9DF704760DF704766DF7047FD
:1001B00067DF704768DF70473FDF704740DF704799
:1001C00011DF704712DF704710B5064C2368DB075C
:1001D00006D4204612F038F910B1204612F050F93A
:1001E000014810BDA8330020A433002010B50A4CEC
:1001F0002368DB070ED4204612F026F950B10748D9
:10020000FCF79EFB204612F03BF9054A05490348DE
:1002100011F084FA014810BDC4300020C83000201D
:10022000B82600208DD2010010B50A4C2368DB07E8
:100230000ED4204612F008F950B1074800F03AF801
:10024000204612F01DF9054A0549034811F066FAE7
:10025000014810BD5C350020AC330020B8260020DA
:10026000D103020010B50446006808B116F090F8FA
:10027000204610BD70B50B4E346814F001040FD148
:10028000304612F0E1F858B1074D30462C60AC8092
:10029000AC7112F0F5F8054A0549284611F03EFA0E
:1002A000014870BD6835002060350020B826002068
:1002B0006502020000F1080370B54FF4007203609C
:1002C000002304464360037202838376C3610362A2
:1002D0004362142011F0C6FD0546E06908B111F033
:1002E00023FA374BE56118682562042384F82C3023
:1002F000A023E3854FF6FF73A4F840301435314B4B
:10030000656204F188060025E364E3652E4BE3662D
:10031000A062294684F82D502586C4F83250C4F8CE
:10032000365084F83A5084F83B5084F83C5084F8B6
:100330003D5084F83E5065642565656525666566B3
:10034000256784F8745084F8865084F8875084F8C0
:100350008051C4F89051C4F8AC512022304616F0B8
:1003600057FCC4F8A86004F1AC06294620223046A8
:1003700016F04EFCC4F8CC6004F1D00620222946C9
:10038000304616F045FC114BC4F8F0601A689B88A3
:10039000A4F8843094F82D30C4F88020012262F350
:1003A000030362F3071384F82D30062363861023BA
:1003B000A3860A23E3864FF4C8732387204670BDC3
:1003C00020B8030008B8030024B8030049B70300AD
:1003D00010B5044600F083F9E36E04F16400DB68B5
:1003E000984704F1540000F0F9FD04F1440000F0D6
:1003F000F5FDE06908B111F097F9204612F014F903
:10040000204610BD10B50446FFF7F0FE1821FCF79A
:100410002FFB10B120460CF04BF9FFF705FF2146EA
:10042000BDE8104000F040BC90F83A3013B50446E7
:10043000002B37D10DF10700FFF7C4FE18B11A4A9F
:100440008A21FCF73CFA9DF8073033B1FFF7B8FE7C
:1004500018B1154A8D21FCF732FA144B1449482281
:1004600004F1280011F0D4F818B10F4A9321FCF7D9
:1004700026FA104811F006F918B10B4A9921FCF739
:100480001EFA0D4811F008F918B1074A9D21FCF732
:1004900016FA0120FFF790FE0320FFF78FFE0123DD
:1004A00084F83A3002B010BD50B703000D170300B6
:1004B0006C35002005040200511C020030B590F894
:1004C0003A308FB00446002B00F0838090F83C5007
:1004D000002D7ED11422294603A816F099FB03AA09
:1004E0000121284611F0F4F818B13B4ABB21FCF772
:1004F000E6F94FF4406307939DF81830374A43F00C
:1005000001038DF818300623ADF80C300EAB03A8AC
:1005100043F8382D1946FFF747FE042805460BD14E
:100520000022194603A80092FFF73EFE2A4AC9217D
:100530002846FCF7C4F900E020B1274ACB21284621
:10054000FCF7BDF900230193ADF8083001A80C2396
:10055000ADF80630FFF72AFE18B11F4AD021FCF78C
:10056000AEF9626804F12D0552B192B221682846B5
:10057000FFF712FEC8B1184AD421FCF7A0F914E025
:10058000174A0AAB911F08A8089300F0C9FDBDF8EF
:10059000242008992846FFF7FFFD18B10E4AD921FB
:1005A000FCF78DF908A812F03FF8208BFFF7F0FD5B
:1005B00018B1094ADB21FCF782F9012384F83C30A9
:1005C000204600F0E5F8204600F0A2FA204600F0B0
:1005D000CFF80FB030BD00BF50B70300B8260020E1
:1005E00090B70300A1F120039BB243F6E07293425F
:1005F00098BFC185704738B590F83C300446154621
:100600007BB1FFF7EFFF00F057F955B194F83D309B
:100610003BB1204600F0ACF92046BDE8384000F080
:1006200091B938BD30B5044687B012F013F894F88C
:100630003C3033B3626804F12D055AB192B221689F
:100640002846FFF7A9FDE0B10F4A4FF48B71FCF784
:1006500036F916E00D4A02ABA2F10A016846009392
:1006600000F05EFDBDF8042000992846FFF794FDD8
:1006700020B1054A4FF48D71FCF721F9684611F05D
:10068000D3FF07B030BD00BF50B703009BB70300D6
:1006900038B590F83C304BB1C469056AA54205D025
:1006A00054F8040B03689B689847F7E738BD90F847
:1006B0003C3070B5044683B190F83B306BB9C569E6
:1006C000066AAE4206D055F8040B03682146DB6883
:1006D0009847F6E7012384F83B3070BD704770B54A
:1006E000044600F045F9E569266AAE4205D055F8A2
:1006F000040B03681B699847F7E7002384F83A3036
:1007000070BD07B5036A426A0191934205D003B1F7
:100710001960036A0433036203E001A91C3000F08E
:1007200064FC03B05DF804FB11F10C0F14D009DC7C
:1007300011F1140F10D011F1100F0DD011F1280F7D
:1007400015D109E00B1D07D003DC11F1080F0ED104
:1007500002E009B104290AD190F92C308B4206D06D
:1007600090F83C3080F82C100BB100F001B87047C5
:1007700008B590F92C00FFF709FD30B1034A40F2AB
:100780007911BDE80840FCF79AB808BD50B70300DE
:1007900008B53230FFF7FEFC30B1044A40F2A11137
:1007A000BDE80840FCF78BB808BD00BF50B7030098
:1007B00038B54C220023C0F89431A0F894211722B8
:1007C000C0F898310446C0F89C11A0F8982100F5B3
:1007D000CA7519463822F83016F01AFA062384F83A
:1007E000FB30C4F81C5138BD10B538220446002136
:1007F000F83016F00DFA04F12C03C4F8FC3006238F
:1008000084F8FB3010BD70B504460D463822002137
:1008100000F5987016F0FCF9D4F8AC01012684F8C4
:100820003061F8B1F5B10023C4F8A031C4F8A431A7
:10083000C4F8A8314CF20103A4F8A03101F079FB0F
:10084000C4F8A801D4F8AC0101F075FB04F5D0752B
:10085000A4F8A401C0F11900C4F8585184F85C61EF
:10086000C0B200E01D202379984228BF184684F8C2
:10087000310170BD38B504461546FFF799FF29468A
:100880002046FFF7C0FF204600F0A8F82046BDE84C
:10089000384000F011B838B504460D46FFF7A4FF04
:1008A00029462046FFF7AFFF204600F097F8204684
:1008B000BDE8384000F000B8002380F86831C0F887
:1008C0006C3180F87031C38DA0F87831038EA0F8B8
:1008D0007A317047002380F868317047032380F82D
:1008E0006831704790F83C3010B504463BB390F83F
:1008F0003D304BB1FFF744FC30F0080304D0104A00
:1009000040F2C321FBF7DBFF04F5B470FFF736FCC0
:10091000072802D0112812D008E0094A40F2D3215A
:10092000FBF7CDFF012384F83D3010BD20B1044A10
:1009300040F2D721FBF7C3FF012384F83D3010BDFF
:1009400050B7030090F83D3010B5044663B900F588
:10095000B470FFF713FC20B1044A40F2E921FBF721
:10096000AEFF012384F83D3010BD00BF50B7030037
:1009700090F83D3010B5044663B1FFF701FC30F04C
:10098000080304D0044A40F2F921FBF798FF002342
:1009900084F83D3010BD00BF50B7030090F83D30E3
:1009A000D3B1B0F840204FF6FF739A4214D190F8BB
:1009B0003E308BB939B190F880310133DBB280F829
:1009C0008031DB0703D5002380F8683102E0032380
:1009D00080F86831FFF786BF7047FFFF38B590F8A1
:1009E0003C303BB90F4A4FF44C710120BDE8384010
:1009F000FBF765BF00F5987400F1F805214628461D
:100A00000FF06CFD68B107280BD0214628460FF087
:100A100065FD30B1034A40F24531BDE83840FBF78F
:100A20004EBF38BD50B7030030B590F83C3085B0AC
:100A3000054673B390F83E405CBB9DF800300194CE
:100A400043F0010364F341038DF80030ADF80C402E
:100A5000FFF7CCFB234602AA2721FCF7A7FAFFF7F2
:100A6000C5FB23460DF10A022821FCF79FFA6846D0
:100A7000FFF794FB20B1084A40F25E31FBF71FFFFD
:100A8000012385F83E30FDF775FA4FF48271FFF7C8
:100A9000B2FA05B030BD00BF50B7030090F83C304B
:100AA00010B50446ABB190F83E3093B1FFF778FB38
:100AB00020B1084A40F26E31FBF701FF002384F8B1
:100AC0003E30FDF757FA40F20511BDE81040FFF740
:100AD00092BA10BD50B7030090F83E00704770B551
:100AE000C469066A0D46A64205D0294654F8040B8F
:100AF00000F094FBF7E770BD0A68C0F8802090F81A
:100B00003C308A88A0F884200BB100F001B870470F
:100B100090F83C3007B563B102A9803041F8080D68
:100B20002220FFF747FB20B1034A40F2ED31FBF7EB
:100B3000C6FE03B05DF804FB50B7030070B50D4668
:100B400016460446FFF770FB33462A462146BDE8A9
:100B5000704000F022B813B50446FFF747FB0023AE
:100B60000DF107022A21FCF721FA9DF90710204612
:100B7000FFF7DAFD02B010BD13B50446FFF736FBF0
:100B800000230DF107020B21FCF710FA9DF9071065
:100B90002046FFF7C9FD02B010BD10B51278112A2A
:100BA000044602D0142A0CD00EE00868C4F8F40001
:100BB000FFF70AFB4FF4404104F1CC0000F0D4FAF7
:100BC00002E00BB100F0DEF9002010BDB0F84020CB
:100BD0004FF6FF739A4213B518D000F1F4040DF1EB
:100BE000070120460DF0D2FE20B1094A40F25F41D4
:100BF000FBF765FE9DF8073043B920460DF0A2FED5
:100C000020B1034A40F26541FBF759FE02B010BD26
:100C100050B7030010B50446FFF706FB2146BDE8B8
:100C20001040FFF7D3BFFFFF1FB5044604A800F82C
:100C3000101D0DF0E5FD20B1184A4FF48F61FBF750
:100C40003EFE0023CDF8093007228DF80D308DF8D7
:100C50000A209DF8093010228DF80B20104A0192CD
:100C600043F00303012201A904F186008DF8082056
:100C70008DF809300DF030FE20B1084A4FF4916133
:100C8000FBF71DFEFFF7A0FA064904F1CC0000F0C7
:100C900037FA012384F8873004B010BD50B7030041
:100CA0003D0B0200150C020090F887302DE9F04151
:100CB00004460D4613B108460DF0B8FE2B881C2BD8
:100CC00059D010D8102B1FD006D8012B00F0B880B7
:100CD000022B25D0BDE8F081112B40D01B2B00F05A
:100CE000A980BDE8F081512B45D006D81D2B00F01E
:100CF0009680502B4AD0BDE8F081532B70D07FD323
:100D0000552B38D0BDE8F0812946204600F0EEF89A
:100D1000FDF730F94FF48A71BDE8F041FFF76BB988
:100D2000FFF7A8FA03682BB18288083A03F108019B
:100D300093B200E019469A1D8B1F2146A4F87C202F
:100D4000B4F8400041F8783FFFF732FA00287DD030
:100D50003F4A40F2B641BDE8F041FBF7B0BD29463D
:100D6000204600F0F1F8FDF705F940F21511BDE855
:100D7000F041FFF740B9E669246AB44266D056F8FC
:100D8000040B036829465B699847F6E7204600F0A4
:100D90008FF82B7B062B16D1FFF76CFA03680BB18B
:100DA0009E1C00E01E46276AE4690635A7424DD026
:100DB00054F8040B3288036829461B6A98470028B8
:100DC000F4D0BDE8F081E669276AAC1DB7423DD09A
:100DD00056F8040BEA88036821461B6A9847F5E732
:100DE000266AE3699E4231D053F8040BE988428DAC
:100DF0009142F7D1036829465B69BDE8F041184785
:100E0000002203231146B4F84000FFF7CBF9E8B104
:100E10000F4A40F2FE41BDE8F041FBF750BDFDF73F
:100E2000A9F82A464FF6FF7340F21311BDE8F041CE
:100E3000FFF7CAB82B7A4BB984F83D30BDE8F08192
:100E400029462046BDE8F04100F0BAB8BDE8F0817F
:100E500050B7030008B5FFF7E7F9BDE8084000F018
:100E600091B8FFFF10B50446F034FFF7ADF906491D
:100E7000204600F045F9FFF7A7F920464FF420215E
:100E8000BDE8104000F070B9550E020010B50446E0
:100E9000FFF79AF9D4F8F0000DF050FA28B1034AA0
:100EA0004721BDE81040FBF70ABD10BD9CB7030009
:100EB00010B50446FFF788F9D4F8F0000DF03EFABB
:100EC00018B1094A5021FBF7FAFC00224FF4202107
:100ED000D4F8F0000DF0F2F928B1034A5121BDE831
:100EE0001040FBF7ECBC10BD9CB70300F8B50D46F5
:100EF000002380F83D308376044600F13201A88853
:100F0000FFF740F920B10F4A40F23A51FBF7D7FC06
:100F1000236D1BB1A98804F144009847AB88E669AA
:100F2000276AA4F84030B74206D056F8040B03688D
:100F300029465B699847F6E72046BDE8F840FFF789
:100F400091BF00BF50B70300F8B54FF6FF73A0F88C
:100F50004030036D04460E461BB1036E8988543041
:100F60009847E569276AAF4206D055F8040B036835
:100F700031465B699847F6E72046BDE8F840FFF741
:100F800085BFFFFF08B50346B0F840004FF6FF727B
:100F9000904210D09A7E72B901229A761321FFF7FF
:100FA000F3F830F0080306D0034A40F26351BDE87D
:100FB0000840FBF784BC08BD50B70300807E704733
:100FC00070B5C469066A0D1DA64206D054F8040B1C
:100FD000036829465B6A9847F6E770BD10B58368D9
:100FE0000446DB689847204610BD2DE9F843436866
:100FF00004681C1BA41014BF23460123E4180646F2
:10100000894602D2B4F1804F25D36FF04044A0004E
:1010100010F028FF0746D6F800807568D9F8003030
:10102000C8EB0505EF4218BF7B51AB0804D02A4638
:101030004146384615F088FD04353D44B8F1000FAF
:1010400002D0404610F070FB07EB840437607560F7
:10105000B460BDE8F883002CD9D12746DBE7FFFF59
:101060000B6800B10360014B8360704708B8030050
:10107000024B83600B680360704700BF08B8030031
:101080000B6800B1036070477047FFFF004870476E
:1010900014B7030010B504460846044910F03EFF9B
:1010A000002814BF2046002010BD00BF14B7030065
:1010B0000B6800B10360014B8360704724B80300E4
:1010C000024B83600B680360704700BF24B80300C5
:1010D0000B6800B1036070477047FFFF004870471E
:1010E000FCB6030010B504460846044910F016FF8C
:1010F000002814BF2046002010BD00BFFCB603002E
:1011000008B50A4600210DF0C7F828B1034A32217C
:10111000BDE80840FBF7D3BB08BD00BF9CB7030088
:1011200073B5044616460D4601B9BAB9731B0F2BA9
:10113000019307D9002201A9204611F04FFA019B23
:101140002060A36032462946206811F075FA019BA1
:10115000226863600021D15402B070BD014811F0D3
:10116000ADF900BFDCB7030008B5002200680DF040
:10117000A5F828B1034A4021BDE80840FBF79FBB12
:1011800008BD00BF9CB70300A0DF70477047303038
:10119000704713B5436B826B01919342044605D0AF
:1011A00003B11960636B0433636303E001A930305A
:1011B00000F006F9204602B010BDFFFF73B500F144
:1011C0000805416004462846FEF79AFF2846FEF7C8
:1011D00031FF02A922464FF6FF7341F8040D22F8B1
:1011E0002A3F0120FFF7D0FF18B10B4A2021FBF75F
:1011F00066FB236820469B6A984790E86000AE42F1
:1012000005D0214655F8040B00F09CF9F7E70123BF
:1012100084F82C3002B070BD44B80300036870B588
:101220009B6A0D46984790E85000A6420FD054F8AC
:10123000040B90F8203065F3861380F820300368A3
:1012400015B1DB6A9847F0E71B6B9847EDE770BD77
:101250000A88112A09D0502A0DD0102A10D103680B
:1012600001F108029B6989881847036801F10802A7
:10127000DB6989881847036831F8062F1B6A18470D
:10128000704770470368F7B59B6A0D4606461746D8
:10129000984741680368994213D053F8044B288853
:1012A000E28A904211D16A89022A0ED16A7B2B7B95
:1012B00043EA022394F8202063F3C30284F8202039
:1012C00001E0002022E0012020E0628ABA42E2D15F
:1012D000AB795A1E022A06D8236869891B6A204600
:1012E0009847012012E0062BEDD102AA7068002376
:1012F00022F8023D3946B0F8400000F0F9FC2368BE
:10130000BDF806101B6A20469847012003B0F0BDC7
:10131000036870B59B6A0D46984790E85000A64256
:1013200006D054F8040B036829469B6A9847F6E7F1
:1013300070BD70B50446006B626B151A2D11002D3F
:10134000034616DD06688E422DD046688E4201D1D6
:10135000043028E086688E4201D1083023E0103046
:1013600050F8046C8E4202D103F10C001BE0013DE9
:10137000E5E7151AAD10022D08D0032D02D0012D7E
:101380000ED107E005688D420DD0043318688842FD
:1013900008D004331868884214BF1046184602E08B
:1013A000104600E01846011D8A4204D0521A9308E4
:1013B00001D015F0C9FB636B043B6363204670BD2D
:1013C0002DE9F843436804681C1BA41014BF23468E
:1013D0000123E4180646894602D2B4F1804F25D392
:1013E0006FF04044A00010F03DFD0746D6F80080A5
:1013F0007568D9F80030C8EB0505EF4218BF7B517E
:10140000AB0804D02A464146384615F09DFB04350A
:101410003D44B8F1000F02D0404610F085F907EBCB
:10142000840437607560B460BDE8F883002CD9D1BE
:101430002746DBE7A2DF7047A6DF704710B50446FA
:10144000006808B114F0A4FF204610BD704710B525
:10145000044610F069F9204610BDFFFF70B50D4E2F
:10146000336813F0010513D1304610F0EDFF78B169
:10147000094C0A4B23603046042384F84C5084F80E
:10148000543010F0FDFF064A0649204610F046F998
:10149000014870BD18360020C035002068BB03002D
:1014A000B82600204D140200704790F820305B06EB
:1014B00003D590F82830FF2B02D103685B691847E9
:1014C000406A7047704700207047A0F8421070478C
:1014D00008B500F0DBFA006808BDB0F842007047BC
:1014E000B0F840007047A0F844107047B0F84400CE
:1014F0007047FFFF094A02604DF6AD61002242606D
:1015000001818272C260C0F81220C0F81620C26148
:101510000284426280F82820704700BF3CBA030072
:1015200038B590F82030DB0704460D4605D5044A4F
:101530001A2102F14300FBF7BCF9E56038BD00BF9A
:1015400038B903002DE9F04304469BB00DF15C0867
:101550000EAD0DF162071C22E1610E4610A80021BC
:1015600088F802100E916960ADF85C10ADF8621059
:10157000B97015F04DFB09A9204600F0DBF80123F6
:1015800003228DF85E201A4663F307128DF85C2063
:1015900094F82020CDF85480920654BF1A460322B6
:1015A00004F104084CBF62F3071363F307124046CB
:1015B0004CBF8DF85D308DF85D20FEF7A1FD4046F3
:1015C000FEF738FD0DF168081422002148F8640D7B
:1015D00009A815F01DFB2368CDF824801B6920465F
:1015E00098472368ADF82C009B6820469847ADF8D3
:1015F00030002046FFF759FF05238DF8643094F83A
:1016000020300D9013F0200F4FF001030AD019463F
:10161000032262F3071162F307138DF862108DF84D
:10162000633009E01A4663F307128DF862201A4608
:1016300063F307128DF863200A97E7684FF00008FC
:1016400005ABCDF84480CDF850800393002F69D0CE
:10165000384616F0D5F90F2807EB0009029007D994
:10166000424602A903A810F0B9FF029B039005931C
:101670004A463946039810F0DFFF029B0399049312
:101680000022CA54049B33B39BB2ADF84A30ADF884
:10169000483003238DF8673094F82030ADF865208A
:1016A00013F0200F9DF86530039911914FF001025E
:1016B00062F3030318BF032262F307138DF865304A
:1016C0009DF8663003F0F0036FF307138DF8663072
:1016D0000DF1650314932368002713975B6B29466C
:1016E0002046984710B1ADF83A70139504F11203F3
:1016F00009AA10A9708DFFF79DFE18B10B4A992118
:10170000FBF7DDF80021204600F036F894F8203091
:1017100043F0010384F8203003A810F085FF1BB0CC
:10172000BDE8F083024810F0C9FE00BF38B90300DD
:10173000A5B903000B7F43F002036FF300030B779F
:1017400090F820300A7FC3F3800363F3C3020A7763
:1017500090F82030D2B2C3F3400363F304120A7747
:1017600090F82030D2B2C3F3001363F34512437CE8
:101770000A7781F83F3070472DE9F043036887B05E
:10178000DB6904468846984706462046FFF78DFEEB
:1017900094F820305B06054633D594F82830FF2BAB
:1017A0002FD04146304601F0D5F90746FFF756FEE7
:1017B000236881465B692046984794F82830019356
:1017C00032460146CDF8088000972B46484601F086
:1017D0005FFA064678B93A460146284615F018FAE7
:1017E00023683146DB6820469847FFF737FE01F053
:1017F000D7F9032038E023683946DB68204698474C
:1018000004E023683146DB68204698472368204679
:101810001B699847E369618A06AA22F8020D586895
:101820002B46B0F8400000F074FA18B1104AF921C4
:10183000FBF745F894F8203003F0020202F0FF00B5
:1018400092B1E2695268B2F840104FF6FF729142CD
:1018500009D003F0080303F0FF002BB123682046F2
:101860005B6A984700E0002007B0BDE8F08300BF46
:1018700038B9030030B590F820309A0787B0054694
:1018800009D5C2695268B2F840104FF6FF72914212
:1018900001D01B0701D4082038E003681B69984772
:1018A0006B8AADF808300DF10602012304928DF821
:1018B0000A30EA69ADF80600002305935268ADF8D6
:1018C0000C3002A9B2F84000FFF7B6FD0446E0B1C3
:1018D00043F20402944206D195F8203043F080038D
:1018E00085F8203011E0082C06D195F8202063F30C
:1018F000C71285F8202008E043F201439C4204D03F
:10190000034A40F23F11FAF7DAFF204607B030BD34
:1019100038B903002DE9F04F90F820309A0791B0C4
:10192000044609D5C2695268B2F840104FF6FF72FA
:10193000914201D01B0701D408207EE003681B6997
:10194000984780462046FFF7B0FD94F8203023F0FA
:101950007F03814603F0FF060BB1B4F84660002513
:101960000DF1180AB04567D9C6EB0805132D4FF0E5
:1019700014024FF0000150462F46A8BF132715F060
:1019800047F9BFB2132D09EB060BCCBF1323FF237E
:101990003A4659460DF11900C8BFB6FBF3F38DF86E
:1019A000183015F037F87A1C92B259460BA8ADF8EA
:1019B000062015F02FF80DF106020492E269CDF829
:1019C00014A0638A5268ADF8083001238DF80A30FC
:1019D00002A90023B2F84000ADF80C30FFF72CFD4F
:1019E000054600B343F20402904208D194F8203037
:1019F000A4F8466043F0800384F820301CE00828F7
:101A000008D194F82020A4F8463063F3C71284F874
:101A1000202011E043F20143984204D0084A4FF4D9
:101A2000D671FAF74CFFBDF806200BA958463E4484
:101A300014F0F0FFB6B295E7284611B0BDE8F08F7C
:101A400038B9030010B590F820301B06044609D5BC
:101A500003685B6A984728B994F8203060F3C7138D
:101A600084F8203010BD10B590F820301B060446D5
:101A70000BD503685B6A984738B994F82030A4F80E
:101A8000460060F3C71384F8203010BD80B483B0E3
:101A900000AF78607B682C3318460C37BD465DF884
:101AA000047B704710B50446034B40F8303BA36BF2
:101AB000DB689847204610BDD8B8030010B504462F
:101AC000FFF7F0FF20460FF02FFE204610BD2DE956
:101AD000F04387B00D460446FFF7C0FC01F067F8FD
:101AE0000646002863D123682946DB6820469847CC
:101AF000C9238DF8173094F8203013F0400F236875
:101B000038D094F82820FF2A34D01B692046984703
:101B100001F02FF8236801469B6920469847FFF79C
:101B20009DFC05462046FFF7C0FC236807461B695D
:101B300020469847236880465B692046984723687B
:101B40008146DB69204698470DF117038DE80900AF
:101B500002964B4642463946284601F01BF910B31F
:101B6000FFF77CFC9DF8172094F8281001F0A1FAEB
:101B700038B918E0FF228DF817209B6929462046C6
:101B8000984720469DF81760FFF780FF23680746B7
:101B9000DB6920469847E56B03463A46314604F137
:101BA0003000A84703E0FFF759FC00F0F9FF07B049
:101BB000BDE8F083F8B5436A04463BBB90F821309A
:101BC000DB071CD5124F134E3D6815F001050ED1F1
:101BD000384610F039FC50B138463560B580B571E3
:101BE00010F04EFC0C4A0D4930460FF097FD33685B
:101BF00003B16362636A4BB9012014F01DF90368F5
:101C00009B689847012114F0D3F86062F8BD00BFCB
:101C1000BC350020B4350020B82600203D14020059
:101C200038B50446406A50B194F8213013F00105EC
:101C300002D00023636238BD14F0AAFB656238BD90
:101C40001B2301200B7000230871CB804870704764
:101C500038B5831E012B044601D80FF023F91C4D23
:101C60002B68DA070ED4284610F0EEFB50B1194865
:101C7000FAF766FE284610F003FC174A1749154884
:101C80000FF04CFD134803781BB11821FAF7F0FE52
:101C9000B0B9012C1BD1124C2368DB0709D42046B4
:101CA00010F0D2FB28B10F48FEF78AF9204610F059
:101CB000E7FB40F217110B48BDE83840FEF79BB92F
:101CC00020460AF0FDFC2046FCF71FFCE1E738BD8A
:101CD000C4300020C8300020B82600208DD201007A
:101CE000CC2F0020D02F0020A4DF7047A5DF704745
:101CF00013B514461288ADF800200022ADF802207A
