:020000022000DC
:1060000000F7002091440400B9440400B96304007F
:10601000BD440400BF440400C1440400000000006B
:10602000000000000000000000000000C344040065
:10603000C544040000000000C7440400C944040033
:10604000CB440400CB44040025F00200CB44040000
:10605000CB440400CB440400CB44040021DC020008
:10606000CB44040033DC0200CB440400CB440400E6
:10607000CB440400CB440400CB440400CB440400D4
:10608000CB440400C54305003D7D0400056B0400BE
:10609000B1440500CB44040019690400CB4404005A
:1060A000CB440400CB44040029C80400B9EB02002F
:1060B000CB440400CB4404000000000000000000BA
:1060C000CB440400CB440400CB440400CB44040084
:1060D000CB440400CB440400CB4404000000000087
:1060E00000000000000000000000000000000000B0
:1060F00000000000000000000000000000000000A0
:10610000000000000000000000000000000000008F
:10611000000000000000000000000000000000007F
:10612000000000000000000000000000000000006F
:10613000000000000000000000000000000000005F
:10614000000000000000000000000000000000004F
:10615000000000000000000000000000000000003F
:10616000000000000000000000000000000000002F
:10617000000000000000000000000000000000001F
:10618000000000000000000000000000000000000F
:1061900000000000000000000000000000000000FF
:1061A00000000000000000000000000000000000EF
:1061B00000000000000000000000000000000000DF
:1061C00000000000000000000000000000000000CF
:1061D00000000000000000000000000000000000BF
:1061E00000000000000000000000000000000000AF
:1061F000000000000000000000000000000000009F
:1062000010B5054C237833B9044B13B10448AFF3F0
:1062100000800123237010BD002B0020000000002F
:1062200010B2050008B5034B1BB103490348AFF397
:10623000008008BD00000000042B002010B2050003
:10624000154B002B08BF134B9D46A3F5803A002148
:106250008B460F461348144A121A30F0C7FC0F4BF6
:10626000002B00D098470E4B002B00D09847002001
:10627000002104000D000D48002802D00C4830F029
:1062800014FC30F049FC200029001DF0CBFF30F059
:106290002FFC00BF0000080000F7002000000000F5
:1062A00000000000002B00208C880020AB6A050055
:1062B00000000000FF20704700207047002070475A
:1062C0000E2070477047704710B5182104462EF015
:1062D000EDFD204610BDF8B50B680446DB680846A6
:1062E0000E4698470023C4E90033A3600546B0B1C9
:1062F0002EF024FD03465F19C4E90033A7602DB1D9
:1063000018462A46002130F071FC03466760326867
:106310001946976830462A46B8472046F8BD0346D6
:10632000E9E7407970470831034603C983E8030071
:10633000184670471031034603C983E80300184626
:10634000704710B50C46002C0AD001DA6442FAE717
:10635000002806DA21464042FFF7F3FF00B1201A79
:1063600010BD90FBF4F304FB1300F9E72DE9F04FA7
:1063700000F108090E46824699E8030087B00DF146
:10638000080888E80300404617F0C5F90AF110072D
:10639000009097E8030004AC84E80300204617F05F
:1063A000BAF9072101903248B6FBF0F00430B0FB97
:1063B000F1F5C5EBC505401B012585404FF0FF30C9
:1063C000FFF7BFFF05FA00F05FFA85FB10F07F05CD
:1063D00008BFC0F3C61532464FF00001204618BF73
:1063E000EDB217F060F9204617F095F9DDE90032BB
:1063F0009342064621D397E8030084E80300204631
:1064000017F089F9B04208D99AF807301D4214BF35
:106410000120002007B0BDE8F08F99E8030084E870
:106420000300204617F077F9B04201D90020F1E7C8
:106430009AF807301BEA030FE9E79AF807301BEADE
:10644000030FF3D099E8030088E80300404617F0F3
:1064500062F9B042EAD897E8030084E803002046D6
:1064600017F059F9B04294BF00200120D2E700BFD5
:106470008051010010B50C1A134605D00146224682
:10648000184630F099FB0346181910BD7FB5054634
:106490000B798DF8083002A80C4619F0FDF92A4650
:1064A0000DF105018DF8040001A8FFF7E3FF064692
:1064B000601D19F0F1F932460DF109018DF808005F
:1064C00002A8FFF7D7FF0646A01D19F0E5F93246EE
:1064D0000DF109018DF8080002A8FFF7CBFF064671
:1064E000E01D19F0D9F932468DF808000DF10901C7
:1064F00002A8FFF7BFFF04F10801064602A817F043
:106500009BF832460DF10D0102A8FFF7B3FF04F12D
:106510001001064602A817F08FF832460DF10D0162
:1065200002A8FFF7A7FF284604B070BD0D2A1FB5CB
:106530000C460BD901466846FFF7A8FF22460DF12D
:106540000E016846FFF796FF04B010BD0020FBE780
:1065500084B02DE9F04786B00FAD044685E80E0003
:106560002846012119F08EF9012182460DF13D00E6
:1065700019F088F9012181460DF13E0019F082F9E8
:10658000012180460DF13F0019F07CF904AE074669
:1065900032460DF14501281DFFF76CFF6D4696E868
:1065A000060002A817F087F82A460DF14A010DF1FE
:1065B0004500FFF75FFF95E80600304617F07BF8CF
:1065C0009DF808209DF810300A4922722374039A1E
:1065D000059B2160204684F804A084F8059084F887
:1065E0000680E771E260636106B0BDE8F04704B081
:1065F000704700BF007705000022C0E900228260DA
:106600007047704704387047704710B52021044622
:106610002EF04CFC204610BDA0F10400F5E7000070
:1066200010B50B4C2378BFF35B8FDB070ED42046ED
:106630002EF094FB50B1074813F046FB20462EF095
:1066400099FB054A054903482EF02BFC014810BD73
:106650004C2B0020502B0020002A0020599C0300C6
:1066600070B50846164611B90024204670BD0023B7
:10667000074A08492EF083FB04460028F4D003683B
:1066800031461D6ADDE90423A8470028EDD1EBE778
:1066900068780500E47605002DE9F04F1F46037E7B
:1066A00087B081468A46164673B900238DF81530A7
:1066B0009DF81430002063F307009DF8153063F354
:1066C0000F2007B0BDE8F08F0029EED00369002B42
:1066D000EBD003F10C0803F1D40B0024D84527D0EC
:1066E00058F8041B5246CDE900674846FFF7B8FF4B
:1066F0000546DCB10028F1D00146204601F03AF809
:1067000058B12846FFF70DFE03902046FFF709FE1B
:10671000039B834238BF2C46E0E721465246284679
:1067200001F090F8002818BF2C46D7E70446D5E7BB
:1067300034B12046FFF7F5FD01238DF81400B5E7CD
:106740004FF48073ADF81430B2E730B5037E85B0F6
:1067500004460BB1C36833B9E37D0BB10023E37585
:10676000012005B030BD16F03DFDE16805466846E4
:106770000CF0D5FB9DF80830002BF1D0DDE90023AB
:1067800029462046FFF788FFE082E9E72DE9F04F30
:106790004C69BDB082460E4614B91023338285E0A1
:1067A0000B8B702B01D81223F8E716F01BFDDAF8DB
:1067B0000C10804600297CD10F46914BC4F8008014
:1067C0004FF4E142CDE90423FFF72AFF0823952186
:1067D00004AA13F0E1FD049B6360059BA3609AF893
:1067E0001830237400210B46881D04EBC0000131D2
:1067F000082943708370C370037143718371C3713F
:106800000372F1D1002F5AD0DDE9062304F11109FA
:1068100004F119054FF0000BC4F83120C4F83530ED
:1068200084F811B089F801B089F802B089F803B092
:1068300089F804B089F805B089F806B089F807B07E
:1068400084F819B085F801B085F802B085F803B076
:1068500085F804B085F805B085F806B085F807B06E
:1068600084F821B084F822B084F823B084F824B0EE
:1068700084F825B084F826B084F827B084F828B0CE
:1068800084F829B084F82AB084F82BB084F82CB0AE
:1068900084F82DB084F82EB084F82FB084F830B08E
:1068A000DAF8101071B97123B38331823DB0BDE8BD
:1068B000F08F06A80CF033FB9DF820707DE73A4678
:1068C0003B46A3E7C8220C310AA830F067F90AABAF
:1068D000019318465B4650F8042B7AB10122D4F894
:1068E00011E0D4F815109A404FEAE27C4EEA020E0D
:1068F00062461143C9F800E0C9F804100133322B95
:10690000E9D19AF81830002B76D0B8F1000F73D087
:10691000002F71D00027019B53F8049B0193B9F11C
:10692000000F66D00023374A374948462EF027FA31
:10693000824668B303684146D3F820B0DDE90623F8
:10694000D84728B34FF0010B0BFA07FB5A46D31771
:10695000D4F81900D4F81D10CDE90223039B40EAB6
:106960000B020B432A606B60504601F0D2F80028FE
:1069700008BF4FF0000BD4F82900D4F82D105A4668
:10698000D31740EA0B0B0B43C4F829B0C4F82D30E1
:1069900000231E4A1C4948462EF0F1F980B190F8B8
:1069A00060300BB10123BB40D4F821C0D4F82520BE
:1069B000D9170A434CEA0303C4F82130C4F8252050
:1069C0000023134A104948462EF0D9F988B14146B0
:1069D000FFF7CCFC68B10123D4F819C0D4F81D200E
:1069E000BB40D9170A434CEA0303C4F81930C4F872
:1069F0001D200137322F8ED17123B3830023CDE6C2
:106A0000300B010068780500E47605001478050075
:106A1000B4780500C38A8382DAB2002062F30700EB
:106A20001B0A82B063F30F2002B0704770B504698F
:106A30000E46ACB104F10C05D434A54210D055F883
:106A4000040B0028F9D003689B6998470028F4D00C
:106A5000314655F8040CFFF789FC0028EDD070BDD5
:106A60000020FCE7F0B585B0194E039101F001015B
:106A700001763478BFF35B8F14F00104074618D118
:106A800030462EF06BF9A0B1124D134B2B603046FF
:106A90002C71C5E902442C82AC74C5E90544AC8371
:106AA00085F828402EF066F90C4A0D4928462EF04C
:106AB000F8F90323009303AA042349F6AF410548DC
:106AC00018F0C1FB3846FFF740FE05B0F0BD00BF2F
:106AD0001C2B0020202B00205C9E0500002A00209B
:106AE000096602001FB50191437E0246ABB9837F60
:106AF000E3B19DF804309DF8041013F0010304BFC6
:106B0000837E03F0010363F300018DF80410019804
:106B1000C2F81A0005B05DF804FB0391FFF780FD91
:106B2000042303AA962113F009FFF3E70123C0F819
:106B30001A108377EEE707B5837F63B101234376AD
:106B4000D0F81A000190FFF76BFD04230DEB030250
:106B5000962113F0F3FE03B05DF804FB10B5437EFD
:106B600004462BB9FFF7E7FF607E80F0010010BDFF
:106B70000020FCE7437E10B504461BB9FFF7DBFF9E
:106B80000123637610BD000000B5437E8FB04BB388
:106B9000FFF746FD04236A46962113F0FDFB134AD6
:106BA00001920422ADF810204FF4C672ADF81820FF
:106BB00001AA079214220023ADF8202006A8702213
:106BC00003938DF80830CDF814D0ADF822308DF84D
:106BD0002430ADF828200B93ADF83030ADF83430C8
:106BE00009F0A8FC0FB05DF804FB00BF0B01010029
:106BF00037B50B88B3F5CE7F02460C4649D007D88F
:106C0000B3F5CD7F34D03BD8962B2AD003B030BD1E
:106C100040F2AF15AB421FD0B3F5D87F0ED240F291
:106C2000A5118B42F2D1636819780B29EED15B680C
:106C30001968FFF757FF00232382E7E740F2B111FD
:106C40008B4203D040F2C1118B42DFD1104603B01A
:106C5000BDE83040FFF779BD03B0BDE83040FFF735
:106C600095BD4B68196803B0BDE83040FFF7FABE28
:106C70004C68FFF773FF637860F382036370C5E7C6
:106C80004B685B785B07C1D503B0BDE83040FFF7C8
:106C90007BBF03B0BDE83040FFF76CBF10B50446C2
:106CA000006808B12EF069F8204610BD2DE9FF47B5
:106CB00004460F4631B9606838BB0025284604B049
:106CC000BDE8F0870368DFF84C90DB68DFF84880A8
:106CD000014601A89847DDE9016AB24511D056F88E
:106CE000040B8742F9D00028F7D004234A464146D6
:106CF0002EF045F805460028EFD001A8FFF7CEFF9B
:106D0000DCE701A8FFF7CAFFD5E72146FFF7CEFF72
:106D10000546D3E7288C05002C7705002DE9FF47B1
:106D200004460F4631B9606838BB0025284604B0D8
:106D3000BDE8F0870368DFF84C90DB68DFF8488037
:106D4000014601A89847DDE9016AB24511D056F81D
:106D5000040B8742F9D00028F7D004234A46414665
:106D60002EF00DF805460028EFD001A8FFF796FF9A
:106D7000DCE701A8FFF792FFD5E72146FFF7CEFF3A
:106D80000546D3E7B07705002C77050037B50446F4
:106D9000FFF746FC04230DEB0302962113F0FCFAE7
:106DA0009DF80430251DC3F30003237600212846F7
:106DB000FFF77CFF0021E0602846FFF7AFFF20616E
:106DC000204609F029FC002003B030BDA0F10400EA
:106DD000FFF7DCBF10B52C2104462EF067F82046E3
:106DE00010BDF8B54B681E78312E0C4603D800EB69
:106DF0008605E86810B925232382F8BD03681B695E
:106E0000984763690BB91023F6E7E868278B036896
:106E1000DB6898470130874201D21223ECE7E8682B
:106E20000368DB68984763690130A0831E70E868D7
:106E3000228B61690368013A9B68013198470023FE
:106E4000DAE72DE9FF474B690C4623B9102323826B
:106E500004B0BDE8F0870B8BF92B01D81223F6E7BD
:106E6000002500F10C082E4658F8043BE3B1636995
:106E70005E5501A858F8041CFFF72DFA58F8040CC9
:106E8000DDF804A00368DB689847002201465046FD
:106E9000D4F8149018F084FC6F1C49F8070001988E
:106EA00008B12DF06AFF05350136F6B2322EDBD17E
:106EB000A5830023CBE700B589B040F2B113ADF84C
:106EC00000307022002368460193ADF80830ADF819
:106ED0000A308DF80C30ADF810200593ADF818305D
:106EE000ADF81C3009F026FB09B05DF804FB7FB556
:106EF000002405468DF803409DF80330312B2BD834
:106F000005EB8303DB680BB3224601210DF103007F
:106F100018F046FC9DF8033005EB83030646D9685C
:106F200001A8FFF7D8F99DF80330019C05EB830316
:106F3000D8680368DB68984732460146204618F057
:106F40002FFC0446019808B12DF017FF9DF803307F
:106F500001338DF80330CFE7204604B070BD73B520
:106F60000C461E461546FFF7C2FF0190FFF758FB7F
:106F700004230DEB0302992113F0E0FC336822890E
:106F800001339A4204D020232382002002B070BD36
:106F9000312D01D92123F7E70120F7E707B5FFF7E6
:106FA000A6FF0190FFF73CFB04230DEB03029921A0
:106FB00013F0C4FC03B05DF804FB3129F7B50746B4
:106FC0000C462FD800EB8106F068A8B103685B6916
:106FD00098470546F06810B103685B68984700233E
:106FE000012DF36016D015F0FF0F07D0022D15D03C
:106FF0003846FFF7D3FF002003B0F0BDFFF710FBCA
:107000004523ADF80630224603230DF1060113F0A7
:10701000E4FCEDE7FFF704FB4623F2E7FFF700FB94
:107020004723EEE72120E7E770B54B681D780C4653
:1070300029460646FFF7C1FF636920825BB1228BB8
:10704000042A08D91D7030466569FFF750FF0523F3
:10705000C5F80100A38370BD38B505460024E1B230
:1070600028460134FFF7A9FF322CF8D138BD0000C3
:1070700010B5054B03F1080220330446026043605B
:10708000FFF7EAFF204610BDE4770500A0F10400F9
:10709000FFF7EEBF10B50446FFF7EAFF2046D42104
:1070A0002DF004FF204610BDA0F10400FFF7F2BF51
:1070B00010B513460C4629B10A46014618462FF072
:1070C0007BFD0346181910BD2DE9F0470B89012BF4
:1070D00092B006460C4604D820230B8212B0BDE8BD
:1070E000F0874B681D785B78012B49D023B1022BC8
:1070F00000F09E80212388E00DF120081B274346E5
:107100002A460897FFF72BFF00287FD029463046F4
:10711000FFF753FF4020D4F804A02DF00FFE238981
:10712000013B1A2B814605D9424639460AF1010036
:10713000FFF7BEFF0BAB0FCB6F4607C727F8023B2D
:107140001B0C3B7098E80E00484600F095FD06EBDE
:1071500085034846C3F80C9000F0CCFC63685A1CC9
:1071600023894521013BADF82010CDF823208DF86F
:107170002250ADF82730FFF753FA032241463EE094
:1071800008AF4FF00E093B462A46CDF82090FFF796
:10719000E6FED8B329463046FFF70FFF1820D4F893
:1071A00004A02DF0CBFD2389013B0D2B804605D992
:1071B0003A4649460AF10100FFF77AFFBDF82C3044
:1071C000ADF8003097E80E00404600F0B5FD06EB44
:1071D00085034046C3F80C8000F08AFD63688DF893
:1071E00022505A1C2389CDF823204621013BADF8BB
:1071F0002010ADF82730FFF713FA0322394613F0B9
:1072000075FB3046FFF7CAFE002323826369002B1B
:107210003FF464AF228B042A7FF660AF1D703046C6
:107220006569FFF764FE0523C5F80100A38355E7F0
:107230000DF12008282743462A460897FFF78FFEBE
:107240000028E3D029463046FFF7B7FE7020D4F877
:1072500004A02DF073FD2389013B272B814605D91E
:10726000424639460AF10100FFF722FF0DF12C0CCE
:10727000BCE80F006F460FC79CE8070087E80700CF
:10728000484698E80E0000F0E7FB06EB8503484609
:10729000C3F80C9000F044FB636847215A1C238913
:1072A00060E72DE9F04F91B002AF8A460023786085
:1072B000BB60FFF7B5F907F10802514613F0D7F9A3
:1072C000002842D1BB68D3E90063EB463B6007F17D
:1072D000180905463B689E4233D016F8014B312C05
:1072E000F8D80E23A7F80CA0BC73C7F80F90FB7456
:1072F0003D75FFF795F9032207F10C0112F0C7FF66
:107300000028E7D17B6803EB8404E06810B10368D0
:107310005B68984718202DF011FD07F1280380467F
:107320001A460E214846FFF7C3FEBA8EADF800207C
:1073300007F128030ECB404600F0FEFCC4F80C8099
:10734000C8E77868FFF72AFEDD463C37BD46BDE852
:10735000F08F2DE9F04F9BB008AF8B46002380469D
:107360003B61FFF75DF907F11002594613F07FF911
:1073700000284DD13B69C7F80CD0D3E90063C7E9B9
:1073800001038AB00DF1200ABB689E423BD016F87B
:10739000014B312CF8D84FF02803FB767B68A7F817
:1073A00014B0BC75C7F817A03B77FFF739F9032273
:1073B00007F1140112F06BFF0028E5D108EB8404FB
:1073C000E06810B103685B68984770202DF0B6FC48
:1073D00007F1200581462A4628215046FFF768FE1E
:1073E00007F12C0EBEE80F00EC46ACE80F009EE85B
:1073F00007008CE80700484695E80E0000F02CFBDB
:10740000C4F80C90C0E74046FFF7C8FDD7F80CD091
:107410004C37BD46BDE8F08F2DE9F04F95B004AF75
:107420008B46002380467B61FFF7FAF807F11402D0
:10743000594613F01CF900284FD17B69C7F80CD0CE
:10744000D3E90063C7E9010388B00DF1100ABB68F6
:107450009E423DD016F8014B312CF8D84FF01B035B
:10746000FB777B68A7F818B0BC76C7F81BA087F835
:107470002030FFF7D5F8032207F1180112F007FFBB
:107480000028E4D108EB8404E06810B103685B686D
:10749000984740202DF052FC07F1240581462A46EA
:1074A0001B215046FFF704FE07F1400313E90F00CC
:1074B000EC46ACE807002CF8023B1B0C8CF80030C3
:1074C00095E80E00484600F0D7FBC4F80C90BEE7E4
:1074D0004046FFF763FDD7F80CD04437BD46BDE802
:1074E000F08F10B545210446FFF796FF2046462150
:1074F000FFF7D7FE20464721FFF72BFF002010BDE6
:10750000A0F10400FFF7EDBF2DE9F04F95B007465D
:10751000894609931646002A00F0B78000F10C0353
:10752000002553F8044B5FFA85F824B10135332D5B
:10753000F7D126200EE0B8F1320FFAD099F80030DA
:10754000012B46D04FFA83FBBBF1000F05D0022B75
:1075500075D0212015B0BDE8F08F1B2E40F095802E
:1075600040202DF0EBFB0DF1280A0446524631462F
:107570004846FFF79DFD0DAB0FCBEC46ACE807008E
:107580002CF8023B1B0C8CF8003007EB85059AE8C1
:107590000E00204600F070FB2046EC6000F0AAFAD6
:1075A0004523ADF828308DF82A80CDF82B908DF842
:1075B0002F608DF830B0FFF733F80322514613F0F7
:1075C00095F9099B384683F80080FFF7E7FC584699
:1075D000C0E70E2E59D118202DF0B0FB0DF1280A6E
:1075E0008346524631464846FFF762FDBDF83430C7
:1075F000ADF8003007EB85059AE80E00584600F01C
:107600009BFBC5F80CB0584600F072FB4623ADF862
:1076100028308DF82A80CDF82B908DF82F608DF8CA
:107620003040FEF7FDFF0322514613F05FF9099B3E
:10763000384683F80080FFF7B1FC20468AE7282E01
:1076400023D170202DF07AFB0DF1280A8346524693
:1076500031464846FFF72CFD0DF1340EBEE80F0011
:10766000EC46ACE80F009EE807008CE8070007EB4B
:1076700085059AE80E00584600F0EEF9C5F80CB002
:10768000584600F04DF94723C1E7202062E72DE975
:10769000FF414FF6FF7306460C460B828DF8033010
:1076A00000F10C08002558F8040B60B30368278923
:1076B000DB689847874226D1676858F8041C01A800
:1076C000FEF709FE3846228901992FF059FA07463C
:1076D000019808B12DF051FBAFB98DF80350278206
:1076E00063696BB1228B042A0AD99DF803201A70B2
:1076F00030466569FFF7FBFB0523C5F80100A3834E
:1077000004B0BDE8F0810135EDB2322DCBD1238A32
:10771000002BE5D00DF10303228961683046FFF7A5
:10772000F3FE2082DCE70B88A3F5D57310B5044681
:10773000062B1ED8DFE803F0040B0E11151D1900EF
:10774000FFF7A5FF2046BDE81040FFF7B4BBFFF7E9
:10775000BBFCF7E7FFF768FCF4E7BDE81040FFF774
:1077600040BBBDE81040FFF76CBBBDE81040FFF721
:1077700073BC10BD70B50D4688B0044610B900202A
:1077800008B070BD0029FAD001466846FEF7CBFD6F
:10779000684615F0C0FF2946064602A8FEF7C3FD5D
:1077A00002A815F0B8FF8642E9D1214604A8FEF7E9
:1077B000C1FD04A815F0AFFF2946044606A8FEF750
:1077C000B9FD06A815F0A7FF231A58425841D7E77C
:1077D00010B50C4631B1002805DA4042FFF7F8FF3A
:1077E00000B1201A10BDB0FBF1F301FB1300F9E763
:1077F0002DE9F041069D0C46401B1149164698465E
:10780000FFF7E6FF0E490746701BFFF7E1FF0C4943
:107810000646601BFFF7DCFF09490446A8EB05009C
:10782000FFF7D6FFB74206D807D184428CBF0020AD
:107830000120BDE8F0810120FBE70020F9E700BF4F
:10784000805101002DE9F0418CB00C4605460146FF
:1078500002A89046FEF767FD02A815F05CFF2946D6
:10786000064604A8FEF766FD04A815F054FF21465D
:10787000054606A8FEF757FD06A815F04CFF214661
:10788000074608A8FEF756FD08A815F044FF424633
:10789000044600210AA815F006FF0AA815F03BFFD0
:1078A000234600903A4629463046FFF7A1FF0CB028
:1078B000BDE8F0810220704728207047704710B55E
:1078C000702104462DF0F2FA204610BD90F8603089
:1078D00013B120300BF025BA4830FBE790F8603048
:1078E00013B120300BF024BA4830FBE770B50646E0
:1078F0000C46154662B92A462146304600F0A8F9E2
:107900000022014606F14000BDE870400BF0BCB912
:1079100021B10368DB689847A842ECD9204670BDC6
:1079200013B5044600F0E6F894F8683023B1626EAF
:107930000021684615F0B7FE02B010BDF8B5044648
:1079400016461F46FEF712FD48B132463B4620461A
:1079500000F0F8F8054684F860002846F8BD94F871
:1079600060300BB90025F8E732463B4604F1400091
:107970000BF03CF9054650B115F034FC94F8683032
:107980006066002BE9D1012384F86830E5E794F8BC
:1079900068607EB115F018FCA36D626EC31A984240
:1079A00005D9934206D8904204D93546D5E793428B
:1079B000FBD9F8E794F86820002384F86030002AA7
:1079C000D0D0E1E7F0B54B7943711746CB88C3803F
:1079D00001F1080204460D4600F1080392E8030095
:1079E00005F1100283E8030092E8030004F110039C
:1079F00083E8030005F120030FCBDFF858C0C4F87B
:107A000018C004F1200686E80F00383555F8083C08
:107A1000236395E8030004F1380383E803000C4B6B
:107A2000236007F10803C4F840C00FCB04F14805F8
:107A300085E80F00BB69A3650023C4E9193384F806
:107A4000603084F86830022323712046F0BD00BF07
:107A500044780500208C050084B0F0B5A1B006463E
:107A600027A880E80E0008AA03462DAF154618681F
:107A70005968144603C40833BB422246F7D119881B
:107A80009B78A37021800BAB0FCB6C4607C424F806
:107A9000023B1B0C237095E80E0010A800F0ECF8D8
:107AA00004AA0DF1B7030DF1BF0C17461868596809
:107AB000144603C4083363452246F7D11868206092
:107AC0001B7923719DF81C308DF8003097E80E006B
:107AD00028460BF08FF82A4610A93046FFF772FFB0
:107AE000304621B0BDE8F04004B070470020704738
:107AF0001B2070477047704720300BF012B92030C0
:107B00000BF016B910B5402104462DF0CFF92046F0
:107B100010BD38B590F83C4005467CB115F0FEF933
:107B20002B6BAA6BC31A984206D9934208D890428D
:107B300034BF0024012401E09342F8D8204638BD28
:107B40000024FBE7F8B51F4603689B690446164608
:107B5000984798B1236820469B69984748B33246B6
:107B60003B4604F118000BF041F8054678B115F0DA
:107B7000D5F90123A06384F83C3006E02368204651
:107B8000DB6998470028E5D101252846F8BD94F81F
:107B90003C300BB90025F8E72046FFF7BAFF054651
:107BA0000028F1D194F83C30002BF3D084F83C004D
:107BB000EBE723682046DB6998470028E4D032468B
:107BC0003B4604F118000BF011F8054628B915F0F2
:107BD000A5F90123A06384F83C3094F83C30002BD5
:107BE000D3D02046FFF795FF0028D3D194F83C501E
:107BF000002DC9D084F83C00C7E7D0B5044616462E
:107C00001F46FEF7B3FB30B132463B462046BDE887
:107C1000D040FFF797BFD0BD30B585B00446684669
:107C20000D46FEF733FC22460DF10E016846FEF7C5
:107C300021FC05F1180168460BF00AF804F10E0268
:107C40000DF10D016846FEF715FC204605B030BD6C
:107C500010B51A2A88B00C460BD9014601A8FFF7C7
:107C6000DBFF22460DF11F0101A8FEF703FC08B05F
:107C700010BD0020FBE7000084B070B586B005465B
:107C800002AC0BA880E80E0022460DF13A01FEF787
:107C9000F1FBBDF81430ADF8003094E80E002E462C
:107CA0002846FEF755FC0F4B46F8183B22460DF1CF
:107CB00047010DF13A00FEF7DDFB9DF814308DF819
:107CC000003094E80E0030460AF094FF0023284666
:107CD000C5E90E3385F83C3006B0BDE8704004B00D
:107CE000704700BF90780500012070470E20704754
:107CF0007047704710B5182104462DF0D7F820467C
:107D000010BDF0B5036885B0DB68174606460C4623
:107D10009847B84205460CD831466846FEF7B6FB90
:107D200025B12A46694620462EF038FF601905B075
:107D3000F0BD0020FBE7000084B037B507AC84E855
:107D40000E00BDF82830ADF8003094E80E0005466E
:107D5000FEF7FEFB034B2B60284603B0BDE8304026
:107D600004B07047DC78050070470438704710B5E0
:107D7000142104462DF09AF8204610BDA0F104000D
:107D8000F5E700002DE9F04F837B87B004468B4672
:107D900013B109B1036973B900238DF811309DF84F
:107DA0001030002063F307009DF8113063F30F20BB
:107DB00007B0BDE8F08F0A4604A8002115F073FC57
:107DC00004A815F0A8FC2369029003F10C0A002511
:107DD000D4330393FF242F46039B534540D05AF8D6
:107DE000040B0028F8D00023214A22492CF0C7FFB9
:107DF00006460028F0D05946FEF7B8FA0028EBD026
:107E0000314604A8FEF78FFA04A815F084FC314629
:107E1000804604A8FEF78EFA04A815F07CFCFF2C1F
:107E2000814608D1474511D03046FEF77AFA4D46D3
:107E300004464746D0E7029B009301462B463A464C
:107E40004046FFF7D5FC0028ECD1C5E74D45EBD106
:107E50003046FEF766FA844228BF0446E4B2BBE728
:107E6000FF2C08BF64248DF81040012395E700BF64
:107E7000B4780500E476050013B5044615F0B2F9B0
:107E800001462046FFF77EFF637BADF80400C0F398
:107E9000072098420CD12BB1237B9DF804001B1ABC
:107EA00018BF0123BDF80420A281184602B010BDFE
:107EB0000123F7E70B8810B440F2B114A342024645
:107EC0000BD040F2C114A34207D0962B0AD14B68C5
:107ED0001B78C3F30003837300E010465DF8044B86
:107EE000FFF7CABF5DF8044B704783890020DAB200
:107EF00062F307001B0A82B063F30F2002B07047E1
:107F000037B5164D2B78BFF35B8FDB0704460ED4D5
:107F100028462CF023FF50B1114811F0D5FE284619
:107F20002CF028FF0F4A10490D482CF0BAFF04230B
:107F30000DEB030296210A4812F02EFA9DF8043048
:107F4000C3F30003A3730021201DFEF7E7FE2061A9
:107F5000204608F061FB002003B030BD4C2B002010
:107F6000502B0020002A0020599C0300A0F104009F
:107F7000FFF7C6BF70B5114E3478BFF35B8F14F0B6
:107F8000010418D130462CF0E9FEA0B10C4D0D4B88
:107F90002B6030462C71C5E902442C82AC74C5E9D3
:107FA0000544AC8385F828402CF0E4FE064A0749D6
:107FB00028462CF076FF024870BD00BF1C2B002025
:107FC000202B00205C9E0500002A0020096602008C
:107FD000F8B5264B0360264BC360264E01230025CF
:107FE00080F82A3000F150030446C0E901550585A8
:107FF0004564836400F14807304600F035FC4FF0DB
:10800000000332183146384600F078FBA4F8D85007
:108010002946102204F1DC002EF0E8FDC4F8FC50E3
:10802000154D2B78BFF35B8FDB070ED428462CF061
:1080300095FE50B1114803F0F7F928462CF09AFE4E
:108040000F4A10490D482CF02CFF0C4B63600023A5
:108050002046C4F8EC30A4F8F030C4F8F430A4F8AA
:10806000F83000F028F82046F8BD00BFF47A05008B
:10807000FF00A0007A7A0500F82B0020882B002052
:10808000002A00208DB4020010B5037A04468BB993
:1080900001221146406803F0FDFA58B10123204641
:1080A000237204F1480100F027F82046BDE8104093
:1080B00008F0B2BA10BD038A03F47C4343F0010315
:1080C0004FF48072038282840023C28943618261FB
:1080D00083837047A1F120039BB243F6E072934281
:1080E00010B508D8C181FFF7E6FF037A1BB1BDE8E0
:1080F000104000F06EB910BD2DE9F04100F14807C5
:108100008F4288B004460E461FD0826C4D6800F145
:1081100050039A4214BF016D0F218D420BD902A862
:10812000029500F07DFB8046384600F0DEFA029BA7
:10813000C4F84880236525B12A463168A06C00F058
:10814000FFFAA36CE56400225A55237AD3B1E56C9B
:1081500004AB0293CDB91A4C204600F085FB4FF0DA
:1081600000032218214602A800F0C8FA1123BDF826
:108170000C2002998DF8043001A800F073FB02A8CE
:1081800000F0B3FA08B0BDE8F081A46C14B90D4852
:108190002DF007FA0F2D019506D9002101A800F056
:1081A0003FFB019B029004932A462146029800F06F
:1081B000C7FA019B029A03930021D154D6E700BF6E
:1081C0007A7A05007F7A050090F90D308B421AD03B
:1081D00011F10C0F09D010DC11F1140F05D011F1C1
:1081E000100F02D011F1280F0DD1037A417353B152
:1081F000037BFF2B07D000F02EB80B1DF5D003DC5E
:1082000011F1080FF1D070470029EED00429FAD1FE
:10821000EBE713B50446FEF703FA01230DF107025D
:108220002A2112F0B9F89DF907102046FFF7CCFF7C
:1082300002B010BD13B50446FEF7F2F901230DF1AB
:1082400007020B2112F0A8F89DF907102046FFF74E
:10825000BBFF02B010BD037A3BB1017BFF2904D004
:1082600090F90D20012000F0FBBA704710B50446CC
:1082700000F005F82046BDE8104000F0DAB82DE91E
:10828000F041044641641546002A44D100F16006DD
:108290003C22002130462EF0A9FC002D3ED14FF4A7
:1082A000C06373804FF0030804F138070C220021EB
:1082B00038462EF09BFC4CF201032387606C02F0E1
:1082C00097FB2064606C02F095FB0122A087B762E7
:1082D00086F82C2094F83C303270063358FA83F339
:1082E000DBB21F2B98BFC3F11F0394F84C2094BF3F
:1082F000DBB20023934228BF134603B93370737077
:108300002946204600F0F8F818B101234DB184F851
:10831000D930BDE8F08100F19C06B9E74FF00008C4
:10832000C2E784F8D830F4E738B501238372037AC2
:1083300004463BB3437A2BBB057B00F1100200F1EE
:10834000EC010C3000F086FAE0B9FF2D02D1204696
:10835000FFF781FF002384F828300121207B00F003
:108360007BFA034670B90122D4F8EC10204600F0E5
:10837000F9F801231A46D4F8F410204600F0F2F878
:108380000123637238BD38B500238372037A044633
:10839000ABB1437A9BB1007B00F060FA054670B93F
:1083A00003460246D4F8EC10204600F0DBF8012327
:1083B0002A46D4F8F410204600F0D4F8657238BD8F
:1083C00010B50446FFF7DFFF2046BDE81040FFF779
:1083D000ABBF38B5437A04460BB9837A43B3237AEB
:1083E00033B3606803F0EEF994F82A506DB90023B6
:1083F00094F82820E2B1B3B10123237484F8293022
:108400002046BDE83840FFF7DBBF606803F060FC42
:108410000028ECD194F82930002BE9D1012384F80D
:1084200028302B46E4E70522227484F82930E7E758
:1084300038BDF8B5037A0446002B5CD090F8D830EC
:10844000D0F8EC70D0F8F460002B43D194F8D93018
:108450008BB11F230121A4F8F830204600F06DF8FD
:1084600004F1F8020146C4F8F40004F19C001CF089
:10847000A5FB00283FD1237BFF2B22D0002204F153
:10848000EC0104F10C0000F0E5F9054698BB034649
:1084900002463946204600F065F801232A46314657
:1084A000204600F05FF82B460122D4F8EC1020465D
:1084B00000F058F801231A46D4F8F410204600F0D2
:1084C00051F8637ABBB9A37AABB12046BDE8F84056
:1084D000FFF72ABF1F230021A0F8F03000F02DF88D
:1084E00004F1F0020146C4F8EC0004F160001CF055
:1084F00065FB0028AAD0F8BD70B5002914BF02247E
:10850000002400F1DC0526B255F8263033B91F21CE
:1085100001202EF0D1FA45F8260020B1013455F89B
:1085200024300BB1012070BD1F2101202EF0C4FAB0
:1085300045F824000028F5D1F5E7002914BF0222F0
:1085400000228118134691F8FC1021B1531CC21867
:1085500092F8FC2022B900EB8300D0F8DC007047D1
:108560000020704730B591B1002B14BF02230023C7
:1085700000EB8304D4F8DC50A94205D0D4F8E040E5
:10858000A14203F1010302D1184480F8FC2030BD60
:1085900070B58A78037B9A4204460E4613D10025B3
:1085A00005230374457280F829502B462A464968F2
:1085B000FFF7D8FF0123F1682046FFF7D3FFA37A26
:1085C0000BB10123E37270BD427A32B1052202740D
:1085D000002280F82920FFF7F3BE7047C27A2AB143
:1085E000837A0022C2720BB1FFF79EBE704730B58E
:1085F0000B88B3F5847F89B005460C462DD013D87F
:108600003C2B3DD005D80B2B4CD00C2B50D009B0B7
:1086100030BDB3F5827F65D040F207129342F6D1A8
:108620004968FFF7B5FFF2E740F2F112934218D024
:10863000B3F5F97F0AD240F2091293423DD040F2DD
:10864000D7129342E3D1FFF7C9FFE0E740F2F312FC
:1086500093420ED0B3F5FA7FD9D12846FFF7B9FE81
:10866000D5E7FFF7B1FF238A702BD0D100232382F7
:10867000CDE74B681B88002BC9D0FFF7AAFEC6E7E1
:108680004968228904AB0A44029302A84FF0000310
:1086900000F034F8284602A9FFF72EFD02A800F0EA
:1086A00024F8B4E74B6893F90010FFF78DFDAEE7AF
:1086B0004B681988FFF70EFDA9E74B681B788DF80A
:1086C000083063B1FFF730FEFFF754FC032300933B
:1086D00002AA01234CF2503116F0B5FD97E7FFF7DF
:1086E00052FEF1E7FFF7A5FE91E7034653F8080BAA
:1086F000984201D02CF041BB7047000073B505468D
:108700000E4619B912B10D482CF04BFF941B0F2CDB
:10871000019406D9002101A800F082F8019B28608D
:10872000AB6022463146286800F00AF8019B2A68AF
:108730006B600021D15402B070BD00BF7F7A05008C
:10874000012A30B403D10B78037030BC7047002A83
:10875000FBD030BC2EF022BA0B680360014B836063
:10876000704700BF007B0500024B83600B6803600D
:10877000704700BF007B05000B68036070477047BF
:10878000004870479479050010B50446084604492E
:108790002CF079FE002814BF2046002010BD00BF39
:1087A000947905000B680360014B8360704700BF3C
:1087B000187B0500024B83600B680360704700BFA5
:1087C000187B05000B6803607047704700487047CE
:1087D0006079050010B50446084604492CF053FEA4
:1087E000002814BF2046002010BD00BF607905009E
:1087F00010B5044B044640F8483BFFF776FF20468F
:1088000010BD00BFF47A050010B50446FFF7F0FF75
:1088100020464FF480712CF049FB204610BD00002B
:1088200008B50368002B02DA09482CF0BDFE8B4224
:1088300008D949008B4205D20029B6BF6FF000432A
:10884000016003600068BDE8084001302CF076BA92
:10885000A97A050072DF704773DF704774DF7047D5
:1088600077DF70477CDF70472EF0FCBA38B50E4CCE
:108870002378BFF35B8FDB0705460ED420462CF030
:108880006DFA50B1094800F017F820462CF072FA42
:10889000074A084905482CF004FB29460348BDE86F
:1088A000384000F06BB900BFF82E0020FC2B0020F0
:1088B000002A0020D1910200074A02600749816125
:1088C000012282721721002202618282A0F8E8123E
:1088D00080F8EA22704700BFB47B05000000FFFF6C
:1088E000F8B5002380F8E33280F8E4324FF6FF73E6
:1088F0000446A0F8E6321C481BF074FF18B11B4A6E
:108900002D211DF098FE1A4F1A4D3E78BFF35B8F54
:1089100016F001060ED138462CF020FA50B1384638
:108920002E60AE80AE712CF025FA134A134928460A
:108930002CF0B7FA2B6813B12361AB88A382FDF743
:108940006FFE04F53B720223272111F025FDFDF790
:1089500067FE022304F2EE22282111F01DFD2046BD
:10896000BDE8F84007F058BE6D880200307B050076
:10897000F42E0020EC2E0020002A0020F7910200A7
:10898000F0B590F8EA3291B005460F461646002B36
:1089900047D1264C2378BFF35B8FDB070ED42046EC
:1089A0002CF0DCF950B1224802F03EFD20462CF0BC
:1089B000E1F9204A20491E482CF073FA1C4803F0C4
:1089C00087F980BB6A8B4FF6FF739A422BD140F236
:1089D000F111684600F017FC684607F0ABFDBDF8E2
:1089E000104064B1012C13D04FF4FA7108A800F0C4
:1089F0000AFC08A807F09EFDBDF8104005E0AA8912
:108A0000291D284600F01AF80446204611B0F0BD92
:108A100007223946281D2EF0C1F8AE8185F8EA42BA
:108A2000F3E72724F1E72824EFE700BFF82B002025
:108A3000882B0020002A00208DB4020070B588B079
:108A400004460E4615460DF1010006222EF0A6F84A
:108A50009DF80030B27903F0FE0362F347038DF80E
:108A60000030BDF810301B4A03F0E00343F482737A
:108A7000ADF810300A23B5FBF3F3ADF81630002340
:108A800006938DF81C30B4F8EC32ADF81230092D95
:108A9000B4F8EE32ADF814309CBF0123ADF81630B7
:108AA0004FF4C803CDE9022304A9012302AA6846B2
:108AB00000F099FB48B120464FF6FF72022100F00A
:108AC0007BF94FF6FF7008B070BD022384F8EA32DC
:108AD0000120F8E70600100038B590F8EA120546C4
:108AE00011B12B2200F068F9688B4FF6FF74A04299
:108AF0000ED0132100F075FB082809D043F20203C1
:108B0000984205D030B9032385F8EA32012038BDF8
:108B10000020FCE72046FAE773B590F8EA320546F4
:108B20002BBB408B4FF6FF73984222D00C4601EBD3
:108B30008206B44210D0204603F0FAF9019001A851
:108B40001BF068FE30B104284FF6FF7008BF2620E6
:108B500002B070BD0434ECE7698B05F11C001BF01A
:108B60007BFE40B9042385F8EA320120F0E7272094
:108B7000EEE72820ECE74FF6FF70E9E72DE9F0413A
:108B80000B78012B92B00F4652D05CB224B1032B6C
:108B900054D012B0BDE8F08149686846CDE9004480
:108BA00003F095F90823ADF8103040F2F516702364
:108BB00002A8ADF80860CDF80CD0ADF812408DF8E1
:108BC0001440ADF818300794ADF82040ADF82440BB
:108BD00007F0B0FC4FF012083B7AE5B2AB42D8D9AF
:108BE00008FB05750AA8D5F80E1003F070F90A9B6A
:108BF0000093EB8AADF804302B8BADF806300823D8
:108C0000ADF83030702200230AA8ADF82860CDF806
:108C10002CD0ADF832308DF83430ADF838200F93C9
:108C2000ADF84030ADF84430013407F083FCD3E7B1
:108C30004FF6FF72042100F0BFF8AAE700220421DA
:108C400000F0BAF8A5E791F8EA321BB100230360FF
:108C5000838070478B8A0A690260B3F5807F28BFE2
:108C60004FF4807383807047F0B51E4690F8EA3267
:108C70000F4685B005461146002B36D1428B4FF684
:108C8000FF739A4233D0A7B3A9B3838AB34234D3D4
:108C90000069884202D032462DF08EFFB5F8E832E6
:108CA000023BB34207DC2E8300223946284600F0FF
:108CB00026F805B0F0BD00230193ADF8083001247B
:108CC0002B69688B8DF8044001A9ADF80670ADF8EA
:108CD0000A60039300F08BFA20B9062385F8EA3284
:108CE0002046E6E74FF6FF70E3E72720E1E728207C
:108CF000DFE72120DDE71020DBE71220D9E730B5E0
:108D0000038B934285B0044621D9B0F8E802ADF850
:108D100008209B1A05388342A8BF0346ADF80A30E5
:108D20002369ADF8061004251A44ADF804500392E7
:108D300001A9608B00F05BFA98B143F202024FF692
:108D4000FF73904214BF1846212005B030BD40F299
:108D50000513ADF804300023ADF80610CDE9023359
:108D6000E6E7062384F8EA320120EEE738B590F80A
:108D7000EA2205466AB9408B4FF6FF74A0420AD03A
:108D800059B100F032FA50B9052385F8EA320120D2
:108D900038BD2720FCE72820FAE72120F8E7204605
:108DA000F6E707B50223ADF806200DF10602FFF73E
:108DB0005BFF03B05DF804FB7FB5ADF80620062924
:108DC0000AD8DFE801F004040404040C04000223C0
:108DD0000DF1060200F012F807B05DF804FBBDF8D3
:108DE0000630ADF80C3000230493ADF814300C239A
:108DF0000DEB0302052100F001F8EDE7F0B50446A4
:108E000095B00D4604A8002117461E4600F0FBF958
:108E100094F8EA12A94247D0481E052844D8DFE852
:108E200000F003034311173D2823ADF8043040F24E
:108E3000F313ADF8303001AB0D930223ADF83830A9
:108E4000002319E02823ADF804304FF4FB73F0E75A
:108E50002822ADF8042040F2F712ADF8302001AA24
:108E600000230D920C22CDF80630ADF80E3002939F
:108E7000ADF80C30ADF8382070220CA92046ADF8C2
:108E80003A308DF83C30ADF840201193ADF84830C1
:108E9000ADF84C3000F035F815B0F0BD2823ADF832
:108EA00004304FF4FC73C4E702390597ADF818603D
:108EB000042908D8DFE801F00307161B200040F260
:108EC000F313ADF8103004A9204600F01AF8032D72
:108ED000E2D14FF4FA710CA800F095F90CA807F054
:108EE00029FBD9E74FF4FB73ADF81030EBE740F204
:108EF000F713ADF81030E6E74FF4FC73ADF810301F
:108F0000E1E7002380F8EA320B8813B1084607F046
:108F100011BB704710B590F8EA120129044609D137
:108F20000022FFF749FFA289211D2046BDE810401D
:108F3000FFF784BD10BD38B5D579022D044608462B
:108F40000BD16183452100F054F930B12946204608
:108F50000022BDE83840FFF72FBF38BD097802294D
:108F600005D14FF6FF7242832A22FFF725BF7047D3
:108F7000418B4FF6FF72914205D0002342830321BB
:108F80001A46FFF73BBF704719B180220221FFF755
:108F900013BF1288A0F8E8220A460221FFF70CBF8F
:108FA0007FB540F207139942054614460DD10023C0
:108FB00001930393026963880292ADF80C3001AA11
:108FC0000C230521FFF71AFF04E029B180220521B7
:108FD000FFF7F2FE04B070BD928863881AB901925F
:108FE00003920269E8E7868A9918B14204DD1222E9
:108FF0000521FFF7E1FEEDE70069A11D18442DF002
:10900000CDFD6288A3882188688B1A4492B200F053
:10901000ECF80028DED0522205212846FFF7CCFECE
:10902000D8E710B51346044629B180220621BDE8D1
:109030001040FFF7C1BE9278042A0AD0052A01D059
:10904000012A16D1204600220621BDE81040FFF774
:10905000B3BED9889A880A4492B21988FFF74FFEA6
:109060000128024605D020460621BDE81040FFF742
:10907000A3BE10BD00B58DB011BB9378012B1FD1DD
:109080001388ADF804309388ADF80C3040F2F91332
:10909000ADF8103001AB05930C230632ADF8183053
:1090A00004A870230292ADF81A108DF81C10ADF8C8
:1090B00020300991ADF82810ADF82C1007F03AFADD
:1090C0000DB05DF804FB112907D01B2908D0102929
:1090D00009D132F8041BFFF72EBF111DFFF748BF5F
:1090E000111DFFF73BBF704710B40B461488418B2E
:1090F0008C421CD1363B5188042B18D8DFE803F092
:1091000008170D12030006325DF8044BFFF73CBF51
:1091100006325DF8044BFFF743BF06325DF8044B9F
:10912000FFF77FBF06325DF8044BFFF7A3BF5DF882
:10913000044B704738B50C46054600F11C0120462B
:109140001BF0A0FB2188A1F110031F2B05D8221DC5
:109150002846BDE83840FFF7B6BFA1F130031F2B0A
:1091600005D8221D2846BDE83840FFF7BDBF38BDF1
:1091700010B50B88A3F5F6730C46062B0AD8DFE86A
:1091800003F0040A0E151B09230049680A89FFF73A
:10919000F7FB208210BDFFF79FFC2082FAE74B68A7
:1091A0001A791968FFF7B8FC2082F3E74B68198831
:1091B000FFF7DCFD2082EDE749680B894A680988E2
:1091C000FFF752FD2082E5E7BDE81040FFF7A2BEA1
:1091D000704710B54FF43C7104462BF067FE2046F3
:1091E00010BD76DF70478CDF7047A1DF7047A3DFCB
:1091F0007047A5DF704710B50446006808B12DF030
:10920000B7FC204610BD002201807021C0E9012278
:10921000027301824261028382837047C187704773
:1092200008B500F0D3FA006808BDC08F7047808F82
:109230007047A0F840107047B0F840007047000039
:1092400010B5094B044640F8043B02F03CFE0023F5
:10925000A360C4F80E30C4F81230A36123772362F0
:1092600084F82430204610BD5C7D050038B5037FAE
:10927000DB0704460D4605D5034A182102F15700C5
:1092800016F06EFAA56038BD287C05002DE9F04780
:10929000044698B000250CAEA1611C220F460EA812
:1092A00029460C9575602DF0A1FC1C2229460EA8BC
:1092B0000DF15409ADF854508DF85650ADF85A5090
:1092C0008DF85C502DF092FC07A9204600F0B4F810
:1092D0000322294648462DF089FC9DF85630CDF8EA
:1092E0004C9023F0070343F0030341F2111A201DB1
:1092F0008DF85630ADF854A002F01AFE142229461B
:10930000009007A82DF072FC2368CDF81CD01B69D3
:10931000ADF82650204698472368ADF824009B6896
:1093200020469847ADF82800204600F07DFB0DF15F
:109330005A080B900322404629462DF057FC9DF811
:109340005C30D4F80890CDF8208023F0070343F078
:1093500005030DF10C08ADF85AA08DF85C300F959F
:109360001295CDF80480B9F1000F5DD048462DF07C
:1093700079FD0F28054604D901302BF0DFFC039559
:109380000190012D019848D199F800300370019B9C
:10939000029500215955029BC3B1019A0F920DF11C
:1093A0005D059BB203222846ADF84230ADF840304F
:1093B0002DF01CFC11238DF85D30BDF85E30129548
:1093C00003F4784343F44073ADF85E30236800251E
:1093D00011955B6B31462046984710B1ADF832507D
:1093E000119604F10E0307AA0EA9388D00F0F2FAC7
:1093F00018B10F4A9C211DF01EF90021204600F0F3
:109400003BF8237F019843F001034045237701D0C7
:109410002BF0B3FC18B0BDE8F087002DB7D02A467A
:1094200049462DF0BBFBB2E702482CF0BAF800BF6A
:10943000287C0500A97C05000B7F23F0030343F083
:1094400002030B77037F0A7FC3F3800363F3C30236
:109450000A77037FD2B2C3F3400363F304120A779F
:10946000037FD2B2C3F3001363F345120A77437B41
:1094700081F83F30704700002DE9F043036889B060
:10948000DB690446884698470546204600F0CCFA3A
:10949000237F0646980677D594F82430FD2B73D8A1
:1094A0004146284606F07DFE236807469B68204615
:1094B0009847B84241D300F097FA236881465B6928
:1094C00020469847CDF8088094F82430ADF81C70F9
:1094D0000193079B0490ADF81450009304AA3346FF
:1094E00006CA4846069606F01BFD054638B33A46BE
:1094F000002130462DF07AFB236820462C4CDB6897
:10950000002198472378BFF35B8FD9070ED42046FC
:109510002BF024FC50B1274801F086FF20462BF0A9
:1095200029FC254A254923482BF0BBFC214802F0A1
:10953000ADFB284609B0BDE8F0831225D7E72368C4
:109540003946DB6820469847236820461B699847C0
:109550000023ADF81A30A369ADF8180007969B6890
:10956000E189D88B06AA00F037FA40B143F2020332
:10957000984204D0124A4FF492711DF05CF8237F98
:109580009A0707D40020D5E723682946DB682046E0
:109590009847D9E7A369986802F0A1FB0028F1D0A9
:1095A000237F1B07EED5236820465B6A9847C1E7F7
:1095B000F82B0020882B0020002A00208DB4020008
:1095C000287C050030B5037F9A0787B0044603D492
:1095D0000825284607B030BD8369986802F07FFBF4
:1095E0000028F5D0237F1B07F2D5236820461B698E
:1095F0009847E389ADF8083001238DF80A300DF162
:1096000006020023CDE90423ADF80C30A369ADF8C0
:1096100006009B6802A9D88B00F0E0F90D280546EA
:1096200017D00AD80028D4D0082812D00B4A40F20C
:10963000671128461CF0FFFFCBE7132804D043F244
:1096400001439842C5D0F1E7237F43F040032377DD
:10965000BFE7237F6FF386132377BAE7287C0500E3
:109660002DE9F04F037F9A0791B0044604D40826F1
:10967000304611B0BDE8F08F8369986802F02FFB87
:109680000028F4D0237F1B07F1D5236820461B69EF
:1096900098478046204600F0C7F9257FC5F380151E
:1096A00083460DB1B4F8425000260DF11809A845C3
:1096B000DED9A8EB050A5646132E4FF014024FF0E0
:1096C00000014846A8BF13262DF090FABAF1130FF7
:1096D000C8BF13230BEB050ACABFB5FBF3F3FF2387
:1096E000DBB2B2B2B7B251460DF119008DF81830A5
:1096F0002DF054FA7A1C92B251460BA8ADF8062010
:109700002DF04CFAE289ADF8082001228DF80A20EC
:109710000022ADF80C200DF10602CDE90429A26962
:10972000926802A9D08B00F059F90D28064624D082
:1097300009D8C8B1082820D0144A40F2F91130469F
:109740001CF079FFB3E743F202039842AFD043F233
:1097500001439842ABD01328EED1237FA4F84250A6
:1097600043F04003237783E7BDF806200BA950465A
:109770003D442DF013FAADB299E7237F002262F346
:109780008613A4F84220237772E700BF287C0500E7
:1097900010B5037F5B06044607D503685B6A9847EC
:1097A00018B9237F60F38613237710BD10B5037FAC
:1097B0005B06044609D503685B6A984728B9237F8E
:1097C000A4F8420060F38613237710BD80B483B001
:1097D00000AF78607B68283318460C37BD465DF8CB
:1097E000047B704710B5044B044640F82C3B636B78
:1097F000DB689847204610BDC87B050010B50446BD
:10980000FFF7F0FF204644212BF050FB204610BD0F
:10981000704710B5182104462BF048FB204610BDB8
:10982000F0B58BB00E46044600F0DEF806F0CDFC35
:109830000546002846D123683146DB682046984714
:10984000C9238DF81730237F13F0200F236866D0CB
:1098500094F82420FD2A62D81B692046984729469F
:1098600006F0ABFC236801469B692046984700F050
:10987000BBF80746204600F0D7F8236806461B6968
:109880002046984723680696ADF81C005B69204681
:10989000984723680646DB69204698470DF1170371
:1098A000ADF824000193099B0093029506AA334664
:1098B00006CA3846089606F0C7FB28B100F094F8AF
:1098C00006F08AFC0BB0F0BD194D2B78BFF35B8F0F
:1098D000DB0709D428462BF041FA28B1154806F0D9
:1098E000CFFC28462BF046FA9DF8172094F8241058
:1098F000104806F0CCFC0028E0D020469DF8176008
:10990000FFF764FF23680746DB6920469847A56B8D
:1099100003463A46314604F12C00A847D2E7FE221E
:109920008DF817209B69314620469847E5E700BF30
:109930002C2F0020142F0020F8B5036A044653BBD7
:10994000037FDB0920D0144F144E3D78BFF35B8FAB
:1099500015F001050ED138462BF000FA50B138460B
:109960003560B580B5712BF005FA0D4A0D493046CA
:109970002BF097FA336803B12362236A5BB90120A5
:10998000BDE8F84015F052BF03689B689847012175
:109990002DF092F82062F8BDF42E0020EC2E00206D
:1099A000002A0020F791020038B50446006A20B171
:1099B000237FDD0902D00023236238BD2DF0D8F8C3
:1099C0002562FAE700230120CB8040F21B130871C7
:1099D0000B807047AADF7047ACDF7047AEDF70477F
:1099E000704770470020704710B50B4C2378BFF3C9
:1099F0005B8FDB070ED420462BF0B0F950B107483F
:109A000006F084FA20462BF0B5F9054A05490348CB
:109A10002BF047FA014810BD302F0020FC2E00200B
:109A2000002A002011980200037F9B0603D590F8BE
:109A30002430FD2B02D903685B691847006A704720
:109A400038B503680546DB6898472B6804461B69F0
:109A500028469847201A80B238BD70477047704733
:109A600010B5082104462BF021FA204610BD10B590
:109A7000082104462BF01AFA204610BD10B53021FB
:109A800004462BF013FA204610BD10B5044611F021
:109A9000BAF8204610BD10B5044611F0B4F82046BF
:109AA00010BDB2F5967F38B504460D4602D20120AE
:109AB00015F0BCFE6560002038BDB2F5967F38B564
:109AC00004460D4602D2012015F0B0FE656000206C
:109AD00038BD10B9012015F0A9BE704710B5044675
:109AE0004068FFF7F6FF6368B3F80300053080B203
:109AF00010BD08B54068FFF7ECFF4FF4967008BD45
:109B000038B50C4605464868FFF7E3FF63682B60ED
:109B1000236820461B699847A880284638BD000066
:109B200010B50B4C2378BFF35B8FDB070ED42046B8
:109B30002BF014F950B10748FEF7BEFE20462BF07B
:109B400019F9054A054903482BF0ABF9014810BD46
:109B5000F82E0020FC2B0020002A0020D1910200CA
:109B600010B50B4C2378BFF35B8FDB070ED4204678
:109B70002BF0F4F850B1074811F040F820462BF0D4
:109B8000F9F8054A054903482BF08BF9014810BD47
:109B9000342F0020382F0020002A00208B9A02004A
:109BA0000023FF22C0E905338383026280F82A3054
:109BB000C38580F8263003857047000038B5124908
:109BC0000546043002F006FA1049044605F1080083
:109BD00002F000FA41F60A01044305F10C0002F01C
:109BE00093F9A4B204434FF6596105F1100002F055
:109BF0008BF9A4B20443A4B224B92846FFF7D0FFDE
:109C000006F00AFD204638BD687E05008D7E050001
:109C100070B590F824308AB004460E4615467BBBDA
:109C200040F20222ADF808200DF107020392012252
:109C3000ADF8102002A870228DF80710ADF8123090
:109C40008DF81430ADF818200793ADF82030ADF83A
:109C5000243006F06FFCBDF8181099B101290CD121
:109C60002046FFF79DFF40F20113A585A38484F8E9
:109C70002A606423B5FBF3F5E58508460AB070BD9C
:109C80002721FAE74121F8E770B590F8243004461F
:109C90000E4615468BB9FFF743FF31462A46FEF7BD
:109CA0006FFE0128014606D12046FFF779FF40F2FA
:109CB0000123A585A384084670BD2721FBE700008A
:109CC0002DE9F0431C4690F824308DB005468946B6
:109CD0001646002B6ED1FFF723FF014604A8FEF7BE
:109CE000B2FF049F1FB910200DB0BDE8F083FFF74D
:109CF00037FF0822014606A810F09FFF2E4B08935D
:109D0000BDF81C30DDF81880B3F5967F02D2012033
:109D100015F08CFD4046CDF82480FFF7DAFE099B54
:109D200005221A700998FFF7D4FE099BA3F8019049
:109D30000998FFF7CEFEB4F5947F39D20CB1002E0E
:109D4000D1D0099BA3F803403CB109980530864265
:109D500003D0224631462CF02FFF0AAC08A920463A
:109D6000FFF7CEFE0021BDF82C0006F01AFA2E6A8D
:109D70008046C6B9FFF738FE029664230193059B1F
:109D8000009394E80600049B06F0CAF8FFF7C8FEAB
:109D900043463A46298BFEF767FF0128A4D14FF4CA
:109DA0008173AB84A0E7FFF71FFE00230293E5E772
:109DB000122099E7272097E74C7E05000023838433
:109DC0000B8813B1084606F0B5BB7047F0B590F8A4
:109DD000245095B0002470268D420746ADF81040FF
:109DE0000594ADF81840ADF81A408DF81C40ADF858
:109DF00020600994ADF82840ADF82C4003D0012D27
:109E00000BD0022D25D0012D0592ADF8183033D09E
:109E1000022D36D004A9384617E02823ADF80430C7
:109E20004FF4FF73ADF8303001AB0D930223ADF862
:109E30003830ADF83A408DF83C40ADF840601194B0
:109E4000ADF84840ADF84C400CA9FFF7B7FF15B08E
:109E5000F0BD2823ADF804300B4BCDF80640CDF80B
:109E60000A4002934FF40073ADF8303001AB0D930C
:109E7000ADF80E400C23DAE74FF4FF73ADF8103065
:109E8000C8E74FF40073F9E7287E05007FB5012984
:109E9000ADF8062004D9022908D007B05DF804FB0C
:109EA00002230DF10602FFF791FFF6E70023059369
:109EB000034B04930C23ADF80C200DEB0302F2E7E7
:109EC000287E050008B590F8241011B12B22FFF769
:109ED000DDFFFFF725FEBDE80840FEF7FDBD10B52C
:109EE000036A04469BB1102B1BD1FFF719FEE18AD0
:109EF000FEF73CFF0128024605D001212046BDE8BF
:109F00001040FFF7C3BF062384F8253010BDFFF7CC
:109F100007FEA18AFEF72AFF01280246EDD105239C
:109F2000F2E746220121EAE710B503462AB193F889
:109F30002410FFF7ABFF002010BD90F825208A42C7
:109F400001D02E22F3E70120F6E708B590F824307F
:109F5000012B03D1BDE80840FFF7E6BF2E22012107
:109F6000FFF794FF002008BD08B590F82430022BBD
:109F700003D1BDE80840FFF7D7BF2E220221FFF72B
:109F800085FF002008BD2A2290F82410FFF77EBF2D
:109F900073B500220E4601210446FFF7D6FFD8B163
:109FA000327894F82A309A4216D100230125E385AD
:109FB0000622711968468DF806502CF0EFFDFFF768
:109FC000AFFDA28D6946FEF7DBFCA842024605D034
:109FD00029462046FFF75AFF02B070BD40F2012328
:109FE000A384F9E710B50A4602210446FFF7ADFF46
:109FF000A8B1FFF795FD0422A118FEF78DFD0128F9
:10A00000024605D020460121BDE81040FFF73EBFC3
:10A01000032384F825300023E3822383A38310BD28
:10A0200010B5FFF7BDFD2B2290F82410BDE81040BD
:10A03000FFF72CBF73B505460C4601A82E1D01F095
:10A0400042FF3146204601F0DBFF08B110232B62AE
:10A0500031460F2201A801F05DFF01A9204601F061
:10A06000CFFF08B1A388EB8231460C2201A801F092
:10A0700051FF01A9204601F0C3FF08B1A3882B833B
:10A0800031460D2201A801F045FF01A9204601F04B
:10A09000B7FF18B1A3886B83E388AB8305F108068B
:10A0A0003146204601F0ACFF08B100232B62314657
:10A0B000032201A801F02EFF01A9204601F0A0FF14
:10A0C00008B1A388AB8231460F2201A801F022FF1C
:10A0D00001A9204601F094FF08B1A388EB82314624
:10A0E0000C2201A801F016FF01A9204601F088FF0B
:10A0F00008B1A3882B8331460D2201A801F00AFF85
:10A1000001A9204601F07CFF18B1A3886B83E38886
:10A11000AB8302B070BD10B50A4603210446FFF7B9
:10A1200014FF88B1FFF7FCFC0122A18BFEF739FE7A
:10A130000128024605D020460121BDE81040FFF766
:10A14000A5BE042384F8253010BD000070B50D466F
:10A150000A8890F825100529044617D006293DD114
:10A16000FFF7E2FE002838D02B890A2B07D02022E7
:10A1700094F824102046BDE87040FFF787BEFFF733
:10A1800033FC696805F0F6FF0246F1E7FFF7CCFE05
:10A1900018B3144E3378BFF35B8FDB0709D4304616
:10A1A0002AF0DCFD28B1104806F06AF830462AF0A3
:10A1B000E1FD043595E806000B4806F0E5F8024697
:10A1C0000028D5D1FFF7ACFCE18AFEF7CFFD0128CE
:10A1D0000246CDD1062384F8253070BD2E2290F89A
:10A1E0002410C8E72C2F0020142F00200A8890F894
:10A1F000243012B11946FFF749BE012B01D1FFF7F8
:10A20000A5BF2E22F6E738B50A46054690F8244049
:10A2100021B12146BDE83840FFF738BE012C03D0FC
:10A22000022C0AD02E22F4E70421FFF78EFE50B153
:10A230002846BDE83840FFF752BE0121FFF794FEE3
:10A2400008B185F8254038BD2DE9F04F8C88012CE8
:10A250008BB005468A4617467ED90B6893F8008076
:10A2600090F82630434502D0B8F1FF0F76D1DFF8E1
:10A2700014B13E4E9BF80090BFF35B8F19F00109BB
:10A2800011D158462AF06AFD68B15846C6F80090C8
:10A29000A6F8049086F806902AF06CFD344A3549F9
:10A2A00030462AF0FEFDD6F80090B9F1000F57D0E5
:10A2B000013C288DB288A4B203199A4252DBDAF825
:10A2C00000102246013148442CF068FC95F82630F5
:10A2D000013385F826302B8D1C44A4B2B8F1FF0F52
:10A2E0002C8541D1ADF81C40234CCDF81890237833
:10A2F000BFF35B8FDB070ED420462AF02FFD50B151
:10A300001E4810F07BFC20462AF034FD184A1C49F8
:10A310001A482AF0C6FD0822184908A810F08DFC3A
:10A32000FFF762FB002302930DF117030193099BD2
:10A33000009306AA089B06CA05F086FE034638B9B4
:10A3400085F826002885BDF8242008983860BA8052
:10A3500018460BB0BDE8F08F2023F9E72123F7E77B
:10A360001023F5E71223F3E70123F1E7EC2E002099
:10A37000002A0020F7910200402F0020442F0020E7
:10A38000979A0200F42E002038B50D46044648681E
:10A39000FFF79FFB6868431D2360FFF79AFB6A681D
:10A3A000D378127943EA022340F22712934228BF5E
:10A3B0001346A380204638BD70B591F8243086B08E
:10A3C00004461BB100230360A38021E0FFF7C8FB14
:10A3D00008220146684610F030FCBDF80450134BCB
:10A3E0000293B5F5967F009E02D2012015F01EFA69
:10A3F000E02D039602A904A80DD9FFF7C5FFDDE9FA
:10A400000306C5F501750335FFF763FB2660A580DC
:10A41000204606B070BDFFF7B7FFDDE90305FFF783
:10A4200058FB256040F22713CEE700BF4C7E0500A5
:10A43000436813B9012015F0F9B9704708B5FFF763
:10A44000F7FF4FF4967008BD10B50446FFF7F0FF14
:10A450006368B3F80500073080B210BD38B50C460C
:10A4600005460846FFF7E4FF63682B602368204633
:10A470001B699847A880284638BD0000F0B50A88B7
:10A48000438B9A4291B0044649D1828C40F2022318
:10A490009A4244D1002301AA04310193ADF8083057
:10A4A000FFF7D2FE024638B1012838D094F82410C4
:10A4B0002046FFF7EBFC32E0019F0FB91022F5E7D1
:10A4C000BDF808201A4E0396B2F5967F02D20120FD
:10A4D00015F0ACF9002503A80497CDE905560797B8
:10A4E000FFF7A6FF049BB3F80330012B05AA18D190
:10A4F0004FF40073ADF820300C23ADF8283008A8D5
:10A5000070230992ADF82A508DF82C50ADF83030F8
:10A510000D95ADF83850ADF83C5006F00BF811B081
:10A52000F0BD0C2394F824102046FFF74FFCF6E70B
:10A53000287E050013B50B88B3F5FC7F0C4670D060
:10A5400017D8B3F5FA7F5AD009D840F2D7118B4209
:10A5500074D040F2F31293424AD002B010BDB3F56A
:10A56000FB7F57D050D9496802B0BDE81040FFF7D3
:10A570003DBE40F2FB118B4226D0B3F5FE7F0ED2DA
:10A5800040F2F912934253D0B3F5FD7FE5D16368F1
:10A5900019781A89A1B1FFF73BFB2082DDE740F271
:10A5A000FD118B421AD0B3F5FE7F10D940F2032281
:10A5B0009342D2D1616802B0BDE81040FFF7E8BC19
:10A5C000591CFFF761FBE8E7FFF77CFCE5E76168F2
:10A5D0000B894A680988FFF773FBDEE70146684686
:10A5E000FFF7EAFE0098BDF8043060612383B4E70A
:10A5F0006368198802B0BDE81040FFF7F3BC02B0F1
:10A60000BDE81040FFF70CBD496802B0BDE810403E
:10A61000FFF710BD4B68198802B0BDE81040FFF786
:10A620007ABD4B68198802B0BDE81040FFF7EBBD5A
:10A63000616802B0BDE81040FFF720BFC38D002B5A
:10A640008BD0013B9BB2C385002B86D102B0BDE805
:10A650001040FFF798BC49BA4182704749BA8182DD
:10A66000704701F110030230994204D013F8012D14
:10A6700000F8012BF8E7704784B038B505AD85E8E0
:10A680000E0041F20253038004462946FFF7E9FF1A
:10A690002046BDF82410FFF7DEFFBDF82810FFF7B5
:10A6A000DDFF9DF92C30A375BDE8384004B070473C
:10A6B0002C30704713B5D0E90C3293420446019117
:10A6C00006D01960036B04330363204602B010BD4B
:10A6D00001AA19462C3000F0E0F8F6E738B500255D
:10A6E0000A4B05710446036085600C3001F0EBFBFA
:10A6F00004F11803C4E904354FF6FF73257623856A
:10A70000C4E90B556563204638BD00BF947F050042
:10A7100073B50379044613BB81600C3001F008FC6B
:10A7200022464FF6FF73019022F8283F01A901202D
:10A7300000F0F2F818B10B4A3B211BF07CFF2368B4
:10A7400020465B6A9847D0E90056AE4205D02146C4
:10A7500055F8040BFEF79AFDF7E70123237102B0C9
:10A7600070BD00BF157F050070B503685B6A0D46BC
:10A770009847D0E90046A6420DD054F8040B037F59
:10A7800065F345130377036815B1DB6A9847F2E771
:10A790001B6B9847EFE770BD03460868D860184602
:10A7A00070470A88112A09D0502A0DD0102A10D1DA
:10A7B000036801F108025B6989881847036801F1A1
:10A7C00008029B6989881847036831F8062FDB69FE
:10A7D0001847704770470000F7B503685B6A0D467D
:10A7E000074616469847D0E9003199423DD053F8C4
:10A7F000044B2888628A90420DD16A89022A0AD1C4
:10A8000005F10C001AF0A4FB237F60F3C303237748
:10A81000012003B0F0BDE2899642E6D1AB795A1E21
:10A82000022A06D8236869891B6A204698470120B6
:10A83000EFE7062B1BD10023CDE90033BB686A4646
:10A840003146D88B00F06AF838B143F202039842DF
:10A8500003D0084AC8211BF0EEFE2368BDF80010A3
:10A860001B6A204698470120D3E70020D1E701204A
:10A87000CFE700BF157F050070B503685B6A0D4622
:10A880009847D0E90046B44206D054F8040B036858
:10A8900029469B6A9847F6E770BD2DE9F84FD0E945
:10A8A000007AAAEB0704A41014BF23460123E4187E
:10A8B000804689469346A1EB070526D2B4F1804F26
:10A8C00023D224BB2646DBF800307351B94504D0AF
:10A8D0002A46394630462CF06FF90435D1453544C7
:10A8E000AAEB090B04D05A46494628462CF056F9E3
:10A8F0005D4417B138462AF040FA06EB8404C8E9F3
:10A900000065C8F80840BDE8F88F6FF04044A0002B
:10A910002AF014FA0646D6E7A8DF7047ADDF704785
:10A920004CDF70477047704710B5742104462AF019
:10A93000BDFA204610BD000010B5094C2378BFF3C6
:10A940005B8FDB0709D420462AF008FA28B10548B6
:10A9500005F00CFE20462AF00DFA024810BD00BF9B
:10A96000B42F0020B82F002010B50B4C2378BFF374
:10A970005B8FDB070ED420462AF0F0F950B1074870
:10A9800014F030F920462AF0F5F9054A0549034844
:10A990002AF087FA014810BD4C2F0020502F0020CC
:10A9A000002A002027A9020070B5104B0360002583
:10A9B00000F128031226044645623246294618460D
:10A9C0002CF014F94FF4FA71FF22C4E914126587D0
:10A9D000E587C4E91055E564A565256684F86450EB
:10A9E000324629462CF002F9204670BD4C80050005
:10A9F000283070471220704770B5274D2B78BFF371
:10AA00005B8FDA0794B0044609D428462AF0A6F9E9
:10AA100028B1224805F034FC28462AF0ABF910AEE4
:10AA20001023324665211D4805F04BFC002831D02B
:10AA30001B4D2B78BFF35B8FDB0709D428462AF028
:10AA40008DF928B1174805F06BF828462AF092F9DD
:10AA50001022ADF82420ADF83420ADF83C202A3483
:10AA60000DF11E0205920E940EA903C903AA00233C
:10AA70000896ADF82C300C9482E803000CA903C9A9
:10AA800001AA82E803000B9A009208AA06CA0548A8
:10AA900005F048F814B070BD2C2F0020142F0020B2
:10AAA000782F00207C2F0020062380F8283090F893
:10AAB0003B3080F82B3090F83C3080F82C3090F808
:10AAC0003E3080F82D3090F83F3080F82E307D22D7
:10AAD000036C93FBF2F3A0F82F30836CC0F8313095
:10AAE0000021836D80F82A1080F83530042236303A
:10AAF0002CF07CB8072380F82830002380F82A3017
:10AB000090F83A3080F82B3090F83B3080F82C30B9
:10AB100090F83C3080F82D30C38FC3857D22036CC4
:10AB200093FBF2F30386436CC0F83230836D49B96E
:10AB300099B290F83D3080F83830FA23C18680F819
:10AB40003930704789B2F4E7072380F828300123B1
:10AB500080F82A3090F83A3080F82B30836CC3624A
:10AB6000C36C036390F83C3080F8343090F83E308A
:10AB700080F83530836D39B999B2036CC1867D2276
:10AB800093FBF2F30387704789B2F6E710B50446EA
:10AB90005C300AF0A4FB30B10146102204F12A0017
:10ABA0002BF0FCFF012010BD30B585B004460D46EA
:10ABB000FBF736FD04230DEB030299210FF0ECFBAC
:10ABC000072384F82830042384F82A3094F83A3094
:10ABD00084F82B3094F83B3084F82C3094F83C30D7
:10ABE00084F82D30BDF80630E3850023ADF8083039
:10ABF000FBF716FD062302AA9F210FF0CDFBBDF83F
:10AC000008302386DDF80A30C4F83230A36D35B938
:10AC10009DB24FF47A43E586238705B030BDADB2CF
:10AC2000F7E72DE9F04F426D85B004460D46052348
:10AC3000002A64D1062284F82A3094F83A3084F845
:10AC4000282084F82B30FFF78FFE14F01CF890F8C2
:10AC500000B0FFF789FE14F018F80026437884F856
:10AC60002C6003F0010AC3F34009C3F38008C3F367
:10AC7000C007FFF779FE13F0FFFF94F82C3060F364
:10AC8000000384F82C30FFF76FFE13F0F7FF94F801
:10AC90002C300BF0010B60F341036BF382036AF37A
:10ACA000C30369F3041368F3451367F3861384F849
:10ACB0002C30FFF759FE13F0E8FF02460068516898
:10ACC00001AB03C31189927A9A7019809DF8043000
:10ACD000012B04F12D004FF0090212D10DF10601F4
:10ACE0002BF05CFFA36D85B99DB2002384F838304A
:10ACF000FA23E58684F8393005B0BDE8F08F0722E5
:10AD000099E731462BF072FFECE7ADB2EDE710B5F5
:10AD1000034690F8640088B1062283F82A2003F1E4
:10AD20002B0103F16502713352F8044B41F8044BD7
:10AD30009A42F9D113880B8093788B7010BD73B54C
:10AD40000E460546FBF76CFC01230DF107029D2121
:10AD50000FF022FB9DF807304BB128463146FFF734
:10AD600060FF686D003018BF012002B070BD6C6DCF
:10AD70002CB928463146FFF797FE2046F5E7AB6D24
:10AD8000DA0709D5A86D00F00F04012C1BD131465C
:10AD90002846FFF709FF05E0AA6C2AB1314628468C
:10ADA000FFF7D2FE0120E0E79B0705D02846FFF71A
:10ADB000EDFE0028E6D0F5E731462846FFF7A7FF6D
:10ADC0000028F3D0EEE731462846FFF793FEE9E787
:10ADD0002DE9F04704468AB004F124080F4604F038
:10ADE000F7FD414604F046FEA36D0133A36512F062
:10ADF000EBF90546FBF714FC8B21042304F1480210
:10AE00000FF0CAFA2A1C94F83C3018BF012262F3F2
:10AE10000413A26C002A14BF0121002161F38203F4
:10AE200084F83C3062D1E264DFF8DC9029462046A9
:10AE3000FFF785FF99F80050BFF35B8F15F0010510
:10AE4000824618D1484629F089FFA0B12A4E2B4BE3
:10AE5000336048463571C6E902553582B574C6E996
:10AE60000555B58386F8285029F084FF244A2549E2
:10AE700030462AF016F803250095122304F1280223
:10AE800042F212711C4814F0DEF9BAF1000F09D039
:10AE9000FBF7C6FB2A4619210FF08FFA10B12046A6
:10AEA000FFF7AAFDBFB94FF48273ADF808307023E5
:10AEB0000397ADF81070ADF812708DF81470ADF8FE
:10AEC00018300797ADF82070ADF82470FFF734FD07
:10AED00002A905F04FFB04F07BFD23464FF48042AE
:10AEE000414604F0B3FD0AB0BDE8F087E36C002BE7
:10AEF0009AD0E56498E700BF202B00205C9E0500F7
:10AF0000002A0020096602001C2B00207FB50D4698
:10AF10000446FBF785FB01230DF1060286210FF0A5
:10AF20003BFA9DF80630102B04D000F2AF80022BC4
:10AF300000F2AF806365002604F15C000AF036F988
:10AF400084F83C60FBF76CFB032236210FF035FAE6
:10AF500094F83C3060F3410384F83C30FBF760FB2D
:10AF6000032237210FF029FA94F83C3060F3C30331
:10AF700084F83C30FBF754FB032238210FF01DFA14
:10AF800094F83C3060F3451384F83C30FBF748FB01
:10AF9000032243210FF011FA94F83C3084F83D600D
:10AFA00060F3861384F83C30FBF73AFB96210423C8
:10AFB00002AA0FF0F1F99DF8083094F83D20C3F390
:10AFC000000363F3000284F83D20FBF729FB0DF139
:10AFD00007029D2101230FF0DFF99DF80730B342EE
:10AFE00018BF072584F82950FBF71AFB012301AA93
:10AFF00081210FF0D1F99DF8043084F83B3003A88B
:10B00000FFF78EFC18B1244A18211BF014FB039B98
:10B01000002BB8BF03339B1084F83E30636D102BB8
:10B0200012D1FBF7FDFA012303AA22210FF0B4F994
:10B030009DF80C3084F83A3084F87030FA2384F8A4
:10B040007330002384F86530231D18462022002128
:10B050002BF0CCFD254645F8240F04F0B9FC0F4A2F
:10B06000294604F0E3FC01212046FFF7B1FE04F07D
:10B07000AFFC23464FF48042294604F0E7FCFFF77B
:10B080005BFC214605F0A2FA04B070BDFF2B3FF433
:10B0900051AFFF234EE700BFC07F0500A1B0020003
:10B0A0000021FFF795BEF0B591B004460E4612F0B0
:10B0B0008BF801238DF80D3000230546ADF80E30D6
:10B0C0008DF810300593002E6DD040F20513ADF8C9
:10B0D0000E3094F83E308DF80430636CCDF80530B6
:10B0E000A36D002D63D19BB2ADF8093009238DF813
:10B0F0000C300723ADF818304FF4C673ADF820308C
:10B1000014237022ADF8283001AF002303AEADF850
:10B110002A308DF82C30ADF830200D93ADF8383052
:10B12000ADF83C3007970996FFF706FC08A905F033
:10B1300021FA94F83B308DF8043094F83C308DF8C7
:10B14000053094F83F308DF806307D22236C93FB58
:10B15000F2F3ADF80730A36D5DBB9DB208238DF807
:10B160000C300723ADF818304FF4C673ADF820301B
:10B1700014237022ADF828300023ADF82A308DF862
:10B180002C30ADF830200D93ADF83830ADF83C30B0
:10B19000ADF8095007970996FFF7CEFB08A905F00F
:10B1A000E9F911B0F0BD03238DF80E3091E7ABB291
:10B1B0009AE7ADB2D2E7000070B50B88872B044642
:10B1C00000F0AB8028D8382B00F0D18008D8362B7F
:10B1D00000F0B98000F2C180222B00F0898070BDA0
:10B1E000812B00F08A800BD8432BF8D14B6890F864
:10B1F0003C201B78003318BF012363F386121EE046
:10B20000822B00F08180832BE9D14B681B6803649B
:10B210007F2380F83F30E2E7B3F5D97F00F0B180BB
:10B2200020D8962B7FD00DD88B2BD8D14B6890F897
:10B230003C201B68003318BF012363F3820284F8AB
:10B240003C20CCE79D2B00F0D680B3F5947FC6D18F
:10B250004B6890F83C201B78003318BF012363F340
:10B260000002ECE7B3F5EB7F66D008D8B3F5E17FD9
:10B27000B5D149685C30BDE8704009F0BEBF40F20E
:10B28000D712934200F0878040F2EB129342A6D18E
:10B290004D682B78002BA2D12B89002B9FD06B8877
:10B2A000A0F8663000F168060822002130462BF035
:10B2B0009DFC2A896968082A28BF082230462BF09D
:10B2C0006DFC11F081FFA36D002840F09D8098B2C5
:10B2D00094F83C3094F86520A4F87100C3F300138F
:10B2E00063F30002012384F8652084F8643076E774
:10B2F0004B681B7880F83A3071E74B681B7880F810
:10B300003B30032303656AE74968404AD1E90001FD
:10B3100000232BF0BFF9606461E74B6893F90030BC
:10B3200080F83E305BE74B681A7890F83D3062F366
:10B33000000380F83D3052E790F83C3043F01003B2
:10B3400080F83C304BE74B6890F83C201B7800338A
:10B3500018BF012363F3410271E74B6890F83C206A
:10B360001B78003318BF012363F3C30267E74B6800
:10B3700090F83C201B78003318BF012363F345127B
:10B380005DE74B6890F83C201B78003318BF012321
:10B3900063F3C71253E74B685C30196809F0C7FFC5
:10B3A000236D5A1E2265002B7FF419AF18480378CD
:10B3B000BFF35B8FDB0708D429F0D0FC28B1154818
:10B3C00003F0C6FC124829F0D5FC124803F012FD28
:10B3D00044F620635843FF23B0FBF3F000F54340ED
:10B3E000503064230021B0FBF3F020652046BDE817
:10B3F0007040FFF758BE4B681B78002B3FF4EFAE50
:10B40000072380F82930EAE680B261E70090D00394
:10B41000AC2F0020B02F002010B52821044629F0C1
:10B4200045FD204610BD000038B500230446C0E9A4
:10B430000033C0E90233142029F080FC054660681F
:10B4400008B129F09AFC4FF6FF73E38304F1480337
:10B45000C4E90155A36614351F23E560A4F86C30D8
:10B46000002504F1240384F82050202229461846A0
:10B470002BF0BCFB044A60644FF4C803C4E9052305
:10B480002577204638BD00BF0600100010B5002308
:10B4900004460370406808B129F06FFC204610BDD7
:10B4A00013B503780446A3B90DF1070000F083FC3F
:10B4B00018B1094A38211BF0BEF89DF8073033B1A6
:10B4C00000F077FC18B1044A3D211BF0B4F80123C9
:10B4D000237002B010BD00BF5880050008B51BF0F6
:10B4E0006BF81BF07FF928B108281BD00E4A5D21AC
:10B4F0001BF0A1F81BF0F4F910B91BF05DF8F9E7A7
:10B50000012000F044FC18B1074A6D211BF093F8AC
:10B510000E2000F03EFC28B1034A7021BDE808402F
:10B520001BF089B808BD00BF5880050013B54378EB
:10B5300004460BB9037823B90F4A862108201BF073
:10B540007AF80E4B01A91B68019301201BF022FA27
:10B5500018B1094A9B211BF06EF801A81BF082FA72
:10B5600018B1054AB1211BF066F80123637020462B
:10B5700000F076F802B010BD58800500642A002063
:10B5800038B54378054623B9174AC82108201BF06F
:10B5900052F8164C2378BFF35B8FDB070ED420469E
:10B5A00029F0DCFB50B112480FF028FB204629F0AF
:10B5B000E1FB104A10490E4829F073FC0F4B0C4870
:10B5C0001C8821460FF027FBFEF7CAFA21460FF030
:10B5D00022FBD5E90145AC4205D054F8040B0368C1
:10B5E0009B689847F7E738BD58800500402F00203A
:10B5F000442F0020002A0020979A020078AE050010
:10B6000070B5437804460BB1837823B1094AD7213A
:10B6100008201BF010F8D4E90156B54206D055F8C1
:10B62000040B03682146DB689847F6E70123A37003
:10B6300070BD00BF5880050013B5D0E902329342B7
:10B640000446019106D01960836804338360204664
:10B6500002B010BD01AA1946043000F059FBF6E70C
:10B6600010B5437804462BB9094A40F20B11082063
:10B670001AF0E1FF04F1140000F08FFB30B1044A2E
:10B680004FF48D71BDE810401AF0D5BF10BD00BF5A
:10B6900058800500012906D019B1022905D00020E3
:10B6A0007047007870474078704780787047000096
:10B6B00010B543788CB00446002B46D0027F002A98
:10B6C00043D1BDF80030ADF8062003F0E00343F4A9
:10B6D0008273ADF8003002928DF80C20FAF7A0FFCB
:10B6E00002230DEB030227210EF056FEFAF798FF16
:10B6F000022301AA28210EF04FFE04F168016846DA
:10B7000000F04FFB08281ED013281ED0F8B90123E3
:10B71000237740F20513ADF8103070220023059313
:10B72000ADF81830ADF81A308DF81C30ADF8202087
:10B730000993ADF82830ADF82C30FFF7FDF804A9D7
:10B7400004F018FF01E0012323770CB010BD034A79
:10B750004FF4BB711AF06FFFD9E700BF58800500A6
:10B7600010B5437888B0044643B1037F33B100F08D
:10B770001AFB50B1082803D10023237708B010BD6D
:10B780000F4A4FF4CA711AF056FF00234FF4837228
:10B79000ADF80020237770220193ADF80830ADF8A2
:10B7A0000A308DF80C30ADF810200593ADF8183044
:10B7B000ADF81C30FFF7C0F8694604F0DBFEDDE7AA
:10B7C00058800500007F704770B5D0E901460D46EE
:10B7D000A64205D0294654F8040BFEF7C5FFF7E74B
:10B7E00070BD000038B50B88112B0C4630D01ED828
:10B7F000012B26D0102B28D0224D2B78BFF35B8F46
:10B80000DB070ED4284629F0A9FA50B11E48FDF7EF
:10B8100053F8284629F0AEFA1C4A1D491A4829F067
:10B8200040FB21461848BDE83840FDF783BC522B49
:10B8300011D0572B23D0502BDED1063100F052F916
:10B84000DAE7898800F026F9D6E700F079F9D3E73E
:10B8500000F0AAF9D0E7002203231146C08B00F0C4
:10B86000A4FA0828C8D043F202029042C4D00028AB
:10B87000C2D0084A4FF4FA711AF0DDFEBCE700F0BE
:10B8800039FAB9E7F82E0020FC2B0020002A00200E
:10B89000D19102005880050010B504468CB0C11C3F
:10B8A00006220DF101002BF079F9A378CDF814D020
:10B8B00003F00102C3F346038DF80830E37C8DF8F2
:10B8C0000030237D8DF80930A38B8DF80A30A369F1
:10B8D000CDF80B3040F20113ADF810300F238DF886
:10B8E0000720ADF8183070220023ADF81A308DF81B
:10B8F0001C30ADF820200993ADF82830ADF82C307D
:10B90000FFF71AF804A904F035FE0CB010BD00F1E1
:10B9100025028261FFF7C0BF70B50B881D2B92B066
:10B9200006460C4633D10D7AC5F341157DBB08316F
:10B930007AB3242201A82BF031F994F82420216A4B
:10B940008DF828200DF129002BF028F907951AF021
:10B9500075FD0A280AD9114A442101A81AF028FEC7
:10B9600020B10F4A40F242211AF065FE06F168014B
:10B97000002000F016FA132804D80123094A834056
:10B98000134204D1064A4FF41C711AF054FE12B04F
:10B9900070BD0846FFF780FFE8E700BF0FB902005F
:10B9A000588005000101080010B50D4C2378BFF345
:10B9B0005B8FDB070ED4204629F0D0F950B109483F
:10B9C000FFF732FD204629F0D5F9074A0749054817
:10B9D00029F067FA0348BDE8104000F057B900BFEE
:10B9E000F82B0020882B0020002A00208DB40200B4
:10B9F0002DE9F0410446443403F0EAFF21460E4AA3
:10BA000004F014F803F0E4FF0C4B1F6805464FF4F4
:10BA100000464FF4FA7000214FF47A720023E6FBDF
:10BA200007012AF087FE2146024600232846BDE88A
:10BA3000F04104F00BB800BFA9B902006CAE0500DC
:10BA400010B5044603F0C4FF04F14401BDE8104002
:10BA500004F010B82DE9F041054603F0B9FF0C4B96
:10BA60001F6804464FF400464FF4FA7000214FF46B
:10BA70007A720023E6FB07012AF05CFE05F144011F
:10BA8000024600232046BDE8F04104F001B800BFA3
:10BA90006CAE05001FB50C46FEF762F802220146A7
:10BAA00002A80FF0CAF8029B00936946BDF80C305B
:10BAB000ADF80430204600F07AF908280DD006D8F9
:10BAC00058B1074A40F2B2211AF0B5FD05E011283D
:10BAD00003D043F202039842F3D104B010BD00BF7B
