:020000022000DC
:1060000000EF002039760400617604004195040019
:1060100065760400677604006976040000000000DD
:106020000000000000000000000000006B7604008B
:106030006D760400000000006F76040071760400A5
:10604000737604007376040021570400737604000D
:10605000737604007376040021A3040099B402004F
:106060007376040039AB0200737604007376040083
:10607000737604007376040073760400737604006C
:10608000737604000D78050069B10400A19904003D
:10609000F978050073760400B59704007376040060
:1060A000737604007376040069FC0400DD5104007B
:1060B0007376040073760400000000000000000006
:1060C000737604007376040073760400737604001C
:1060D00073760400737604007376040000000000F9
:1060E00000000000000000000000000000000000B0
:1060F00000000000000000000000000000000000A0
:10610000000000000000000000000000000000008F
:10611000000000000000000000000000000000007F
:10612000000000000000000000000000000000006F
:10613000000000000000000000000000000000005F
:10614000000000000000000000000000000000004F
:10615000000000000000000000000000000000003F
:10616000000000000000000000000000000000002F
:10617000000000000000000000000000000000001F
:10618000000000000000000000000000000000000F
:1061900000000000000000000000000000000000FF
:1061A00000000000000000000000000000000000EF
:1061B00000000000000000000000000000000000DF
:1061C00000000000000000000000000000000000CF
:1061D00000000000000000000000000000000000BF
:1061E00000000000000000000000000000000000AF
:1061F000000000000000000000000000000000009F
:1062000010B5054C237833B9044B13B10448AFF3F0
:1062100000800123237010BD782B002000000000B7
:106220005CE2050008B5034B1BB103490348AFF31B
:10623000008008BD000000007C2B00205CE205000F
:10624000154B002B08BF134B9D46A3F5803A002148
:106250008B460F461348144A121A34F09DF80F4B20
:10626000002B00D098470E4B002B00D09847002001
:10627000002104000D000D48002802D00C4833F026
:10628000EAFF34F01FF82000290021F003F934F070
:1062900005F800BF0000080000EF0020000000002B
:1062A00000000000782B0020888A002057A20500FB
:1062B0000000000072DF704773DF704774DF7047C3
:1062C00077DF70477CDF704710B5034B03600446EF
:1062D00019F0D6FC204610BDD0D3050008B50368E0
:1062E000002B02DA094832F031FD8B4208D949000F
:1062F0008B4205D20029B6BF6FF0004301600360F6
:106300000068BDE80840013032F0EAB8E3AE0500AD
:1063100034F08CB910B50B4C2378BFF35B8FDB07DF
:106320000ED4204632F0ECF850B107481AF098F934
:10633000204632F0F1F8054A0549034832F083F966
:10634000014810BD382C00203C2C0020602A002081
:10635000E905040070B5114E3478BFF35B8F14F07B
:10636000010418D1304632F0CBF8A0B10C4D0D4BE2
:106370002B6030462C71C5E902442C82AC74C5E90F
:106380000544AC8385F8284032F0C6F8064A074930
:10639000284632F058F9024870BD00BF942B002007
:1063A000982B0020D0D30500602A0020C96202008B
:1063B000038A03F47C4343F001034FF480720382A9
:1063C00082840023C2894361826183837047037A98
:1063D0003BB1017BFF2904D090F90D200120FFF78C
:1063E0006FBF704790F90D308B421ED011F10C0F2A
:1063F00009D010DC11F1140F05D011F1100F02D0EB
:1064000011F1280F11D1037A417373B1037BFF2B74
:106410000BD0FFF7DCBF0B1DF5D002DC11F1080F2C
:10642000F0E70029EFD00429ECE7704713B50446E4
:10643000FFF770FF01230DF107022A211AF084FCF7
:106440009DF907102046FFF7CDFF02B010BD13B530
:106450000446FFF75FFF01230DF107020B211AF03D
:1064600073FC9DF907102046FFF7BCFF02B010BD7A
:1064700070B5002914BF0224002400F1DC0526B207
:1064800055F8263033B91F21012033F0EBFE45F8D3
:10649000260020B1013455F824300BB1012070BD25
:1064A0001F21012033F0DEFE45F824000028F5D13D
:1064B000F5E72DE9F041044641641546002A44D130
:1064C00000F160063C220021304633F065FF002DCC
:1064D0003ED14FF4C06373804FF0030804F13807D6
:1064E0000C220021384633F057FF4CF2010323877A
:1064F000606C02F015FC2064606C02F013FC012259
:10650000A087B76286F82C2094F83C3032700633AE
:1065100058FA83F3DBB21F2B98BFC3F11F0394F823
:106520004C2094BFDBB20023934228BF134603B92B
:106530003370737029462046FFF79AFF18B1012384
:106540004DB184F8D930BDE8F08100F19C06B9E77F
:106550004FF00008C2E784F8D830F4E7002914BFF0
:10656000022200228118134691F8FC1021B1531C1D
:10657000C21892F8FC2022B900EB8300D0F8DC00AE
:1065800070470020704730B591B1002B14BF022333
:10659000002300EB8304D4F8DC50A94205D0D4F8E2
:1065A000E040A14203F1010302D1184480F8FC202D
:1065B00030BD38B500238372037A0446A3B1437A11
:1065C00093B1007BFFF77AFE054668B903460246A1
:1065D000D4F8EC102046FFF7D6FF0123D4F8F410CE
:1065E0002046FFF7D0FF657238BD38B501238372AE
:1065F000037A04463BB3437A2BBB057B00F11002C0
:1066000000F1EC010C30FFF755FEE0B9FF2D02D18F
:106610002046FFF7DCFE002384F828300121207B90
:10662000FFF74AFE034670B90122D4F8EC10204669
:10663000FFF7A9FF01231A46D4F8F4102046FFF70C
:10664000A2FF0123637238BD10B50446FFF7B1FF06
:106650002046BDE81040FFF7C8BF38B5437A04466E
:106660000BB9837A33B3237A23B3606803F022FA39
:1066700094F82A506DB9002394F82820D2B1B3B110
:106680000123237484F829302046BDE83840FFF701
:10669000DBBF606803F048FC0028ECD194F8293097
:1066A000002BE9D1012384F828302B46E4E70522AA
:1066B0002274E7E738BDA1F120039BB243F6E072F4
:1066C000934210B508D8C181FFF772FE037A1BB15F
:1066D000BDE81040FFF7C1BF10BDF8B5037A04460E
:1066E000002B5BD090F8D830D0F8EC70D0F8F46084
:1066F000002B42D194F8D9308BB11F230121A4F88B
:10670000F8302046FFF72AFF04F1F8020146C4F8EA
:10671000F40004F19C0021F025FB00283ED1237BEE
:10672000FF2B21D0002204F1EC0104F10C00FFF753
:10673000C1FD054690BB0246034639462046FFF799
:1067400022FF012331462046FFF71DFF2B46012281
:10675000D4F8EC102046FFF716FF01231A46D4F8B0
:10676000F4102046FFF70FFF637ABBB9A37AABB1F1
:106770002046BDE8F840FFF738BF1F230021A0F8EE
:10678000F030FFF7EBFE04F1F0020146C4F8EC0034
:1067900004F1600021F0E6FA0028ABD0F8BD10B596
:1067A0000446FFF786FE2046BDE81040FFF795BF80
:1067B00070B58A78037B9A4204460E4613D10025B1
:1067C00005230374457280F829502B462A464968F0
:1067D000FFF7D9FE0123F1682046FFF7D4FEA37A24
:1067E0000BB10123E37270BD427A32B1052202740B
:1067F000002280F82920FFF727BF7047C27A2AB10C
:10680000837A0022C2720BB1FFF7EFBE70470346D6
:1068100053F8080B984201D031F081BE7047000058
:1068200010B5054B044640F8483BFFF7F0FF204603
:1068300019F026FA204610BD2CAF050010B504460D
:10684000FFF7EEFF20464FF4807131F001FF204644
:1068500010BD012A30B403D10B78037030BC7047EF
:10686000002AFBD030BC33F06FBD000073B5054685
:106870000E4619B912B10D4832F065FA941B0F2C6F
:10688000019406D9002101A8FFF728FD019B28608B
:10689000AB60224631462868FFF7DBFF019B2A6880
:1068A0006B600021D15402B070BD00BFB9AE0500CD
:1068B000F8B5254B0360254BC360254E0123002509
:1068C00080F82A3000F150030446C0E901550585DF
:1068D0004564836400F148073046FFF719FD4FF027
:1068E0000003321831463846FFF7C0FFA4F8D850ED
:1068F0002946102204F1DC0033F04EFDC4F8FC50B0
:10690000144D2B78BFF35B8FDB070ED4284631F094
:10691000F7FD50B1104802F05FFF284631F0FCFD52
:106920000E4A0F490C4831F08EFE0B4B636000237A
:106930002046C4F8EC30A4F8F030C4F8F430A4F8E1
:10694000F830FFF735FDF8BD2CAF0500FF00A000C3
:10695000B4AE0500C42B0020C82B0020602A002004
:10696000899702002DE9F04100F148078F4288B075
:1069700004460E461FD0826C4D6800F150039A42C7
:1069800014BF016D0F218D420BD902A80295FFF7AC
:10699000A5FC80463846FFF73AFF029BC4F84880C2
:1069A000236525B12A463168A06CFFF752FFA36C1E
:1069B000E56400225A55237AD3B1E56C04AB029307
:1069C000CDB91A4C2046FFF7A3FC4FF00003221864
:1069D000214602A8FFF74AFF1123BDF80C200299B7
:1069E0008DF8043001A8FFF76DFC02A8FFF70FFF38
:1069F00008B0BDE8F081A46C14B90D4832F0A3F9D9
:106A00000F2D019506D9002101A8FFF767FC019B16
:106A1000029004932A4621460298FFF71AFF019B31
:106A2000029A03930021D154D6E700BFB4AE05000B
:106A3000B9AE050010B5037A04468BB901221146A0
:106A4000406802F09FFF58B101232046237204F1F1
:106A50004801FFF787FF2046BDE8104019F006B94E
:106A600010BD30B50B88B3F5847F89B005460C4660
:106A70002AD013D83C2B38D005D80B2B47D00C2B61
:106A80004BD009B030BDB3F5827F60D040F2071221
:106A90009342F6D14968FFF78BFEF2E7B3F5F87F32
:106AA00016D00AD840F2091293423BD040F2D712D6
:106AB0009342E6D1FFF7A2FEE3E7B3F5F97F0FD0EB
:106AC00040F2F3129342DCD12846FFF7C6FDD8E727
:106AD000FFF78AFE238A702BD3D100232382D0E7CD
:106AE0004B681B88002BCCD0EFE74968228904ABA8
:106AF0000A44029302A84FF00003FFF7B7FE2846AE
:106B000002A9FFF72FFF02A8FFF781FEB9E74B6844
:106B100093F90010FFF766FCB3E74B681988FFF79D
:106B2000CAFDAEE74B681B788DF8083063B1FFF7FC
:106B30005CFDFFF70FFC0323009302AA01234CF234
:106B400050311CF012FE9CE7FFF733FDF1E7FFF731
:106B5000C4FD96E710B50446FFF7B6FB20462C218E
:106B600031F076FD204610BD76DF70478CDF704730
:106B7000A1DF7047A3DF7047A5DF704710B5034B57
:106B80000360044619F07CF8204610BDBCAF050038
:106B900010B50446FFF7F2FF20464FF43D7131F087
:106BA00057FD204610BD10B504460DF084FC20466C
:106BB00010BD002201807021C0E901220273018210
:106BC0004261028382837047094A026009498161F8
:106BD000012282720849C0F8E81200220261828212
:106BE000828380F8E52280F8E62280F8EC22704764
:106BF000BCAF05000000FFFFFFFF170038B50446DB
:106C00001C4820F0C3FE18B11B4A3F2122F0BFFCF4
:106C10001A4D2B78BFF35B8FDB070ED4284631F07B
:106C20006FFC50B116480DF041FC284631F074FC61
:106C3000144A1549124831F006FD04F1140204F11A
:106C4000100100230E480DF05FFCFFF763FB04F218
:106C5000EE22022327211AF077F8FFF75BFB0223CD
:106C600004F53C7228211AF06FF82046BDE8384040
:106C700018F0FCBF7972020038AF0500742C0020B8
:106C8000782C0020602A0020A76B020073B590F8D2
:106C9000EC3205462BBB408B4FF6FF73984222D057
:106CA0000C4601EB8206B44210D0204603F0B4FA41
:106CB000019001A820F082FE30B104284FF6FF7049
:106CC00008BF262002B070BD0434ECE7698B05F1E3
:106CD0001E0020F095FE40B9042385F8EC32012017
:106CE000F0E72720EEE72820ECE74FF6FF70E9E712
:106CF00091F8EC321BB100230360838070478B8ACC
:106D00000A690260B3F5807F28BF4FF48073F4E70F
:106D100030B5038B934285B004460D4621D9B0F8B7
:106D2000EA12ADF808209B1A05398B42A8BF0B4622
:106D3000ADF80A302369ADF8065004201A44ADF8C6
:106D40000400039201A9608BFFF714FF98B143F28E
:106D500002024FF6FF73904214BF1846212005B07F
:106D600030BD40F20513ADF804300023ADF8061035
:106D7000CDE90233E6E7062384F8EC32A58301204F
:106D8000EDE7F0B51E4690F8EC320F4685B00546AB
:106D90001146002B39D1428B4FF6FF739A4236D001
:106DA000002F36D0002936D0838AB34235D300690C
:106DB000884202D0324633F0D5FAB5F8EA32023BC7
:106DC000B34207DC2E83002239462846FFF7A0FF96
:106DD00005B0F0BD00230193ADF8083001242B6904
:106DE000688B8DF8044001A9ADF80670ADF80A6013
:106DF0000393FFF7BFFE28B9062385F8EC32AF8373
:106E00002046E5E74FF6FF70E2E72720E0E728207D
:106E1000DEE72120DCE71020DAE71220D8E770B5A2
:106E200090F8EC2205460E4672B9408B4FF6FF747F
:106E3000A0420BD061B1FFF79BFE58B9052385F83E
:106E4000EC32AE83012070BD2720FCE72820FAE752
:106E50002120F8E72046F6E707B50223ADF8062023
:106E60000DF10602FFF78DFF03B05DF804FB002370
:106E700080F8EC3283830B8813B1084618F060BEAB
:106E80007047F0B5044695B00D4604A8002117469A
:106E90001E46FFF78EFE94F8EC12A94250D0481E11
:106EA00005284DD8DFE800F003034C11173E2823D6
:106EB000ADF804304FF4F973ADF8303001AB0D93F9
:106EC0000223ADF8383000231AE02823ADF804304F
:106ED00040F2F513F0E72822ADF80420A28BADF8BC
:106EE00006204FF4FB72ADF8302001AA00230D926A
:106EF0000C22ADF80E300293ADF80C30ADF838200E
:106F000070220CA92046ADF83A308DF83C30ADF82F
:106F100040201193ADF84830ADF84C30FFF7A7FF93
:106F200015B0F0BD2823ADF80430A38BADF80630C2
:106F300040F2F713ADF8303001AB0D930423C0E7F6
:106F400002390597ADF81860042908D8DFE801F088
:106F5000030716191C004FF4F973ADF8103004A99B
:106F60002046FFF784FF032DDAD140F2F3110CA87D
:106F7000FFF71FFE0CA818F0E3FDD1E740F2F51370
:106F8000EBE74FF4FB73E8E740F2F713E5E77FB573
:106F9000ADF8062006290AD8DFE801F0040404044D
:106FA00004170C0002230DF10602FFF76AFF07B079
:106FB0005DF804FBBDF80630ADF80C30838BADF8FE
:106FC0000E3003AA04230621EFE7BDF80630ADF822
:106FD0000C30838BADF80E3000230493ADF81430E1
:106FE0000C230DEB03020521DFE7000070B588B02C
:106FF00004460E4615460DF10100062233F0A4F9B1
:107000009DF80030B27903F0FE0362F347038DF878
:107010000030BDF810301B4A03F0E00343F48273E4
:10702000ADF810300A23B5FBF3F3ADF816300023AA
:1070300006938DF81C30B4F8EE32ADF81230092DFD
:10704000B4F8F032ADF814309CBF0123ADF816301F
:107050004FF4C803CDE9022304A9012302AA68461C
:10706000FFF784FD48B120464FF6FF720221FFF77B
:107070008EFF4FF6FF7008B070BD022384F8EC322B
:107080000120F8E706001000F0B590F8EC3291B05E
:1070900005460F461646002B47D1264C2378BFF3F2
:1070A0005B8FDB070ED4204631F02AFA50B122481C
:1070B00002F092FB204631F02FFA204A20491E4868
:1070C00031F0C1FA1C4802F02FFF80BB6A8B4FF6EB
:1070D000FF739A422BD14FF4F8716846FFF769FDB0
:1070E000684618F02DFDBDF8104064B1012C13D096
:1070F00040F2F31108A8FFF75CFD08A818F020FD86
:10710000BDF8104005E0AA89291D2846FFF76EFF4B
:107110000446204611B0F0BD07223946281D33F041
:1071200013F9AE8185F8EC42F3E72724F1E7282430
:10713000EFE700BFC42B0020C82B0020602A0020EE
:107140008997020038B590F8EC12054611B12B2250
:10715000FFF71DFF688B4FF6FF74A0420ED013217E
:10716000FFF702FD082809D043F20203984205D038
:1071700030B9032385F8EC32012038BD0020FCE74C
:107180002046FAE72DE9F0430B78012B95B00E4627
:1071900069D05CB224B1032B6BD015B0BDE8F0838D
:1071A0000E252A462146684633F0F6F8716868468F
:1071B00003F016F8716801A803F012F84FF4FA779B
:1071C000702304A8ADF81070CDF814D0ADF81850A5
:1071D000ADF81A408DF81C40ADF820300994ADF898
:1071E0002840ADF82C4018F0ABFC4FF01208337A71
:1071F000E5B2AB42D1D908FB056571680CA802F075
:10720000EFFF0C9BD5F80E1000930CA802F0E8FFDE
:107210000C9B0193EB8AADF808302B8BADF80A304C
:10722000AB7C9DF80C20ADF8307022F07F0203F0AB
:107230007F0313438DF80C300E23ADF838307022E5
:1072400000230CA8CDF834D0ADF83A308DF83C309E
:10725000ADF840201193ADF84830ADF84C30013412
:1072600018F06EFCC3E74FF6FF720421FFF78FFEA4
:1072700093E70022F9E7000038B50E4C2378BFF3FE
:107280005B8FDB0705460ED4204631F039F950B14B
:107290000948FFF799FC204631F03EF9074A0849B2
:1072A000054831F0D0F929460348BDE83840FFF7DA
:1072B00069BF00BF802C0020842C0020602A0020A1
:1072C0007D6B020010B590F8EC120129044609D13B
:1072D0000022FFF75CFEA289211D2046BDE8104078
:1072E000FFF784BE10BD10B50B886FF4F572134420
:1072F0000C46062B0AD8DFE803F0040A0D13180920
:107300001F0049680A89FFF7BFFE208210BDFFF702
:1073100019FFFAE74B681A791968FFF7B7FCF4E729
:107320004B681988FFF77BFDEFE749680B894A68CE
:107330000988FFF726FDE8E7BDE81040FFF7C2BF68
:1073400038B5D579022D044608460BD16183452115
:10735000FFF712FC30B1294620460022BDE8384034
:10736000FFF715BE38BD0978022905D14FF6FF7227
:1073700042832A22FFF70BBE7047418B4FF6FF7204
:10738000914205D00023428303211A46FFF779BDBD
:10739000704719B180220221FFF7F9BD1288A0F8C9
:1073A000EA220A46F7E7F0B585B0002314461288B2
:1073B0000193ADF8062040F2071203930669638833
:1073C000029691420546ADF80C3007D10C2301AA74
:1073D00005212846FFF755FD05B0F0BD21B18022FB
:1073E0000521FFF7D4FDF7E7A288002AEED0878AAF
:1073F0009918B94201DD1222F2E7A11DF01832F00E
:10740000A3FF6288A3882188688B1A4492B2FFF791
:10741000AFFB0028E0D0522205212846E1E773B5F2
:107420001688ADF80660054651B18023ADF80430EA
:1074300004230DEB03020621FFF723FD02B070BD0C
:107440009478042C0CD0052C01D0012CF6D100230B
:10745000ADF8043004230DEB030206212846EBE7C8
:107460009388D2881A4492B23146FFF751FC012822
:10747000ADF80400E2D0234601AAEEE700B58DB0D6
:1074800011BB9378012B1FD11388ADF8043093887A
:10749000ADF80C304FF4FC73ADF8103001AB059330
:1074A0000C230632ADF8183004A870230292ADF810
:1074B0001A108DF81C10ADF820300991ADF8281085
:1074C000ADF82C1018F03CFB0DB05DF804FB112951
:1074D00007D01B2908D0102909D132F8041BFFF767
:1074E0002FBF111DFFF749BF111DFFF73CBF7047AC
:1074F00010B40B461488418B8C421CD1363B51880A
:10750000042B18D8DFE803F008170D120300063229
:107510005DF8044BFFF73DBF06325DF8044BFFF703
:1075200042BF06325DF8044BFFF779BF06325DF8C3
:10753000044BFFF7A3BF5DF8044B704738B50C460A
:10754000054600F11E01204620F070FA2188A1F1C5
:1075500010031F2B05D8221D2846BDE83840FFF731
:10756000B6BFA1F130031F2B05D8221D2846BDE868
:107570003840FFF7BDBF38BDAADF7047ACDF7047AA
:10758000AEDF70470B680360014B8360704700BF3C
:10759000A8B00500024B83600B680360704700BF12
:1075A000A8B005000B68036070477047004870473B
:1075B00088B0050010B504460846044931F035FB93
:1075C000002814BF2046002010BD00BF88B0050071
:1075D00010B5034B0360044618F052FB204610BD63
:1075E00020B7050010B50B4C2378BFF35B8FDB078A
:1075F0000ED4204630F084FF50B1074804F046F91D
:10760000204630F089FF054A0549034831F01BF850
:10761000014810BD942F0020982F0020602A0020E0
:10762000D17502000E4A02600E49416200220271C9
:1076300082608281C0E90422C0E906228262C0E938
:107640000B22C0E90D228287A0F840204264A0F8F6
:107650004820A0F84C2080F84E200265704700BFFB
:10766000A0B00500A8B00500816000207047037934
:1076700013B98181184670472820704710B50479E6
:1076800034B900F1100307C983E80700204610BD94
:107690002820FCE703792BB931B12AB181638287B5
:1076A000184670472820704710207047037933B977
:1076B000828F8A4205D3A0F84010184670472820D0
:1076C00070471220704738B5857D044635B9406C47
:1076D00020B132F023FE6564A4F8485038BD7047ED
:1076E0000023A0F85230704710B5B1F840208C6BE1
:1076F0000460828010BD808D7047008E704790F8C6
:1077000052300BB990F8533018467047437D23B17F
:10771000C37DFD2B8CBF002301231846704700005A
:1077200070B50446FFF7F2FF08B9002070BD636C26
:10773000002BFAD1A169A08F04F029FAA57D064695
:1077400035B3184D2B78BFF35B8FDB070ED428467B
:1077500030F0D6FE50B114480CF0A8FE284630F0A8
:10776000DBFE124A1249104830F06DFF082304F185
:10777000480204F144010C480CF0C6FEB4F848304D
:10778000B342D2D200236364A4F848301220CDE77C
:10779000012132F067FD606410B1A4F84860C4E7CD
:1077A0002620C3E7742C0020782C0020602A0020BB
:1077B000A76B020008B50246FFF7A8FF10B1B2F8A8
:1077C000480008BD908FFCE708B50246FFF79EFF12
:1077D00010B1B2F84C0008BDB2F84000FBE707B5A5
:1077E0000146FFF7F1FF0023ADF8023001934B6B28
:1077F000ADF800009B68898DD88B6A46FFF7BEFE06
:10780000003018BF0120404280B203B05DF804FB95
:1078100008B50246FFF77AFF08B1506C08BD906BBF
:10782000FCE7F0B504468BB0FFF7CEFFA38DADF8B3
:10783000043094F85230002B14BF012302238DF83A
:10784000063013284FF000030646ADF8083008D97B
:107850002046FFF7DDFF012200F11301684632F0F8
:1078600073FD1327B4F85010B14245D2751A132D89
:10787000D4BFFF23B1FBF7F32046C6BFDBB213250D
:10788000ADB28DF81430FFF7C3FF2A4601440DF165
:10789000150032F059FD6B1CADF802300DF10203FA
:1078A000039305AB0493636B9B6801A9D88BFFF727
:1078B00067FE50B113284FF0000018D0A4F8500014
:1078C00084F84E004FF6FF7014E0B4F850301D44B9
:1078D0009DF81430A4F85050002BC3D12046FFF778
:1078E00097FF01226946133032F02EFDBAE70123DB
:1078F00084F84E300BB0F0BD0020A4F8500084F89E
:107900004E00F7E7F0B5837C87B005460E46174674
:1079100013B9282007B0F0BDFFF7F1FE0028F8D01A
:107920006B6B986802F007FB0028F2D02C7D28468C
:1079300014B1FFF776FFEDE7FFF746FFB8422BD90A
:10794000AB8DADF8083095F85230ADF80C40B04230
:1079500028BF3046002B14BF012302238DF80A30C4
:107960000DF10603CDE904346B6BADF806009B689E
:1079700002A9D88BFFF704FE30B1132807D085F891
:107980004E404FF6FF70C5E785F84E00C2E7012371
:1079900085F84E302046BDE72120BBE730B5838F08
:1079A0008B4287B0044646D3A0F84010FFF7AEFEE6
:1079B00070B339B92046A4F84C1007B0BDE8304088
:1079C000FFF70DBFFFF70EFEB4F84030ADF81430EE
:1079D000A3690293E37DA26B0193A36C04920093CD
:1079E00006AA636C12E9060003F05AFF054640B18F
:1079F0000023A4F84C302046FFF7F1FE284607B0DC
:107A000030BDA169B4F8400004F0C1F8A4F84C00FE
:107A10002046FFF7E4FE05460028EFD1E37C002B6B
:107A2000ECD084F84E00A4F85000024601462046EF
:107A3000FFF768FFE2E71225E0E70000F0B5836892
:107A400091B004460BB9504B83602579002D40F06E
:107A50009880616303222946684632F09DFC9DF8B8
:107A6000023023F0070343F00303294641F21116C5
:107A70001C2209A88DF80230ADF8006032F08CFCB1
:107A80009DF82430227C0A9565F3000362F34103DC
:107A9000627CCDF838D062F3820362F3C303A27C28
:107AA00001AF62F3041362F34513294603223846FB
:107AB0008DF82430CDE90C5532F06EFC9DF806307F
:107AC000ADF8046023F0070343F0050302A88DF826
:107AD000063002F081FB616BA2890C3102A802F032
:107AE0008DFB0546002842D102A802F095FB0390C9
:107AF0002046FFF715FE0546002838D1014614221E
:107B000004A832F049FC03AB20460493ADF81A50A8
:107B1000FFF75AFEADF818002046FFF74BFEADF810
:107B20001C002046FFF774FE0890606B059704F177
:107B30002C0304AA09A9008AFFF71EFD10281DD8EE
:107B4000DFE800F00E1C1C1C091C1C18181C1C1C57
:107B5000181C1C181A0026252046FFF7B4FD06E065
:107B6000B4F840102046FFF719FF0123237128467F
:107B700011B0F0BD2125EFE71025EDE74FF6FF75B9
:107B8000EAE70025F3E700BFE3E1050010B58368ED
:107B90000446DB689847204610BD000010B5044B32
:107BA000044640F81C3BFFF7F1FF204610BD00BF24
:107BB000A0B0050010B50446FFF7F0FF20465421A1
:107BC00030F046FD204610BD70B5047988B00546FA
:107BD00004BBCA688B6807925B6804A89847069B39
:107BE00004A91B6801A898476B6A05F11C061B686D
:107BF000314604A89847039B01A91B683046984763
:107C0000079AAB6AAA6204A80793FFF7BFFF204652
:107C100008B070BD2820FBE710B4C468A4465DF826
:107C2000044B604710B590F84E3004461BB100225B
:107C30001146FFF767FEA36A33B1C923224602212A
:107C400004F11C00FFF7E8FF10BD022A70B50446DE
:107C50000D4623D190F85260084620F04DFAA36AF1
:107C600084F8520043B1B04206D0C9232246012114
:107C700004F11C00FFF7D0FF284694F8536020F071
:107C80003FFAA36A84F8530043B1B04206D0C92337
:107C90002246012104F11C00FFF7BEFF70BD000069
:107CA00030B589B0C92304460D468DF81730FFF76B
:107CB0002DFD002847D0A169284603F073FFA4F8E2
:107CC0004C50A4F84000FFF78DFCB4F84C30ADF8F0
:107CD0001C30A36902930DF11703626C0193E36BEF
:107CE0000692009308AAA36B12E9060003F06CFE4B
:107CF00028B1FFF777FC03F05DFF09B030BD154DEB
:107D00002B78BFF35B8FDB0709D4284630F0F8FBF4
:107D100028B111481CF044FE284630F0FDFB9DF8C8
:107D20001720E17D0C481CF042FE0028E1D0A36A38
:107D3000002BE2D09DF817302246002104F11C00F0
:107D4000FFF76AFFD9E7FE23A4F840108DF817303B
:107D5000EDE700BF782F00207C2F002010B50446EF
:107D6000FFF736FC2046182130F072FC204610BD8B
:107D700038B503680546DB6898472B6804461B69DD
:107D800028469847201A80B238BD704770470000D7
:107D900010B5034B0360044617F072FF204610BD78
:107DA00014B2050010B50446FFF7F2FF204630215B
:107DB00030F04EFC204610BD10B50821044630F0CE
:107DC00047FC204610BD10B50821044630F040FCA9
:107DD000204610BD10B504460CF06DFB204610BDCA
:107DE00010B504460CF067FB204610BDB2F5967F37
:107DF00038B504460D4602D201200EF087F96560C1
:107E0000002038BDB2F5967F38B504460D4602D243
:107E100001200EF07BF96560002038BD10B901200B
:107E20000EF074B9704710B504464068FFF7F6FFCE
:107E30006368B3F80300053080B210BD08B5406830
:107E4000FFF7ECFF4FF4967008BD38B50C460546B9
:107E50004868FFF7E3FF63682B60236820461B69CF
:107E60009847A880284638BD10B50B4C2378BFF33F
:107E70005B8FDB070ED4204630F042FB50B1074841
:107E8000FEF7A2FE204630F047FB054A05490348AD
:107E900030F0D9FB014810BD802C0020842C00203C
:107EA000602A00207D6B020010B50B4C2378BFF3D5
:107EB0005B8FDB070ED4204630F022FB50B1074821
:107EC0000CF0F4FA204630F027FB054A0549034838
:107ED00030F0B9FB014810BDB02F0020B42F0020B6
:107EE000602A0020D57D02000023FF22C0E905336F
:107EF0008383026280F82A30C38580F826300385A8
:107F00007047000038B512490546043002F0D6F932
:107F10001049044605F1080002F0D0F941F60A01C3
:107F2000044305F10C0002F063F9A4B204434FF6D8
:107F3000596105F1100002F05BF9A4B20443A4B248
:107F400024B92846FFF7D0FF17F090FE204638BD31
:107F500094B10500B9B1050070B590F824308AB02D
:107F600004460E4615467BBB4FF40072ADF8082060
:107F70000DF1070203920122ADF8102002A8702231
:107F80008DF80710ADF812308DF81430ADF81820C8
:107F90000793ADF82030ADF8243017F0D1FDBDF8CF
:107FA000181099B101290CD12046FFF79DFF40F22E
:107FB0000113A585A38484F82A606423B5FBF3F537
:107FC000E58508460AB070BD2721FAE74121F8E7A8
:107FD00070B590F8243004460E4615468BB9FFF76D
:107FE00043FF31462A46FFF74FF80128014606D1E4
:107FF0002046FFF779FF40F20123A585A3840846B8
:1080000070BD2721FBE700002DE9F0431C4690F8E6
:1080100024308DB0054689461646002B6ED1FFF7F9
:1080200023FF014604A8FEF763FE049F1FB910203A
:108030000DB0BDE8F083FFF737FF0822014606A820
:108040000CF04BFA2E4B0893BDF81C30DDF818806D
:10805000B3F5967F02D201200EF058F84046CDF8D5
:108060002480FFF7DBFE099B05221A700998FFF7B1
:10807000D5FE099BA3F801900998FFF7CFFEB4F550
:10808000947F39D20CB1002ED1D0099BA3F80340C4
:108090003CB109980530864203D02246314632F081
:1080A00061F90AAC08A92046FFF7CFFE0021BDF810
:1080B0002C0003F06CFD2E6A8046C6B9FFF792FAD9
:1080C000029664230193059B009394E80600049BA9
:1080D00003F0E6FBFFF7C8FE43463A46298BFEF75E
:1080E00050FE0128A4D14FF48173AB84A0E7FFF7C1
:1080F00079FA00230293E5E7122099E7272097E712
:1081000078B10500002383840B8813B1084617F06B
:1081100017BD7047F0B590F8245095B00024702634
:108120008D420746ADF810400594ADF81840ADF803
:108130001A408DF81C40ADF820600994ADF8284035
:10814000ADF82C4003D0012D0BD0022D25D0012DF0
:108150000592ADF8183033D0022D36D004A9384638
:1081600017E02823ADF8043040F2FD13ADF83030AD
:1081700001AB0D930223ADF83830ADF83A408DF8DD
:108180003C40ADF840601194ADF84840ADF84C402B
:108190000CA9FFF7B7FF15B0F0BD2823ADF80430E8
:1081A0000B4BCDF80640CDF80A40029340F2FF1386
:1081B000ADF8303001AB0D93ADF80E400C23DAE78B
:1081C00040F2FD13ADF81030C8E740F2FF13F9E7B5
:1081D00054B105007FB50129ADF8062004D9022964
:1081E00008D007B05DF804FB02230DF10602FFF78B
:1081F00091FFF6E700230593034B04930C23ADF89E
:108200000C200DEB0302F2E754B1050008B590F81D
:10821000241011B12B22FFF7DDFFFFF725FEBDE88B
:108220000840FEF78FBF10B5036A04469BB1102BC0
:108230001BD1FFF719FEE18AFEF7F1FD0128024686
:1082400005D001212046BDE81040FFF7C3BF06233B
:1082500084F8253010BDFFF707FEA18AFEF7DFFD89
:1082600001280246EDD10523F2E746220121EAE783
:1082700010B503462AB193F82410FFF7ABFF002096
:1082800010BD90F825208A4201D02E22F3E701206C
:10829000F6E708B590F82430012B03D1BDE808407B
:1082A000FFF7E6BF2E220121FFF794FF002008BD53
:1082B00008B590F82430022B03D1BDE80840FFF741
:1082C000D7BF2E220221FFF785FF002008BD2A22FA
:1082D00090F82410FFF77EBF73B500220E460121EF
:1082E0000446FFF7D6FFD8B1327894F82A309A4284
:1082F00016D100230125E3850622711968468DF801
:10830000065032F021F8FFF7AFFDA28D6946FEF767
:10831000BBFEA842024605D029462046FFF75AFF79
:1083200002B070BD40F20123A384F9E710B50A46FC
:1083300002210446FFF7ADFFA8B1FFF795FD042227
:10834000A118FEF7A3FC0128024605D02046012112
:10835000BDE81040FFF73EBF032384F8253000231B
:10836000E3822383A38310BD10B5FFF7BDFD2B224D
:1083700090F82410BDE81040FFF72CBFF7B50D466C
:1083800004462E1D01A8271D01F026FF3946304660
:1083900001F0AAFF08B11023236239460F2201A879
:1083A00001F02CFF01A9304601F09EFF08B12B8996
:1083B000E38239460C2201A801F020FF01A93046D2
:1083C00001F092FF08B12B89238339460D2201A8C1
:1083D00001F014FF01A9304601F086FF18B12B8986
:1083E00063836B89A38304F108073946304601F0A3
:1083F0007BFF08B1002323623946032201A801F064
:10840000FDFE01A9304601F06FFF08B12B89A38260
:1084100039460F2201A801F0F1FE01A9304601F012
:1084200063FF08B12B89E38239460C2201A801F0D1
:10843000E5FE01A9304601F057FF08B12B892383DF
:1084400039460D2201A801F0D9FE01A9304601F0FC
:108450004BFF18B12B8963836B89A38303B0F0BDF5
:1084600010B50A4603210446FFF713FF88B1FFF752
:10847000FBFC0122A18BFEF7EFFC0128024605D090
:1084800020460121BDE81040FFF7A4BE042384F874
:10849000253010BD70B50D460A8890F825100529C5
:1084A000044617D006293DD1FFF7E2FE002838D058
:1084B0002B890A2B07D0202294F824102046BDE8EF
:1084C0007040FFF787BEFFF78DF8696803F048FB3F
:1084D0000246F1E7FFF7CCFE18B3144E3378BFF332
:1084E0005B8FDB0709D4304630F00AF828B110481A
:1084F0001CF056FA304630F00FF8043595E80600C7
:108500000B481CF0D1FA02460028D5D1FFF7ACFC8D
:10851000E18AFEF784FC01280246CDD1062384F8C7
:10852000253070BD2E2290F82410C8E7782F002047
:108530007C2F00200A8890F8243012B11946FFF7EA
:1085400049BE012B01D1FFF7A5BF2E22F6E738B5B2
:108550000A8890F82440054622B12146BDE83840FB
:10856000FFF738BE012C03D0022C0AD02E22F4E7EC
:108570000421FFF78EFE50B12846BDE83840FFF7D2
:1085800052BE0121FFF794FE08B185F8254038BDA1
:108590002DE9F0438C88012C8DB00546894616469E
:1085A00079D90B681F7890F82630BB4201D0FF2F95
:1085B00073D1DFF80C8198F80030BFF35B8FDA07D6
:1085C0000ED440462FF09CFF50B137480BF06EFFA1
:1085D00040462FF0A1FF354A3549334830F033F893
:1085E000002206A830490BF078FF013C288DBDF829
:1085F0001C20A4B203199A4251DBDDF81880D9F887
:10860000001022460131404431F09EFE95F826309C
:10861000013385F826302B8D1C44A4B2FF2F2C8506
:108620003FD1ADF82440234CCDF820802378BFF310
:108630005B8FDB070ED420462FF062FF50B11E483F
:108640000BF034FF20462FF067FF184A1B491A48E9
:108650002FF0F9FF082218490AA80BF03EFFFEF799
:10866000C1FF002302930DF1170301930B9B0093AD
:1086700008AA0A9B06CA03F0A7F9034638B985F889
:1086800026002885BDF82C200A983060B280184654
:108690000DB0BDE8F0832023F9E72123F7E712238B
:1086A000F5E70123F3E700BF782C0020602A0020C3
:1086B000A76B0200BC2F0020C02F0020E17D02002C
:1086C000742C002038B50D4604464868FFF7A6FB19
:1086D0006868431D2360FFF7A1FB6A68D3781279AD
:1086E00043EA022340F22712934228BF1346A38095
:1086F000204638BD70B591F8243086B004461BB1D1
:1087000000230360A38021E0FFF7CEFB082201468F
:1087100068460BF0E2FEBDF80450134B0293B5F52A
:10872000967F009E02D201200DF0F0FCE02D039612
:1087300002A904A80DD9FFF7C5FFDDE90306C5F5B9
:1087400001750335FFF76AFB2660A580204606B059
:1087500070BDFFF7B7FFDDE90305FFF75FFB25609D
:1087600040F22713CEE700BF78B10500436813B984
:1087700001200DF0CBBC704708B5FFF7F7FF4FF4B1
:10878000967008BD10B50446FFF7F0FF6368B3F8B4
:108790000500073080B210BD38B50C4605460846C6
:1087A000FFF7E4FF63682B60236820461B69984746
:1087B000A880284638BD0000F0B50A88438B9A424D
:1087C00091B0044649D1828C40F202239A4244D1AE
:1087D000002301AA04310193ADF80830FFF7D8FE59
:1087E000024638B1012838D094F824102046FFF70B
:1087F000F1FC32E0019F0FB91022F5E7BDF8082027
:108800001A4E0396B2F5967F02D201200DF07EFC3F
:10881000002503A80497CDE905560797FFF7A6FFA3
:10882000049BB3F80330012B05AA18D140F2FF13C3
:10883000ADF820300C23ADF8283008A87023099239
:10884000ADF82A508DF82C50ADF830300D95ADF8BC
:108850003850ADF83C5017F073F911B0F0BD0C234F
:1088600094F824102046FFF755FCF6E754B10500B4
:1088700013B50B880C4640F2F7118B4271D0B3F55B
:10888000FC7F1CD240F2F3118B4258D0B3F5FA7F33
:1088900008D240F2D7118B426FD0B3F5F97F47D0A1
:1088A00002B010BD40F2F512934253D0B3F5FB7FF6
:1088B0004AD3616802B0BDE81040FFF73BBEB3F594
:1088C000FD7F21D00ED8B3F5FC7F50D040F2F912D5
:1088D0009342E5D1636819781A8989B1FFF73CFBA7
:1088E0002082DDE7B3F5FE7F18D010D340F20122DD
:1088F0009342D5D1616802B0BDE81040FFF7ECBCEF
:10890000591CFFF765FBEBE7FFF780FCE8E76168C0
:108910000B894A680988FFF777FBE1E7014668465B
:10892000FFF7E8FE0098BDF8043060612383B7E7E5
:108930006368198802B0BDE81040FFF7F7BC02B0C9
:10894000BDE81040FFF710BD616802B0BDE81040FF
:10895000FFF714BD6368198802B0BDE81040FFF747
:108960007FBD616802B0BDE81040FFF7F0BD6168EF
:1089700002B0BDE81040FFF71FBFC38D002B8FD0A2
:10898000013B9BB2C385002B8AD102B0BDE81040E9
:10899000FFF79DBC49BA4182704749BA818270474E
:1089A00001F110030230994204D013F8012D00F8B0
:1089B000012BF8E7704784B038B505AD85E80E00A7
:1089C00041F20253038004462946FFF7E9FF20469F
:1089D000BDF82410FFF7DEFFBDF82810FFF7DDFF1C
:1089E0009DF92C30A375BDE8384004B07047A8DF6E
:1089F0007047ADDF7047000038B50025074B0571A3
:108A00000446036085600C3001F0E6FB4FF6FF730F
:108A10002382C4E90555E561204638BD68B20500EA
:108A200073B503790446F3B981600C3001F0F4FBAF
:108A300022464FF6FF73019022F8103F01A9012052
:108A4000FFF7D5FF18B1094A372120F0A0FDD4E97E
:108A50000556B54205D0214655F8040BFEF7EEFF4A
:108A6000F7E70123237102B070BD00BF74B20500A7
:108A700003460868D860704738B5D0E90545A54277
:108A800004D054F8040BFEF72AFEF8E738BD38B5D9
:108A9000D0E90545A54204D054F8040BFEF720FEAA
:108AA000F8E738BD2DE9F743D0E9057906460D46CC
:108AB0009046B94538D057F8044B2046FEF71DFEC6
:108AC000404507D16A8905F10C012046FFF7BDF842
:108AD00001202AE02046FEF70EFE4045E9D1AB79A1
:108AE000002BF5D0032B1AD9062BF1D10023CDE9A9
:108AF0000033B3682046DD8BFEF7FDFD6A46014674
:108B00002846FFF776FF38B143F20203984203D0BC
:108B1000074AC42120F03BFDBDF8001000E0698940
:108B20002046FFF7BDF8D3E7002003B0BDE8F0838F
:108B300074B205000B88112B08D0502B0BD0102BD2
:108B40000DD101F108028988FFF796BF01F10802F3
:108B50008988FFF79CBF31F8062FFFF7A3BF704746
:108B600038B5D0E90545A54204D054F8040BFFF709
:108B700059F8F8E738BD2DE9F84FD0E9007AAAEBAB
:108B80000704A41014BF23460123E4188046894635
:108B90009346A1EB070526D2B4F1804F23D224BB24
:108BA0002646DBF800307351B94504D02A463946D1
:108BB000304631F0D7FB0435D1453544AAEB090BDB
:108BC00004D05A464946284631F0BEFB5D4417B1F1
:108BD00038462FF0A4FC06EB8404C8E90065C8F809
:108BE0000840BDE8F88F6FF04044A0002FF078FCFB
:108BF0000646D6E713B5D0E9063293420446019102
:108C00000BD0196083690433836123791BB121463A
:108C10000198FEF713FF02B010BD01AA19461430E7
:108C2000FFF7A9FFF1E74CDF7047000010B5034BD9
:108C30000360044617F024F8204610BDB4C20500B6
:108C400010B5034B0360044617F01AF8204610BD18
:108C500050B3050010B50446FFF7F2FF204674211B
:108C60002FF0F6FC204610BD10B5094C2378BFF359
:108C70005B8FDB0709D420462FF042FC28B1054862
:108C800016F07AFF20462FF047FC024810BD00BFC7
:108C9000303000203430002010B50B4C2378BFF367
:108CA0005B8FDB070ED420462FF02AFC50B107481B
:108CB0000DF002F920462FF02FFC054A0549034824
:108CC0002FF0C1FC014810BDC82F0020CC2F002080
:108CD000602A00202D8C020070B5104B0360002527
:108CE00000F12803122604464562324629461846FA
:108CF00031F052FB4FF4FA71FF22C4E91412658778
:108D0000E587C4E91055E564A565256684F86450D7
:108D10003246294631F040FB204670BD50B3050075
:108D2000283070471220704770B5274D2B78BFF35D
:108D30005B8FDA0794B0044609D428462FF0E0FB95
:108D400028B122481BF02CFE28462FF0E5FB10AE80
:108D50001023324665211D481BF043FE002831D008
:108D60001B4D2B78BFF35B8FDB0709D428462FF010
:108D7000C7FB28B1174816F005FD28462FF0CCFB9D
:108D80001022ADF82420ADF83420ADF83C202A3470
:108D90000DF11E0205920E940EA903C903AA002329
:108DA0000896ADF82C300C9482E803000CA903C996
:108DB00001AA82E803000B9A009208AA06CA054895
:108DC00016F0E2FC14B070BD782F00207C2F00203C
:108DD000F42F0020F82F0020062380F8283090F888
:108DE0003B3080F82B3090F83C3080F82C3090F8F5
:108DF0003E3080F82D3090F83F3080F82E307D22C4
:108E0000036C93FBF2F3A0F82F30836CC0F8313081
:108E10000021836D80F82A1080F835300422363026
:108E200031F0BABA072380F82830002380F82A30BE
:108E300090F83A3080F82B3090F83B3080F82C30A6
:108E400090F83C3080F82D30C38FC3857D22036CB1
:108E500093FBF2F30386436CC0F83230836D49B95B
:108E600099B290F83D3080F83830FA23C18680F806
:108E70003930704789B2F4E7072380F8283001239E
:108E800080F82A3090F83A3080F82B30836CC36237
:108E9000C36C036390F83C3080F8343090F83E3077
:108EA00080F83530836D39B999B2036CC1867D2263
:108EB00093FBF2F30387704789B2F6E710B50446D7
:108EC0005C3007F05CFA30B10146102204F12A0050
:108ED00031F03AFA012010BD30B585B004460D4698
:108EE000FDF718FA04230DEB0302992117F02CFF6C
:108EF000072384F82830042384F82A3094F83A3081
:108F000084F82B3094F83B3084F82C3094F83C30C3
:108F100084F82D30BDF80630E3850023ADF8083025
:108F2000FDF7F8F9062302AA9F2117F00DFFBDF8FF
:108F300008302386DDF80A30C4F83230A36D35B925
:108F40009DB24FF47A43E586238705B030BDADB2BC
:108F5000F7E72DE9F04F426D85B004460D46052335
:108F6000002A64D1062284F82A3094F83A3084F832
:108F7000282084F82B30FFF78FFE0CF0EEFF90F8DE
:108F800000B0FFF789FE0CF0EAFF0026437884F872
:108F90002C6003F0010AC3F34009C3F38008C3F354
:108FA000C007FFF779FE0CF0D1FF94F82C3060F386
:108FB000000384F82C30FFF76FFE0CF0C9FF94F823
:108FC0002C300BF0010B60F341036BF382036AF367
:108FD000C30369F3041368F3451367F3861384F836
:108FE0002C30FFF759FE0CF0BAFF024600685168BA
:108FF00001AB03C31189927A9A7019809DF80430ED
:10900000012B04F12D004FF0090212D10DF10601E0
:1090100031F09AF9A36D85B99DB2002384F83830F8
:10902000FA23E58684F8393005B0BDE8F08F0722D1
:1090300099E7314631F0B0F9ECE7ADB2EDE710B5A4
:10904000034690F8640088B1062283F82A2003F1D1
:109050002B0103F16502713352F8044B41F8044BC4
:109060009A42F9D113880B8093788B7010BD73B539
:109070000E460546FDF74EF901230DF107029D212D
:1090800017F062FE9DF807304BB128463146FFF7D6
:1090900060FF686D003018BF012002B070BD6C6DBC
:1090A0002CB928463146FFF797FE2046F5E7AB6D11
:1090B000DA0709D5A86D00F00F04012C1BD1314649
:1090C0002846FFF709FF05E0AA6C2AB13146284679
:1090D000FFF7D2FE0120E0E79B0705D02846FFF707
:1090E000EDFE0028E6D0F5E731462846FFF7A7FF5A
:1090F0000028F3D0EEE731462846FFF793FEE9E774
:109100002DE9F04704468AB004F124080F4616F012
:10911000B9FA414616F008FBA36D0133A36519F0B7
:1091200055FE0546FDF7F6F88B21042304F14802AD
:1091300017F00AFE2A1C94F83C3018BF012262F393
:109140000413A26C002A14BF0121002161F38203E1
:1091500084F83C3062D1E264DFF8DC902946204696
:10916000FFF785FF99F80050BFF35B8F15F00105FD
:10917000824618D148462FF0C3F9A0B12A4E2B4B96
:10918000336048463571C6E902553582B574C6E983
:109190000555B58386F828502FF0BEF9244A254995
:1091A00030462FF050FA03250095122304F12802CF
:1091B00042F212711C481AF0D8FABAF1000F09D025
:1091C000FDF7A8F82A46192117F0CFFD10B1204667
:1091D000FFF7AAFDBFB94FF48273ADF808307023D2
:1091E0000397ADF81070ADF812708DF81470ADF8EB
:1091F00018300797ADF82070ADF82470FFF734FDF4
:1092000002A916F0C3FC16F03DFA23464FF4804243
:10921000414616F075FA0AB0BDE8F087E36C002B02
:109220009AD0E56498E700BF982B0020D0D30500C2
:10923000602A0020C9620200942B00207FB50D46F1
:109240000446FDF767F801230DF10602862117F0A9
:109250007BFD9DF80630102B04D000F2AF80022B6E
:1092600000F2AF806365002604F15C0006F0EEFFBB
:1092700084F83C60FDF74EF80322362117F075FDA7
:1092800094F83C3060F3410384F83C30FDF742F839
:109290000322372117F069FD94F83C3060F3C303D3
:1092A00084F83C30FDF736F80322382117F05DFDD5
:1092B00094F83C3060F3451384F83C30FDF72AF80D
:1092C0000322432117F051FD94F83C3084F83D60AF
:1092D00060F3861384F83C30FDF71CF896210423D4
:1092E00002AA17F031FD9DF8083094F83D20C3F331
:1092F000000363F3000284F83D20FDF70BF80DF145
:1093000007029D21012317F01FFD9DF80730B3428E
:1093100018BF072584F82950FCF7FCFF012301AA98
:10932000812117F011FD9DF8043084F83B3003A82B
:10933000FFF779FC18B1244A192120F028F9039B82
:10934000002BB8BF03339B1084F83E30636D102BA5
:1093500012D1FCF7DFFF012303AA222117F0F4FC4E
:109360009DF80C3084F83A3084F87030FA2384F891
:109370007330002384F86530231D18462022002115
:1093800031F00AF8254645F8240F16F07BF90F4A0C
:10939000294616F0A5F901212046FFF7B1FE16F087
:1093A00071F923464FF48042294616F0A9F9FFF7D8
:1093B0005BFC214616F016FC04B070BDFF2B3FF499
:1093C00051AFFF234EE700BFC4B20500D1930200A6
:1093D0000021FFF795BEF0B591B004460E4619F096
:1093E000F5FC01238DF80D3000230546ADF80E3055
:1093F0008DF810300593002E6DD040F20513ADF8B6
:109400000E3094F83E308DF80430636CCDF80530A2
:10941000A36D002D63D19BB2ADF8093009238DF8FF
:109420000C300723ADF818304FF4C673ADF8203078
:1094300014237022ADF8283001AF002303AEADF83D
:109440002A308DF82C30ADF830200D93ADF838303F
:10945000ADF83C3007970996FFF706FC08A916F00F
:1094600095FB94F83B308DF8043094F83C308DF83F
:10947000053094F83F308DF806307D22236C93FB45
:10948000F2F3ADF80730A36D5DBB9DB208238DF8F4
:109490000C300723ADF818304FF4C673ADF8203008
:1094A00014237022ADF828300023ADF82A308DF84F
:1094B0002C30ADF830200D93ADF83830ADF83C309D
:1094C000ADF8095007970996FFF7CEFB08A916F0EB
:1094D0005DFB11B0F0BD03238DF80E3091E7ABB208
:1094E0009AE7ADB2D2E7000070B50B88872B04462F
:1094F00000F0AB8028D8382B00F0D18008D8362B6C
:1095000000F0B98000F2C180222B00F0898070BD8C
:10951000812B00F08A800BD8432BF8D14B6890F850
:109520003C201B78003318BF012363F386121EE032
:10953000822B00F08180832BE9D14B681B68036488
:109540007F2380F83F30E2E7B3F5D97F00F0B180A8
:1095500020D8962B7FD00DD88B2BD8D14B6890F884
:109560003C201B68003318BF012363F3820284F898
:109570003C20CCE79D2B00F0D680B3F5947FC6D17C
:109580004B6890F83C201B78003318BF012363F32D
:109590000002ECE7B3F5EB7F66D008D8B3F5E17FC6
:1095A000B5D149685C30BDE8704006F076BE40F247
:1095B000D712934200F0878040F2E9129342A6D17D
:1095C0004D682B78002BA2D12B89002B9FD06B8864
:1095D000A0F8663000F1680608220021304630F01D
:1095E000DBFE2A896968082A28BF0822304630F045
:1095F000ABFE19F0EBFBA36D002840F09D8098B204
:1096000094F83C3094F86520A4F87100C3F300137B
:1096100063F30002012384F8652084F8643076E760
:109620004B681B7880F83A3071E74B681B7880F8FC
:109630003B30032303656AE74968404AD1E90001EA
:10964000002330F0F9FB606461E74B6893F9003068
:1096500080F83E305BE74B681A7890F83D3062F353
:10966000000380F83D3052E790F83C3043F010039F
:1096700080F83C304BE74B6890F83C201B78003377
:1096800018BF012363F3410271E74B6890F83C2057
:109690001B78003318BF012363F3C30267E74B68ED
:1096A00090F83C201B78003318BF012363F3451268
:1096B0005DE74B6890F83C201B78003318BF01230E
:1096C00063F3C71253E74B685C30196806F07FFEFE
:1096D000236D5A1E2265002B7FF419AF18480378BA
:1096E000BFF35B8FDB0708D42EF00AFF28B11548C3
:1096F0001BF059FE12482EF00FFF12481BF09CFE83
:1097000044F620635843FF23B0FBF3F000F54340D9
:10971000503064230021B0FBF3F020652046BDE803
:109720007040FFF758BE4B681B78002B3FF4EFAE3C
:10973000072380F82930EAE680B261E70090D00381
:10974000283000202C30002010B50446FFF76EFAB8
:10975000204628212EF07CFF204610BD36DF7047C2
:1097600037DF704776DF70477ADF704788DF7047F2
:109770008ADF70478BDF7047B1DF704766DF704765
:1097800011DF704712DF704710B50446406808B11A
:109790002EF0C5FE204610BD10B50B4C2378BFF34C
:1097A0005B8FDB070ED420462EF0AAFE50B107488F
:1097B0000AF07CFE20462EF0AFFE054A054903481C
:1097C0002EF041FF014810BD742C0020782C0020A1
:1097D000602A0020A76B020038B500230446C0E9C8
:1097E0000033C0E9023314202EF07AFE054660688B
:1097F00008B12EF094FE4FF6FF73E38304F14903A2
:10980000C4E90155A36614351F23E560A4F86C3044
:10981000002504F1240384F8205084F848502022C5
:109820002946184630F0B8FD044A60644FF4C80376
:10983000C4E905232577204638BD00BF0600100087
:1098400013B503780446A3B90DF10700FFF79AFF9B
:1098500018B1094A38211FF09AFE9DF8073033B13C
:10986000FFF78EFF18B1044A3D211FF090FE01233F
:10987000237002B010BD00BF5CB3050008B52EF028
:109880009FFD1FF0FDFE28B108281BD00E4A5D2168
:109890001FF07DFE1FF072FF10B92EF091FDF9E769
:1098A0000120FFF75BFF18B1074A6D211FF06FFE23
:1098B0000E20FFF755FF28B1034A7021BDE808408C
:1098C0001FF065BE08BD00BF5CB3050070B54378EE
:1098D00004460BB1837823B1084ACD2108201FF03C
:1098E00056FED4E90156AE4205D0214655F8040B88
:1098F000FFF796F8F7E70123A37070BD5CB305008E
:1099000010B54378044623B9084AF42108201FF013
:109910003EFE04F11400FFF727FF30B1034A40F286
:109920000311BDE810401FF032BE10BD5CB305004E
:1099300013B5437804460BB9037823B90F4A86213F
:1099400008201FF024FE0E4B01A91B680193012083
:109950001FF06EFF18B1094A99211FF018FE01A8E7
:109960001FF0CEFF18B1054AAD211FF010FE0123F4
:1099700063702046FFF7C4FF02B010BD5CB3050062
:10998000B82A0020012906D019B1022905D00020EB
:1099900070470078704740787047807870470000C3
:1099A00010B543788CB00446002B46D0027F002AC5
:1099B00043D1BDF80030ADF8062003F0E00343F4D6
:1099C0008273ADF8003002928DF80C20FCF7A2FCF7
:1099D00002230DEB0302272117F0B6F9FCF79AFCDE
:1099E000022301AA282117F0AFF904F168016846A3
:1099F000FFF7BEFE08281ED013281ED0F8B9012399
:109A0000237740F20513ADF8103070220023059340
:109A1000ADF81830ADF81A308DF81C30ADF82020B4
:109A20000993ADF82830ADF82C30FFF71DF904A9E3
:109A300016F0ACF801E0012323770CB010BD034A07
:109A40004FF4AE711FF0A3FDD9E700BF5CB3050072
:109A500010B5437888B0044643B1037F33B1FFF7B4
:109A600089FE50B1082803D10023237708B010BD28
:109A70000F4A40F279111FF08AFD00234FF48372E0
:109A8000ADF80020237770220193ADF80830ADF8CF
:109A90000A308DF80C30ADF810200593ADF8183071
:109AA000ADF81C30FFF7E0F8694616F06FF8DDE717
:109AB0005CB30500007F704710B504468EB0C11C32
:109AC00006220DF1050030F03FFCA37803F00102FF
:109AD000C3F346038DF80C30E37C8DF80430637DCE
:109AE0008DF80E30237D8DF80D30A38B8DF810305E
:109AF000A369CDF8113040F20113ADF8183001AB75
:109B0000079311238DF80B20ADF82030702200232D
:109B1000ADF822308DF82430ADF828200B93ADF845
:109B20003030ADF83430FFF79FF806A916F02EF864
:109B30000EB010BD00F125028261FFF7BDBF00002D
:109B400070B50B881D2B92B006460C4633D10D7AAA
:109B5000C5F341157DBB08317AB3242201A830F04A
:109B6000F3FB94F82420216A8DF828200DF12900B8
:109B700030F0EAFB07952EF065FB0A280AD9114A56
:109B8000442101A82EF018FC20B10F4A40F21E21FA
:109B90001FF0FDFC06F168010020FFF7E9FD132826
:109BA00004D80123094A8340134204D1064A40F2F3
:109BB00052211FF0ECFC12B070BD0846FFF77CFF8D
:109BC000E8E700BF359B02005CB305000101080017
:109BD000F8B5044604F1440515F054FD0F4A294632
:109BE00015F07EFD15F04EFD0D4BD3F800C0064676
:109BF0004FF400474FF4FA7000214FF47A720023BB
:109C0000E7FB0C0130F068F9002302462946304694
:109C100015F076FD012384F84830F8BDE19E02007E
:109C2000B4DE050010B5044615F02CFD04F1440126
:109C300015F07AFD002384F8483010BD2DE9F0417D
:109C400090F848300446CBB115F01CFD0C490F6864
:109C500005464FF400464FF4FA7000214FF47A7233
:109C60000023E6FB070130F037F904F14401024616
:109C700000232846BDE8F04115F064BDBDE8F08141
:109C8000B4DE050013B50C46FFF786FD022301AADA
:109C900069460AF039FC69462046FFF76FFD08283F
:109CA0000DD006D858B1074A40F29E211FF06FFC34
:109CB00005E0112803D043F202039842F3D102B029
:109CC00010BD00BF5CB30500F7B5C3780446154668
:109CD000E3B9FFF7B3FFAB79C3B1022B18D9062B59
:109CE00014D1FFF759FD0222014668460AF0F5FB40
:109CF000D4E90147009EA742234607D0328818685E
:109D000029460434FEF7CEFE0028F4D003B0F0BD9F
:109D1000D4E90164A642F9D02A8856F8040B2946F2
:109D2000FEF7C0FEF6E7F0B5D0E9016791B0054651
:109D30000C46B74205D0214656F8040BFEF7FAFE52
:109D4000F7E72846FFF744FF1A2200210DF106002D
:109D500030F022FB01238DF81E30A388E269ADF8B4
:109D60000430237E8DF806300292238C626AADF8AF
:109D70000C300492238DADF8143004F10901062251
:109D800006A830F0E1FA237AC3F346038DF81E30BB
:109D900040F20713ADF8203001AB09931C23ADF856
:109DA00028307022002308A8ADF82A308DF82C3016
:109DB000ADF830200D93ADF83830ADF83C3015F0EB
:109DC000BFFE11B0F0BD000038B5164B04461B783D
:109DD0008888E08300220D46E27073B11146FFF7D8
:109DE000C5FC082809D043F20202904205D020B1F8
:109DF0000D4A40F2F3211FF0CAFBEB7B012B0AD086
:109E0000022B0CD094F820305BB929462046BDE8DF
:109E10003840FFF788BF002384F82030F2E70123A1
:109E2000FAE738BDB9DE05005CB30500F0B5D0E94E
:109E300001578BB004460E46AF4205D0314655F867
:109E4000040BFEF777FEF7E72046FFF7EBFEB3883B
:109E5000ADF806304FF48473ADF808300DF1060309
:109E600003930223ADF810307022002302A8ADF84E
:109E700012308DF81430ADF818200793ADF820306B
:109E8000ADF8243015F05CFE0BB0F0BD90F820303A
:109E90004FF6FF72C2830BB9FFF7C8BF70470000CF
:109EA00008B50346C08B4FF6FF72904214D0DA78A3
:109EB00092B90122DA701321FFF754FC08280BD065
:109EC00043F20202904207D030B1044A40F27B31A3
:109ED000BDE808401FF05BBB08BD00BF5CB30500D8
:109EE00010B50D4C2378BFF35B8FDB070ED42046F3
:109EF0002EF006FB50B10948FFF76EFC20462EF00D
:109F00000BFB074A074905482EF09DFB0348BDE8B7
:109F10001040FFF7C5BF00BFC42B0020C82B002096
:109F2000602A002089970200C08B4FF6FF73C01A89
:109F300018BF01207047C28B4FF6FF739A421ABFB9
:109F400090F8200080F001000020704770B5D0E943
:109F500001460D1DA64205D0294654F8040BFEF714
:109F6000FFFDF7E770BD000038B50B88112B0C46DC
:109F700031D01ED8012B27D0102B29D0234D2B7880
:109F8000BFF35B8FDB070ED428462EF0B9FA50B131
:109F90001F48FCF719FE28462EF0BEFA1D4A1E493E
:109FA0001B482EF050FB21461948BDE83840FDF70C
:109FB000C5BA522B12D0572B24D0502BDED18A1D7C
:109FC0008988FFF781FED9E78988FFF75BFED5E72F
:109FD000FFF7FAFED2E7FFF759FFCFE7002203238E
:109FE0001146C08BFFF7C8FB0828C7D043F2020216
:109FF0009042C3D00028C1D0084A4FF4EA711FF044
:10A00000C6FABBE7FFF7A2FFB8E700BF802C00202D
:10A01000842C0020602A00207D6B02005CB30500C8
:10A020002DE9F84FD0E9007AAAEB0704A41014BF79
:10A0300023460123E418804689469346A1EB070591
:10A0400026D2B4F1804F23D224BB2646DBF8003061
:10A050007351B94504D02A463946304630F082F96A
:10A060000435D1453544AAEB090B04D05A4649467C
:10A07000284630F069F95D4417B138462EF04FFAA2
:10A0800006EB8404C8E90065C8F80840BDE8F88F0D
:10A090006FF04044A0002EF023FA0646D6E707B53D
:10A0A000D0E90232934201910AD0196083680433E7
:10A0B0008360019803689B68984703B05DF804FBD0
:10A0C00001AA19460430FFF7ABFFF2E762DF7047E1
:10A0D00063DF70470278A2F13003D9B2092905D9AC
:10A0E000A2F16103052B11D8A2F157034278A2F126
:10A0F0003000C1B209294FEA031305D9A2F1610169
:10A1000005290BD8A2F1570018437047A2F141036B
:10A11000052B94BFA2F137030023E7E7A2F1410129
:10A12000052994BFA2F137000020EDE7242938B5B6
:10A13000054614464ED10F2B4CDDFFF7CBFFE073E5
:10A14000A81CFFF7C7FFA073281DFFF7C3FF6073AC
:10A15000A81DFFF7BFFF207305F10900FFF7BAFF45
:10A16000E07205F10B00FFF7B5FFA07205F10E00DC
:10A17000FFF7B0FF607205F11000FFF7ABFF207230
:10A1800005F11300FFF7A6FFE07105F11500FFF7D9
:10A19000A1FFA07105F11800FFF79CFF607105F1A8
:10A1A0001A00FFF797FF207105F11C00FFF792FFDF
:10A1B000E07005F11E00FFF78DFFA07005F1200093
:10A1C000FFF788FF607005F12200FFF783FF207022
:10A1D000012038BD0020FCE7002202808270704719
:10A1E00082B0016002B07047012282700180704726
:10A1F0000123837001800020704700008B7833B109
:10A20000837002800023034AD05680B27047072330
:10A21000F9E700BFAAB30500006883B282B063F318
:10A220000F0002B0704702461020FFF751BF38B54B
:10A2300004460D46FFF7F7FF60B105280AD1A11CBF
:10A240002846FFF743FF28B929462046BDE8384095
:10A25000FFF7E9BF38BD000030B5002385B00380AB
:10A260008370044608460D4630F0E0F9102301469D
:10A270006A462846FFF75AFF20B9084A19210720E5
:10A280001FF085F969462046FFF7D1FF18B1034A50
:10A290001D211FF07CF9204605B030BDBAB3050082
:10A2A00008B5FFF7C4FF0F289BBF034B18564FF6A6
:10A2B000FF7080B208BD00BFAAB3050030B50546E7
:10A2C00085B008460C4630F0B1F9102301466A46C5
:10A2D0002046FFF72BFF28B169462846FFF7E0FF2D
:10A2E00005B030BD2120FBE702880B889A4205D1DA
:10A2F00080788B78C31A58425841704700207047C5
:10A3000010B5421E441D41F2055312F8011F01EB26
:10A3100043110B4494429BB2F7D100F10802203064
:10A3200012F8011B01EB43110B4490429BB2F7D191
:10A33000184610BD2DE9F34707461646894669B30E
:10A340008DF802004FF000080120052F8DF8032042
:10A35000ADF80000ADF804801DD8182A20D8114DA2
:10A360007C0105EB040A0834082269462C44504657
:10A370002FF0EAFF3246494620462FF0E5FFC6F1AE
:10A3800018024146A01930F007F85046FFF7B8FF11
:10A39000AAF80600404602B0BDE8F0870520FAE7BB
:10A3A0000220F8E700FF00202DE9F04791468A4699
:10A3B00031B3052826D81A4F4201BE18BA5C012ACB
:10A3C00022D1747814BBB578854221D196F80380E8
:10A3D000B8F1180F1ED898451ED86D017819FFF7EF
:10A3E0008FFFF388834219D10835424679195046C8
:10A3F0002FF0AAFFF37889F800302046BDE8F087F7
:10A400000524FAE70124F8E70724F6E70824F4E72F
:10A410000424F2E70224F0E70324EEE70624ECE745
:10A4200000FF002010B50446006808B12EF077F850
:10A43000204610BD1FB503680146DB68044601A82D
:10A440009847DDE90131994205D053F8042B002AE1
:10A45000F9D05460F7E701A8FFF7E4FF04B010BD9E
:10A4600030B5044685B0FFF7E5FF23682146DB6879
:10A4700001A89847DDE90145A5420ED054F8040B28
:10A480000028F9D003681B6898470028F4D001A879
:10A49000FFF7C8FF012005B030BD01A8FFF7C2FFDC
:10A4A0000020F8E776DF70478FDF704790DF704756
:10A4B000B5DF7047704722F08FBC10B50446806945
:10A4C00008B12EF02CF8204610BD000010B50B4C42
:10A4D0002378BFF35B8FDB070ED420462EF010F8F5
:10A4E00050B10748FFF778F920462EF015F8054AD5
:10A4F000054903482EF0A7F8014810BDC42B0020E1
:10A50000C82B0020602A00208997020070B5104EE9
:10A510003478BFF35B8F14F0010416D130462DF070
:10A52000EFFF90B10B4D30462C806C602C612C7588
:10A53000C5E90644C5E90844AC62AC852DF0ECFFE2
:10A54000054A064928462EF07EF8024870BD00BF35
:10A55000F8300020FC300020602A0020BBA402005C
:10A5600010B50446FFF7D2FF2146BDE810401BF0AE
:10A5700069BC000008B5064A14212DF01DFF28B162
:10A58000044A9021BDE808401FF001B808BD00BF93
:10A5900061A5020007B4050010B5022888B02DD0CF
:10A5A000032830D0012827D140F22913ADF800301C
:10A5B00070220023164C0193ADF80830ADF80A3034
:10A5C0008DF80C30ADF810200593ADF81830ADF8CB
:10A5D0001C302378BFF35B8FDB0709D420462DF0B6
:10A5E0008FFF28B10B4815F0C7FA20462DF094FFD5
:10A5F0006946084815F0CAFA08B010BDFFF786FF93
:10A600001BF056FCF8E7FFF781FF1BF053FCF3E764
:10A610003030002034300020012810B5044603D02B
:10A6200008B1032803D910BD202001F0ADF8204661
:10A63000BDE81040FFF7B0BFFFF7EEBF10B504460E
:10A64000FFF744FF2146BDE81040FFF78DBC000036
:10A6500007B5002301A9ADF80430FFF725FF08284E
:10A660000DD006D858B1074A4FF4A2711EF08FFFE3
:10A6700005E0112803D043F202039842F3D103B05E
:10A680005DF804FB07B40500002208B51146FFF78A
:10A690000DFF08280ED007D860B1074A40F27D119F
:10A6A000BDE808401EF073BF112803D043F2020337
:10A6B0009842F2D108BD00BF07B4050008B5452196
:10A6C000FFF7F6FE08280ED007D860B1064A4FF40F
:10A6D000D071BDE808401EF05ABF0D2803D043F2E8
:10A6E00002039842F2D108BD07B4050008B5FFF790
:10A6F000D9FE08280BD043F20202904207D030B1B5
:10A70000034A40F2BB11BDE808401EF040BF08BD3F
:10A7100007B4050010B50388232B044624D008D8BD
:10A720001D2B12D0212B18D02046BDE81040FFF77A
:10A7300085BF552B1FD0562B01D03B2BF4D1A088C1
:10A740001321BDE81040FFF7D1BFFFF7BFFE214640
:10A750000022BDE81040FFF7F3B900F10801BDE8A1
:10A7600010408088FFF774BF00F10801BDE8104079
:10A770008088FFF789BF811DBDE810408088FFF702
:10A780009DBFFFF7C7BF00F1804000F5E040002308
:10A7900082B0036003680193019B02B07047704769
:10A7A00010B5054B03600446406818B1237C0BB11B
:10A7B0002FF0B4FD204610BD80B4050010B5074B46
:10A7C000044640F8483BFFF7EBFF04F13400FFF785
:10A7D000E7FF204615F054FA204610BDD8B5050015
:10A7E00010B50446FFF7EAFF20467C212DF030FF2C
:10A7F000204610BD10B50446FFF7D2FF20461421B5
:10A800002DF026FF204610BD38B50C4D2C78BFF337
:10A810005B8F14F001040ED128462DF071FE50B16B
:10A82000074B2422214618462FF0B6FD80F824401D
:10A8300028462DF071FE024838BD00BFAC31002023
:10A84000B031002030B5164A164D02600022C0E932
:10A850000D52C0E91252027180F8442080F858204D
:10A8600080F85E20C0E9182280F8682080F86E2009
:10A87000C0E91C2282670C2201214FF6FF744FF0C1
:10A88000090C022580F82F200D2280F82E10C0E937
:10A890000FC4C0E91454A0F85C1080F8302030BD1B
:10A8A000D8B5050080B4050010B50B4C2378BFF374
:10A8B0005B8FDB070ED420462DF022FE50B10748F7
:10A8C000FFF7C0FF20462DF027FE054A0549034843
:10A8D0002DF0B9FE014810BD2C3100203031002090
:10A8E000602A0020BDA70200174A0023022110B5EC
:10A8F000C2F80035C2F8F015C2F8F435C2F8F835E0
:10A900006FF00043C2F808334FF48270FFF73BFF4B
:10A910000E4B4021802483F80713C3F8804193F83D
:10A9200007134809EC210141C90705D50849886882
:10A9300038B10B6823430B600223C2F804330020B4
:10A9400010BD1C60F8E700BF0070004000E100E0AF
:10A950006C8A0020016670474166704743798B42DC
:10A960000FD901EB410100EB410113788B71D2F853
:10A970000130C1F807305379CB72012303710020F5
:10A98000704760207047000070B5164D90F8681051
:10A99000B0F9743005EB01111B0443F47843C1F89E
:10A9A0001C3590F86860072E044604D90E4940F221
:10A9B000B9201EF0F9FD7600802303FA06F6C5F8EB
:10A9C000086394F86840072C04D9074940F2B9207D
:10A9D0001EF0EAFD4023640003FA04F4014BC3F8BF
:10A9E000044370BD00700040A8B4050070B5174D59
:10A9F00090F86810B0F8743005EB011143F07F63F4
:10AA000043F47023C1F81C3590F86860072E0446A3
:10AA100004D90F4940F2B9201EF0C6FD760080230C
:10AA200003FA06F6C5F8046394F86840072C04D9C5
:10AA3000074940F2B9201EF0B7FD4023640003FA35
:10AA400004F4024BC3F8084370BD00BF007000401F
:10AA5000A8B4050070B50446FFF7C8FF1AF010FD52
:10AA6000216F06461AF056FD636E05465BB1132052
:10AA70001AF03CFD854206D915201AF037FD8542B3
:10AA800001D2636E9847266770BD30B5036E89B0FA
:10AA900004460D46FBB190F85C30B3B140F27F1331
:10AAA000ADF800307022002368460193ADF80830FD
:10AAB000ADF80A308DF80C30ADF810200593ADF8E4
:10AAC0001830ADF81C3015F03BF8002384F85C30EA
:10AAD0002846236E984709B030BD10B50446FFF7ED
:10AAE000E3FE2178BDE81040FFF7CFBF10B5836FBC
:10AAF000632B044602DD01200BF008FBA36F13B9A2
:10AB0000034AC2F80833A36F0133A36710BD00BF27
:10AB10000070004010B5836F013B002B0446836733
:10AB200002DA01200BF0F2FAA36F13B9014AC2F85E
:10AB3000043310BD007000407047042808B515D0DC
:10AB40000BD8012814D0A8B1022815D0032815D09D
:10AB500001200BF0DBFA002008BD062810D011D32D
:10AB6000072811D06428F3D10920F5E70520F3E781
:10AB70000220F1E70120EFE70320EDE70420EBE7F7
:10AB80000720E9E70620E7E70820E5E72DE9F84395
:10AB90001378072B04460D46164604D9642B02D0C1
:10ABA00001200BF0B3FA7379083BDBB2F62B02D825
:10ABB00001200BF0ABFAD6F80120962A4FF00C03D7
:10ABC0002CD803FB054396229A834FF0070970792E
:10ABD000FF284FF00C0768D107FB05444FF0000831
:10ABE00040F6FF732384A4F81E80A4F81A8044461C
:10ABF0003078FFF7A2FF2B01240503F1804303F512
:10AC0000E04344EA092444F40034C3F81845C3F887
:10AC10001485C3F810050020BDE8F883B2F5967FCF
:10AC200007D803FB05434FF496729A834FF0060949
:10AC3000CDE7B2F5167F07D803FB05434FF4167234
:10AC40009A834FF00509C2E7B2F5966F07D803FB68
:10AC500005434FF496629A834FF00409B7E7B2F5C3
:10AC6000E16F07D803FB05434FF4E1629A834FF08D
:10AC70000309ACE7B2F5166F07D803FB05434FF4A1
:10AC800016629A834FF00209A1E740F6B8318A4272
:10AC900003FB05438DBF4FF4616299834FF00109B7
:10ACA0009A8388BF4FF0000991E707FB0544FFF73F
:10ACB00044FF40F2FF7323844FF60103E383A38B29
:10ACC0005B4263838046012492E70000204BF7B586
:10ACD00000240646C3F80045851D7379A34207DDAD
:10ACE0002A46E1B23046FFF751FF01340635F4E75A
:10ACF000174B184F0122C3F80025002333713C780D
:10AD0000BFF35B8F144018D138462DF0F9FBA0B18A
:10AD1000114D124BAC833846C5E902442B602C71AF
:10AD20002C82AC74C5E9054485F828402DF0F4FB6D
:10AD30000B4A0C4928462DF086FC03230093721D14
:10AD400011234CF2B431044818F00FFD03B0F0BDEC
:10AD500000700040942B0020982B0020D0D30500D9
:10AD6000602A0020C9620200072808B503D8054BF5
:10AD700033F8100008BD01200BF0C8F94FF4AA7099
:10AD8000F8E700BF88B40500072808B503D8054BCD
:10AD900033F8100008BD01200BF0B8F94FF4A8708B
:10ADA000F8E700BF98B4050010B50446426780F884
:10ADB00068100846FFF7D8FFA4F86A0094F8680006
:10ADC000FFF7E2FF0123A4F86C0084F86E30204600
:10ADD000BDE81040FFF7D8BDF0B5C7890246002393
:10ADE00098B287420ED9548916891C44B4FBF6F5F3
:10ADF00006FB154455682C5D0D78A54203F101034F
:10AE0000EED1F0BD4FF6FF70FBE7438901890133B6
:10AE10009BB2B3FBF1F201FB12334381C389013BC7
:10AE2000C38170478389028901339BB270B5B3FB3C
:10AE3000F2F502FB15338381C38901339BB29A4239
:10AE400004460E46C38101D2FFF7DFFFA389626883
:10AE50003178D15470BD2DE9F341C56C04461DB164
:10AE6000262002B0BDE8F0810121B0F850002FF09B
:10AE7000F9F9E0640028F3D0A76BA4F852504FF61C
:10AE8000FF760125666584F85850002FE8D12946E1
:10AE9000A08F2FF0E7F9A0630028E1D084F8445098
:10AEA000E7872664FFF7B0FC90F824300546B3B975
:10AEB000061F00F1200820202FF028FA074600285E
:10AEC000CED04FF4C8702FF021FAF8610028C7D017
:10AED00046F8047FB045EED1012385F82430FFF712
:10AEE00093FC00238DF8073034340DF10701204620
:10AEF000FFF798FF9DF807300133DBB2082B8DF880
:10AF00000730F2D90020ACE72DE9F0430B460E469E
:10AF100085B00446421D103153F8040B42F8040B6F
:10AF20008B42F9D11B781370494B4A4D01221A60AC
:10AF3000D5F8083543F00303C5F80835D5F81035C2
:10AF400023F00F03C5F81035D4F812304FEA137907
:10AF50004FEA0318B9F1010F08BFB8F1000F04D38D
:10AF60003D4940F2B1201EF01FFBC5F84085D5F8E1
:10AF700004353A4A23F00303C5F80435D5F8003206
:10AF800043F00103C5F800320023136011680391F8
:10AF9000039933490B6009680291029931490B60AA
:10AFA00009680191019930490B600B680093009B7F
:10AFB00094F82F30DB0003F1804303F5F83320468B
:10AFC000C3F81025A2F504523C3AC3F8142594F8AE
:10AFD0002F2001239340254AC2F8043594F83030DD
:10AFE000DB0003F1804303F5F833A2F5BF32FC3AEE
:10AFF000C3F81025A2F58272C3F81425FFF774FC7C
:10B0000020B11B4A922103201EF0C1FAA21D002587
:10B01000C4F100086379AB4202F106070ADDD6F8F5
:10B020000D3028F81730E9B22046FFF7AFFD0135A3
:10B030003A46EFE70F4B0122C3F800252046FFF701
:10B040000AFF204614F012FE002005B0BDE8F08390
:10B050000C9000400090004004B505004091004075
:10B0600044910040489100404C91004000F0014064
:10B0700060B505000070004038B504460D46FFF786
:10B08000ABFE4FF6FF73984205D120462946FFF7E5
:10B09000C9FE012038BD0020FCE700002DE9F34780
:10B0A000B0F856308DF80710012B054667D800F12F
:10B0B00048060DF107013046FFF78EFE4FF6FF738D
:10B0C00098425ED1FFF7A0FB9DF8073050F823406F
:10B0D0000023E7699A464FF00C0904F1020E05F1CE
:10B0E00016086A799A4212DD09FB03F008EB0001A9
:10B0F00084F800A00A684EF800200EEB000C4A68A5
:10B10000CCF804208A68CCF808200133E9E795F8E8
:10B110005E3003F0FF04D3B1012C34D10DF10701EF
:10B120003046FFF77FFE194A1368002BFCD04FF41E
:10B130008070FFF728FBFFF767FB154BC822C3F8A9
:10B140002C76C3F83026002002B0BDE8F0874FF01F
:10B1500001080DF10701304685F85E80FFF762FEB9
:10B16000FFF752FB0A4AC823C2F82C764FF48070CE
:10B17000C2F83036FFF707FBC2F80080E3E726206D
:10B18000E2E72920E0E72820DEE700BF0071004069
:10B190000070004038B504460D46FFF7A7FC29466D
:10B1A0002046FFF77BFF05462046FFF7B3FC284605
:10B1B00038BD0000F7B590F85D300446002B47D04D
:10B1C000002580F85D50FFF791FC94F8303021495C
:10B1D000012202FA03F3C1F808351F4B1A60C3F8C5
:10B1E0003C5103F59E731B680193019B1B4B1A6036
:10B1F00094F85E307BB1022384F85E304FF48A709D
:10B20000FFF7C1FA164B2021C3F804139A6094F893
:10B210005E30002BFBD104F1480704F13406B4F88A
:10B2200056305BB1E16CB4F8525038460D44FFF72C
:10B23000ECFD29463046FFF71FFFF0E74FF4827020
:10B24000FFF7A1FA204603B0BDE8F040FFF762BC6B
:10B2500003B0F0BD00F00140049000400C900040AD
:10B260000070004070B590F85E30022B04460E4628
:10B2700021D000F13405B4F8423043B9B4F8560097
:10B28000B4F85030984214BF2520002070BDE38FE1
:10B29000A26B2046D15C5EB1FFF700FF2628EDD0FF
:10B2A000292801D00028F1D12846FFF7AEFDE2E7BA
:10B2B000FFF770FFF2E72820E8E738B50446FFF70C
:10B2C00015FC00212046FFF7CDFF05462046FFF77D
:10B2D00021FC284638BD000010B590F85D30012BE8
:10B2E00004460AD003790BB1FFF7F0FC2046FFF7C4
:10B2F000E4FF18B1022384F85D3010BD40F2011361
:10B30000A4F85C3094F830300449012202FA03F3C7
:10B31000C1F80435024B1A60EFE700BF00F00140AE
:10B320000090004010B50446FFF744FF2046BDE8FA
:10B330001040FFF7D1BF08B5FFF7B6FABDE80840E7
:10B34000FFF7F0BFF7B54D4B1B680446002B6AD0E2
:10B350004FF48270FFF717FA94F85E50EDB2012DAA
:10B360000FD1B4F8561071B9022384F85E30444A04
:10B3700008462DF021F820B1424A40F2CF211EF0BC
:10B3800006F903B0F0BDB4F85260E76C04F1480070
:10B39000FFF73BFDBB5D8DF80330FFF735FA9DF8F5
:10B3A000033050F823301D7094F82E60731C84F81D
:10B3B0002E30FFF729FA9DF8033050F823300DF1B5
:10B3C00003015E7004F13400FFF756FE2CF03AFFE3
:10B3D0000A2805D92C4A29460DF103002CF0ECFF70
:10B3E000B4F85610C1B9294A01231360C2F83C11C0
:10B3F00002F59E72084612680192019A244A13606F
:10B40000022384F85E301E4A2CF0D6FF0028B8D004
:10B410001C4A40F2FF21B2E72379002BB1D1012170
:10B420002046FFF71FFF1B4B1B683BB14FF48A7090
:10B43000FFF7A9F9002384F85E30A2E794F86E3094
:10B44000002B9ED0B4F86A0000F1804303F5E0437E
:10B450001B6823B1FFF797F92046FFF795FAB4F878
:10B460006C0000F1804303F5E0431B68002B88D09B
:10B47000FFF789F92046FFF7EDFA82E704710040F3
:10B4800037B3020060B50500DBAA0200049000405B
:10B490000C9000401471004008B5FFF705FAFFF763
:10B4A00051FFBDE808401BF0FDBB000038B5094D59
:10B4B0002B78BFF35B8F13F0010408D128462DF0E1
:10B4C0001FF820B1044B28461C602DF025F80248D7
:10B4D00038BD00BFD8310020DC31002000220260DE
:10B4E0007047000000000000F0B52DED028BB4EEB7
:10B4F000E00AF1EE10FA85B006460D46F0EE408AFD
:10B50000B0EE608A174604DB4B4A162107201EF076
:10B510003EF818EE900A2DF0E1FF41A3D3E9002395
:10B520002EF0C4FA002855D0DFED447A68EEA77AF1
:10B5300017EE900A2DF0D2FF3BA3D3E900232DF0A4
:10B540006FFE3BA3D3E900232EF04AF900223C4BC7
:10B550002DF064FE2EF0F2FAC4B218EE100A2DF0AF
:10B56000BDFF2FA3D3E900232EF0A0FAC0B1DFED79
:10B57000337A68EE277A17EE900A2DF0AFFF2AA3F0
:10B58000D3E900232DF04CFE29A3D3E900232EF0AC
:10B5900027F900222A4B2DF041FE2EF0CFFAC0B23F
:10B5A00000230421062237608DF804108DF8063040
:10B5B0008DF807408DF808008DF80930ADF80A3095
:10B5C0008DF80D20072D25D8DFE805F007061618A1
:10B5D0001A1D1F220446C0E701238DF80C301949BB
:10B5E00001A81EF0F5F918B1134A5E211DF0CFFF36
:10B5F00005B0BDEC028BF0BD0223EEE70323ECE7C0
:10B600008DF80C10EBE70523E7E78DF80C20E6E753
:10B610000723E2E7084A4E2107201DF0B8FFDEE7C6
:10B62000666666666666AA3F666666666666FA3F30
:10B630006666666666660A40ECB5050000008042F4
:10B640000000F03FD5B6020003290B4605D8034A97
:10B65000002132F813001EF043BA7047E4B505002C
:10B6600008B51EF05BFA003018BF012008BD036862
:10B6700073B1B1F5847F07D0B1F5867F06D0B1F5FF
:10B68000827F05D1012018470020FCE70220FAE75D
:10B69000704710B50488FFF709FF2146BDE8104048
:10B6A000FFF7E5BF07B50368ADF8061053B1074AC9
:10B6B00002210DF106002CF07FFE18B1044A8A2108
:10B6C0001DF065FF03B05DF804FB00BF93B60200F8
:10B6D000ECB5050010B50446FFF7E8FE2146BDE8CD
:10B6E0001040FFF7DFBF3CDF70473DDF70473EDFB4
:10B6F000704707B501A9FFF7FAFF019803B05DF89D
:10B7000004FB000008B54FF0FF310020FFF7EDFF0C
:10B7100028B1034A2121BDE808401DF038BF08BD0B
:10B720003DB6050008B51F210020FFF7DEFF28B158
:10B73000034A2A21BDE808401DF029BF08BD00BF0B
:10B740003DB6050007B5002001A9FFF7D0FF01981D
:10B7500000F01F0003B05DF804FB000010B50446C4
:10B76000FFF7E0FF1F2C21464FF0000028BF1F21EC
:10B77000FFF7B9FF28B1034A3D21BDE810401DF095
:10B7800006BF10BD3DB6050008B501460020FFF715
:10B79000AAFF28B1034A4F21BDE808401DF0F7BEBB
:10B7A00008BD00BF3DB6050008B501460020FFF703
:10B7B0009CFF28B1034A5821BDE808401DF0E7BEB0
:10B7C00008BD00BF3DB6050010B504460020FFF7D8
:10B7D00090FF044214BF0120002010BD07B50123D3
:10B7E0008DF8003000214EF66023684601931EF06C
:10B7F000ABF918B1074A1D211DF0C9FE06481EF01D
:10B80000E9F918B1034A20211DF0C1FE03B05DF82B
:10B8100004FB00BF92B60500E03100201EF0BCB969
:10B82000014B18781EF00CBAE031002010B5094C1D
:10B830002378BFF35B8FDB0709D420462CF060FE32
:10B8400028B1054813F09EFF20462CF065FE024803
:10B8500010BD00BFF42F0020F82F002010B5094CB8
:10B860002378BFF35B8FDB0709D420462CF048FE1A
:10B8700028B1054819F094F820462CF04DFE0248F6
:10B8800010BD00BF782F00207C2F0020024A0260EC
:10B8900005220271704700BF20B7050014F0E6B919
:10B8A00082B02DE9F04F9BB00AAC9DF89CB0259377
:10B8B00016AF84E806001D468246DDF8A090BDF86C
:10B8C0009880FFF7CBFF10233A46594619F089F8C4
:10B8D000002875D0B9F1000F08D0B9F1010F4DD093
:10B8E00041201BB0BDE8F04F02B070470AF10E06D0
:10B8F0000321304619F058FDB8F1030F3CD9314609
:10B90000032228462EF020FD85F803B0FFF78EFFB6
:10B910001023ADF83C300823ADF844300AF10A0397
:10B9200012930423ADF84C301D44A8F104080DF126
:10B9300036030793CDF820901495ADF8548014AADF
:10B94000844692E8030005AB0E97109683E8030047
:10B9500094E8030003AB83E8030012AA92E8030013
:10B9600001AB83E80300119B00930EAA334606CA7D
:10B97000604614F07DF8B4E71220B2E7114B109343
:10B98000FFF754FF1023ADF84C300423ADF85430CA
:10B990000EAB059325AA054692E8030003AB129768
:10B9A00083E8030094E8030001AB83E80300159BE0
:10B9B000009312AA10AB06CA284613F0E5FE90E7E2
:10B9C00025208EE7BEBAFECA82B02DE9F0419AB0BA
:10B9D00006462193DDE923430AA880E80600002BF0
:10B9E00072D1BDF82C70032F6AD9CB78012B0D468C
:10B9F00006D05AB232B1022B02D0642B00D0C92338
:10BA0000237000E022700DF15808FFF727FF102384
:10BA10004246217818F0E5FF002853D006F10E04C5
:10BA20002946032220462EF08FFC0522B11806F18C
:10BA300011002EF089FCFFF7F9FE1023ADF83C3021
:10BA40000823ADF84430002308930DF13203079327
:10BA500021AA844692E803000435043F1295ADF80C
:10BA60004C700DAD042705ABCDF838801495ADF8BA
:10BA7000547083E8030014AA92E8030003AB83E840
:10BA8000030012AA92E803000DEB070383E803000A
:10BA9000119B00930EAA234606CA604614F01AF8BA
:10BAA0003A46044606F10A0128462EF03FFC0028DB
:10BAB00018BF302420461AB0BDE8F04102B07047EC
:10BAC0001224F7E72524F5E74124F3E738B5451DAF
:10BAD00004460521284619F067FC04F10A000421F8
