:020000021000EC
:10C0000000000120D5C001005DC4010031C801005D
:10C010005DC401005DC401005DC4010000000000BA
:10C020000000000000000000000000005DC40100EE
:10C030005DC40100000000005DC401005DC401009A
:10C040005DC401005DC401005DC401005DC4010068
:10C050005DC401005DC40100BD810200A99502001C
:10C060005DC40100E1930200F19302005DC4010090
:10C070005DC401005DC401005DC401005DC4010038
:10C080005DC40100917002005DC40100657E020084
:10C09000517102005DC40100E1A202005DC4010013
:10C0A0005DC401005DC401005DC401005DC4010008
:10C0B0005DC401005DC401005DC401005DC40100F8
:10C0C0005DC401005DC401005DC401005DC40100E8
:10C0D0005DC401004FF0804307B50022C3F804217E
:10C0E00001221A601A46D2F800114FF0804300294D
:10C0F000F9D00222C3F8182501229A60D3F804214E
:10C10000002AFBD04FF0804301229A671749184B51
:10C11000184801930022834205D251F8042F43F8B6
:10C12000042B0122F7E702B10193019A1249134847
:10C13000114B8A4202D242F8040BF9E7002210495F
:10C14000019310468B4203D243F8040B0122F9E716
:10C1500002B1019302AB094953F8042D9A4202D26D
:10C1600042F8041BFAE70AF049FDFEE7A86D030058
:10C17000B82600208C2F0020902F0020EFBEADDECF
:10C18000084C0020FFFFFFFFFFFFFFFFFFFFFFFF47
:10C19000FFFFFFFFFFFFFFFFFFFFFFFFFFFFFFFFAF
:10C1A000FFFFFFFFFFFFFFFFFFFFFFFFFFFFFFFF9F
:10C1B000FFFFFFFFFFFFFFFFFFFFFFFFFFFFFFFF8F
:10C1C000FFFFFFFFFFFFFFFFFFFFFFFFFFFFFFFF7F
:10C4000010B5054C237833B9044B13B10448AFF38E
:10C4100000800123237010BD902F00200000000039
:10C42000AC6D0300084B10B51BB108490848AFF3C9
:10C4300000800848036803B910BD074B002BFBD0F0
:10C44000BDE81040184700BF00000000942F0020F6
:10C45000AC6D03008C2F00200000000070470C23FF
:10C4600003710A2343710B2383710723C3710623CE
:10C4700003720F23C37210230373C37B43F00703BC
:10C480006FF3C303C37301230374D82380F82830E8
:10C490007047FFFF0823037106234371072383714D
:10C4A0000223C371012303721423C3721323037382
:10C4B0000A23437309238373C37B03F0F00343F020
:10C4C00009036FF30413C3730B4B43610B4B83617D
:10C4D00040F2C973C36140F2BC73036240F6AC53CF
:10C4E0004362074BC362074B03630322EC23827250
:10C4F000027480F828307047CDCC4C3EE02D903B44
:10C500005C8F423F85EBD13E0823037106234371C4
:10C51000072383710223C371012303721423C3729F
:10C52000132303730A23437309238373C37B03F029
:10C53000F003002143F0090361F30413C3730C4BB0
:10C5400043610C4B836140F2C973C36140F2BC7319
:10C55000036240F6AC534362074BC362074B03636D
:10C560000322EC2341728272027480F828307047F3
:10C57000CDCC4C3EE02D903B5C8F423F85EBD13ED5
:10C580000823037106234371072383710223C371B8
:10C590001423C372132303730A234373092383737E
:10C5A000C37B03F0F00343F009036FF30413C37379
:10C5B0000B4B43610B4B836140F2D373C36140F279
:10C5C000CD73036240F2DC534362074BC362074BF7
:10C5D00003630122D8230272027480F82830704766
:10C5E000CDCC4C3EBC74933B5C8F423F85EBD13E3F
:10C5F0000823037106234371072383710223C37148
:10C600001423C372132303730A234373092383730D
:10C61000C37B03F0F003002143F0090361F304132B
:10C62000C3730C4B43610C4B836140F2D373C36102
:10C6300040F2CD73036240F2DC534362074BC362A6
:10C64000074B03630122D82302724172027480F8FF
:10C6500028307047CDCC4C3EBC74933B5C8F423F3E
:10C6600085EBD13E0F230371102343711123837196
:10C670000323C371022303720623C37207230373C8
:10C68000C37B43F0030303F0FB036FF3C303C373E4
:10C69000012303740A4B43610A4B836140F2D37355
:10C6A000C36140F2CD73036240F2DC534362064B38
:10C6B000C362064B0363D82380F82830704700BF5D
:10C6C000CDCC4C3EBC74933B5C8F423F85EBD13E5E
:10C6D000112303710B2343710C2383710123C37155
:10C6E0000374C37B03F0FE0343F01E030821C373EE
:10C6F0000023C1724361062183610A4B0173022248
:10C700001321C3624FF07E53027241730022142141
:10C710000363D82382728173C2610262426280F82D
:10C720002830704700004040C37B03F0F8036FF3EC
:10C73000C303C37302230374D82380F828307047DF
:10C740004FF0102208B5D2F88420511C03462CD09B
:10C75000B2F57B7F11D8B2F57A7F23D2292A07D888
:10C76000282A2AD232B3012A2AD1FFF77BFF1FE001
:10C77000642A25D1FFF7D8FF1AE040F2DE518A4241
:10C780000AD840F2DC518A420FD240F2ED318A429F
:10C7900016D1FFF7B9FE0BE0B2F5BC6F10D8FFF76A
:10C7A00027FF05E0FFF776FE02E01846FFF7E8FEF8
:10C7B000002008BDFFF753FEFAE7FFF789FFF7E710
:10C7C0001846FFF7DDFE072008BDFFFF8EB00368A7
:10C7D00000934368019383680293C36803930369DA
:10C7E00004934369059383690693C36907930A4BCE
:10C7F0001B680893094B1B680993094B1B680A9334
:10C80000084B1B680B93084B1B680D93074B1B6869
:10C810000C9300BE0EB0704728ED00E02CED00E058
:10C8200030ED00E03CED00E034ED00E038ED00E0FC
:10C8300004207146084203D0EFF30980FFF7C6BF1A
:10C84000EFF30880FFF7C2BF30B500241C60013849
:10C850000B4615685C1AA54207D910F8015F03F86A
:10C86000015B0578002DF4D11460084630BD82B01C
:10C8700089B2ADF8061000BEFEE782B089B2019021
:10C88000ADF8021000BEFEE782B000230190ADF8C3
:10C89000023000BEFEE7FFFF024B16221A604FF087
:10C8A000FF307047044C0020FEE7012070474FF036
:10C8B000FF3070470020704701207047002070470C
:10C8C0000020704710467047064A0749136818440D
:10C8D000884203D300BE4FF0FF3070471060184607
:10C8E000704700BFBC260020289A00207047704780
:10C8F00010B504460DF032FD204610BD002200F5B3
:10C90000BC710270C0F87011C0F8742180F87821F1
:10C91000C0F88821C0F88C21704735291CD8DFE881
:10C9200001F0291B1B1E202220202E1E1B1E20244E
:10C930001E1E202020201E1E201B30303030301BB9
:10C9400020202020202E2E2E1B2020201E222222BE
:10C95000222220222020222240F202307047012B86
:10C9600004E0022B02E0042B00E0062B0CBF0020A9
:10C9700002207047202B34BF002002207047102B6C
:10C98000F4E740F201307047183908B513460E2914
:10C990002AD8DFE801F0080D12171C2929292929B6
:10C9A00029292929240000221946D0F83C0112E047
:10C9B00001221946D0F840010DE001221946D0F8B5
:10C9C000440108E000221946D0F8480103E0D0F8FD
:10C9D0004C010022194601F0F9F8012008BD00229F
:10C9E0001946D0F85401F6E7002008BDA1F118035C
:10C9F000DBB20E2B07B50CD801229A4044F21F037C
:10CA0000134043B10DF10702FFF7BEFF9DF8070089
:10CA100002E0002000E0184603B05DF804FB07B513
:10CA20004FF4B2730093021D00F10C0306CAD0F854
:10CA3000880101F035FA03B05DF804FB70B5134DC1
:10CA40002B68DB0704460E460ED428460EF016FB74
:10CA500050B10F4801F052F928460EF02BFB0D4A59
:10CA60000D490B480DF074FC0948C4F8880183791E
:10CA7000C4F88C6143B1221D002101F0B3F92046B6
:10CA8000FFF7CDFF0123237070BD00BFEC2F002006
:10CA9000F02F0020B8260020EDC8010073B5044631
:10CAA0000D4616460C3001F043F88DE86000221D5B
:10CAB000034606CAD4F8880101F05CFA02B070BDE2
:10CAC000F8B5164605460C461F46FFF78FFFB042E5
:10CAD00028D0A4F118010E2926D8DFE801F0080BB0
:10CAE0000E1114252525252525252525170005F5B5
:10CAF0009E740DE005F5A0740AE005F5A27407E048
:10CB000005F5A47404E005F5A67401E005F5AA7422
:10CB10002146304601F058F827B104222146284624
:10CB2000FFF7BCFF0120F8BD0020F8BD094B99427A
:10CB300010B504460DD10021D0F8880101F094F918
:10CB400004F10C004FF4B272FF21BDE8104012F066
:10CB50001FBC10BDEFBEADDE38B504460846114619
:10CB60001A4623461D1B954208D213F8015BFF2D80
:10CB7000F8D0214612F00EFB002006E011B112F0B1
:10CB800009FB01E012F004FC012080F0010038BD37
:10CB900070B504468AB016461D46352900F24B8111
:10CBA000DFE811F036004901490142004600220148
:10CBB0004C0052005600670049016D00720077007A
:10CBC0007E00830088008E0094009A00A000A500DB
:10CBD000AC004901490149014901490149014901A3
:10CBE000C600CC00D200D700B200B700BC00C10024
:10CBF0004901DD00E200E700EC00F600FE0006015E
:10CC00000D01140149011D012A01300136014101C4
:10CC10008B4902A813F062F82B4602AA314604F1B0
:10CC20000C0000F0A1FFFCE000223146C06E62E083
:10CC30004FF496723146D0F8900002E0006F002267
:10CC4000314600F0D1FFECE000223146406FF8E7BA
:10CC50007C4B00930025694602A8ADF804508DF87E
:10CC6000065002F00FF8102302AA314604F17800B2
:10CC700013E06FF03B023146D0F8880085E00422D3
:10CC80003146D0F8940080E0A0223146D0F89800D8
:10CC9000D7E76D4A062331469C30FFF75DFFC0E0C1
:10CCA00002223146D0F8A4006FE00A223146D0F8C3
:10CCB000A8006AE04FF4FA623146D0F8AC00C0E751
:10CCC0004FF47A723146D0F8B000BAE741F65832E4
:10CCD0003146D0F8B400B4E74FF4C8723146D0F80A
:10CCE000B800AEE74B223146D0F8BC004DE0D0F89A
:10CCF000C0000322314600F069FF92E04FF4B472A5
:10CD00003146D0F8C4009CE700223146D0F8D40068
:10CD100097E7102300223146D830BEE710230022C7
:10CD20003146E830B9E7102300223146F830B4E745
:10CD300040F6B8323146D0F8080182E740F6B83202
:10CD40003146D0F80C017CE732223146D0F8100190
:10CD500077E740F6B8323146D0F8140171E7A022E7
:10CD60003146D0F818016CE79E223146D0F81C01FC
:10CD700067E70F223146D0F8200162E7D0F88C3106
:10CD8000D0F8240193F92820314600F026FF48E02E
:10CD9000D0F88C3194ED4A0AD3ED050A10463EE0F6
:10CDA000D0F88C3194ED4B0AD3ED060A104636E0EC
:10CDB000D0F88C31D0F83001DA6931460CE0D0F887
:10CDC0008C31D0F834011A6A314605E0D0F88C3144
:10CDD000D0F838015A6A314600F019FF21E01B4AA9
:10CDE000D0F85C01314604E0D0F8600144F62062DE
:10CDF000314600F002FF14E04FF47A523146D0F889
:10CE00008C001EE74FF47A723146D0F8640118E7BF
:10CE1000D0F88C3194ED5A0AD3ED0B0A104600F08D
:10CE200013FF002009E0D0F88C3194ED5B0AD3EDBC
:10CE30000C0A1046F3E740F202300AB070BD00BFA2
:10CE4000D6390300DC390300013A03009EA641A64F
:10CE50002DE9F041352982B098BF1B4B98BF5B5C30
:10CE600000AF88BF002304460D461646FB8023B35F
:10CE7000FFF7D5FD07F10803E84633F8022D073226
:10CE800022F00702ADEB020D20466A462946FFF765
:10CE90007FFE044670B97268FB88101D08D03169A6
:10CEA0008B4205D85380F26869465A4312F072F9F2
:10CEB00073681D702046C54601E040F20230083715
:10CEC000BD46BDE8F08100BFA039030013B502AB39
:10CED000002423F8024DFFF75BFE02B010BD10B432
:10CEE000034608461946CC1AA24208D911F8014B4C
:10CEF000FF2CF8D019465DF8044B12F04BB95DF8E1
:10CF0000044B70472DE9F04389B01F46064688461A
:10CF10001546BDF84030352900F2CB80DFE801F03E
:10CF20001BC9C92E2BAD3134373AC93D4043474A5E
:10CF30004D505356595C63C9C9C9C9C9C9C9777A23
:10CF40007D8066696C6FC98386898C94979A9DA051
:10CF5000A7AAB4B7BEC104AA00F10C04029205EB63
:10CF60000309002D40F0A880B9F1000F00F0A48063
:10CF700068480EF0ADF800F190048AE000F16C040E
:10CF80002CE000F1700484E000F1740481E000F111
:10CF9000780436E000F1880450E000F194044DE09C
:10CFA00000F1980475E000F19C0406222AE000F1EB
:10CFB000A40443E000F1A80440E000F1AC0468E000
:10CFC00000F1B00465E000F1B40462E000F1B804DF
:10CFD0005FE000F1BC0431E000F1C0042146287894
:10CFE00000F0F2FD84E000F1C40452E000F1D4044A
:10CFF0004FE000F1D80404E000F1E80401E000F1A2
:10D00000F804102221462846FFF769FF70E000F57A
:10D0100084743EE000F586743BE000F5887438E0E7
:10D0200000F58A7435E000F58C7432E000F58E74FA
:10D030002FE000F590742CE000F59274214695F9EC
:10D04000000000F0C8FD53E000F594742BE000F5FB
:10D05000967428E000F5987404E000F59A7401E0F5
:10D0600000F59C742146286800F0CDFD40E000F5F5
:10D07000AC740EE000F5AE7401E000F5B07421462A
:10D08000286800F0B6FD33E000F18C0401E000F503
:10D09000B2742146288800F0A5FD29E000F5B4749B
:10D0A00001E000F5B674204695ED000A00F0B5FDEC
:10D0B0001EE040F2023029E00F2B019307D9002235
:10D0C00001A902A80EF05CF8019B029004934A4665
:10D0D000294602980EF082F8019B029A03930021E0
:10D0E000D15402A8214600F039FD02A80EF06EF8D6
:10D0F0005FB1094B13F80820032A304698BF042279
:10D100002146FFF7CBFC002000E0384609B0BDE81F
:10D11000F08300BF083A0300A03903002DE9F34172
:10D120001D46DBB206460F469046FFF7F6FB044667
:10D13000C0B930460D4E9DF8203000954246FFF7AD
:10D14000E1FE3368DB07044606D430460DF096FF57
:10D1500010B130460DF0AEFF2B464246394604482A
:10D1600001F044FD204602B0BDE8F081AC2F002064
:10D17000B02F002010B504460DF0F0F8204610BD89
:10D180002420704710B5144642680A6003681B6982
:10D190009847208010BD7920704710B5144642682A
:10D1A0000A6003681B699847208010BD10B50446CB
:10D1B00000F5B8700EF00AF8204610BD70477047B1
:10D1C00010B504460DF0CAF8204610BD10B504464F
:10D1D0000DF0C4F8204610BD2D2A08B502D8012054
:10D1E00011F0EAF94160002008BD782A08B502D89C
:10D1F000012011F0E1F94160002008BD08B501F0FF
:10D20000F0FAC0EBC000013080B208BD08B501F0F3
:10D21000ADFB00EB40008000013080B208BDFFFF95
:10D2200010B50A4C2368DB070ED420460DF026FF0C
:10D2300050B1074800F062FD20460DF03BFF054A63
:10D24000054903480DF084F8014810BDEC2F00207B
:10D25000F02F0020B8260020EDC801000022027047
:10D260004260C0F83821C0F83C21C0F84021C0F825
:10D270004421C0F84821C0F84C21C0F85021C0F822
:10D280005421C0F8582180F85C21C0F8602180F852
:10D290006421704781F08001122918D801230D48BC
:10D2A0008B40184048B913F4866F10D00A4B5B5C72
:10D2B000934234BF0022012204E0074B5B5C9B1ABF
:10D2C0005A425A41002A14BF0020022070474FF4EE
:10D2D00080607047CFFB0700E43A030007B54FF4C6
:10D2E0009073009300F1100200F1180306CA406821
:10D2F00000F0D6FD03B05DF804FBFFFF2DE9F04F11
:10D30000ADF6FC7D0546FFF78BFF83796860002B47
:10D3100000F0E780754C05F10802022100F062FD83
:10D320002368D8070ED420460DF0A8FE50B17048EF
:10D33000FFF7E4FA20460DF0BDFE6E4A6E496C48D8
:10D340000DF006F826216A48FFF750FB0DF5D36172
:10D3500000280DF5C96014BF64270027D5F808B070
:10D36000D5F80CA000F0E4FB81461C200DF094FBE6
:10D3700000264FF6FF78078147810660A0F80480F9
:10D38000C680C0F80CB0C0F810A0A0F814900446F5
:10D39000FFF746FF02AF4FF44872A38A2060019264
:10D3A000009704F10C0206CA00F09AFD334637F8E4
:10D3B0002320424502D0E18891427DD90133C82B18
:10D3C000F5D10DF5C9610846C5F83C41D5F808B05E
:10D3D000D5F80CA000F0ACFB81461C200DF05CFBE6
:10D3E00000264FF6FF780660A0F80480C680A0F8FB
:10D3F0000880A0F80A80C0F80CB0C0F810A0A0F80F
:10D4000014900446FFF70CFF5022A38A206001927B
:10D41000009704F10C0206CA00F062FD334637F8AB
:10D420002320424502D0E18891424CD90133142B8C
:10D43000F5D10DF6B811C5F838410DF5C960D5F82C
:10D4400008A0D5F80C9000F073FB804628200DF062
:10D4500023FB00264FF6FF73838006608660C6605C
:10D460000661C0F814A0C0F81890A0F81C8004460B
:10D47000FFF7D6FE4FF4C862A38B2060019200979D
:10D4800004F1140206CA00F02BFD334657F833208E
:10D49000511C02D0A1688A421CD20133C82BF5D19D
:10D4A000C5F8404105F110020121686800F09AFCBE
:10D4B0002846FFF713FF14E0E28007EB8302A38006
:10D4C000528822817AE7E28007EB8302A3805288A8
:10D4D0002281ABE7A26007EBC302A3805268E2603F
:10D4E000DBE70DF6FC7DBDE8F08F00BF603000206B
:10D4F00064300020B8260020ADD1010073B5144679
:10D500000546033418300E4624F0030400F010FBE7
:10D51000A4B20194009605F11002034606CA686899
:10D5200000F028FD02B070BD852904D1792200F1F8
:10D530004C01FFF7E3BF7047D0F84431C0F84831E1
:10D540007047FFFF124B994210B504461ED10221CD
:10D55000406800F089FC0121606800F085FC4FF410
:10D560009072FF2104F1180011F012FFD4F83C3141
:10D570005A891A810022DA80D4F838315989198100
:10D58000DA80D4F840311969D9609A6010BD00BFC3
:10D59000EFBEADDE38B544680346201D09D01D69D5
:10D5A000AA4208D8DB6862805A4311F0F3FD0020DC
:10D5B00038BD012038BD022038BDF8B514461A46E2
:10D5C00005460F461E46FFF765FE002848D1A7F125
:10D5D0008001102942D8DFE801F0151A411E242AE3
:10D5E0000F09210C3038414141413C00D5F8503100
:10D5F0002DE095F85C312EE000222146A86900F06C
:10D60000E5FA29E0D5F838311B89238024E0D5F8E4
:10D610003C311B891FE0D5F8543118E0D5F858315A
:10D6200015E033460022214605F11C000AE033468E
:10D630000022214605F14C0004E033460022214639
:10D6400005F1C800FFF788FA06E0D5F860312360DD
:10D6500002E095F8643123700020F8BD4FF480603B
:10D66000F8BDFFFF2DE9F04385B0A1F1800300AFC5
:10D670000446884615460B2B5ED8DFE803F04106CA
:10D680005D5D08275D4343065D4301263BE02D4B6E
:10D690007B60381D4FF496736E468CB0BB81C7F823
:10D6A00008D001F0A2F820462E236A468421FFF715
:10D6B00084FF044610BB381DFFF7A0FD69460246F3
:10D6C0002846FFF767FF6B68842216E01E4B7B60DD
:10D6D0006E46A0B079236A468521C7F808D0FFF7C7
:10D6E0006CFF044650B9381DFFF790FD69460246AD
:10D6F0002846FFF74FFF6B6885221A70B54619E080
:10D70000022600E00426F31D23F00703E946ADEBF3
:10D71000030D204633466A464146FFF74EFF044656
:10D7200038B9324669462846FFF734FF6B6883F8FC
:10D730000080CD46204601E04FF480601437BD469E
:10D74000BDE8F083903A0300B03A030070B50C1ABC
:10D75000A410002C034616DD15780678AE422BD0B7
:10D760004678AE4201D1013070BD8678AE4201D11B
:10D77000023070BD043010F8016CAE4201D1D81CEB
:10D7800070BD013CE5E70C1A022C09D0032C02D035
:10D79000012C10D109E005781478A5420CD0013392
:10D7A0001C781078844204D00133187812789042A3
:10D7B00001D1184670BD084670BD13B502AA0446D3
:10D7C00002F8011D4FF00003D0F84811D0F84401D1
:10D7D000FFF7BCFFD4F84831181A18BF012002B077
:10D7E00010BDFFFF2DE9FF41144D1E462B68DB07DE
:10D7F00080460C46174606D428460DF03FFC10B173
:10D8000028460DF057FC21460D4833463A4601F0B4
:10D81000EDF921464046FFF7D0FF58B10C2301AA8D
:10D8200040F2151106488DF804400297ADF80C60DF
:10D8300001F0DCF904B0BDE8F08100BFAC2F00209E
:10D84000B02F00202DE9F043154685B01A46044656
:10D8500088461F46FFF71EFD002840F0B880A8F15B
:10D860008003122B00F2B180DFE803F03112AF5BCE
:10D8700063701F0A5F0E777A7E848A90989AA00060
:10D880002B68C4F8503198E02B7884F85C3194E030
:10D89000D4F83C6195F8009033894B4500F08D80B9
:10D8A000B38801339BB2C8211CE0002203A9A06900
:10D8B00095F8009000F0A1F9039B99457DD004F103
:10D8C00018063146484600F094F9042239E0D4F8AD
:10D8D0003861B5F8009033894B456ED0B388013379
:10D8E0009BB21421B3FBF1F201FB1233F288A6F8CC
:10D8F0001A90013292B2F2803283B28A9BB2B38024
:10D9000002EB83030422019206F11802009206F151
:10D910000C029BB206CA306800F02CFBA6F80890F7
:10D920004BE02B68C4F8543147E02B68C4F85831F9
:10D9300043E004F11C063A4631462846FFF7CFFA89
:10D940003A4631462046FFF7D9FD36E03A4604F123
:10D950004C012846FFF7C3FA2FE004F1C806EAE7B6
:10D960002B68C4F8603128E094F860312A7862F3BB
:10D97000000310E094F860312A7862F341030AE072
:10D9800094F860312A7862F3820304E094F86031FD
:10D990002A7862F3C30384F860310EE02B780AE042
:10D9A00094F864312A7862F3000304E094F8643157
:10D9B0002A7862F3410384F8643120463B462A46C4
:10D9C0004146FFF70FFF002001E04FF4806005B0F3
:10D9D000BDE8F083802930B408D1022B04D114684B
:10D9E00024B930BCFFF72EBF022001E040F2014015
:10D9F00030BC70472DE9F34105468DF80710002A29
:10DA00004BD0C9B2FFF7D9FE002861D1D5F8483113
:10DA1000D5F84C21934207D09DF8072003B11A7026
:10DA2000D5F84831013351E0D5F844219B1A5A1CEE
:10DA300002D129480DF064FB002B14BF1C460124C1
:10DA40001C1901D23CB101E04FF0FF3420460DF02B
:10DA500023F8074600E02746D5F84481D5F8486109
:10DA60009DF80730C8EB0606F74218BFBB5526B134
:10DA700032464146384611F027FC01363E44B8F1A3
:10DA8000000F02D040460CF069FC3C44C5F84471DC
:10DA9000C5F84861C5F84C411AE0D0F84811D0F8F3
:10DAA00044010DF107024FF00003FFF74FFED5F8D8
:10DAB0004821824201460BD001318A4203D0521ADA
:10DAC00001D011F001FCD5F84831013BC5F84831CF
:10DAD00002B0BDE8F08100BFC83A030000F10803BE
:10DAE00073B5044603600D4681B1084612F048FB49
:10DAF0000F2805EB000601900BD9002201A9204652
:10DB00000DF03EFB019B2060A36002E007480DF092
:10DB1000DFFA3246294620680DF060FB019B22683F
:10DB2000636000212046D15402B070BD083A030062
:10DB3000081A80B270471F2970B506460D46144674
:10DB40000BD820220021204611F022FC2A46314623
:10DB50002046BDE8704011F01DBB70BD0A468188AB
:10DB60000068FFF7E8BFFFFFF0B58DB005460E4631
:10DB70000146684617461C46FFF7B0FF1149684644
:10DB80000DF0A6FC70B1EB7FFF2B0BD0019D00992F
:10DB90002A46304611F0FEFA258068460DF016FB45
:10DBA0000DB0F0BD394606A8FFF798FF079D06990E
:10DBB0002A46304611F0EEFA258006A80DF006FB45
:10DBC000EBE700BF283E030008607047431C0CBF12
:10DBD0000A700870704708607047431C0CBF0A70D9
:10DBE0000870704708607047431C0CBF0A800880AB
:10DBF0007047431C18BF08607047B0F1FF3F08BF73
:10DC0000104608607047431C18BF08607047B0F1A9
:10DC1000FF3F08BF10460860704782B08DED010AD3
:10DC20009DF80430FF2B0BD19DF80530FF2B07D159
:10DC30009DF80630FF2B03D19DF80730FF2B01D054
:10DC4000019B036002B0704782B08DED010A9DF820
:10DC50000430FF2B0ED19DF80530FF2B0AD19DF823
:10DC60000630FF2B06D19DF80730FF2B02D1C0ED07
:10DC7000000A01E0019B036002B0704740F2051307
:10DC8000994210B503D0B1F5837F03D010BD0123B5
:10DC9000C37110BD0023C371C38A13B3114C236831
:10DCA000DB070ED420460DF0E9F950B10E48FEF71F
:10DCB00025FE20460DF0FEF90C4A0D490A480CF0ED
:10DCC00047FB18210848FEF791FE014648B9094A6A
:10DCD0000BF068FD28B1084AC321BDE81040FEF7EB
:10DCE000CCBD10BD6030002064300020B82600207C
:10DCF000ADD101006DE00100683B030038B51B4B5E
:10DD00001B4D036000238371C371C3604382C382D0
:10DD1000037680F86C302B68164981604FF6FF72ED
:10DD20000521DB07044682800182828206D42846D0
:10DD30000DF0A4F910B128460DF0BCF921460E48AB
:10DD400004F11C0500F074FF50220021284611F058
:10DD50001FFB238A052B07D8237E2BB94FF6FF72B2
:10DD6000E5606382A282E382204638BDBC3B0300AB
:10DD7000AC2F0020483B0300B02F002090F86C30FF
:10DD800013B1013B80F86C307047FFFF08B51046B7
:10DD90002AB1074A2921BDE80840FEF76EBD0429D3
:10DDA00005D1FFF73DFABDE80840FFF7E7BF08BD22
:10DDB000683B03000A4803788B4208D0037C8B42FF
:10DDC00007D090F820308B4207D1022302E00023D5
:10DDD00000E0012300EB031070470020704700BFF4
:10DDE000C026002008B5FFF7E5FF20B1043003C8C6
:10DDF00082E80300012008BD07B5012202A8ADF8A2
:10DE00000620084AADF8041040F8082D19460BF01A
:10DE100059F818B1044AED21FEF72FFD03B05DF863
:10DE200004FB00BF8DDD0100683B030070B50546B3
:10DE30000AF0F2FF18B10A4A4F21FEF71EFD094E03
:10DE400000243119231D33440122898928461034C6
:10DE5000FFF7D2FF302CF4D10123AB7170BD00BFAE
:10DE6000683B0300C026002013B5FFF7A3FF04465C
:10DE700090B16A46002104300BF092F818B1074ABD
:10DE8000FC21FEF7FAFCA18968460BF06FF918B186
:10DE9000024AFE21FEF7F1FC02B010BD683B030010
:10DEA0001FB58DE80600684602AA00211C460BF04B
:10DEB00077F820B1094A40F20711FEF7DEFC002393
:10DEC000BDF8182002A920460BF006F920B1034A3C
:10DED00040F20911FEF7D1FC04B010BD683B03000D
:10DEE0001FB58DE80600684602AA00211C460BF00B
:10DEF00057F820B1094A40F21911FEF7BEFC23463B
:10DF0000BDF81C20069802A90BF0E6F820B1034AE0
:10DF100040F21B11FEF7B1FC04B010BD683B0300DA
:10DF200084B070B58589C68905AC84E80E000135DA
:10DF30000289ADB2B5FBF2F302FB1355731C9BB221
:10DF4000ADB29A428581C38108D24389C68101332B
:10DF50009BB2B3FBF2F102FB11334381436803EB45
:10DF6000051594E80F0085E80F00BDE8704004B087
:10DF70007047FFFF2DE9F0418AB0054604AC02A8C6
:10DF800080E80600224600219846109EBDF84470A5
:10DF90000BF006F820B1164A4FF49671FEF76DFCAF
:10DFA000EB79B3B1EA8A2B8A9A421ED094E8030037
:10DFB0000AAB03E90300099B0093ADF81E80ADF89E
:10DFC0001C70069606AB0ECB05F10800FFF7A8FF04
:10DFD0000BE043463A46314620460BF043F820B169
:10DFE000034A40F25311FEF748FC0AB0BDE8F08145
:10DFF000683B0300F0B5C38A87B00446002B31D0DC
:10E00000E78A7FB3668AE36803EB06130FCB02ADA2
:10E0100085E80F000136228AB6B2B6FBF2F302FBA6
:10E020001366E3796682013FE7829BB994F86C300E
:10E03000BDF80C20013384F86C300146BDF80E3079
:10E0400004A80BF00FF80028DAD0074A9A21FEF74F
:10E0500014FCD5E7059B009395E80E0004F1080039
:10E06000FFF75EFF07B0F0BD683B030008B5FFF7A0
:10E07000D7F8BDE80840FFF7BDBFFFFF034B002204
:10E08000C3F8002501225A60DA6070470020004082
:10E090000FB4002004B07047014B01221A70704782
:10E0A000F4310020002310B504468363C36380F875
:10E0B000403080F8413008200CF0EEFC084B036043
:10E0C000012303710423A063437108200CF0E4FCD6
:10E0D00004F114030360A36B4360E063204610BDAA
:10E0E00000A0004090F8403070B505460E4653B190
:10E0F000642A28BF642294B222463146E86B0BF0B2
:10E1000055FE1128F8D070BDF8B50D4606461746E5
:10E1100004460FCD0FC42B6823600A4A86F841706D
:10E120003146F06B0BF04CFE18B1074A7521FEF733
:10E13000A4FBF06B0BF098FF012386F84030002021
:10E14000F8BD00BF99E00100C83B03002DE9F04194
:10E150000D4D0E4C1E462B6813F0010F0F469046D6
:10E1600009D128460CF08AFF28B12846C4F800805F
:10E1700027610CF09FFF0EB1002300E00123237202
:10E180000248BDE8F08100BFF8310020F0260020F1
:10E190000368827A018940681847704710B50446C1
:10E1A00008200CF079FC094A026004220023427125
:10E1B0000222037184F8222023756060E3602361EA
:10E1C000A361E3612384204610BD00BF009000409E
:10E1D00007B50023072A01930093084698BF0C4B0C
:10E1E0004FF004018DF802104FF0020198BF9B5CC4
:10E1F0008DF8041069468DF806300BF039F918B126
:10E20000044A9021FEF739FB002003B05DF804FBBF
:10E210004B3C03000F3C03008161704740680BF0EA
:10E220005FB8FFFF10B504460846C8210BF04AF955
:10E2300018B1044ABF21FEF720FB237D013323756B
:10E2400010BD00BF0F3C030030B5044687B02AB1B3
:10E250000B780370012A84BF4B784370A2700AF0D8
:10E26000ABF8852804D018B1384A3921FEF705FBF0
:10E27000374A92E8030004AB83E80300354A60683C
:10E2800019460AF0D3FF18B1304A4521FEF7F5FAD6
:10E2900060680368D3F8102500214FF44865D2B2B6
:10E2A000012325FA02F200910BF06EF863681D68F5
:10E2B00004F1080005F5A0750AF088F818B1234AA2
:10E2C0005121FEF7DAFA244A207A29460AF0D6F8D4
:10E2D00018B11E4A5421FEF7D0FA207A0AF0F0F85D
:10E2E00018B11A4A5721FEF7C8FA1C4B1C491A8864
:10E2F0009B78ADF80C2003A88DF80E300BF080F859
:10E3000018B1124A6121FEF7B8FA0025A3789D42A0
:10E3100006DA625DE9B22046FFF75AFF0135F5E7FC
:10E320004FF4C8700CF004FC0146E0602046FFF793
:10E3300079FF4FF4C8700CF0FBFB014620612046CA
:10E34000FFF770FF002007B030BD00BF0F3C030097
:10E35000043C03009BE10100047000400C3C0300FE
:10E36000D1E3010008B5C3698B424FF0000308D127
:10E37000C3610384022380F82230FFF753FF01209A
:10E3800008BD184608BDFFFF08B5037D013B0375B6
:10E3900083699BB1C3698BB9C82303840223C1611C
:10E3A00080F82230084A0C2118300BF0FBF948B1F4
:10E3B000064AE121BDE80840FEF75FBABDE8084023
:10E3C000FFF730BF08BD00BF91E101000F3C030023
:10E3D00038B5037805469BB90A4C2368DB0709D496
:10E3E00020460CF04BFE28B10748FFF7D7FE204629
:10E3F0000CF060FE69680448BDE83840FFF7C4BF10
:10E4000038BD00BFFC3100200032002003680079D5
:10E4100018477047FFFFFFFF30B52DED028BB4EEBC
:10E42000E00AF1EE10FA85B00C46F0EE408AB0EE4C
:10E43000608A02D4012010F0BFF84D4B4D4AD3F84A
:10E44000043583604C4B1B68C3F30423136010EE48
:10E45000100A0EF09FFA40A3D3E900230EF07EFDD0
:10E46000C8B1DFED467A68EEA77A17EE900A0EF093
:10E4700091FA3BA3D3E900230EF02EF93AA3D3E996
:10E4800000230EF005FC00223D4B0EF023F90EF0A8
:10E4900097FDC5B200E0054618EE100A0EF07AFAB4
:10E4A0002DA3D3E900230EF059FDC0B1DFED337A7F
:10E4B00068EE277A17EE900A0EF06CFA28A3D3E9DB
:10E4C00000230EF009F928A3D3E900230EF0E0FBA6
:10E4D00000222B4B0EF0FEF80EF072FDC0B20023AE
:10E4E00004210622072C8DF804108DF806308DF8D3
:10E4F00007508DF808008DF809308DF80A308DF836
:10E500000B308DF80D2095D8013C944214D8DFE8EB
:10E5100004F00406080A0D0F120001230CE0022388
:10E520000AE0032308E08DF80C1007E0052303E060
:10E530008DF80C2002E007238DF80C30114901A85A
:10E5400009F0A8FC18B1104A5021FEF796F905B061
:10E55000BDEC028B30BD00BF666666666666AA3F8C
:10E56000666666666666FA3F6666666666660A4060
:10E5700000B00040403501402403001000008042FC
:10E580000000F03F39E60100533C03000139032944
:10E590000DD8DFE801F002040806042004E00220A0
:10E5A00002E0082000E00620002109F0DBBC7047F3
:10E5B00009F0EABCA1F5807110B504460C290ED80B
:10E5C000DFE801F00F0D0D0D070D0D0D090D0D0DFF
:10E5D0000B00022304E0012302E0042300E00023F7
:10E5E000237123680BB3114BA168D3F80425D3F82A
:10E5F0000835511A21F07F414FF448120133B2FB24
:10E60000F3F34FF47A72B3FBF2F3994209D9084A53
:10E61000082120460BF0C6F818B1064A9921FEF7EA
:10E620002CF9024BD3F80435A36010BD00B00040B4
:10E630000DE40100533C030038B5094C2368DB07A7
:10E64000054606D420460CF019FD10B120460CF00A
:10E6500031FD29460348BDE83840FFF7ABBF00BF96
:10E66000243200202832002039DF70473ADF70471B
:10E67000002303607047FFFF73B502AC002304F86A
:10E68000013D06460D469DF80730AB4209D22046B3
:10E69000FFF7EAFF0028F6D0074A1421FEF7EDF84D
:10E6A000F1E729463046FFF7E1FF18B1024A17218A
:10E6B000FEF7E3F802B070BD903C030037B502AD41
:10E6C000002305F8013D04469DF80730012B09D8C9
:10E6D0002846FFF7C9FF0028F6D00C4A3421FEF780
:10E6E000CCF8F1E702212046FFF7C0FF18B1074A36
:10E6F0003921FEF7C2F823784FF0000063F30700DA
:10E70000637863F30F2080B203B030BD903C030008
:10E71000406800B1007870475B220021406810F02B
:10E7200037BE2DE9F0474568064688461746002D56
:10E7300055D0FFF7EDFF05F101098246002454454D
:10E740001CDA49460622404610F0F2FC09F109099C
:10E7500090B904EBC40425442A8995F9073002FBDB
:10E760000373013293FBF2F2EA7173681C4423894C
:10E7700001332381BDE8F0870134E0E7BAF1090FE6
:10E7800012D900224FF0FF337F2002EBC20129444F
:10E7900091F90710814203DA8F42C4BF53B2084691
:10E7A00001320A2AF1D103E02B785A1C2A705BB29D
:10E7B000002B14DB716803EBC3020A44D8F8001085
:10E7C000C2F80110B8F80410A2F80510726803EB43
:10E7D000C303134401221A7200225A72DF71BDE88A
:10E7E000F087406800B1007870472E220021406811
:10E7F00010F0CEBDD0F80330D3B18B4218D242789E
:10E8000002F00F02012A0CD005D30023C37003715C
:10E81000437183710CE0B0F807203C2101FB023307
:10E8200003E003F5A83303F5C073C0F80330704765
:10E830007047FFFF2DE9D0430C46D0F80310164671
:10E840001F4600294AD0A14245D2437803F00F0366
:10E85000012B1ED004D3022B4FF0000130D035E045
:10E86000B0F8073041F294183C224FF00009B0454F
:10E8700002FB03F379EB070207DB4FEA53084FF083
:10E880000009464577EB090225DBCA431C441444C2
:10E890000BE041F294120023B242BB411BDAC1F5F6
:10E8A000A83303F27F131C440E4BB4FBF3F403FBB9
:10E8B0000411C0F80310201C18BF0120BDE8D0834C
:10E8C00041F294120023B242BB4107DAC1700171D8
:10E8D0004171817102E00020BDE8D0830846BDE8A7
:10E8E000D08300BF80510100407800097047437811
:10E8F00003F00F02012A07D002D3022A06D00AE051
:10E90000B0F8070010B97047C07928B12F2B8CBF21
:10E910000020012070470020704703065ABF0841BD
:10E9200000F0010001207047D0F80330C3B18B42E2
:10E9300016D2427802F00F02012A03D012D3022A23
:10E940000ED10FE00849B3FBF1F307210433B3FB09
:10E95000F1F1C1EBC101591AC9B2C079FFF7DDBFAE
:10E9600000207047012070478051010043681878EB
:10E970007047092938B50546144601D9002038BD2D
:10E9800043680A221A702046FFF7B1FF0028F5D02D
:10E990006B680C2202FB01312368C1F80130636807
:10E9A000C1F80530A368C1F8093038BD09290AD873
:10E9B00043680C2202FB013100230B714B718B71F8
:10E9C000CB710120704700207047F8B543681C7870
:10E9D0000A3C064618BF012400250C2770680378FE
:10E9E000E9B2994202D30C2500210BE007FB01009C
:10E9F0000130FFF77CFF18B93046FFF7D7FF01243D
:10EA00000135EBE7092B08D805FB0302013311712F
:10EA100051719171D171DBB2F4E70A230370204682
:10EA2000F8BD2DE9F84F002481460F46A046264642
:10EA30004FF00C0AD9F804502A78A3B29A4213D99D
:10EA40000AFB035505F1010B39465846FFF76CFFE9
:10EA500020B16B6898453CBF98465E46394658469B
:10EA6000FFF7C8FE0134E5E73046BDE8F88F2DE931
:10EA7000F04700248246884616461F4625464FF03A
:10EA80000C09DAF804000278A3B29A420CD909FB07
:10EA9000030032463B4641460130FFF7CBFE0028DB
:10EAA00018BF01250134ECE72846BDE8F087704720
:10EAB0000368DB6818474FF4EC70704710B51446D4
:10EAC00042680A6003681B699847208010BD704740
:10EAD0007047704710B504460BF040FC204610BD4F
:10EAE00010B504460BF03AFC204610BD10B50446A4
:10EAF0000BF034FC204610BD10B50E4A0E4C0260DF
:10EB00004B210022846044610C4C4260C26001824F
:10EB1000827482618183827704624262018580F817
:10EB20002A20C4620263818680F8362080F838206B
:10EB300010BD00BF403D0300103D0300203D030019
:10EB4000C268002313705370826913705370426A55
:10EB500013705370026B137053707047023A03893D
:10EB6000C2F34F02934201D8837A0BB10020704761
:10EB700041600B704B7001207047093A038992B2D3
:10EB8000934201D8837A0BB10020704741600B702B
:10EB90004B7001207047036870B5DB681646044669
:10EBA0000D469847B0421FD829466560982204F167
:10EBB0000800FFF7D3FF61689822114404F11400A4
:10EBC000FFF7CCFF6168542201F5987104F1200031
:10EBD000FFF7D3FF6168542201F5C27104F12C00E4
:10EBE000FFF7CBFF002070BD012070BD2DE9F0477D
:10EBF0000E4617469846051F00F138044FF6FF7978
:10EC000055F8040F20B183889E4205D04B4503D0B0
:10EC1000A542F5D1BDE8F08703683A46D3F808A0CD
:10EC200031464346D047F3E700231A46FFF7DEBFDD
:10EC300008B5002350F823201AB940F8231001200A
:10EC400008BD01330F2BF5D1034A3C210420FDF709
:10EC500014FE002008BD00BF643D030063DF704761
:10EC600064DF704782B0838882798DF806209BB27A
:10EC7000002063F30F00BDF8063063F31F4002B0BD
:10EC80007047FFFF2DE9F843002480468946264659
:10EC900025462746D9F80030DB5D002B37D00F2DF5
:10ECA00005DD1F4A1F485821FDF7E1FD35E02D2BFA
:10ECB0002BD0202B29D0A3F13002D2B2092A12D9AD
:10ECC000A3F14102052A01D8373B04E0A3F1610218
:10ECD000052A02D8573BDAB205E0114A124848210A
:10ECE000FDF7C5FD002202EB0413F20748BFC5F192
:10ECF0000F0203F0FF0406F1010341BF08F80240D0
:10ED00001E460135002458BF1E460137C2E70F2DAD
:10ED100003DC034A05485621C6E74046BDE8F883B0
:10ED2000AB3D0300063E0300E43D0300F63D030057
:10ED300010B50268837986B004463AB333BB014606
:10ED400002A8FFF79FFF01AA02A91020FFF788FF82
:10ED500005280FD1A11D02A8FFF780FF18B1104AA6
:10ED60001B21FDF78AFD9DF815209DF8143043EA1C
:10ED7000022305E030B99DF80630A371BDF80430D8
:10ED8000A38009E0064A0748222103E023B9044A88
:10ED900005482521FDF76BFDA07906B010BD00BF29
:10EDA000AB3D0300153E0300293E030073DF7047AF
:10EDB00074DF704775DF704776DF704777DF704725
:10EDC00078DF70477ADF70477CDF70478ADF7047F3
:10EDD0008BDF7047A9DF704760DF704766DF7047E1
:10EDE00067DF704768DF70473FDF704740DF70477D
:10EDF00011DF704712DF704710B5064C2368DB0740
:10EE000006D420460CF03AF910B120460CF052F925
:10EE1000014810BD383200203432002010B5064CB5
:10EE20002368DB0706D420460CF028F910B12046F1
:10EE30000CF040F9014810BDAC2F0020B02F00208D
:10EE400010B50A4C2368DB070ED420460CF016F9E7
:10EE500050B10748FDF752FD20460CF02BF9054A4A
:10EE6000054903480BF074FA014810BD60300020DA
:10EE700064300020B8260020ADD1010010B50A4C46
:10EE80002368DB070ED420460CF0F8F850B1074891
:10EE900000F03AF820460CF00DF9054A0549034800
:10EEA0000BF056FA014810BDE83300203C32002038
:10EEB000B82600201DF0010010B50446006808B116
:10EEC0000FF026FE204610BD70B50B4E346814F0CE
:10EED00001040FD130460CF0D1F858B1074D30463F
:10EEE0002C60AC80AC710CF0E5F8054A0549284669
:10EEF0000BF02EFA014870BDF4330020EC330020F3
:10EF0000B8260020B9EE010000F1080370B54FF4F7
:10EF10001072036000230446436003720283837609
:10EF2000C3610362436214200BF0B6FD0546E0693D
:10EF300008B10BF013FA354BE56118682562F82328
:10EF400084F82C302823E385B42323864FF6FF73FF
:10EF5000E38714352E4B656204F184060025A36413
:10EF6000A3652C4BA366A062294684F82D50C4F8F3
:10EF70003250C4F8365084F83A5084F83B5084F844
:10EF80003C5084F83D502564E5642565E5652566BB
:10EF9000E56684F8705084F8825084F8835084F8D1
:10EFA0007C51C4F88C51C4F8A8512022304610F08E
:10EFB000EFF9C4F8A46004F1A806294620223046DF
:10EFC00010F0E6F9C4F8C86004F1CC062022294606
:10EFD000304610F0DDF9104BC4F8EC601A689B88DD
:10EFE000A4F8803094F82D30E267012262F3030325
:10EFF00062F3071384F82D304FF448724FF4C8734E
:10F000006386A2862387204670BD00BF383F030079
:10F01000203F03003C3F0300913E030010B504462F
:10F0200000F05CF9A36E04F16000DB68984704F11E
:10F03000500000F0CBFD04F1400000F0C7FDE06996
:10F0400008B10BF08BF920460CF0C0F8204610BD3B
:10F0500010B50446FFF712FF2146BDE8104000F04E
:10F0600027BCFFFF30B590F83A3091B00446002B32
:10F0700040F0AF800DF10700FFF7BCFE18B1564A13
:10F080009521FDF7FAFB9DF8073033B1FFF7B0FE8D
:10F0900018B1514A9821FDF7F0FB504B50494822D6
:10F0A00004F128000BF0CEF818B14B4A9F21FDF770
:10F0B000E4FB4C480BF000F918B1474AA821FDF7D2
:10F0C000DCFB142200210DEB020010F061F905AA0F
:10F0D000012100200BF016F918B13F4AB521FDF7C8
:10F0E000CCFB4FF4406309939DF820303E4A43F037
:10F0F00001038DF820300623ADF8143010AB05A8BD
:10F1000043F8382D1946FFF767FE042805460AD153
:10F110000022194605A80292FFF75EFE2E4ACA2178
:10F120002846FDF7AAFB00230393ADF810300C230B
:10F130000DEB0300ADF80E30FFF750FE18B1264A74
:10F14000ED21FDF79AFB626804F12D0552B192B2F0
:10F1500021682846FFF738FEC0B11F4AF521FDF7A8
:10F160008CFB13E00CAB21490A930AA800F0ECFDDC
:10F17000BDF82C200A992846FFF726FE18B1164A3A
:10F18000F921FDF77AFB0AA80CF020F8208BFFF795
:10F1900017FE18B1104AFB21FDF76FFB204600F067
:10F1A000FBF8204600F0BAFA204600F0E5F81048D7
:10F1B0000BF08CF820B1084A40F20311FDF75DFB1B
:10F1C0000120FFF711FE0320FFF710FE012384F852
:10F1D0003A3011B030BD00BF983E030041A3020099
:10F1E000F833002051F00100B8260020DC3E030077
:10F1F0003908020030B5044687B00BF0FDFF6268A5
:10F2000004F12D055AB192B221682846FFF7DCFDC2
:10F21000D0B10E4A40F21311FDF72FFB14E002AB00
:10F220000B490093684600F08FFDBDF8042000995B
:10F230002846FFF7C9FD20B1044A40F21711FDF737
:10F240001CFB68460BF0C2FF07B030BD983E0300C0
:10F25000DC3E030008B501830846FFF7B1FD30B17D
:10F26000034A40F21D11BDE80840FDF706BB08BD8A
:10F27000983E030038B5C469056AA54205D054F824
:10F28000040B03689B689847F7E738BD90F83B305C
:10F2900070B504466BB9C569066AAE4206D055F82A
:10F2A000040B036821461B699847F6E7012384F89D
:10F2B0003B3070BD70B5066AC469A6420DD054F8E3
:10F2C000045B2B6D002BF8D0FFF796FD2A46212119
:10F2D00005F1500000F01CFDEFE770BD70B504466D
:10F2E00000F05CF9E569266AAE4205D055F8040BDA
:10F2F00003685B699847F7E7002384F83A3070BDEC
:10F3000007B5036A426A0191934205D003B11960BF
:10F31000036A0433036203E001A91C3000F05DFCC2
:10F3200003B05DF804FB11F10C0F19D00EDC11F1E4
:10F330001E0F15D003DC11F1280F1CD110E011F1C4
:10F34000140F0DD011F1100F15D109E00B1D07D0CE
:10F3500003DC11F1080F0ED102E009B104290AD132
:10F3600090F92C308B4206D090F83A3080F82C106F
:10F370000BB100F001B8704708B590F92C00FFF709
:10F380001DFD30B1034A40F26B11BDE80840FDF7A6
:10F3900074BA08BD983E030008B53230FFF712FD7D
:10F3A00030B1044A40F26F11BDE80840FDF765BA7C
:10F3B00008BD00BF983E030038B54C220023C0F8BA
:10F3C0009031A0F890211722C0F894310446C0F87B
:10F3D0009811A0F8942100F5C87519463822F43028
:10F3E0000FF0D6FF062384F8F730C4F8185138BD63
:10F3F00010B5382204460021F4300FF0C9FF04F1A3
:10F400002C03C4F8F830062384F8F73010BDF8B5A3
:10F4100004460E463822002100F596700FF0B8FF22
:10F42000D4F8A851012384F82C318DB386B304F5A8
:10F43000CE770023022EC4F89C317B60BB600DD0D8
:10F44000032E06D0012E0DD14CF20103A4F89C31FD
:10F4500008E04CF20203A4F89C3103E04CF20303F1
:10F46000A4F89C31FFF7ECFC1921FDF7BFFAB8B105
:10F4700095F82C30A3B150351123A4F8A031012305
:10F4800084F85831C4F8A451C4F85471082300E03A
:10F490001D232279934228BF134684F82D31F8BDED
:10F4A0002E35E9E738B504461546FFF785FF2946AE
:10F4B0002046FFF7ACFF204600F0A8F82046BDE844
:10F4C000384000F011B838B504460D46FFF790FFFC
:10F4D00029462046FFF79BFF204600F097F820467C
:10F4E000BDE8384000F000B8002380F86431C0F86F
:10F4F000683180F86C31C38DA0F87431038EA0F8A8
:10F5000076317047002380F864317047032380F818
:10F510006431704790F83C3010B504464BB1FFF7AA
:10F5200047FC30F0080304D0104A4FF42471FDF773
:10F53000A4F904F5B270FFF739FC072802D01128AE
:10F5400012D008E0094A4FF42871FDF796F901231B
:10F5500084F83C3010BD20B1044A4FF42971FDF706
:10F560008CF9012384F83C3010BD00BF983E0300A5
:10F5700090F83C3010B5044663B900F5B270FFF75F
:10F5800015FC20B1044A4FF42D71FDF776F90123E3
:10F5900084F83C3010BD00BF983E030090F83C302A
:10F5A00010B5044663B1FFF703FC30F0080304D044
:10F5B000044A40F2C221FDF760F9002384F83C3090
:10F5C00010BD00BF983E030090F83C30CBB1C28F15
:10F5D0004FF6FF739A4214D190F83D308BB939B190
:10F5E00090F87C310133DBB280F87C31DB0703D546
:10F5F000002380F8643102E0032380F86431FFF7D0
:10F6000089BF704790F83C007047FFFF38B500F5A0
:10F61000967400F1F4052146284608F0A9FB68B16C
:10F6200007280BD02146284608F0A2FB30B1044A37
:10F630004FF44271BDE83840FDF71FB938BD00BF37
:10F64000983E03001FB590F83D3004464BBB9DF833
:10F650000020019342F0010263F34102ADF80C3047
:10F660008DF80020FFF7ECFB02AA2721FDF72EFC06
:10F67000FFF7E6FB0DF10A022821FDF727FC68469B
:10F68000FFF7A4FB20B1084A40F21E31FDF7F5F860
:10F69000012384F83D30FFF7C1FB40F20511FFF76D
:10F6A000C3FA04B010BD00BF983E030090F83D308F
:10F6B00010B5044693B1FFF78BFB20B1084A4FF415
:10F6C0004B71FDF7DAF8002384F83D30FFF7A6FB15
:10F6D0004FF48371BDE81040FFF7A6BA10BD00BF1C
:10F6E000983E030090F83D00704770B5C469066A03
:10F6F0000D46A64205D0294654F8040B00F08CFBB9
:10F70000F7E770BD0A68C26790F83A308A88A0F8B7
:10F7100080200BB100F002B87047FFFF07B502A9C7
:10F720007C3041F8080D2220FFF75CFB20B1044A31
:10F730004FF46B71FDF7A1F803B05DF804FB00BF57
:10F74000983E030070B50D4616460446FFF796FB3B
:10F7500033462A462146BDE8704000F020B813B574
:10F760000446FFF76DFB0DF107022A21FDF7AEFB02
:10F770009DF907102046FFF7D6FD02B010BD13B566
:10F780000446FFF75DFB0DF107020B21FDF79EFB21
:10F790009DF907102046FFF7C6FD02B010BD10B559
:10F7A0001278112A044602D0142A0DD00FE00868FE
:10F7B000C4F8F000FFF720FB00224FF4404104F1B1
:10F7C000C80000F0A5FA02E00BB100F0D3F9002068
:10F7D00010BDFFFFC28F4FF6FF739A4213B518D0CA
:10F7E00000F1F0040DF10701204606F063F920B1A5
:10F7F000094A40F22341FDF740F89DF8073043B92C
:10F80000204606F033F920B1034A40F22941FDF7C2
:10F8100034F802B010BD00BF983E030010B5044696
:10F82000FFF72CFB2146BDE81040FFF7D3BFFFFFD9
:10F830001FB5044604A800F8101D06F075F820B1A5
:10F84000184A40F23C41FDF718F80023CDF8093082
:10F8500007228DF80D308DF80A209DF8093010220E
:10F860008DF80B20104A019243F00303012201A9F5
:10F8700004F182008DF808208DF8093006F0C0F8F8
:10F8800020B1084A40F24C41FCF7F7FFFFF7B4FA09
:10F89000064904F1C80000F02BFA012384F88330F4
:10F8A00004B010BD983E030045F701001DF80100AB
:10F8B00090F883302DE9F04104460D4613B1084617
:10F8C00006F048F92B881C2B58D010D8102B1FD0CD
:10F8D00006D8012B00F0B680022B25D0BDE8F081C0
:10F8E000112B3FD01B2B00F0A780BDE8F081512BDE
:10F8F00044D006D81D2B00F09480502B49D0BDE891
:10F90000F081532B6FD07ED3552B37D0BDE8F081DB
:10F910002946204600F0E6F8FFF780FA40F213117E
:10F92000BDE8F041FFF780B9FFF7CEFA03682BB1CD
:10F930008288083A03F1080193B200E019469A1D43
:10F940008B1F2146A4F87820E08F41F8743FFFF721
:10F9500047FA00287CD03F4A40F27741BDE8F041A9
:10F96000FCF78BBF2946204600F0E8F8FFF756FA6F
:10F970004FF48A71BDE8F041FFF756B9E669246A91
:10F98000B44265D056F8040B036829469B69984732
:10F99000F6E7204600F088F82B7B062B16D1FFF700
:10F9A00093FA03680BB19E1C00E01E46276AE469C7
:10F9B0000635A7424CD054F8040B32880368294618
:10F9C0005B6A98470028F4D0BDE8F081E669276AB1
:10F9D000AC1DB7423CD056F8040BEA8803682146B8
:10F9E0005B6A9847F5E7266AE3699E4230D053F890
:10F9F000040BE988428D9142F7D1036829469B693F
:10FA0000BDE8F0411847002203231146E08FFFF7BD
:10FA1000E1F9E8B10F4A40F2CB41BDE8F041FCF713
:10FA20002CBFFFF7FBF92A464FF6FF734FF489719D
:10FA3000BDE8F041FFF7DAB82B7A4BB984F83C30D7
:10FA4000BDE8F08129462046BDE8F04100F0B0B89D
:10FA5000BDE8F081983E030008B5FFF70FFABDE856
:10FA6000084000F087B8FFFF10B50446EC34FFF7FC
:10FA7000C3F90749204600F03BF9FFF7BDF92046DE
:10FA800000224FF42021BDE8104000F041B900BF32
:10FA900059FA010010B50446FFF7AEF9D4F8EC00AE
:10FAA000BDE8104000F042B910B50446FFF7A4F9D4
:10FAB000D4F8EC0007F026FE18B1094A5021FCF7F3
:10FAC000DCFE00224FF42021D4F8EC0007F0DAFD30
:10FAD00028B1034A5121BDE81040FCF7CEBE10BD4D
:10FAE000DD3E0300F8B50D46002380F83C308376F8
:10FAF000044600F13201A888FFF75CF920B10E4AF4
:10FB000040F20A51FCF7B9FEE36C1BB1A98804F17D
:10FB100040009847AB88E669276AE387B74206D07A
:10FB200056F8040B036829469B699847F6E7204678
:10FB3000BDE8F840FFF798BF983E0300F8B54FF6D0
:10FB4000FF73C387C36C04460E461BB1C36D89881F
:10FB500050309847E569276AAF4206D055F8040B44
:10FB6000036831469B699847F6E72046BDE8F840B0
:10FB7000FFF790BF08B50346C08F4FF6FF72904263
:10FB800010D09A7E72B901229A761321FFF714F9E8
:10FB900030F0080306D0044A40F23351BDE8084073
:10FBA000FCF76BBE08BD00BF983E0300807E704727
:10FBB00070B5C469066A0D1DA64206D054F8040B40
:10FBC000036829469B6A9847F6E770BD10B58368BD
:10FBD0000446DB689847204610BD2DE9F84343688A
:10FBE00004681C1BA41014BF23460123E418064616
:10FBF000894602D2B4F1804F25D36FF04044A00073
:10FC00000AF04AFF0746D6F800807568D9F8003038
:10FC1000C8EB0505EF4218BF7B51AB0804D02A465C
:10FC2000414638460FF050FB04353D44B8F1000F13
:10FC300002D040460AF092FB07EB840437607560FF
:10FC4000B460BDE8F883002CD9D12746DBE7FFFF7D
:10FC50000B6800B10360014B83607047203F0300D5
:10FC6000024B83600B680360704700BF203F0300B6
:10FC70000B6800B1036070477047FFFF0048704792
:10FC80005C3E030010B50446084604490AF060FFD4
:10FC9000002814BF2046002010BD00BF5C3E0300BA
:10FCA0000B6800B10360014B836070473C3F030069
:10FCB000024B83600B680360704700BF3C3F03004A
:10FCC0000B6800B1036070477047FFFF0048704742
:10FCD000443E030010B50446084604490AF038FFC4
:10FCE000002814BF2046002010BD00BF443E030082
:10FCF00008B50A46002107F0B3FC28B1034A3221B7
:10FD0000BDE80840FCF7B9BD08BD00BFDD3E0300FB
:10FD100008B5006807F0B6FC28B1034A4021BDE8E9
:10FD20000840FCF7AABD08BDDD3E030008B507F09A
:10FD3000E9FC28B1034A4721BDE80840FCF79DBD16
:10FD400008BD00BFDD3E030037B50D4BCB1A0F2BAE
:10FD500004460D46019306D9002201A90BF010FAC2
:10FD6000019B2060A3602A46054920680BF036FA03
:10FD7000019B226863600021D15403B030BD00BFF5
:10FD8000D23E0300A0DF7047704770475430704781
:10FD900013B5836DC26D01919342044605D003B142
:10FDA0001960A36D0433A36503E001A9543000F08A
:10FDB00004F9204602B010BD73B500F1080541609A
:10FDC00004462846FEF7B4FF2846FEF74BFF02A97B
:10FDD00022464FF6FF7341F8040D22F82A3F012016
:10FDE000FFF7D0FF18B10B4A2021FCF746FD23682E
:10FDF0002046DB6A984790E86000AE4205D0214675
:10FE000055F8040B00F09EF9F7E7012384F82C3035
:10FE100002B070BD5C3F0300036870B5DB6A0D463D
:10FE2000984790E85000A6420FD054F8040B90F881
:10FE3000203065F3861380F82030036815B1DB6A43
:10FE40009847F0E71B6B9847EDE770BD0A88112AC9
:10FE500009D0502A0DD0102A10D1036801F10802F0
:10FE6000DB6989881847036801F108021B6A8988E1
:10FE70001847036831F8062F5B6A184770477047C8
:10FE80000368F7B5DB6A0D46064617469847416892
:10FE90000368994213D053F8044B2888E28A9042B1
:10FEA00011D16A89022A0ED16A7B2B7B43EA022395
:10FEB00094F8202063F3C30284F8202001E000209E
:10FEC00021E001201FE0628ABA42E2D1AB795A1EDA
:10FED000022A06D8236869891B6A204698470120B0
:10FEE00011E0062BEDD102AA7068002322F8023D32
:10FEF0003946C08F00F0C4FC2368BDF806101B6AA9
:10FF000020469847012003B0F0BD036870B5DB6A56
:10FF10000D46984790E85000A64206D054F8040BCE
:10FF2000036829469B6A9847F6E770BD70B504469A
:10FF3000406DA26D151A2D11002D034616DD0668C1
:10FF40008E422DD046688E4201D1043028E086686A
:10FF50008E4201D1083023E0103050F8046C8E42FC
:10FF600002D103F10C001BE0013DE5E7151AAD10CD
:10FF7000022D08D0032D02D0012D0ED107E0056817
:10FF80008D420DD004331868884208D004331868B5
:10FF9000884214BF1046184602E0104600E018469A
:10FFA000011D8A4204D0521A930801D00FF08CF937
:10FFB000A36D043BA365204670BD2DE9F84343685B
:10FFC00004681C1BA41014BF23460123E418064632
:10FFD000894602D2B4F1804F25D36FF04044A0008F
:10FFE0000AF05AFD0746D6F800807568D9F8003047
:10FFF000C8EB0505EF4218BF7B51AB0804D02A4679
:020000022000DC
:10000000414638460FF060F904353D44B8F1000F21
:1000100002D040460AF0A2F907EB8404376075600D
:10002000B460BDE8F883002CD9D12746DBE7A2DF16
:100030007047A6DF704710B50446006808B10EF09F
:1000400067FD204610BD704710B504460AF086F9DA
:10005000204610BD70B50F4E336813F0010516D160
:1000600030460BF00BF890B10B4C4FF6FF73A380AA
:100070000A4B23603046042384F84C5084F85430F3
:100080000BF018F8064A074920460AF061F90248C1
:1000900070BD00BFA43400204C3400208442030013
:1000A000B826002047000200704790F820305B0619
:1000B00003D590F82830FF2B02D103685B691847FD
:1000C000406A7047704700207047A0F842107047A0
:1000D00008B500F0D5FA006808BDB0F842007047D6
:1000E000B0F840007047A0F844107047B0F84400E2
:1000F0007047FFFF094A02604DF6AD610022426081
:1001000001818272C260C0F81220C0F81620C2615C
:100110000284426280F82820704700BF58410300E3
:1001200038B590F82030DB0704460D4605D5044A63
:100130001A2102F14300FCF79AFBE56038BD00BFCD
:10014000544003002DE9F04304469BB00DF15C08D8
:100150000EAD0DF162071C22E1610E4610A80021D0
:1001600088F802100E916960ADF85C10ADF862106D
:10017000B9700FF00DF909A9204600F0DBF8012352
:1001800003228DF85E201A4663F307128DF85C2077
:1001900094F82020CDF85480920654BF1A460322CA
:1001A00004F104084CBF62F3071363F307124046DF
:1001B0004CBF8DF85D308DF85D20FEF7B9FD4046EF
:1001C000FEF750FD0DF168081422002148F8640D77
:1001D00009A80FF0DDF82368CDF824801B692046BC
:1001E00098472368ADF82C009B6820469847ADF8E7
:1001F00030002046FFF759FF05238DF8643094F84E
:1002000020300D9013F0200F4FF001030AD0194653
:10021000032262F3071162F307138DF862108DF861
:10022000633009E01A4663F307128DF862201A461C
:1002300063F307128DF863200A97E7684FF0000810
:1002400005ABCDF84480CDF850800393002F69D0E2
:1002500038460FF095FF0F2807EB0009029007D9E9
:10026000424602A903A80AF08BFF029B0390059364
:100270004A46394603980AF0B1FF029B039904935A
:100280000022CA54049B33B39BB2ADF84A30ADF898
:10029000483003238DF8673094F82030ADF865209E
:1002A00013F0200F9DF86530039911914FF0010272
:1002B00062F3030318BF032262F307138DF865305E
:1002C0009DF8663003F0F0036FF307138DF8663086
:1002D0000DF1650314932368002713975B6B294680
:1002E0002046984710B1ADF83A70139504F1120307
:1002F00009AA10A9708DFFF79AFE18B10B4A9B212D
:10030000FCF7BBFA0021204600F036F894F82030C4
:1003100043F0010384F8203003A80AF057FF1BB014
:10032000BDE8F08302480AF0D3FE00BF544003004A
:10033000C14003000B7F43F002036FF300030B7710
:1003400090F820300A7FC3F3800363F3C3020A7777
:1003500090F82030D2B2C3F3400363F304120A775B
:1003600090F82030D2B2C3F3001363F34512437CFC
:100370000A7781F83F3070472DE9F043036887B072
:10038000DB6904468846984706462046FFF78DFEFF
:1003900094F820305B06054633D594F82830FF2BBF
:1003A0002FD04146304600F04DFC0746FFF752FE85
:1003B000236881465B692046984794F8283001936A
:1003C00032460146CDF8088000972B46484600F09B
:1003D0006FFC064678B93A46014628460EF0D8FF2B
:1003E00023683146DB6820469847FFF733FE00F06C
:1003F00050FC032036E023683946DB6820469847E6
:1004000004E023683146DB6820469847236820468D
:100410001B699847E369618A06AA22F8020D5868A9
:100420002B46C08F00F03DFA18B1104AF321FCF7BB
:1004300024FA94F8203003F0020202F0FF008AB19F
:10044000E2695268D18F4FF6FF72914209D003F0F2
:10045000080303F0FF002BB1236820465B6A98472E
:1004600000E0002007B0BDE8F08300BF5440030067
:1004700030B590F820309A0787B0054608D5C26994
:100480005268D18F4FF6FF72914201D01B0701D401
:10049000082037E003681B6998476B8AADF808307D
:1004A0000DF10602012304928DF80A30EA69ADF8D5
:1004B0000600002305935268ADF80C3002A9D08FD6
:1004C000FFF7B7FD0446E0B143F20402944206D1BF
:1004D00095F8203043F0800385F8203011E0082C97
:1004E00006D195F8202063F3C71285F8202008E094
:1004F00043F201439C4204D0034A40F23911FCF715
:10050000BCF9204607B030BD544003002DE9F04F40
:1005100090F820309A0791B0044608D5C269526815
:10052000D18F4FF6FF72914201D01B0701D40820F2
:100530007DE003681B69984780462046FFF7B5FDBC
:1005400094F8203023F07F03814603F0FF060BB1BF
:10055000B4F8466000250DF1180AB04566D9C6EB1F
:100560000805132D4FF014024FF0000150462F469E
:10057000A8BF13270EF00CFFBFB2132D09EB060B1B
:10058000CCBF1323FF233A4659460DF11900C8BFCB
:10059000B6FBF3F38DF818300EF0FCFD7A1C92B226
:1005A00059460BA8ADF806200EF0F4FD0DF1060239
:1005B0000492E269CDF814A0638A5268ADF808305D
:1005C00001238DF80A3002A90023D08FADF80C303A
:1005D000FFF72FFD054600B343F20402904208D115
:1005E00094F82030A4F8466043F0800384F820306B
:1005F0001CE0082808D194F82020A4F8463063F3C2
:10060000C71284F8202011E043F20143984204D03D
:10061000084A4FF4D371FCF730F9BDF806200BA956
:1006200058463E440EF0B6FDB6B296E7284611B0E5
:10063000BDE8F08F5440030010B590F820301B0641
:10064000044609D503685B6A984728B994F82030B6
:1006500060F3C71384F8203010BD10B590F8203037
:100660001B0604460BD503685B6A984738B994F8B3
:100670002030A4F8460060F3C71384F8203010BD82
:1006800080B483B000AF78607B682C3318460C3799
:10069000BD465DF8047B704710B50446034B40F837
:1006A000303BA36BDB689847204610BDF43F030046
:1006B00010B50446FFF7F0FF204609F04FFE204634
:1006C00010BD2DE9F04387B00D460446FFF7C2FC8C
:1006D00000F0E6FA064600285DD123682946DB686B
:1006E00020469847C9238DF8173094F8203013F02E
:1006F000400F236838D094F82820FF2A34D01B6993
:100700002046984700F0ADFA236801469B692046D1
:100710009847FFF79FFC05462046FFF7C6FC236875
:1007200007461B6920469847236880465B69204638
:10073000984723688146DB69204698470DF11703E7
:100740008DE8090002964B4642463946284600F09D
:1007500031FBE0B1FFF77EFC9DF8172094F82810DC
:1007600000F0ACFC38B912E0FF228DF817209B692D
:1007700029462046984720469DF81750FFF780FFEE
:10078000E36B0246294604F13000984703E0FFF787
:1007900061FC00F07EFA07B0BDE8F083F8B5436A6B
:1007A00004463BBB90F82130DB071CD5124F134E9B
:1007B0003D6815F001050ED138460AF05FFC50B1D6
:1007C00038463560B580B5710AF074FC0C4A0D49A5
:1007D000304609F0BDFD336803B16362636A4BB90B
:1007E00001200DF0E9FE03689B68984701210DF098
:1007F000A5FE6062F8BD00BF4834002040340020F0
:10080000B82600203700020038B50446406A50B1CF
:1008100094F8213013F0010502D00023636238BD43
:100820000EF076F9656238BD1B2301200B700023A2
:100830000871CB8048707047831E012B10B50446A9
:1008400001D808F0B1FA012C11D1094C2368DB075B
:1008500006D420460AF012FC10B120460AF02AFC09
:100860004FF48B710348BDE81040FEF7DDB910BDB1
:10087000AC2F0020B02F0020A4DF7047A5DF704709
:1008800013B514461288ADF800200022ADF80220FE
:100890006A460193FFF7F2FFBDF80030238002B0F3
:1008A00010BD13B514461288ADF800200022ADF833
:1008B00002206A460193FFF7DFFFBDF80030238076
:1008C00002B010BD0B7803717047704710B5044635
:1008D00009F044FD204610BD08B5006806F0D2FEC0
:1008E00028B1034A4021BDE80840FBF7C6BF08BD58
:1008F000AD41030010B50446D0F8440108B109F039
:100900002DFD204610BDFFFFF0B5044685B0FEF773
:1009100073FAA06A06F0F6FE18B13E4A4721FBF7CB
:10092000ACFF94F82D30002B5ED1636E94F82C2030
:100930000133636694F8323012B963F07F0301E04B
:1009400003F07F0384F83230B4F83D30324D013388
:10095000A4F83D302B68DB070ED428460AF08EFB46
:1009600050B12E48FBF7CAFF28460AF0A3FB2C4AD9
:100970002C492A4809F0ECFC19212848FCF736F8E4
:1009800060B3294F012104F13C00FDF775FE3B687F
:1009900013F0010616D138460AF070FB90B1234DD2
:1009A0004FF6FF73AB80224B2B603846042385F84B
:1009B0004C6085F854300AF07DFB194A1D492846E1
:1009C00009F0C6FC0223102202930193009204F165
:1009D000510304F12F01154800F06AF9FEF71EFAE1
:1009E0004FF48271FEF720F994F82C3004F12805B9
:1009F0002BB9FEF701FA224640F6CD4104E0FEF79E
:100A0000FBF922464FF40041284605B0BDE8F0400E
:100A1000FFF762BFAD41030060300020643000206A
:100A2000B8260020ADD10100A43400204C340020B1
:100A300084420300470002002DE9F8434FF6FF739C
:100A400000250446838000F12E08364B036080F8B1
:100A50002D5011222946404604F13F070EF098FC24
:100A60001122294638460EF093FC04F108091122A0
:100A70002946264604F150000EF08AFC2022294621
:100A800048460EF085FC46F8289FFEF7B5F9264A41
:100A90002946304606F0E4FD18B1244A3221FBF71E
:100AA000ECFE234D2B68DB070ED428460AF0E6FA4D
:100AB00050B12048FCF7D2FB28460AF0FBFA1E4A48
:100AC0001E491C4809F044FC012304F12C02862134
:100AD0001848FCF772FDFEF7A1F92146FEF7A8F8C9
:100AE00001251122002140460EF052FC1122002166
:100AF00084F82E5038460EF04BFC84F83F5084F8B2
:100B00005050FEF779F922464FF400413046FFF786
:100B1000E3FE002320466366FFF7F6FE2046BDE8AD
:100B2000F88300BFF8410300410B0200AD41030010
:100B3000A8340020AC340020B8260020F5080200BC
:100B4000FFF7E2BEB1F58A7F70B504460D46164642
:100B500012D009D88B2915D040F2131399421ED117
:100B6000012380F82D301AE06FF48C73CB18012B21
:100B700015D890F832300BE0002380F82D30FFF7C5
:100B8000C3FE0CE0042B0AD1126890F8323012B187
:100B900043F0040301E023F0040384F8323094F8B6
:100BA0002C30F3B1822D12D004D8222D07D0812D04
:100BB00009D070BD832D0DD0872D0ED070BD338828
:100BC000A4F82F3070BD337884F8313070BD3368AD
:100BD000A36370BD3368636370BD96F9003084F819
:100BE000333070BD4DDF7047114B70B5036504465F
:100BF000104DFEF713F92146FEF71AF82B68DB07B4
:100C00000ED428460AF03AFA50B10B48FCF726FBFE
:100C100028460AF04FFA094A0949074809F098FBA3
:100C2000A21D012386210448BDE87040FCF7C5BC25
:100C3000BEBAFECAA8340020AC340020B82600207A
:100C4000F508020001290AD8031D13F00F031CBF89
:100C5000C3F110039BB20830184480B270471020D3
:100C60007047082886BF083880B20020704740F2DD
:100C70001313994210B504460AD1FEF7E1F8192181
:100C8000FBF7B4FE20B12046BDE8104000F0E3B908
:100C900010BD08B5FEF7F2F8BDE80840FEF76ABFE0
:100CA00008B5FEF7EBF8BDE80840FEF77FBFFFFF91
:100CB0002DE9F74F9DF83880BDF830609DF834B0CD
:100CC000B8F1010F0446894692461F462CD8594672
:100CD00000F094F908B9002665E094F85450751BAB
:100CE000ADB20AF10303AB42F5DA03213846FDF752
:100CF000C3FC04F11C0143463A46204687F803B082
:100D000000F0B9F9019594F85430B8F1010F3B4463
:100D100000930CBF04F15001E11D53464A462046A2
:100D200000F010F906463EE0F6B2102ED3D1B8F12D
:100D3000030FD5B202D10C2D05D9CCE7B8F1020FC3
:100D400001D1102DC7D85946204600F057F9064664
:100D50000028C0D004F11C0A1022002150460EF0D9
:100D600017FBB8F1030F01BF236DE3612A46494623
:100D70000FBF04F120002A46494650460EF00AFAF9
:100D800004F10C00FFF72EFF18B1094A7621FBF79A
:100D900074FD04F12C023B463C3452F8041B43F82A
:100DA000041BA242F9D1304603B0BDE8F08F00BF6A
:100DB0002C4203002DE9F7439DF83070DDF82C90AC
:100DC000012F04460E461546984601D9002034E00E
:100DD00090F854300F339342F8DAC97800F00EF9E6
:100DE0000028F3D0F378012B09D004D3022B06D0CE
:100DF000642B04D005E0002389F8003001E089F875
:100E0000003094F8542004F11C01AD1A3B463246E0
:100E1000204600F030F994F85420BDF828300193B2
:100E2000012FADB20CBF04F15001E11DCDF80080DF
:100E30002B463244204600F003F803B0BDE8F083AF
:100E40002DE9F04F85B00646029119469346994622
:100E5000BDF83C4000F02AF908B900205CE0231DF1
:100E6000C3F30F1213F00F0318BF012313449BB2F7
:100E70000193002706F10C03B84603935FFA87FA43
:100E8000019B1FFA8AF5AB4243D986F82BA0039841
:100E9000FFF7A8FE20B1224A40F24911FBF7EDFC12
:100EA0002D0106F12B0206F13B00A945D5D91BF80F
:100EB00005E012F8011F01358EEA0101824211702E
:100EC000ADB2F2D106F12C01BAF1000F10D1029AA5
:100ED000304600F027F80028BFD00B2C94BF2546E1
:100EE0000C252A4606F130010E980EF053F909E060
:100EF0000F2C0E9B94BF254610252A4603EB0800B5
:100F00000EF048F9641BA844A4B21FFA88F8013710
:100F1000B4E7B4FA84F0400905B0BDE8F08F00BF33
:100F20002C42030010B54B1E013A033113F8014F58
:100F300012F8010F844203D18B42F7D1012010BD7A
:100F4000002010BD2DE9F74FBDF8345001938846BD
:100F500029460446914600F0A9F80746002846D0E5
:100F60002E0904F10C0A0025EBB21FFA83FB5E4543
:100F70003DD984F82B305046FFF734FE20B11E4A8D
:100F800040F2B911FBF779FC4FEA0B1304F12C0185
:100F9000A3F1040C4FF0000E084653B9BEF1030F45
:100FA00007D891F800B018F80E208BEA02020A70F8
:100FB00008E0019A624581BF19F80CB00A788BEA03
:100FC00002020A700EF1010EBEF1100F01F10101D3
:100FD0000CF1010CE1D10C9A134404F13C0250F8DD
:100FE000041B43F8041B9042F9D10135BCE7384695
:100FF00003B0BDE8F08F00BF2C420300C92938B50B
:10100000044626D0012905D017D3022917D0642918
:1010100002D01EE0242513E08379D3B990F84C0068
:10102000C0B104F13C0304F10C024C3453F8041B2E
:1010300042F8041BA342F9D138BD232500E0252541
:10104000FDF7FEFE04F10C022946FBF73FFF0120ED
:1010500038BD002038BD10B5C41D05212046FDF760
:101060000BFBFDF7DBFE2246052340F21711BDE81E
:101070001040FDF7BBBDF8B50D46164604461022DC
:10108000002128461F460EF083F933882B80B37861
:10109000AB702046012F0CBF50F8502F50F8072F8F
:1010A000C5F80320EB1C02791A71F8BD0B0703D1B8
:1010B000081C18BF012070470020704770B50D460E
:1010C00006461446FDF7BCFE1921FBF78FFC68B1FC
:1010D000FF2D0CD0B37923B9642C02D196F84C00C3
:1010E00028B9A54234BF0020012070BD012070BD89
:1010F00038B58379044600F13C053BB910212846F8
:10110000FDF7BAFA012384F84C3002E0002380F89E
:101110004C30284638BD002380F84C30704744DFFF
:10112000704745DF7047FFFF10B50A4C2368DB07A7
:101130000ED4204609F0A2FF50B10748FCF78EF804
:10114000204609F0B7FF054A0549034809F000F9B0
:10115000014810BDA8340020AC340020B82600207F
:10116000F508020010B50A4C2368DB070ED42046B0
:1011700009F084FF50B1074800F010FC204609F048
:1011800099FF054A0549034809F0E2F8014810BDF6
:101190000437002064360020B8260020C118020061
:1011A00010B50A4C2368DB070ED4204609F066FF11
:1011B00050B1074800F016FF204609F07BFF054AB2
:1011C0000549034809F0C4F8014810BDB8370020AC
:1011D00008370020B8260020CF18020010B50A4CAE
:1011E0002368DB070ED4204609F048FF50B10748BA
:1011F00003F028FE204609F05DFF054A0549034833
:1012000009F0A6F8014810BD44380020103800202D
:10121000B8260020DD18020010B50468FF20FFF793
:1012200080FFC0B218B10D4A3321FBF726FB2046E0
:10123000FFF775FFC0B218B1084A3521FBF71DFB57
:10124000BFF34F8F0649074BCA6802F4E0621343AD
:10125000CB60BFF34F8F00BFFDE700BFBC42030070
:1012600000ED00E00400FA0537B5104D2B68DB07F0
:10127000044609D4284609F001FF28B10C4800F0C3
:1012800019F8284609F016FF002263882178009299
:101290000748626800F064F860680DF039FC204689
:1012A00003B0BDE830400DF033BC00BF6036002015
:1012B00014360020F8B50446002520273A46294672
:1012C00004F1240685640EF063F824623A46294648
:1012D00030460EF05DF866642046F8BD10B5044651
:1012E0008164FDF789FD074904F1200000F0FEFA52
:1012F000FDF782FD04F144000349BDE8104000F011
:10130000F5BA00BF691202001912020070B50D4C47
:101310002368DB0705460E4608D4204609F0AEFEDA
:1013200020B1094B20461E7009F0C4FEFDF764FD94
:1013300005F14400044A4FF48031BDE8704000F0EC
:10134000E5BA00BF4C3800204838002007B500231C
:1013500000931A4600F004F803B05DF804FBFFFFA9
:10136000F0B58FB0074616461D469DF850401A2925
:1013700000F29E82DFE811F04E022802EF001B000F
:101380002A00CA00C001B001390092024F008C024D
:1013900065009400D401030165023B01C000DF0138
:1013A000E501630029010A02830283021601FEF7A8
:1013B00051FE22460021FFF781FE002800F0118235
:1013C00038464221FFF7A2FF002076E2FEF742FEF8
:1013D00022460021FFF772FE002800F00282384604
:1013E0000021FFF793FF002067E2FEF733FE22465D
:1013F0000021FFF763FE002800F0F381012D40F08B
:10140000F4813478FDF71CFD2B4622461821FBF7AA
:1014100057FB002051E2FEF71DFE22460021FFF798
:101420004DFE002800F0DD81012D40F0DE81347892
:10143000FDF706FD2B4622461A21FBF741FB002053
:101440003BE2FEF707FE22460021FFF737FE0028A9
:1014500000F0C781032D347806D0012D40F0C581FE
:10146000002C40F0C2810EE06CB1B6F801502DB1F5
:10147000FFF778FE294600F04DFB08E0FFF772FE0B
:1014800000F03FFB03E0FFF76DFE00F067FBFDF7A8
:10149000D7FC012322461B21FBF712FB00200CE2A4
:1014A000FEF7D8FD22460021FFF708FE002800F0D5
:1014B0009881012D40F0998134782CB1FFF752FECC
:1014C00000F0EEFA0020F8E1FFF74CFE00F0FCFA25
:1014D000FFF748FE00F010FB036806AA5B690AA943
:1014E0009847FDF79BFCBDF818300A9A40F20711A7
:1014F000FDF77CFB2046E0E1FEF7ACFD2246012132
:10150000FFF7DCFD002800F06C8198E7FEF7A2FDF4
:1015100022460021FFF7D2FD002800F06281042D51
:1015200040F06381B94C35682368D90709D4204657
:1015300009F0A4FD28B1B64800F00CFE204609F0E1
:10154000B9FD2946B24800F0DFFE00287FF477AFEE
:101550004FF48170B1E1FEF77DFD22460121FFF7D6
:10156000ADFD002800F03D81042D40F03E8134683F
:10157000FFF716FE214600F07BFD00209DE1FEF7FF
:1015800069FD22460121FFF799FD002800F029811D
:101590000C2D40F22A81FFF703FE721C317800F017
:1015A00098FD8AE1FEF756FD22460121FFF786FDF0
:1015B000002800F01681002D00F017813478FFF725
:1015C000EFFD214600F0A2FD77E1FFF7ADFD01231D
:1015D0000AAA8621FBF7F1FF9DF82840002C40F075
:1015E0006A81FDF74BFCFEF7CAF8204665E1FFF77C
:1015F0009BFD012304AA8621FBF7DFFF9DF8105015
:10160000002D40F05881FDF71BFC294604461022AE
:101610000AA80DF0BDFE19212046FBF7E7F950B9E5
:101620000DF1120222212046FBF750FCBDF81230CA
:10163000002B4ED022E006AA23212046FBF746FCD1
:1016400010220AA906A80DF073FD002841D006AAB1
:1016500024212046FBF73AFC10220AA906A80DF027
:1016600067FDB0B306AA25212046FBF72FFC102208
:101670000AA906A80DF05CFD58B3D1E705AA06211A
:101680002046FBF723FCBDF8143013B30DF116020E
:1016900007212046FBF71AFCBDF81630CBB1FFF747
:1016A00043FD0EAA102302F8273D86210123FCF7F3
:1016B000C9F80EAA0024012302F82C3D214600940B
:1016C0003846FFF74DFE38462146FFF71FFE2046FD
:1016D000F3E040F20310F0E0FEF7BCFC22460221EA
:1016E000FFF7ECFC00287CD0FDF798FB4FF48C71E1
:1016F000FDF79AFA0020E0E0FEF7ACFC224601215B
:10170000FFF7DCFC00286CD0042D6ED1FDF786FBC2
:101710002B4632464FF48C71FDF768FA0020CCE07E
:10172000FEF798FC22460121FFF7C8FC002858D09C
:101730004FF48270C1E0FDF7A1FBFEF71BFA002019
:10174000BBE0FEF787FC22460021FFF7B7FC00282C
:1017500047D0BB6CD97B0A077FF571AE022D44D10F
:1017600032787078012A0CBF9A7B5A7BCB0648BF2F
:1017700080F0010001234FF0A041934018B1C1F85F
:101780000835002099E0C1F80C3596E0FEF762FCC0
:1017900022460021FFF792FC18B3042D25D1FFF754
:1017A000C3FC8B212B460AAAFBF707FF32680A9B72
:1017B00023EA02030A93FFF7B7FC2B460AAA8B2100
:1017C000FCF740F8002078E0836C1B7C03F0FD03FD
:1017D000012B70D1FEF73EFC22460221FFF76EFC82
:1017E00008B9052069E0012D01D0022065E03478B8
:1017F000FFF7F4FC03F0F4FB84423FF420AEFFF764
:10180000EDFC214603F0E2FB002056E00C380020FE
:10181000BC370020836C1B7C03F0FD03012B4AD1F5
:10182000FEF718FC22460221FFF748FC0028D8D01A
:10183000012DDAD1FFF7D2FC317803F0E9FB00206B
:101840003BE0836C1B7C03F0FD03012B33D1FEF7DF
:1018500001FC22460221FFF731FC0028C1D0012DF6
:10186000C3D134782CB9FFF7B9FC03F0C7FB20468D
:1018700023E0FFF7B3FC03F0B7FB00201DE0FEF709
:10188000E9FB22460221FFF719FC0028A9D0D6E582
:10189000836C1B7C03F0FD03012B0CD1FEF7DAFBFC
:1018A00022460021FFF70AFC00287FF441AF98E7A9
:1018B0004FF4807001E040F201100FB0F0BD00BFA6
:1018C000704710B5044608F049FD204610BD70472A
:1018D00010B5044608F042FD204610BD704710B513
:1018E000044608F03BFD204610BDFFFF08B50A4640
:1018F000002105F0B5FE28B1034A3221BDE80840B9
:10190000FAF7BBBF08BD00BF0643030008B5006877
:1019100005F0B8FE28B1034A4021BDE80840FAF7B7
:10192000ACBF08BD0643030070B50C688D8800236A
:10193000AB420ED2E618E15C7678864206D10233DD
:101940002344013913609180002070BD01310B44A4
:10195000EEE7052070BD704710B5044608F0FEFCA8
:10196000204610BD5A2A08B502D801200CF024FEEA
:101970004160002008BD08B5FCF7CAFE00EBC000BE
:10198000013080B208BD5B20704710B51446426834
:101990000A6003681B699847208010BD38B54FF670
:1019A000FF738380144B03604FF4FA6343814FF459
:1019B0007A73838141F65833C3810323002104469F
:1019C000037400F118054FF4B4738171C171017291
:1019D00043828182C163202228460DF0D9FCA56391
:1019E000082009F059F8054B036004F14003C4F8DE
:1019F0009C004360204638BD004403005043030070
:101A000038B5204D2B68DB0704460ED4284609F074
:101A100035FB50B11C48FAF771FF284609F04AFB24
:101A20001A4A1B49184808F093FC04F10A021021D5
:101A30001548FBF74BFA04F10C0211211248FBF791
:101A400045FA04F10E0212210F48FBF73FFA04F1A8
:101A5000100215210C48FBF739FAFDF7DFF9214692
:101A6000FDF7E6F8FDF7C8F90A4A002104F138004D
:101A700005F0F6FD28B1084A3221BDE83840FAF7F2
:101A8000FCBE38BD6030002064300020B826002045
:101A9000ADD10100FF1A0200B5430300C1637047D6
:101AA000C36B10B5044673B1D0F89C00FCF734FE4C
:101AB0000123E371E06BFDF715FE20B9E06BBDE893
:101AC0001040FDF7BFBD10BD10B50446C06B48B156
:101AD0000023E371FDF706FE20B1E06BBDE8104086
:101AE000FDF7E4BD10BDC36B23B1C27912B1184636
:101AF000FDF7F8BD00207047D0F89C00704700F05B
:101B00003AB8027A2AB9012101728282827100F008
:101B1000F6B87047037A70B504460D46EBB901225A
:101B2000027283828371FDF767F94FF400464FF428
:101B3000FA7000214FF47A720023E5FB06010BF0E6
:101B4000BDFB002908BF052807D32246014604F142
:101B50003800BDE8704000F03FB970BD027A2AB18C
:101B60000022027201228271FFF7AEBFC3790BB16E
:101B7000FFF7AABF7047037A0BB100F0C0B87047F7
:101B800007B5D0F89C0003680DF1020201A95B695A
:101B90009847FDF743F9BDF80230019A40F207116A
:101BA000FDF724F803B05DF804FB0B881D2B02D170
:101BB000083100F057B870477FB5438A05460E4696
:101BC00013B1838A002B47D06A463146FF20FFF7C6
:101BD000ABFE0446F0B9BDF80420022A1AD90099D8
:101BE00048780B7843EA002340F28E30834211D1CB
:101BF000023A1B4B029392B2023102A88DF80C40BC
:101C0000FEF760FE9DF80C30012B21D0022B1BD07B
:101C1000204622E06A4631461620FFF785FED8B9F5
:101C2000BDF80430132B17D1009A5178137843EA8A
:101C30000123B3F5404F0FD94CF20202934207D96A
:101C40004CF20302934207D1287CC0F3400004E029
:101C5000287C00F0010000E0002004B070BD00BF4F
:101C60007043030037B505460C46FFF73CFFE0B173
:101C7000FDF7D4F8282322464FF48471FCF7B6FF11
:101C8000237ADA0711D504F10902DB0869462846F0
:101C90000092ADF80430FFF78FFF30B994F90720B8
:101CA000D5F89C00611CFCF73CFD03B030BD122947
:101CB00018D004D810290FD0112910D07047162938
:101CC00013D0B1F5897F04D0152910D11278027490
:101CD00070471146FFF769BF12684281704712686A
:101CE000828170471268C2817047126842827047D1
:101CF000704710B5044608F031FB204610BD8379CB
